:100000000C9481050C94A9050C94A9050C94A905E0
:100010000C94A9050C94A9050C94A9050C94A905A8
:100020000C94A9050C94A9050C94190D0C94880D39
:100030000C94A9050C94A9050C94A9050C94A90588
:100040000C94A9050C94A9050C94A9050C94A90578
:100050000C94A9050C94A9050C94A9050C94BA0F4D
:100060000C94A9050C94A9050C94A9050C94A90558
:100070000C94A9050C94A9050C94A9050C94A90548
:100080000C94A9050C94A9050C94A9050C94A90538
:100090000C94A9050C94A9050C94A9050C94A90528
:1000A0000C94A9050C94A9050C94A9054245574147
:1000B0005245204F46205350494B455321000044A0
:1000C000494720414E4420444F4E27542047455431
:1000D000204255524945440045415420474152422F
:1000E00041474520544F20534852494E4B0045410B
:1000F0005420524F4F545320544F2047524F5700D3
:10010000434C494D4220414E4420444F4E275420F9
:1001100047455420535455434B00424F5244455297
:10012000532041524520534F4C494420524F434B9A
:1001300000095553452054484520442D5041442042
:10014000544F204D4F56450A094F4E2054484520E4
:10015000534F4C494420524F434B0A09414E4420CF
:1001600052454143482054484520455849540000D1
:10017000B00000A170E150964F26900F1D070C00B3
:100180009669004AE44A0048444000806810000F25
:1001900099FB8F9DBDBBFB77D4D4DF1F1A1AFE7F5E
:1001A0005D5DFF805A0000A0A4AA0010BA3400FFD1
:1001B0005953F3FF9B9B9EFFB9B996FF9595D19F2D
:1001C000F4940FFC295F91FF1838F8FF9294FFFF19
:1001D00095D5F7BFB5DDD7F18F81F1F788C8F779ED
:1001E000C6467909FD9B090196F8008281828050FC
:1001F0007162007756560076763700A2B773010712
:100200007206007827500073347400775176007FAF
:1002100055F7004771100032477200736473001580
:10022000A2750061679400009F6060F4F2F6F2D559
:10023000F08D14A1C881CFD9F1AF200000387878B3
:100240007C7C7E7E00030F7F7F7F3F007E7E7C7CF8
:100250007878380000C0F0FEFEFEFC007E7F7F7FD5
:100260007F3F1F007EFEFEFEFEFCF80000F8FCFE55
:10027000FEFEFE7E001F3F7F7F7F7F7E7E7E7E7E36
:100280007E7E7E7E00FFFFFFFFFFFF007E7E5E52D0
:10029000525E1C0000FCE6E6FEC0FC00001C5E5244
:1002A000525E7E7E003F67677F033F0000F80402D6
:1002B0000204F800000080E0FEE0800080C0F0FC56
:1002C000FEE8E08000123E3C78784C0055AA55AA22
:1002D00055AA55AAFFFFFFFFFFFFFFFF555345201B
:1002E00054484520442D50414420544F204D4F56F2
:1002F00045205448450A574F524D20544F205245EF
:100300004143482054484520455849542E0A454108
:100310005420524F4F545320544F20474554204CA3
:100320004F4E4745522E0A4A554E4B204D414B45A4
:100330005320594F552053484F525445522E0A527C
:100340004F434B532043414E2754204245204541C3
:1003500054454E2E0A594F552043414E204449479B
:1003600020534F494C2E0A534F494C204E4F542096
:10037000434F4E4E454354454420544F0A524F4339
:100380004B532057494C4C2046414C4C20444F572E
:100390004E2E0A444F4E2754204745542042555272
:1003A000494544210A50524553532028412920549D
:1003B0004F20524553544152542E0A0A474F4F443E
:1003C000204C55434B210A00090952454E41544FD8
:1003D0002047524F5454455349004F4E5943484FBC
:1003E00050484F524120574153204D4144452042EF
:1003F0005900434F4E47524154554C4154494F4E7A
:1004000053210A594F5520434F4D504C45544544B4
:1004100020414C4C205448450A4C4556454C5320ED
:10042000494E205448452047414D452100001C1CA1
:100430001C7F3E1C082048454C500043524544490F
:1004400054530020504C41590000060703078EFC0E
:10045000F030B030B030387CEEC7030786F070F073
:10046000800000C0F0301010F0E00000C0E030105C
:1004700080C06030303030706040000080F070002C
:100480000000C0F0300080C060603030303070E07C
:10049000C00000E0F0303030F0E00080F07000008C
:1004A00000C0F0300080C060603030303070E0C09C
:1004B000000000F0F0303030F0E000000000C0F04C
:1004C000F0E0000000000000000000000080FFFFDE
:1004D000183234B4F4F2180C0783F8FE0F0300014D
:1004E000078EFCFF0300000080FFFF030180F0FF88
:1004F0001F3830B0F0F01818080080F8FF07030329
:1005000083FFFF0780FFFF183030B0F0F0180C07B2
:1005100083F8FE0F0303030381E1F83F070383E33E
:10052000FF3F0780FFFF183030B0F0F0180C0703D2
:1005300080F0FE1F030E3EB2E3E1303C0E070706DB
:1005400007BFFEF00000000000080B0002020201DD
:10055000000904000001020200000524001001054A
:100560002401010104240206052406000107058177
:100570000310004009040100020A00000007050200
:100580000240000007058302400000040309041232
:10059000010002EF02014041233680000101020305
:1005A0000141726475696E6F204C4C430055534293
:1005B00020494F20426F617264003101060E06032C
:1005C00006020601FFFFFFFFFFFF0180018001809F
:1005D0000180FFFF0000000000000000000000009C
:1005E000000000000000000000000000000000000B
:1005F00000000000000000000000000000000000FB
:1006000000000000000000000000000000000000EA
:10061000000000001A010700050D050E050FFFFF81
:10062000000000000000000000001F00FF070000A5
:1006300000000000000000000000000000000000BA
:1006400000000000000000000000000000000000AA
:10065000000000000000000000000000000000009A
:100660000000000000000000000000000000000189
:10067000060F060206010600FFFF00000000000052
:1006800000003008101CFFFF000000000000000008
:10069000000000000000000000000000000000005A
:1006A000000000000000000000000000000000004A
:1006B000000000000000000000000000000000003A
:1006C0000000000000000000EE00060B060206011C
:1006D0000600FFFF000000003D0821002D082D0846
:1006E000FFFF00000000000000000000000000000C
:1006F00000000000000000080000000800000000EA
:1007000000000000000000000000000000000000E9
:1007100000000000000000000000000000000000D9
:100720000000D800060B060206010600FFFF0000CD
:1007300000003D0821002D082D08FFFF00000000EB
:1007400000000000000000000000000000000000A9
:100750000008000000080000000000000000000089
:100760003000000000000000000000000000000059
:10077000000000000000000000000000BF00010FAA
:10078000070207010700FFFF000001000000000052
:10079000000000000000000000003E383E38FE3F30
:1007A000FE3FFE3F000000000000000000000000CF
:1007B0000000000000000000000000000000000039
:1007C0000000000000000000000000000000000029
:1007D000000000000000BE0001000300040005004E
:1007E0000000000000E000000700030001C000C09E
:1007F00018207828D8EF002800201838F01F0000B3
:1008000000000000000000000000000000000000E8
:1008100000000000000000000000000000000000D8
:1008200000000000000000000000000000000000C8
:10083000BE00050D050205010500F503400000FCA2
:10084000FEED82E1BA0DBE6D800D007C0A7CFF01D9
:100850000000000000000000000000000080000018
:100860000000000000000000006000000000000028
:100870000100000000000080008000000000000077
:1008800000000000000000000000AC00000C0402AA
:1008900004010400F0FF1CC00C800600000043E5CA
:1008A00001C001800700E03FF07F00000000000071
:1008B0000000000000000000000000004000B01038
:1008C000000100000000030003000100010000001F
:1008D0000000000000000000000000000000000018
:1008E0000000FE7FBE00020F07020701070008009C
:1008F0000840E85003100350030003E00300000029
:1009000000000000000000000000000000000040A7
:100910003000000000400000000000000000000067
:1009200000000000000000000000000000000000C7
:10093000000000000000000000000000FF0FBE00EB
:10094000000E070207010700010003000300030077
:100950000300030003000300C001C01DC81DC81D23
:10096000C81DC81DC81D081C0000000000000000B4
:100970000000000000000000000000000000000077
:100980000000000000000000000000000000000067
:100990000000000000000000BE00000E070807076E
:1009A0000706018003C003C003C003C003C003C027
:1009B00003C00000700E700E700E700E700E700E80
:1009C000300C0000000000000000000000000000EB
:1009D00040000000000000000000000000000000D7
:1009E0000000000000000000000000000000000007
:1009F0000C30BE00030004050406040700800080DC
:100A000000F000400048FE4FFE7F0000000CC20FC7
:100A1000C20F0208028000B0008000800040000089
:100A20000000000000300000000000000200000094
:100A300000000000000000000000020000000000B4
:100A400000000000FC00000000000000BE000000EC
:100A5000070207010700802080A880A880AABDA8FF
:100A6000A088ACFB200000003E033E023E000000D8
:100A70000000000000000000000000000000000373
:100A80000C030300030000000000000000500050B1
:100A900000700000000000000000000000000000E6
:100AA000000000000000BE00030F0302030103006A
:100AB000000080008002000A01E8010001200120FE
:100AC0000400040040004000800300030000000018
:100AD00080000000000000000000000000800040D6
:100AE0000000000000000000000000000000008086
:100AF0000000000000000000000000000000FE1FD9
:100B00007C1011241FBECFEFDAE0DEBFCDBF11E0B5
:100B1000A0E0B1E0E4EFF0E302C005900D92A6344E
:100B2000B107D9F726E0A6E4B1E001C01D92A436D2
:100B3000B207E1F715E0C1E8D5E004C02197FE0156
:100B40000E947218C038D107C9F70E941B110C947B
:100B50002C180C9400002F923F924F925F926F924C
:100B60007F928F929F92AF92BF92CF92DF92EF923D
:100B7000FF920F931F93CF93DF93CDB7DEB72B97E1
:100B80000FB6F894DEBF0FBECDBF803891050CF0D4
:100B90008FC0603471050CF08BC0A22EB12C7B018C
:100BA00017E0E122FF24069506950695402E512C6C
:100BB00023E0759567952A95E1F7DA01AB01569523
:100BC000542F442757954795480F591F9B011F8263
:100BD0001E82FA01EB54FE4F1F01E0E8F0E08F01A6
:100BE000081B190B1B870A87CA018B5C9D4F3C01B0
:100BF00088E090E08C010E191F091D830C830E8183
:100C00001F81020D131D8E809F80860C971C90E023
:100C100080E06D01C80ED91EF6014491F801519192
:100C20008F0159833197FB83EA830E2C01C0440F57
:100C30000A94EAF7F9814F2BEA81FB814083E114A2
:100C4000F104C1F027303105A9F0F601C490A401E8
:100C5000480F591FD12CF6010C8002C0F595E7957D
:100C60000A94E2F7FB83EA83FA01C080FA81CF2A73
:100C7000FA01C08201968A159B0534F44A855B858A
:100C80004817590709F0C5CF2F5F3F4FAA0DBB1D6D
:100C90000E811F8100581F4F1F830E83C901861BC1
:100CA000970B8415950524F42830310509F0A7CF5A
:100CB0002B960FB6F894DEBF0FBECDBFDF91CF915C
:100CC0001F910F91FF90EF90DF90CF90BF90AF906A
:100CD0009F908F907F906F905F904F903F902F905C
:100CE0000895CF93DF939AE5899F90011124F9012C
:100CF000E454FA4FE491E0935B06F901E354FA4FB0
:100D0000E491E0935C06F901E254FA4F7491F90121
:100D1000E154FA4F6491F901E054FA4F5491F9010A
:100D2000EF53FA4F4491F901EE53FA4F9491F901C0
:100D3000ED53FA4FE4917093EA056093EB055093FD
:100D4000EC054093ED059093EE05E093EF0593E0FD
:100D500090930A06ABE0B6E050E040E0E901CC53E6
:100D6000DA4FFE01E40FF51F659174916D937D9349
:100D70004E5F5F4F40315105A1F7ABE1B6E050E067
:100D800040E0E901CC52DA4FFE01E40FF51F659116
:100D900074916D937D934E5F5F4F40315105A1F784
:100DA000ABE2B6E050E040E0E901CC51DA4FFE01A1
:100DB000E40FF51F659174916D937D934E5F5F4FC6
:100DC00040315105A1F7ABE3B6E050E040E0E90166
:100DD000CC50DA4FFE01E40FF51F659174916D93CD
:100DE0007D934E5F5F4F40315105A1F7ABE4B6E014
:100DF00050E040E0E901CC5FD94FFE01E40FF51F60
:100E0000659174916D937D934E5F5F4F40315105B5
:100E1000A1F7F901E654FA4F2591349130935E061B
:100E200020935D0680935F06DF91CF91089590E156
:100E300021E061FD24E060FD220F62FD2295687FC4
:100E4000969FD0011124A80FAB54BE4F8C91822BDA
:100E50008C9308952F923F924F925F926F927F9260
:100E60008F929F92AF92BF92CF92DF92EF92FF92BA
:100E70000F931F93CF93DF937B01EA0189016901EF
:100E8000C61AD70AD7FE03C0D194C194D1084E0127
:100E9000881A990A97FE03C09194819491088C1442
:100EA0009D0454F0302F212F8E01C32FD22F3E2DC1
:100EB0002F2D7C01832F922F0E151F0554F03C2FF0
:100EC0002D2FEC01832F922F302F212F8701E32E1E
:100ED000F22E1701201A310A2C014C1A5D0A57FE16
:100EE00003C0519441945108310137FE03C02FEFE4
:100EF000621A720A75946794C817D907ECF481E0F6
:100F0000A82E880FBB08E016F10604F18C149D048E
:100F1000ACF4C038D10528F4B801CE010034110575
:100F200094F06418750877FE04C0CA0DDB1D620CCE
:100F3000731C0F5F1F4FE7CF8FEFE2CFC034D10597
:100F400080F7BE01C8010E941707EBCFDF91CF9158
:100F50001F910F91FF90EF90DF90CF90BF90AF90D7
:100F60009F908F907F906F905F904F903F902F90C9
:100F70000895E5EBF1E0A0E0B8E000800EBC81113F
:100F8000012C1197A0FDFDCF0192B9F70DB4089582
:100F90009091BF05982329F49091BE05982381E094
:100FA00009F480E00895FC0180916401882311F127
:100FB0003FB7F89482E08093E9002091F200822FFD
:100FC00090E01816190614F481E090E0882339F0B7
:100FD000289844E6409363014091F1004083222326
:100FE00039F02091F200211103C02BE62093E80094
:100FF0003FBF08958FEF9FEF08952FB7F89483E0D8
:101000008093E9009091E800892F807295FF04C0D9
:101010009091F20080E4891B2FBF0895CF93DF9356
:101020001F92CDB7DEB76983DC01ED91FC910280A0
:10103000F381E02D41E050E0BE016F5F7F4F0995E5
:101040000F90DF91CF91089583E08093E900809124
:10105000F200882319F08AE38093E80008950E9443
:10106000FD0790E00895CF93DF931F92CDB7DEB7D1
:10107000FC018485958597FD08C02FEF3FEF3587EC
:1010800024870F90DF91CF910895CE0101960E94A1
:10109000D307019719F4898190E0F3CF8FEF9FEF89
:1010A000F0CF0F931F93CF93DF931F92CDB7DEB78F
:1010B0008C01FC018485958597FF0BC0CE010196BC
:1010C0000E94D307019771F4898190E0F801958718
:1010D0008487F801848595850F90DF91CF911F91CA
:1010E0000F9108958FEF9FEFF1CFFC0184859585D7
:1010F00097FD0BC09FB7F89482E08093E900809140
:10110000F2009FBF90E0019608959FB7F89482E0A7
:101110008093E9008091F2009FBF90E00895809154
:10112000590181110DC082E08093550184E08093C4
:101130005601109258011092570181E08093590195
:1011400085E591E00895409151015091520120911F
:101150004F013091500142175307B4F49091E800C9
:101160009570E1F39091E80092FD19C08093F10031
:10117000809151019091520101968F739927892B8B
:1011800019F48EEF8093E800809151019091520103
:101190000196909352018093510181E0089580E07F
:1011A0000895DF92EF92FF920F931F93CF93DF93F7
:1011B000D82E8A01EB017B01E40EF51ECE15DF056A
:1011C00059F0D7FE12C0FE0184910E94A308219617
:1011D0008111F4CF0FEF1FEFC801DF91CF911F9165
:1011E0000F91FF90EF90DF9008958881EECF0F93DD
:1011F0001F93CF93DF931F92CDB7DEB782E0898331
:1012000042E450E069E475E080E80E94D1080E9461
:101210008F08DC0112960D911C910115110589F0C2
:10122000D801ED91FC910280F381E02DBE016F5F4A
:101230007F4FC801099597FD04C0F801008511850D
:10124000ECCF89810F90DF91CF911F910F9108957D
:10125000615030F02091F100FC0120830196F8CF1D
:10126000289884E68093630108953FB7F8948091AD
:101270004B0190914C01A0914D01B0914E0126B5CA
:10128000A89B05C02F3F19F00196A11DB11D3FBFBE
:10129000BA2FA92F982F8827BC01CD01620F711D8D
:1012A000811D911D42E0660F771F881F991F4A9587
:1012B000D1F708958F929F92AF92BF92CF92DF9213
:1012C000EF92FF926B017C010E9435094B015C019A
:1012D000C114D104E104F104B9F00E943509681980
:1012E00079098A099B09683E73408105910580F35D
:1012F00021E0C21AD108E108F10888EE880E83E0E7
:10130000981EA11CB11CE4CFFF90EF90DF90CF900E
:10131000BF90AF909F908F9008958F929F92AF92C1
:10132000BF92CF92DF92EF92FF920F931F93CF93D2
:10133000DF936C017B018A0180910B01882309F402
:101340005CC080916401882309F457C080916201D8
:1013500080FF05C08091E00082608093E000E8019A
:10136000B12C8AEFA82E93E0892E2AE3922E2097A3
:1013700011F4BB20D9F10E94FD0781110AC0AA9483
:10138000AA20D9F161E070E080E090E00E945A0963
:10139000EECF8C171D0611F00CF08C2F9FB7F89430
:1013A0008092E9002091E80025FD02C09FBFDFCFB9
:1013B000282F30E0C21BD30BF701815020F0419160
:1013C0004093F100FACFE20EF31EBB2021F0909281
:1013D000E800B12CEBCF8091E80085FDE7CF90923B
:1013E000E800BB24B394209709F3F3CF5D9884E61B
:1013F00080936101101611063CF081E090E0F60147
:101400009383828310E000E0C801DF91CF911F91A8
:101410000F91FF90EF90DF90CF90BF90AF909F9093
:101420008F900895FC016A3081F4858998E0899F46
:101430009001112481899289820F931F928B818B55
:10144000108A178681E090E008956D30D9F32589E0
:10145000422F50E087859089A6E02A9F800D911D3C
:101460001124908B87872689222361F36AEF640316
:101470009001659F300D112420583F4F28173907E0
:101480000CF7CF010190F081E02D0190F081E02D6B
:101490006AE00995D7CF08952D9A0895BC0190E090
:1014A00080E00C945A098FB18095807F669B88609C
:1014B0001C9B84600895EF92FF920F931F93CF932C
:1014C000DF938C017B01D0E0C0E0F701EC0FFD1F42
:1014D0006491662361F0D801ED91FC910190F08157
:1014E000E02DC8010995892B11F02196EECFCE0190
:1014F000DF91CF911F910F91FF90EF900895AF92E0
:10150000BF92CF92DF92EF92FF920F931F93CF93F0
:10151000DF936C017B018B01040F151FEB015E0152
:10152000AE18BF08C017D10759F06991D601ED91E7
:10153000FC910190F081E02DC6010995892B79F786
:10154000C501DF91CF911F910F91FF90EF90DF9038
:10155000CF90BF90AF900895DC012C9130E0220F26
:10156000331FFB01E20FF31F11968C912FE030E047
:10157000281B310981E090E002C0880F991F2A954D
:10158000E2F7809590952081318182239323918386
:10159000808308956F927F928F929F92AF92BF92B5
:1015A000CF92DF92EF92FF920F931F93CF93DF932F
:1015B0004C017B01C22F102F98E0A92EB12C642E74
:1015C000669466946694712CCA0187709927892B5A
:1015D00079F5D40117962D913C91C7019927B9014E
:1015E0000E944A18269DF001279DF00D369DF00DB2
:1015F00011248E0F9F1FD4011596ED91FC91E80FD9
:10160000F91F2081111112C0C095C223C083DF9140
:10161000CF911F910F91FF90EF90DF90CF90BF90EF
:10162000AF909F908F907F906F900895C22BEECFD8
:10163000D0E04770C42ED12C83E0660C771C8A95CD
:10164000E1F79E0101C0220F4A95EAF7012FA3019D
:10165000B701C4010E94CA0AA301485F5F4FC501D8
:101660008C199D0902C0D595C7958A95E2F7A7CF39
:101670003F924F925F926F927F928F929F92AF9222
:10168000BF92CF92DF92EF92FF920F931F93CF936F
:10169000DF93EC0189899A8997FD05C02B893C89E4
:1016A000821793079CF06A3029F58D859E859C876B
:1016B0008B878F892F853889820F932F911D988B67
:1016C0008F878B899C8901969C8B8B8B81E090E026
:1016D000DF91CF911F910F91FF90EF90DF90CF900E
:1016E000BF90AF909F908F907F906F905F904F9042
:1016F0003F900895EB84FC84603231F425E0E20EE3
:10170000F11CFC86EB86DDCF693021F439E0E30E75
:10171000F11CF7CF8DEFE8168FEFF8060CF470C0D0
:101720008F819885E816F9060CF06AC0CF84D888B6
:101730009DEFC9169FEFD9060CF462C089859A8582
:10174000C816D9060CF05CC0603208F46FE780EE72
:10175000860F9FE9960F9A3118F42FEFC21AD20A1A
:101760008C3011F08B3119F43FEFC31AD30A8695F0
:1017700024E0829FC00111249C0121593E4F290180
:10178000B12CA12C162F1170360131E0631A7108AB
:10179000F201EA0DFB1D349011113CC0832D8F70B6
:1017A000382E47018A0C9B1C8C81882351F001E064
:1017B0008D89811100E02FE3A301B401CE010E94C5
:1017C000CA0A0D89232DA601B401CE010E94CA0ABE
:1017D0009FEFA91AB90A24E0A216B104C9F68C81B8
:1017E000882371F001E08D89811100E0A60141504C
:1017F0005109B7016C5F7F4F2FE3CE010E94CA0AE7
:101800008E8990E004962B853C85820F931F9C87E0
:101810008B8757CF32948FE03822C3CF089590E062
:1018200080E00895DC019C91292F30E0220F331FC6
:10183000FB01E20FF31F11962C918FE090E0821BC9
:10184000910921E030E002C0220F331F8A95E2F7B0
:10185000808191812823392381E0232B09F480E0C2
:101860000895EF92FF920F931F93CF93DF937C0124
:10187000D0910A0605EB15E0C0E0DC1759F0B7017E
:10188000C801C5960E94120C0E5F1F4F811103C044
:10189000CF5FF3CF80E0DF91CF911F910F91FF9049
:1018A000EF9008950F931F93CF93DF9300D0CDB7A0
:1018B000DEB79A8389836BE076E0CE0101960E94C1
:1018C000120C811171C06BE276E0CE0101960E948C
:1018D000120C082F882331F06BE276E0CE010196DE
:1018E0000E94AC0A6BE376E0CE0101960E94120CD6
:1018F000182F882331F06BE376E0CE0101960E9429
:10190000AC0A9981983008F041C05A8180910A064A
:1019100025EB35E0F90140E0841749F065A969132A
:1019200003C066A9561791F14F5F3296F5CF002399
:1019300019F08F5F80930A06112329F080910A061F
:10194000815080930A0680910A06823018F482E062
:1019500080930A0680910A06813118F080E1809315
:101960000A06E0910A06E150F0E0EE0FFF1FEB548B
:10197000FA4F2E173F0731F063A974A976AB65AB18
:101980003297F7CF9093EA055093EB056BE176E041
:10199000CE0101960E94120C882331F06BE176E0B3
:1019A000CE0101960E94AC0A0F900F90DF91CF916B
:1019B0001F910F910895282F8091600681111BC0FF
:1019C0008091EA059091EB05223041F0233059F0E7
:1019D000213069F49F3079F09F5F03C0882359F06C
:1019E00081500C94520C873031F08F5FFACF9923DD
:1019F00011F09150F6CF08950C942F180E944518BD
:101A0000FF920F931F93CF93DF93EC01F62E088183
:101A10001981C8010E942F18F81621F06F2DC801F6
:101A20000E943718CE01DF91CF911F910F91FF9047
:101A300008951F920F920FB60F9211248F939F93C8
:101A40008091E1009091E100937F9093E10083FF0A
:101A50000FC01092E90091E09093EB001092EC001F
:101A600092E39093ED001092640198E09093F0005F
:101A700082FF22C093E09093E9009091F2009923B5
:101A800019F09AE39093E80090916101992341F055
:101A900090916101915090936101911101C05D9A03
:101AA00090916301992341F090916301915090933B
:101AB0006301911101C0289A84FF18C08091E2004F
:101AC0008E7E81608093E2008091E1008F7E809322
:101AD000E100809162018E7E8061809362019F911E
:101AE0008F910F900FBE0F901F90189580FFF7CF2A
:101AF0008091E2008E7E80618093E2008091E1001F
:101B00008E7E8093E100809162018E7E8160E5CFC0
:101B10001F920F920FB60F921124CF92DF92EF9285
:101B2000FF920F931F932F933F934F935F936F9366
:101B30007F938F939F93AF93BF93EF93FF93CF9335
:101B4000DF93CDB7DEB76C97DEBFCDBF1092E90053
:101B50008091E80083FF25C068E0CE0145960E9491
:101B6000280982EF8093E8008D8987FF39C0909122
:101B7000E80090FFFCCF982F907609F034C19E8941
:101B80004F89588D2F89F88C911131C0803861F5BB
:101B9000809154018093F1001092F1008EEF8093B8
:101BA000E8006C960FB6F894DEBF0FBECDBFDF9194
:101BB000CF91FF91EF91BF91AF919F918F917F91C5
:101BC0006F915F914F913F912F911F910F91FF90D6
:101BD000EF90DF90CF900F900FBE0F901F90189551
:101BE0009EEF9093E800C7CF1092F100D5CF9130CF
:101BF00059F48111D3CF4130510581F680915401C0
:101C00008D7F80935401CACF933049F48111C6CFA0
:101C10004130510519F6809154018260F2CF953020
:101C200041F48091E80080FFFCCF20682093E3001E
:101C3000B5CF963009F0A9C00B8D1C8D22E0109213
:101C4000E9001092520110925101F2122EC010922E
:101C5000500110924F010E94F7081F8299E099836A
:101C6000FA8291E09E8390EA98879AEF9987209173
:101C7000510130915201275F3F4F3C832B838D836D
:101C80001092E900109252011092510110935001EC
:101C900000934F0149E050E0BE016F5F7F4F80E04D
:101CA0000E94D1080E94F70879CF10935001009349
:101CB0004F010E948F08DC0112960D911C910115B5
:101CC000110509F451C1D801ED91FC910480F58111
:101CD000E02DBE016B5E7F4FC8010995009709F0AA
:101CE0003EC1F80100851185EACFF3E0FF120EC076
:101CF0008F89882309F440C0823061F440E86CE0A9
:101D00008DEA95E00E940410811148CF81E2809312
:101D1000EB0047CF813029F440E86BE081EA95E0A1
:101D2000F1CF833099F70E948F08DC011296ED9075
:101D3000FC908E010F5F1F4F6801E114F10479F0F0
:101D4000D701ED91FC910680F781E02DB801C70124
:101D50000995080F111DF701E084F184EECFD80139
:101D60001C92F60101900020E9F73197BF016C1930
:101D70007D0940E0C601C6CF6BE875E0FB014491E8
:101D800050E080E80E94D10809CF973009F4BECF17
:101D9000983021F481E08093F10000CF993009F070
:101DA000FDCE837009F0B2CFEDE0F1E081E031E0EB
:101DB00096E32191222371F08093E9003093EB00A8
:101DC000DF0111972C912093EC009093ED008F5F31
:101DD000873079F78EE78093EA001092EA008F89C6
:101DE00080936401DBCE8B8D9C8D1092E900109264
:101DF0005201109251019093500180934F01898DAF
:101E0000811192C08E899D89913A49F4813209F0FD
:101E10007DCF47E050E064E071E080E0B3CF9132E5
:101E200009F074CF833269F48F89988DB0E0A0E017
:101E30008093000190930101A0930201B0930301EC
:101E4000ADCE803269F48091E80082FFFCCF67E07C
:101E500084E091E00E9428098BEF8093E8009ECEF9
:101E6000823209F09BCE8F8980930B01EEEFFFE762
:101E7000859194918B3F9C4D51F1E0E0F8E0809189
:101E8000040190910501A0910601B0910701803BEA
:101E90009440A105B105F1F480910B0180FD1AC0B9
:101EA000EE3F8AE0F80789F587E797E7918380831B
:101EB000809160008093530188E19BE00FB6F89415
:101EC000A895809360000FBE9093600067CEEEEF00
:101ED000FAE0D5CF808191818737974709F05ECEB0
:101EE000A895809160008861809360008091530183
:101EF00080936000EE3F2AE0F20789F08091FE0AAD
:101F00009091FF0A9183808349CE808191818737A8
:101F1000980751F29093FF0A8093FE0AC5CF109262
:101F2000FF0A1092FE0A3ACE0E948F08DC01129638
:101F30000D911C910115110509F4E8CED801ED9120
:101F4000FC910190F081E02DBE016B5E7F4FC801D6
:101F50000995811123CEF80100851185EBCF181664
:101F600019060CF41BCED2CEF1E0FF12BECE6FE804
:101F700075E004CF1F920F920FB60F9211242F938A
:101F80003F938F939F93AF93BF938091470190911D
:101F90004801A0914901B0914A013091460123E0E6
:101FA000230F2D3758F50196A11DB11D2093460131
:101FB0008093470190934801A0934901B0934A014F
:101FC00080914B0190914C01A0914D01B0914E0137
:101FD0000196A11DB11D80934B0190934C01A093DC
:101FE0004D01B0934E01BF91AF919F918F913F9161
:101FF0002F910F900FBE0F901F90189526E8230F7A
:102000000296A11DB11DD2CFEF92FF920F931F93A5
:10201000CF93DF93F82E192FE62E042F81E0860F41
:10202000880F0E94A30883E00E94A308CF2DD12F20
:10203000EC0EFD2EF11CCE15DF05B9F007FF13C025
:10204000FE0184910E94A308182F80E00E94A3083B
:10205000812321968111EFCFDF91CF911F910F91B5
:10206000FF90EF9008958881EDCF81E0F5CF0F9339
:102070001F93CF93DF938C0181E090E00E94FC0CD2
:1020800080FF32C08AE090E00E94FC0C9FEF980F26
:102090009E3F50F522E330E0D80150963C932E93BA
:1020A0001F9728E330E052963C932E935197CBE054
:1020B000D0E0D801ED91FC910190F081E02D682FE6
:1020C000C8010995CE010E94FC0C2196C131D105B1
:1020D00081F780E00E94B90788EE93E0DF91CF910D
:1020E0001F910F910C944E0ADF91CF911F910F9188
:1020F000089504970C943710E5E6F1E013821282FC
:1021000088EE93E0A0E0B0E084839583A683B78354
:1021100087E191E0918380832FEF3FEF358724871C
:10212000E5EBF5E0138212821186128680E1838747
:1021300010861782158685E391E09183808383E47E
:1021400091E095838483108A1786128A118A81E030
:10215000838B148A858B168A128E118E49E251E088
:10216000508F478B45EB51E0558F448F40E850E04E
:10217000578F468F40E450E051A340A395E096A7C7
:1021800085A715A214A217A216A213A212A231A704
:1021900020A713A612A684A7138EF0ABE7A78CEC9A
:1021A00095E092AB81ABF4ABE3AB15AA16AA17AAE4
:1021B00010AE11AE12AE13AE14AE15AE16AE17AE13
:1021C0001092F5051092F6051092F7051092F80599
:1021D0001092F9051092FA051092FB051092FC0579
:1021E0001092FD051092FE051092FF051092000658
:1021F0001092010610920206109203061092040635
:102200001092050610920606109207061092080614
:102210001092090610920A0610925B0610925C0654
:1022200010925F061092600610926106109262068C
:10223000109263060895CF93DF93CDB7DEB7A497CE
:102240000FB6F894DEBF0FBECDBF789484B5826020
:1022500084BD84B5816084BD85B5826085BD85B54A
:10226000816085BD80916E00816080936E001092C8
:102270008100809181008260809381008091810043
:1022800081608093810080918000816080938000D4
:102290008091910082608093910080919100816093
:1022A0008093910080919000816080939000809154
:1022B000C10084608093C1008091C10082608093DE
:1022C000C1008091C10081608093C1008091C300F2
:1022D00081608093C3008091C00082608093C000C1
:1022E0008091C20081608093C20080917A008460F6
:1022F00080937A0080917A00826080937A00809146
:102300007A00816080937A0080917A00806880935F
:102310007A0010926401109254011092620180912F
:10232000D70081608093D70080EA8093D80089B578
:10233000806189BD89B5826089BD09B400FEFDCF89
:1023400061E070E080E090E00E945A098091D8003E
:102350008F7C80618093D8008091E000807F8093A3
:10236000E0008091E1008E7E8093E1008DE080931B
:10237000E200559A209A81EC80937C0085B1806FB1
:1023800085B984B1877E84B984B1876E84B95E9A39
:102390005F988AB1806D8AB9769A6E9881B3806FA2
:1023A00081BB899880B38D7080BB80E58CBD81E056
:1023B0008DBD85E090E00E944E0A5F9A85E090E036
:1023C0000E944E0A5E985C98EFE2F2E08CE392E0A5
:1023D00024912EBD00000DB407FEFDCF31968E175F
:1023E0009F07B1F75C9A81E8809364008091650053
:1023F00081608093650080E00E94B9070E94530AC3
:1024000002E010E087FF15C05C9885EA8EBD0000F1
:102410000DB407FEFDCF5C9A2E982F982D988091D1
:10242000640080628093640081E083BF889513BE5E
:10243000FCCF0E94530A82FF40C02D980E94530A8D
:1024400084788438C1F40E944C0A88EC90E00E94A1
:102450004E0A2F981A8309836FEFCE0101960E94CE
:10246000000D84EF91E00E944E0A2F9A0E94530AB9
:1024700084788438D9F30E94530A84718431C1F47A
:102480000E944C0A88EC90E00E944E0A2E981A8313
:10249000098360E0CE0101960E94000D84EF91E077
:1024A0000E944E0A2E9A0E94530A84718431D9F3F5
:1024B00088EC90E00E944E0ABCCF0E944C0A82E059
:1024C00090E00E94FC0C882309F46AC03E9A3F9A6F
:1024D00081E090E00E94FC0C282F2470F22E81FFF6
:1024E0000CC021112E9800EF1FEF0E94530A86FFA7
:1024F0005AC02E9A2F9A0E944C0A82E390E00E94C2
:102500004E0A0E94530A8111F8CF8EE38093C005D2
:1025100080E190E00E94FC0C082F81E190E00E9495
:10252000FC0C182F82E190E00E94FC0C0F3609F0A1
:1025300060C01E3609F05DC0893709F05AC083E1DA
:1025400090E00E94FC0C8093610622242394312C9D
:10255000AE014F5F5F4F3A01CE0181969AA389A3E6
:102560008FB7F8944091470150914801609149011B
:1025700070914A018FBF8091C105942F981B892FBC
:102580009091C205992309F45BC08093C305109212
:10259000C20580E090E0892B19F30E940000E0CF93
:1025A0003E983F9895CFFF2029F00430110511F493
:1025B0002E9A2F9881E00E94B90780E00E94B90707
:1025C0008FE090E00E944E0A0F5F1F4F0931110506
:1025D00009F08BCFFF2011F02F9A2D9880E991E020
:1025E0000E944E0A0E944C0A85EB95E00E9437102B
:1025F00084CF1092610680E190E09A8389836FE630
:10260000CE0101960E94000D81E190E09A838983BA
:102610006EE6CE0101960E94000D82E190E09A8361
:10262000898369E7CE0101960E94000D83E190E065
:102630009A83898360E0CE0101960E94000D85CFC8
:102640009091C005891748F48F5F891708F0A1CFD2
:1026500081E083BF889513BE9CCF11E01093C20523
:102660004093C1058091BC059091BD050196909362
:10267000BD058093BC058091BE058093BF050E9477
:10268000530A8093BE0580916206823009F486C1A8
:1026900058F5882309F43BC0813009F47DC080E0FF
:1026A000E5EBF1E081118FEF002481938193819319
:1026B00081930394D1F71092C7051092C60510922A
:1026C000C5051092C40580916206823009F4D6C314
:1026D00008F06FC1882309F491C1813009F412C256
:1026E00080E00E94B90755CF833009F457C1843088
:1026F000B1F688E00E94C807811106C084E00E94FC
:10270000C807882309F4CBCF1092610634C180E852
:102710000E94C807882339F080916306813019F13F
:10272000F0F0823019F180E10E94C807882339F067
:1027300080916306813009F1E0F0823001F188E098
:102740000E94C807882309F4AACF809163068130CC
:1027500009F1C0F0823009F0A2CF83E018C082E016
:1027600080936306E0CF10926306DDCF109363067B
:10277000DACF81E080936306E2CF82E0FBCF109254
:102780006306DDCF809161060E94710681E080932F
:10279000620685CF82E0FBCF40916006442389F03A
:1027A00041504093600610915F061F3008F4B9C095
:1027B00084E0809362061092610680E00E947106B8
:1027C0006ECF0BE016E0DE015196F8017D012191FC
:1027D000319186859785668D778D862B972B282B53
:1027E000392B66A577A5262B372B2D933D9329A151
:1027F0003AA1A217B30759F760910A06A5EBB5E015
:10280000CD0150E0651739F19C01FC0175A97730C5
:1028100009F493C30296E72FF0E03196EE0FFF1F05
:102820006F01C60CD71CF90126A9EFE0F0E0E21B0E
:10283000F1099F01F10102C0EE0FFF1F2A95E2F797
:102840009F01F601C088D1882C213D21232B09F05E
:1028500074C35F5FD7CF1296541709F464C3D3963D
:102860008C91D3978F5FD3968C93D3974F5FF3CF91
:1028700010916006E7E2F6E0DE011D968FE090E041
:10288000608171819101082E02C0220F331F0A94CA
:10289000E2F7AB0142235323452BA9F04D915C9104
:1028A000119742235323452B71F4A901409550956C
:1028B000462357235183408342815381242B352B58
:1028C0003383228312E00197D8F6329712976A1663
:1028D0007B06A1F610936006123049F48BE196E076
:1028E0000E94310C882319F088E080936006809163
:1028F000600681110AC08BE196E00E94310C8823AA
:1029000021F080915F060E9471068BE496E00E94A0
:10291000310C882309F447CF80915F060E9471062D
:1029200042CF80E80E94C807882321F082E00E94FD
:10293000DB0CB5CE80E10E94C807882311F083E04C
:10294000F6CF80E40E94C807882311F081E0EFCF22
:1029500080E20E94C807882311F080E0E8CF88E079
:102960000E94C807882311F0812F28CF84E00E949D
:10297000C807882319F01092620691CE80916106F3
:10298000811708F08CCE1093610683E190E09A8362
:102990008983612FC3010E94000D81CE88E00E94CF
:1029A000C8078111E8CF84E00E94C8078111E3CFF6
:1029B00076CE833009F49CC2843009F091CE8AE04F
:1029C00090E09093DA058093D9059093D805809391
:1029D000D7059093DC058093DB058FEF9FEF9093F5
:1029E000DE058093DD051092E0051092DF0562EFB1
:1029F00073E08CEC95E00E945B0A72CE00E120E867
:102A000049E454E070E060E090E080E00E94AB05B3
:102A10008CE2E82EF12CF092DA05E092D905F092E2
:102A2000D805E092D70589E190E09093DC0580938A
:102A3000DB050FEF1FEF1093DE050093DD0510920D
:102A4000E0051092DF0563E474E08CEC95E00E94F1
:102A50005B0AF092DA05E092D905F092D805E0928F
:102A6000D70583E290E09093DC058093DB0510931B
:102A7000DE050093DD051092E0051092DF056BE3A3
:102A800074E08CEC95E00E945B0AF092DA05E0922B
:102A9000D905F092D805E092D7058DE290E09093A9
:102AA000DC058093DB051093DE050093DD051092B5
:102AB000E0051092DF0565E374E08CEC95E00E9480
:102AC0005B0A809163068130B1F050F0823009F0EA
:102AD00007CE08E028E04DE254E06BE270E006C06B
:102AE00008E028E04DE254E067E170E08EE190E01C
:102AF0000E94AB05F5CD08E028E04DE254E061E22C
:102B000070E0F4CF1BE0812E16E0912E0BE4402EF6
:102B100006E0502EF12CE12CD12CC12C4FE050E0DE
:102B20005CA34BA351010BA002C0AA0CBB1C0A94CE
:102B3000E2F7D4018D919C918A219B21892B41F050
:102B400008E028E044ED52E0B701C6010E94AB0561
:102B5000F401808991898A219B21892B41F008E029
:102B600028E04CEC52E0B701C6010E94AB05D4014D
:102B700090968D919C918A219B21892B41F008E0B0
:102B800028E044EC52E0B701C6010E94AB05F40115
:102B900080A991A98A219B21892B41F008E028E096
:102BA0004CEB52E0B701C6010E94AB05D2018D91FA
:102BB0009C91A822B922AB2841F008E028E044EB20
:102BC00052E0B701C6010E94AB05EBA1FCA1319711
:102BD000FCA3EBA3F8E0CF0ED11C20E8C216D10471
:102BE00009F0A0CF32E0830E911C48E0E40EF11C06
:102BF00052E0450E511C80E4E816F10409F08CCF38
:102C00009091EC056091EA058091EB0548E0691729
:102C100048F048E1961730F09091ED0540E08917B3
:102C200008F440E150E044575D4F98E0699FB001DF
:102C3000112408E028E0A8E08A9FC00111240E9426
:102C4000AB0511E0212F30E080910A06482F41505A
:102C5000550BFA01241735070CF06DC0B90161500E
:102C60007109F901EE0FFF1FEB54FA4F93A92F5F83
:102C70003F4FA901440F551FDA01AB54BA4FD39609
:102C80008C9106A9A02FB0E0981318C0FA01E9545E
:102C9000FA4FE3A99E1312C058E0959FB00111248A
:102CA00008E028E04CE752E0CD01E3E0880F991FEF
:102CB000EA95E1F70E94AB051F5FC4CF660F771F4F
:102CC000FB01EB54FA4FF6A8E8E08E9FB001112407
:102CD0000F110BC0FA01EB54FA4FE6A90E1305C011
:102CE00008E028E044E852E0DFCF220F331FF9016B
:102CF000E954FA4F23A9281748F4F016C0F048E128
:102D000050E0445A5D4F08E028E0CECF821720F40F
:102D1000F01678F040E1F4CF4B545A4FFA0126A94F
:102D2000021718F49817B0F7EACF981710F440E09C
:102D3000E7CF48E0E5CF9A013327D901AA0FBB1F9F
:102D4000A954BA4FD3965C91825090E0DC01AA0F4F
:102D5000BB1FA954BA4FD3964C914517B8F05417DE
:102D600008F48AC0220F331F2B543A4F880F991F43
:102D7000AC014B545A4FD901D6969C91DA01D696A4
:102D80008C9140E1891718F040E001C048E050E024
:102D9000445C5D4FDF01AA0FBB1FA954BA4FD39605
:102DA0006C91B8E06B9FB0011124EE0FFF1FEB5444
:102DB000FA4F86A908E028E0E8E08E9FC0011124C0
:102DC0000E94AB0530E020E04FE750E070E060E0AB
:102DD00090E080E00E942A072FE330E04FE750E0C8
:102DE00070E060E08FE790E00E942A072FE330E078
:102DF00050E040E06FE370E08FE790E00E942A0728
:102E000030E020E050E040E06FE370E090E080E0F0
:102E10000E942A0760915B06F8E06F9FB0011124C1
:102E200080915C0628E04CEA52E038E0839FC001C4
:102E300011240E94AB05E091E605F091E70582E0E0
:102E400090E09687858794878387908B87878FEF1D
:102E50009FEF928B818B148A138A158A60915D068D
:102E600070915E06CF010E945B0AE091E605F09149
:102E7000E70581E0858B34CC48E189CF02E010E0A2
:102E80001093DA050093D9051093D8050093D70560
:102E90008AE090E09093DC058093DB05EE24EA94D1
:102EA000FE2CF092DE05E092DD051092E005109216
:102EB000DF056AED73E08CEC95E00E945B0A1093ED
:102EC000DA050093D9051093D8050093D70584E15E
:102ED00090E09093DC058093DB05F092DE05E092B4
:102EE000DD051092E0051092DF0568EC73E081CDFE
:102EF00082E090E09093DA058093D9059093D8050D
:102F00008093D7051092DC051092DB058FEF9FEFC1
:102F10009093DE058093DD051092E0051092DF05A9
:102F20006CED72E066CD82E0809360068091EA05E8
:102F30009091EB050E94520C36CC9091EA0580915D
:102F40005B0698130FC09091EB0580915C06981377
:102F500009C080915F068F5F80935F068F3010F409
:102F60000E947106F301D8018D919D918D0181938D
:102F70009193EE16FF06B9F788248394912C0BE108
:102F800016E0FE01319780E050E040E0D801AD90BE
:102F9000BD908D012FE030E0B101022E02C0660F1E
:102FA000771F0A94E2F77501E622F722D9011197FB
:102FB0006D01EF2809F440C0873041F0E480F580CE
:102FC000E622F722EF2881F5882331F0E080F180B6
:102FD000E622F722EF2841F5E280F3809FE0921B82
:102FE0009F3079F02F5F3F4FD10102C0AA0FBB1F66
:102FF0002A95E2F79D012E213F21232BA9F4992345
:1030000059F091010C2C02C0220F331F0A94E2F7F1
:10301000E222F322EF2841F4873031F0882321F0B7
:103020009F3011F0911108C022813381622B732BE4
:10303000738362834F5F5F4F9601CD20C09409F088
:10304000ABCF8F5F3296883009F0A0CF84169506FB
:1030500009F40ECC4A0193CFF8940C947818F9999E
:10306000FECF92BD81BDF89A992780B50895262F8D
:10307000F999FECF1FBA92BD81BD20BD0FB6F8945D
:10308000FA9AF99A0FBE0196089581E090E0F894BB
:103090000C94781897FB072E16F4009407D077FD50
:1030A00009D00E945E1807FC05D03EF490958195EA
:1030B0009F4F0895709561957F4F0895AA1BBB1B84
:1030C00051E107C0AA1FBB1FA617B70710F0A61B28
:1030D000B70B881F991F5A95A9F780959095BC0149
:1030E000CD010895EE0FFF1F0590F491E02D099496
:0430F000F894FFCF82
:1030F400FFFFFFFF00E100000000000000C180812D
:10310400000000000000000E088D092F0824087537
:10311400083308510800000000380B7F0A0F0C0E1A
:103124000C00000000120A7F0A0F0C0E0C3710FC72
:06313400FF00007910000D
:00000001FF
