:100000000C9485030C94AD030C94AD030C94AD03D8
:100010000C94AD030C94AD030C94AD030C94AD03A0
:100020000C94AD030C94AD030C94DD0A0C94AC0558
:100030000C94AD030C94AD030C94AD030C94AD0380
:100040000C94AD030C94AD030C94AD030C94AD0370
:100050000C94AD030C94AD030C94AD030C942408E4
:100060000C94AD030C94AD030C94AD030C94AD0350
:100070000C94AD030C94AD030C94AD030C94AD0340
:100080000C94AD030C94AD030C94AD030C94AD0330
:100090000C94AD030C94AD030C94AD030C94AD0320
:1000A0000C94AD030C94AD030C94AD03F0F89C8E4E
:1000B0008783878E9CF8F00000FEFF030303030391
:1000C000070EFCF80000FEFF0303030303070EFC0A
:1000D000F80000FFFF00000000000000FFFF00002C
:1000E000FEFF8383838383C7EE7C380000F8FC0E19
:1000F00007030303070EFCF800003F7FE0C0808089
:10010000C0E07F3FFFFF01010101010101FFFF008E
:1001100000FFFF0C0C0C0C1C3E77E3C100007FFFBE
:10012000C0C0C0C0C0E0703F1F00001F3F70E0C0F3
:10013000C0C0E0703F1F00007FFFC1C1C1C1C1E36B
:10014000773E1C00001F3F70E0C0C0C0E0703F1F42
:10015000000000000001FFFF01000000D5F08D1439
:10016000A1C881CFD9F1AF2000183C7EFFFF7E3CB3
:1001700018183C7EFFFF7E3C1855AA55AA55AA5573
:10018000AAFFFFFFFFFFFFFFFF48656C6C6F2C208D
:10019000776F726C64210000000000003E5B4F5BD3
:1001A0003E3E6B4F6B3E1C3E7C3E1C183C7E3C181A
:1001B0001C577D571C1C5E7F5E1C00183C1800FFFE
:1001C000E7C3E7FF0018241800FFE7DBE7FF30482C
:1001D0003A060E2629792926407F050507407F0526
:1001E000253F5A3CE73C5A7F3E1C1C08081C1C3E1D
:1001F0007F14227F22145F5F005F5F06097F017F0B
:10020000006689956A606060606094A2FFA29408AD
:10021000047E040810207E201008082A1C08081CF0
:100220002A08081E101010100C1E0C1E0C30383E30
:100230003830060E3E0E06000000000000005F0091
:10024000000007000700147F147F14242A7F2A125D
:100250002313086462364956205000080703000043
:100260001C2241000041221C002A1C7F1C2A080875
:100270003E08080080703000080808080800006088
:10028000600020100804023E5149453E00427F4074
:100290000072494949462141494D331814127F10D3
:1002A00027454545393C4A4949314121110907361D
:1002B00049494936464949291E00001400000040BA
:1002C00034000000081422411414141414004122B4
:1002D000140802015909063E415D594E7C12111263
:1002E0007C7F494949363E414141227F4141413E5F
:1002F0007F494949417F090909013E414151737FC5
:100300000808087F00417F41002040413F017F08ED
:100310001422417F404040407F021C027F7F04083E
:10032000107F3E4141413E7F090909063E4151216E
:100330005E7F09192946264949493203017F010395
:100340003F4040403F1F2040201F3F4038403F6318
:100350001408146303047804036159494D43007F72
:100360004141410204081020004141417F04020143
:1003700002044040404040000307080020545478E5
:10038000407F284444383844444428384444287F33
:10039000385454541800087E090218A4A49C787F8D
:1003A0000804047800447D40002040403D007F1058
:1003B00028440000417F40007C047804787C0804D5
:1003C00004783844444438FC182424181824241889
:1003D000FC7C08040408485454542404043F442476
:1003E0003C4040207C1C2040201C3C4030403C4491
:1003F000281028444C9090907C4464544C4400084D
:10040000364100000077000000413608000201027A
:1004100004023C2623263C1EA1A161123A40402042
:100420007A385454555921555579412154547841BD
:10043000215554784020545579400C1E527212397F
:100440005555555939545454593955545458000038
:10045000457C410002457D420001457C40F0292455
:1004600029F0F0282528F07C545545002054547C70
:10047000547C0A097F493249494932324848483256
:10048000324A4848303A4141217A3A424020780085
:100490009DA0A07D39444444393D4040403D3C242A
:1004A000FF2424487E4943662B2FFC2F2BFF09296C
:1004B000F620C0887E090320545479410000447D11
:1004C000413048484A32384040227A007A0A0A725B
:1004D0007D0D19317D2629292F2826292929263005
:1004E000484D4020380808080808080808382F1028
:1004F000C8ACBA2F102834FA00007B000008142A78
:10050000142222142A14089500220095AA005500EE
:10051000AAAA55AA55AA000000FF00101010FF005B
:10052000141414FF001010FF00FF1010F010F0144E
:100530001414FC001414F700FF0000FF00FF141453
:10054000F404FC141417101F10101F101F1414149F
:100550001F00101010F0000000001F101010101FDE
:1005600010101010F010000000FF101010101010EC
:10057000101010FF10000000FF140000FF00FF002B
:10058000001F10170000FC04F414141710171414A3
:10059000F404F40000FF00F714141414141414F7F6
:1005A00000F7141414171410101F101F141414F44F
:1005B000141010F010F000001F101F0000001F1496
:1005C000000000FC140000F010F01010FF10FF14E9
:1005D0001414FF141010101F00000000F010FFFF93
:1005E000FFFFFFF0F0F0F0F0FFFFFF000000000061
:1005F000FFFF0F0F0F0F0F38444438447C2A2A3E68
:10060000147E02020606027E027E026355494163A1
:100610003844443C04407E201E2006027E0202999B
:10062000A5E7A5991C2A492A1C4C7201724C304A34
:100630004D4D303048784830BC625A463D3E4949BD
:1006400049007E0101017E2A2A2A2A2A44445F4465
:100650004440514A444040444A51400000FF010395
:10066000E080FF000008086B6B083612362436065F
:100670000F090F060000181800000010100030408D
:10068000FF0101001F01011E00191D1712003C3C53
:100690003C3C0000000000080B00020202010009BF
:1006A00004000001020200000524001001052401DD
:1006B0000101042402060524060001070581031038
:1006C000004009040100020A000000070502024080
:1006D0000000070583024000000403090412010022
:1006E00002EF020140412336800001010203014173
:1006F000726475696E6F204C4C430055534220491B
:100700004F20426F617264008F0E11241FBECFEF25
:10071000DAE0DEBFCDBF11E0A0E0B1E0ECEEFDE13C
:1007200002C005900D92AA36B107D9F726E0AAE6D5
:10073000B1E001C01D92A633B207E1F713E0C5E8AE
:10074000D3E004C02197FE010E94EE0EC438D10709
:10075000C9F70E944F0B0C94D00E0C940000CF925E
:10076000DF92EF92FF920F931F93CF93DF936C0171
:100770007A018B01C0E0D0E0CE15DF0581F0D80111
:100780006D918D01D601ED91FC910190F081E02DEC
:10079000C6010995892B11F02196EECF7E01C70184
:1007A000DF91CF911F910F91FF90EF90DF90CF904D
:1007B0000895089580E090E008950E94E90E409128
:1007C00076015091770120917401309175014217A3
:1007D0005307B4F49091E8009570E1F39091E8002C
:1007E00092FD19C08093F10080917601909177017C
:1007F00001968F739927892B19F48EEF8093E80067
:100800008091760190917701019690937701809382
:10081000760181E0089580E00895DF92EF92FF92E3
:100820000F931F93CF93DF93D82E8A017B01E40EA1
:10083000F51EEB01CE15DF0571F0D7FE03C0FE01FA
:10084000849101C088810E94DF0321968111F2CF3B
:100850008FEF9FEF01C0C801DF91CF911F910F91E2
:10086000FF90EF90DF900895615030F02091F100FB
:10087000FC0120830196F8CF289884E680937A01C2
:1008800008953FB7F8948091700190917101A09103
:100890007201B091730126B5A89B05C02F3F19F0D6
:1008A0000196A11DB11D3FBFBA2FA92F982F8827F0
:1008B000820F911DA11DB11DBC01CD0142E0660F4B
:1008C000771F881F991F4A95D1F708952F923F925D
:1008D0004F925F926F927F928F929F92AF92BF9250
:1008E000CF92DF92EF92FF920F931F93CF93DF93FC
:1008F000CDB7DEB728970FB6F894DEBF0FBECDBFD9
:100900009D838C836A30A1F4DC0155962C91559718
:1009100051968D919C915297B8E02B9F800D911D1F
:100920001124EC81FD81928B818B108A1786C6C0C1
:100930006D3009F4C3C0AC81BD811F968D919C912F
:10094000509780389105BCF0EC81FD812589422FBC
:1009500050E087859089F6E02F9F800D911D11242E
:10096000AC81BD8150969C938E931F9756962C9187
:1009700021118FC0A3C0EC81FD81E188F288F0E4F1
:10098000EF16F1040CF7AC81BD815596BC91BE8386
:100990009C01E5E0BE9F200D311D112412161306A7
:1009A0009CF6CB2ED12C970158E0B59F200D311D20
:1009B00011241216130644F6AC81BD8154965C9046
:1009C000549753964C90B5E06B9FF00111249F0112
:1009D00029563E4F38872F83912C30E1732EEF81BB
:1009E000F8858490F5E09F1201C0812C870128E0F2
:1009F000622E80FE02C0542D01C0552D511103C03E
:100A0000541409F433C09C01F52FF170322E622F7B
:100A1000681B4E81641750F5B801A62FA01B5E819C
:100A2000A51708F520383105D8F460347105C0F4F5
:100A30005B01A501E1E041FDE4E040FDEE0F42FD78
:100A4000E295487F749ED0011124A30DBA83A98337
:100A5000A458BE4FBC90BE2AF11101C0BE26BC9264
:100A60006F5F7F4FDACF2F5F3F4FD0CF86946A946E
:100A70000C0D1D1D6110BDCF93948C0D9D1D2F81FC
:100A800038852F5F3F4F38872F8336E09312A7CFEB
:100A90005BCF6AEF64039001659F300D11242058ED
:100AA0003F4F2817390754F48C819D81DC01ED916B
:100AB000FC910190F081E02D6AE0099581E090E0E1
:100AC00028960FB6F894DEBF0FBECDBFDF91CF9151
:100AD0001F910F91FF90EF90DF90CF90BF90AF905C
:100AE0009F908F907F906F905F904F903F902F904E
:100AF000089508950F931F93CF93DF931F92CDB75F
:100B0000DEB782E0898342E450E067E976E080E87E
:100B10000E940D040E94C90ADC0112960D911C91DD
:100B200013970115110589F0D801ED91FC91028010
:100B3000F381E02DBE016F5F7F4FC801099597FDDE
:100B400004C0F80100851185ECCF89810F90DF91F9
:100B5000CF911F910F9108951F920F920FB60F9290
:100B60001124CF92DF92EF92FF920F931F932F9356
:100B70003F934F935F936F937F938F939F93AF9325
:100B8000BF93EF93FF93CF93DF93CDB7DEB76C970F
:100B9000DEBFCDBF1092E9008091E80083FFFBC16A
:100BA00068E0CE0145960E94340482EF8093E8000D
:100BB0008D8987FF05C09091E80090FFFCCF03C0AE
:100BC0009EEF9093E800982F907609F0C6C09E891A
:100BD0004F89588D2F89F88C91110CC0803829F4D9
:100BE00080916E018093F10002C01092F10010928A
:100BF000F10045C1913051F4811141C1413051059D
:100C000009F03DC180916E018D7F0BC0933061F47E
:100C1000811135C14130510509F031C180916E011A
:100C2000826080936E012BC1953049F48091E80079
:100C300080FFFCCF822F80688093E30020C1963034
:100C400009F05EC00B8D1C8D22E01092E90010921D
:100C5000770110927601F21232C010927501109253
:100C600074010E947A0599E0BE016F5F7F4FDB013E
:100C7000E92F1D92EA95E9F79983FA8291E09E8324
:100C800090EA98879AEF99872091760130917701C1
:100C9000275F3F4F3C832B838D831092E900109296
:100CA000770110927601109375010093740149E069
:100CB00050E080E00E940D040E947A05E0C010938D
:100CC0007501009374010E94C90ADC0112960D910E
:100CD0001C9113970115110509F4BBC0D801ED91C2
:100CE000FC910480F581E02DBE016B5E7F4FC80151
:100CF0000995009709F0C7C0F80100851185EACF72
:100D0000973009F445C1983021F481E08093F100D7
:100D1000B6C0993009F0B3C0837009F039C1EDE372
:100D2000F1E081E031E096E32081211109C08EE7F6
:100D30008093EA001092EA008F8980937B019FC024
:100D40008093E9003093EB0021912093EC00909385
:100D5000ED008F5F873041F7EACF8B8D9C8D10922D
:100D6000E9001092770110927601909375018093BB
:100D70007401898D811153C08E899D89913A49F4FE
:100D8000813209F005C147E050E064E071E080E0A5
:100D9000BBC0913209F0FCC0833269F48F89988D11
:100DA000A0E0B0E08093000190930101A0930201C4
:100DB000B093030164C0803269F48091E80082FF3F
:100DC000FCCF67E084E091E00E9434048BEF8093D5
:100DD000E80055C0823209F052C08F8980930B0120
:100DE000EEEFFFE7859194918B3F9C4D19F0E0E089
:100DF000F8E002C0EEEFFAE0809104019091050165
:100E0000A0910601B0910701803B9440A105B10576
:100E100009F09EC080910B0180FF79C099C00E94AB
:100E2000C90AFC01028113810115110509F4B0C042
:100E3000D801ED91FC910190F081E02DBE016B5E37
:100E40007F4FC801099581111AC0F80100851185ED
:100E5000EBCFF1E0FF1609F44EC0F3E0FF1298C0AB
:100E60008F89882309F44AC0823089F440E86CE015
:100E70008BEF96E00E94150E882309F489C08EEF4F
:100E80008093E80088C018161906CCF381C0813021
:100E900029F440E86BE08FEE96E0ECCF833009F068
:100EA00077C00E94C90ADC011296ED90FC9013975E
:100EB0008E010F5F1F4F6801E114F10479F0D70133
:100EC000ED91FC910680F781E02DB801C7010995ED
:100ED000080F111DF701E084F184EECFD8011C92B8
:100EE000F60101900020E9F73197BF016C197D09E7
:100EF00040E0C601BFCF6DED76E002C069ED76E05F
:100F0000FB01449150E080E80E940D04B8CFEE3F11
:100F10002AE0F20751F0808191818737A7E79A078D
:100F200021F09093FF0A8093FE0A87E797E7918369
:100F3000808380916000809378019BE088E10FB608
:100F4000F894A895809360000FBE9093600097CFAF
:100F5000808191818737974709F091CFA89580913B
:100F600060008861809360008091780180936000C8
:100F7000EE3FBAE0FB0739F08091FE0A9091FF0A3C
:100F8000918380837CCF1092FF0A1092FE0A77CF64
:100F900081E28093EB006C960FB6F894DEBF0FBE33
:100FA000CDBFDF91CF91FF91EF91BF91AF919F9115
:100FB0008F917F916F915F914F913F912F911F91F1
:100FC0000F91FF90EF90DF90CF900F900FBE0F909A
:100FD0001F9018958F929F92AF92BF92CF92DF92FF
:100FE000EF92FF926B017C010E9441044B015C0176
:100FF000C114D104E104F104F1F00E944104DC01C8
:10100000CB0188199909AA09BB09883E9340A1051B
:10101000B10570F321E0C21AD108E108F10888EEA9
:10102000880E83E0981EA11CB11CC114D104E104F8
:10103000F10419F7DDCFFF90EF90DF90CF90BF90D4
:10104000AF909F908F9008951F920F920FB60F92BE
:1010500011242F933F938F939F93AF93BF938091CE
:101060006A0190916B01A0916C01B0916D0130917A
:101070006F0123E0230F2D3720F40196A11DB11D30
:1010800005C026E8230F0296A11DB11D20936F0114
:1010900080936A0190936B01A0936C01B0936D01F2
:1010A0008091700190917101A0917201B0917301D2
:1010B0000196A11DB11D8093700190937101A093C1
:1010C0007201B0937301BF91AF919F918F913F9146
:1010D0002F910F900FBE0F901F90189520917B01BC
:1010E000211103C08FEF9FEF08955FB7F89422E0BE
:1010F0002093E9002091F20030E01216130614F458
:1011000021E030E0422FFC0184E6415038F028987D
:1011100080937A019091F1009193F7CF21153105D9
:1011200021F08091F200882319F05FBFC901089572
:101130008BE68093E800F9CF2FB7F89483E0809393
:10114000E9009091E800892F807295FF04C090918A
:10115000F20080E4891B2FBF0895CF93DF931F9285
:10116000CDB7DEB76983DC01ED91FC910280F3819C
:10117000E02D41E050E0BE016F5F7F4F09950F9079
:10118000DF91CF91089583E08093E9008091F20090
:10119000882319F08AE38093E80008950E949C0850
:1011A00090E00895CF93DF931F92CDB7DEB7FC0197
:1011B0008485958597FD05C02FEF3FEF3587248700
:1011C0000BC0CE0101960E946E08019719F4898127
:1011D00090E002C08FEF9FEF0F90DF91CF910895C5
:1011E0000F931F93CF93DF931F92CDB7DEB78C0180
:1011F000FC018485958597FF0EC0CE0101960E9463
:101200006E08019719F4898190E002C08FEF9FEF7B
:10121000F80195878487F801848595850F90DF9183
:10122000CF911F910F910895FC018485958597FDBD
:101230000BC09FB7F89482E08093E9008091F200A0
:101240009FBF90E0019608959FB7F89482E0809345
:10125000E9008091F2009FBF90E008958F929F92E5
:10126000AF92BF92CF92DF92EF92FF920F931F93B4
:10127000CF93DF936C017B018A0180910B0188235E
:1012800009F45CC080917B01882309F457C08091E8
:10129000790180FF05C08091E00082608093E000CA
:1012A000E801B12C8AEFA82E93E0892E2AE3922E32
:1012B000209711F4BB20D9F10E949C0881110AC02B
:1012C000AA94AA20D9F161E070E080E090E00E9449
:1012D000EA07EECF282F30E0C217D3070CF48C2F8B
:1012E0009FB7F8948092E9002091E80025FF1DC087
:1012F000282F30E0C21BD30BF701815020F0419121
:101300004093F100FACFE20EF31EBB2019F0909249
:10131000E8000AC08091E80085FD07C09092E800CF
:10132000BB24B394209709F0B12C9FBFC1CF5D9827
:1013300084E68093E5051016110644F081E090E004
:10134000F6019383828380E090E001C0C801DF91C1
:10135000CF911F910F91FF90EF90DF90CF90BF90B2
:10136000AF909F908F9008952F923F924F925F92EF
:101370006F927F928F929F92AF92BF92CF92DF92A5
:10138000EF92FF920F931F93CF93DF93CDB7DEB70A
:101390002A970FB6F894DEBF0FBECDBF5A01822E3A
:1013A000912C9401280F391F37FDBAC08038910560
:1013B0000CF0B6C09B01200F311D37FDB1C0603469
:1013C00071050CF0ADC0AB0177FF04C04427552771
:1013D000461B570B477055279B0177FF02C0295FBB
:1013E0003F4FE3E035952795EA95E1F777FF08C091
:1013F0002150310968E070E0FB01E41BF50BAF01FF
:10140000202E269426942694312C077019F0FFEF95
:101410002F1A3F0A220E331E39017694762C662449
:1014200077946794680E791EE12CF12C00E010E0AF
:10143000B30160587F4F7A87698768E070E0FB01ED
:10144000E41BF50BFA83E9832216330609F468C01E
:101450002830310509F464C02F3FFFEF3F070CF43B
:1014600054C0E985FA85E00FF11FBF0164587E4F33
:101470007C836B83D801A60DB71DA458BE4F6C01A9
:1014800060E070E0681579050CF03FC0E0E8CE162A
:10149000D10409F43AC0D7FC2CC02F3FFFEF3F071F
:1014A00009F43AC0FB01EE0DFF1DEA0DFB1DE491AE
:1014B000042E01C0EE0F0A94EAF7FC91EF2BEC9397
:1014C00041155105B1F02730310599F0FB01EE0DC2
:1014D000FF1DEA0DFB1DE4914E2E512C098002C028
:1014E000559447940A94E2F7EB81FC81508045289B
:1014F00040826F5F7F4FEB81FC813196FC83EB83F1
:10150000FFEFCF1ADF0A1196BDCF2F5F3F4F005874
:101510001F4FE80CF91C98CF41155105B9F6E9CFDA
:101520002A960FB6F894DEBF0FBECDBFDF91CF91E4
:101530001F910F91FF90EF90DF90CF90BF90AF90F1
:101540009F908F907F906F905F904F903F902F90E3
:101550000895ECE7F1E0A0E0B8E000800EBC811156
:10156000012C1197A0FDFDCF0192B9F70DB408959C
:101570002D9A0895BC0180E090E00C94EA078FB1A9
:101580008095807F669B88601C9B846008950C9486
:10159000D30E8091DD0581110DC082E08093D905C5
:1015A00084E08093DA051092DC051092DB0581E07F
:1015B0008093DD0589ED95E008951F920F920FB697
:1015C0000F9211248F939F938091E1009091E100FD
:1015D000937F9093E10083FF0FC01092E90091E0A8
:1015E0009093EB001092EC0092E39093ED00109238
:1015F0007B0198E09093F00082FF20C093E09093ED
:10160000E9009091F200992319F09AE39093E80091
:101610009091E505992339F09091E50591509093CB
:10162000E505992389F190917A01992339F09091F8
:101630007A01915090937A01992341F184FF10C06F
:101640008091E2008E7E81608093E2008091E100D3
:101650008F7E8093E100809179018E7E806111C040
:1016600080FF16C08091E2008E7E80618093E20050
:101670008091E1008E7E8093E100809179018E7EE1
:1016800081608093790104C05D9ACDCF289AD6CF2E
:101690009F918F910F900FBE0F901F901895789487
:1016A00084B5826084BD84B5816084BD85B5826067
:1016B00085BD85B5816085BD80916E008160809318
:1016C0006E00109281008091810082608093810081
:1016D0008091810081608093810080918000816091
:1016E000809380008091910082608093910080912E
:1016F000910081608093910080919000816080933F
:1017000090008091C10084608093C1008091C100ED
:1017100082608093C1008091C10081608093C1008C
:101720008091C30081608093C3008091C00082607B
:101730008093C0008091C20081608093C20080913C
:101740007A00846080937A0080917A00826080932E
:101750007A0080917A00816080937A0080917A008B
:10176000806880937A0010927B0110926E01109233
:1017700079018091D70081608093D70080EA8093BF
:10178000D80089B5806189BD89B5826089BD09B4F9
:1017900000FEFDCF61E070E080E090E00E94EA078B
:1017A0008091D8008F7C80618093D8008091E00088
:1017B000807F8093E0008091E1008E7E8093E10045
:1017C0008DE08093E200559A209A81EC80937C0012
:1017D00085B1806F85B984B1877E84B984B1876E05
:1017E00084B95E9A5F988AB1806D8AB9769A6E984C
:1017F00081B3806F81BB899880B38D7080BB80E599
:101800008CBD81E08DBD85E090E00E94BA0A5F9AB0
:1018100085E090E00E94BA0A5E985C98ECE5F1E001
:1018200084918EBD00000DB407FEFDCF319631E0EE
:10183000E936F307A9F75C9A81E880936400809108
:10184000650081608093650080E00E94A90A0E9483
:10185000BF0A87FF24C05C9885EA8EBD00000DB4E6
:1018600007FEFDCF5C9A2E982F982D9880916400EA
:1018700080628093640081E083BF889513BEFCCFB3
:101880002D980E94BF0A8478843871F00E94BF0AA4
:101890008471843131F188EC90E00E94BA0A0E9490
:1018A000BF0A82FDEDCF3AC00E94B80A88EC90E0F2
:1018B0000E94BA0A2F9882E090E00E94D30E8F3FD8
:1018C00029F06FEF82E090E00E94DB0E84EF91E060
:1018D0000E94BA0A2F9A0E94BF0A84788438D9F3EA
:1018E000D5CF0E94B80A88EC90E00E94BA0A2E98E0
:1018F00082E090E00E94D30E882329F060E082E02D
:1019000090E00E94DB0E84EF91E00E94BA0A2E9ACA
:101910000E94BF0A84718431D9F3BDCF0E94B80AF6
:1019200082E090E00E94C70A882319F03E9A3F9A0D
:1019300002C03E983F9881E090E00E94C70A182FAD
:10194000147081FF39C011112E98C0EFDFEF0E9493
:10195000BF0A86FF05C02E9A2F9A0E94B80A2CC093
:10196000112329F0C430D10511F42E9A2F9881E06B
:101970000E94A90A00E128E54CEA50E0BE0184E19A
:1019800090E00E94B40980E00E94A90A8FE090E0F4
:101990000E94BA0A2196C931D105C9F6112311F066
:1019A0002F9A2D9880E991E00E94BA0A0E94B80A05
:1019B0008CE795E00E944A0E82E390E00E94BA0A0A
:1019C0000E94BF0A8111F8CF8EE38093870580E0E3
:1019D00090E00E94C70AD82F81E090E00E94C70AD9
:1019E000C82F82E090E00E94C70ADF36A1F4CE360D
:1019F00091F4893781F483E090E00E94C70A8093D4
:101A000093052CE231E0CCE1D1E00CE011E0ECE711
:101A1000F5E080E017C0109293056FE680E090E05B
:101A20000E94DB0E6EE681E090E00E94DB0E69E72B
:101A300082E090E00E94DB0E60E083E090E00E9494
:101A4000DB0EDFCFD9014D915D919D0156A745A7D2
:101A50004991599156AF45AFD8016D917D918D0156
:101A6000AF01435B5F4FDA016D937C938F5F3296DA
:101A7000883041F711E034E0232E312C49E0442E28
:101A8000512C8FB7F89440916A0150916B0160918D
:101A90006C0170916D018FBF80918805942F981B08
:101AA00080918905882329F090938A0510928905F1
:101AB000B5C020918705921740F49F5F921708F0F8
:101AC000ADC013BF889513BEA9C01093890540937C
:101AD000880520918305309184052F5F3F4F309317
:101AE000840520938305ECE7F1E081118FEF00245A
:101AF00081938193819381930394D1F730928C05E4
:101B000020928B0550928E0540928D05C9E8D1E058
:101B1000FE016491611107C02CE7C22E25E0D22E90
:101B2000C0E0D0E008C08CE795E00E9466042196F2
:101B3000892B71F7F1CFE12CF12C9FE0A92EB12C6C
:101B40003601FDE46F0E711C88248394912C0A2CBD
:101B500002C0880C991C0A94E2F7D6019D968D91DB
:101B60009C919E9788219921892B41F008E028E0DB
:101B700041E851E0BE01C7010E94B409F60185ADFC
:101B800096AD88219921892B41F008E028E049E7AA
:101B900051E0BE01C7010E94B409D3018D919C910F
:101BA00088229922892841F008E028E041E751E0A5
:101BB000BE01C7010E94B409B1E0AB1AB108E8E068
:101BC000EE0EF11CF0E8EF16F10409F0BDCF32E0A3
:101BD000C30ED11C2896C034D10509F0ACCFC0E0AB
:101BE000D0E0FE01E258FA4F628D862F82958F7009
:101BF0006F7098E0699FB001112408E028E049E681
:101C000051E0A8E08A9FC00111240E94B4092196E6
:101C1000C031D10531F780E00E94A90AE0E0F0E090
:101C2000309709F42ECF09952CCFDF92EF92FF92D7
:101C30000F931F93CF93DF93D82EF92EE42E062F08
:101C400010E0C8010196880F0E94DF0383E00E9424
:101C5000DF03CD2DDF2D0C0F1D1FC017D10789F01D
:101C6000E7FE03C0FE01849101C088810E94DF036A
:101C7000F82E80E00E94DF038F2121968111EDCFA5
:101C800001C081E0DF91CF911F910F91FF90EF9004
:101C9000DF9008950F931F93CF93DF938C0181E022
:101CA00090E00E94C70A80FF32C08AE090E00E9464
:101CB000C70A9FEF980F9E3F50F522E330E0D8010E
:101CC00050963C932E931F9728E330E052963C9316
:101CD0002E935197CBE0D0E0D801ED91FC9101908B
:101CE000F081E02D682FC8010995CE010E94C70A36
:101CF0002196C131D10581F780E00E94A90A88EEC2
:101D000093E0DF91CF911F910F910C94BA0ADF916C
:101D1000CF911F910F91089504970C944A0ECF9381
:101D2000DF93E6EEF5E01382128288EE93E0A0E006
:101D3000B0E084839583A683B78387E491E09183A1
:101D400080838FEF9FEF95878487ECE7F5E0138220
:101D500012821186128680E183871086178215868B
:101D600029E531E03183208327E631E03583248380
:101D7000108A1786128A118A91E0938B148A958BA8
:101D8000168A178AF18FE08FF38FE28FA8E9B5E00A
:101D9000ED0119928A95E9F714A6DF91CF91089584
:101DA000F8940C94F40EF999FECF92BD81BDF89A87
:101DB000992780B50895262FF999FECF1FBA92BDB5
:101DC00081BD20BD0FB6F894FA9AF99A0FBE01961C
:101DD000089581E090E0F8940C94F40EEE0FFF1F4C
:0C1DE0000590F491E02D0994F894FFCFD9
:101DEC00FFFFFFFF00E1000000000000FFFF01808B
:101DFC0001800180018201800180FFFF000018003A
:101E0C00180018001800180018000000FFFF0180CF
:101E1C0001800180018001820187FFFF00C1808168
:101E2C0000000000000000AD082E09CE08C3081405
:101E3C0009D208F008000000006604AF03DA03D9E9
:0A1E4C00034A0EFCFF00008C0E009C
:00000001FF
