:100000000C947D030C94A5030C94A5030C94A503F8
:100010000C94A5030C94A5030C94A5030C94A503C0
:100020000C94A5030C94A5030C94CA0A0C94390BE8
:100030000C94A5030C94A5030C94A5030C94A503A0
:100040000C94A5030C94A5030C94A5030C94A50390
:100050000C94A5030C94A5030C94A5030C946B0DB0
:100060000C94A5030C94A5030C94A5030C94A50370
:100070000C94A5030C94A5030C94A5030C94A50360
:100080000C94A5030C94A5030C94A5030C94A50350
:100090000C94A5030C94A5030C94A5030C94A50340
:1000A0000C94A5030C94A5030C94A50300444947A4
:1000B00020414E4420444F4E27542047455420426F
:1000C000555249454400544F55434820504F4F50D6
:1000D00020544F20534852494E4B0045415420462E
:1000E0004F4F4420544F2047524F5700434C494DE7
:1000F0004220414E4420444F4E275420474554202F
:10010000535455434B00424F5244455253204152A1
:100110004520534F4C494420524F434B00095553FF
:10012000452054484520442D50414420544F204DF3
:100130004F56450A094F4E2054484520534F4C49CD
:100140004420524F434B0A09414E442052454143FB
:10015000482054484520455849540000B00000A1AB
:1001600070E150964F26900F1D070C009669004ACB
:10017000E44A0048444000806810000F99FB8F9DBE
:10018000BDBBFB77D4D4DF1F1A1AFE7F5D5DFF80F5
:100190005A0000A0A4AA0010BA3400FF5953F3FF7C
:1001A0009B9B9EFFB9B996FF9595D19FF4940FFC48
:1001B000295F91FF1838F8FF9294FFFF95D5F7BF9C
:1001C000B5DDD7F18F81F1F788C8F779C64679098F
:1001D000FD9B090196F80082818280507162007750
:1001E00056560076763700A2B7730107720600787C
:1001F00027500073347400775176007F55F700471D
:10020000711000324772007364730015A2750061AB
:10021000679400009F6060F4F2F6F2D5F08D14A1AF
:10022000C881CFD9F1AF2000003878787C7C7E7E01
:1002300000030F7F7F7F3F007E7E7C7C78783800D4
:1002400000C0F0FEFEFEFC007E7F7F7F7F3F1F0030
:100250007EFEFEFEFEFCF80000F8FCFEFEFEFE7ECA
:10026000001F3F7F7F7F7F7E7E7E7E7E7E7E7E7EC6
:1002700000FFFFFFFFFFFF007E7E5E52525E1C000C
:1002800000FCE6E6FEC0FC00001C5E52525E7E7E74
:10029000003F67677F033F0000F804020204F80094
:1002A00080C0F0FCFEE8E080183C7EFFFF7E3C183A
:1002B00055AA55AA55AA55AAFFFFFFFFFFFFFFFF4A
:1002C0005553452054484520442D50414420544F17
:1002D000204D4F5645205448450A574F524D205403
:1002E0004F205245414348205448452045584954E1
:1002F0002E0A45415420464F4F4420544F20474535
:1003000054204C4F4E4745522E0A504F4F50204DCF
:10031000414B455320594F552053484F5254455255
:100320002E0A524F434B532043414E2754204245FF
:1003300020454154454E2E0A594F552043414E20E9
:1003400044494720534F494C2E0A534F494C204EA5
:100350004F5420434F4E4E454354454420544F0A7A
:10036000524F434B532057494C4C2046414C4C2054
:10037000444F574E2E0A444F4E2754204745542091
:10038000425552494544210A505245535320284171
:100390002920544F20524553544152542E0A0A47A3
:1003A0004F4F44204C55434B210A0042592052459F
:1003B0004E41544F2047524F5454455349004F4EDD
:1003C0005943484F50484F524120574153204D41C7
:1003D000444500001C1C1C7F3E1C0848454C500036
:1003E0004352454449545300504C415900080B00B6
:1003F00002020201000904000001020200000524BB
:100400000010010524010101042402060524060050
:10041000010705810310004009040100020A0000E1
:1004200000070502024000000705830240000004A7
:1004300003090412010002EF02014041233680004B
:10044000010102030141726475696E6F204C4C43D7
:100450000055534220494F20426F617264001D01D4
:10046000060E060105010401FFFFFFFFFFFF0180EB
:10047000018001800180FFFF0000000000000000FB
:10048000000000000000000000000000000000006C
:10049000000000000000000000000000000000005C
:1004A00000000000000000000601070E0301020129
:1004B0000101FFFF0000000000000000000000003C
:1004C000000000000000000000000000000000002C
:1004D000000000000000000000000000000000001C
:1004E000000000000000000000000000000000000C
:1004F0000000EC00060E030102010101FFFF0000F5
:1005000000000000000030021007FFFF00000000A4
:1005100000000000000000000000000000000000DB
:1005200000000000000000000000000000000000CB
:10053000000000000000000000000000DB00060BCF
:10054000030102010101FFFF000000003D0821003E
:100550002D082D08FFFF0000000000000000000033
:10056000000000000000000000000008000000087B
:10057000000000000000000000000000000000007B
:10058000000000000000C600060B0301020101018B
:10059000FFFF000000003D0821002D082D08FFFF8F
:1005A000000000000000000000000000000000004B
:1005B000000000000008000000080000000000002B
:1005C00000000000300000000000000000000000FB
:1005D000AD00010F030102010101FFFF0000010056
:1005E00001000100010001000100000000003F388F
:1005F0003F38FF3FFF3FFF3FFF3F0000000000008C
:1006000000000000000000000000000000000000EA
:1006100000000000000000000000AC00010003002A
:10062000040005000000000000E0000007000300D7
:1006300001C000C018207828D8EF00280020183802
:10064000F01F00000000000000000000000000009B
:10065000000000000000000000000000000000009A
:1006600000000000AC00050D050205010500F503C2
:10067000400000FCFEED82E1BA0DBE6D800D007CF5
:100680000A7CFF01000000000000000000000000E4
:10069000008000000000000000000000006000007A
:1006A0000000000001000000000000800080AC009D
:1006B000020F07020701070008000840E850031076
:1006C0000350030003E003000000000000000000EE
:1006D000000000000000000000402000000000407A
:1006E000000000000000000000000000000000000A
:1006F00000000000000000002D0E11241FBECFEFEF
:10070000DAE0DEBFCDBF11E0A0E0B1E0ECE8FAE254
:1007100002C005900D92A634B107D9F726E0A6E4F1
:10072000B1E001C01D92A435B207E1F713E0CDE7B7
:10073000D3E004C02197FE010E943E15CC37D107BB
:10074000C9F70E94D00E0C94F8140C9400006F921C
:100750007F929F92AF92BF92CF92DF92EF92FF92E1
:100760000F931F93CF93DF93803891050CF057C000
:10077000603471050CF053C08B010770112723E022
:10078000759567952A95E1F7DB01B695BA2FAA27EB
:10079000B795A795ED01C058DF4F3E01680E791E51
:1007A000A80FB91FAB54BE4F20E830E07901E81A1A
:1007B000F90A90E080E028E030E05901A01AB10A7F
:1007C000FA01E80FF91F24919D906D0131E0C31AE1
:1007D000D108002E01C0220F0A94EAF72929E60168
:1007E000288301151105A1F06730710589F0E491A6
:1007F0009C01260D371D2B543E4FF0E00A2C02C001
:10080000F595E7950A94E2F7E901F881EF2BE88383
:1008100001968830910519F0E816F90689F6DF91FE
:10082000CF911F910F91FF90EF90DF90CF90BF90ED
:10083000AF909F907F906F900895EF92FF920F93EB
:100840001F93CF93DF9300910A06A5EBB5E0ED016E
:1008500010E02FE030E041E050E0011711F1BE015F
:10086000EDA9E730A9F12296F0E03196EE0FFF1FD7
:100870007F01E80EF91EFB0166A9F901E61BF109EB
:10088000BF01FA0102C0EE0FFF1F6A95E2F7BF0138
:10089000F701E080F1806E217F21672BC9F41F5F93
:1008A000DCCF20E01296121749F0D3963C91D397F3
:1008B0003F5FD3963C93D3972F5FF4CF0E941D04E4
:1008C00081E0DF91CF911F910F91FF90EF900895FC
:1008D00080E0F7CFCF93DF939AE4899F90011124B2
:1008E000F901E05AFB4FE491E0934B06F901EF590F
:1008F000FB4FE491E0934C06F901EE59FB4F7491E4
:10090000F901ED59FB4F6491F901EC59FB4F5491FA
:10091000F901EB59FB4F4491F901EA59FB4F9491CE
:10092000F901E959FB4FE4917093EA056093EB05F7
:100930005093EC054093ED059093EE05E093EF05A1
:1009400093E090930A06ABE0B6E050E040E0E901A6
:10095000C859DB4FFE01E40FF51F659174916D934B
:100960007D934E5F5F4F40315105A1F7ABE1B6E09B
:1009700050E040E0E901C858DB4FFE01E40FF51FED
:10098000659174916D937D934E5F5F4F403151053A
:10099000A1F7ABE2B6E050E040E0E901C857DB4F19
:1009A000FE01E40FF51F659174916D937D934E5F89
:1009B0005F4F40315105A1F7ABE3B6E050E040E0B6
:1009C000E901C856DB4FFE01E40FF51F65917491F4
:1009D0006D937D934E5F5F4F40315105A1F7F90153
:1009E000E25AFB4F2591349130934E0620934D06E9
:1009F00080934F06DF91CF91089590E121E061FD52
:100A000024E060FD220F62FD2295687F969FD00151
:100A10001124A80FAB54BE4F8C91822B8C93089558
:100A20002F923F924F925F926F927F928F929F92FE
:100A3000AF92BF92CF92DF92EF92FF920F931F93EC
:100A4000CF93DF937B01EA0189016901C61AD70AB6
:100A5000D7FE03C0D194C194D1084E01881A990AD7
:100A600097FE03C09194819491088C149D0454F0D6
:100A7000302F212F8E01C32FD22F3E2D2F2D7C0101
:100A8000832F922F0E151F0554F03C2F2D2FEC01B4
:100A9000832F922F302F212F8701E32EF22E170163
:100AA000201A310A2C014C1A5D0A57FE03C05194DA
:100AB00041945108310137FE03C02FEF621A720AC8
:100AC00075946794C817D907ECF481E0A82E880FB5
:100AD000BB08E016F10604F18C149D04ACF4C03898
:100AE000D10528F4B801CE010034110594F0641842
:100AF000750877FE04C0CA0DDB1D620C731C0F5F06
:100B00001F4FE7CF8FEFE2CFC034D10580F7BE0192
:100B1000C8010E94FD04EBCFDF91CF911F910F918F
:100B2000FF90EF90DF90CF90BF90AF909F908F900D
:100B30007F906F905F904F903F902F900895E5EBDE
:100B4000F1E0A0E0B8E000800EBC8111012C11970B
:100B5000A0FDFDCF0192B9F70DB408959091BF05A6
:100B6000982329F49091BE05982381E009F480E050
:100B70000895FC0180916401882311F13FB7F89436
:100B800082E08093E9002091F200822F90E0181615
:100B9000190614F481E090E0882339F0289844E69F
:100BA000409363014091F1004083222339F020916A
:100BB000F200211103C02BE62093E8003FBF089507
:100BC0008FEF9FEF08952FB7F89483E08093E900AB
:100BD0009091E800892F807295FF04C09091F200F7
:100BE00080E4891B2FBF0895CF93DF931F92CDB769
:100BF000DEB76983DC01ED91FC910280F381E02D89
:100C000041E050E0BE016F5F7F4F09950F90DF918B
:100C1000CF91089583E08093E9008091F2008823CA
:100C200019F08AE38093E80008950E94E30590E0BC
:100C30000895CF93DF931F92CDB7DEB7FC01848573
:100C4000958597FD08C02FEF3FEF358724870F90DC
:100C5000DF91CF910895CE0101960E94B9050197C9
:100C600019F4898190E0F3CF8FEF9FEFF0CF0F93CE
:100C70001F93CF93DF931F92CDB7DEB78C01FC019A
:100C80008485958597FF0BC0CE0101960E94B9051A
:100C9000019771F4898190E0F80195878487F801C4
:100CA000848595850F90DF91CF911F910F910895C5
:100CB0008FEF9FEFF1CFFC018485958597FD0BC0E9
:100CC0009FB7F89482E08093E9008091F2009FBF83
:100CD00090E0019608959FB7F89482E08093E90030
:100CE0008091F2009FBF90E0089580915901811199
:100CF0000DC082E08093550184E0809356011092EC
:100D000058011092570181E08093590185E591E0E7
:100D10000895409151015091520120914F0130911D
:100D2000500142175307B4F49091E8009570E1F335
:100D30009091E80092FD19C08093F10080915101DB
:100D40009091520101968F739927892B19F48EEF98
:100D50008093E80080915101909152010196909307
:100D600052018093510181E0089580E00895DF925F
:100D7000EF92FF920F931F93CF93DF93D82E8A01A8
:100D8000EB017B01E40EF51ECE15DF0559F0D7FE11
:100D900012C0FE0184910E94890621968111F4CF30
:100DA0000FEF1FEFC801DF91CF911F910F91FF90BF
:100DB000EF90DF9008958881EECF0F931F93CF932C
:100DC000DF931F92CDB7DEB782E0898342E450E023
:100DD0006DEE73E080E80E94B7060E947506DC01A4
:100DE00012960D911C910115110589F0D801ED9114
:100DF000FC910280F381E02DBE016F5F7F4FC8013F
:100E0000099597FD04C0F80100851185ECCF898113
:100E10000F90DF91CF911F910F910895615030F0A5
:100E20002091F100FC0120830196F8CF289884E6F8
:100E30008093630108953FB7F89480914B0190919E
:100E40004C01A0914D01B0914E0126B5A89B05C063
:100E50002F3F19F00196A11DB11D3FBFBA2FA92F39
:100E6000982F8827BC01CD01620F711D811D911D36
:100E700042E0660F771F881F991F4A95D1F70895A2
:100E80008F929F92AF92BF92CF92DF92EF92FF929A
:100E90006B017C010E941B074B015C01C114D10452
:100EA000E104F104B9F00E941B07681979098A0965
:100EB0009B09683E73408105910580F321E0C21AC9
:100EC000D108E108F10888EE880E83E0981EA11C85
:100ED000B11CE4CFFF90EF90DF90CF90BF90AF9028
:100EE0009F908F9008958F929F92AF92BF92CF92D2
:100EF000DF92EF92FF920F931F93CF93DF936C01DA
:100F00007B018A0180910B01882309F45CC08091E8
:100F10006401882309F457C08091620180FF05C0F5
:100F20008091E00082608093E000E801B12C8AEFBC
:100F3000A82E93E0892E2AE3922E209711F4BB204D
:100F4000D9F10E94E30581110AC0AA94AA20D9F11F
:100F500061E070E080E090E00E944007EECF8C17E7
:100F60001D0611F00CF08C2F9FB7F8948092E900C9
:100F70002091E80025FD02C09FBFDFCF282F30E081
:100F8000C21BD30BF701815020F041914093F10037
:100F9000FACFE20EF31EBB2021F09092E800B12CB4
:100FA000EBCF8091E80085FDE7CF9092E800BB246D
:100FB000B394209709F3F3CF5D9884E680936101A1
:100FC000101611063CF081E090E0F60193838283D5
:100FD00010E000E0C801DF91CF911F910F91FF90C9
:100FE000EF90DF90CF90BF90AF909F908F9008953B
:100FF000FC016A3081F4858998E0899F9001112471
:1010000081899289820F931F928B818B108A178618
:1010100081E090E008956D30D9F32589422F50E0AA
:1010200087859089A6E02A9F800D911D1124908BC1
:1010300087872689222361F36AEF64039001659F05
:10104000300D112420583F4F281739070CF7CF01D6
:101050000190F081E02D0190F081E02D6AE009958A
:10106000D7CF08952D9A0895BC0190E080E00C94AC
:1010700040078FB18095807F669B88601C9B846051
:101080000895EF92FF920F931F93CF93DF938C01FC
:101090007B01D0E0C0E0F701EC0FFD1F64916623F7
:1010A00061F0D801ED91FC910190F081E02DC80133
:1010B0000995892B11F02196EECFCE01DF91CF91CA
:1010C0001F910F91FF90EF900895AF92BF92CF9232
:1010D000DF92EF92FF920F931F93CF93DF936C01F8
:1010E0007B018B01040F151FEB015E01AE18BF08D9
:1010F000C017D10759F06991D601ED91FC9101908B
:10110000F081E02DC6010995892B79F7C501DF91A2
:10111000CF911F910F91FF90EF90DF90CF90BF90F4
:10112000AF900895DC012C9130E0220F331FFB01BA
:10113000E20FF31F11968C912FE030E0281B31094C
:1011400081E090E002C0880F991F2A95E2F7809510
:101150009095208131818223932391838083089508
:101160006F927F928F929F92AF92BF92CF92DF92B7
:10117000EF92FF920F931F93CF93DF934C017B016C
:10118000C22F102F98E0A92EB12C642E669466947D
:101190006694712CCA0187709927892B79F5D4013F
:1011A00017962D913C91C7019927B9010E941615F8
:1011B000269DF001279DF00D369DF00D11248E0F18
:1011C0009F1FD4011596ED91FC91E80FF91F208126
:1011D000111112C0C095C223C083DF91CF911F911E
:1011E0000F91FF90EF90DF90CF90BF90AF909F90C6
:1011F0008F907F906F900895C22BEECFD0E0477014
:10120000C42ED12C83E0660C771C8A95E1F79E01F1
:1012100001C0220F4A95EAF7012FA301B701C401CB
:101220000E94B008A301485F5F4FC5018C199D095A
:1012300002C0D595C7958A95E2F7A7CF3F924F9206
:101240005F926F927F928F929F92AF92BF92CF9256
:10125000DF92EF92FF920F931F93CF93DF93EC01F6
:1012600089899A8997FD05C02B893C898217930744
:101270009CF06A3029F58D859E859C878B878F89A8
:101280002F853889820F932F911D988B8F878B899B
:101290009C8901969C8B8B8B81E090E0DF91CF91B4
:1012A0001F910F91FF90EF90DF90CF90BF90AF9084
:1012B0009F908F907F906F905F904F903F90089598
:1012C000EB84FC84603231F425E0E20EF11CFC86F4
:1012D000EB86DDCF693021F439E0E30EF11CF7CF66
:1012E0008DEFE8168FEFF8060CF470C08F819885AB
:1012F000E816F9060CF06AC0CF84D8889DEFC916AD
:101300009FEFD9060CF462C089859A85C816D90664
:101310000CF05CC0603208F46FE780EE860F9FE946
:10132000960F9A3118F42FEFC21AD20A8C3011F0AE
:101330008B3119F43FEFC31AD30A869524E0829FBC
:10134000C00111249C01255A3E4F2901B12CA12C2A
:10135000162F1170360131E0631A7108F201EA0D9F
:10136000FB1D349011113CC0832D8F70382E470126
:101370008A0C9B1C8C81882351F001E08D8981119E
:1013800000E02FE3A301B401CE010E94B0080D8953
:10139000232DA601B401CE010E94B0089FEFA91A27
:1013A000B90A24E0A216B104C9F68C81882371F031
:1013B00001E08D89811100E0A60141505109B7017A
:1013C0006C5F7F4F2FE3CE010E94B0088E8990E0C2
:1013D00004962B853C85820F931F9C878B8757CF64
:1013E00032948FE03822C3CF089590E080E00895D2
:1013F000DC019C91292F30E0220F331FFB01E20F0B
:10140000F31F11962C918FE090E0821B910921E04F
:1014100030E002C0220F331F8A95E2F7808191816C
:101420002823392381E0232B09F480E008950F93CA
:101430001F93CF93DF9300D0CDB7DEB79A83898314
:101440006BE076E0CE0101960E94F809811174C02C
:101450006BE276E0CE0101960E94F809082F8823FE
:1014600031F06BE276E0CE0101960E9492086BE3C8
:1014700076E0CE0101960E94F809182F882331F0FA
:101480006BE376E0CE0101960E94920889812A8161
:10149000002329F090910A069F5F90930A0611237A
:1014A00029F090910A06915090930A0690910A06AD
:1014B000923018F492E090930A0690910A069131C6
:1014C00018F090E190930A06883040F5E0910A0602
:1014D00065EB75E0DB0190E0E91769F0D5963C918A
:1014E000D597381305C0D6963C91D6972317B1F0FF
:1014F0009F5F1296F1CFE150F0E0EE0FFF1FEB542B
:10150000FA4F6E177F0731F043A954A956AB45AB8C
:101510003297F7CF8093EA052093EB056BE176E0F5
:10152000CE0101960E94F809882331F06BE176E044
:10153000CE0101960E9492080F900F90DF91CF91FB
:101540001F910F910895282F8091500680FD1DC096
:1015500081FD1BC08091EA059091EB05223041F09E
:10156000233059F0213069F49F3079F09F5F03C038
:10157000882359F081500C94170A873031F08F5F1F
:10158000FACF992311F09150F6CF08950C94FB14E3
:101590000E9411151F920F920FB60F9211248F9374
:1015A0009F938091E1009091E100937F9093E100FF
:1015B00083FF0FC01092E90091E09093EB0010922E
:1015C000EC0092E39093ED001092640198E0909308
:1015D000F00082FF22C093E09093E9009091F20026
:1015E000992319F09AE39093E8009091610199236F
:1015F00041F090916101915090936101911101C06E
:101600005D9A90916301992341F09091630191500B
:1016100090936301911101C0289A84FF18C08091B2
:10162000E2008E7E81608093E2008091E1008F7EF7
:101630008093E100809162018E7E806180936201DF
:101640009F918F910F900FBE0F901F90189580FF64
:10165000F7CF8091E2008E7E80618093E2008091DE
:10166000E1008E7E8093E100809162018E7E816038
:10167000E5CF1F920F920FB60F921124CF92DF92F7
:10168000EF92FF920F931F932F933F934F935F938C
:101690006F937F938F939F93AF93BF93EF93FF933A
:1016A000CF93DF93CDB7DEB76C97DEBFCDBF10927F
:1016B000E9008091E80083FF25C068E0CE014596EF
:1016C0000E940E0782EF8093E8008D8987FF39C062
:1016D0009091E80090FFFCCF982F907609F034C1EC
:1016E0009E894F89588D2F89F88C911131C080388F
:1016F00061F5809154018093F1001092F1008EEF1A
:101700008093E8006C960FB6F894DEBF0FBECDBF95
:10171000DF91CF91FF91EF91BF91AF919F918F9109
:101720007F916F915F914F913F912F911F910F91F9
:10173000FF90EF90DF90CF900F900FBE0F901F9013
:1017400018959EEF9093E800C7CF1092F100D5CF87
:10175000913059F48111D3CF4130510581F68091F8
:1017600054018D7F80935401CACF933049F4811185
:10177000C6CF4130510519F6809154018260F2CFF5
:10178000953041F48091E80080FFFCCF20682093E1
:10179000E300B5CF963009F0A9C00B8D1C8D22E077
:1017A0001092E9001092520110925101F2122EC0D3
:1017B0001092500110924F010E94DD061F8299E0A5
:1017C0009983FA8291E09E8390EA98879AEF9987AD
:1017D0002091510130915201275F3F4F3C832B8371
:1017E0008D831092E90010925201109251011093D2
:1017F000500100934F0149E050E0BE016F5F7F4F01
:1018000080E00E94B7060E94DD0679CF1093500158
:1018100000934F010E947506DC0112960D911C91F8
:101820000115110509F451C1D801ED91FC91048015
:10183000F581E02DBE016B5E7F4FC80109950097D1
:1018400009F03EC1F80100851185EACFF3E0FF12EF
:101850000EC08F89882309F440C0823061F440E8CB
:101860006CE081E594E00E94B50D811148CF81E2E2
:101870008093EB0047CF813029F440E86BE085E4AA
:1018800094E0F1CF833099F70E947506DC0112963F
:10189000ED90FC908E010F5F1F4F6801E114F10481
:1018A00079F0D701ED91FC910680F781E02DB80128
:1018B000C7010995080F111DF701E084F184EECFEF
:1018C000D8011C92F60101900020E9F73197BF0181
:1018D0006C197D0940E0C601C6CF6FE274E0FB01E0
:1018E000449150E080E80E94B70609CF973009F490
:1018F000BECF983021F481E08093F10000CF993081
:1019000009F0FDCE837009F0B2CFEDE0F1E081E0A7
:1019100031E096E32191222371F08093E900309326
:10192000EB00DF0111972C912093EC009093ED00D8
:101930008F5F873079F78EE78093EA001092EA0094
:101940008F8980936401DBCE8B8D9C8D1092E90092
:1019500010925201109251019093500180934F01C7
:10196000898D811192C08E899D89913A49F4813285
:1019700009F07DCF47E050E064E071E080E0B3CF54
:10198000913209F074CF833269F48F89988DB0E079
:10199000A0E08093000190930101A0930201B09315
:1019A0000301ADCE803269F48091E80082FFFCCF64
:1019B00067E084E091E00E940E078BEF8093E800DF
:1019C0009ECE823209F09BCE8F8980930B01EEEF81
:1019D000FFE7859194918B3F9C4D51F1E0E0F8E059
:1019E0008091040190910501A0910601B091070139
:1019F000803B9440A105B105F1F480910B0180FD7D
:101A00001AC0EE3F8AE0F80789F587E797E79183E8
:101A10008083809160008093530188E19BE00FB642
:101A2000F894A895809360000FBE9093600067CEF5
:101A3000EEEFFAE0D5CF808191818737974709F0A3
:101A40005ECEA8958091600088618093600080914F
:101A5000530180936000EE3F2AE0F20789F0809105
:101A6000FE0A9091FF0A9183808349CE8081918103
:101A70008737980751F29093FF0A8093FE0AC5CFEB
:101A80001092FF0A1092FE0A3ACE0E947506DC01FF
:101A900012960D911C910115110509F4E8CED8019B
:101AA000ED91FC910190F081E02DBE016B5E7F4FC6
:101AB000C8010995811123CEF80100851185EBCF6E
:101AC000181619060CF41BCED2CEF1E0FF12BECED2
:101AD00063E374E004CF1F920F920FB60F921124AC
:101AE0002F933F938F939F93AF93BF938091470121
:101AF00090914801A0914901B0914A01309146016D
:101B000023E0230F2D3758F50196A11DB11D209319
:101B100046018093470190934801A0934901B093F7
:101B20004A0180914B0190914C01A0914D01B091DF
:101B30004E010196A11DB11D80934B0190934C0164
:101B4000A0934D01B0934E01BF91AF919F918F91A2
:101B50003F912F910F900FBE0F901F90189526E880
:101B6000230F0296A11DB11DD2CFEF92FF920F93CA
:101B70001F93CF93DF93F82E192FE62E042F81E0C9
:101B8000860F880F0E94890683E00E948906CF2D68
:101B9000D12FEC0EFD2EF11CCE15DF05B9F007FF9D
:101BA00013C0FE0184910E948906182F80E00E94D4
:101BB0008906812321968111EFCFDF91CF911F916B
:101BC0000F91FF90EF9008958881EDCF81E0F5CFE0
:101BD0000F931F93CF93DF938C0181E090E00E94DD
:101BE000C60A80FF32C08AE090E00E94C60A9FEFDA
:101BF000980F9E3F50F522E330E0D80150963C9379
:101C00002E931F9728E330E052963C932E935197E2
:101C1000CBE0D0E0D801ED91FC910190F081E02D76
:101C2000682FC8010995CE010E94C60A2196C131CC
:101C3000D10581F780E00E949F0588EE93E0DF9157
:101C4000CF911F910F910C943408DF91CF911F9188
:101C50000F91089504970C94E80DE5E6F1E01382E6
:101C6000128288EE93E0A0E0B0E084839583A6839F
:101C7000B78387E191E0918380832FEF3FEF358732
:101C80002487E5EBF5E0138212821186128680E14B
:101C9000838710861782158685E391E09183808380
:101CA00083E491E095838483108A1786128A118ACF
:101CB00081E0838B148A858B168A128E118E49E2FD
:101CC00051E0508F478B45EB51E0558F448F40E8F2
:101CD00050E0578F468F40E450E051A340A395E079
:101CE00096A785A715A214A217A216A213A212A244
:101CF00031A720A713A612A684A7138EF0ABE7A7DF
:101D00008CEC95E092AB81ABF4ABE3AB15AA16AAD1
:101D100017AA10AE11AE12AE13AE14AE15AE16AEBB
:101D200017AE1092F5051092F6051092F705109275
:101D3000F8051092F9051092FA051092FB05109221
:101D4000FC051092FD051092FE051092FF05109201
:101D500000061092010610920206109203061092DD
:101D600004061092050610920606109207061092BD
:101D700008061092090610920A0610924B0610925D
:101D80004C0610924F06E0E5F6E080818E7F8D7F55
:101D900080831092510610925206109253060895B5
:101DA000CF93DF93CDB7DEB7A0970FB6F894DEBF21
:101DB0000FBECDBF789484B5826084BD84B5816048
:101DC00084BD85B5826085BD85B5816085BD809106
:101DD0006E00816080936E0010928100809181007E
:101DE0008260809381008091810081608093810076
:101DF000809180008160809380008091910082605A
:101E000080939100809191008160809391008091F6
:101E100090008160809390008091C10084608093E5
:101E2000C1008091C10082608093C1008091C10097
:101E300081608093C1008091C30081608093C30062
:101E40008091C00082608093C0008091C200816058
:101E50008093C20080917A00846080937A008091A0
:101E60007A00826080937A0080917A00816080930A
:101E70007A0080917A00806880937A0010926401E1
:101E800010925401109262018091D700816080937A
:101E9000D70080EA8093D80089B5806189BD89B573
:101EA000826089BD09B400FEFDCF61E070E080E092
:101EB00090E00E9440078091D8008F7C80618093E1
:101EC000D8008091E000807F8093E0008091E10065
:101ED0008E7E8093E1008DE08093E200559A209AF7
:101EE00081EC80937C0085B1806F85B984B1877E59
:101EF00084B984B1876E84B95E9A5F988AB1806D27
:101F00008AB9769A6E9881B3806F81BB899880B3C5
:101F10008D7080BB80E58CBD81E08DBD85E090E05B
:101F20000E9434085F9A85E090E00E9434085E9831
:101F30005C98EBE1F2E088E292E024912EBD000093
:101F40000DB407FEFDCF31968E179F07B1F75C9A4F
:101F500081E88093640080916500816080936500D2
:101F600080E00E949F050E94390887FF15C05C9899
:101F700085EA8EBD00000DB407FEFDCF5C9A2E9859
:101F80002F982D988091640080628093640081E096
:101F900083BF889513BEFCCF0E94390882FF48C0DA
:101FA0002D980E94390884788438E1F40E94320820
:101FB00088EC90E00E9434082F9882E090E00E9424
:101FC000FB148F3F29F06FEF82E090E00E94031531
:101FD00084EF91E00E9434082F9A0E943908847897
:101FE0008438D9F30E94390884718431E1F40E9465
:101FF000320888EC90E00E9434082E9882E090E04D
:102000000E94FB14882329F060E082E090E00E94A7
:10201000031584EF91E00E9434082E9A0E9439083B
:1020200084718431D9F388EC90E00E943408B4CFF5
:102030000E94320882E090E00E94C60A882309F4D8
:1020400069C03E9A3F9A81E090E00E94C60A282F1C
:102050002470F22E81FF0CC021112E9800EF1FEF8B
:102060000E94390886FF59C02E9A2F9A0E94320882
:1020700082E390E00E9434080E9439088111F8CF71
:102080008EE38093C00580E190E00E94C60A082F8D
:1020900081E190E00E94C60A182F82E190E00E9440
:1020A000C60A0F3609F05FC01E3609F05CC08937DA
:1020B00009F059C083E190E00E94C60A809351065E
:1020C00066246394712C2E0141E2440E511CCE0112
:1020D00001961C018FB7F894409147015091480137
:1020E0006091490170914A018FBF8091C105942F81
:1020F000981B892F9091C205992309F44CC08093B5
:10210000C3051092C20580E090E0892B19F30E946C
:102110000000E0CF3E983F9896CFFF2029F0043092
:10212000110511F42E9A2F9881E00E949F0580E0FE
:102130000E949F058FE090E00E9434080F5F1F4FC0
:102140000931110509F08CCFFF2011F02F9A2D983D
:1021500080E991E00E9434080E94320885EB95E006
:102160000E94E80D85CF88E0809351066FE680E1FC
:1021700090E00E9403156EE681E190E00E94031555
:1021800069E782E190E00E94031560E083E190E05E
:102190000E94031595CF9091C005891748F48F5F71
:1021A000891708F0B0CF81E083BF889513BEABCF0D
:1021B00011E01093C2054093C1058091BC05909138
:1021C000BD0501969093BD058093BC058091BE0529
:1021D0008093BF050E9439088093BE058091520606
:1021E000813009F471C058F1823009F46AC183303A
:1021F00009F467C180E0E5EBF1E081118FEF002485
:1022000081938193819381930394D1F71092C705B1
:102210001092C6051092C5051092C4058091520611
:10222000813009F4C8C108F452C1823009F451C3A5
:10223000833009F48CC380E00E949F0564CF80E85E
:102240000E94AE05882339F080915306813019F140
:10225000F0F0823019F180E10E94AE05882339F058
:1022600080915306813009F1E0F0823001F188E07D
:102270000E94AE05882309F4BDCF809153068130BA
:1022800009F1C0F0823009F0B5CF83E018C082E0D8
:1022900080935306E0CF10925306DDCF1093530680
:1022A000DACF81E080935306E2CF82E0FBCF109239
:1022B0005306DDCF809151060E946A0481E080932D
:1022C000520698CF82E0FBCFFBE0EF2EF6E0FF2E28
:1022D000DE015196F7018D01219131918685978517
:1022E000468D578D842B952B282B392B86A597A5AA
:1022F000282B392B2D933D934A165B0669F7C801AD
:102300000E941D04882331F08091EA059091EB052D
:102310000E94170A9091EA0580914B06981312C00B
:102320009091EB0580914C0698130CC080914F065C
:102330008F5F893008F07FC080934F0680914F06F1
:102340000E946A04F101D7018D919D917D018193D5
:1023500091930E171F07B9F788248394912C0BE1F2
:1023600016E0FE01319780E050E040E0D801AD90EA
:10237000BD908D012FE030E0B301022E02C0660F48
:10238000771F0A94E2F77501E622F722D901119727
:102390006D01EF2809F440C0873041F0E480F580FA
:1023A000E622F722EF2881F5882331F0E080F180E2
:1023B000E622F722EF2841F5E280F3809FE0921BAE
:1023C0009F3079F02F5F3F4FD30102C0AA0FBB1F90
:1023D0002A95E2F79D012E213F21232BA9F4992371
:1023E00059F093010C2C02C0220F331F0A94E2F71C
:1023F000E222F322EF2841F4873031F0882321F0E4
:102400009F3011F0911108C022813381622B732B10
:10241000738362834F5F5F4F9601CD20C09409F0B4
:10242000ABCF8F5F3296883009F0A0CF8416950627
:1024300029F04A0194CF10924F0680CFDE011D96FD
:10244000E7E2F6E08FE090E0608171819301082E71
:1024500002C0220F331F0A94E2F7AB014223532339
:10246000452BA1F04D915C91119742235323452BAD
:1024700069F4A90140955095462357235183408321
:1024800042815381242B352B338322830197E0F63D
:10249000129732972A163B06A9F6E0900A0605EB3A
:1024A00015E0F12CEF1409F471C26BE176E0C8017C
:1024B000C5960E94F8090E5F1F4F811163C2F39405
:1024C000F1CF88E00E94AE0581118FC288C274E10D
:1024D000E72EF12CF092DA05E092D905F092D805BA
:1024E000E092D7054FE050E05093DC054093DB05C8
:1024F0000FEF1FEF1093DE050093DD051092E0054E
:102500001092DF0568EE73E08CEC95E00E944108C4
:10251000F092DA05E092D905F092D805E092D7055D
:102520008EE190E09093DC058093DB051093DE054F
:102530000093DD051092E0051092DF0560EE73E078
:102540008CEC95E00E944108F092DA05E092D90502
:10255000F092D805E092D7058DE290E09093DC05EB
:102560008093DB051093DE050093DD051092E005F6
:102570001092DF056BED73E08CEC95E00E94410852
:1025800080915306813091F040F0823009F053CEB3
:1025900043ED53E06BE270E004C043ED53E06DE0C7
:1025A00070E08AE090E00E94A70345CE43ED53E03F
:1025B0006CE170E0F6CF6BE0C62E66E0D62E10E040
:1025C00000E0F12CE12C5FE0852E912C5301082CCA
:1025D00002C0AA0CBB1C0A94E2F7D6018D919C9113
:1025E0008A219B21892B31F048EB52E0B801C701C9
:1025F0000E94A703F601808991898A219B21892B5A
:1026000031F040EB52E0B801C7010E94A703D601A8
:1026100090968D919C918A219B21892B31F048EADB
:1026200052E0B801C7010E94A703F60180A991A951
:10263000A822B922AB2831F040EA52E0B801C70124
:102640000E94A703F1E08F1A910828E0E20EF11C26
:1026500040E8E416F10409F0B9CF52E0C50ED11CF0
:10266000085F1F4F0034110509F0ABCF9091EC05C6
:102670006091EA058091EB0548E0691748F048E170
:10268000961730F09091ED0540E0891708F440E18D
:1026900050E048585D4F98E0699FB0011124A8E0D0
:1026A0008A9FC00111240E94A70311E0212F30E06E
:1026B00080910A06482F4150550BFA01241735071F
:1026C0000CF067C0B90161507109F901EE0FFF1FED
:1026D000EB54FA4F93A92F5F3F4F7901EE0CFF1C8B
:1026E000D701AB54BA4FD3964C9186A9A82FB0E02E
:1026F000941316C0F701E954FA4F53A9951310C06B
:1027000058E0959FB001112448E652E0CD01E3E086
:10271000880F991FEA95E1F70E94A7031F5FC6CFB4
:10272000660F771FFB01EB54FA4F56A9E8E04E9F66
:10273000B0011124851309C0F701EB54FA4FE6A943
:102740008E1303C040E752E0E1CF220F331FF9019F
:10275000E954FA4F23A9241738F45817B0F048E188
:1027600050E0485B5D4FD2CF421720F4581778F005
:1027700040E1F6CFF701EB54FA4F26A9821718F47F
:102780009417B0F7ECCF941710F440E0E9CF48E08D
:10279000E7CF9A013327D901AA0FBB1FA954BA4F1B
:1027A000D3965C91825090E0DC01AA0FBB1FA95424
:1027B000BA4FD3964C914517B8F0541708F487C018
:1027C000220F331F2B543A4F880F991FAC014B54E3
:1027D0005A4FD901D6969C91DA01D6968C9140E158
:1027E000891718F040E001C048E050E0485D5D4FB7
:1027F000DF01AA0FBB1FA954BA4FD3966C91B8E062
:102800006B9FB0011124EE0FFF1FEB54FA4F86A906
:10281000E8E08E9FC00111240E94A70330E020E071
:102820004FE750E070E060E090E080E00E9410052B
:102830002FE330E04FE750E070E060E08FE790E09A
:102840000E9410052FE330E050E040E06FE370E0BD
:102850008FE790E00E94100530E020E050E040E07B
:102860006FE370E090E080E00E94100560914B06FD
:10287000F8E06F9FB001112480914C0648E952E0C6
:1028800028E0829FC00111240E94A703E091E60581
:10289000F091E70582E090E09687858794878387AB
:1028A000908B87878FEF9FEF928B818B148A138A8F
:1028B000158A60914D0670914E06CF010E94410825
:1028C000E091E605F091E70581E0858BB4CC48E125
:1028D0008CCF02E010E01093DA050093D905109335
:1028E000D8050093D7058AE090E09093DC058093AB
:1028F000DB05EE24EA94FE2CF092DE05E092DD0585
:102900001092E0051092DF056EEB73E08CEC95E021
:102910000E9441081093DA050093D9051093D80559
:102920000093D70584E190E09093DC058093DB056C
:10293000F092DE05E092DD051092E0051092DF05D1
:102940006BEA73E08CEC95E00E94410874CC82E065
:1029500090E09093DA058093D9059093D805809301
:10296000D7051092DC051092DB058FEF9FEF909357
:10297000DE058093DD051092E0051092DF0560EC26
:1029800072E0E0CF80914F060E946A0480E80E94C6
:10299000AE05882319F082E00E94A30A80E10E941C
:1029A000AE05882319F083E00E94A30A80E40E9408
:1029B000AE05882319F081E00E94A30A80E20E94FC
:1029C000AE05882319F080E00E94A30A88E00E94E7
:1029D000AE05882321F080914F060E946A0484E0AE
:1029E0000E94AE05882309F405CC1092520602CC51
:1029F000F8940C944415F999FECF92BD81BDF89AD4
:102A0000992780B50895262FF999FECF1FBA92BD58
:102A100081BD20BD0FB6F894FA9AF99A0FBE0196BF
:102A2000089581E090E0F8940C94441597FB072EEC
:102A300016F4009407D077FD09D00E942A1507FCF0
:102A400005D03EF4909581959F4F089570956195BE
:102A50007F4F0895AA1BBB1B51E107C0AA1FBB1FD4
:102A6000A617B70710F0A61BB70B881F991F5A951A
:102A7000A9F780959095BC01CD010895EE0FFF1F39
:0C2A80000590F491E02D0994F894FFCF2C
:102A8C00FFFFFFFF00E100000000000000C180819B
:102A9C0000000000000000F405730715060A065B31
:102AAC000619063706000000001E096508F509F432
:102ABC000900000000F8076508F509F409E80DFCA9
:062ACC00FF00002A0E00CD
:00000001FF
