:100000000C94AE040C94D6040C94D6040C94D60430
:100010000C94D6040C94D6040C94D6040C94D604F8
:100020000C94D6040C94D6040C94FA060C946C0729
:100030000C94D6040C94D6040C94D6040C94D604D8
:100040000C94D6040C94D6040C94D6040C94D604C8
:100050000C94D6040C94D6040C94D6040C94E409A5
:100060000C94D6040C94D6040C94D6040C94D604A8
:100070000C94D6040C94D6040C94D6040C94D60498
:100080000C94D6040C94D6040C94D6040C94D60488
:100090000C94D6040C94D6040C94D6040C94D60478
:1000A0000C94D6040C94D6040C94D60400B0000032
:1000B000A170E150964F26900F1D070C0096690025
:1000C0004AE44A0048444000806810000F99FB8FC2
:1000D0009DBDBBFB77D4D4DF1F1A1AFE7F5D5DFF89
:1000E000805A0000A0A4AA0010BA3400FF5953F3AC
:1000F000FF9B9B9EFFB9B996FF9595D19FF4940FF6
:10010000FC295F91FF1838F8FF9294FFFF95D5F70F
:10011000BFB5DDD7F18F81F1F788C8F779C6467989
:1001200009FD9B090196F80082818280507162006E
:100130007756560076763700A2B77301077206002D
:100140007827500073347400775176007F55F7009C
:1001500047711000324772007364730015A2750076
:1001600061679400009F6060F4F2F6F2F0F89C8EF4
:100170008783878E9CF8F00000FEFF0303030303D0
:10018000070EFCF80000FEFF0303030303070EFC49
:10019000F80000FFFF00000000000000FFFF00006B
:1001A000FEFF8383838383C7EE7C380000F8FC0E58
:1001B00007030303070EFCF800003F7FE0C08080C8
:1001C000C0E07F3FFFFF01010101010101FFFF00CE
:1001D00000FFFF0C0C0C0C1C3E77E3C100007FFFFE
:1001E000C0C0C0C0C0E0703F1F00001F3F70E0C033
:1001F000C0C0E0703F1F00007FFFC1C1C1C1C1E3AB
:10020000773E1C00001F3F70E0C0C0C0E0703F1F81
:10021000000000000001FFFF01000000D5F08D1478
:10022000A1C881CFD9F1AF20008080402010080400
:100230000810204080800000000000000000000046
:10024000000000000000000000FF8080FC8282FCB3
:10025000809E929E80FF88F888F888F888F888F851
:1002600088F888F888F888F80024A870FC70A8241A
:10027000000100F0AFF0000100F04F241B244FF00C
:1002800000000000C040C040C078C442C242C478F0
:10029000C040C040C000000000FC141C171C171C0C
:1002A000177C47545754477C171C171C171C14FC09
:1002B00000FF809F9191919F80FCAAA9FFA9AAFCB1
:1002C0008080808F898F80FF00FFC1FF417FC1FF49
:1002D0000000FF885522FF000000FF885522FF0024
:1002E00000FE25160E0506A675A606050E1625FEA9
:1002F00000FF80FE82FE82FE80BEA2BEA2BE80FF04
:1003000000FE915E3E111E1E111E1E113E5E91FEEC
:1003100000FF808F8F80FFA9A9A9FF808F8F80FFAA
:10032000000081FF81FF81FF00FFFC308448800EC8
:10033000FFFFFC300890400EFFFFFC300122400E12
:10034000FFE488E490A0C882D0242211221109126F
:100350002412122111221214240000D23F579200BD
:10036000000000D27FA7020000000022FFA70200C9
:10037000000000D27FA70200000C1830FFFF0C061F
:1003800003082952FE4925100000000B0E1C780EB0
:10039000040000101C78101C0800002030302038A9
:1003A000100000101C78101C0862792052656E61E4
:1003B000746F2047726F7474657369004C61677560
:1003C0006E69746120776173206D616465007C449F
:1003D0007C7C7C38100048656C70004372656469F1
:1003E000747300506C61790000000000003E5B4FA8
:1003F0005B3E3E6B4F6B3E1C3E7C3E1C183C7E3C85
:10040000181C577D571C1C5E7F5E1C00183C180092
:10041000FFE7C3E7FF0018241800FFE7DBE7FF3022
:10042000483A060E2629792926407F050507407F90
:1004300005253F5A3CE73C5A7F3E1C1C08081C1C03
:100440003E7F14227F22145F5F005F5F06097F01F9
:100450007F006689956A606060606094A2FFA294E4
:1004600008047E040810207E201008082A1C0808B2
:100470001C2A08081E101010100C1E0C1E0C303800
:100480003E3830060E3E0E06000000000000005F01
:1004900000000007000700147F147F14242A7F2A1D
:1004A00012231308646236495620500008070300DF
:1004B000001C2241000041221C002A1C7F1C2A082B
:1004C000083E08080080703000080808080800008E
:1004D00060600020100804023E5149453E00427F02
:1004E000400072494949462141494D331814127F51
:1004F0001027454545393C4A4949314121110907F1
:100500003649494936464949291E00001400000071
:100510004034000000081422411414141414004143
:1005200022140802015909063E415D594E7C121100
:10053000127C7F494949363E414141227F41414138
:100540003E7F494949417F090909013E41415173B3
:100550007F0808087F00417F41002040413F017F24
:10056000081422417F404040407F021C027F7F04EC
:1005700008107F3E4141413E7F090909063E415135
:10058000215E7F09192946264949493203017F0125
:10059000033F4040403F1F2040201F3F4038403F26
:1005A000631408146303047804036159494D43003C
:1005B0007F4141410204081020004141417F040273
:1005C000010204404040404000030708002054540A
:1005D00078407F28444438384444442838444428E8
:1005E0007F385454541800087E090218A4A49C783B
:1005F0007F0804047800447D40002040403D007F97
:100600001028440000417F40007C047804787C0876
:100610000404783844444438FC182424181824244A
:1006200018FC7C08040408485454542404043F442F
:10063000243C4040207C1C2040201C3C4030403C5E
:1006400044281028444C9090907C4464544C4400BE
:100650000836410000007700000041360800020122
:100660000204023C2623263C1EA1A161123A40400E
:10067000207A38545455592155557941215454788C
:1006800041215554784020545579400C1E52721225
:1006900039555555593954545459395554545800AD
:1006A00000457C410002457D420001457C40F02927
:1006B0002429F0F0282528F07C5455450020545476
:1006C0007C547C0A097F49324949493232484848BA
:1006D00032324A4848303A4141217A3A4240207801
:1006E000009DA0A07D39444444393D4040403D3CFC
:1006F00024FF2424487E4943662B2FFC2F2BFF091F
:1007000029F620C0887E0903205454794100004412
:100710007D413048484A32384040227A007A0A0AFD
:10072000727D0D19317D2629292F28262929292670
:1007300030484D4020380808080808080808382FB5
:1007400010C8ACBA2F102834FA00007B000008143F
:100750002A142222142A14089500220095AA005572
:1007600000AAAA55AA55AA000000FF00101010FF09
:1007700000141414FF001010FF00FF1010F010F010
:10078000141414FC001414F700FF0000FF00FF1401
:1007900014F404FC141417101F10101F101F14144D
:1007A000141F00101010F0000000001F1010101097
:1007B0001F10101010F010000000FF10101010108B
:1007C00010101010FF10000000FF140000FF00FFC9
:1007D00000001F10170000FC04F414141710171465
:1007E00014F404F40000FF00F71414141414141487
:1007F000F700F7141414171410101F101F141414FA
:10080000F4141010F010F000001F101F0000001F63
:1008100014000000FC140000F010F01010FF10FF96
:10082000141414FF141010101F00000000F010FF2B
:10083000FFFFFFFFF0F0F0F0F0FFFFFF000000000F
:1008400000FFFF0F0F0F0F0F38444438447C2A2A53
:100850003E147E02020606027E027E026355494174
:10086000633844443C04407E201E2006027E02027F
:1008700099A5E7A5991C2A492A1C4C7201724C3093
:100880004A4D4D303048784830BC625A463D3E496A
:100890004949007E0101017E2A2A2A2A2A44445F0E
:1008A000444440514A444040444A51400000FF0102
:1008B00003E080FF000008086B6B08361236243610
:1008C000060F090F06000018180000001010003075
:1008D00040FF0101001F01011E00191D1712003CFD
:1008E0003C3C3C0000000000080B0002020201003A
:1008F0000904000001020200000524001001052483
:1009000001010104240206052406000107058103F4
:1009100010004009040100020A000000070502025D
:10092000400000070583024000000403090412018F
:100930000002EF0201404123368000010102030161
:1009400041726475696E6F204C4C430055534220D0
:10095000494F20426F6172640000D21211241FBE01
:10096000CFEFDAE0DEBFCDBF11E0A0E0B1E0E0E024
:10097000F7E202C005900D92AE35B107D9F726E037
:10098000AEE5B1E001C01D92A331B207E1F714E07A
:10099000CEEAD4E004C02197FE010E947813CD3A3C
:1009A000D107C9F70E945F0E0C9432130C9400001B
:1009B000CF92DF92EF92FF920F931F93CF93DF932B
:1009C0006C017A018B01C0E0D0E0CE15DF0581F02B
:1009D000D8016D918D01D601ED91FC910190F081CE
:1009E000E02DC6010995892B11F02196EECF7E01ED
:1009F000C701DF91CF911F910F91FF90EF90DF9092
:100A0000CF9008954F925F926F927F928F929F92B4
:100A1000AF92BF92CF92DF92EF92FF920F931F930C
:100A2000CF93DF936C013B01102F38E0832E912C84
:100A30007A01FF24270193E0559447949A95E1F7B2
:100A4000CA0187709927892B41F5D6011796CD9158
:100A5000DC911897C3019927BE010E9450134C9E48
:100A6000F0014D9EF00D5C9EF00D11249927D601EA
:100A700015964D915C9116978E0F9F1FFA01E80F06
:100A8000F91F111106C0C22FC09520812C2320838D
:100A900027C0C081C22BC08323C0C22FD0E04770C3
:100AA000A42EB12C720183E0EE0CFF1C8A95E1F7B5
:100AB0009E0101C0220F4A95EAF7012FA701B30159
:100AC000C6010E940205C4018A199B0902C0D5957E
:100AD000C7958A95E2F72C2FA701485F5F4FA8CFF3
:100AE000DF91CF911F910F91FF90EF90DF90CF900A
:100AF000BF90AF909F908F907F906F905F904F903E
:100B000008955F926F927F928F929F92AF92BF9261
:100B1000CF92DF92EF92FF920F931F93CF93DF93C9
:100B2000EC016A3061F48D859E859C878B872B89CB
:100B30008F859889820F911D988B8F8775C0CB8484
:100B4000DC84693031F489E0C80ED11CDC86CB86A8
:100B50006BC0162F9DEFC9169FEFD90654F48A89F2
:100B600090E004962B853C85820F931F9C878B8792
:100B70005BC08F819885C816D9068CF7EF84F888FA
:100B80008DEFE8168FEFF80654F389859A85E816FD
:100B9000F9062CF7603208F41FE780EE810F9FE919
:100BA000910F9A3118F49FEFE91AF90A8C3011F07D
:100BB0008B3119F49FEFE91AF90A869594E0899F21
:100BC00050011124360184E0680E711C4601117039
:100BD000F401EC19FD09EA0DFB1DE455FF4F84916A
:100BE000111103C08F70582E04C0582E52948FE0FC
:100BF00058228C81882351F001E08989811100E01D
:100C00002FE0A701B401CE010E9402050989252D1C
:100C1000A701B401CE010E9402059FEF891A990A2B
:100C200068147904A9F69BCF81E090E0DF91CF9121
:100C30001F910F91FF90EF90DF90CF90BF90AF90FA
:100C40009F908F907F906F905F900895089580E0BF
:100C500090E008950E944B136115710579F0FB0136
:100C600001900020E9F73197AF01461B570BDC01DB
:100C7000ED91FC910280F381E02D099480E090E0F9
:100C8000089540916B0150916C0120916901309160
:100C90006A0142175307B4F49091E8009570E1F3AC
:100CA0009091E80092FD19C08093F10080916B0152
:100CB00090916C0101968F739927892B19F48EEF0F
:100CC0008093E80080916B0190916C010196909364
:100CD0006C0180936B0181E0089580E00895DF92BC
:100CE000EF92FF920F931F93CF93DF93D82E8A0139
:100CF0007B01E40EF51EEB01CE15DF0571F0D7FE8A
:100D000003C0FE01849101C088810E9441062196A2
:100D10008111F2CF8FEF9FEF01C0C801DF91CF911A
:100D20001F910F91FF90EF90DF900895615030F088
:100D30002091F100FC0120830196F8CF289884E6E9
:100D40008093700108953FB7F89480916501909168
:100D50006601A0916701B091680126B5A89B05C006
:100D60002F3F19F00196A11DB11D3FBFBA2FA92F2A
:100D7000982F8827820F911DA11DB11DBC01CD01A7
:100D800042E0660F771F881F991F4A95D1F7089593
:100D90000F931F93CF93DF931F92CDB7DEB782E0FF
:100DA000898342E450E068EE78E080E80E946F06B4
:100DB0000E944B0EDC0112960D911C9113970115A8
:100DC000110589F0D801ED91FC910280F381E02DAD
:100DD000BE016F5F7F4FC801099597FD04C0F80100
:100DE00000851185ECCF89810F90DF91CF911F9104
:100DF0000F9108951F920F920FB60F9211248F93A7
:100E00009F938091E1009091E100937F9093E100A6
:100E100083FF0FC01092E90091E09093EB001092D5
:100E2000EC0092E39093ED001092710198E09093A2
:100E3000F00082FF20C093E09093E9009091F200CF
:100E4000992319F09AE39093E80090916E01992309
:100E500039F090916E01915090936E01992389F130
:100E600090917001992339F0909170019150909375
:100E70007001992341F184FF10C08091E2008E7EC1
:100E800081608093E2008091E1008F7E8093E10099
:100E900080916F018E7E806111C080FF16C08091AD
:100EA000E2008E7E80618093E2008091E1008E7E80
:100EB0008093E10080916F018E7E816080936F014D
:100EC00004C05D9ACDCF289AD6CF9F918F910F9075
:100ED0000FBE0F901F9018951F920F920FB60F9292
:100EE0001124CF92DF92EF92FF920F931F932F93D3
:100EF0003F934F935F936F937F938F939F93AF93A2
:100F0000BF93EF93FF93CF93DF93CDB7DEB76C978B
:100F1000DEBFCDBF1092E9008091E80083FFFBC1E6
:100F200068E0CE0145960E94960682EF8093E80025
:100F30008D8987FF05C09091E80090FFFCCF03C02A
:100F40009EEF9093E800982F907609F0C6C09E8996
:100F50004F89588D2F89F88C91110CC0803829F455
:100F6000809163018093F10002C01092F100109211
:100F7000F10045C1913051F4811141C14130510519
:100F800009F03DC1809163018D7F0BC0933061F406
:100F9000811135C14130510509F031C180916301A2
:100FA0008260809363012BC1953049F48091E80001
:100FB00080FFFCCF822F80688093E30020C19630B1
:100FC00009F05EC00B8D1C8D22E01092E90010929A
:100FD0006C0110926B01F21232C010926A011092F1
:100FE00069010E94C80699E0BE016F5F7F4FDB0177
:100FF000E92F1D92EA95E9F79983FA8291E09E83A1
:1010000090EA98879AEF998720916B0130916C0153
:10101000275F3F4F3C832B838D831092E900109212
:101020006C0110926B0110936A010093690149E011
:1010300050E080E00E946F060E94C806E0C0109356
:101040006A01009369010E944B0EDC0112960D911A
:101050001C9113970115110509F4BBC0D801ED913E
:10106000FC910480F581E02DBE016B5E7F4FC801CD
:101070000995009709F0C7C0F80100851185EACFEE
:10108000973009F445C1983021F481E08093F10054
:10109000B6C0993009F0B3C0837009F039C1EDE0F2
:1010A000F1E081E031E096E32081211109C08EE773
:1010B0008093EA001092EA008F89809371019FC0AB
:1010C0008093E9003093EB0021912093EC00909302
:1010D000ED008F5F873041F7EACF8B8D9C8D1092AA
:1010E000E90010926C0110926B0190936A01809359
:1010F0006901898D811153C08E899D89913A49F486
:10110000813209F005C147E050E064E071E080E021
:10111000BBC0913209F0FCC0833269F48F89988D8D
:10112000A0E0B0E08093000190930101A093020140
:10113000B093030164C0803269F48091E80082FFBB
:10114000FCCF67E084E091E00E9496068BEF8093ED
:10115000E80055C0823209F052C08F8980930B019C
:10116000EEEFFFE7859194918B3F9C4D19F0E0E005
:10117000F8E002C0EEEFFAE08091040190910501E1
:10118000A0910601B0910701803B9440A105B105F3
:1011900009F09EC080910B0180FF79C099C00E9428
:1011A0004B0EFC01028113810115110509F4B0C039
:1011B000D801ED91FC910190F081E02DBE016B5EB4
:1011C0007F4FC801099581111AC0F801008511856A
:1011D000EBCFF1E0FF1609F44EC0F3E0FF1298C028
:1011E0008F89882309F44AC0823089F440E86CE092
:1011F0008CE499E00E945812882309F489C08EEF8C
:101200008093E80088C018161906CCF381C081309D
:1012100029F440E86BE080E499E0ECCF833009F0FA
:1012200077C00E944B0EDC011296ED90FC90139754
:101230008E010F5F1F4F6801E114F10479F0D701AF
:10124000ED91FC910680F781E02DB801C701099569
:10125000080F111DF701E084F184EECFD8011C9234
:10126000F60101900020E9F73197BF016C197D0963
:1012700040E0C601BFCF6EE279E002C06AE279E0E9
:10128000FB01449150E080E80E946F06B8CFEE3F2A
:101290002AE0F20751F0808191818737A7E79A070A
:1012A00021F09093FF0A8093FE0A87E797E79183E6
:1012B00080838091600080936D019BE088E10FB690
:1012C000F894A895809360000FBE9093600097CF2C
:1012D000808191818737974709F091CFA8958091B8
:1012E000600088618093600080916D018093600050
:1012F000EE3FBAE0FB0739F08091FE0A9091FF0AB9
:10130000918380837CCF1092FF0A1092FE0A77CFE0
:1013100081E28093EB006C960FB6F894DEBF0FBEAF
:10132000CDBFDF91CF91FF91EF91BF91AF919F9191
:101330008F917F916F915F914F913F912F911F916D
:101340000F91FF90EF90DF90CF900F900FBE0F9016
:101350001F9018958F929F92AF92BF92CF92DF927B
:10136000EF92FF926B017C010E94A3064B015C018E
:10137000C114D104E104F104F1F00E94A306DC01E0
:10138000CB0188199909AA09BB09883E9340A10598
:10139000B10570F321E0C21AD108E108F10888EE26
:1013A000880E83E0981EA11CB11CC114D104E10475
:1013B000F10419F7DDCFFF90EF90DF90CF90BF9051
:1013C000AF909F908F9008951F920F920FB60F923B
:1013D00011242F933F938F939F93AF93BF9380914B
:1013E0005F0190916001A0916101B0916201309123
:1013F000640123E0230F2D3720F40196A11DB11DB8
:1014000005C026E8230F0296A11DB11D209364019B
:1014100080935F0190936001A0936101B09362019A
:101420008091650190916601A0916701B09168017A
:101430000196A11DB11D8093650190936601A09353
:101440006701B0936801BF91AF919F918F913F91D8
:101450002F910F900FBE0F901F9018958038910517
:10146000B8F460347105A0F490E121E061FD24E05E
:1014700060FD220F62FD2295687F969FD0011124A6
:10148000A80FAE58BE4F8C91822B40FF82278C93C1
:1014900008952F923F924F925F926F927F928F9218
:1014A0009F92AF92BF92CF92DF92EF92FF920F93F3
:1014B0001F93CF93DF93CDB7DEB727970FB6F8947E
:1014C000DEBF0FBECDBF9F838E836A30A1F4DC01E7
:1014D00055962C91559751968D919C915297B8E0C5
:1014E0002B9F800D911D1124EE81FF81928B818BAA
:1014F000108A1786ADC06D3009F4AAC0AE81BF81D5
:101500001F960D911C91509700381105BCF0EE818B
:10151000FF812589422F50E087859089F6E02F9F33
:10152000800D911D1124AE81BF8150969C938E93A6
:101530001F9756962C91211175C08AC0EE81FF81AC
:1015400081889288F0E48F1691040CF7AE81BF81F8
:1015500055963C90C801B5E03B9E800D911D11242D
:1015600018161906A4F6432C512CC401E8E03E9E3F
:10157000800D911D1124181619064CF6AE81BF81FD
:101580005496BC91BC83EE81FF81F389FD8325E0F5
:10159000629FB0011124CB0188519C4F3C011982FC
:1015A000F3012490F981F53009F4212C640128E03D
:1015B0002B8320FE03C03D813A8302C08C818A8345
:1015C0009A81911104C0AC81BD81AB17B9F078014B
:1015D0008E2D801B831590F456018A2D8C1983154E
:1015E00048F44A81B501C7010E942E0AEFEFAE1AF6
:1015F000BE0AF3CFFFEFEF1AFF0AEACF26942B8142
:1016000021502B83C40CD51C2111D3CF39813F5FCE
:101610003983040D151DC30101963C01363009F0D4
:10162000BFCF75CF6AEF64039001659F300D112421
:1016300020583F4F281739075CF4AE81BF81ED91E8
:10164000FC9111970190F081E02D6AE0CD010995A0
:1016500081E090E027960FB6F894DEBF0FBECDBFB5
:10166000DF91CF911F910F91FF90EF90DF90CF907E
:10167000BF90AF909F908F907F906F905F904F90B2
:101680003F902F90089508952D9A0895BC0180E011
:1016900090E00C94AA098FB18095807F669B88604A
:1016A0001C9B8460089520917101211103C08FEF6C
:1016B0009FEF08955FB7F89422E02093E90020910E
:1016C000F20030E01216130614F421E030E0422F4D
:1016D000FC0184E6415038F0289880937001909185
:1016E000F1009193F7CF2115310521F08091F2009F
:1016F000882319F05FBFC90108958BE68093E80045
:10170000F9CF2FB7F89483E08093E9009091E80037
:10171000892F807295FF04C09091F20080E4891BAC
:101720002FBF0895CF93DF931F92CDB7DEB76983A4
:10173000DC01ED91FC910280F381E02D41E050E06D
:10174000BE016F5F7F4F09950F90DF91CF91089594
:1017500083E08093E9008091F200882319F08AE306
:101760008093E80008950E94810B90E00895CF9344
:10177000DF931F92CDB7DEB7FC018485958597FD79
:1017800005C02FEF3FEF358724870BC0CE010196B0
:101790000E94530B019719F4898190E002C08FEFEA
:1017A0009FEF0F90DF91CF9108950F931F93CF93E9
:1017B000DF931F92CDB7DEB78C01FC018485958540
:1017C00097FF0EC0CE0101960E94530B019719F4AA
:1017D000898190E002C08FEF9FEFF80195878487A1
:1017E000F801848595850F90DF91CF911F910F911E
:1017F0000895FC018485958597FD0BC09FB7F894EB
:1018000082E08093E9008091F2009FBF90E0019612
:1018100008959FB7F89482E08093E9008091F200E8
:101820009FBF90E008958F929F92AF92BF92CF9208
:10183000DF92EF92FF920F931F93CF93DF936C0190
:101840007B018A0180910B01882309F45CC080919F
:101850007101882309F457C080916F0180FF05C092
:101860008091E00082608093E000E801B12C8AEF73
:10187000A82E93E0892E2AE3922E209711F4BB2004
:10188000D9F10E94810B81110AC0AA94AA20D9F132
:1018900061E070E080E090E00E94AA09EECF282F7E
:1018A00030E0C217D3070CF48C2F9FB7F8948092C6
:1018B000E9002091E80025FF1DC0282F30E0C21B61
:1018C000D30BF701815020F041914093F100FACF02
:1018D000E20EF31EBB2019F09092E8000AC080913E
:1018E000E80085FD07C09092E800BB24B3942097E0
:1018F00009F0B12C9FBFC1CF5D9884E680936E0143
:101900001016110644F081E090E0F6019383828383
:1019100080E090E001C0C801DF91CF911F910F914D
:10192000FF90EF90DF90CF90BF90AF909F908F90FF
:101930000895E2E7F1E0A0E0B8E000800EBC81117C
:10194000012C1197A0FDFDCF0192B9F70DB40895B8
:1019500020917C05282329F490917B05982381E030
:1019600009F480E008950F931F93CF93DF938C01C8
:10197000C0E0D0E0F801EC0FFD1F6491662341F058
:1019800082E795E00E94490A892B11F02196F2CF57
:10199000CE01DF91CF911F910F9108952F923F9229
:1019A0004F925F926F927F928F929F92AF92BF926F
:1019B000CF92DF92EF92FF920F931F93CF93DF931B
:1019C000CDB7DEB72A970FB6F894DEBF0FBECDBFF6
:1019D0005A01822E912C9401280F391F37FDBAC06D
:1019E000803891050CF0B6C09B01200F311D37FDEA
:1019F000B1C0603471050CF0ADC0AB0177FF04C01D
:101A000044275527461B570B477055279B0177FFE7
:101A100002C0295F3F4FE3E035952795EA95E1F74E
:101A200077FF08C02150310968E070E0FB01E41B3A
:101A3000F50BAF01202E269426942694312C0770A6
:101A400019F0FFEF2F1A3F0A220E331E3901769448
:101A5000762C662477946794680E791EE12CF12C1D
:101A600000E010E0B30160587F4F7A87698768E033
:101A700070E0FB01E41BF50BFA83E98322163306C1
:101A800009F468C02830310509F464C02F3FFFEF26
:101A90003F070CF454C0E985FA85E00FF11FBF0140
:101AA0006E587E4F7C836B83D801A60DB71DAE5850
:101AB000BE4F6C0160E070E0681579050CF03FC026
:101AC000E0E8CE16D10409F43AC0D7FC2CC02F3F71
:101AD000FFEF3F0709F43AC0FB01EE0DFF1DEA0DD1
:101AE000FB1DE491042E01C0EE0F0A94EAF7FC916D
:101AF000EF2BEC9341155105B1F02730310599F0EA
:101B0000FB01EE0DFF1DEA0DFB1DE4914E2E512C45
:101B1000098002C0559447940A94E2F7EB81FC8156
:101B20005080452840826F5F7F4FEB81FC8131966A
:101B3000FC83EB83FFEFCF1ADF0A1196BDCF2F5F37
:101B40003F4F00581F4FE80CF91C98CF4115510525
:101B5000B9F6E9CF2A960FB6F894DEBF0FBECDBF17
:101B6000DF91CF911F910F91FF90EF90DF90CF9079
:101B7000BF90AF909F908F907F906F905F904F90AD
:101B80003F902F9008952F923F924F925F926F92C5
:101B90007F928F929F92AF92BF92CF92DF92EF92FD
:101BA000FF920F931F93CF93DF93EC018B017A0188
:101BB0006901C61AD70AD7FE03C0D194C194D108CF
:101BC00047018C1A9D0A97FE03C091948194910855
:101BD0008C149D0454F49E2D8F2D7901292F382FBC
:101BE0009C2F8D2FE801092F182FEC16FD0654F4B9
:101BF000902F812F8901292F382F9C2F8D2FE701BE
:101C0000E92EF82E17012C1A3D0A2901401A510A13
:101C100057FE03C0519441945108310137FE03C06F
:101C20008FEF681A780A759467940217130714F0F7
:101C30008FEF01C081E0A82E880FBB08EC16FD06CF
:101C4000ACF041E08C149D041CF4BE01C80102C03C
:101C5000B801CE010E942E0A6418750877FE04C0F0
:101C60000A0D1B1D620C731C2196E8CFDF91CF91EA
:101C70001F910F91FF90EF90DF90CF90BF90AF90AA
:101C80009F908F907F906F905F904F903F902F909C
:101C900008950C9435138091BB0581110DC082E02D
:101CA0008093B70584E08093B8051092BA0510922E
:101CB000B90581E08093BB0587EB95E008957894A2
:101CC00084B5826084BD84B5816084BD85B5826041
:101CD00085BD85B5816085BD80916E0081608093F2
:101CE0006E0010928100809181008260809381005B
:101CF000809181008160809381008091800081606B
:101D00008093800080919100826080939100809107
:101D10009100816080939100809190008160809318
:101D200090008091C10084608093C1008091C100C7
:101D300082608093C1008091C10081608093C10066
:101D40008091C30081608093C3008091C000826055
:101D50008093C0008091C20081608093C200809116
:101D60007A00846080937A0080917A008260809308
:101D70007A0080917A00816080937A0080917A0065
:101D8000806880937A001092710110926301109222
:101D90006F018091D70081608093D70080EA8093A3
:101DA000D80089B5806189BD89B5826089BD09B4D3
:101DB00000FEFDCF61E070E080E090E00E94AA09A3
:101DC0008091D8008F7C80618093D8008091E00062
:101DD000807F8093E0008091E1008E7E8093E1001F
:101DE0008DE08093E200559A209A81EC80937C00EC
:101DF00085B1806F85B984B1877E84B984B1876EDF
:101E000084B95E9A5F988AB1806D8AB9769A6E9825
:101E100081B3806F81BB899880B38D7080BB80E572
:101E20008CBD81E08DBD85E090E00E94460B5F9AFD
:101E300085E090E00E94460B5E985C98ECE1F2E051
:101E400089E292E024912EBD00000DB407FEFDCF83
:101E500031968E179F07B1F75C9A81E880936400F2
:101E60008091650081608093650080E00E94990CFC
:101E70000E944B0B87FF24C05C9885EA8EBD000052
:101E80000DB407FEFDCF5C9A2E982F982D98809167
:101E9000640080628093640081E083BF889513BEF4
:101EA000FCCF2D980E944B0B8478843871F00E94EF
:101EB0004B0B8471843131F188EC90E00E94460B29
:101EC0000E944B0B82FDEDCF3AC00E94440B88EC80
:101ED00090E00E94460B2F9882E090E00E9435131C
:101EE0008F3F29F06FEF82E090E00E943D1384EF76
:101EF00091E00E94460B2F9A0E944B0B8478843805
:101F0000D9F3D5CF0E94440B88EC90E00E94460B99
:101F10002E9882E090E00E943513882329F060E03B
:101F200082E090E00E943D1384EF91E00E94460B16
:101F30002E9A0E944B0B84718431D9F3BDCF0E943D
:101F4000440B82E090E00E94490E882319F03E9AEB
:101F50003F9A02C03E983F9881E090E00E94490E6F
:101F6000182F147081FF39C011112E98C0EFDFEFC8
:101F70000E944B0B86FF05C02E9A2F9A0E94440B9D
:101F80002CC0112329F0C430D10511F42E9A2F98BA
:101F900081E00E94990C00E128E54CE651E0BE0189
:101FA00084E190E00E94CE0C80E00E94990C8FE0CA
:101FB00090E00E94460B2196C931D105C9F6112344
:101FC00011F02F9A2D9880E991E00E94460B0E9413
:101FD000440B82E795E00E948D1282E390E00E941C
:101FE000460B0E944B0B8111F8CF8EE380937D0549
:101FF00062E0262E312C72E0472E512CE4E1AE2E09
:10200000B12C11E0612C52E0752E8FB7F8944091FD
:102010005F015091600160916101709162018FBF19
:1020200080917E05242F281B822F90917F05992374
:1020300029F02093800510927F0532C290917D0592
:10204000291740F48F5F891708F02AC213BF8895BB
:1020500013BE26C210937F0540937E0580917905BB
:1020600090917A05019690937A05809379058091F5
:102070007B0580937C050E944B0B80937B058091B0
:10208000B505813009F44BC038F0823009F442C004
:10209000833009F43FC049C080E80E94A80C88231F
:1020A00079F08091B605813049F028F0823041F412
:1020B0001093B60505C07092B60502C01092B60521
:1020C00080E10E94A80C882379F08091B6058130C8
:1020D00049F028F0823041F41092B60505C0109303
:1020E000B60502C07092B60588E00E94A80C88234D
:1020F000E1F08091B605813051F030F08230A9F4E2
:1021000033E03093B50511C01093B5050EC0709241
:10211000B5050BC088E00E94A80C811104C084E0C2
:102120000E94A80C81111092B505862DE2E7F1E01E
:1021300081118FEF00248193819381938193039484
:10214000D1F71092840510928305109282051092A7
:1021500081058091B505813009F465C0C8F08230F1
:1021600009F481C1833009F098C1509297054092DB
:1021700096055092950540929405109299051092FB
:10218000980565E471E089E895E00E942C0685C118
:10219000B0928205A09281058FE090E09093840533
:1021A0008093830583EE93E00E94B30CB092820586
:1021B000A09281052EE130E03093840520938305C1
:1021C0008BED93E00E94B30CB0928205A092810542
:1021D0008DE290E0909384058093830586ED93E0F3
:1021E0000E94B30C8091B605813091F050F082309E
:1021F00009F053C108E028E04EEC53E06DE270E0D6
:102200000DC008E028E04EEC53E06FE070E006C03F
:1022100008E028E04EEC53E06EE170E08AE090E0E8
:102220000E94CE0C3AC180915E018F5F80935E0167
:10223000E0919F05F091A005368625863486238699
:10224000308A27866091B1057091B205CF010E9456
:102250002C0620E030E04FE750E060E070E080E0E6
:1022600090E00E94C30D2FE330E04FE750E060E0C4
:1022700070E08FE790E00E94C30D2FE330E040E074
:1022800050E06FE370E08FE790E00E94C30D20E024
:1022900030E040E050E06FE370E080E090E00E94CA
:1022A000C30DE0905E01F12C6701D594C794D594DD
:1022B000C794A6014370552723E0440F551F2A9564
:1022C000E1F747575C4F08E028E060E070E080E10C
:1022D00090E00E94CE0C28E041E853E061E270E01B
:1022E00080E090E00E94CE0C28E049E753E061E2F4
:1022F00070E088E090E00E94CE0CE70133E0D595D5
:10230000C7953A95E1F7C701887199279C01275A2B
:102310003C4F790128E0A70161E270E080E190E0A4
:102320000E94CE0CC170DD2743E0CC0FDD1F4A9523
:10233000E1F7C75BDC4F812C912C08E028E0AE016F
:1023400060E370E0C4010E94CE0C38E0830E911C63
:1023500080E88816910489F7C0E0D0E008E028E022
:1023600041E453E068E270E0CE010E94CE0C289672
:10237000C836D10599F7C60163E070E00E9450139A
:10238000EC0183E0CC0FDD1F8A95E1F7C75DDC4FE0
:1023900028E0AE0160E270E088E690E00E94CE0C9A
:1023A00028E041E253E060E270E088E690E00E94BD
:1023B000CE0C28E0A70161E270E080E190E00E948D
:1023C000CE0C28E0AE0168E270E088E690E00E9462
:1023D000CE0C28E041E453E068E270E080E790E052
:1023E0000E94CE0C28E041E453E068E270E088E708
:1023F00090E00E94CE0C00E120E141E053E060E17A
:1024000070E080E090E00E94CE0C20E141EE52E0CE
:1024100060E170E080E190E00E94CE0C08E128E0ED
:1024200049EC52E068E070E080E290E00E94CE0C5F
:1024300028E141E852E068E070E088E290E00E9424
:10244000CE0C28E049E652E068E070E080E490E0DD
:102450000E94CE0C00E120E249E252E060E170E02F
:1024600088E490E0DDCE50928205409281058AE0BA
:1024700090E090938405809383058CEB93E00E9419
:10248000B30C5092820540928105B0928405A092CF
:10249000830589EA93E00E94B30C80E00E94990CC6
:1024A00020E030E0232B09F4B0CD0E940000A9CD3C
:1024B000DF92EF92FF920F931F93CF93DF93D82E6B
:1024C000F92EE42E062F10E0C8010196880F0E9415
:1024D000410683E00E944106CD2DDF2D0C0F1D1F0C
:1024E000C017D10789F0E7FE03C0FE01849101C047
:1024F00088810E944106F82E80E00E9441068F21CB
:1025000021968111EDCF01C081E0DF91CF911F9124
:102510000F91FF90EF90DF9008950F931F93CF934B
:10252000DF938C0181E090E00E94490E80FF32C071
:102530008AE090E00E94490E9FEF980F9E3F50F571
:1025400022E330E0D80150963C932E931F9728E366
:1025500030E052963C932E935197CBE0D0E0D801D7
:10256000ED91FC910190F081E02D682FC801099553
:10257000CE010E94490E2196C131D10581F780E03C
:102580000E94990C88EE93E0DF91CF911F910F91FB
:102590000C94460BDF91CF911F910F9108950497F2
:1025A0000C948D12E3ECF5E01382128288EE93E036
:1025B000A0E0B0E084839583A683B78387E191E0B0
:1025C000918380838FEF9FEF95878487E2E7F5E023
:1025D000138212821186128680E183871086178209
:1025E000158685E391E09183808383E491E0958370
:1025F0008483108A1786128A118A81E0838B148A59
:10260000858B168A128E118E29E231E0308F278B4E
:1026100022E731E0358F248F20E830E0378F268F96
:1026200020E430E031A320A395E092A781A715A272
:1026300014A217A216A213A212A280A7138EF4A7A7
:10264000E3A789E895E096A785A71092B305E4EB88
:10265000F5E080818E7F8D7F80831092B50510928A
:10266000B6050895F8940C947E13F999FECF92BDA7
:1026700081BDF89A992780B50895262FF999FECF44
:102680001FBA92BD81BD20BD0FB6F894FA9AF99A8F
:102690000FBE0196089581E090E0F8940C947E13AB
:1026A00097FB072E16F4009407D077FD09D00E94FF
:1026B000641307FC05D03EF4909581959F4F0895D3
:1026C000709561957F4F0895AA1BBB1B51E107C010
:1026D000AA1FBB1FA617B70710F0A61BB70B881FB2
:1026E000991F5A95A9F780959095BC01CD01089541
:1026F000EE0FFF1F0590F491E02D0994F894FFCFA1
:10270000FFFFFFFF00E100000000000000C180812A
:1027100000000000000000920B130CB30BA80BF993
:102720000BB70BD50B000000008105D80427062647
:102730000600000000490AD804270626068D12FC70
:10274000FF0000CF120A0A0A0A0A0A0A0A0A0A0A3B
:0E2750000A474F4F44204C55434B210A0000CE
:00000001FF
