:100000000C94CC0E0C94F40E0C94F40E0C94F40E90
:100010000C94F40E0C94F40E0C94F40E0C94F40E58
:100020000C94F40E0C94F40E0C94F40E0C94F40E48
:100030000C94F40E0C94F40E0C94F40E0C94F40E38
:100040000C94F40E0C94F40E0C94F40E0C94F40E28
:100050000C94F40E0C94F40E0C94F40E0C942E1BD1
:100060000C94F40E0C94F40E0C94F40E0C94F40E08
:100070000C94F40E0C94F40E0C94F40E0C94F40EF8
:100080000C94781B0C94F40E0C94F40E0C94F40E57
:100090000C94F40E0C94F40E0C94F40E0C94F40ED8
:1000A0000C94F40E0C94F40E0C94F40E0A415320AC
:1000B00054484520544F574E200A47524F57532C0F
:1000C0002053504143450A4245434F4D4553205626
:1000D0004552590A56414C5541424C452E0A4E4F05
:1000E0005720594F552043414E0A555047524144DD
:1000F0004520534F4D450A4F46205448450A425526
:10010000494C44494E47532E0A000A54414B45205E
:10011000534F4D450A5745454420534545445321C7
:100120000A000A4E4F5720594F552043414E0A505E
:100130004C414E5420594F55520A4F574E2043417F
:1001400043544149210A000A504C414E5420412059
:100150004645570A545245455320544F0A50524F72
:10016000564944450A534F4D452053484144450A9A
:10017000464F52205448450A4C4147554E49544930
:10018000414E53210A000A4556454E205448450A1F
:1001900042455354204F462055530A4D414B45206C
:1001A000534F4D450A4D495354414B45532E0A0A6E
:1001B0004E4F5720594F550A43414E2052454D4FFF
:1001C00056450A545245455320414E440A4255492A
:1001D0004C44494E47532E0A000A41532054484587
:1001E00020544F574E0A47524F57532C20544845DE
:1001F0000A434F535420464F520A494D504F5254D0
:10020000494E470A464F4F4420474554530A5052DF
:100210004F424C454D415449432E0A0A4255494CE0
:10022000442041204D494C4C0A544F2046454544FA
:10023000205448450A4C4147554E495449414E5374
:100240002E0A000A4255494C4420412042414E4B5F
:100250000A544F20494E435245415345200A474FC7
:100260004C442053544F524147450A42592035309F
:100270003030242E0A000A41205052494553540A76
:1002800050415353494E472042590A50524F504F04
:1002900053455320594F550A544F20454455434127
:1002A00054450A5448452050454F504C450A49464C
:1002B00020594F55204255494C440A4120534D4145
:1002C0004C4C0A43485552434820464F520A48492D
:1002D0004D2E0A000A5448452042414E4449545389
:1002E0000A434F554C4420534D454C4C0A594F55E9
:1002F00052204D4F4E45590A414E442054484559CD
:10030000204152450A434F4D494E4720544F0A4120
:10031000535341554C54205448450A42414E4B21B9
:100320000A4255494C44204120504F53540A464FED
:1003300052205448450A534845524946462E0A0021
:100340000A54484520474F4C440A46455645520AF0
:10035000524541434845440A4C4147554E49544152
:10036000210A0A4255494C4420410A4D494E452034
:10037000544F0A494E43524553450A544845204973
:100380004E434F4D452E0A000A54484520515541D1
:100390004C4954590A4F4620594F555220464F4F09
:1003A000440A49532052454E4F574E4544210A0AAC
:1003B0004255494C4420410A535441424C45205433
:1003C0004F0A4558504F5254205448450A455854F6
:1003D000524120464F4F442E0A000A5448452043BC
:1003E0004F57424F59530A415245204745545449AB
:1003F0004E470A524553544C4553532E0A0A425510
:10040000494C442041204E45570A53414C4F4F4ED2
:1004100020544F0A454E5445525441494E0A5448BF
:10042000454D20414E440A524149534520544845C8
:1004300049520A48415050494E4553532E0A000A2A
:100440004D4F52452050454F504C450A57494C4C52
:10045000204D4F56450A494E2C20494620544845C8
:100460000A484F55534553204152450A5345525669
:10047000494345440A574954482057415445522E50
:100480000A0A545259204255494C44494E470A538E
:100490004F4D452057415445520A544F57455253EA
:1004A0002E0A000A4255494C442041204641524DF3
:1004B0000A544F204749564520410A4A4F4220548A
:1004C0004F205448450A434954495A454E532E0A31
:1004D0000A4152524F572055500A544F2053574902
:1004E0005443480A4255494C44494E472E0A000A93
:1004F00057454C434F4D4520544F0A4C4147554EAC
:100500004954412C0A4120534D414C4C204C414B05
:10051000450A494E205448452057494C440A5749FA
:100520004C4420574553542E0A0A505245535320E9
:100530004120544F0A4255494C4420594F55520AC4
:10054000464952535420484F5553452E0A00000047
:1005500000000000000054524545532041524F55C1
:100560004E440A434855524348455320414E440A9D
:10057000484F55534553204D414B450A5448454D2E
:10058000204D4F52450A4154545241435449564517
:100590002E0A0049532043414354555345530A4FB3
:1005A000522043414354493F0A00504C414E544964
:1005B0004E470A5745454420495320410A47524572
:1005C0004154205741590A544F2050415920594F06
:1005D00055520A434F322051554F54412E0A00457F
:1005E00041434820535441424C450A414C4C4F57DB
:1005F0005320594F550A544F204558504F52540AD2
:100600004144444954494F4E414C0A45584345459D
:1006100044494E470A464F4F442E0A0A505245530A
:1006200053204220544F0A434845434B20594F55CD
:10063000520A4558504F5254532E0A0045414348E0
:100640002042414E4B0A494E435245415345530ABD
:10065000544845204D4158494D554D0A4D4F4E4542
:100660005920594F550A43414E2053544F52452C5F
:100670000A42555420544845590A41545452414362
:1006800054204D4F52450A544849455645532E0A69
:100690000052454D454D42455220544F0A4348456E
:1006A000434B205448450A535441544953544943F9
:1006B000530A544F204B4E4F57205748454E0A532C
:1006C00041464554592044524F50530A4C4F5721EC
:1006D0000A0043485552434853204B4545500A4C65
:1006E0004147554E495441530A544F474554484594
:1006F000522C0A425554205448450A434C4552490D
:10070000435320444F0A4E4F54204C494B450A5402
:100710004F2042452041524F554E440A4F544845C0
:1007200052204E4F4953590A4255494C44494E476D
:10073000532E0A004D494E4553204152450A475217
:1007400045415420544F0A494E4352454153452098
:100750005448450A415641494C41424C450A4A4F8A
:10076000425320414E44205448450A494E434F4D80
:10077000452C204255540A54484559204D41590AA8
:1007800048555254205448450A454E5649524F4EFA
:100790004D454E542E0A004D494C4C53205245466F
:1007A000494E450A53454544532046524F4D0A4E43
:1007B0004541524259204641524D530A494E544FE9
:1007C00020464C4F5745522C0A534F205448455908
:1007D000204152450A5155495445204D4F52450A32
:1007E0004546464543544956450A5748454E2050CC
:1007F0004C414345440A4E454152204641524D53D7
:100800002E0A00574F524B455253204152450A4140
:100810004C4C4F43415445440A544F204641524D9D
:10082000530A46495253542E0A0053414C4F4F4EDF
:10083000530A494E435245415345205448450A48BE
:10084000415050494E4553204F460A4C4147554E62
:10085000495449414E532E0A0A505245535320548D
:10086000484520420A425554544F4E20544F0A43A3
:100870004845434B205448450A5354415449535426
:1008800049430A5245504F5254210A00574154459A
:100890005220544F574552530A43414E2048454C2D
:1008A000500A49525249474154494E470A54484513
:1008B000204649454C44530A494E204E4541524238
:1008C000590A4641524D532041530A57454C4C2E2C
:1008D0000A00484F55534553204152450A4E45435F
:1008E00045535341525920544F0A494E43524541B2
:1008F0005345205448450A504F50554C4154494F98
:100900004E2E0A0A484F55534553204E4541520A30
:1009100056454745544154494F4E0A41545452415B
:100920004354204D4F52450A50454F504C452E0AD6
:100930000052454D454D42455220544F0A434845CB
:10094000434B2053544154530A544F2053454520A0
:10095000484F570A555047524144494E470A42555D
:10096000494C44494E47530A414C54455253205434
:1009700048454D2E0A00004E4F5720594F552043F1
:10098000414E0A434C45415220414E590A54595058
:1009900045204F460A56454745544154494F4E0A53
:1009A000414E4420414E5920545950450A4F46204B
:1009B0004255494C44494E472E0A00C0A0502814C5
:1009C0008AFD8A142850A0C0001038E0700012245C
:1009D000C8D4E09844600000000000FF0078487828
:1009E00003030378487800FF0A0E0A3F0ACE8A0EF6
:1009F0001EFFFFE4C2800000000000FF8080FC8238
:100A000082FC80FE92FE80FF88F888F889FF88F8D3
:100A100088FB8BF889FB8FFE8CF80000000000003B
:100A200000000080C0A05028140AFF0A142850A01B
:100A3000C08000000000000000000080C0E0A0F0C6
:100A400090F888FF80FF80809C9C9F9C9C8080FF0A
:100A500080FF88F890F0A0E0C08000FF80F8F88068
:100A6000E0E080FF99E799FF8080808080FF99E730
:100A700099FFA0A0A0A0A0A0A0FF00000000C0407F
:100A8000C040C078C442C242C478C040C040C00028
:100A9000000000FC141C171C171C177C47545754EB
:100AA000477C171C171C171C14FC00FF809F91919A
:100AB000919F80FCAAA9FFA9AAFC8080808F898FC2
:100AC00080FF00C0B0ACABACB0C0000000000000C4
:100AD0000000000000000000000000FF00043E04D1
:100AE00000FF808080808080808080808080808007
:100AF000800000FF80FC82FC80FF829B829B829BA7
:100B0000829B829B829B829B82FF00FE25160EA504
:100B100076A605A676A50E1625FE00FF80FE82FEAF
:100B200082FE80BEA2BEA2BE80FF00FE915E3E118C
:100B30001E1E111E1E113E5E91FE00FF808F8F80D3
:100B4000FFA9A9A9FF808F8F80FF000498F33FF3CE
:100B500098040004EEFBCFFBEE0400008CFBEFFBDF
:100B60008C0000000C1933667CF9FFFE703C3E33AC
:100B700019180C000000000080C3FFFFBC0000003B
:100B80000000000C1830FFFF0C0603082952FE4934
:100B900025100080C0E0A0F090F888FC84FE82FF61
:100BA000C7AB93ABC7FF82FE84FC88F890F0A0E04F
:100BB000C08000FF80F8F880E0E080FF99E799FFAF
:100BC0008080808080FF99E799FFA0A0A0A0A0A0CE
:100BD000A0FF0000002050885020002050885020A6
:100BE00000000030FF160E0546A615A646050E1697
:100BF000FF300000FF808C8C80FC85FC808C8C801A
:100C0000FF0000FE25160E0506A675A606050E16A3
:100C100025FE00FF80FE82FE82FE80BEA2BEA2BE36
:100C200080FF00C0B0ACABACB0C080808080808062
:100C30008080808080808080800000FF80FC82FC3B
:100C400080FF829B829B829B829B829B829B829B5A
:100C500082FF0000000080601C030C9060100C03F9
:100C60000404083844821CE0000000C0300C03C0BB
:100C7000201C02050890E00000F008F0000F30474B
:100C80009820C0000102020302020202010080C19A
:100C9000A1B9AFB9A1C1820201010024A870FC7002
:100CA000A824000100F0AFF0000100F04F241B2445
:100CB0004FF000E0A05028140A050A142850A0E0C4
:100CC000A0E0A0E0A0E0A0E0A0E0A0E0C0800000E4
:100CD000000000FF8080FC8282FC809E929E80FF4C
:100CE00088F888F888F888F888F888F889FB8FFEF3
:100CF0008CF800FC141C171D171D177D4755575500
:100D0000477D171D171D171C14FC00FF809F919134
:100D1000919F80FCAAA9FFA9AAFC8080808F898F5F
:100D200080FF00FFC1FF417FC1FF0000FF88552207
:100D3000FF000000FF885522FF0000008040A05007
:100D400028140A0A142F5FA040800000FF818C8CB9
:100D500080FEA9A9FE808C8C81FF000000000000AD
:100D600000000000B00000A170E150964F26900FE7
:100D70001D070C009669004AE44A00484440008080
:100D80006810000F99FB8F9DBDBBFB77D4D4DF1F8C
:100D90001A1AFE7F5D5DFF805A0000A0A4AA001011
:100DA000BA3400FF5953F3FF9B9B9EFFB9B996FFDE
:100DB0009595D19FF4940FFC295F91FF1838F8FFA7
:100DC0009294FFFF95D5F7BFB5DDD7F18F81F1F78D
:100DD00088C8F779C6467909FD9B090196F8008213
:100DE000818280507162007756560076763700A275
:100DF000B7730107720600782750007334740077C8
:100E00005176007F55F7004771100032477200732A
:100E100064730015A2750061679400009F6060F420
:100E2000F2F6F2000088001001990121023203421B
:100E300004000049005200570062006E00830093D6
:100E400000A500AF00C400DC00F700060126014A3F
:100E5000015D018801B801EE010B024B029302D53E
:100E6000F08D14A1C881CFD9F1AF2000253964508D
:100E7000002539642400102C4AA0895224180C182B
:100E8000A04A49C97A0430449261894624180C73F7
:100E90008946A2965C2008748629518A6418205CD1
:100EA00092A24A275106182446E9924A242006397C
:100EB000494A6290C83010307FFF7F3010002040D8
:100EC000208000401080FFFC308448800EFFFFFC33
:100ED000300890400EFFFFFC300122400EFF000062
:100EE000000000000000F0487C247C48F000000076
:100EF000D23F579200000000D27FA70200000000FE
:100F000022FFA70200000000D27FA702000060308D
:100F100010387CBC5C9C1C5C7F3F26204000301855
:100F200088783CFC1C1C1C3C5E9F27460000301847
:100F300088783C3C1C1C1CDC3E1F2746800060302F
:100F400010387CBC5C1C9C5CBF7F0600000000006D
:100F50000B0E1C780E040000101C78101C080000FA
:100F60002030302038100000101C78101C083C2D58
:100F70000050524553532054484520555020414E6F
:100F80004420444F574E0A4152524F575320544F1A
:100F9000204348414E4745205448450A4355525244
:100FA000454E544C592053454C45435445442041EB
:100FB0004354494F4E0A4F52204255494C44494EE2
:100FC000472E0A0A5052455353204120544F204483
:100FD0004F2054484520414354494F4E0A4F522018
:100FE0004255494C4420544845204255494C4449B7
:100FF0004E472E0A0A5052455353204220544F2048
:10100000434845434B205448450A5354415449539F
:10101000544943532E0A003C2D002D3E00534F4DA2
:1010200045204F4620544845204255494C44494E9E
:1010300047530A4841564520412052414E474520DA
:101040004F4620414354494F4E2E0A574154455272
:1010500020544F574552533A2031362054494C457D
:10106000532E0A56454745544154494F4E3A20386D
:101070002054494C45532E0A544F54454D533A2061
:10108000382054494C45532E0A4D494C4C3A203196
:10109000302054494C45532E0A003C2D002D3E0073
:1010A000594F552043414E204D4F56452041524FF8
:1010B000554E44205448450A4C4556454C20574906
:1010C000544820544845204C45465420414E440A3B
:1010D0005249474854204152524F57532E204C4FAB
:1010E0004E472050524553530A464F5220464153D3
:1010F00054205343524F4C4C494E472E0A444F55AF
:10110000424C4520434C49434B20544F204D4F56B1
:101110004520544F0A4E45585420415641494C41B0
:10112000424C452053504F5420544F0A4255494C8D
:1011300044205448452043555252454E544C590A78
:1011400053454C4543544544204255494C44494E2F
:10115000472E0A505245535320424F5448204C4585
:10116000465420414E442052494748540A544F2087
:10117000524543454E5445522E0A003C2D002D3E0B
:101180000054484520474F414C204F462054484585
:101190002047414D452049530A544F205245414371
:1011A0004820544845204D4158494D554D0A504F0F
:1011B00050554C4154494F4E2057495448205448AB
:1011C0004520474956454E0A53504143452E0A0A89
:1011D000504F50554C4154494F4E2043414E275497
:1011E0002047524F572049460A53544154532041F7
:1011F0005245204C4F573A20434845434B205448D2
:10120000454D0A5052455353494E472042205748B6
:10121000494C4520504C4159494E470A414E4420C3
:101220004B454550205448454D20554E4445520AA3
:10123000434F4E54524F4C2E0A002D3E004255490A
:101240004C4420412057494C442057455354205486
:101250004F574E0A4F4E205448452053484F524551
:10126000204F46204C414B450A4C4147554E49546E
:10127000412057495448204153204D414E590A437B
:101280004954495A454E5320415320504F535349D6
:10129000424C452E0A0A494E43524541534520547B
:1012A000484520504F50554C4154494F4E0A544FD9
:1012B000204B45455020554E4C4F434B494E4720FF
:1012C0004E45570A4255494C44494E47532E0A0A47
:1012D00050524553532042204F4E20544845204DF4
:1012E00041494E204D454E550A544F205245464CDB
:1012F00041534820594F55522041524455424F596D
:101300000A000A47414D452044455349474E0A09C2
:1013100052454E41544F2047524F54544553490A69
:101320000A50524F4752414D4D494E470A095245C6
:101330004E41544F2047524F54544553490A094790
:1013400055555320534C494550454E0A0A4D555367
:1013500049430A094A4F414B494D2053494D4F4E8D
:1013600053534F4E0A000A594F552050524553537C
:1013700045440A544845204220425554544F4E2E6D
:101380000A0A5052455353204220544F0A524554A2
:1013900055524E20544F205448450A4D41494E2045
:1013A0004D454E552E0A0A505245535320444F572F
:1013B0004E2049460A594F552057414E5420544F0C
:1013C0000A5245464C41534820594F55520A415202
:1013D0004455424F592E0A0047414D45205341562E
:1013E000454421000A554E464F5254554E415445EE
:1013F0004C590A594F552052554E204F55540A4FBB
:1014000046204D4F4E45592E0A0A52454D454D42F4
:10141000455220544F0A434845434B205448450AFF
:10142000535441544953544943530A5748494C452E
:1014300020504C4159494E47210A0A5452592041E3
:101440004741494E210A0078487878783030004D7D
:1014500055544544004D555349430048454C5000B0
:1014600041424F55540053415645004C4F414400B2
:10147000504C415900524553554D4500102C4AA03F
:10148000895224180C18A04A49C97A043044926140
:10149000894624180C738946A2965C200874862914
:1014A000518A6418205C92A24A275106182446E902
:1014B000924A24200639494A6290C8300C1830FFFD
:1014C000FF0C0603504F502E0006060C0C0C0C0CA3
:1014D00018181838F0E08000000000001C3C706014
:1014E000E0C0C0E0783F0F000001C3FFFEFFC30172
:1014F000000000000000C0C0E3FF7F1EFFFFFFE30D
:10150000C000C0F0FCFEFF0703C3C7CF9FDEC003CF
:10151000C7FFFEFFC70300C3FFFEFEC7030001C3F2
:10152000FFFFFFFFF8E0C103FFFFFFC3010003C39C
:10153000FFFEFEFFC303001F0F06C3FFFEFEFFC337
:1015400003060F1F00C0C0E3FF7F1EFFFFFFE3C0C5
:10155000000040E0FF7F7F78F0F070381CCCE07E28
:101560007FFFC70E0EC7FFFF7F7EE0C00F1F3F7FCC
:1015700070E0E0F07F7F3F0000001F3F7FF0E0E081
:10158000F07F3F1F000000C0E0FF7FFFE0C10FFFC2
:10159000FF7F7FFFE0C000C0E07F7F7F7FE0C00073
:1015A0000000C0E0FF7F7FFFE0C00000C0E07E7F62
:1015B000FFC70E0EC7FFFF7F7EE0C0EF04A3043F0E
:1015C00004DA0388034003D40276024302D9018679
:1015D00001470122010A01AC00030604050C080AB8
:1015E000090B07000F0E0D0201030604050C080A83
:1015F000090B0101010101000001000A000F0014A4
:10160000001E00320041004B0064009600C800FA42
:10161000002C01AF00770976093109D2088C082A1D
:1016200008030897073407D20691063C06DF05AA8F
:1016300005930556055505540553055205510550AA
:10164000054F054E050A5448455245204152454E26
:1016500027540A454E4F5547482054524545530A92
:10166000414E4420504C414E54530A544F20535441
:101670004142494C495A450A5448452047524F5522
:101680004E442E0A41204C414E44534C4944450A95
:1016900044455354524F5945440A534F4D45204FEA
:1016A0004620594F55520A4255494C44494E4753DA
:1016B0002E000A4C4147554E495449414E530A4C5D
:1016C0004F5645204C4956494E470A494E20594FDE
:1016D000555220544F574E0A414E442054484559C4
:1016E0000A4E455645522046454C540A4153205512
:1016F0004E49544544210A000A2534642050454F80
:10170000504C450A4C4F53542046414954480A49CD
:101710004E204C4147554E4954410A414E442044C5
:101720004543494445440A544F20464F554E440AC8
:101730005448454952204F574E0A544F574E2E0A8F
:101740004255494C44204D4F52450A434855524357
:1017500048455320544F0A52495345204641495465
:1017600048210A000A5448452053484552494646F4
:101770000A4D414E4147454420544F0A5052455668
:10178000454E5420410A42414E44204F460A4241B0
:101790004E444954532046524F4D0A535445414CF0
:1017A000494E470A594F5552204D4F4E4559210039
:1017B0000A594F5520484156450A4245454E205248
:1017C0004F42424544210A0A54484520544849455D
:1017D0005645530A53544F4C4520253464240A0A75
:1017E0004255494C44204D4F52450A5348455249B1
:1017F00046460A504F535453210A000A484F555346
:10180000494E4720444159530A2537642535640A17
:101810004A4F4253092020464F4F440A253464253D
:1018200038640A204D41494E54454E414E43450AC5
:1018300025386420242F730A094541524E494E47EA
:10184000530A25386420242F730A094558504F52F3
:1018500054530A25386420242F73000A48415050FD
:10186000494E4553530A2534642025250A534146E1
:101870004554590A2534642025250A5350495249B4
:101880005455414C4954590A2534642025250A45AC
:101890004E5649524F4E4D454E540A25346420252C
:1018A000250A000A594F552043414E4E4F540A42D3
:1018B00055494C44204F56455220410A4255494C07
:1018C00044494E472E000A594F552043414E4E4F32
:1018D000540A4255494C44204F56455220410A541F
:1018E0005245452E000A594F5520484156450A4E4B
:1018F0004F5420454E4F5547480A4D4F4E455920AD
:10190000544F0A555047524144452E000A594F55ED
:1019100020484156450A4E4F5420454E4F554748A2
:101920000A4D4F4E455920544F0A4255494C442EBA
:10193000002F602F602F60502F202F602E604EA050
:101940002D602D602D6050408F804EA02F602F6045
:101950002F60502F202F602E604EA02D602D602D07
:101960006050408F804EA02D604D4C8B8DAC4AC88E
:101970002D604D4C8B8DAC4AC84780478B89C8C0C1
:101980004980498D8BCCA02D2E4F26204F26204FED
:101990002620502F204F24204E24204E2460242027
:1019A0004D23204D23204D23205023204F246024FD
:1019B000204E246024204F26204F26204F262050E2
:1019C0002F204F24204E24204E246024204D2320FD
:1019D0004D23204D23205023204F246024204E24CB
:1019E0006024202D2025204D4C4B25204D25204CBA
:1019F00022604A48226022202D2025204D4C4B2574
:101A0000204D25204C22604A482260222047216038
:101A1000474B212049414822602260226022204910
:101A20002360494D23204B23204C246024602460F4
:101A30002D2E2F602F602F60502F202F602E604E94
:101A4000A04D23204D23204D23205023204F2460E0
:101A500024204E246024202F602F602F60502F20E0
:101A60002F602E604EA04D23204D23204D2320506B
:101A700023204F246024204E246024202D20252064
:101A80004D4C4B25204D25204C22604A4822602297
:101A9000202D2025204D4C4B25204D25204C22600B
:101AA0004A4822602220472160474B212049414873
:101AB0002260226022602220492360494D23204B6E
:101AC00023204C2460246024602D2E2F602F602F53
:101AD00060502F202F602E604EA02D602D602D6055
:101AE00050408F804EA02F602F602F60502F202FEE
:101AF000602E604EA02D602D602D6050408F804E76
:101B0000A04B4F4D4B4B4F4D4B484E4D4C484C4BC3
:101B10004A494D4C4B494D4C4B4A4B4C4E4A4D4E0D
:101B20004F4B4F4D4B4B4F4D4B484E4D4C484C4BF4
:101B30004A49545352495453524A5152534A5455A4
:101B400056464E4F51464E4F51444D4E51444D4EC8
:101B500051434D4E4F43504F4E444E4D4C444A4BD3
:101B60004C464E4F51464E4F51444D4E51444D4EB2
:101B700051434F5052434F50524452535444535187
:101B80004E454B4C4D454B4C4D42484B4C42484BBF
:101B90004C454B4C4D454B4C4D42484B4C42484BB1
:101BA0004C4147494B4147494B42484A4C42484ABD
:101BB0004C43494B4D43494B4D444A4C4E444E4F88
:101BC0005000000000008800000088002200AA00E9
:101BD0002200AA00AA00AA44AA00AA44AA11AA554F
:101BE000AA11AA55AA55434C4541520000005B0D6D
:101BF0000032000101000000504155534500000033
:101C00005B0D0000000101000000555047524144A7
:101C100045005B0D0000000101000000484F5553D6
:101C2000450000003B0D0064000202010011574115
:101C3000544552000000230D00FA0001030001008A
:101C400053414C4F4F4E0000F30C08F401030200C7
:101C500001154641524D00000000B30C08F4010488
:101C600002000A174D494C4C000000009B0C01EE8D
:101C70000201030001004D494E4500000000530CD5
:101C80001ED0070303001E0043485552434800007E
:101C9000230C01D007030202001453484552494661
:101CA0004600030C02DC05020202001342414E4BC7
:101CB00000000000E30B04C40902020500125354A3
:101CC00041424C450000930B02DC0504020400165F
:101CD00057454544000000008B0B000A000101003D
:101CE00000004341435455530000830B000F000193
:101CF000010000005452454500000000630B001E27
:101D000000020200000054544D00000000004B0B84
:101D100000000001030000004853320000000000F2
:101D20002B0B01FA000202010000424E4B32000070
:101D30000000D30B078813020305000053524646E8
:101D4000320000000B0B02B80B02020200004352EB
:101D5000433200000000C30A02DC05030302000056
:101D6000534C4E32000000007B0A12E803030300CC
:101D700005005354424C320000001B0A05E80304DE
:101D80000304000046524D3200000000BB0912E877
:101D9000030403001400D11B11241FBECFEFDAE0AF
:101DA000DEBFCDBF11E0A0E0B1E0E0E5FEE602C09D
:101DB00005900D92A032B107D9F728E0A0E2B1E07A
:101DC00001C01D92AB3CB207E1F71EE0CCECDEE0B7
:101DD00004C02197FE010E941937CB3CD107C9F7F7
:101DE0000E94A91C0C9481330C940000DF92EF92A6
:101DF000FF920F931F93CF93DF93782FC091CA0563
:101E0000D091CB0527968E01117030E020E042E1A1
:101E1000D42E7801E21AF30A81E0F822D701AE58F5
:101E2000BA4FFD01E35AFF4F90819F71492F50E057
:101E30009D9DF0011124ED50F44EE491EE0DFF2D27
:101E4000F11D0C3F81E0180730F47F0181E0F8229A
:101E50000E151F0518F0CE17DF0788F4892F992378
:101E600071F093EF980F711111C0923040F0DF9133
:101E7000CF911F910F91FF90EF90DF9008952F5F0A
:101E80003F4F2430310529F680E0F1CF440F551F34
:101E9000435C5A4FFA01E35AFF4F2081425A5F4F89
:101EA000EA019881392F33702115310551F0215005
:101EB0003C4F33702083232F237091819C7F922B82
:101EC0009183A35ABF4F6F716C93D1CF2091CA05F4
:101ED0003091CB05295F3F4F3170E091270882E1B7
:101EE000E89FF0011124ED50F44E50E040E0849161
:101EF0008417150691F088F0D901A40FB51FB170B1
:101F0000A153BA4F8C918F7193EF980F923010F0CC
:101F1000811107C04F5F5F4FEACF60E080E00C9413
:101F2000F60E08950F931F93CF93DF930091CA0588
:101F30001091CB05C82F880FDD0B809127088111E8
:101F400008C084E08093CC05DF91CF911F910F9161
:101F500008950E94660F8823A1F32091CA0530914D
:101F6000CB052C0F3D1F31703093CB052093CA0554
:101F70000217130711F7E8CF2F923F924F925F920B
:101F80006F927F928F929F92AF92BF92CF92DF9289
:101F9000EF92FF920F931F93CF93DF93CDB7DEB7EE
:101FA0002B970FB6F894DEBF0FBECDBF9C0180917A
:101FB000CD0541E0811101C04FEF8091CA0590919C
:101FC000CB05B3E0880F991FBA95E1F75091CC0586
:101FD000459F402D1124841B910947FD93958C0149
:101FE00097FF02C0015F1F4FF4E015950795FA9522
:101FF000E1F791958195910960E170E00E940537C4
:102000007C0140E1E41AF108A901A5E05695479545
:10201000AA95E1F7498327EA47FD26EA5C982EBD99
:1020200000000DB407FEFDCF5C9A4F774C3008F0EE
:10203000C2C028E0241B422F9C01205F3B4F3B8302
:102040002A83E0E46E2E712CC801B3010E9405378B
:10205000FC01FC5F2491822F90E064E095958795C8
:102060006A95E1F78E0D9F1D9F838E832F7030E060
:10207000245F3F4F0F5F1F4F90E1E90EF11CC80135
:10208000B3010E940537FC01FC5FE4918E2F90E0C4
:1020900074E0959587957A95E1F74C018E0C9F1C1D
:1020A000EF70F0E03C96B4012E803F806219730916
:1020B000DF01A21BB30BB7FF03C0B195A195B10916
:1020C000CB0177FD01969595879551E02E173F0737
:1020D0000CF05FEFA52E550FBB08BD82AC822E80A1
:1020E0003F80281439040CF087C037FC54C0F1013C
:1020F000E038F1050CF080C06901F7E0CF22DD2463
:10210000E8E0F0E0EC19FD0922242A94312C02C009
:1021100035942794EA95E2F72A862224239401C075
:10212000220CCA94EAF72B86EE81FF81E95CFE4F10
:102130006F01B12CA12C50E0EE81E3704E2E512C9A
:102140002A153B05FCF0F501389629802E173F072C
:102150000CF03BC0E52F27FEE195FE2FF40FF93080
:1021600084F1F8E0E4E0FE0210011124F101E40D35
:10217000F51DEE53F44EE4913A843E222B8423283D
:10218000F60120825F5FF8E0AF0EB11CE0E8CE0EF2
:10219000D11C5430A9F68A1B9B0B97FF06C02C80DC
:1021A0003D80220D331D860F971FEE81FF813196F2
:1021B000FF83EE8394CF453710F047573DCF40EC77
:1021C0003BCFF7FFCFCFF0E0CDCFE52F27FEE19556
:1021D000FE2FF40FF93064F0F8E0E4E0FE021001A5
:1021E0001124F101E40DF51DEE53F44E2490C8CFF7
:1021F000F7FFF3CFF0E0F1CF2A803B80E214F30445
:1022000009F022CF2B960FB6F894DEBF0FBECDBFDC
:10221000DF91CF911F910F91FF90EF90DF90CF90C2
:10222000BF90AF909F908F907F906F905F904F90F6
:102230003F902F9008956034710590F5480F592F05
:10224000511D1416150664F5803891054CF597FF5D
:1022500002C090E080E04138510514F040E850E0C1
:10226000481BFB01E770FF2721E001C0220FEA9520
:10227000EAF7FB0133E0F595E7953A95E1F7F69536
:10228000FE2FEE27F795E795E80FF91FE95CFE4F63
:10229000415030F08191DF011197822B8C93F8CF60
:1022A00008952F923F924F925F926F927F928F92FA
:1022B0009F92AF92BF92CF92DF92EF92FF920F93D5
:1022C0001F93CF93DF93CDB7DEB728970FB6F8945F
:1022D000DEBF0FBECDBF30E0F901E80FF91FF7FDFB
:1022E00082C0803891050CF07EC07B01E7E0EE22D1
:1022F000FF24069506950695402E512CDA01E3E061
:1023000075956795EA95E1F77695762F6627779527
:102310006795680F791F1E821D82B12CA12CAB011D
:10232000495C5E4F1A01AB0149545E4F5A834983A1
:1023300048E050E0BA016E197F097C836B836D80A1
:102340007E80620C731C89809A804D815E81840E30
:10235000951E8C0150E040E017FD29C0BD01640FBF
:10236000751F78876F83FB0164916301C40ED51ECE
:102370000E2C01C0660F0A94EAF7F6017081672BF4
:102380006083E114F10499F0EF81F885D490B401F1
:10239000640F751FED2DF0E06F010B8002C0D59426
:1023A000C7940A94E2F7FB01D080CD28C0824F5F2A
:1023B0005F4F0F5F1F4F421753071CF40038110582
:1023C00059F6A5014F5F5F4FA20FB31F6D817E814C
:1023D00060587F4F7E836D83AA24A394B12C44154B
:1023E00055050CF4ACCF28960FB6F894DEBF0FBE9F
:1023F000CDBFDF91CF911F910F91FF90EF90DF90B4
:10240000CF90BF90AF909F908F907F906F905F9094
:102410004F903F902F900895E7E3F1E0A0E0B8E0FF
:1024200000800EBC8111012C1197A0FDFDCF0192FF
:10243000B9F70DB4089590914205982329F490912D
:102440004105982381E009F480E008953FB7F894AE
:102450008091330190913401A0913501B091360102
:1024600026B5A89B05C02F3F19F00196A11DB11DEF
:102470003FBFBA2FA92F982F8827BC01CD01620F2B
:10248000711D811D911D42E0660F771F881F991FE6
:102490004A95D1F7089580389105B8F460347105F4
:1024A000A0F420E191E061FD94E060FD990F62FDF0
:1024B0009295687F269FD0011124A80FA95CBE4F7A
:1024C0008C91442319F0892B8C930895909589233E
:1024D000FBCF2F923F924F925F926F927F928F929B
:1024E0009F92AF92BF92CF92DF92EF92FF920F93A3
:1024F0001F93CF93DF937C014B01C42FD0E081E089
:1025000090E06C01CC1ADD0AAA24BB24AC1ABD0AE7
:10251000AA0CBB1C66246394712C10E000E0822F8F
:102520008470582E822F8270482E822F8870382E09
:102530002170222ED7FC06C0219782E0A80EB11C84
:10254000CA0CDB1C0F5F1F4F82E0680E711CC60CAB
:10255000D71C552091F041E0BE01680D791DC701DF
:10256000800F911F0E944B1241E0B401600F711F58
:10257000CE018E0D9F1D0E944B12442091F041E030
:10258000B4016C1B7D0BC701800F911F0E944B1281
:1025900041E0B401601B710BCE018E0D9F1D0E94A6
:1025A0004B12332091F041E0B401600F711FC7015D
:1025B0008C1B9D0B0E944B1241E0BE01680D791DE2
:1025C000C701801B910B0E944B12222091F041E029
:1025D000B401601B710BC7018C1B9D0B0E944B1239
:1025E00041E0B4016C1B7D0BC701801B910B0E9465
:1025F0004B120C171D070CF49DCFDF91CF911F914B
:102600000F91FF90EF90DF90CF90BF90AF909F9091
:102610008F907F906F905F904F903F902F90089594
:10262000DF92EF92FF920F931F93CF93DF937C0182
:10263000D22E8B01040F111DEB0177FF02C0D0E0F9
:10264000C0E0C8010134110514F080E490E0C8171F
:10265000D9073CF44D2DBE01C7010E944B122196B3
:10266000F0CFDF91CF911F910F91FF90EF90DF900E
:1026700008955F926F927F928F929F92AF92BF92D6
:10268000CF92DF92EF92FF920F931F93CF93DF933E
:10269000EB016A01122FFE2CFF0C522E5F186E2CDC
:1026A000712C4301860E971E452DB601C4010E9470
:1026B0001B115601A00EB11CB50161507109452DC9
:1026C000C4010E941B110F19C60CD71C21E0402F1A
:1026D000B601CE010E941013C10FD11D21E0402F81
:1026E000B601CE0101970E94101321E04E2DB601D4
:1026F000C4010E946912C619D709219722E04E2D04
:10270000B601CE010E946912850106191709015010
:10271000110924E04E2DB801CE010E94691228E073
:102720004E2DB801C401DF91CF911F910F91FF9001
:10273000EF90DF90CF90BF90AF909F908F907F9061
:102740006F905F900C9469122F923F924F925F921C
:102750006F927F928F929F92AF92BF92CF92DF92B1
:10276000EF92FF920F931F93CF93DF9300D000D08F
:10277000CDB7DEB75B012A010A83822F90E09C83EC
:102780008B8301E010E0081B190B1C01319421948C
:102790003108220C331C88248394912CD12CC12C19
:1027A00091E09E0D998317FD0AC08B819C81019752
:1027B0009C838B8392E0290E311C020D131DEFEFD9
:1027C000CE1ADE0AF2E08F0E911C080D191D4B8106
:1027D000440FB2018B819C81681B790BFE2CF80C95
:1027E00032016C187D089A81913069F5E9814E0FAC
:1027F00020E0C5018C0D9D1D0E94101320E04F2D7F
:10280000B3018B819C818A0D9B1D0E941013EB816B
:10281000FC81CE16DF063CF20F900F900F900F90C8
:10282000DF91CF911F910F91FF90EF90DF90CF90AC
:10283000BF90AF909F908F907F906F905F904F90E0
:102840003F902F900895F9814F0F20E0C5018C191A
:102850009D090E94101320E04F2DB301C501EB81AB
:10286000FC818E1B9F0BD1CF2F923F924F925F9294
:102870006F927F928F929F92AF92BF92CF92DF9290
:10288000EF92FF920F931F93CF93DF9300D01F928D
:10289000CDB7DEB74C011B016A0129831E2D8E2D99
:1028A000880F422E481AF12C5701A60EB71E35018B
:1028B0004A0C5B2C511C6414750454F420E0402F26
:1028C000B601C3010E9410132FEF621A720AF3CFF0
:1028D000802F90E09B838A83C701880F991F2A81EC
:1028E0003B81281B390B215031093B832A83CE0CB5
:1028F000DF1CB1013981630F711D6E197F096150B1
:102900007109EA80FB8001E0212FA601C4010E9429
:10291000A413EA80FB8002E0212FA601B501C401C7
:102920000E94A4130F900F900F90DF91CF911F91F1
:102930000F91FF90EF90DF90CF90BF90AF909F905E
:102940008F907F906F905F904F903F902F90089561
:10295000EF92FF920F931F93CF93DF93EC0141E02F
:1029600065E070E00E944B1241E063E070E0CE0150
:102970000E944B127E018FEFE81AF80A41E064E0F2
:1029800070E0C7010E944B128E010150110941E015
:1029900064E070E0C8010E944B1241E064E070E026
:1029A000C7010E944B1241E064E070E0C8010E9440
:1029B0004B1241E064E070E0C7010E944B1241E01D
:1029C00064E070E0C8010E944B1241E065E070E0F5
:1029D000CE010E944B1241E065E070E0CE010E9402
:1029E0004B1241E063E070E0CE010E944B1241E0E7
:1029F00063E070E0CE01DF91CF911F910F91FF90C6
:102A0000EF900C944B120895F89487E78093000898
:102A100080930108A89588E18093600088E0809306
:102A20006000FFCF8F929F92AF92BF92CF92DF92C2
:102A3000EF92FF926C01F12CE12C0E9426124B01C7
:102A40005C010E942612681979098A099B09683E6F
:102A5000734081059105A8F321E0C21AD108E1086D
:102A6000F10888EE880E83E0981EA11CB11CC114E9
:102A7000D104E104F10429F7FF90EF90DF90CF90AB
:102A8000BF90AF909F908F9008958FB18095807F79
:102A9000669B88601C9B8460089580912D01089539
:102AA00010922D013E983F9808953E9A3F9A81E0FA
:102AB00080932D010895EF92FF920F931F93CF9370
:102AC000DF938C017B01D0E0C0E0F701EC0FFD1F2C
:102AD0006491662361F0D801ED91FC910190F08141
:102AE000E02DC8010995892B11F02196EECFCE017A
:102AF000DF91CF911F910F91FF90EF900895AF92CA
:102B0000BF92CF92DF92EF92FF920F931F93CF93DA
:102B1000DF936C017B018B01040F151FEB015E013C
:102B2000AE18BF08C017D10759F06991D601ED91D1
:102B3000FC910190F081E02DC6010995892B79F770
:102B4000C501DF91CF911F910F91FF90EF90DF9022
:102B5000CF90BF90AF900895260F372F311D37FDCE
:102B600014C0603871058CF44034510574F4FC01D4
:102B700042814617170609F034F4938181E09217D9
:102B8000130609F00CF480E0089581E008956F9237
:102B90007F928F929F92AF92BF92CF92DF92EF92ED
:102BA000FF920F931F93CF93DF937C01EB015A01A8
:102BB0006901102F08E0212F0E94AC15811155C02A
:102BC000950127703327A50183E0559547958A9590
:102BD000E1F75695542F4427579547954A0180E8C9
:102BE000880E911CCE01012F10E0CC1ADD0A68E09E
:102BF00070E03B01621A730ABC016C1B7D0B60170D
:102C000071079CF58038910584F597FF02C0019605
:102C1000F3CFF601E80FF91F6491D701AD90BC9096
:102C2000DA01A80FB91FAA0DBB1D022E01C0660F45
:102C30000A94EAF77C91672B6C932115310539F3DF
:102C4000B490F701A081B181B401680F791FA60F7C
:102C5000B71FEB2DF0E0062C02C0F595E7950A941E
:102C6000E2F76C91E62BEC93D2CFDF91CF911F91DD
:102C70000F91FF90EF90DF90CF90BF90AF909F901B
:102C80008F907F906F9008956F927F928F929F9216
:102C9000AF92BF92CF92DF92EF92FF920F931F936A
:102CA000CF93DF936C01EB014A015901102FEE2005
:102CB00009F46EC008E0212F0E94AC1581112CC0D0
:102CC000940127703327A40183E0559547958A9591
:102CD000E1F75695542F4427579547954A018C0E96
:102CE0009D1E40585F4F4C0F5D1F90E080E0012F0C
:102CF00010E0B80161507109A60EB71E68E070E0DF
:102D00003B01621A730A8017910734F4BE01680F01
:102D1000791F6038710578F0DF91CF911F910F9185
:102D2000FF90EF90DF90CF90BF90AF909F908F90EB
:102D30007F906F900895F501E81BF90B6491D6011F
:102D4000ED90FC90D401A80FB91FAE0DBF1D022E4F
:102D500001C0660F0A94EAF77C91672B6C932115EA
:102D60003105A1F0F490F601A081B181BC01640F9E
:102D7000751FA60FB71FEF2DF0E0062C02C0F595CA
:102D8000E7950A94E2F76C91E62BEC930196BBCFA2
:102D90000E94C715C1CFCF92DF92EF92FF920F939F
:102DA0001F93CF93DF93E0912801F0912901CF0188
:102DB000019690932901809328018491811113C079
:102DC000809171008D7F80937100109291004698E0
:102DD00010922A01DF91CF911F910F91FF90EF90F8
:102DE000DF90CF90089591E090932A01E82FEF7142
:102DF000F0E0EE0FFF1FEF5CF14FC591D491E82F8B
:102E0000F0E055E0F595E7955A95E1F7EE0FFF1FD5
:102E1000ED5DF14F05911491209709F040C090931A
:102E2000200146983FE9C32E3FE0D32EE12CF12C40
:102E3000CAEFD0E0E0912B01F0912C0109958111AE
:102E400003C081E08093200181E090E0A0E0B0E049
:102E50000115110569F09801DE010E94CC36DC01F4
:102E6000CB0129E0B595A795979587952A95D1F738
:102E7000109290002AE020939100D0929900C09285
:102E800098008093210190932201A0932301B09395
:102E90002401809171008260809371009BCF9E011C
:102EA00050E040E060E472E48FE090E00E94413640
:102EB00069017A0181E0C81AD108E108F10810928D
:102EC0002001B8CFCF92DF92EF92FF92CF93DF93A2
:102ED000FC01CA01E90170E050812617370750F064
:102EE000689F9001699F300D789F300D11242C1739
:102EF0003D0758F0543610F45F5F5083DF91CF9157
:102F0000FF90EF90DF90CF900895A4E6B0E00E948C
:102F1000CC366B017C01252F30E0DE010E94CC36DF
:102F2000C616D706E806F90610F4515050834081C2
:102F3000A42FB0E011969E010E941F37C616D70637
:102F4000E806F906D8F24436C8F64F5F4083D6CF7C
:102F50006F927F928F929F92AF92BF92CF92DF92A9
:102F6000EF92FF920F931F93CF93DF934C017B015E
:102F7000C22F102F98E0A92EB12C642E669466946F
:102F80006694712CCA0187709927892B79F5D40131
:102F900017962D913C91C7019927B9010E940537D9
:102FA000269DF001279DF00D369DF00D11248E0F0A
:102FB0009F1FD4011596ED91FC91E80FF91F208118
:102FC000111112C0C095C223C083DF91CF911F9110
:102FD0000F91FF90EF90DF90CF90BF90AF909F90B8
:102FE0008F907F906F900895C22BEECFD0E0477006
:102FF000C42ED12C83E0660C771C8A95E1F79E01E4
:1030000001C0220F4A95EAF7012FA301B701C401BD
:103010000E94A817A301485F5F4FC5018C199D0945
:1030200002C0D595C7958A95E2F7A7CF3F924F92F8
:103030005F926F927F928F929F92AF92BF92CF9248
:10304000DF92EF92FF920F931F93CF93DF93EC01E8
:1030500089899A8997FD05C02B893C898217930736
:103060009CF06A3029F58D859E859C878B878F899A
:103070002F853889820F932F911D988B8F878B898D
:103080009C8901969C8B8B8B81E090E0DF91CF91A6
:103090001F910F91FF90EF90DF90CF90BF90AF9076
:1030A0009F908F907F906F905F904F903F9008958A
:1030B000EB84FC84603231F425E0E20EF11CFC86E6
:1030C000EB86DDCF693021F439E0E30EF11CF7CF58
:1030D0008DEFE8168FEFF8060CF470C08F8198859D
:1030E000E816F9060CF06AC0CF84D8889DEFC9169F
:1030F0009FEFD9060CF462C089859A85C816D90657
:103100000CF05CC0603208F46FE780EE860F9FE938
:10311000960F9A3118F42FEFC21AD20A8C3011F0A0
:103120008B3119F43FEFC31AD30A869524E0829FAE
:10313000C00111249C012D59324F2901B12CA12C21
:10314000162F1170360131E0631A7108F201EA0D91
:10315000FB1D349011113CC0832D8F70382E470118
:103160008A0C9B1C8C81882351F001E08D89811190
:1031700000E02FE3A301B401CE010E94A8170D893E
:10318000232DA601B401CE010E94A8179FEFA91A12
:10319000B90A24E0A216B104C9F68C81882371F023
:1031A00001E08D89811100E0A60141505109B7016C
:1031B0006C5F7F4F2FE3CE010E94A8178E8990E0AD
:1031C00004962B853C85820F931F9C878B8757CF56
:1031D00032948FE03822C3CF089590E080E00895C4
:1031E0000F931F93CF93DF9380E190E00E94DB3633
:1031F000082F81E190E00E94DB36182F82E190E0F9
:103200000E94DB36D82F83E190E00E94DB36C82F86
:1032100084E190E00E94DB36982F0C3449F411349D
:1032200039F4D73429F4C03319F481E0913309F02B
:1032300080E0DF91CF911F910F91089582E090E09F
:103240000E94DB3681110C9455150C9450156115B4
:10325000710579F0FB0101900020E9F73197AF018A
:10326000461B570BDC01ED91FC910280F381E02DB0
:10327000099490E080E008958F929F92AF92BF9260
:10328000EF92FF920F931F93CF93DF93CDB7DEB7EB
:10329000A1970FB6F894DEBF0FBECDBF7C019B0196
:1032A00050E040E019A28E010F5D1F4F8AE0882E8A
:1032B000912CA12CB12CCA01B901A50194010E9445
:1032C000AA36605DF80162938F0121153105410531
:1032D000510589F7BF01C7010E942719A1960FB6B2
:1032E000F894DEBF0FBECDBFDF91CF911F910F913C
:1032F000FF90EF90BF90AF909F908F9008952F9286
:103300003F924F925F926F927F928F929F92AF9275
:10331000BF92CF92DF92EF92FF920F931F93CF93C2
:10332000DF9300D000D01F92CDB7DEB78C01D62E30
:103330007A01712C612CB12CA12C862F8F71882ED3
:10334000912C86149704A1F40E947133F501EE0FBD
:10335000FF1FE00FF11F8F7799278E0D9F1D95831B
:1033600084830E947133F801EA0DFB1D8F7084A3E2
:103370002FEFA21AB20A34E0630E711C40E1A416CA
:10338000B104F9F6F80190E13D2D3770311107C015
:1033900084A121E0811101C020E0821B84A391500F
:1033A00031969111F3CFD6942D2D30E093E03595E1
:1033B00027959A95E1F7E3E0F0E0C901BF010E948B
:1033C00005371C01C9010196BF010E9405372C0178
:1033D000C9010296BF010E940537A0E0B3E01D823B
:1033E0001C82E1E0F0E0EC0FFD1F2E0E3F1E4E0EA2
:1033F0005F1E3F01680E791E30E020E080E8882ED5
:1034000085E0982E8A1A9B0AF8018281821713069A
:1034100009F030F483818217130611F008F0A8C078
:10342000F80160817181C401820F931F41E050E077
:103430002115310511F450E040E0FC01E41BF50BCF
:10344000AF01460F571FFA0140814983860F971F2E
:10345000FC0140814A8341E050E02F37310511F4EF
:1034600050E040E0840F951FFC0180818B83F101C7
:10347000D080F201808190E0F301408150E0AD2CDA
:10348000AA0CFA2DF071AF2EDD1CDD24DD1CAD2859
:103490006C01D694DC2CCC24D794C794AC286C0156
:1034A000F5E0D594C794FA95E1F7EC2DE270CE2EB5
:1034B000CA285A01E3E0B594A794EA95E1F7FA2DFA
:1034C000F470AF2EAC286C01D594C794EC2DE87045
:1034D000CE2ECA28E3E0880F991FEA95E1F78072A3
:1034E0008C29F5E0440F551FFA95E1F74074842BC1
:1034F0004C815D81452B09F48160580154E0A50E93
:10350000B11CCC24C394D12CF501419151915F01A0
:103510004E195F0942175307F0F44D5F5F4F2417B0
:103520003507C8F4A8014C0D5D1DFA0193A1492F80
:1035300050E0E3E055954795EA95E1F7EC81FD8190
:103540004E175F0741F4977041E050E001C0440F0F
:103550009A95EAF7842BFFEFCF1ADF0A41E1C416F0
:10356000D10491F6620F731F6A0F7B1FFB018083EA
:103570002F5F3F4F2038310509F046CFA058BF4F8D
:103580002C813D8121303105C1F40F900F900F90B7
:103590000F900F90DF91CF911F910F91FF90EF90BF
:1035A000DF90CF90BF90AF909F908F907F906F9063
:1035B0005F904F903F902F90089521E030E03D8341
:1035C0002C831ACFFF920F931F93CF93DF93EC01BD
:1035D000F62E08811981C8010E94DB36F81621F009
:1035E0006F2DC8010E94E336CE01DF91CF911F916C
:1035F0000F91FF9008950F931F93CF93DF9300D007
:10360000CDB7DEB70091C4081091C50880913A0586
:1036100090913B0580179107D0F410933B050093E0
:103620003A050E94F018882391F085E190E09A8392
:103630008983602FCE0101960E94E21A86E190E014
:103640009A838983612FCE0101960E94E21A0F901E
:103650000F90DF91CF911F910F9108951F920F92BC
:103660000FB60F9211242F933F938F939F93AF9395
:10367000BF9380912F0190913001A0913101B091C1
:10368000320130912E0123E0230F2D3758F501969A
:10369000A11DB11D20932E0180932F019093300125
:1036A000A0933101B09332018091330190913401A4
:1036B000A0913501B09136010196A11DB11D8093F5
:1036C000330190933401A0933501B0933601BF913B
:1036D000AF919F918F913F912F910F900FBE0F90BF
:1036E0001F90189526E8230F0296A11DB11DD2CF79
:1036F0001F920F920FB60F9211242F933F934F9367
:103700005F936F937F938F939F93AF93BF93EF9349
:10371000FF938091210190912201A0912301B0910A
:103720002401892B8A2B8B2BC9F1809120018111D7
:1037300004C088B190E4892788B9809121019091D3
:103740002201A0912301B0912401181619061A062E
:103750001B069CF48091210190912201A0912301EC
:10376000B09124010197A109B1098093210190939F
:103770002201A0932301B0932401FF91EF91BF9107
:10378000AF919F918F917F916F915F914F913F91F9
:103790002F910F900FBE0F901F9018950E94CB167F
:1037A000ECCFE7E3F5E010821282118214821382DB
:1037B00084E191E0968385831286138620E1248735
:1037C00011861086168687E391E0918B808B3FEF00
:1037D000328B338BEBE4F5E030E2DF011D923A955A
:1037E000E9F7EBE6F5E0DF011D922A95E9F7109283
:1037F0007E0510927D05EBE7F5E028E031E03183AE
:103800002083909381058093800580E890E09093D9
:1038100083058093820580E490E0909385058093F2
:10382000840585E08093920581E080939105109254
:1038300089051092880510928B0510928A051092C6
:103840008705109286052FEF3FEF30938D0520936B
:103850008C0510928F0510928E0580939005109222
:103860007F058DE495E190932C0180932B01469880
:103870003E9A8CE395E09093950580939405F093A0
:103880009705E093960587E495E0909399058093DA
:103890009805EAE9F5E080E3DF011D928A95E9F7F2
:1038A0001092CB051092CA051092CC051092CD054E
:1038B0001092CE05EFECF5E080E092E0DF019C0194
:1038C0001D9221503040E1F71092D0071092CF079F
:1038D0001092D2071092D10783E08093270887EED9
:1038E00093E0909329088093280884E080932A0825
:1038F00010922B0810922C0810922D0810922E086E
:1039000010922F081092300810923108109232084D
:10391000E3E3F8E08FE0DF011D928A95E9F710926A
:10392000420810924308E4E4F8E080E8DF011D92C9
:103930008A95E9F71092C5081092C4081092C6083B
:103940001092C7081092C8081092C9081092CA08AD
:103950000895CDB7DEB7AD97DEBFCDBF81E08093D0
:10396000E0001092E2001092E10080E28093D80023
:103970001092D700809165008068809365007894EC
:1039800084B5826084BD84B5816084BD85B5826064
:1039900085BD85B5816085BD80916E008160809315
:1039A0006E0010928100809181008260809381007E
:1039B000809181008160809381008091800081608E
:1039C000809380008091910082608093910080912B
:1039D000910081608093910080919000816080933C
:1039E00090008091C10084608093C1008091C100EB
:1039F00082608093C1008091C10081608093C1008A
:103A00008091C30081608093C3008091C000826078
:103A10008093C0008091C20081608093C200809139
:103A20007A00846080937A0080917A00826080932B
:103A30007A0080917A00816080937A0080917A0088
:103A4000806880937A00559A209A5D9A289A8C9A79
:103A500084988AE090E00E9412157C9B0E940415D5
:103A6000809164008E7F8093640080917A008064EE
:103A700080937A0080917A0086FDFCCF00917800D7
:103A8000109179000E942612AB01BC019091640054
:103A9000916090936400C801B0E0A0E0DC01992738
:103AA0008827840F951FA61FB71F0E94763381ECCD
:103AB00080937C0085B1806F85B984B1877E84B99D
:103AC00084B1876E84B95E9A5F988AB1806D8AB935
:103AD000769A6E9881B3806F81BB899880B38D7020
:103AE00080BB80E58CBD81E08DBD85E090E00E94CB
:103AF00012155F9A85E090E00E9412155E985C981E
:103B0000EFE5FEE08CE69EE024912EBD00000DB4B2
:103B100007FEFDCF31968E179F07B1F75C9A81E8BB
:103B2000809364008091650081608093650080E0EF
:103B30000E940C120E94451502E010E087FF15C09C
:103B40005C9885EA8EBD00000DB407FEFDCF5C9A3F
:103B50002E982F982D988091640080628093640045
:103B600081E083BF889513BEFCCF0E94451582FF7C
:103B70003EC02D980E94451584788438B9F42D9A5A
:103B800088EC90E00E9412152F981A8309836FEF3A
:103B9000CE0101960E94E21A84EF91E00E94121574
:103BA0002F9A0E94451584788438D9F30E944515D0
:103BB00084718431B9F42D9A88EC90E00E9412153A
:103BC0002E981A83098360E0CE0101960E94E21AC2
:103BD00084EF91E00E9412152E9A0E94451584717F
:103BE0008431D9F388EC90E00E941215BECF2D9A53
:103BF0000E941E1981E090E00E94DB36182F81E0C0
:103C000090E00E94DB3681FF0EC0212F2470F22E3F
:103C100012FD2E9800EF1FEF0E94451586FF3EC053
:103C20002E9A2F9A2D9A82E390E00E9412150E94FC
:103C300045158111F8CF8FE1809343050E941E192D
:103C40000E94F018882369F085E190E00E94DB363D
:103C5000182F86E190E00E94DB3610933A0580939E
:103C60003B0522242394332433948FB7F894409156
:103C70002F015091300160913101709132018FBF5D
:103C800080914405342F381B832F9091450599234B
:103C900029F13093460510924505E7CFFF2029F022
:103CA0000430110511F42E9A2F9881E00E940C1215
:103CB00080E00E940C128FE090E00E9412150F5FCE
:103CC0001F4F0931110509F0A7CFFF2011F02F9ADE
:103CD0002D9880E991E00E941215A4CF90914305A0
:103CE000391740F48F5F891708F0BFCF23BE88953E
:103CF00013BEBBCF309245054093440580913F05EC
:103D00009091400501969093400580933F058091E6
:103D10004105809342050E9445158093410580919D
:103D20002A0181110DC0809171008D7F80937100F7
:103D300081E399E190932901809328010E94CB1699
:103D4000E091C908E73008F074C0F0E0E655F14EA4
:103D50000C941937B11E0C21782A462A782A692A30
:103D6000782A80E80E941B12882369F08091CA0893
:103D7000823009F488C008F07AC0882309F47FC033
:103D8000813009F487C080E10E941B12882369F00A
:103D90008091CA08823009F4A0C008F086C0882348
:103DA00009F48CC0813009F490C080E40E941B1299
:103DB000882369F08091CA08823009F4A6C008F00F
:103DC00092C0882309F49BC0813009F49CC080E232
:103DD0000E941B12882369F08091CA08823009F47E
:103DE000B2C008F09EC0882309F4A7C0813009F44E
:103DF000A8C088E00E941B12882399F08091CA080D
:103E0000823009F4C5C108F0AAC0882309F4B7C0FC
:103E100004E9E02E05E0F02E08E110E0813009F41D
:103E2000AAC184E00E941B12882319F085E08093C8
:103E3000C90880E0E7E3F1E081118FEF002481936E
:103E40008193819381930394D1F7E091C908E7307E
:103E500010F00C94652CF0E0E05DF04E0C941937F6
:103E6000882AA92CE83103329131CD31B031843028
:103E7000D1F098F0853009F086CF84E001C085E06C
:103E80008093CA0880CF0E94F018882319F03092DE
:103E9000CA0879CF1092CA0876CF8091C6088823C5
:103EA00091F382E0EDCF83E0EBCF8430D1F0B8F036
:103EB000853009F07ACF1092CA0877CF0E94F018A7
:103EC000882319F03092CA0870CF8091C6088823E1
:103ED00021F082E08093CA0868CF83E0FBCF84E0C2
:103EE000F9CF85E0F7CF843091F0C0F0853009F04C
:103EF0006ECF8091C608882351F082E001C083E034
:103F00008093CA0864CF84E0FBCF85E0F9CF0E949C
:103F1000F018882319F03092CA0859CF1092CA08B5
:103F200056CF843091F0C0F0853009F062CF809197
:103F3000C608882351F082E001C083E08093CA085C
:103F400058CF84E0FBCF85E0F9CF0E94F01888239A
:103F500019F03092CA084DCF1092CA084ACF843067
:103F600009F404C108F4FEC0853009F05ACF8091ED
:103F70002D01882309F4FCC00E94501552CF809176
:103F8000C6088111DEC01092CB051092CA051092AE
:103F9000CC051092CE051092CD051092D807109244
:103FA000D7071092DA071092D9071092DE07109205
:103FB000DD071092E0071092DF0784E68093E307A5
:103FC0008093E4078093E5078093E6071092E20769
:103FD0001092E10783E08093270887EE93E09093A7
:103FE00029088093280810924408109242081092E1
:103FF000C5081092C4081092C80885E090E090931C
:10400000D0078093CF0780E091E09093D207809310
:10401000D107E3E3F8E082E498E011928E179F075E
:10402000E1F790E080E0FC01EE0FFF1FE656FA4F4B
:1040300021812B7FFC01EE0FFF1FE656FA4F108205
:104040002C7F218301968831910569F78091A10524
:1040500084608093A10580919D05846030929C05C9
:104060008C7F80939D050E9471339770985FB0E0BC
:10407000A0E080932F0890933008A0933108B0936C
:1040800032082FE0F22E10E000E03DEEE32E4FEE7E
:10409000D42E5EEEC52E0E9471338F2198012E58CA
:1040A0003A4FA80144505109493F514038F48230F9
:1040B00009F453C044F4813009F448C0235A3F4FF7
:1040C000F901108247C08530CCF7235A3F4FD90100
:1040D000DC92F12C0F5F1F4F0115F2E01F07D9F69C
:1040E000E091CF07F091D007E153FA4F1082E091B1
:1040F000D107F091D207E153FA4F1082109278065F
:1041000080EF80937906109222078093230707EEB1
:1041100017E087E0E82E88E0F82E0E9471339F7048
:10412000D80191969C938E9390970E9471339F70C3
:10413000F801819391938F01EE16FF0671F730928B
:10414000C6081092C7083092C9086BCE235A3F4F59
:10415000D901CC929FE0F92EBDCF235A3F4FF901F0
:10416000E082F8CF82E08093C9085BCE83E0FBCF8A
:104170000E94551556CEC8010E94DB36D7018D939B
:104180007D010F5F1F4F0D34B3E01B07A1F7D9CF9F
:1041900080E190E09A8389836CE4CE0101960E94CD
:1041A000E21A81E190E09A83898361E4CE0101966D
:1041B0000E94E21A82E190E09A83898367E4CE014B
:1041C00001960E94E21A83E190E09A83898360E37A
:1041D000CE0101960E94E21A84E190E09A838983DD
:1041E00061E3CE0101960E94E21A14E9E12E15E086
:1041F000F12E08E110E0F70161917F011A83098334
:10420000CE0101960E94E21A0F5F1F4F0D34F3E0BA
:104210001F0789F786E0A7CF8091C7088823C9F1D7
:104220000E94FB1A1092C9088091D3079091D4077D
:1042300001969093D4078093D3079F71892B49F4FB
:104240008091D5079091D60701969093D6078093D9
:10425000D50780914208811147C38091CC05811117
:1042600043C30E944515182F0E944515807415FF01
:10427000B9C32091CA053091CB05882309F41DC329
:10428000369527953093CB052093CA051092CE051D
:104290002BC3C090DD07D090DE07E090DF07F090E1
:1042A000E007EC14FD0440F0809128089091290863
:1042B0008436910508F458C080E80E941B12B09023
:1042C00042080091D3071091D407811155C080E1B5
:1042D0000E941B12882309F4D5C0B110A5CF4091CC
:1042E000270830E020E080912B0890912C08A091C5
:1042F0002D08B0912E0868017901C81AD90AEA0A76
:10430000FB0AD701C60100932B0810932C082093B9
:104310002D0830932E0820912A08233009F0A0C0E0
:104320000C97A105B1050CF09BC0442359F04150F6
:10433000433008F483C0493008F482C04D3008F09F
:1043400081C04DE028E130E0842F90E0FC01EE0FC9
:10435000FF1FE556FA4F508152FD76C00196B90114
:104360000E940537482FF0CF1092C6080E94FB1A12
:1043700084E08093C90858CFB11056CF80912708A8
:1043800030E020E040912B0850912C0860912D08DE
:1043900070912E0800932B0810932C0820932D0861
:1043A00030932E0890912A089230C9F5041B150B02
:1043B000260B370B0C3011052105310584F590E0F3
:1043C000019668E170E00E9405378D3090F48930E5
:1043D00090F4833090F080E0E82FF0E0EE0FFF1FC4
:1043E000E556FA4F908192FD0CC0882341F0815030
:1043F000F3CF89E0F1CF83E0EFCF8DE0EDCF87E120
:10440000EBCF10922B0810922C0810922D081092CE
:104410002E088093270882E080932A0805CF8823FE
:1044200059F08150E82FF0E0EE0FFF1FE556FA4FEC
:10443000908192FFF4CFEDCF87E1F4CF43E082CFBC
:1044400049E080CF40E07ECF10922B0810922C08DC
:1044500010922D0810922E084093270883E0DCCF9D
:1044600028E130E0842F90E00196B9010E940537E1
:10447000482F880F991FFC01E556FA4F808182FF73
:10448000F1CFEACF80E20E941B12882391F1B11094
:10449000CBCE30E020E080912B0890912C08A091A9
:1044A0002D08B0912E08B901A801481B590B6A0BC1
:1044B0007B0BDB01CA0100932B0810932C0820937F
:1044C0002D0830932E0820912A0821110FC00C9737
:1044D000A105B1055CF48FEF0E94920F10922B089A
:1044E00010922C0810922D0810922E0810922A0873
:1044F0009BCE80E40E941B12882391F1B11094CED0
:1045000030E020E080912B0890912C08A0912D089C
:10451000B0912E0868017901C81AD90AEA0AFB0A83
:10452000D701C60100932B0810932C0820932D0867
:1045300030932E0820912A08213079F40C97A10598
:10454000B1055CF481E00E94920F10922B0810924A
:104550002C0810922D0810922E0830922A0864CE52
:1045600088E00E941B12882309F413C1B1105CCEAD
:104570008091270830E020E000932B0810932C084E
:1045800020932D0830932E0852E1D52E8D9DF001F9
:1045900011249F012F50344E7901F9012591349156
:1045A000409128085091290842175307B8F48CE02D
:1045B00099E19F938F931F9280E88F9384E498E012
:1045C0009F938F930E949333309242080F900F90E5
:1045D0000F900F900F900F9084E01ECF823009F063
:1045E00052C060E080E00E94F60ED89EF0011124D7
:1045F000E950F44E6491662379F3062F10E06D9D27
:10460000F0011124EF50F44EE590F49080912808C9
:10461000909129088E159F0518F485EE98E1C9CF71
:1046200081E00E94F60E0D5F1F4F9801220F331F8D
:10463000295C3A4FF901E35AFF4F8081225A3F4FDC
:10464000D9012C91922F93708F3FB3E09B07C1F05B
:1046500001969370000F111FF801EC56FA4F8083FA
:10466000937081818C7F892B818380912808909120
:1046700029088E199F099093290880932808ACCFA8
:1046800090E080E0E7CF813019F48093C708A4CF91
:104690000091CA051091CB05095F1F4F1170811160
:1046A00052C0F801E153FA4F80818F71803109F4D3
:1046B00093CF60E081E00E94F60ED090270822E1BF
:1046C000D29EF0011124AF014D50544E5A0150E0DA
:1046D00040E0F50184918417150609F008F445C0FF
:1046E0009801240F351F31702E583A4FD901A35A23
:1046F000BF4F8C918F71C82E682F70E0660F771FA7
:10470000635C7A4FDB01A35ABF4F8C91625A7F4F93
:10471000FB016081962F9370009771F0CC2061F0BF
:1047200081509C4F93708C93937011968C9111973C
:104730008C7F892B11968C93235A3F4FD9011C9261
:104740004F5F5F4FC6CF0E94660F8F3019F486EC23
:1047500098E12FCF93EF980F923008F4AECF8823D3
:1047600009F4ABCF83EA98E124CFF801E153FA4F83
:10477000BD2DBF71DB2E8081807ED82AD082F701CB
:10478000259134918091280890912908821B930BE0
:1047900072CF84E00E941B12882309F445CD30E0DB
:1047A00020E000932B0810932C0820932D083093C1
:1047B0002E08BB2009F448C08091C808882371F1F5
:1047C0008091E2078F938091E1078F938091E607B4
:1047D0001F928F938091E5071F928F938091E4073A
:1047E0001F928F938091E3071F928F938BE598E13F
:1047F0009F938F931F9280E88F9384E498E09F9318
:104800008F930E9493331092C808EDB7FEB770964D
:104810000FB6F894FEBF0FBEEDBF10C084E498E061
:10482000DC010D900020E9F7CD01855498402091DE
:1048300043082817190620F01092420885E0ECCDB5
:1048400080E880934308FACF3092C808309242083B
:1048500080E8809343089091E2079F939091E1074D
:104860009F93DF92CF92FF92EF929091DC079F93FC
:104870009091DB079F939091DA079F939091D907CE
:104880009F939091D6079F939091D5079F93909176
:10489000D8079F939091D7079F932BEF37E13F93D2
:1048A0002F931F928F9384E498E09F938F930E949D
:1048B0009333EDB7FEB77496ABCF2115310509F0F0
:1048C0008AC08FEF91E09093CB058093CA0588E072
:1048D0008093CC058091CE05803208F08FE18F5F08
:1048E0008093CE051092CD054090D3075090D40709
:1048F000F3E04F2255244114510409F09ACA8091E3
:10490000270190E0019687709927809327011092E4
:10491000D8071092D7071092E0071092DF07109285
:10492000DE071092DD07CC24C394D12CD092DA0795
:10493000C092D907D092DC07C092DB0700E112E0F9
:10494000A8E0AA2EA2E0BA2EB2E19B2E98012E5921
:104950003C4F7901F901E35AFF4F80818F71D82EC6
:10496000282F30E0899DC0011124FC01EB50F44E4A
:10497000E4914091DF075091E007E40FF52FF11D1E
:10498000F093E007E093DF07FC01E051F44EE4917F
:104990004091D9075091DA07E40FF52FF11DF093FC
:1049A000DA07E093D90743E0D41619F051E1D512A4
:1049B0004AC1A801405251094017510770F5FA0148
:1049C000F170E153FA4F60816F71643009F433C1C3
:1049D0004F5F5F4FF1CF215031093093CB052093CA
:1049E000CA0575CF882309F451CC8091CA059091EE
:1049F000CB05019691709093CB058093CA0588E012
:104A00008093CC058091CE05803208F08FE18F5FD6
:104A10008093CE053092CD0567CF44E050E0B801D9
:104A200068517109FB01EA15FB0560F4DF01B17003
:104A3000A153BA4FAC91AF71AD50A33008F0FEC096
:104A40004E5F5F4F6A157B0558F4FB01F170E1532F
:104A5000FA4FE081EF71E03109F0F2C0405F5F4F43
:104A600061E1D61202C0440F551F6091D7077091C3
:104A7000D807460F571F5093D8074093D707DD201C
:104A800009F47DC040912701411179C0F701E35A33
:104A9000FF4F4081429546954770463009F05AC015
:104AA000690173E0C70ED11CA601440F551F495C74
:104AB0005A4FFA01E35AFF4F6081425A5F4FDA01C1
:104AC0004C91742F7370672B21F58950944EFC0123
:104AD000849190E0880F991F835C9A4FFC01E35A00
:104AE000FF4F4081825A9F4FDC018C91582F5370A9
:104AF000452B79F4F901EE0FFF1FEB5EF94E65913E
:104B0000749140E850E084E498E00E94843330924D
:104B100042089601220F331F295C3A4FF901E35AEC
:104B2000FF4F8081225A3F4FF9012081922F9370CD
:104B30008F3FF3E09F0709F489C001969370F60157
:104B4000EE0FFF1FEC56FA4F8083937081818C7FAC
:104B5000892B8183F701E35AFF4F808182958695E7
:104B60008770873011F08F5F8770F701E35AFF4F2E
:104B70008295880F807E90819F71892B80832FEF93
:104B8000A21AB20A0F5F1F4F003134E0130709F079
:104B9000DDCE7090C4086090C508272D362D809119
:104BA000DB079091DC07A090DD07B090DE0740E1C5
:104BB00052E0F4E98F2EFDE19F2EAEE8CA2EADE162
:104BC000DA2EB2E6EB2EBCE1FB2E0CE51CE1FA017D
:104BD000E154FC4F60816F71663009F042C01216DB
:104BE00013060CF071C0F7016491A60EB11CF80118
:104BF0006491261B3109BA01665171096417750762
:104C000058F5FB01F170E153FA4FE081EF71E430A8
:104C100001F58196BA01675171096417750708F0AB
:104C200053C0FB01F170E153FA4FE081EF71E031C5
:104C3000A9F4819649C048E050E0F1CE3196F3CE18
:104C40006F5F7F4FFFCE50E040E00FCF90E080E0FD
:104C500076CF6F5F7F4FD2CF4696DCCF6F5F7F4FAF
:104C6000DCCF673109F01FC2121613066CF5F40190
:104C70006491A60EB11CF6016491261B3109BA019C
:104C8000605271096417750708F008C2FB01F170E2
:104C9000E153FA4FE081EF71E43009F0FCC18E5B23
:104CA0009F4FBA0168517109DA0118976A177B079B
:104CB00058F4FB01F170E153FA4FE081EF71E031FC
:104CC00009F0EEC18E5B9F4F4F5F5F4F4031F4E0C4
:104CD0005F0709F07CCF9093DC078093DB0770E0DF
:104CE00060E050E040E010E000E0E4ECEE2EE9E0AF
:104CF000FE2E92E1FA01E153FA4F80818F718B30E1
:104D000009F00DC2ACE3EA1AA6EFFA0A899FF00196
:104D10001124E051F44EE4912E1B31094F5F5F4F97
:104D20004115E2E05E0731F7B092DE07A092DD07A1
:104D30008091A4052091A505922F93708090C405C1
:104D40002091C5052370922E880C991C880E991EFF
:104D50008091AC052091AD05922F9370A090C20573
:104D60002091C3052370B22EAA0CBB1CA80EB91E3D
:104D70008091AE052091AF05922F9370C090C00531
:104D80002091C1052370D22ECC0CDD1CC80ED91E7B
:104D90008091AA052091AB05922F93704AE0489F1D
:104DA0009001499F300D11242617370718F42B0165
:104DB000421A530A272D362DA20160E186EE97E0B4
:104DC0000E9462172091C4083091C508A40168E1CF
:104DD00083EE97E00E94621717FF02C010E000E028
:104DE0002091C4083091C508C901B0E0A0E0A80135
:104DF000012E000C660B770B841B950BA60BB70BD3
:104E0000181619061A061B0614F4201B310BA501EF
:104E100064E685EE97E00E9462172091B0058091CC
:104E2000B105382F337095E0220F331F9A95E1F7C3
:104E30008091C4089091C508280F391FA60164E627
:104E400084EE97E00E9462178091E6079091E30755
:104E5000382F981708F4392F2091E5074091E4077F
:104E6000532F231708F4522F541708F0D3C13217C9
:104E700008F0CEC1382F891708F0392F36953695AE
:104E800059E1531B6DEF609380001092880050939E
:104E90008A0030938C000091D3071091D407B80199
:104EA0006F717727672B11F00C94191FE091280878
:104EB000F09129086091DD077091DE076E0F7F1F6A
:104EC000E091DF07F091E007E617F70708F0A4C1CB
:104ED0006E1B7F0B7093290860932808890F992710
:104EE000991F280F392F311D240F311D3695279515
:104EF00036952795A091D707B091D8070E94CC3658
:104F000024E630E040E050E00E94AA368091D907C4
:104F10009091DA078217930708F49C018091C408E6
:104F20009091C5088217930708F07BC10196909372
:104F3000C5088093C4084091DB075091DC0780913D
:104F4000C4089091C5084817590720F45093C50824
:104F50004093C4082091C4083091C5086091B205FF
:104F60008091B305782F7370EAE0E69FC001E79F58
:104F7000900D11246091C605E091C7057E2F7370D6
:104F8000A4E1A69FF001A79FF00D1124421B530B33
:104F90008E0F9F1F4817590708F4CA019093E20724
:104FA0008093E107E0912808F09129088E0F9F1F58
:104FB000E816F90608F43FC1909329088093280861
:104FC0008091420881110C94191FC801B0E0A0E043
:104FD00040912F085091300860913108709132084B
:104FE000481759076A077B070CF006C20E94713305
:104FF000185F9770080F191F30E020E000932F080A
:105000001093300820933108309332080E94713396
:1050100063E070E00E940537009709F02AC1809193
:10502000AF0582FD02C00C94191F8091E4078436FD
:1050300008F006C10E947133609128087091290818
:10504000769567950E94F1368C011F938F9380EBC4
:1050500097E19F938F931F9280E88F9384E498E069
:105060009F938F930E9493338091280890912908F1
:10507000801B910B90932908809328082DB73EB789
:10508000285F3F4F0FB6F8943EBF0FBE2DBF309242
:1050900042080C94191F6F5F7F4FF4CD8C9601CEA0
:1050A0006F5F7F4F03CE673009F00ECE12161306E6
:1050B0000CF00ACEE4E7FCE16491A60EB11CEEE62A
:1050C000FCE16491261B3109BA016A517109DA01C8
:1050D00016976A177B0708F5FB01F170E153FA4F49
:1050E000E081EF71E630B1F44696BA01685171097A
:1050F000DA0118976A177B0708F0E6CDFB01F1701B
:10510000E153FA4FE081EF71E03109F492CD6F5F26
:105110007F4FF0CF6F5F7F4FDCCF0B96E6CF8231B2
:1051200029F4B8E7EB1ABCEEFB0AF0CDECE1E80F8E
:10513000EF71E23060F4121613064CF4899FF0010F
:105140001124EA50F44EE491AE0EB11CDFCDE3E140
:10515000E80FEF71E33018F46F5F7F4FD7CD8930E0
:1051600089F5FA01E850FE4F6A01A0EFCA1AADEFC7
:10517000DA0AEC15FD0508F0C9CDDF01B170A153C5
:10518000BA4FAC91AF71B3EFBA0FB23038F40C5FD5
:105190001F4FA03139F40054110904C0AF3021F47D
:1051A000085F1F4F3196E5CFB5EFBA0FB23018F454
:1051B00000511109EECFA53011F0A83051F700527F
:1051C0001109E7CF883009F0A1CD121613060CF0B3
:1051D0009DCDE6E8FCE1A491AA0EB11CFA01E850CD
:1051E000FE4F6A01A8EFCA1AADEFDA0AEC15FD0509
:1051F00008F08CCDDF01B170A153BA4FAC91AF7103
:10520000A03121F4B7E3AB0EB11C80CD3196EECFC7
:10521000322F34CE342F32CE109229081092280823
:105220005DCE8230910508F486CE2817390708F044
:1052300082CE01977CCEF0922908E0922808C0CE59
:105240001F921F9284E697E19F938F931F9280E8AD
:105250008F9384E498E09F938F930E9493334DB78C
:105260005EB7485F5F4F0FB6F8945EBF0FBE4DBF8D
:105270000ECF8130910509F050C08091AD0582FDBF
:1052800002C00C94191F8091E507843670F50E94C6
:1052900071336091C4087091C508769567950E9436
:1052A000F1368C011F938F9388EF96E19F938F9334
:1052B0001F9280E88F9384E498E09F938F930E94DD
:1052C00093338091C4089091C508801B910B9093F3
:1052D000C5088093C4086DB77EB7685F7F4F0FB66F
:1052E000F8947EBF0FBE6DBFD2CE1F922F9282EB7D
:1052F00096E19F938F931F9280E88F9384E498E0C8
:105300009F938F930E9493338DB79EB708960FB6E5
:10531000F8949EBF0FBE8DBFBACE029711F00C94C9
:10532000191F8091B90582FD02C00C94191F80914C
:10533000E607843610F00C94191F85E496E19F93DC
:105340008F931F9280E88F9384E498E09F938F93CC
:105350000E949333309242080E9471338C01117085
:105360000E94713360E170E00E94053704960F904F
:105370000F900F900F900F900F90A801B8017E5FD3
:10538000BEE0FB2E009711F40C94191F4617570727
:1053900010F00C94191FFA01F170E153FA4F2081BB
:1053A0002F71233030F133E1320F3F71343008F187
:1053B00030E0220F331F235C3A4F8901035A1F4FFD
:1053C000D801CC90225A3F4FD9012C912370D22E74
:1053D000D601A150BC4F9D013370D8012C9333707E
:1053E00011962C9111972C7F232B11962C93F082E0
:1053F00001974F5F5F4FC6CF63E378E090E080E0B6
:1054000012E0FB014191BF01411137C0AC01440FD3
:10541000551FFA01E950FA4EA591B4912A173B079E
:1054200070F1FC01E851FA4EA491B0E0AA0FBB1F45
:10543000A656BA4FEC911196AC91FA2FF370EF2B60
:10544000F1F0FC01ED5CF74F2082FC01E752FA4ECF
:10545000E491F0E0EE0FFF1FE656FA4F8181846081
:105460008183FA01E554FA4E6591749140E850E069
:1054700084E498E00E9484330ACE31971083019629
:105480008F30910509F0BDCF0C94191F88E00E9460
:105490001B12811104C084E00E941B128111109222
:1054A000C90880E40E941B12882329F080913705E7
:1054B0008F5F8093370580E20E941B12882311F4CE
:1054C0000C94191F809137058150809337050C94F7
:1054D000191F84E00E941B1281111092C90880E1FB
:1054E0000E941B12882311F40C94191F0C942E1D7A
:1054F00088E00E941B12811107C084E00E941B12E9
:10550000882311F40C94191F1092C9080C94191FC8
:105510008091250190912601019690932601809318
:1055200025010E94BC0F00E129E649EE54E160E24A
:1055300070E081E090E00E945111A4E0EA2E06E1C3
:105540002EE246E050E062E070E08CE395E00E94DD
:1055500034142EE246E050E064E370E08CE395E022
:105560000E9434142EE246E050E062E070E08CE3EA
:1055700095E00E9439132EE246E050E064E370E0CB
:105580008CE395E00E94391348E661E070E090E01A
:1055900080E00E941B1148E662E070E090E080E04D
:1055A0000E941B1189E090E00E94A81488E290E01C
:1055B0000E94A8148BE390E00E94A8148AE590E072
:1055C0000E94A81400E120E149EC54E170E060E0A1
:1055D00088E690E00E94511121E040E160E270E035
:1055E00084E790E00E94101321E040E160E270E067
:1055F00083E790E00E941013B2E0EB2E0DE027E16C
:1056000048E150E068E670E08CE395E00E943414D5
:1056100027E148E150E068E670E08CE395E00E9405
:1056200039130AE610E0109389050093880510935A
:105630008705009386058AE190E090938B0580931F
:105640008A05EE24EA94FE2CF0928D05E0928C05FA
:1056500010928F0510928E0564EC74E18BE795E053
:105660000E945B15109389050093880510938705A8
:10567000009386058FE190E090938B0580938A05D7
:10568000F0928D05E0928C0510928F0510928E0598
:1056900060913A0570913B058BE795E00E943C19BB
:1056A00008E028E04CEB54E168E270E087E790E026
:1056B0000E94511180913805909139058F3F9105D5
:1056C00011F00CF007C101969093390580933805CD
:1056D000E0902501F0902601A70156954795569533
:1056E00047954F70552797012873332724583B4E11
:1056F0004850510957FF03C0519541955109405EEB
:105700005F4F08E0BC0187E495E00E94C71550E0B8
:1057100040E06E2D87E495E00E947F198EE090E0D6
:1057200090938905809388059093870580938605DB
:1057300089E090E090938B0580938A058FEF9FEF2F
:1057400090938D0580938C0510928F0510928E0595
:105750008091C60865E774E1811102C060E774E1D9
:105760008BE795E00E945B158EE090E090938905B1
:105770008093880590938705809386058FE090E05D
:1057800090938B0580938A058FEF9FEF90938D0503
:1057900080938C0510928F0510928E050E94F01850
:1057A000882331F06BE674E18BE795E00E945B158E
:1057B0008EE090E09093890580938805909387050B
:1057C0008093860585E190E090938B0580938A0510
:1057D0008FEF9FEF90938D0580938C0510928F052E
:1057E00010928E058091C608882331F066E674E138
:1057F0008BE795E00E945B1500E410E010938905AB
:1058000000938805109387050093860589E090E052
:1058100090938B0580938A05EE24EA94FE2CF092F7
:105820008D05E0928C0510928F0510928E0560E632
:1058300074E18BE795E00E945B1510938905009356
:10584000880510938705009386058FE090E090937C
:105850008B0580938A05F0928D05E0928C0510925D
:105860008F0510928E056BE574E18BE795E00E9441
:105870005B151093890500938805109387050093A5
:10588000860585E190E090938B0580938A05F092E0
:105890008D05E0928C0510928F0510928E058091F7
:1058A0002D0165E574E1811102C06FE474E18BE7BD
:1058B00095E00E945B158091CA08823009F442C0CD
:1058C00098F48823E9F08130B1F180E00E940C1255
:1058D0000C94351E0E94713391958195910960E079
:1058E00071E00E940537F0CE8430F1F090F0853001
:1058F00061F708E028E047E454E162E170E00FC09E
:1059000008E028E047E454E166E070E085E090E0DC
:1059100008C008E028E047E454E166E070E087E36F
:1059200090E00E945111D1CF08E028E047E454E113
:105930006CE070E0F4CF08E028E047E454E16CE06C
:1059400070E0E4CF08E028E047E454E162E170E071
:10595000DDCF8091CD0501E0811101C00FEF809175
:10596000CC05089F402C11248091D3079091D40737
:105970000E94BC0F80914208882341F0E091980575
:10598000F091990580E2828380E6838367EE862E1C
:1059900067E0962E10E0B12CA12C612C72E0772EDE
:1059A000042C000C5508D401CD90DD904D01BFEFC3
:1059B000CB1ADB0AEFE0DE22F4013297D182C082FB
:1059C000A0FEBFC07301EC18FD086701312F3170D4
:1059D000F32E2091D3073091D407220F331F287163
:1059E0003327225B304F8091CA059091CB0543E06D
:1059F000880F991F4A95E1F7B201681B790B6C0D6E
:105A00007D1D7F70EF2C08E048E050E08091980504
:105A1000909199050E9444168091B2052091B3059A
:105A2000922F9370880F991FA816B9063CF5209104
:105A3000D3073091D407220F331F220F331F207357
:105A40003327225F304F8091CA059091CB05B3E098
:105A5000880F991FBA95E1F760E071E0681B790B38
:105A6000640D751D6C0D7D1D7F7000E146E250E0F8
:105A700080919805909199050E9444164FEFA41AC1
:105A8000B40A1F5F117050E1A516B10409F08BCF65
:105A90008091C4089091C508F4E096958795FA9591
:105AA000E1F7182F813108F010E177E0C72E78E098
:105AB000D72EF12C912CA12CE2E0BE2E191509F461
:105AC00045C02091D3073091D407C901837099272D
:105AD000892B41F4D6018D919C91119701969F706D
