:100000000C94F9090C94210A0C94210A0C94210AED
:100010000C94210A0C94210A0C94210A0C94210AB4
:100020000C94210A0C94210A0C940D0B0C947F0B58
:100030000C94210A0C94210A0C94210A0C94210A94
:100040000C94210A0C94210A0C94210A0C94210A84
:100050000C94210A0C94210A0C94210A0C94D312BA
:100060000C94210A0C94210A0C94210A0C94210A64
:100070000C94210A0C94210A0C94210A0C94210A54
:100080000C94B6130C94210A0C94210A0C94210AA6
:100090000C94210A0C94210A0C94210A0C94210A34
:1000A0000C94210A0C94210A0C94210A0A444F2032
:1000B000594F5520455645520A5245475245540A14
:1000C00043555454494E4720414C4C0A544845200E
:1000D000574545443F0A0A54414B4520534F4D452F
:1000E0000A53454544532E0A0A0A000A444944204B
:1000F000594F55205452590A5448452046525549A3
:1001000054530A46524F4D204F55520A4C4F4341CB
:100110004C204341435455530A504C414E54533F95
:100120000A0A4E4F5720594F552043414E0A504C12
:10013000414E5420594F55520A4F574E210A000A3A
:100140004954275320534F0A5741524D2E2E2E0A01
:100150000A504C414E542041204645570A545245BE
:10016000455320544F0A50524F564944450A534F65
:100170004D452053484144450A464F522054484576
:100180000A4C4147554E495449414E53210A0A00F1
:100190000A4556454E205448450A42455354204F7F
:1001A000462055530A4D414B4520534F4D450A4D6E
:1001B000495354414B45532E0A0A4E4F5720594F2D
:1001C000550A43414E2052454D4F56450A5452451B
:1001D000455320414E440A4255494C44494E4753E9
:1001E0002E0A0A000A41532054484520544F574EC6
:1001F0000A47524F57532C205448450A434F5354F3
:1002000020464F520A494D504F5254494E470A46D4
:100210004F4F4420474554530A50524F424C454D8E
:10022000415449432E0A0A4255494C442041204D2D
:10023000494C4C0A544F2046454544205448450AF1
:100240004C4147554E495449414E532E0A000A54D9
:1002500048455245204953204E4F0A53504143458B
:10026000204C4546540A544F2053544F5245204188
:100270004C4C0A544845204D4F4E4559210A0A42DC
:1002800055494C4420412042414E4B0A544F20498D
:100290004E435245415345200A474F4C4420535446
:1002A0004F524147450A42592035303030242E0AFA
:1002B0000A000A41205052494553540A50415353B1
:1002C000494E472042590A50524F504F53455320F0
:1002D000594F550A544F20454455434154450A54FB
:1002E00048452050454F504C450A494620594F55E6
:1002F000204255494C440A4120534D414C4C0A433D
:10030000485552434820464F520A48494D2E0A0A42
:10031000000A5448452042414E444954530A434F31
:10032000554C4420534D454C4C0A594F5552204D85
:100330004F4E45590A414E44205448455920415298
:10034000450A434F4D494E4720544F0A41535341AC
:10035000554C54205448450A42414E4B210A4255BF
:10036000494C44204120504F53540A464F52205488
:1003700048450A534845524946462E0A000A544801
:100380004520474F4C440A46455645520A5245417E
:10039000434845440A4C4147554E495441210A0AB5
:1003A0004255494C4420410A4D494E4520544F0A7C
:1003B000494E43524553450A54484520494E434F00
:1003C0004D452E0A0A000A54484520434F57424FD4
:1003D00059530A4152452047455454494E470A5201
:1003E0004553544C4553532E0A0A4255494C442018
:1003F00041204E45570A53414C4F4F4E20544F0A0F
:10040000454E5445525441494E0A5448454D2041A9
:100410004E440A52414953452054484549520A48DE
:10042000415050494E4553532E0A000A4D4F5245F4
:100430002050454F504C450A57494C4C204D4F5683
:10044000450A494E2C204946205448450A484F55F4
:10045000534553204152450A53455256494345445A
:100460000A574954482057415445522E0A0A5452BB
:1004700059204255494C44494E470A534F4D452057
:1004800057415445520A544F574552532E0A000AB9
:100490004255494C442041204641524D0A544F2078
:1004A0004749564520410A4A4F4220544F2054485C
:1004B000450A434954495A454E532E0A0A4152525D
:1004C0004F572055500A544F205357495443480A18
:1004D0004255494C44494E472E0A000A57454C4361
:1004E0004F4D4520544F0A4C4147554E4954412CDD
:1004F0000A4120534D414C4C204C414B450A494E3A
:10050000205448452057494C440A57494C442057E9
:100510004553542E0A0A4255494C4420534F4D45E9
:100520000A484F5553455320544F0A494E435245AC
:10053000415345205448450A504F50554C41544969
:100540004F4E2E0A00000C1933667CF9FFFE703CFA
:100550003E3319180C000000000080C3FFFFBC00F0
:1005600000000000000C1830FFFF0C0603082952A1
:10057000FE4925100030FF160E0546A615A64605B5
:100580000E16FF300000FF808C8C80FC85FC808C78
:100590008C80FF0000FE25160E0506A675A6060532
:1005A0000E1625FE00FF80FE82FE82FE80BEA2BEE9
:1005B000A2BE80FF00C0B0ACABACB0C00000000079
:1005C00000000000000000000000000000FF000428
:1005D0003E0400FF808080808080808080808080DA
:1005E0008080800000FF80FC82FC80FF829B829BD9
:1005F000829B829B829B829B829B82FF00000000E9
:1006000080E0FEFCF8F0E0F0F8FFFEFCF8F8FCFEFD
:10061000FCE0000000C0F0FCFFFFFFFFFFFFFFFF5A
:10062000FFFFFF1F0F1FFFFFFFFFF8E08000010328
:1006300003030303030301000000F0AEAAAEF001C0
:10064000030301010024A870FC70A824000100F03D
:10065000AFF0000100F04F241B244FF000E0A05049
:1006600028140A050A142850A0E0A0E0A0E0A0E0A9
:10067000A0E0A0E0A0E0C0800000000000FF8080BB
:10068000FC8282FC809E929E80FF88F888F888F821
:1006900088F888F888F889FB8FFE8CF80000000045
:1006A000C040C040C078C442C242C478C040C040CC
:1006B000C000000000FC141C171C171C177C4754BA
:1006C0005754477C171C171C171C14FC00FF809FF5
:1006D0009191919F80FCAAA9FFA9AAFC8080808F9C
:1006E000898F80FF00FFC1FF417FC1FF0000FF88AD
:1006F0005522FF000000FF885522FF0000FE915E9A
:100700003E111E1E111E1E113E5E91FE00FF808FC7
:100710008F80FFA9A9A9FF808F8F80FF00000000B4
:100720000000000000F0F89C8E8783878E9CF8F014
:100730000000FEFF0303030303070EFCF80000FEA6
:10074000FF0303030303070EFCF80000FFFF000094
:100750000000000000FFFF0000FEFF83838383830F
:10076000C7EE7C380000F8FC0E07030303070EFCFD
:10077000F800003F7FE0C08080C0E07F3FFFFF01C6
:10078000010101010101FFFF0000FFFF0C0C0C0C37
:100790001C3E77E3C100007FFFC0C0C0C0C0E07056
:1007A0003F1F00001F3F70E0C0C0C0E0703F1F004F
:1007B000007FFFC1C1C1C1C1E3773E1C00001F3FE4
:1007C00070E0C0C0C0E0703F1F000000000001FFEB
:1007D000FF01000000D5F08D14A1C881CFD9F1AF81
:1007E00020000A484F5553494E470A2537640A4AA4
:1007F0004F4253202020464F4F440A25346425376A
:10080000640A4D41494E54454E414E43450A2537F1
:100810006420242F730A4541524E494E47530A25FE
:10082000346420242F730A000A48415050494E4531
:1008300053530A2534642025250A5341464554590B
:100840000A2534642025250A5350495249545541FC
:100850004C4954590A2534642025250A454E5649E9
:10086000524F4E4D454E540A2534642025250A002A
:10087000DB048F042B04C6037D031103B2024E0276
:10088000E40190013F01EB00AC0001040203060803
:10089000070905000C0B0A010104020306080709F9
:1008A00005000C0B000001000A000F0014001900E5
:1008B0001E00320064009600C800FA002C010000FF
:1008C00032008403E8031405DC05D007C409B80B23
:1008D000AC0DA00F941188130A4C4147554E495452
:1008E00049414E530A4C4F5645204C4956494E47B4
:1008F0000A494E20594F555220544F574E0A414EE7
:100900004420544845590A4E455645522046454CC8
:10091000540A415320554E49544544210A000A25A2
:1009200034642050454F504C450A4C4F5354204698
:10093000414954480A494E204C4147554E4954417B
:100940000A414E4420444543494445440A544F20FB
:10095000464F554E440A5448454952204F574E0A77
:10096000544F574E2E0A4255494C44204D4F524544
:100970000A434855524348455320544F0A5249535D
:1009800045204641495448210A000A54484520530D
:100990004845524946460A4D414E41474544205438
:1009A0004F0A50524556454E5420410A42414E444A
:1009B000204F460A42414E444954532046524F4D1F
:1009C0000A535445414C494E470A594F5552204D00
:1009D0004F4E455921000A594F5520484156450A66
:1009E0004245454E20524F42424544210A0A54484E
:1009F0004520544849455645530A53544F4C4520C9
:100A0000253464240A0A4255494C44204D4F52452E
:100A10000A534845524946460A504F535453210AF7
:100A2000002F602F602F60502F202F602E604EA06F
:100A30002D602D602D6050408F804EA02F602F6064
:100A40002F60502F202F602E604EA02D602D602D26
:100A50006050408F804EA02D604D4C8B8DAC4AC8AD
:100A60002D604D4C8B8DAC4AC8074080478B89C8A0
:100A7000C04980498D8BCCA02D2E0F400620204FE1
:100A800026204F2620502F204F24204E24204E2455
:100A90006024204D23204D23204D23205023204F20
:100AA000246024204E246024204F26204F26204FEF
:100AB0002620502F204F24204E24204E2460242016
:100AC0004D23204D23204D23205023204F246024EC
:100AD000204E246024202D2025204D4C4B25204DD8
:100AE00025204C22604A48226022202D2025204DBE
:100AF0004C4B25204D25204C22604A482260222064
:100B0000472160474B2120494148226022602260F2
:100B10002220492360494D23204B23204C2460246C
:100B20006024602D2E0F20602F602F60502F202F0B
:100B3000602E604EA04D23204D23204D23205023B6
:100B4000204F246024204E246024202F602F602F0B
:100B500060502F202F602E604EA04D23204D23206B
:100B60004D23205023204F246024204E2460242035
:100B70002D2025204D4C4B25204D25204C22604A10
:100B800048226022202D2025204D4C4B25204D252C
:100B9000204C22604A4822602220472160474B2196
:100BA0002049414822602260226022204923604976
:100BB0004D23204B23204C2460246024602D2E0FD5
:100BC00020602F602F60502F202F602E604EA02DB0
:100BD000602D602D6050408F804EA02F602F602FC1
:100BE00060502F202F602E604EA02D602D602D6054
:100BF00050408F804EA04B4F4D4B4B4F4D4B484E6E
:100C00004D4C484C4B4A494D4C4B494D4C4B4A4B33
:100C10004C4E4A4D4E4F0B400F404D4B4B4F4D4BA2
:100C2000484E4D4C484C4B4A4954535249545352E8
:100C30004A5152534A54555606400E404F51464E63
:100C40004F51444D4E51444D4E51434D4E4F4350E4
:100C50004F4E444E4D4C444A4B4C06400E404F5173
:100C6000464E4F51444D4E51444D4E51434F5052BC
:100C7000434F5052445253544453514E05400B403D
:100C80004C4D454B4C4D42484B4C42484B4C454BD0
:100C90004C4D454B4C4D42484B4C42484B4C01400F
:100CA0000740494B4147494B42484A4C42484A4C0D
:100CB00043494B4D43494B4D444A4C4E444E4F5093
:100CC00000434C4541520000001D07000401010093
:100CD00000484F555345000000FD06010502020182
:100CE000005741544552000000E506000A01030088
:100CF0000153414C4F4F4E00009D06083203030044
:100D0000014641524D000000005D06081404020037
:100D10000A4D494C4C000000004506011401030037
:100D2000014D494E4500000000FD051E640303000F
:100D30001E4348555243480000B50501960303027F
:100D400000534845524946460095050214020202E6
:100D50000042414E4B0000000075050432020205BE
:100D60000057454544000000006D050002010100E8
:100D70000043414354555300006505000201010042
:100D800000545245450000000045050004020200E1
:100D9000002539645000253964240010307FFF7F1E
:100DA0003010000000D23F579200000000D27FA711
:100DB000020000000022FFA70200000000D27FA76F
:100DC00002000000000B0E1C780E040000101C78BE
:100DD000101C0800002030302038100000101C7853
:100DE000101C08202020202020434F4E53545255E1
:100DF0004354204120202020202020200A20202091
:100E0000202020544F574E2041524F554E44202011
:100E10002020202020200A20202020202054484567
:100E2000204C4147554E495441202020202020206D
:100E30000A2020202020204C414B4520574954486F
:100E4000204153202020202020200A202020202064
:100E5000204D414E5920434954495A454E53202074
:100E6000202020200A202020202020415320504FE5
:100E70005353494C452E20202020202020200A209A
:100E800020202020204D4158494D495A4520594F96
:100E900055522020202020200A20202020202050D1
:100EA000524F46495420544F2020202020202020FB
:100EB00020200A202020202020554E4C4F434B203C
:100EC0004E45572020202020202020200A202020AE
:100ED0002020204255494C44494E475320414E441E
:100EE0002020202020200A20202020202048415699
:100EF000452046554E202020202020202020202044
:100F00000A202020202020504C4159494E472120C2
:100F1000202020202020202020200A2020202020E7
:100F200020202020202020202020202020202020C1
:100F3000202020200A0020202020202020202020E7
:100F40002020202020202020202020202020200AB7
:100F50004C4147554E495441205741532043524537
:100F60004154454420425920200A20202020524547
:100F70004E41544F2047524F54544553492020204E
:100F80002020200A20202020202020202020202077
:100F9000202020202020202020202020200A505205
:100FA0004F4752414D4D494E4720202020202020C0
:100FB000202020202020200A2020202052454E41A1
:100FC000544F2047524F545445534920202020204D
:100FD000200A202020204755555320534C49455086
:100FE000454E2020202020202020200A20202020C4
:100FF00020202020202020202020202020202020F1
:1010000020202020200A4D555349432042592020BA
:101010002020202020202020202020202020200AE6
:10102000202020204A4F414B494D2053494D4F4EDF
:1010300053534F4E20202020200A20202020202003
:1010400020202020202020202020202020202020A0
:101050002020200A202020202020202020202020A6
:10106000202020202020202020202020200A202096
:101070002020202020202020202020202020202070
:10108000202020202020200A002020202020202096
:101090002020202020202020202020202020202050
:1010A00020200A202020202020554E464F52545503
:1010B0004E4154454C592020202020200A20202039
:1010C000202020594F552052554E204F5554202056
:1010D0002020202020200A2020202020204F4620D1
:1010E0004D4F4E45592E202020202020202020200A
:1010F0000A20202020202020202020202020202006
:10110000202020202020202020200A2020202020F5
:101110002052454D454D42455220544F202020201D
:10112000202020200A202020202020434845434B17
:1011300020544845202020202020202020200A2044
:1011400020202020205354415449535449435320D4
:1011500020202020202020200A202020202020576E
:1011600048494C4520504C4159494E4720202020A9
:1011700020200A2020202020202020202020202085
:101180002020202020202020202020200A20202075
:1011900020202054525920414741494E21202020EF
:1011A0002020202020200A20202020202020202055
:1011B000202020202020202020202020202020202F
:1011C0000A20202020202020202020202020202035
:1011D000202020202020202020200A007C447C7C0D
:1011E0007C381000415544494F3A204F4646004153
:1011F0005544494F3A204F4E0048454C5000435209
:10120000454449545300504C415900524553554DA3
:101210004500080B0002020201000904000001025F
:10122000020000052400100105240101010424022C
:10123000060524060001070581031000400904018A
:1012400000020A00000007050202400000070583B3
:10125000024000000403090412010002EF020140F1
:101260004123368000010102030141726475696EF9
:101270006F204C4C430055534220494F20426F6130
:1012800072640000000B0E1C780E040000101C7825
:10129000101C0800002030302038100000101C788E
:1012A000101C080000D23F579200000000D27FA718
:1012B000020000000022FFA70200000000D27FA76A
:1012C000020000F0487C247C48F000FFFC30844899
:1012D000800EFFFFFC300890400EFFFFFC30012223
:1012E000400EFF20402080004010800000000000E1
:1012F00000000000B00000A170E150964F26900F52
:101300001D070C009669004AE44A004844400080EA
:101310006810000F99FB8F9DBDBBFB77D4D4DF1FF6
:101320001A1AFE7F5D5DFF805A0000A0A4AA00107B
:10133000BA3400FF5953F3FF9B9B9EFFB9B996FF48
:101340009595D19FF4940FFC295F91FF1838F8FF11
:101350009294FFFF95D5F7BFB5DDD7F18F81F1F7F7
:1013600088C8F779C6467909FD9B090196F800827D
:10137000818280507162007756560076763700A2DF
:10138000B773010772060078275000733474007732
:101390005176007F55F70047711000324772007395
:1013A00064730015A2750061679400009F6060F48B
:1013B000F2F6F20000880010019901210232034286
:1013C00004000049005200570062006E0083009341
:1013D00000A500AF00C400DC00F700060126014AAA
:1013E000015D018801B801EE010B024B029302007E
:1013F000102111241FBECFEFDAE0DEBFCDBF11E018
:10140000A0E0B1E0E8EBFDE402C005900D92A43449
:10141000B107D9F728E0A4E4B1E001C01D92A130E2
:10142000B207E1F719E0C9EFD9E004C02197FE0146
:101430000E94D426C83FD107C9F70E941A140C9401
:10144000EF220C940000FC018485958597FD0BC06C
:101450009FB7F89482E08093E9008091F2009FBFEB
:1014600090E0019608959FB7F89482E08093E90098
:101470008091F2009FBF90E0089580915701811103
:101480000DC082E08093530184E080935401109258
:1014900056011092550181E08093570183E591E058
:1014A0000895409150015091510120914E01309189
:1014B0004F0142175307B4F49091E8009570E1F39F
:1014C0009091E80092FD19C08093F1008091500145
:1014D0009091510101968F739927892B19F48EEF02
:1014E0008093E80080915001909151010196909372
:1014F00051018093500181E0089580E00895DF92CA
:10150000EF92FF920F931F93CF93DF93D82E8A0110
:101510007B01E40EF51EEB01CE15DF0571F0D7FE61
:1015200003C0FE01849101C088810E94510A219666
:101530008111F2CF8FEF9FEF01C0C801DF91CF91F2
:101540001F910F91FF90EF90DF9008950F931F93DD
:10155000CF93DF931F92CDB7DEB782E0898342E459
:1015600050E062E172E180E80E947F0A0E943D0A39
:10157000DC0112960D911C9113970115110589F04C
:10158000D801ED91FC910280F381E02DBE016F5FE7
:101590007F4FC801099597FD04C0F80100851185AA
:1015A000ECCF89810F90DF91CF911F910F9108951A
:1015B000615030F02091F100FC0120830196F8CFBA
:1015C000289884E6809361010895089580914C01E4
:1015D00008950F931F93CF93DF931F92CDB7DEB77C
:1015E0008C01FC018485958597FF0EC0CE01019684
:1015F0000E94C510019719F4898190E002C08FEF15
:101600009FEFF80195878487F801848595850F9071
:10161000DF91CF911F910F9108951F920F920FB6F6
:101620000F9211248F939F938091E1009091E1009C
:10163000937F9093E10083FF0FC01092E90091E047
:101640009093EB001092EC0092E39093ED001092D7
:10165000620198E09093F00082FF20C093E09093A5
:10166000E9009091F200992319F09AE39093E80031
:1016700090915F01992339F090915F01915090937F
:101680005F01992389F190916101992339F090913B
:101690006101915090936101992341F184FF10C041
:1016A0008091E2008E7E81608093E2008091E10073
:1016B0008F7E8093E100809160018E7E806111C0F9
:1016C00080FF16C08091E2008E7E80618093E200F0
:1016D0008091E1008E7E8093E100809160018E7E9A
:1016E00081608093600104C05D9ACDCF289AD6CFE7
:1016F0009F918F910F900FBE0F901F9018951F9282
:101700000F920FB60F921124CF92DF92EF92FF92B9
:101710000F931F932F933F934F935F936F937F93F9
:101720008F939F93AF93BF93EF93FF93CF93DF93E9
:10173000CDB7DEB76C97DEBFCDBF1092E9008091C8
:10174000E80083FFFBC168E0CE0145960E94D80AFD
:1017500082EF8093E8008D8987FF05C09091E800B3
:1017600090FFFCCF03C09EEF9093E800982F9076F7
:1017700009F0C6C09E894F89588D2F89F88C911128
:101780000CC0803829F480914D018093F10002C093
:101790001092F1001092F10045C1913051F4811185
:1017A00041C14130510509F03DC180914D018D7F0E
:1017B0000BC0933061F4811135C14130510509F0FE
:1017C00031C180914D01826080934D012BC19530D4
:1017D00049F48091E80080FFFCCF822F80688093DD
:1017E000E30020C1963009F05EC00B8D1C8D22E015
:1017F0001092E9001092510110925001F21232C081
:1018000010924F0110924E010E94A60A99E0BE016B
:101810006F5F7F4FDB01E92F1D92EA95E9F799830E
:10182000FA8291E09E8390EA98879AEF99872091B7
:10183000500130915101275F3F4F3C832B838D83B3
:101840001092E900109251011092500110934F0133
:1018500000934E0149E050E080E00E947F0A0E9420
:10186000A60AE0C010934F0100934E010E943D0A6A
:10187000DC0112960D911C9113970115110509F4C5
:10188000BBC0D801ED91FC910480F581E02DBE0133
:101890006B5E7F4FC8010995009709F0C7C0F8013A
:1018A00000851185EACF973009F445C1983021F4BD
:1018B00081E08093F100B6C0993009F0B3C0837025
:1018C00009F039C1E5E1F1E081E031E096E3208102
:1018D000211109C08EE78093EA001092EA008F89F7
:1018E000809362019FC08093E9003093EB002191C7
:1018F0002093EC009093ED008F5F873041F7EACFA3
:101900008B8D9C8D1092E900109251011092500124
:1019100090934F0180934E01898D811153C08E8920
:101920009D89913A49F4813209F005C147E050E0C0
:1019300064E071E080E0BBC0913209F0FCC083320A
:1019400069F48F89988DA0E0B0E0809300019093B6
:101950000101A0930201B093030164C0803269F4D5
:101960008091E80082FFFCCF67E084E091E00E9474
:10197000D80A8BEF8093E80055C0823209F052C03C
:101980008F8980930B01EEEFFFE7859194918B3F58
:101990009C4D19F0E0E0F8E002C0EEEFFAE0809133
:1019A000040190910501A0910601B0910701803BCF
:1019B0009440A105B10509F09EC080910B0180FF04
:1019C00079C099C00E943D0AFC0102811381011572
:1019D000110509F4B0C0D801ED91FC910190F0819E
:1019E000E02DBE016B5E7F4FC801099581111AC0C1
:1019F000F80100851185EBCFF1E0FF1609F44EC028
:101A0000F3E0FF1298C08F89882309F44AC082301E
:101A100089F440E86CE086E792E10E94DB208823AD
:101A200009F489C08EEF8093E80088C01816190663
:101A3000CCF381C0813029F440E86BE08AE692E182
:101A4000ECCF833009F077C00E943D0ADC0112968A
:101A5000ED90FC9013978E010F5F1F4F6801E1140A
:101A6000F10479F0D701ED91FC910680F781E02D2A
:101A7000B801C7010995080F111DF701E084F18431
:101A8000EECFD8011C92F60101900020E9F73197C2
:101A9000BF016C197D0940E0C601BFCF68E572E166
:101AA00002C064E572E1FB01449150E080E80E94CD
:101AB0007F0AB8CFEE3F2AE0F20751F08081918192
:101AC0008737A7E79A0721F09093FF0A8093FE0AD1
:101AD00087E797E79183808380916000809352012C
:101AE0009BE088E10FB6F894A895809360000FBE44
:101AF0009093600097CF808191818737974709F055
:101B000091CFA8958091600088618093600080915A
:101B1000520180936000EE3FBAE0FB0739F08091FC
:101B2000FE0A9091FF0A918380837CCF1092FF0A76
:101B30001092FE0A77CF81E28093EB006C960FB68D
:101B4000F894DEBF0FBECDBFDF91CF91FF91EF9133
:101B5000BF91AF919F918F917F916F915F914F91C5
:101B60003F912F911F910F91FF90EF90DF90CF90B9
:101B70000F900FBE0F901F90189580389105B8F404
:101B800060347105A0F490E121E061FD24E060FD86
:101B9000220F62FD2295687F969FD0011124A80F25
:101BA000AB59BE4F8C91822B40FF82278C930895B6
:101BB0002D9A0895BC0180E090E00C9499128FB1A9
:101BC0008095807F669B88601C9B8460089582E07E
:101BD00090E00E94912681110C9414140C940F141F
:101BE0002FB7F89483E08093E9009091E800892F63
:101BF000807295FF04C09091F20080E4891B2FBF92
:101C00000895CF93DF931F92CDB7DEB76983DC01D0
:101C1000ED91FC910280F381E02D41E050E0BE01A6
:101C20006F5F7F4F09950F90DF91CF91089583E00B
:101C30008093E9008091F200882319F08AE3809371
:101C4000E80008950E94F00D90E008958F929F9211
:101C5000AF92BF92CF92DF92EF92FF920F931F93BA
:101C6000CF93DF936C017B018A0180910B01882364
:101C700009F45CC080916201882309F457C0809107
:101C8000600180FF05C08091E00082608093E000E9
:101C9000E801B12C8AEFA82E93E0892E2AE3922E38
:101CA000209711F4BB20D9F10E94F00D81110AC0D8
:101CB000AA94AA20D9F161E070E080E090E00E944F
:101CC0009912EECF282F30E0C217D3070CF48C2FD7
:101CD0009FB7F8948092E9002091E80025FF1DC08D
:101CE000282F30E0C21BD30BF701815020F0419127
:101CF0004093F100FACFE20EF31EBB2019F0909250
:101D0000E8000AC08091E80085FD07C09092E800D5
:101D1000BB24B394209709F0B12C9FBFC1CF5D982D
:101D200084E680935F011016110644F081E090E094
:101D3000F6019383828380E090E001C0C801DF91C7
:101D4000CF911F910F91FF90EF90DF90CF90BF90B8
:101D5000AF909F908F900895E5E6F1E0A0E0B8E0A5
:101D600000800EBC8111012C1197A0FDFDCF0192C6
:101D7000B9F70DB4089520916B05282329F49091AB
:101D80006A05982381E009F480E008950F931F937A
:101D9000CF93DF938C01C0E0D0E0F801EC0FFD1F82
:101DA0006491662341F080E795E00E94BA11892B87
:101DB00011F02196F2CFCE01DF91CF911F910F91BB
:101DC00008956115710579F0FB0101900020E9F794
:101DD0003197AF01461B570BDC01ED91FC9102805E
:101DE000F381E02D099480E090E008952F923F92D6
:101DF0004F925F926F927F928F929F92AF92BF921B
:101E0000CF92DF92EF92FF920F931F93CF93DF93C6
:101E10007C016B01C0E0D0E088248394912C04E025
:101E200010E098EF692E77247A942DEFA22EBB2430
:101E3000BA94842F8470582E842F8270482E842F59
:101E40008870382E4170242E219682E0880E911CD5
:101E5000A80CB91C552091F041E0B8016C0D7D1D16
:101E6000C7018C0F9D1F0E94BD0D41E0B6016C0F94
:101E70007D1FC8018E0D9F1D0E94BD0D442091F055
:101E800041E0B601601B710BC7018C0F9D1F0E94C2
:101E9000BD0D41E0B6016C1B7D0BC8018E0D9F1D71
:101EA0000E94BD0D332091F041E0B6016C0F7D1F03
:101EB000C701801B910B0E94BD0D41E0B8016C0D64
:101EC0007D1DC7018C1B9D0B0E94BD0D21100DC0F7
:101ED000C017D107ECF4B7FCB7CF0150110982E06D
:101EE000680E711CA60CB71CAFCF41E0B6016C1B8D
:101EF0007D0BC701801B910B0E94BD0D41E0B60117
:101F0000601B710BC7018C1B9D0B0E94BD0DE0CFA8
:101F1000DF91CF911F910F91FF90EF90DF90CF90C5
:101F2000BF90AF909F908F907F906F905F904F90F9
:101F30003F902F9008959C01240F311D1216130617
:101F400074F5803891055CF597FF02C080E090E061
:101F50002138310514F020E830E0281BAB01477030
:101F6000552731E001C0330F4A95EAF777FF02C0E9
:101F7000695F7F4F43E0759567954A95E1F77695E0
:101F8000762F662777956795860F971FFC01EB598B
:101F9000FE4F215020F08081832B8193FACF08954A
:101FA0002F923F924F925F926F927F928F929F9269
:101FB000AF92BF92CF92DF92EF92FF920F931F9357
:101FC000CF93DF93CDB7DEB72A970FB6F894DEBF75
:101FD0000FBECDBF5A01822E912C9401280F391FBC
:101FE00037FDBAC0803891050CF0B6C09B01200FB8
:101FF000311D37FDB1C0603471050CF0ADC0AB01CF
:1020000077FF04C044275527461B570B47705527B9
:102010009B0177FF02C0295F3F4FE3E0359527958D
:10202000EA95E1F777FF08C02150310968E070E0D8
:10203000FB01E41BF50BAF01202E26942694269479
:10204000312C077019F0FFEF2F1A3F0A220E331EB2
:1020500039017694762C662477946794680E791EFD
:10206000E12CF12C00E010E0B30160587F4F7A873B
:10207000698768E070E0FB01E41BF50BFA83E983F4
:102080002216330609F468C02830310509F464C00B
:102090002F3FFFEF3F070CF454C0E985FA85E00FAE
:1020A000F11FBF016B597E4F7C836B83D801A60D56
:1020B000B71DAB59BE4F6C0160E070E06815790543
:1020C0000CF03FC0E0E8CE16D10409F43AC0D7FCCA
:1020D0002CC02F3FFFEF3F0709F43AC0FB01EE0D84
:1020E000FF1DEA0DFB1DE491042E01C0EE0F0A94C2
:1020F000EAF7FC91EF2BEC9341155105B1F0273035
:10210000310599F0FB01EE0DFF1DEA0DFB1DE49179
:102110004E2E512C098002C0559447940A94E2F740
:10212000EB81FC815080452840826F5F7F4FEB81BF
:10213000FC813196FC83EB83FFEFCF1ADF0A119607
:10214000BDCF2F5F3F4F00581F4FE80CF91C98CFB1
:1021500041155105B9F6E9CF2A960FB6F894DEBFBE
:102160000FBECDBFDF91CF911F910F91FF90EF90E8
:10217000DF90CF90BF90AF909F908F907F906F90A7
:102180005F904F903F902F90089520916201211110
:1021900003C08FEF9FEF08955FB7F89422E020937C
:1021A000E9002091F20030E01216130614F421E049
:1021B00030E0422FFC0184E6415038F028988093AB
:1021C00061019091F1009193F7CF2115310521F034
:1021D0008091F200882319F05FBFC90108958BE652
:1021E0008093E800F9CFCF93DF931F92CDB7DEB78E
:1021F000FC018485958597FD05C02FEF3FEF35875E
:1022000024870BC0CE0101960E94C510019719F4D6
:10221000898190E002C08FEF9FEF0F90DF91CF9107
:102220000895CF92DF92EF92FF920F931F93CF9377
:10223000DF936C017A018B01C0E0D0E0CE15DF05A1
:1022400081F0D8016D918D01D601ED91FC91019045
:10225000F081E02DC6010995892B11F02196EECF72
:102260007E01C701DF91CF911F910F91FF90EF90F9
:10227000DF90CF9008954F925F926F927F928F92EE
:102280009F92AF92BF92CF92DF92EF92FF920F9305
:102290001F93CF93DF936C013B01102F38E0832E07
:1022A000912C7A01FF24270193E0559447949A9545
:1022B000E1F7CA0187709927892B41F5D601179656
:1022C000CD91DC911897C3019927BE010E94C026C9
:1022D0004C9EF0014D9EF00D5C9EF00D112499274F
:1022E000D60115964D915C9116978E0F9F1FFA019E
:1022F000E80FF91F111106C0C22FC09520812C23B1
:10230000208327C0C081C22BC08323C0C22FD0E04E
:102310004770A42EB12C720183E0EE0CFF1C8A954D
:10232000E1F79E0101C0220F4A95EAF7012FA701AC
:10233000B301C6010E943B11C4018A199B0902C066
:10234000D595C7958A95E2F72C2FA701485F5F4F77
:10235000A8CFDF91CF911F910F91FF90EF90DF9069
:10236000CF90BF90AF909F908F907F906F905F9035
:102370004F9008955F926F927F928F929F92AF924B
:10238000BF92CF92DF92EF92FF920F931F93CF9362
:10239000DF93EC0189899A8997FD06C02B893C89D6
:1023A000821793070CF488C0162F6A3061F48D856C
:1023B0009E859C878B872F898F859889820F911D99
:1023C000988B8F8774C0CB84DC84693031F489E0CA
:1023D000C80ED11CDC86CB866AC09DEFC9169FEF64
:1023E000D90654F48E8990E004962B853C85820FA3
:1023F000931F9C878B875BC08F819885C816D906F1
:102400008CF7EF84F8888DEFE8168FEFF80654F319
:1024100089859A85E816F9062CF7603208F41FE7DB
:1024200080EE810F9FE9910F9A3118F49FEFE91A1E
:10243000F90A8C3011F08B3119F49FEFE91AF90A7F
:10244000869594E0899F50011124360184E0680E3E
:10245000711C46011170F401EC19FD09EA0DFB1D18
:10246000ED50FD4E8491111103C08F70582E04C0A1
:10247000582E52948FE058228C81882351F001E02D
:102480008D89811100E02FE0A701B401CE010E94E7
:102490003B110D89252DA701B401CE010E943B11EE
:1024A0009FEF891A990A68147904A9F69BCF8B8942
:1024B0009C8901969C8B8B8B81E090E0DF91CF9182
:1024C0001F910F91FF90EF90DF90CF90BF90AF9052
:1024D0009F908F907F906F905F900895089580E017
:1024E00090E008950E94A7263FB7F8948091FD07D9
:1024F0009091FE07A091FF07B091000826B5A89B18
:1025000005C02F3F19F00196A11DB11D3FBFBA2F85
:10251000A92F982F8827820F911DA11DB11DBC01E5
:10252000CD0142E0660F771F881F991F4A95D1F7AA
:1025300008958F929F92AF92BF92CF92DF92EF92C7
:10254000FF926B017C010E9474124B015C01C1146B
:10255000D104E104F104F1F00E947412DC01CB011A
:1025600088199909AA09BB09883E9340A105B105BC
:1025700070F321E0C21AD108E108F10888EE880E54
:1025800083E0981EA11CB11CC114D104E104F10424
:1025900019F7DDCFFF90EF90DF90CF90BF90AF9015
:1025A0009F908F9008951F920F920FB60F92112453
:1025B0002F933F938F939F93AF93BF938091470146
:1025C00090914801A0914901B0914A013091FC07D6
:1025D00023E0230F2D3720F40196A11DB11D05C066
:1025E00026E8230F0296A11DB11D2093FC078093BE
:1025F000470190934801A0934901B0934A0180910B
:10260000FD079091FE07A091FF07B0910008019689
:10261000A11DB11D8093FD079093FE07A093FF07B6
:10262000B0930008BF91AF919F918F913F912F91EF
:102630000F900FBE0F901F901895CF92DF92EF92E0
:10264000FF920F931F93CF93DF93E0914401F0919A
:102650004501CF01019690934501809344018491F7
:1026600081110BC0809171008D7F80937100109259
:10267000910046981092460170C091E090934601F7
:10268000E82FEF71F0E0EE0FFF1FEF53FC4EC59106
:10269000D491E82FF0E055E0F595E7955A95E1F7EC
:1026A000EE0FFF1FED54FC4E05911491209761F43D
:1026B0009093F70746983FE9C32E3FE0D32EE12CD5
:1026C000F12CCAEFD0E014C06E01E12CF12C60E4D3
:1026D00072E48FE090E0A70196010E94F72569015E
:1026E0007A0181E0C81AD108E108F1081092F707D1
:1026F000E0916301F09164010995811103C081E0CB
:102700008093F7070115110571F09801DE010E9411
:102710008226DC01CB0129E0B595A7959795879591
:102720002A95D1F704C081E090E0A0E0B0E01092DB
:1027300090002AE020939100D0929900C0929800D6
:102740008093F8079093F907A093FA07B093FB07DB
:1027500080917100826080937100DF91CF911F9111
:102760000F91FF90EF90DF90CF9008951F920F92FE
:102770000FB60F9211242F933F934F935F936F9354
:102780007F938F939F93AF93BF93EF93FF9380912A
:10279000F8079091F907A091FA07B091FB07892BF0
:1027A0008A2B8B2B49F18091F707811104C098B1D6
:1027B00080E4892788B98091F8079091F907A09162
:1027C000FA07B091FB07181619061A061B06B4F48F
:1027D0008091F8079091F907A091FA07B091FB0753
:1027E0000197A109B1098093F8079093F907A09385
:1027F000FA07B093FB0702C00E941D13FF91EF91EF
:10280000BF91AF919F918F917F916F915F914F9108
:102810003F912F910F900FBE0F901F90189510921F
:102820004C013E983F9808953E9A3F9A81E08093EC
:102830004C010895CF93DF93CDB7DEB7A5970FB6C0
:10284000F894DEBF0FBECDBF789484B5826084BD9E
:1028500084B5816084BD85B5826085BD85B58160A4
:1028600085BD80916E00816080936E001092810022
:1028700080918100826080938100809181008160DD
:10288000809381008091800081608093800080919E
:10289000910082608093910080919100816080938B
:1028A0009100809190008160809390008091C100A0
:1028B00084608093C1008091C10082608093C100D8
:1028C0008091C10081608093C1008091C3008160CC
:1028D0008093C3008091C00082608093C00080918B
:1028E000C20081608093C20080917A0084608093EE
:1028F0007A0080917A00826080937A0080917A00D9
:10290000816080937A0080917A00806880937A0059
:102910001092620110924D01109260018091D700D7
:1029200081608093D70080EA8093D80089B5806168
:1029300089BD89B5826089BD09B400FEFDCF61E023
:1029400070E080E090E00E9499128091D8008F7C26
:1029500080618093D8008091E000807F8093E000C8
:102960008091E1008E7E8093E1008DE08093E20013
:10297000559A209A81EC80937C0085B1806F85B94F
:1029800084B1877E84B984B1876E84B95E9A5F987A
:102990008AB1806D8AB9769A6E9881B3806F81BB57
:1029A000899880B38D7080BB80E58CBD81E08DBD42
:1029B00085E090E00E94DA0D5F9A85E090E00E9449
:1029C000DA0D5E985C98E5EDF7E084918EBD00002D
:1029D0000DB407FEFDCF319627E0E23EF207A9F7DE
:1029E0005C9A81E8809364008091650081608093A7
:1029F000650080E00E94AC0E0E94DF0D87FF24C0BE
:102A00005C9885EA8EBD00000DB407FEFDCF5C9A90
:102A10002E982F982D988091640080628093640096
:102A200081E083BF889513BEFCCF2D980E94DF0DF7
:102A30008478843871F00E94DF0D8471843131F123
:102A400088EC90E00E94DA0D0E94DF0D82FDEDCF50
:102A50003AC00E94D80D88EC90E00E94DA0D2F98C1
:102A600082E090E00E9491268F3F29F06FEF82E094
:102A700090E00E94992684EF91E00E94DA0D2F9A4F
:102A80000E94DF0D84788438D9F3D5CF0E94D80D09
:102A900088EC90E00E94DA0D2E9882E090E00E948F
:102AA0009126882329F060E082E090E00E94992638
:102AB00084EF91E00E94DA0D2E9A0E94DF0D84715E
:102AC0008431D9F3BDCF0E94D80D0E94E70D81E07B
:102AD00090E00E949126182F147081E090E00E94EF
:102AE000912681FF3BC011112E98F0EFEF2EFF24AD
:102AF000FA940E94DF0D86FF05C02E9A2F9A0E943D
:102B0000D80D2CC0112331F034E0E316F10411F498
:102B10002E9A2F9881E00E94AC0E00E128E545E254
:102B200057E0B70184E190E00E94D00F80E00E945E
:102B3000AC0E8FE090E00E94DA0D4FEFE41AF40A39
:102B400059E1E516F104A9F6112311F02F9A2D98F9
:102B500080E991E00E94DA0D0E94D80D82E390E0B6
:102B60000E94DA0D0E94DF0D8111F8CF8FE1809372
:102B70006C050E94E70D8FB7F89440914701509182
:102B800048016091490170914A018FBF80916D05A4
:102B9000942F981B892F90916E05992331F0809383
:102BA0006F0510926E050C94311F90916C0589177A
:102BB00058F48F5F891710F00C94311F81E083BFA8
:102BC000889513BE0C94311F81E080936E0540936D
:102BD0006D0580916805909169050196909369054E
:102BE0008093680580916A0580936B050E94DF0DD4
:102BF00080936A058091460181110DC0809171001A
:102C00008D7F8093710081E29AE0909345018093DB
:102C100044010E941D138091A507823009F4C7C4A6
:102C200030F4882359F0813009F467C1CAC4833075
:102C300009F4BDC4843009F4BAC4C3C480E80E9456
:102C4000BB0E882399F08091A607813049F030F0BF
:102C5000823049F0833051F482E006C083E004C042
:102C60001092A60703C081E08093A60780E10E942E
:102C7000BB0E8823A1F08091A607813051F038F077
:102C8000823059F0833059F41092A60708C081E0D1
:102C900001C082E08093A60702C083E0FBCF88E0FA
:102CA0000E94BB0E882309F48CC48091A607813052
:102CB00009F413C138F0823009F411C1833009F4EA
:102CC00012C17FC48091A307811105C11092AE0586
:102CD0001092AD051092AF051092B1051092B0059B
:102CE0001092B6061092B5061092B8061092B7066A
:102CF0001092BC061092BB061092BE061092BD0642
:102D00001092C0061092BF061092C2061092C10621
:102D10001092C4061092C3061092C6061092C50601
:102D200081E08093070787EE93E0909309078093F3
:102D300008071092210710921F071092A207109205
:102D4000A1071092A3071092A40785E090E090934A
:102D5000B2068093B1068FE790E09093B40680931B
:102D6000B306E2E1F7E08FE197E011928E179F073B
:102D7000E1F780E090E0FC01E759FA4F24A12E7FB3
:102D80002D7F24A301968D309105A9F780918E05A2
:102D90008160826080938E052FB7F89480914701FF
:102DA00090914801A0914901B0914A012FBF8093B1
:102DB0000A0790930B07A0930C07B0930D072FB74A
:102DC000F8948091470190914801A0914901B091F8
:102DD0004A012FBF80930E0790930F07A09310070F
:102DE000B0931107809164008E7F8093640080917E
:102DF0007A00806480937A0080917A0086FDFCCF0F
:102E000000917800109179000E94741220E030E067
:102E1000980111270027600F711F821F931F2091B7
:102E2000640021602093640061157105810591059E
:102E300011F00E94E62202EB15E09FE0D92EE12C72
:102E4000FF24F3943AE0C32E4CE0B42E5BE0A52EB1
:102E5000D8011C920E943D22B7010E94C0268D21FC
:102E6000823061F02CF4813059F4F801A08208C05E
:102E7000853034F4F801B082D12C04C0D801CC9252
:102E80008FE0D82E0F5F1F4FF6E0013B1F0701F7C1
:102E900007EC16E0A7EECA2EA6E0DA2EB8EFEB2E6E
:102EA000B7E0FB2E0E943D22B7010E94AC26D8015C
:102EB00091969C938E9390970E943D22B7010E9419
:102EC000AC26F801819391938F01CE16DF0651F75E
:102ED00081E08093A30781E003C082E001C083E02A
:102EE0008093A5076EC380914C01882319F00E943E
:102EF0000F1467C30E94141464C380911F078111CB
:102F000049C08091AF05811145C00E94DF0D282F77
:102F1000207285FF1CC08091AD059091AE05009791
:102F200019F48EEF90E001C001979093AE05809365
:102F3000AD0588E08093AF058091B105803210F433
:102F400021E0280F2093B1051092B00523C00E9404
:102F5000DF0D86FF1DC08091AD059091AE050196F5
:102F60006FEF70E00E94AC269093AE058093AD05A4
:102F700088E08093AF058091B105803210F48F5FB7
:102F800001C080E28093B10581E08093B00502C06A
:102F90001092B1058FB7F894809047019090480146
:102FA000A0904901B0904A018FBF80910A0790918B
:102FB0000B07A0910C07B0910D07A5019401281BE8
:102FC000390B4A0B5B0BDA01C901893E9340A1051D
:102FD000B10508F4D7C22091A1073091A207A90139
:102FE0004F5F5F4F5F8F4E8F44E66E8D7F8D469FA4
:102FF000C001479F900D11246091B7067091B806EB
:103000006F5F7F4F0E94AC267BA36AA380920A0762
:1030100090920B07A0920C07B0920D0742EB55E07F
:1030200059A348A3E12CF12C1F8A1E8A198E188EF1
:1030300066246394712C1B8E1A8E1D8E1C8E41E0AB
:1030400050E05D8B4C8BC12CD12C212C312C412C90
:10305000512C04EC19E0A8A1B9A14D91B9A3A8A3E2
:10306000B0E14B9FC0011124FC01E053F34FE49108
:103070002E0E311CFC01E153F34FE491CE0ED11C16
:10308000FC01E553F34FE4916C897D896E0F711D4E
:103090007D8B6C8B4130F1F474E0470E511CE1E202
:1030A000F0E0C701805F9E4F9DA38CA38CA19DA1E2
:1030B0008E1B9F0B3197B9F16FEF70E00E94C02615
:1030C000DC01AE54BA4F8C91823081F794E0490E06
:1030D000511CECCF493019F408571C4E24C047301E
:1030E00031F4AC8DBD8D1196BD8FAC8F1CC04830B6
:1030F00031F4EA8DFB8D3196FB8FEA8F14C044309A
:1031000021F4F1E26F0E711C0EC0453021F456E13E
:10311000650E711C08C0433031F4688D798D6F5F86
:103120007F4F798F688F4A50433030F44E895F89E2
:103130004F5F5F4F5F8B4E8B5FEFE51AF50A6FEFC6
:10314000E616F10409F087CF5092B6064092B50614
:103150003092BC062092BB06D092BE06C092BD063D
:103160004C895D895093B8064093B7067092BA06B1
:103170006092B9064AA15BA1429DC001439D900D9A
:10318000529D900D112464E670E00E94AC2680915F
:10319000080790910907680F791FC616D70638F4FB
:1031A0006C197D09709309076093080704C0109299
:1031B00009071092080780910807909109070817DE
:1031C000190720F4109309070093080720313105EF
:1031D000C8F048EE53E06E897F89649FC001659F07
:1031E000900D749F900D11244AE0429FB001439FBF
:1031F000700D1124E4E076956795EA95E1F70E9459
:10320000AC2602C064E670E07B0175E6E716F104C7
:1032100018F054E6E52EF12CF092C606E092C506B1
:1032200028313105C8F088EE93E0488D598D489FCC
:10323000F001499FF00D589FF00D11244AE0429F84
:10324000C001439F900D112468E170E00E94AC26FC
:10325000CF010E94AC2602C064E670E08B016536A7
:10326000710510F004E610E01093C0060093BF064D
:1032700024363105C8F088EE93E04C8D5D8D489F73
:10328000F001499FF00D589FF00D11244AE0429F34
:10329000C001439F900D112464E670E00E94AC26AB
:1032A000CF010E94AC2602C064E670E0FB016536E7
:1032B000710510F0E4E6F0E0F093C406E093C30675
:1032C00024363105C8F088EE93E04A8D5B8D489F27
:1032D0006001499FD00C589FD00C11244AE0429FB6
:1032E000C001439F900D112464E670E00E94AC265B
:1032F000C6010E94AC2602C064E670E0CB016536D0
:10330000710510F084E690E09093C2068093C106A8
:103310000E0D1F1DE00FF11FE80FF91FF695E79541
:10332000F695E795E49DC001E59D900DF49D900D07
:10333000112464E670E00E94AC268C899D89681790
:10334000790708F4CB012817390718F42E8D3F8D23
:1033500008C02230310548F08217930730F421501D
:1033600031093093A2072093A1078091A107909182
:10337000A2076816790620F47092A2076092A1074E
:1033800080911F078111FEC080910E0790910F0759
:10339000A0911007B091110775016401C81AD90AEC
:1033A000EA0AFB0A0E943D22092E000CAA0BBB0B65
:1033B000805A9541AF4FBF4F8C159D05AE05BF0597
:1033C00008F08FC080920E0790920F07A09210070E
:1033D000B09211070E943D2262E070E00E94C02678
:1033E0008C010097E9F58091950580FFCBC0809115
:1033F000C1069091C2068436910580F40E943D2258
:103400006091080770910907769567950E94AC2630
:103410008C011F938F9386ED99E004C01F921F9239
:103420008AE899E09F938F931F9280E88F9381E2BF
:1034300097E09F938F930E9426230FB6F894DEBFE8
:103440000FBECDBF81E080931F0780910807909148
:103450000907801B910B909309078093080792C07E
:10346000019709F08FC08091940580FF8BC08091F7
:10347000C3069091C4068436910580F40E943D22D3
:103480006091A1077091A207769567950E94AC267E
:103490008C011F938F938EE199E005C01F9281E00C
:1034A0008F9388ED98E09F938F931F9280E88F937E
:1034B00081E297E09F938F930E9426230FB6F894A2
:1034C000DEBF0FBECDBF81E080931F078091A107B3
:1034D0009091A207801B910B9093A2078093A10764
:1034E00051C06091080770910907E090A107F09022
:1034F000A207A2E1B7E044EA58E02EEB38E080E012
:1035000090E01C91111117C0F901C590D4906C1571
:103510007D0590F0FA01C590D490EC14FD0460F0A4
:10352000FC01E956F74FE491F0E0E357FA4F1081C0
:103530001695117001C012E01D931130D1F4FC01F9
:10354000E657F74FE491F0E0E759FA4F24A12160E4
:1035500024A3FC01EE0FFF1FE059F74F6591749112
:1035600040E850E081E297E00E94F22210931F07AA
:1035700009C001964E5F5F4F2E5F3F4F8D30910522
:1035800009F0BFCFE090BB06F090BC062090BD06CE
:103590003090BE062E143F0408F46DC480910807D5
:1035A000909109078436910508F065C4FBC588E051
:1035B0000E94BB0E8111FCC584E00E94BB0E8111EC
:1035C000F7C580E0E5E6F1E081118FEF00248193FB
:1035D0008193819381930394D1F78091A5078230E1
:1035E00009F405C430F4882329F1813009F4CBC0F3
:1035F00035C4833009F416C4843009F02FC482E046
:1036000090E090937E0580937D0590937C05809358
:103610007B051092800510927F058FEF9FEF9093AE
:10362000820580938105109284051092830589E8B4
:1036300090E112C48AE290E090937E0580937D052C
:1036400090937C0580937B0584E190E090938005C6
:1036500080937F058FEF9FEF909382058093810584
:1036600010928405109283058091A307882319F096
:103670008BE092E102C086E092E10E94C60E0AE26F
:1036800010E010937E0500937D0510937C05009358
:103690007B058EE190E09093800580937F05EE247A
:1036A000EA94FE2CF0928205E09281051092840546
:1036B000109283058EEF91E10E94C60E10937E0555
:1036C00000937D0510937C0500937B0588E290E0D4
:1036D0009093800580937F05F0928205E0928105AA
:1036E000109284051092830589EF91E10E94C60E25
:1036F00010937E0500937D0510937C0500937B0558
:1037000082E390E09093800580937F05F09282059C
:10371000E0928105109284051092830580914C01FE
:10372000882319F08FEE91E102C084EE91E10E94AE
:10373000C60E8091A6078130A1F060F08230C1F002
:10374000833009F08BC308E028E04CED51E160E3E1
:1037500070E014C008E028E04CED51E162E170E057
:103760000DC008E028E04CED51E16CE170E006C0CE
:1037700008E028E04CED51E166E270E080E290E084
:103780000E94D00F6BC310914B011F5F10934B0130
:103790008091B005882311F081E001C08FEFE090A7
:1037A000AF058E9DE02C1124C12ED12C36017594CD
:1037B000679475946794130153E025223324C10163
:1037C00063E0880F991F6A95E1F7BC016D53724F52
:1037D0001B0177EC872E76E0972EE7EEAE2EE6E023
:1037E000BE2EF8EF4F2EF7E05F2E0E2C000CFF08D8
:1037F000D4018D919C910196B2010E94AC26F401F6
:10380000819391934F012091AD053091AE0543E036
:10381000220F331F4A95E1F74FEF50E0421B530B45
:103820009A012E0D3F1D820F931FB2010E94AC26FC
:1038300008E028E0A10168E070E00E94D00FA81421
:10384000B904B1F68091A1079091A20724E0969562
:1038500087952A95E1F7582E50E1581710F480E12A
:10386000582EC60188719927BC016D55724F6B01A6
:10387000412C137008EF802E07E0902E541471F144
:1038800011110AC0D5018D919C910196B4010E943D
:10389000AC26F50191838083D5012D913D915D0189
:1038A0008091AD059091AE05B3E0880F991FBA9550
:1038B000E1F7EFEFF0E0E81BF90BCF018E0D9F1D54
:1038C000820F931FB4010E94AC2608E028E0A601F5
:1038D00066E270E00E94D00F4394D0CFF8E2EF1A76
:1038E000F108FBEFAF2EBB24BA94A4E08A2E912CF2
:1038F0008091AD059091AE0581509F4F8A0D9B1D23
:103900006FEF70E00E94AC266C018091B10690913F
:10391000B206C816D90639F08091B3069091B40664
:10392000C816D90619F4E3E012E002C0E0E011E0A5
:10393000F0E0EE0FFF1FEB59FA4F45A956A908E03A
:1039400028E064E270E0C7010E94D00F812F90E070
:10395000FC01EE0FFF1FEB59FA4FDC01AB59BA4FD8
:10396000DF966C9170E0C3010E94C02663E0880F6F
:10397000991F6A95E1F745A956A9480F591F28E0F4
:1039800068E270E0C7010E94D00FF601EE54FA4FD2
:10399000808120E1829FC0011124FC01E753F34F95
:1039A00045915491FC01E353F34F2491FC01E25300
:1039B000F34F8491082F000F000F000F220F220FEA
:1039C000220FB401681B7109E3E0660F771FEA95C7
:1039D000E1F76A5F7F4FC7010E94D00F3FEFA31A44
:1039E000B30A48E0E40EF11C51E1A516B10409F058
:1039F0007FCFE090070717E060E1E69E7001112499
:103A0000C7018353934F6C01F601249130E02A5F84
:103A10003F4F812F90E0281739077CF008E028E01D
:103A20004BE95DE060E070E033E0880F991F3A9564
:103A3000E1F70E94D00F1F5FE7CFE0918B05F09177
:103A40008C051686158614861386108A17860FEF46
:103A50001FEF128B018B148A138AB7016F53734FB8
:103A600048E050E0CE0101960E94F222BE016F5F55
:103A70007F4F80918B0590918C050E94E10EE09123
:103A80008B05F0918C051686158614861386A5E0A5
:103A9000CA2ED12CD08AC786128B018B148A138A26
:103AA000F701E453F34F84914AE0BE016F5F7F4F0B
:103AB000F5E08F9FC00111240E940123BC01809179
:103AC0008B0590918C050E94E10E809109078F93E0
:103AD000809108078F9386E99DE09F938F931F92B3
:103AE000B0E1BB2EBF9221E030E02C0F3D1F3F9391
:103AF0002F930E942623E0918B05F0918C058EE494
:103B0000E82EF12CF686E586F486E386108A178681
:103B1000128B018B148A138ABE016F5F7F4FCF0116
:103B20000E94E10E8091A2078F938091A1078F934D
:103B300081E99DE09F938F931F92BF9241E050E0F7
:103B40004C0F5D1F5F934F930E942623E0918B05DE
:103B5000F0918C05F686E586F486E386D08AC786E2
:103B6000128B018B148A138ABE016F5F7F4FCF01C6
:103B70000E94E10E0FB6F894DEBF0FBECDBFE0E0AD
:103B8000F0E0A12C93E0B92ECF018B519C4F6C013A
:103B9000C5018E1B9F0BDC01AB59BE4F7D0100E0C0
:103BA00010E096012556314081E090E001151105A5
:103BB00011F480E090E0D901A81BB90BAB59BE4FBE
:103BC0008C91898BD6018D916D018A8B81E090E07B
:103BD0000F37110511F480E090E02B593E4FD901C9
:103BE000A80FB91F8C918B8B20914B0130E083E0A3
:103BF000359527958A95E1F7C90163E070E00E9449
:103C0000C026A1E1B0E0AC0FBD1FA80FB91F9C906A
:103C1000C901019663E070E00E94C026A1E1B0E016
:103C2000AC0FBD1FA80FB91F4C91C901029663E0EC
:103C300070E00E94C026A1E1B0E0AC0FBD1FA80F4C
:103C4000B91F5C91892D8870682F660FB0E84B9F73
:103C5000C0011124862B991C9924991C8929642F51
:103C6000607470E095E0759567959A95E1F7862BFD
:103C7000252F207230E063E0359527956A95E1F7AE
:103C8000282B842F807190E095958795822B447026
:103C9000440F440F440F482B52705295550F507EDD
:103CA000452BD7014D937D010F5F1F4F0038110544
:103CB00009F077CFE058F109E115BFEFFB0709F0F4
:103CC00063CF80911F07882309F47BC000E210E0D6
:103CD000E12CF12C40E0B701C8010E94BD0DEFEFCF
:103CE000EE1AFE0AF0E4EF16F104A1F70F5F1F4F82
:103CF0000036110569F748E360E070E084E290E087
:103D00000E949B0F48E36FE370E084E290E00E9422
:103D10009B0F04E010E041E0B80180E290E00E94D7
:103D2000BD0D0F5F1F4F0C331105A9F704E010E024
:103D300041E0B8018FE590E00E94BD0D0F5F1F4F7D
:103D40000C331105A9F741E064E070E084E290E0F3
:103D50000E94F60E42E064E070E08BE590E00E9485
:103D6000F60E44E06BE370E08BE590E00E94F60E07
:103D700048E06BE370E084E290E00E94F60E8091F0
:103D8000200790E0E0918B05F0918C0523E230E074
:103D9000368725873487238723E030E0308B2787D9
:103DA000928B818B148A138A61E277E0CF010E94A3
:103DB000E10E8091200787FD06C08F5F809320076A
:103DC00002C0109220078091AF05882309F446C0F5
:103DD0009091B105983020F0903220F492E003C029
:103DE00091E001C094E0891B8093AF0537C082E069
:103DF00090E090937E0580937D0590937C05809361
:103E00007B051092800510927F058FEF9FEF9093B6
:103E1000820580938105109284051092830586E3C4
:103E20009FE01AC082E090E090937E0580937D052C
:103E300090937C0580937B051092800510927F05FE
:103E40008FEF9FEF909382058093810510928405F8
:103E50001092830583EE9DE00E94C60E80E00E94D2
:103E6000AC0E80E090E0892B11F40C94BB150E94FD
:103E700000000C94BB1580E80E94BB0E882321F043
:103E80008091AF05882331F080E10E94BB0E88232A
:103E9000D1F015C080911F078111F6CF80910707DF
:103EA000882311F0815001C08CE0E82FF0E0E75941
:103EB000FA4F94A190FFF4CF80930707E5CF80914C
:103EC000AF05882339F088E00E94BB0E882309F4EF
:103ED000E9C019C080911F078111F5CF90910707A4
:103EE0002DE030E0892F90E00196B9010E94C026B4
:103EF000AC01982FFA01E759FA4F84A180FFF2CF65
:103F000040930707E0CF8091AF058111CBC080912E
:103F10001F078111C7C040910707409008075090C4
:103F20000907642E712C6301B4E0CC0CDD1CBA953A
:103F3000E1F796012453334F3D8B2C8BF90184918B
:103F4000F5E08F9FC00111244816590608F4AAC055
:103F50008091AD059091AE0507966FEF70E00E94DD
:103F6000AC268C019C0121503F4FBC0165507F4F16
:103F70005B01411127C0C9016FEF70E00E94AC26C0
:103F8000DC01AE54BA4F4D01EC91B0E1EB9FF00172
:103F90001124E353F34FE4918E0F911D6FEF70E006
:103FA0000E94AC260817190710F4F4011082215062
:103FB0003109A216B306F9F620E030E0F601E3532A
:103FC000F34F47C099249394C9016FEF70E00E94AA
:103FD000AC26FC01EE54FA4F808050E1859EF00142
:103FE0001124E353F34FE4918E0F911D6FEF70E0B6
:103FF0000E94AC260817190730F486EF880D82302E
:1040000010F08110912C21503109A216B306E1F66F
:1040100020E030E0F601E353F34F849190E028175D
:104020003907A0F4C801820F931F6FEF70E00E9460
:10403000AC26DC01AE54BA4F8C9196EF980F9230BB
:1040400010F08111912C2F5F3F4FE7CF9110B4CF2B
:1040500029C0849190E02817390770F4C801820FB5
:10406000931F6FEF70E00E94AC26DC01AE54BA4F94
:104070001C922F5F3F4FEDCFF801EE54FA4F408373
:10408000F301E759FA4F84A1826084A3EC89FD898A
:104090006490F5E06F9E4018510811245092090772
:1040A0004092080784E00E94BB0E882309F489CA65
:1040B0008091AF05811185CA80911F07882309F47B
:1040C00041C08091A407882341F18091C6068F9357
:1040D0008091C5068F938091C4068F938091C3060B
:1040E0008F938091C2068F938091C1068F938091A8
:1040F000C0068F938091BF068F9388E298E09F93CC
:104100008F931F9280E88F9381E297E09F938F9324
:104110000E9426231092A4073FC0E1E2F7E001903D
:104120000020E9F7CF01825297402091200730E02C
:104130002817390718F010921F0743CA80E88093A8
:1041400020073FCA81E08093A40780931F0780E87F
:1041500080932007FF92EF923F922F929091BA06A0
:104160009F939091B9069F939091B8069F939091D9
:10417000B7069F939091B6069F939091B5069F9333
:1041800022EE37E03F932F931F928F9381E297E0C7
:104190009F938F930E9426230FB6F894DEBF0FBE25
:1041A000CDBF0FCA84E08093A5071092A30709CA68
:1041B0001092A50706CADF92EF92FF920F931F930A
:1041C000CF93DF93D82EF92EE42E062F10E0C801EE
:1041D0000196880F0E94510A83E00E94510ACD2D5A
:1041E000DF2D0C0F1D1FC017D10789F0E7FE03C09C
:1041F000FE01849101C088810E94510AF82E80E05E
:104200000E94510A8F2121968111EDCF01C081E0DA
:10421000DF91CF911F910F91FF90EF90DF90089564
:10422000CF93DF93E7EAF7E01382128288EE93E000
:10423000A0E0B0E084839583A683B78383E291E016
:10424000918380834FEF5FEF55874487E5E6F5E084
:1042500081E491E0918380831582168280E18783D7
:104260001482138211861686158685E391E0948761
:10427000838785E691E0918B808B80E890E0938B3B
:10428000828B80E490E0958B848B25E022A381E0F3
:1042900081A3118E108E138E128E178A168A558F57
:1042A000448F178E168E80A3178646EE5AE05093E1
:1042B00064014093630146983E9AF5A3E4A340E766
:1042C00055E057A346A39DE0ADE8B5E0ED01392FD9
:1042D00019923A95E9F73AE0AAE9B5E0ED011992A9
:1042E0003A95E9F74BEE52E156AB45AB43EE52E15E
:1042F00050AF47AB4BEC52E152AF41AF43EC52E110
:1043000054AF43AFA4EAB5E0ED0119922A95E9F75D
:1043100087AF8093A50523E02093A6058093A7058A
:1043200040911B0150911C0160911D0170911E0173
:104330004093A9055093AA056093AB057093AC0513
:104340001092AE051092AD051092AF051092B00517
:104350001092B1052FEFE2EBF5E0DF011D922A95F7
:10436000E9F71092B2061092B1061092B4061092BC
:10437000B3068093070727EE33E0309309072093B5
:10438000080710920A0710920B0710920C07109260
:104390000D0710920E0710920F071092100710923F
:1043A0001107E2E1F7E0EF0119929A95E9F710920F
:1043B0001F071092200780E8E1E2F7E0DF011D927D
:1043C0008A95E9F71092A2071092A1071092A3070D
:1043D0001092A4071092A5071092A607DF91CF9123
:1043E00008958F929F92AF92BF92CF92DF92EF92F9
:1043F000FF92CF93DF93EC01688179818A819B8161
:10440000611571058105910521F464E279ED8BE573
:1044100097E02DE133EF41E050E00E94F72549019C
:104420005A019B01AC01A7EAB1E40E9416266B0178
:104430007C01ACEEB4EFA50194010E942426DC01BE
:10444000CB018C0D9D1DAE1DBF1DB7FF03C0019795
:10445000A109B04888839983AA83BB839F77DF91A2
:10446000CF91FF90EF90DF90CF90BF90AF909F9053
:104470008F9008950E94F12108958CE091E00E94B0
:10448000F1210895A0E0B0E080930C0190930D011C
:10449000A0930E01B0930F0108958F929F92AF9257
:1044A000BF92CF92DF92EF92FF92CF93DF93EC0116
:1044B000688179818A819B816115710581059105EA
:1044C00021F464E279ED8BE597E02DE133EF41E0F3
:1044D00050E00E94F72549015A019B01AC01A7EA6F
:1044E000B1E40E9416266B017C01ACEEB4EFA5018D
:1044F00094010E942426DC01CB018C0D9D1DAE1D74
:10450000BF1DB7FF03C00197A109B04888839983F5
:10451000AA83BB83BC01CD019F77DF91CF91FF9030
:10452000EF90DF90CF90BF90AF909F908F900895C5
:104530008F929F92AF92BF92CF92DF92EF92FF92B3
:1045400060911001709111018091120190911301FD
:10455000611571058105910521F464E279ED8BE522
:1045600097E02DE133EF41E050E00E94F72549014B
:104570005A019B01AC01A7EAB1E40E9416266B0127
:104580007C01ACEEB4EFA50194010E942426DC016D
:10459000CB018C0D9D1DAE1DBF1DB7FF03C0019744
:1045A000A109B0488093100190931101A0931201CA
:1045B000B0931301BC01CD019F77FF90EF90DF9086
:1045C000CF90BF90AF909F908F900895609310010F
:1045D0007093110180931201909313010895F89440
:1045E0000C94DA26FB01DC014150504048F0059064
:1045F0000D920020C9F701C01D9241505040E0F7D4
:104600000895BB274A3031F4992322F4BDE29095F6
:1046100081959F4F0C940D23BB27FB015527AA279B
:10462000880F991FAA1FA41710F0A41B839550513F
:10463000B9F7A05DAA3308F0A95DA193009779F7B7
:10464000B111B1931192CB010C944D25AEE0B0E0C5
:10465000ECE2F3E20C9437260D891E898F89988D40
:104660002EE02C831A83098397FF02C080E090E834
:1046700001979E838D83AE01455E5F4F698D7A8D74
:10468000CE0101960E9456234D815E8157FD0AC0DE
:104690002F813885421753070CF49A01F801E20F75
:1046A000F31F10822E96E4E00C945326ABE0B0E0AA
:1046B000ECE5F3E20C9429266C017B018A01FC01F4
:1046C00017821682838181FFCCC1CE0101963C0105
:1046D000F6019381F70193FD859193FF81917F010D
:1046E000882309F4BAC1853239F493FD859193FF8B
:1046F00081917F01853229F4B60190E00E945D2509
:10470000E7CF912C212C312CFFE1F315D8F08B321F
:1047100079F038F4803279F08332A1F4232D2061CE
:104720001DC08D3261F0803369F4232D216016C0E5
:10473000832D8260382EE32DE4603E2E2AC0F32DB7
:10474000F8601DC037FC2DC020ED280F2A3040F046
:104750008E32B9F436FC81C1232D2064322E19C06B
:1047600036FE06C08AE0989E200D1124922E11C0BC
:10477000EAE02E9E200D1124222EF32DF0623F2E12
:1047800008C08C3621F4832D8068382E02C088360C
:1047900041F4F70193FD859193FF81917F01811190
:1047A000B3CF982F9F7D9554933028F40C5F1F4F03
:1047B0009FE399830DC0833631F0833771F08335E1
:1047C00009F059C021C0F801808189830E5F1F4F15
:1047D00088248394912C530113C02801F2E04F0EDA
:1047E000511CF801A080B18036FE03C0692D70E035
:1047F00002C06FEF7FEFC5010E9442254C0182018C
:10480000F32DFF773F2E16C0280122E0420E511CE7
:10481000F801A080B18036FE03C0692D70E002C0AF
:104820006FEF7FEFC5010E9437254C01F32DF06833
:104830003F2E820133FC1BC0822D90E08816990622
:10484000B0F4B60180E290E00E945D252A94F4CF96
:10485000F50137FC859137FE81915F01B60190E04B
:104860000E945D2521102A9421E0821A910881146A
:10487000910471F7E8C0843611F0893641F5F801EA
:1048800037FE07C060817181828193810C5F1F4F69
:1048900008C060817181072E000C880B990B0E5F98
:1048A0001F4FF32DFF763F2E97FF09C090958095FF
:1048B000709561957F4F8F4F9F4FF0683F2E2AE094
:1048C00030E0A3010E949925882E861845C08537BF
:1048D00031F4232D2F7EB22E2AE030E025C0932D17
:1048E000997FB92E8F36C1F018F4883579F0B5C0AC
:1048F000803719F0883721F0B0C0E92FE061BE2E73
:10490000B4FE0DC0FB2DF460BF2E09C034FE0AC0FA
:10491000292F2660B22E06C028E030E005C020E135
:1049200030E002C020E132E0F801B7FE07C060814C
:104930007181828193810C5F1F4F06C060817181FC
:1049400080E090E00E5F1F4FA3010E949925882E02
:104950008618FB2DFF773F2E36FE0DC0232D2E7FB0
:10496000A22E891458F434FE0BC032FC09C0832DEA
:104970008E7EA82E05C0B82CA32C03C0B82C01C075
:10498000B92CA4FE0FC0FE01E80DF11D808180331B
:1049900021F49A2D997EA92E09C0A2FE06C0B394D7
:1049A000B39404C08A2D867809F0B394A3FC11C097
:1049B000A0FE06C0B21488F4280C922C9B180EC0DE
:1049C000B21460F4B60180E290E00E945D25B394D9
:1049D000F7CFB21418F42B1802C0982C212CA4FE87
:1049E00010C0B60180E390E00E945D25A2FE17C0D2
:1049F000A1FC03C088E790E002C088E590E0B60122
:104A00000CC08A2D867859F0A1FE02C08BE201C04D
:104A100080E2A7FC8DE2B60190E00E945D2589143A
:104A200038F4B60180E390E00E945D259A94F7CFB8
:104A30008A94F301E80DF11D8081B60190E00E9497
:104A40005D258110F5CF222009F442CEB60180E227
:104A500090E00E945D252A94F6CFF6018681978129
:104A600002C08FEF9FEF2B96E2E10C944526FC01EC
:104A70000590615070400110D8F7809590958E0F89
:104A80009F1F0895FC016150704001900110D8F7FC
:104A9000809590958E0F9F1F0895DC01FC01672F74
:104AA00071917723E1F7329704C07C916D93708305
:104AB0006291AE17BF07C8F308950F931F93CF936A
:104AC000DF93FB01238121FD03C08FEF9FEF2CC0FB
:104AD00022FF16C046815781248135814217530732
:104AE00044F4A081B1819D012F5F3F4F318320832A
:104AF0008C93268137812F5F3F4F3783268314C0E5
:104B00008B01EC01FB010084F185E02D0995892BD7
:104B1000E1F6D80116968D919C91179701961796FC
:104B20009C938E931697CE01DF91CF911F910F9199
:104B30000895FA01AA27283051F1203181F1E89433
:104B40006F936E7F6E5F7F4F8F4F9F4FAF4FB1E080
:104B50003ED0B4E03CD0670F781F891F9A1FA11D7B
:104B6000680F791F8A1F911DA11D6A0F711D811D7C
:104B7000911DA11D20D009F468943F912AE0269F41
:104B800011243019305D3193DEF6CF010895462FA0
:104B90004770405D4193B3E00FD0C9F7F6CF462F81
:104BA0004F70405D4A3318F0495D31FD40524193EA
:104BB00002D0A9F7EACFB4E0A695979587957795A7
:104BC0006795BA95C9F700976105710508959B012E
:104BD000AC010A2E06945795479537952795BA95B7
:104BE000C9F7620F731F841F951FA01D0895052E1E
:104BF00097FB1EF400940E940E2657FD07D00E94DA
:104C0000602607FC03D04EF40C940E265095409578
:104C1000309521953F4F4F4F5F4F08959095809568
:104C2000709561957F4F8F4F9F4F08950E94822608
:104C3000A59F900DB49F900DA49F800D911D1124F0
:104C40000895B7FF0C9416260E941626821B930B1C
:104C500008952F923F924F925F926F927F928F9220
:104C60009F92AF92BF92CF92DF92EF92FF920F93FB
:104C70001F93CF93DF93CDB7DEB7CA1BDB0B0FB605
:104C8000F894DEBF0FBECDBF09942A8839884888C2
:104C90005F846E847D848C849B84AA84B984C88458
:104CA000DF80EE80FD800C811B81AA81B981CE0F4F
:104CB000D11D0FB6F894DEBF0FBECDBFED01089534
:104CC000A1E21A2EAA1BBB1BFD010DC0AA1FBB1F10
:104CD000EE1FFF1FA217B307E407F50720F0A21B82
:104CE000B30BE40BF50B661F771F881F991F1A94EF
:104CF00069F760957095809590959B01AC01BD0119
:104D0000CF010895A29FB001B39FC001A39F700D72
:104D1000811D1124911DB29F700D811D1124911DC3
:104D20000895F999FECF92BD81BDF89A992780B573
:104D30000895262FF999FECF1FBA92BD81BD20BDDF
:104D40000FB6F894FA9AF99A0FBE0196089581E089
:104D500090E0F8940C94DA26AA1BBB1B51E107C023
:104D6000AA1FBB1FA617B70710F0A61BB70B881FFB
:104D7000991F5A95A9F780959095BC01CD0108958A
:104D800097FB072E16F4009407D077FD09D00E94F8
:104D9000AC2607FC05D03EF4909581959F4F089571
:104DA000709561957F4F0895EE0FFF1F0590F49168
:084DB000E02D0994F894FFCFF7
:104DB800FFFFFFFF00E1000000000000010000000D
:104DC8000100000000C18081000000A312831200CE
:104DD800000000010E260E220E170E230AF310E91A
:104DE8000A00000000BA1111116F126E12000000C3
:044DF80000E50A00C8
:00000001FF
