:100000000C94EE0D0C94160E0C94160E0C94160E09
:100010000C94160E0C94160E0C94160E0C94160ED0
:100020000C94160E0C94160E0C94160E0C94160EC0
:100030000C94160E0C94160E0C94160E0C94160EB0
:100040000C94160E0C94160E0C94160E0C94160EA0
:100050000C94160E0C94160E0C94160E0C94551A45
:100060000C94160E0C94160E0C94160E0C94160E80
:100070000C94160E0C94160E0C94160E0C94160E70
:100080000C949F1A0C94160E0C94160E0C94160ECB
:100090000C94160E0C94160E0C94160E0C94160E50
:1000A0000C94160E0C94160E0C94160E0A41532046
:1000B00054484520544F574E200A47524F57532C0F
:1000C0002053504143450A4245434F4D4553205626
:1000D0004552590A56414C5541424C452E0A4E4F05
:1000E0005720594F552043414E0A555047524144DD
:1000F0004520534F4D450A4F46205448450A425526
:10010000494C44494E47532E0A000A54414B45205E
:10011000534F4D450A5745454420534545445321C7
:100120000A000A4E4F5720594F552043414E0A505E
:100130004C414E5420594F55520A4F574E2043417F
:1001400043544149210A000A504C414E5420412059
:100150004645570A545245455320544F0A50524F72
:10016000564944450A534F4D452053484144450A9A
:10017000464F52205448450A4C4147554E49544930
:10018000414E53210A000A4556454E205448450A1F
:1001900042455354204F462055530A4D414B45206C
:1001A000534F4D450A4D495354414B45532E0A0A6E
:1001B0004E4F5720594F550A43414E2052454D4FFF
:1001C00056450A545245455320414E440A4255492A
:1001D0004C44494E47532E0A000A41532054484587
:1001E00020544F574E0A47524F57532C20544845DE
:1001F0000A434F535420464F520A494D504F5254D0
:10020000494E470A464F4F4420474554530A5052DF
:100210004F424C454D415449432E0A0A4255494CE0
:10022000442041204D494C4C0A544F2046454544FA
:10023000205448450A4C4147554E495449414E5374
:100240002E0A000A4255494C4420412042414E4B5F
:100250000A544F20494E435245415345200A474FC7
:100260004C442053544F524147450A42592035309F
:100270003030242E0A000A41205052494553540A76
:1002800050415353494E472042590A50524F504F04
:1002900053455320594F550A544F20454455434127
:1002A00054450A5448452050454F504C450A49464C
:1002B00020594F55204255494C440A4120534D4145
:1002C0004C4C0A43485552434820464F520A48492D
:1002D0004D2E0A000A5448452042414E4449545389
:1002E0000A434F554C4420534D454C4C0A594F55E9
:1002F00052204D4F4E45590A414E442054484559CD
:10030000204152450A434F4D494E4720544F0A4120
:10031000535341554C54205448450A42414E4B21B9
:100320000A4255494C44204120504F53540A464FED
:1003300052205448450A534845524946462E0A0021
:100340000A54484520474F4C440A46455645520AF0
:10035000524541434845440A4C4147554E49544152
:10036000210A0A4255494C4420410A4D494E452034
:10037000544F0A494E43524553450A544845204973
:100380004E434F4D452E0A000A54484520515541D1
:100390004C4954590A4F4620594F555220464F4F09
:1003A000440A49532052454E4F574E4544210A0AAC
:1003B0004255494C4420410A535441424C45205433
:1003C0004F0A4558504F5254205448450A455854F6
:1003D000524120464F4F442E0A000A5448452043BC
:1003E0004F57424F59530A415245204745545449AB
:1003F0004E470A524553544C4553532E0A0A425510
:10040000494C442041204E45570A53414C4F4F4ED2
:1004100020544F0A454E5445525441494E0A5448BF
:10042000454D20414E440A524149534520544845C8
:1004300049520A48415050494E4553532E0A000A2A
:100440004D4F52452050454F504C450A57494C4C52
:10045000204D4F56450A494E2C20494620544845C8
:100460000A484F55534553204152450A5345525669
:10047000494345440A574954482057415445522E50
:100480000A0A545259204255494C44494E470A538E
:100490004F4D452057415445520A544F57455253EA
:1004A0002E0A000A4255494C442041204641524DF3
:1004B0000A544F204749564520410A4A4F4220548A
:1004C0004F205448450A434954495A454E532E0A31
:1004D0000A4152524F572055500A544F2053574902
:1004E0005443480A4255494C44494E472E0A000A93
:1004F00057454C434F4D4520544F0A4C4147554EAC
:100500004954412C0A4120534D414C4C204C414B05
:10051000450A494E205448452057494C440A5749FA
:100520004C4420574553542E0A0A505245535320E9
:100530004120544F0A4255494C4420594F55520AC4
:10054000464952535420484F5553452E0A00000047
:1005500000000000000054524545532041524F55C1
:100560004E440A434855524348455320414E440A9D
:10057000484F55534553204D414B450A5448454D2E
:10058000204D4F52450A4154545241435449564517
:100590002E0A0049532043414354555345530A4FB3
:1005A000522043414354493F0A00504C414E544964
:1005B0004E470A5745454420495320410A47524572
:1005C0004154205741590A544F2050415920594F06
:1005D00055520A434F322051554F54412E0A00457F
:1005E00041434820535441424C450A414C4C4F57DB
:1005F0005320594F550A544F204558504F52540AD2
:100600004144444954494F4E414C0A45584345459D
:1006100044494E470A464F4F442E0A5052455353C1
:10062000204220544F0A434845434B20594F5552CE
:100630000A4558504F5254532E0A00454143482012
:1006400042414E4B0A494E435245415345530A5489
:100650004845204D4158494D554D0A4D4F4E45593D
:1006600020594F550A43414E2053544F52452C0AAE
:1006700042555420544845590A4154545241435418
:10068000204D4F52450A544849455645532E0A00BD
:1006900052454D454D42455220544F0A434845432B
:1006A0004B205448450A53544154495354494353E9
:1006B0000A544F204B4E4F57205748454E0A53413E
:1006C000464554592044524F50530A4C4F57210A23
:1006D0000043485552434853204B4545500A4C412E
:1006E00047554E495441530A544F47455448455283
:1006F0002C0A425554205448450A434C455249431C
:100700005320444F0A4E4F54204C494B450A544FF6
:100710002042452041524F554E440A4F54484552BD
:10072000204E4F4953590A4255494C44494E47536C
:100730002E0A004D494E4553204152450A47524525
:10074000415420544F0A494E435245415345205489
:1007500048450A415641494C41424C450A4A4F429C
:100760005320414E44205448450A494E434F4D457D
:100770002C204255540A54484559204D41590A48A5
:10078000555254205448450A454E5649524F4E4DF5
:10079000454E542E0A004D494C4C53205245464973
:1007A0004E450A53454544532046524F4D0A4E4547
:1007B00041524259204641524D530A494E544F200E
:1007C000464C4F5745522C0A534F20544845592008
:1007D0004152450A5155495445204D4F52450A450D
:1007E00046464543544956450A5748454E20504CC5
:1007F000414345440A4E454152204641524D532EF5
:100800000A00574F524B455253204152450A414C22
:100810004C4F43415445440A544F204641524D5396
:100820000A46495253542E0A0053414C4F4F4E53DF
:100830000A494E435245415345205448450A4841D0
:100840005050494E4553204F460A4C4147554E495A
:100850005449414E532E0A50524553532054484553
:1008600020420A425554544F4E20544F0A434845A3
:10087000434B205448450A53544154495354494327
:100880000A5245504F5254210A00574154455220B4
:10089000544F574552530A43414E2048454C500A45
:1008A00049525249474154494E470A544845204607
:1008B00049454C44530A494E204E45415242590A3B
:1008C0004641524D532041530A57454C4C2E0A0085
:1008D000484F55534553204152450A4E45434553D1
:1008E0005341525920544F0A494E435245415345B2
:1008F000205448450A504F50554C4154494F4E2EB4
:100900000A0A484F55534553204E4541520A564511
:100910004745544154494F4E0A415454524143545F
:10092000204D4F52450A50454F504C452E0A00521B
:10093000454D454D42455220544F0A434845434B8F
:100940002053544154530A544F2053454520484F97
:10095000570A555047524144494E470A4255494C5F
:1009600044494E47530A414C54455253205448453C
:100970004D2E0A00004E4F5720594F552043414EEF
:100980000A434C45415220414E590A545950452082
:100990004F460A56454745544154494F4E0A414E29
:1009A0004420414E5920545950450A4F4620425543
:1009B000494C44494E472E0A00C0A05028148AFDD5
:1009C0008A142850A0C0001038E070001224C8D447
:1009D000E09844600000000000FF007848780303BE
:1009E0000378487800FF0A0E0A3F0ACE8A0E1EFFDF
:1009F000FFE4C2800000000000FF8080FC8282FCD7
:100A000080FE92FE80FF88F888F889FF88F888FBCE
:100A10008BF889FB8FFE8CF80000000000000000BE
:100A20000080C0A05028140AFF0A142850A0C080DB
:100A300000000000000000000080C0E0A0F090F87E
:100A400088FF80FF80809C9C9F9C9C8080FF80FF13
:100A500088F890F0A0E0C08000FF80F8F880E0E027
:100A600080FF99E799FF8080808080FF99E799FF58
:100A7000A0A0A0A0A0A0A0FF00000000C040C04017
:100A8000C078C442C242C478C040C040C000000028
:100A900000FC141C171C171C177C47545754477C28
:100AA000171C171C171C14FC00FF809F9191919F2D
:100AB00080FCAAA9FFA9AAFC8080808F898F80FF73
:100AC00000C0B0ACABACB0C0000000000000000043
:100AD000000000000000000000FF00043E0400FFD2
:100AE0008080808080808080808080808080800086
:100AF00000FF80FC82FC80FF829B829B829B829B0A
:100B0000829B829B829B82FF00FE25160EA576A605
:100B100005A676A50E1625FE00FF80FE82FE82FE4B
:100B200080BEA2BEA2BE80FF00FE915E3E111E1ED0
:100B3000111E1E113E5E91FE00FF808F8F80FFA967
:100B4000A9A9FF808F8F80FF000498F33FF39804DA
:100B50000004EEFBCFFBEE0400008CFBEFFB8C00EF
:100B600000000C1933667CF9FFFE703C3E33191807
:100B70000C000000000080C3FFFFBC00000000006C
:100B8000000C1830FFFF0C0603082952FE492510FF
:100B90000080C0E0A0F090F888FC84FE82FFC7AB24
:100BA00093ABC7FF82FE84FC88F890F0A0E0C08081
:100BB00000FF80F8F880E0E080FF99E799FF8080EF
:100BC000808080FF99E799FFA0A0A0A0A0A0A0FF2F
:100BD0000000002050885020002050885020000045
:100BE0000030FF160E0546A615A646050E16FF3068
:100BF0000000FF808C8C80FC85FC808C8C80FF004A
:100C000000FE25160E0506A675A606050E1625FE7F
:100C100000FF80FE82FE82FE80BEA2BEA2BE80FFDA
:100C200000C0B0ACABACB0C08080808080808080E1
:100C3000808080808080800000FF80FC82FC80FFBC
:100C4000829B829B829B829B829B829B829B82FF58
:100C50000000000080601C030C9060100C03040472
:100C6000083844821CE0000000C0300C03C0201C87
:100C700002050890E00000F008F0000F30479820CF
:100C8000C0000102020302020202010080C1A1B9F8
:100C9000AFB9A1C1820201010024A870FC70A82490
:100CA000000100F0AFF0000100F04F241B244FF0D2
:100CB00000E0A05028140A050A142850A0E0A0E083
:100CC000A0E0A0E0A0E0A0E0A0E0C0800000000064
:100CD00000FF8080FC8282FC809E929E80FF88F8CC
:100CE00088F888F888F888F888F889FB8FFE8CF8EF
:100CF00000FC141C171D171D177D47555755477DC0
:100D0000171D171D171C14FC00FF809F9191919FC8
:100D100080FCAAA9FFA9AAFC8080808F898F80FF10
:100D200000FFC1FF417FC1FF0000FF885522FF0087
:100D30000000FF885522FF0000008040A0502814CA
:100D40000A0A142F5FA040800000FF818C8C80FE77
:100D5000A9A9FE808C8C81FF00000000000000002B
:100D60000000B00000A170E150964F26900F1D07C3
:100D70000C009669004AE44A00484440008068102C
:100D8000000F99FB8F9DBDBBFB77D4D4DF1F1A1AD0
:100D9000FE7F5D5DFF805A0000A0A4AA0010BA3457
:100DA00000FF5953F3FF9B9B9EFFB9B996FF9595A2
:100DB000D19FF4940FFC295F91FF1838F8FF9294AB
:100DC000FFFF95D5F7BFB5DDD7F18F81F1F788C863
:100DD000F779C6467909FD9B090196F80082818260
:100DE00080507162007756560076763700A2B7734E
:100DF000010772060078275000733474007751762B
:100E0000007F55F70047711000324772007364731A
:100E10000015A2750061679400009F6060F4F2F60F
:100E2000F2000088001001990121023203420400FF
:100E30000049005200570062006E0083009300A535
:100E400000AF00C400DC00F700060126014A015D86
:100E5000018801B801EE010B024B029302D5F08D1F
:100E600014A1C881CFD9F1AF2000253964500025E5
:100E700039642400102C4AA0895224180C18A04A66
:100E800049C97A0430449261894624180C73894612
:100E9000A2965C2008748629518A6418205C92A26C
:100EA0004A275106182446E9924A24200639494A1D
:100EB0006290C83010307FFF7F30100020402080CB
:100EC00000401080FFFC308448800EFFFFFC30089B
:100ED00090400EFFFFFC300122400EFF000000009A
:100EE00000000000F0487C247C48F0000000D23F65
:100EF000579200000000D27FA7020000000022FFEE
:100F0000A70200000000D27FA70200006030103866
:100F10007CBC5C9C1C5C7F3F26204000301888789D
:100F20003CFC1C1C1C3C5E9F274600003018887847
:100F30003C3C1C1C1CDC3E1F2746800060301038E7
:100F40007CBC5C1C9C5CBF7F0600000000000B0E9C
:100F50001C780E040000101C78101C0800002030C3
:100F6000302038100000101C78101C083C2D005058
:100F7000524553532054484520555020414E44205B
:100F8000444F574E0A4152524F575320544F20431B
:100F900048414E4745205448450A43555252454E14
:100FA000544C592053454C454354454420414354E7
:100FB000494F4E0A4F52204255494C44494E472E04
:100FC0000A0A5052455353204120544F20444F2089
:100FD00054484520414354494F4E0A4F52204255F0
:100FE000494C4420544845204255494C44494E47B9
:100FF0002E0A0A5052455353204220544F20434852
:1010000045434B205448450A53544154495354498D
:1010100043532E0A003C2D002D3E00594F552043CE
:10102000414E204D4F56452041524F554E4420547D
:1010300048450A4C4556454C205749544820544889
:1010400045204C45465420414E440A524947485495
:10105000204152524F57532E204C4F4E4720505252
:101060004553530A464F522046415354205343524E
:101070004F4C4C494E472E0A444F55424C45204355
:101080004C49434B20544F204D4F564520544F0A56
:101090004E45585420415641494C41424C452053FD
:1010A000504F5420544F0A4255494C44205448450F
:1010B0002043555252454E544C590A53454C4543D2
:1010C000544544204255494C44494E472E0A5052FB
:1010D00045535320424F5448204C45465420414EDE
:1010E000442052494748540A544F20524543454EE4
:1010F0005445522E0A002D3E004255494C44204191
:101100002057494C44205745535420544F574E0ABA
:101110004F4E205448452053484F5245204F4620BB
:101120004C414B450A4C4147554E49544120574983
:101130005448204153204D414E590A434954495A7D
:10114000454E5320415320504F535349424C452E56
:101150000A0A494E435245415345205448452050C0
:101160004F50554C4154494F4E0A544F204B454522
:101170005020554E4C4F434B494E47204E45570A41
:101180004255494C44494E47532E0A0A5052455342
:10119000532042204F4E20544845204D41494E2077
:1011A0004D454E550A544F205245464C4153482018
:1011B000594F55522041524455424F590A000A474F
:1011C000414D452044455349474E0A0952454E4139
:1011D000544F2047524F54544553490A0A50524FD6
:1011E0004752414D4D494E470A0952454E41544FD1
:1011F0002047524F54544553490A094755555320E7
:10120000534C494550454E0A0A4D555349430A0926
:101210004A4F414B494D2053494D4F4E53534F4E2A
:101220000A000A594F5520505245535345440A5419
:101230004845204220425554544F4E2E0A0A5052DF
:10124000455353204220544F0A52455455524E2084
:10125000544F205448450A4D41494E204D454E5566
:101260002E0A0A505245535320444F574E204946A8
:101270000A594F552057414E5420544F0A52454663
:101280004C41534820594F55520A41524455424F00
:10129000592E0A000A554E464F5254554E41544558
:1012A0004C590A594F552052554E204F55540A4F0C
:1012B00046204D4F4E45592E0A0A52454D454D4246
:1012C000455220544F0A434845434B205448450A51
:1012D000535441544953544943530A5748494C4580
:1012E00020504C4159494E47210A0A545259204135
:1012F0004741494E210A0078487878783030004DCF
:1013000055544544004D555349430048454C500001
:1013100041424F55540053415645004C4F41440003
:10132000504C415900524553554D4500102C4AA090
:10133000895224180C18A04A49C97A043044926191
:10134000894624180C738946A2965C200874862965
:10135000518A6418205C92A24A275106182446E953
:10136000924A24200639494A6290C8300C1830FF4E
:10137000FF0C0603504F502E0006060C0C0C0C0CF4
:1013800018181838F0E08000000000001C3C706065
:10139000E0C0C0E0783F0F000001C3FFFEFFC301C3
:1013A000000000000000C0C0E3FF7F1EFFFFFFE35E
:1013B000C000C0F0FCFEFF0703C3C7CF9FDEC00321
:1013C000C7FFFEFFC70300C3FFFEFEC7030001C344
:1013D000FFFFFFFFF8E0C103FFFFFFC3010003C3EE
:1013E000FFFEFEFFC303001F0F06C3FFFEFEFFC389
:1013F00003060F1F00C0C0E3FF7F1EFFFFFFE3C017
:10140000000040E0FF7F7F78F0F070381CCCE07E79
:101410007FFFC70E0EC7FFFF7F7EE0C00F1F3F7F1D
:1014200070E0E0F07F7F3F0000001F3F7FF0E0E0D2
:10143000F07F3F1F000000C0E0FF7FFFE0C10FFF13
:10144000FF7F7FFFE0C000C0E07F7F7F7FE0C000C4
:101450000000C0E0FF7F7FFFE0C00000C0E07E7FB3
:10146000FFC70E0EC7FFFF7F7EE0C0EF04A3043F5F
:1014700004DA0388034003D40276024302D90186CA
:1014800001470122010A01AC00030604050C080A09
:10149000090B07000F0E0D0201030604050C080AD4
:1014A000090B0101010101000001000A000F0014F5
:1014B000001E00320041004B0064009600C800FA94
:1014C000002C01AF00750974092F09D0088A08297A
:1014D00008020896073307D10690063B06DF05AAE7
:1014E00005930556055505540553055205510550FC
:1014F000054F054E050A4C4147554E495449414E4A
:10150000530A4C4F5645204C4956494E470A494EBE
:1015100020594F555220544F574E0A414E442054A3
:101520004845590A4E455645522046454C540A41B5
:101530005320554E49544544210A000A253464205D
:1015400050454F504C450A4C4F5354204641495446
:10155000480A494E204C4147554E4954410A414E94
:101560004420444543494445440A544F20464F557E
:101570004E440A5448454952204F574E0A544F573B
:101580004E2E0A4255494C44204D4F52450A43487D
:1015900055524348455320544F0A5249534520461B
:1015A00041495448210A000A5448452053484552AD
:1015B0004946460A4D414E4147454420544F0A5042
:1015C000524556454E5420410A42414E44204F4612
:1015D0000A42414E444954532046524F4D0A5354F7
:1015E00045414C494E470A594F5552204D4F4E45A3
:1015F0005921000A594F5520484156450A42454550
:101600004E20524F42424544210A0A544845205434
:101610004849455645530A53544F4C452025346498
:10162000240A0A4255494C44204D4F52450A53481A
:1016300045524946460A504F535453210A000A481E
:101640004F5553494E4720444159530A2537642585
:1016500035640A4A4F4253092020464F4F440A2519
:1016600034642538640A204D41494E54454E414E5C
:1016700043450A25386420242F730A094541524EF8
:10168000494E47530A25386420242F730A094558C8
:10169000504F5254530A25386420242F73000A48AF
:1016A000415050494E4553530A2534642025250A9C
:1016B0005341464554590A2534642025250A535080
:1016C0004952495455414C4954590A2534642025FE
:1016D000250A454E5649524F4E4D454E540A253423
:1016E000642025250A000A594F552043414E4E4F8C
:1016F000540A4255494C44204F56455220410A4213
:1017000055494C44494E472E000A594F55204341F4
:101710004E4E4F540A4255494C44204F5645522094
:10172000410A545245452E000A594F55204841560A
:10173000450A4E4F5420454E4F5547480A4D4F4E8F
:10174000455920544F0A555047524144452E000AEE
:10175000594F5520484156450A4E4F5420454E4F4B
:101760005547480A4D4F4E455920544F0A42554956
:101770004C442E002F602F602F60502F202F602EA2
:10178000604EA02D602D602D6050408F804EA02FA8
:10179000602F602F60502F202F602E604EA02D6094
:1017A0002D602D6050408F804EA02D604D4C8B8D54
:1017B000AC4AC82D604D4C8B8DAC4AC84780478BD6
:1017C00089C8C04980498D8BCCA02D2E4F26204F33
:1017D00026204F2620502F204F24204E24204E24F8
:1017E0006024204D23204D23204D23205023204FC3
:1017F000246024204E246024204F26204F26204F92
:101800002620502F204F24204E24204E24602420B8
:101810004D23204D23204D23205023204F2460248E
:10182000204E246024202D2025204D4C4B25204D7A
:1018300025204C22604A48226022202D2025204D60
:101840004C4B25204D25204C22604A482260222006
:10185000472160474B212049414822602260226095
:101860002220492360494D23204B23204C2460240F
:101870006024602D2E2F602F602F60502F202F604E
:101880002E604EA04D23204D23204D232050232099
:101890004F246024204E246024202F602F602F606E
:1018A000502F202F602E604EA04D23204D23204D21
:1018B00023205023204F246024204E246024202DF8
:1018C0002025204D4C4B25204D25204C22604A4898
:1018D000226022202D2025204D4C4B25204D2520F7
:1018E0004C22604A4822602220472160474B212039
:1018F0004941482260226022602220492360494DEC
:1019000023204B23204C2460246024602D2E2F6044
:101910002F602F60502F202F602E604EA02D602D45
:10192000602D6050408F804EA02F602F602F605040
:101930002F202F602E604EA02D602D602D60504016
:101940008F804EA04B4F4D4B4B4F4D4B484E4D4C07
:10195000484C4B4A494D4C4B494D4C4B4A4B4C4ED5
:101960004A4D4E4F4B4F4D4B4B4F4D4B484E4D4CB0
:10197000484C4B4A49545352495453524A5152537A
:101980004A545556464E4F51464E4F51444D4E5176
:10199000444D4E51434D4E4F43504F4E444E4D4C8F
:1019A000444A4B4C464E4F51464E4F51444D4E517A
:1019B000444D4E51434F5052434F50524452535452
:1019C0004453514E454B4C4D454B4C4D42484B4C6E
:1019D00042484B4C454B4C4D454B4C4D42484B4C73
:1019E00042484B4C4147494B4147494B42484A4C7E
:1019F00042484A4C43494B4D43494B4D444A4C4E57
:101A0000444E4F5000000000008800000088002273
:101A100000AA002200AA00AA00AA44AA00AA44AA76
:101A200011AA55AA11AA55AA55434C454152000086
:101A300000590D003200010100000050415553458E
:101A4000000000590D000000010100000055504742
:101A50005241444500590D000000010100000048BA
:101A60004F555345000000390D006400020201008B
:101A7000115741544552000000210D00FA000103A6
:101A800000010053414C4F4F4E0000F10C08F4018F
:101A900003020001154641524D00000000B10C0840
:101AA000F4010402000A174D494C4C000000009953
:101AB0000C01EE0201030001004D494E45000000FB
:101AC00000510C1ED0070303001E0043485552432B
:101AD000480000210C01D0070302020014534845BE
:101AE0005249464600010C02DC0502020200134284
:101AF000414E4B00000000E10B04C4090202050046
:101B000012535441424C450000910B02DC05040283
:101B10000400165745454400000000890B000A00E8
:101B200001010000004341435455530000810B0064
:101B30000F00010100000054524545000000006103
:101B40000B001E00020200000054544D0000000073
:101B500000490B0000000103000000485332000060
:101B6000000000290B01FA000202010000424E4B66
:101B70003200000000D10B07881302030500005358
:101B800052464632000000090B02B80B0202020066
:101B9000004352433200000000C10A02DC05030387
:101BA000020000534C4E3200000000790A12E80394
:101BB00003030005005354424C32000000190A058B
:101BC000E803040304000046524D3200000000B94F
:101BD0000912E803040300140000F81A11241FBEC0
:101BE000CFEFDAE0DEBFCDBF11E0A0E0B1E0EAE187
:101BF000FBE602C005900D92A032B107D9F728E0AC
:101C0000A0E2B1E001C01D92AB3CB207E1F71DE0DC
:101C1000CEEEDDE004C02197FE010E948535CD3E69
:101C2000D107C9F70E94D01B0C94E6310C94000038
:101C3000E7E3F1E0A0E0B8E000800EBC8111012CE8
:101C40001197A0FDFDCF0192B9F70DB4089560344E
:101C5000710590F5480F592F511D1416150664F59E
:101C6000803891054CF597FF02C090E080E0413844
:101C7000510514F040E850E0481BFB01E770FF27D6
:101C800021E001C0220FEA95EAF7FB0133E0F59568
:101C9000E7953A95E1F7F695FE2FEE27F795E7954C
:101CA000E80FF91FE95CFE4F415030F08191DF01F0
:101CB0001197822B8C93F8CF0895DF92EF92FF92C9
:101CC0000F931F93CF93DF93782FC091CA05D091C4
:101CD000CB0527968E01117030E020E042E1D42E32
:101CE0007801E21AF30A81E0F822D701AE58BA4F20
:101CF000FD01E35AFF4F90819F71492F50E09D9D58
:101D0000F0011124EA5CF54EE491EE0DFF2DF11D7A
:101D10000C3F81E0180730F47F0181E0F8220E15B6
:101D20001F0518F0CE17DF0788F4892F992371F06B
:101D300093EF980F711111C0923040F0DF91CF9165
:101D40001F910F91FF90EF90DF9008952F5F3F4F0D
:101D50002430310529F680E0F1CF440F551F435C54
:101D60005A4FFA01E35AFF4F2081425A5F4FEA016E
:101D70009881392F33702115310551F021503C4F96
:101D800033702083232F237091819C7F922B91832A
:101D9000A35ABF4F6F716C93D1CF2F923F924F9246
:101DA0005F926F927F928F929F92AF92BF92CF92EB
:101DB000DF92EF92FF920F931F93CF93DF93CDB7F4
:101DC000DEB728970FB6F894DEBF0FBECDBF30E068
:101DD000F901E80FF91FF7FD82C0803891050CF07A
:101DE0007EC07B01E7E0EE22FF240695069506956E
:101DF000402E512CDA01E3E075956795EA95E1F7FD
:101E00007695762F662777956795680F791F1E82DE
:101E10001D82B12CA12CAB01495C5E4F1A01AB01B4
:101E200049545E4F5A83498348E050E0BA016E1925
:101E30007F097C836B836D807E80620C731C89803C
:101E40009A804D815E81840E951E8C0150E040E0A9
:101E500017FD29C0BD01640F751F78876F83FB01D3
:101E600064916301C40ED51E0E2C01C0660F0A9446
:101E7000EAF7F6017081672B6083E114F10499F0B1
:101E8000EF81F885D490B401640F751FED2DF0E05B
:101E90006F010B8002C0D594C7940A94E2F7FB014E
:101EA000D080CD28C0824F5F5F4F0F5F1F4F42171A
:101EB00053071CF40038110559F6A5014F5F5F4F19
:101EC000A20FB31F6D817E8160587F4F7E836D832B
:101ED000AA24A394B12C441555050CF4ACCF289634
:101EE0000FB6F894DEBF0FBECDBFDF91CF911F912B
:101EF0000F91FF90EF90DF90CF90BF90AF909F90A9
:101F00008F907F906F905F904F903F902F900895AB
:101F10002F923F924F925F926F927F928F929F92F9
:101F2000AF92BF92CF92DF92EF92FF920F931F93E7
:101F3000CF93DF93CDB7DEB72B970FB6F894DEBF04
:101F40000FBECDBF9C018091CD0541E0811101C044
:101F50004FEF8091CA059091CB05B3E0880F991F90
:101F6000BA95E1F75091CC05459F402D1124841B73
:101F7000910947FD93958C0197FF02C0015F1F4FA8
:101F8000F4E015950795FA95E1F7919581959109FA
:101F900060E170E00E946A357C0140E1E41AF108DA
:101FA000A901A5E056954795AA95E1F7498327EA47
:101FB00047FD26EA5C982EBD00000DB407FEFDCF5C
:101FC0005C9A4F774C3008F0C2C028E0241B422FA7
:101FD0009C01205F3B4F3B832A83E0E46E2E712CF3
:101FE000C801B3010E946A35FC01FC5F2491822F75
:101FF00090E064E0959587956A95E1F78E0D9F1DB9
:102000009F838E832F7030E0245F3F4F0F5F1F4F01
:1020100090E1E90EF11CC801B3010E946A35FC0190
:10202000FC5FE4918E2F90E074E0959587957A950A
:10203000E1F74C018E0C9F1CEF70F0E03C96B40170
:102040002E803F8062197309DF01A21BB30BB7FF1B
:1020500003C0B195A195B109CB0177FD0196959586
:10206000879551E02E173F070CF05FEFA52E550F17
:10207000BB08BD82AC822E803F80281439040CF04E
:1020800087C037FC54C0F101E038F1050CF080C086
:102090006901F7E0CF22DD24E8E0F0E0EC19FD096A
:1020A00022242A94312C02C035942794EA95E2F731
:1020B0002A862224239401C0220CCA94EAF72B8694
:1020C000EE81FF81E95CFE4F6F01B12CA12C50E045
:1020D000EE81E3704E2E512C2A153B05FCF0F501E4
:1020E000389629802E173F070CF03BC0E52F27FEBE
:1020F000E195FE2FF40FF93084F1F8E0E4E0FE0200
:1021000010011124F101E40DF51DEB5FF54EE49192
:102110003A843E222B842328F60120825F5FF8E078
:10212000AF0EB11CE0E8CE0ED11C5430A9F68A1BCC
:102130009B0B97FF06C02C803D80220D331D860F20
:10214000971FEE81FF813196FF83EE8394CF453751
:1021500010F047573DCF40EC3BCFF7FFCFCFF0E03B
:10216000CDCFE52F27FEE195FE2FF40FF93064F077
:10217000F8E0E4E0FE0210011124F101E40DF51D88
:10218000EB5FF54E2490C8CFF7FFF3CFF0E0F1CF2F
:102190002A803B80E214F30409F022CF2B960FB67D
:1021A000F894DEBF0FBECDBFDF91CF911F910F918D
:1021B000FF90EF90DF90CF90BF90AF909F908F9067
:1021C0007F906F905F904F903F902F9008959091E7
:1021D0004205982329F490914105982381E009F460
:1021E00080E008952091CA053091CB05295F3F4FCB
:1021F0003170E091270882E1E89FF0011124EA5C48
:10220000F54E50E040E084918417150691F088F077
:10221000D901A40FB51FB170A153BA4F8C918F7122
:1022200093EF980F923010F0811107C04F5F5F4F0E
:10223000EACF60E080E00C945D0E08950F931F9349
:10224000CF93DF930091CA051091CB05C82F880F5B
:10225000DD0B80912708811108C084E08093CC05B4
:10226000DF91CF911F910F9108950E94F210882362
:10227000A1F32091CA053091CB052C0F3D1F317081
:102280003093CB052093CA050217130711F7E8CF47
:102290003FB7F8948091330190913401A0913501BA
:1022A000B091360126B5A89B05C02F3F19F00196C5
:1022B000A11DB11D3FBFBA2FA92F982F8827BC01A0
:1022C000CD01620F711D811D911D42E0660F771FC8
:1022D000881F991F4A95D1F7089580389105B8F461
:1022E00060347105A0F420E191E061FD94E060FDAF
:1022F000990F62FD9295687F269FD0011124A80F47
:10230000A95CBE4F8C91442319F0892B8C930895BE
:1023100090958923FBCF2F923F924F925F926F92BD
:102320007F928F929F92AF92BF92CF92DF92EF9265
:10233000FF920F931F93CF93DF937C014B01C42F28
:10234000D0E081E090E06C01CC1ADD0AAA24BB2425
:10235000AC1ABD0AAA0CBB1C66246394712C10E055
:1023600000E0822F8470582E822F8270482E822F98
:102370008870382E2170222ED7FC06C0219782E06B
:10238000A80EB11CCA0CDB1C0F5F1F4F82E0680E49
:10239000711CC60CD71C552091F041E0BE01680DA0
:1023A000791DC701800F911F0E946D1141E0B4019A
:1023B000600F711FCE018E0D9F1D0E946D11442074
:1023C00091F041E0B4016C1B7D0BC701800F911FA0
:1023D0000E946D1141E0B401601B710BCE018E0DA6
:1023E0009F1D0E946D11332091F041E0B401600FF8
:1023F000711FC7018C1B9D0B0E946D1141E0BE0136
:10240000680D791DC701801B910B0E946D11222060
:1024100091F041E0B401601B710BC7018C1B9D0B57
:102420000E946D1141E0B4016C1B7D0BC701801B44
:10243000910B0E946D110C171D070CF49DCFDF91BD
:10244000CF911F910F91FF90EF90DF90CF90BF90B1
:10245000AF909F908F907F906F905F904F903F9044
:102460002F900895DF92EF92FF920F931F93CF93D7
:10247000DF937C01D22E8B01040F111DEB0177FF3E
:1024800002C0D0E0C0E0C8010134110514F080E4BE
:1024900090E0C817D9073CF44D2DBE01C7010E943A
:1024A0006D112196F0CFDF91CF911F910F91FF9089
:1024B000EF90DF9008955F926F927F928F929F923C
:1024C000AF92BF92CF92DF92EF92FF920F931F9342
:1024D000CF93DF93EB016A01122FFE2CFF0C522EDB
:1024E0005F186E2C712C4301860E971E452DB60188
:1024F000C4010E94270E5601A00EB11CB501615007
:102500007109452DC4010E94270E0F19C60CD71C56
:1025100021E0402FB601CE010E943212C10FD11D21
:1025200021E0402FB601CE0101970E94321221E036
:102530004E2DB601C4010E948B11C619D7092197EF
:1025400022E04E2DB601CE010E948B1185010619A5
:1025500017090150110924E04E2DB801CE010E9447
:102560008B1128E04E2DB801C401DF91CF911F914E
:102570000F91FF90EF90DF90CF90BF90AF909F9022
:102580008F907F906F905F900C948B112F923F9261
:102590004F925F926F927F928F929F92AF92BF9273
:1025A000CF92DF92EF92FF920F931F93CF93DF931F
:1025B00000D000D0CDB7DEB75B012A010A83822F9D
:1025C00090E09C838B8301E010E0081B190B1C0139
:1025D000319421943108220C331C88248394912C4B
:1025E000D12CC12C91E09E0D998317FD0AC08B81DF
:1025F0009C8101979C838B8392E0290E311C020DF4
:10260000131DEFEFCE1ADE0AF2E08F0E911C080DBB
:10261000191D4B81440FB2018B819C81681B790B82
:10262000FE2CF80C32016C187D089A81913069F506
:10263000E9814E0F20E0C5018C0D9D1D0E943212D4
:1026400020E04F2DB3018B819C818A0D9B1D0E9440
:102650003212EB81FC81CE16DF063CF20F900F9018
:102660000F900F90DF91CF911F910F91FF90EF90FE
:10267000DF90CF90BF90AF909F908F907F906F90A2
:102680005F904F903F902F900895F9814F0F20E079
:10269000C5018C199D090E94321220E04F2DB30113
:1026A000C501EB81FC818E1B9F0BD1CF2F923F92F6
:1026B0004F925F926F927F928F929F92AF92BF9252
:1026C000CF92DF92EF92FF920F931F93CF93DF93FE
:1026D00000D01F92CDB7DEB74C011B016A012983E0
:1026E0001E2D8E2D880F422E481AF12C5701A60E52
:1026F000B71E35014A0C5B2C511C6414750454F44C
:1027000020E0402FB601C3010E9432122FEF621A5F
:10271000720AF3CF802F90E09B838A83C701880FD2
:10272000991F2A813B81281B390B215031093B839A
:102730002A83CE0CDF1CB1013981630F711D6E1924
:102740007F0961507109EA80FB8001E0212FA60119
:10275000C4010E94C612EA80FB8002E0212FA6017C
:10276000B501C4010E94C6120F900F900F90DF9127
:10277000CF911F910F91FF90EF90DF90CF90BF907E
:10278000AF909F908F907F906F905F904F903F9011
:102790002F900895EF92FF920F931F93CF93DF93A3
:1027A000EC0141E065E070E00E946D1141E063E002
:1027B00070E0CE010E946D117E018FEFE81AF80AD9
:1027C00041E064E070E0C7010E946D118E0101508C
:1027D000110941E064E070E0C8010E946D1141E020
:1027E00064E070E0C7010E946D1141E064E070E0B8
:1027F000C8010E946D1141E064E070E0C7010E94D1
:102800006D1141E064E070E0C8010E946D1141E08B
:1028100065E070E0CE010E946D1141E065E070E07E
:10282000CE010E946D1141E063E070E0CE010E9494
:102830006D1141E063E070E0CE01DF91CF911F9117
:102840000F91FF90EF900C946D110895F89487E725
:102850008093000880930108A89588E18093600028
:1028600088E080936000FFCF8F929F92AF92BF92DB
:10287000CF92DF92EF92FF926C01F12CE12C0E943B
:1028800048114B015C010E944811681979098A09B5
:102890009B09683E734081059105A8F321E0C21AA7
:1028A000D108E108F10888EE880E83E0981EA11C8B
:1028B000B11CC114D104E104F10429F7FF90EF9099
:1028C000DF90CF90BF90AF909F908F9008958FB181
:1028D0008095807F669B88601C9B846008958091B2
:1028E0002D01089510922D013E983F9808953E9A2B
:1028F0003F9A81E080932D010895EF92FF920F930C
:102900001F93CF93DF938C017B01D0E0C0E0F701F0
:10291000EC0FFD1F6491662361F0D801ED91FC91ED
:102920000190F081E02DC8010995892B11F02196C5
:10293000EECFCE01DF91CF911F910F91FF90EF90DD
:102940000895AF92BF92CF92DF92EF92FF920F93D2
:102950001F93CF93DF936C017B018B01040F151F35
:10296000EB015E01AE18BF08C017D10759F069919D
:10297000D601ED91FC910190F081E02DC601099501
:10298000892B79F7C501DF91CF911F910F91FF90AE
:10299000EF90DF90CF90BF90AF900895260F372F24
:1029A000311D37FD14C0603871058CF44034510579
:1029B00074F4FC0142814617170609F034F4938140
:1029C00081E09217130609F00CF480E0089581E08D
:1029D00008956F927F928F929F92AF92BF92CF9203
:1029E000DF92EF92FF920F931F93CF93DF937C01BF
:1029F000EB015A016901102F08E0212F0E94CE142B
:102A0000811155C0950127703327A50183E05595A5
:102A100047958A95E1F75695542F44275795479542
:102A20004A0180E8880E911CCE01012F10E0CC1ADB
:102A3000DD0A68E070E03B01621A730ABC016C1B9E
:102A40007D0B601771079CF58038910584F597FF21
:102A500002C00196F3CFF601E80FF91F6491D70188
:102A6000AD90BC90DA01A80FB91FAA0DBB1D022EB4
:102A700001C0660F0A94EAF77C91672B6C932115CD
:102A8000310539F3B490F701A081B181B401680F29
:102A9000791FA60FB71FEB2DF0E0062C02C0F595AD
:102AA000E7950A94E2F76C91E62BEC93D2CFDF9195
:102AB000CF911F910F91FF90EF90DF90CF90BF903B
:102AC000AF909F908F907F906F9008956F927F92BC
:102AD0008F929F92AF92BF92CF92DF92EF92FF922E
:102AE0000F931F93CF93DF936C01EB014A015901C0
:102AF000102FEE2009F46EC008E0212F0E94CE14A2
:102B000081112CC0940127703327A40183E05595CF
:102B100047958A95E1F75695542F44275795479541
:102B20004A018C0E9D1E40585F4F4C0F5D1F90E078
:102B300080E0012F10E0B80161507109A60EB71EA8
:102B400068E070E03B01621A730A8017910734F461
:102B5000BE01680F791F6038710578F0DF91CF9161
:102B60001F910F91FF90EF90DF90CF90BF90AF90AB
:102B70009F908F907F906F900895F501E81BF90B5F
:102B80006491D601ED90FC90D401A80FB91FAE0D51
:102B9000BF1D022E01C0660F0A94EAF77C91672BD5
:102BA0006C9321153105A1F0F490F601A081B1815B
:102BB000BC01640F751FA60FB71FEF2DF0E0062CA8
:102BC00002C0F595E7950A94E2F76C91E62BEC9339
:102BD0000196BBCF0E94E914C1CFCF92DF92EF9252
:102BE000FF920F931F93CF93DF93E0912801F09111
:102BF0002901CF01019690932901809328018491A6
:102C0000811113C0809171008D7F809371001092AB
:102C10009100469810922A01DF91CF911F910F9158
:102C2000FF90EF90DF90CF90089591E090932A016C
:102C3000E82FEF71F0E0EE0FFF1FE15DF14FC5915E
:102C4000D491E82FF0E055E0F595E7955A95E1F736
:102C5000EE0FFF1FEF5DF14F05911491209709F0E2
:102C600040C09093200146983FE9C32E3FE0D32E09
:102C7000E12CF12CCAEFD0E0E0912B01F0912C0176
:102C80000995811103C081E08093200181E090E0EB
:102C9000A0E0B0E00115110569F09801DE010E9485
:102CA0003135DC01CB0129E0B595A795979587953E
:102CB0002A95D1F7109290002AE020939100D092AB
:102CC0009900C09298008093210190932201A093D3
:102CD0002301B09324018091710082608093710080
:102CE0009BCF9E0150E040E060E472E48FE090E012
:102CF0000E94A63469017A0181E0C81AD108E1086E
:102D0000F10810922001B8CFCF92DF92EF92FF929C
:102D1000CF93DF93FC01CA01E90170E050812617CF
:102D2000370750F0689F9001699F300D789F300DF4
:102D300011242C173D0758F0543610F45F5F508370
:102D4000DF91CF91FF90EF90DF90CF900895A4E6B0
:102D5000B0E00E9431356B017C01252F30E0DE01AF
:102D60000E943135C616D706E806F90610F4515010
:102D700050834081A42FB0E011969E010E947E35C1
:102D8000C616D706E806F906D8F24436C8F64F5FED
:102D90004083D6CF6F927F928F929F92AF92BF92D5
:102DA000CF92DF92EF92FF920F931F93CF93DF9317
:102DB0004C017B01C22F102F98E0A92EB12C642E5C
:102DC000669466946694712CCA0187709927892B42
:102DD00079F5D40117962D913C91C7019927B90136
:102DE0000E946A35269DF001279DF00D369DF00D5D
:102DF00011248E0F9F1FD4011596ED91FC91E80FC1
:102E0000F91F2081111112C0C095C223C083DF9128
:102E1000CF911F910F91FF90EF90DF90CF90BF90D7
:102E2000AF909F908F907F906F900895C22BEECFC0
:102E3000D0E04770C42ED12C83E0660C771C8A95B5
:102E4000E1F79E0101C0220F4A95EAF7012FA30185
:102E5000B701C4010E94CA16A301485F5F4FC501B4
:102E60008C199D0902C0D595C7958A95E2F7A7CF21
:102E70003F924F925F926F927F928F929F92AF920A
:102E8000BF92CF92DF92EF92FF920F931F93CF9357
:102E9000DF93EC0189899A8997FD05C02B893C89CC
:102EA000821793079CF06A3029F58D859E859C8753
:102EB0008B878F892F853889820F932F911D988B4F
:102EC0008F878B899C8901969C8B8B8B81E090E00E
:102ED000DF91CF911F910F91FF90EF90DF90CF90F6
:102EE000BF90AF909F908F907F906F905F904F902A
:102EF0003F900895EB84FC84603231F425E0E20ECB
:102F0000F11CFC86EB86DDCF693021F439E0E30E5D
:102F1000F11CF7CF8DEFE8168FEFF8060CF470C0B8
:102F20008F819885E816F9060CF06AC0CF84D8889E
:102F30009DEFC9169FEFD9060CF462C089859A856A
:102F4000C816D9060CF05CC0603208F46FE780EE5A
:102F5000860F9FE9960F9A3118F42FEFC21AD20A02
:102F60008C3011F08B3119F43FEFC31AD30A8695D8
:102F700024E0829FC00111249C012F59324F290166
:102F8000B12CA12C162F1170360131E0631A710893
:102F9000F201EA0DFB1D349011113CC0832D8F709E
:102FA000382E47018A0C9B1C8C81882351F001E04C
:102FB0008D89811100E02FE3A301B401CE010E94AD
:102FC000CA160D89232DA601B401CE010E94CA168E
:102FD0009FEFA91AB90A24E0A216B104C9F68C81A0
:102FE000882371F001E08D89811100E0A601415034
:102FF0005109B7016C5F7F4F2FE3CE010E94CA16C3
:103000008E8990E004962B853C85820F931F9C87C8
:103010008B8757CF32948FE03822C3CF089590E04A
:1030200080E008950F931F93CF93DF9380E190E0AA
:103030000E944035082F81E190E00E944035182F12
:1030400082E190E00E944035D82F83E190E00E9419
:103050004035C82F84E190E00E944035982F0C3411
:1030600049F4113439F4D73429F4C03319F481E028
:10307000913309F080E0DF91CF911F910F91089576
:1030800082E090E00E94403581110C9477140C94FA
:1030900072146115710579F0FB0101900020E9F7C8
:1030A0003197AF01461B570BDC01ED91FC9102807B
:1030B000F381E02D099490E080E008958F929F9233
:1030C000AF92BF92EF92FF920F931F93CF93DF9334
:1030D000CDB7DEB7A1970FB6F894DEBF0FBECDBF58
:1030E0007C01FA01CB0119A2223008F42AE08E01FA
:1030F0000F5D1F4F822E912CB12CA12CBF01A50179
:1031000094010E940F35F901CA016A30ECF4605D48
:10311000D8016E938D01232B242B252B79F7BD012C
:10312000C7010E944918A1960FB6F894DEBF0FBEE2
:10313000CDBFDF91CF911F910F91FF90EF90BF9086
:10314000AF909F908F900895695CE2CF2F923F924D
:103150004F925F926F927F928F929F92AF92BF92A7
:10316000CF92DF92EF92FF920F931F93CF93DF9353
:1031700000D000D01F92CDB7DEB78C01D62E7A01D9
:10318000712C612CB12CA12C862F8F71882E912C43
:1031900086149704A1F40E94D631F501EE0FFF1FAB
:1031A000E00FF11F8F7799278E0D9F1D95838483E4
:1031B0000E94D631F801EA0DFB1D8F7084A32FEF1A
:1031C000A21AB20A34E0630E711C40E1A416B104E5
:1031D000F9F6F80190E13D2D3770311107C084A157
:1031E00021E0811101C020E0821B84A3915031961F
:1031F0009111F3CFD6942D2D30E093E0359527959E
:103200009A95E1F7E3E0F0E0C901BF010E946A3559
:103210001C01C9010196BF010E946A352C01C90138
:103220000296BF010E946A35A0E0B3E01D821C82B5
:10323000E1E0F0E0EC0FFD1F2E0E3F1E4E0E5F1E74
:103240003F01680E791E30E020E080E8882E85E09E
:10325000982E8A1A9B0AF80182818217130609F0B8
:1032600030F483818217130611F008F0A8C0F8012A
:1032700060817181C401820F931F41E050E02115EC
:10328000310511F450E040E0FC01E41BF50BAF0107
:10329000460F571FFA0140814983860F971FFC0193
:1032A00040814A8341E050E02F37310511F450E06E
:1032B00040E0840F951FFC0180818B83F101D08059
:1032C000F201808190E0F301408150E0AD2CAA0C26
:1032D000FA2DF071AF2EDD1CDD24DD1CAD286C0154
:1032E000D694DC2CCC24D794C794AC286C01F5E0A0
:1032F000D594C794FA95E1F7EC2DE270CE2ECA284A
:103300005A01E3E0B594A794EA95E1F7FA2DF47039
:10331000AF2EAC286C01D594C794EC2DE870CE2E5E
:10332000CA28E3E0880F991FEA95E1F780728C299B
:10333000F5E0440F551FFA95E1F74074842B4C815A
:103340005D81452B09F48160580154E0A50EB11C44
:10335000CC24C394D12CF501419151915F014E19B8
:103360005F0942175307F0F44D5F5F4F241735078D
:10337000C8F4A8014C0D5D1DFA0193A1492F50E03E
:10338000E3E055954795EA95E1F7EC81FD814E170D
:103390005F0741F4977041E050E001C0440F9A95F7
:1033A000EAF7842BFFEFCF1ADF0A41E1C416D104FC
:1033B00091F6620F731F6A0F7B1FFB0180832F5FE3
:1033C0003F4F2038310509F046CFA058BF4F2C8120
:1033D0003D8121303105C1F40F900F900F900F9077
:1033E0000F90DF91CF911F910F91FF90EF90DF90A1
:1033F000CF90BF90AF909F908F907F906F905F9095
:103400004F903F902F90089521E030E03D832C8332
:103410001ACFFF920F931F93CF93DF93EC01F62EF9
:1034200008811981C8010E944035F81621F06F2DDE
:10343000C8010E944835CE01DF91CF911F910F91B5
:10344000FF9008950F931F93CF93DF9300D0CDB7D4
:10345000DEB70091C4081091C50880913A0590919B
:103460003B0580179107D0F410933B0500933A0574
:103470000E941218882391F085E190E09A83898355
:10348000602FCE0101960E94091A86E190E09A838E
:103490008983612FCE0101960E94091A0F900F9027
:1034A000DF91CF911F910F9108951F920F920FB648
:1034B0000F9211242F933F938F939F93AF93BF93BA
:1034C00080912F0190913001A0913101B091320192
:1034D00030912E0123E0230F2D3758F50196A11DC1
:1034E000B11D20932E0180932F0190933001A09362
:1034F0003101B09332018091330190913401A09158
:103500003501B09136010196A11DB11D80933301A3
:1035100090933401A0933501B0933601BF91AF91E0
:103520009F918F913F912F910F900FBE0F901F9001
:10353000189526E8230F0296A11DB11DD2CF1F9228
:103540000F920FB60F9211242F933F934F935F93D7
:103550006F937F938F939F93AF93BF93EF93FF935B
:103560008091210190912201A0912301B091240129
:10357000892B8A2B8B2BC9F180912001811104C0EA
:1035800088B190E4892788B9809121019091220126
:10359000A0912301B0912401181619061A061B06E2
:1035A0009CF48091210190912201A0912301B0917E
:1035B00024010197A109B10980932101909322016F
:1035C000A0932301B0932401FF91EF91BF91AF919C
:1035D0009F918F917F916F915F914F913F912F912B
:1035E0000F900FBE0F901F9018950E94ED15ECCF15
:1035F000E7E3F5E01082128211821482138284E1E3
:1036000091E0968385831286138620E124871186B4
:103610001086168687E391E0918B808B3FEF328B8B
:10362000338BEBE4F5E030E2DF011D923A95E9F7E8
:10363000EBE6F5E0DF011D922A95E9F710927E0591
:1036400010927D05EBE7F5E028E031E0318320833F
:10365000909381058093800580E890E090938305A6
:103660008093820580E490E09093850580938405A3
:1036700085E08093920581E0809391051092890501
:103680001092880510928B0510928A05109287057A
:10369000109286052FEF3FEF30938D0520938C0518
:1036A00010928F0510928E058093900510927F05E1
:1036B0008FE694E190932C0180932B0146983E9ADB
:1036C0008CE395E09093950580939405F09397058E
:1036D000E093960587E495E090939905809398058B
:1036E000EAE9F5E080E3DF011D928A95E9F710929F
:1036F000CB051092CA051092CC051092CD05109200
:10370000CE05EFECF5E080E092E0DF019C011D9238
:1037100021503040E1F71092D0071092CF0710925D
:10372000D2071092D10783E08093270887EE93E0B9
:10373000909329088093280884E080932A081092A7
:103740002B0810922C0810922D0810922E0810921F
:103750002F08109230081092310810923208E3E3DB
:10376000F8E08FE0DF011D928A95E9F71092420898
:1037700010924308E4E4F8E080E8DF011D928A95A6
:10378000E9F71092C5081092C4081092C60810926A
:10379000C7081092C8081092C9081092CA08089564
:1037A000CDB7DEB7AC97DEBFCDBF81E08093E00040
:1037B0001092E2001092E10080E28093D800109213
:1037C000D70080916500806880936500789484B507
:1037D000826084BD84B5816084BD85B5826085BD0D
:1037E00085B5816085BD80916E00816080936E009B
:1037F000109281008091810082608093810080918D
:10380000810081608093810080918000816080933D
:10381000800080919100826080939100809191005E
:1038200081608093910080919000816080939000EE
:103830008091C10084608093C1008091C10082604A
:103840008093C1008091C10081608093C10080910C
:10385000C30081608093C3008091C0008260809328
:10386000C0008091C20081608093C20080917A0084
:10387000846080937A0080917A00826080937A00DD
:1038800080917A00816080937A0080917A008068CC
:1038900080937A00559A209A5D9A289A8C9A8498F7
:1038A0008AE090E00E9434147C9B0E942614809150
:1038B00064008E7F8093640080917A00806480939E
:1038C0007A0080917A0086FDFCCF009178001091FB
:1038D00079000E944811AB01BC0190916400916095
:1038E00090936400C801B0E0A0E0DC01992788272C
:1038F000840F951FA61FB71F0E94DB3181EC8093B8
:103900007C0085B1806F85B984B1877E84B984B12C
:10391000876E84B95E9A5F988AB1806D8AB9769A0B
:103920006E9881B3806F81BB899880B38D7080BBA6
:1039300080E58CBD81E08DBD85E090E00E9434146F
:103940005F9A85E090E00E9434145E985C98EDE503
:10395000FEE08AE69EE024912EBD00000DB407FE35
:10396000FDCF31968E179F07B1F75C9A81E880935F
:1039700064008091650081608093650080E00E9412
:10398000180E0E94671402E010E087FF15C05C98D3
:1039900085EA8EBD00000DB407FEFDCF5C9A2E981F
:1039A0002F982D988091640080628093640081E05C
:1039B00083BF889513BEFCCF0E94671482FF3EC070
:1039C0002D980E94671484788438B9F42D9A88EC75
:1039D00090E00E9434142F981A8309836FEFCE0170
:1039E00001960E94091A84EF91E00E9434142F9AE4
:1039F0000E94671484788438D9F30E946714847114
:103A00008431B9F42D9A88EC90E00E9434142E98F9
:103A10001A83098360E0CE0101960E94091A84EF9F
:103A200091E00E9434142E9A0E94671484718431AC
:103A3000D9F388EC90E00E943414BECF2D9A0E94F6
:103A4000401881E090E00E944035182F81E090E01E
:103A50000E94403581FF0EC0212F2470F22E12FDEE
:103A60002E9800EF1FEF0E94671486FF3BC02E9A2E
:103A70002F9A2D9A82E390E00E9434140E946714DA
:103A80008111F8CF8FE1809343050E9440180E9476
:103A90001218882369F085E190E00E944035182FC4
:103AA00086E190E00E94403510933A0580933B05F3
:103AB00011E08FB7F89440912F015091300160913F
:103AC0003101709132018FBF80914405342F381B32
:103AD000832F90914505992329F130934605109243
:103AE0004505E7CFFF2029F00430110511F42E9A87
:103AF0002F9881E00E94180E80E00E94180E8FE03F
:103B000090E00E9434140F5F1F4F0931110509F036
:103B1000AACFFF2011F02F9A2D9880E991E00E9402
:103B20003414A7CF90914305391748F48F5F891754
:103B300008F0BFCF41E043BF889513BEBACF1093C2
:103B400045054093440580913F05909140050196BD
:103B50009093400580933F058091410580934205F5
:103B60000E9467148093410580912A0181110DC044
:103B7000809171008D7F8093710084E797E190932D
:103B80002901809328010E94ED158091C908823097
:103B900011F40C94412938F5882309F43AC0813096
:103BA00009F47CC280E0E7E3F1E081118FEF0024AB
:103BB00081938193819381930394D1F78091C90874
:103BC000823011F40C94CB3010F00C9451298823DE
:103BD00011F40C947529813011F40C94AE2B80E013
:103BE0000E94180E66CF843011F40C94412910F411
:103BF0000C941E298530B1F684E00E94E7108111F3
:103C00001092C90880E10E94E710882309F4CACF06
:103C10004CCE80E80E94E710882369F08091CA08A2
:103C2000823009F466C008F058C0882309F45DC0EA
:103C3000813009F465C080E10E94E710882369F0B3
:103C40008091CA08823009F47EC008F064C08823DD
:103C500009F46AC0813009F46EC080E40E94E71064
:103C6000882369F08091CA08823009F484C008F082
:103C700070C0882309F479C0813009F47AC080E2E9
:103C80000E94E710882369F08091CA08823009F405
:103C900090C008F07CC0882309F485C0813009F405
:103CA00086C088E00E94E710882369F08091CA08E6
:103CB000823009F4ADC108F088C0882309F495C0AA
:103CC000813009F48FC184E00E94E710882309F451
:103CD00069CF85E08093C90865CF8430D1F098F032
:103CE000853009F0A8CF84E001C085E08093CA0840
:103CF000A2CF0E941218882319F01093CA089BCFF4
:103D00001092CA0898CF8091C608882391F382E068
:103D1000EDCF83E0EBCF8430D1F0B8F0853009F0FF
:103D20009CCF1092CA0899CF0E941218882319F0CC
:103D30001093CA0892CF8091C608882321F082E0B0
:103D40008093CA088ACF83E0FBCF84E0F9CF85E077
:103D5000F7CF843091F0C0F0853009F090CF80919A
:103D6000C608882351F082E001C083E08093CA082E
:103D700086CF84E0FBCF85E0F9CF0E94121888231C
:103D800019F01093CA087BCF1092CA0878CF8430FC
:103D900091F0C0F0853009F084CF8091C608882367
:103DA00051F082E001C083E08093CA087ACF84E0BA
:103DB000FBCF85E0F9CF0E941218882319F01093E9
:103DC000CA086FCF1092CA086CCF843009F405C1BD
:103DD00008F4FFC0853009F076CF80912D0188234B
:103DE00009F4FDC00E9472146ECF8091C608811143
:103DF000E0C01092CB051092CA051092CC0510922B
:103E0000CE051092CD051092D8071092D7071092C8
:103E1000DA071092D9071092DE071092DD07109290
:103E2000E0071092DF0784E68093E3078093E407BE
:103E30008093E5078093E6071092E2071092E1076E
:103E400083E08093270887EE93E09093290880937E
:103E5000280810924408109242081092C508109247
:103E6000C4081092C80885E090E09093D007809332
:103E7000CF0780E091E09093D2078093D107E3E3EE
:103E8000F8E082E498E011928E179F07E1F790E046
:103E900080E0FC01EE0FFF1FE656FA4F21812B7FD9
:103EA000FC01EE0FFF1FE656FA4F10822C7F218394
:103EB00001968831910569F78091A105846080930E
:103EC000A10580919D05846010939C058C7F809353
:103ED0009D050E94D6319770985FB0E0A0E0809376
:103EE0002F0890933008A0933108B09332080FE068
:103EF000F12CE12C4DEED42E5FEEC52E6EEEB62EDB
:103F00000E94D631802397012E583A4FA701445082
:103F10005109493F514038F4823009F455C044F406
:103F2000813009F44BC0235A3F4FF90110824AC037
:103F30008530CCF7235A3F4FD901CC9200E0FFEFF8
:103F4000EF1AFF0AE11422E0F206D1F6E091CF0762
:103F5000F091D007E153FA4F1082E091D107F09130
:103F6000D207E153FA4F10821092780680EF8093C7
:103F70007906109222078093230727EEE22E27E08E
:103F8000F22E37E0C32E38E0D32E0E94D6319F7038
:103F9000D70191969C938E9390970E94D6319F70F3
:103FA000F701819391937F01CE16DF0671F710938D
:103FB000C6081092C7081093C90885CE235A3F4FF0
:103FC000D901BC920FE0BBCF235A3F4FF901D082F9
:103FD000F9CF82E08093C90876CE83E0FBCF0E94C0
:103FE000771471CE84E9C82E85E0D82E98E1E92EA9
:103FF000F12CC7010E944035D6018D936D01BFEFB2
:10400000EB1AFB0AEDE4EE16E3E0FE0691F7D1CFE2
:1040100080E190E09A8389836CE4CE0101960E944E
:10402000091A81E190E09A83898361E4CE010196C7
:104030000E94091A82E190E09A83898367E4CE01A5
:1040400001960E94091A83E190E09A83898360E3D4
:10405000CE0101960E94091A84E190E09A83898337
:1040600061E3CE0101960E94091AB4E9CB2EB5E0B6
:10407000DB2E08E1E02EF12CD6016D916D01FA8264
:10408000E982CE0101960E94091ABFEFEB1AFB0AE2
:10409000EDE4EE16E3E0FE0679F715CE8091C70851
:1040A0008823C9F10E94221A1092C9088091D3076F
:1040B0009091D40701969093D4078093D3079F7172
:1040C000892B49F48091D5079091D607019690935A
:1040D000D6078093D50780914208811151C3809102
:1040E000CC0581114DC30E946714082F0E946714EC
:1040F000807405FFC0C32091CA053091CB05882389
:1041000009F427C3369527953093CB052093CA052C
:104110001092CE0535C3A090DD07B090DE07C090A9
:10412000DF07D090E007CA14DB0440F08091280834
:10413000909129088436910508F45BC080E80E94BC
:10414000E71000914208E090D307F090D407811166
:1041500058C080E10E94E710882309F4D9C00111FA
:10416000A5CF40912708C701B0E0A0E0C0902B0880
:10417000D0902C08E0902D08F0902E084C015D01A5
:104180008C189D08AE08BF087501640180932B0848
:1041900090932C08A0932D08B0932E0880912A08A4
:1041A000833009F0A3C02CE0C216D104E104F1046D
:1041B0000CF09CC0442359F04150433008F484C0B3
:1041C000493008F483C04D3008F082C04DE028E14A
:1041D00030E0842F90E0FC01EE0FFF1FE556FA4F10
:1041E000508152FD77C00196B9010E946A35482F6F
:1041F000F0CF1092C6080E94221A84E08093C9086A
:1042000055CF011153CF80912708A70170E060E0DE
:10421000C0902B08D0902C08E0902D08F0902E082C
:1042200040932B0850932C0860932D0870932E0810
:1042300090912A089230C9F54C195D096E097F09E1
:104240004C3051056105710584F590E0019668E1F7
:1042500070E00E946A358D3090F4893090F483309C
:1042600090F080E0E82FF0E0EE0FFF1FE556FA4FE8
:10427000908192FD0CC0882341F08150F3CF89E0FA
:10428000F1CF83E0EFCF8DE0EDCF87E1EBCF109260
:104290002B0810922C0810922D0810922E08809353
:1042A000270882E080932A0801CF882359F08150A3
:1042B000E82FF0E0EE0FFF1FE556FA4F908192FFD6
:1042C000F4CFEDCF87E1F4CF43E081CF49E07FCF5A
:1042D00040E07DCF10922B0810922C0810922D08F0
:1042E00010922E084093270883E0DCCF28E130E0CD
:1042F000842F90E00196B9010E946A35482F880FFB
:10430000991FFC01E556FA4F808182FFF1CFEACF79
:1043100080E20E94E7108823A1F10111C7CEC701F6
:10432000B0E0A0E040912B0850912C0860912D083E
:1043300070912E0847015D01841A950AA60AB70AF2
:10434000B501A40180932B0890932C08A0932D080D
:10435000B0932E0880912A08811110C04C3051056D
:10436000610571055CF48FEF0E941E1110922B08FD
:1043700010922C0810922D0810922E0810922A08E4
:1043800095CE80E40E94E710882399F101118ECE2A
:10439000C701B0E0A0E040912B0850912C0860913B
:1043A0002D0870912E0857016D01A41AB50AC60A8E
:1043B000D70AB601A50180932B0890932C08A093EF
:1043C0002D08B0932E0880912A08813079F44C3062
:1043D00051056105710554F40E941E1110922B08BD
:1043E00010922C0810922D0810922E0810932A0873
:1043F0005DCE88E00E94E710882309F415C1011101
:1044000055CE80912708A70170E060E040932B080B
:1044100050932C0860932D0870932E0802E1809F22
:10442000F00111249F012C5C354E6901F9012591A1
:104430003491409128085091290842175307B8F445
:104440008FE497E19F938F931F9280E88F9384E48A
:1044500098E09F938F930E94F831109342080F9039
:104460000F900F900F900F900F9084E01BCF823031
:1044700009F053C060E080E00E945D0E089FF001EB
:104480001124E65CF54E6491662379F3E62EF12C57
:10449000609FF0011124EC5CF54EC590D4908091A2
:1044A0002808909129088C159D0518F488E297E159
:1044B000C9CF81E00E945D0E33E0E30EF11C97014D
:1044C000220F331F295C3A4FF901E35AFF4F8081D5
:1044D000225A3F4FD9012C91922F93708F3FB3E016
:1044E0009B07C1F001969370F701EE0FFF1FEC568A
:1044F000FA4F8083937081818C7F892B8183809197
:104500002808909129088C199D0990932908809377
:104510002808ABCF90E080E0E7CF813019F480939A
:10452000C708A3CFE090CA05F090CB05E7E0EE0EF8
:10453000F11CF1E0FF22811152C0F701E153FA4F63
:1045400080818F71803109F490CF60E081E00E941A
:104550005D0E0091270822E1029FF0011124AF01B6
:104560004A5C554E4A0150E040E0F40184918417C2
:10457000150609F008F445C09701240F351F317066
:104580002E583A4FD901A35ABF4F8C918F71B82E34
:10459000682F70E0660F771F635C7A4FDB01A35AC8
:1045A000BF4F8C91625A7F4FFB016081962F9370B1
:1045B000009771F0BB2061F081509C4F93708C93F9
:1045C000937011968C9111978C7F892B11968C93F7
:1045D000235A3F4FD9011C924F5F5F4FC6CF0E94B5
:1045E000F2108F3019F489E097E12CCF93EF980FF8
:1045F000923008F4AECF882309F4ABCF86EE96E173
:1046000021CFF701E153FA4F802F8F710081007E97
:10461000082B0083F6012591349180912808909110
:104620002908821B930B71CF84E00E94E710882336
:1046300009F43CCDC701B0E0A0E080932B08909333
:104640002C08A0932D08B0932E08002309F448C02D
:104650008091C808882371F18091E2078F9380913F
:10466000E1078F938091E6071F928F938091E50772
:104670001F928F938091E4071F928F938091E3079D
:104680001F928F938EE996E19F938F931F9280E8FC
:104690008F9384E498E09F938F930E94F831109257
:1046A000C808EDB7FEB770960FB6F894FEBF0FBE00
:1046B000EDBF10C084E498E0DC010D900020E9F724
:1046C000CD0185549840209143082817190620F001
:1046D0001092420885E0E6CD80E880934308FACF47
:1046E0001093C8081093420880E880934308909183
:1046F000E2079F939091E1079F93BF92AF92DF9261
:10470000CF929091DC079F939091DB079F939091BC
:10471000DA079F939091D9079F939091D6079F9323
:104720009091D5079F939091D8079F939091D70729
:104730009F932EE336E13F932F931F928F9384E450
:1047400098E09F938F930E94F831EDB7FEB774966F
:10475000ABCF2115310509F087C08FEF91E0909321
:10476000CB058093CA0588E08093CC058091CE0567
:10477000803208F08FE18F5F8093CE051092CD05D7
:104780002090D3073090D407F3E02F223324211454
:10479000310409F007CA8091270190E001968770E3
:1047A0009927809327011092D8071092D70710926B
:1047B000E0071092DF071092DE071092DD078824D1
:1047C0008394912C9092DA078092D9079092DC071B
:1047D0008092DB07F0E1EF2EF2E0FF2E02E197017D
:1047E0002E593C4F5901F901E35AFF4F60816F7117
:1047F000262F30E0609FC0011124FC01E85CF54EDB
:10480000E4914091DF075091E007E40FF52FF11D8F
:10481000F093E007E093DF07FC01ED5CF54EE491D7
:104820004091D9075091DA07E40FF52FF11DF0936D
:10483000DA07E093D907633029F050E040E06131B6
:1048400009F05BC0A701405251094E155F0570F594
:10485000FA01F170E153FA4F70817F71743009F4FD
:1048600037C14F5F5F4FF1CF215031093093CB05F6
:104870002093CA0578CF882309F44ACC8091CA05D1
:104880009091CB05019691709093CB058093CA05CA
:1048900088E08093CC058091CE05803208F08FE1CE
:1048A0008F5F8093CE051093CD056ACF44E050E032
:1048B000F7017897EE15FF0560F4DF01B170A153A1
:1048C000BA4F7C917F717D50733008F004C14E5F08
:1048D0005F4FF7017797EE15FF0558F4DF01B170D0
:1048E000A153BA4F7C917F71703109F0F6C0405FDF
:1048F0005F4F613111F4440F551FE091D707F091DC
:10490000D8074E0F5F1F5093D8074093D7076623F1
:1049100009F47DC040912701411179C0F501E35AA6
:10492000FF4F4081429546954770463009F05AC086
:10493000690143E0C40ED11CA601440F551F495C18
:104940005A4FFA01E35AFF4F6081425A5F4FDA0132
:104950004C91742F7370672B21F5865C954EFC018A
:10496000849190E0880F991F835C9A4FFC01E35A71
:10497000FF4F4081825A9F4FDC018C91582F53701A
:10498000452B79F4F901EE0FFF1FEB53FB4E6591B8
:10499000749140E850E084E498E00E94E93110937B
:1049A00042089601220F331F295C3A4FF901E35A5E
:1049B000FF4F8081225A3F4FF9012081922F93703F
:1049C0008F3FF3E09F0709F48AC001969370F601C8
:1049D000EE0FFF1FEC56FA4F8083937081818C7F1E
:1049E000892B8183F501E35AFF4F8081829586955B
:1049F0008770873011F08F5F8770F501E35AFF4FA2
:104A00008295880F807E90819F71892B80832FEF04
:104A1000E21AF20A30E1E31634E0F30609F0DFCEE1
:104A20000091C408F090C508802F9F2D4091DB07AE
:104A30005091DC072091DD073091DE0760E172E0E4
:104A4000A1EB4A2EAAE15A2EB7ED6B2EBBE17B2ECD
:104A5000E1ED8E2EEBE19E2EF5EAAF2EFAE1BF2EB0
:104A6000AFE9CA2EAAE1DA2EFB01E154FC4FE08146
:104A7000EF71E63009F03DC0181619060CF068C059
:104A8000F501A4912A0F311DF601A4918A1B910909
:104A9000FB017697E617F70738F5DF01B170A153F0
:104AA000BA4FAC91AF71A430E9F44F5D5F4FFB0199
:104AB0007797E617F70708F04BC0DF01B170A153F5
:104AC000BA4FAC91AF71A03191F44F5D5F4F40C0D0
:104AD00048E050E0EDCE3196EDCE3196FCCE90E040
:104AE00080E075CF3196D6CF4A5E5F4FE0CF3196EA
:104AF000E0CFE73109F01CC2181619064CF5F30196
:104B0000A4912A0F311DF401A4918A1B9109FB0184
:104B10007697E617F70708F006C2DF01B170A153D8
:104B2000BA4FAC91AF71A43009F0FBC14E5B5F4F3F
:104B3000FB017797E617F70758F4DF01B170A1532F
:104B4000BA4FAC91AF71A03109F0F0C14E5B5F4F2D
:104B50006F5F7F4F6031F4E07F0709F085CF50939E
:104B6000DC074093DB0750E040E070E060E0D12CD0
:104B7000C12CE4EC8E2EE9E09E2EF2E17F2EFB01AB
:104B8000E153FA4FE081EF71E79D20011124EB30F2
:104B900009F003C2ACE38A1AA6EF9A0AF201ED5CAF
:104BA000F54EE4918E1B91096F5F7F4F6115B2E066
:104BB0007B0729F73093DE072093DD078091A4055A
:104BC0002091A505922F93704090C4052091C505B2
:104BD0002370522E440C551C480E591E8091AC0572
:104BE0002091AD05922F93706090C2052091C3056E
:104BF0002370722E660C771C680E791E8091AE05AC
:104C00002091AF05922F9370A090C0052091C1050F
:104C10002370B22EAA0CBB1CA80EB91E8091AA0547
:104C20002091AB05922F93706AE0689F9001699F75
:104C3000300D11242417350718F41A01221A330AEB
:104C4000202F3F2DA10160E186EE97E00E9484169F
:104C50002091C4083091C508A20168E183EE97E075
:104C60000E948416D7FE02C0D12CC12C2091C4080A
:104C70003091C508C901B0E0A0E0A6010D2C000CE0
:104C8000660B770B841B950BA60BB70B1816190632
:104C90001A061B0614F42C193D09A30164E685EEDF
:104CA00097E00E9484162091B0058091B105382FBD
:104CB000337085E0220F331F8A95E1F78091C40895
:104CC0009091C508280F391FA50164E684EE97E08E
:104CD0000E9484168091E6079091E307382F981779
:104CE00008F4392F2091E5074091E407532F23174B
:104CF00008F4522F541708F0CDC1321708F0C8C17C
:104D0000382F891708F0392F3695369559E1531BFE
:104D10006DEF609380001092880050938A0030936A
:104D20008C00E090D307F090D407B7016F7177271C
:104D3000672B11F00C94D21DE0912808F0912908FE
:104D40006091DD077091DE076E0F7F1FE091DF0736
:104D5000F091E007E617F70708F09EC16E1B7F0B86
:104D60007093290860932808890F9927991F280FA5
:104D7000392F311D240F311D3695279536952795EE
:104D8000A091D707B091D8070E94313524E630E0D2
:104D900040E050E00E940F358091D9079091DA07EA
:104DA0008217930708F49C018091C4089091C5086C
:104DB0008217930708F075C101969093C5088093F8
:104DC000C4084091DB075091DC078091C4089091A2
:104DD000C5084817590720F45093C5084093C408E4
:104DE0002091C4083091C5086091B2058091B30547
:104DF000782F7370EAE0E69FC001E79F900D1124C1
:104E00006091C605E091C7057E2F7370A4E1A69F4F
:104E1000F001A79FF00D1124421B530B8E0F9F1F13
:104E20004817590708F4CA019093E2078093E107F5
:104E3000E0912808F09129088E0F9F1F8816990687
:104E400008F439C19093290880932808809142087A
:104E500081110C94D21DC701B0E0A0E040912F0851
:104E6000509130086091310870913208841795078D
:104E7000A607B70709F08FC10E94D631E8EFFE1AE6
:104E800097708E0D9F1DB0E0A0E080932F08909347
:104E90003008A0933108B09332080E94D63162E006
:104EA00070E00E946A357C01009709F022C12091D0
:104EB000AF0522FF1EC18091E407843608F000C1CF
:104EC0000E94D631609128087091290876956795DF
:104ED0000E9456357C01FF928F9383EF95E19F935B
:104EE0008F931F9280E88F9384E498E09F938F9331
:104EF0000E94F8312DB73EB7285F3F4F0FB6F894A8
:104F00003EBF0FBE2DBF109342088091280890919C
:104F100029088E199F0990932908809328080C94DA
:104F2000D21D3196F6CD445D5F4F02CE319602CE52
:104F3000E73009F00DCE181619060CF009CEE7EB94
:104F4000FAE1A4912A0F311DF201A4918A1B910963
:104F5000FB017697E617F707E8F4DF01B170A1537C
:104F6000BA4FAC91AF71A63099F44A5E5F4FFB0126
:104F70007797E617F70708F0EBCDDF01B170A15383
:104F8000BA4FAC91AF71A03109F49FCD3196F1CFFA
:104F90003196E0CF455F5F4FEACFE23129F4B8E7C1
:104FA0008B1ABCEE9B0AFACDFCE1FE0FFF71F230CA
:104FB00050F4181619063CF4F201E75CF54EE49142
:104FC0002E0F311DEBCDF3E1FE0FFF71F33018F41E
:104FD0004F5F5F4FE3CDE930B1F5FB01E850FE4F85
:104FE0005B01A0EFAA1AADEFBA0AEA15FB0508F0BB
:104FF000D5CDDF01B170A153BA4FAC91AF71B3EF12
:10500000BA0FB23048F4B4E0CB0ED11CA03149F451
:10501000A0E4CA1AD10805C0AF3029F4A8E0CA0E2E
:10502000D11C3196E2CFB5EFBA0FB23020F4B0E127
:10503000CB1AD108EBCFA53011F0A83039F7B0E288
:10504000CB1AD108E3CFE83009F0A8CD181619061D
:105050000CF0A4CDE9ECFAE1A4912A0F311DFB017B
:10506000E850FE4F5B01A0EFAA1AADEFBA0AEA15AD
:10507000FB0508F093CDDF01B170A153BA4FAC919D
:10508000AF71A03119F4295C3F4F88CD3196EFCF35
:10509000322F3ACE342F38CE109229081092280899
:1050A00063CE8230910508F48CCE2817390708F0BA
:1050B00088CE019782CE9092290880922808C6CE89
:1050C0001F921F9287EA95E19F938F931F9280E82A
:1050D0008F9384E498E09F938F930E94F8314DB7AB
:1050E0005EB7485F5F4F0FB6F8945EBF0FBE4DBF0F
:1050F0000ACF2091AD0522FD02C00C94D21D209153
:10510000E507243680F50E94D6316091C40870917D
:10511000C508769567950E9456357C01FF928F935E
:105120008BE395E19F938F931F9280E88F9384E4A4
:1051300098E09F938F930E94F8318DB79EB70896A1
:105140000FB6F8949EBF0FBE8DBF1093420880919A
:10515000C4089091C5088E199F099093C508809343
:10516000C4080C94D21D9F938F9385EF94E19F9375
:105170008F931F9280E88F9384E498E09F938F939E
:105180000E94F831ADB7BEB718960FB6F894BEBFFF
:105190000FBEADBFDACFF3E3EF2EF8E0FF2E67EAE4
:1051A00074E190E080E002E0F70141917F0141115C
:1051B0003AC0AB01475A5441FB01A591B4912A175B
:1051C0003B0798F1FC01E856FB4EA491B0E0AA0F12
:1051D000BB1FA656BA4FEC911196AC91FA2FF37003
:1051E000EF2B19F1FC01ED5CF74F662463946082AC
:1051F000FC01E757FB4EE491F0E0EE0FFF1FE6568F
:10520000FA4F818184608183FA01E559FB4E6591F3
:10521000749140E850E084E498E00E94E9311093F2
:1052200042080C94D21D3197008301966E5F7F4F28
:105230008F30910509F0B8CF0C94D21D88E00E9400
:10524000E710811104C084E00E94E71081111092E0
:10525000C90880E40E94E710882329F0809137056F
:105260008F5F8093370580E20E94E710882311F456
:105270000C94D21D809137058150809337050C9492
:10528000D21D88E00E94E710811107C084E00E94CF
:10529000E710882311F40C94D21D1092C9080C94C5
:1052A000D21D843009F457C708F490C7853011F037
:1052B0000C94EF1D80E290E090938905809388051F
:1052C000909387058093860510928B0510928A052E
:1052D0008FEF9FEF90938D0580938C0510928F0533
:1052E00010928E0562E272E150C780912501909183
:1052F0002601019690932601809325010E94880F34
:1053000000E129E649E953E160E270E081E090E0E4
:105310000E94CD0E34E0E32E06E12EE246E050E09E
:1053200062E070E08CE395E00E9456132EE246E0C6
:1053300050E064E370E08CE395E00E9456132EE2A7
:1053400046E050E062E070E08CE395E00E945B1282
:105350002EE246E050E064E370E08CE395E00E94CA
:105360005B1248E661E070E090E080E00E94270E6A
:1053700048E662E070E090E080E00E94270E89E05D
:1053800090E00E94CA1388E290E00E94CA138BE367
:1053900090E00E94CA138AE590E00E94CA1300E1DF
:1053A00020E149E753E170E060E088E690E00E9488
:1053B000CD0E21E040E160E270E084E790E00E94E1
:1053C000321221E040E160E270E083E790E00E9469
:1053D000321242E0E42E0DE027E148E150E068E6B9
:1053E00070E08CE395E00E94561327E148E150E01D
:1053F00068E670E08CE395E00E945B125AE6E52EC9
:10540000F12CF0928905E0928805F0928705E092F0
:1054100086058AE190E090938B0580938A05CC24E1
:10542000CA94DC2CD0928D05C0928C0510928F0509
:1054300010928E0564E773E18BE795E00E947D147E
:10544000F0928905E0928805F0928705E092860542
:105450008FE190E090938B0580938A05D0928D0523
:10546000C0928C0510928F0510928E05C0903A055F
:10547000D0903B050D2C000CEE08FF082AE0B70188
:10548000A601F7FE0DC06DE28BE795E00E9438178C
:1054900044275527BA014C195D096E097F092AE096
:1054A0008BE795E00E945E1808E028E04CE653E1A7
:1054B00068E270E087E790E00E94CD0E80913805A9
:1054C000909139058F3F910511F00CF00CC10196B8
:1054D0009093390580933805E0902501F0902601DE
:1054E000A70156954795569547954F7055279701B3
:1054F00028733327245D3C4E4850510957FF03C0A1
:10550000519541955109405E5F4F08E0BC0187E429
:1055100095E00E94E91450E040E06E2D87E495E0AC
:105520000E94A6188EE090E09093890580938805EC
:10553000909387058093860589E090E090938B0592
:1055400080938A058FEF9FEF90938D0580938C0554
:1055500010928F0510928E058091C60865E273E166
:10556000811102C060E273E18BE795E00E947D1437
:105570008EE090E09093890580938805909387054D
:10558000809386058FE090E090938B0580938A0549
:105590008FEF9FEF90938D0580938C0510928F0570
:1055A00010928E050E941218882331F06BE173E18E
:1055B0008BE795E00E947D148EE090E09093890542
:1055C00080938805909387058093860585E190E018
:1055D00090938B0580938A058FEF9FEF90938D05B5
:1055E00080938C0510928F0510928E058091C608CD
:1055F000882331F066E173E18BE795E00E947D142A
:1056000000E4E02EF12CF0928905E0928805F092FA
:105610008705E092860589E090E090938B05809362
:105620008A05CC24CA94DC2CD0928D05C0928C05BE
:1056300010928F0510928E0560E173E18BE795E083
:105640000E947D14F0928905E0928805F09287050A
:10565000E09286058FE090E090938B0580938A0519
:10566000D0928D05C0928C0510928F0510928E05F8
:105670006BE073E18BE795E00E947D14F092890561
:10568000E0928805F0928705E092860585E190E03A
:1056900090938B0580938A05D0928D05C0928C05DE
:1056A00010928F0510928E0580912D0165E073E1B7
:1056B000811102C06FEF72E18BE795E00E947D14CB
:1056C0008091CA08823009F442C0B8F4882319F1E5
:1056D000813011F00C94EF1D08E028E047EF52E113
:1056E0006CE070E01EC00E94D631919581959109C1
:1056F00060E071E00E946A35EBCE843009F1A0F0E1
:10570000853011F00C94EF1D08E028E047EF52E1DE
:1057100062E170E00FC008E028E047EF52E166E088
:1057200070E085E090E008C008E028E047EF52E133
:1057300066E070E087E390E00E94CD0E0C94EF1DD0
:1057400008E028E047EF52E16CE070E0F3CF08E0BA
:1057500028E047EF52E162E170E0E3CF8091CD05B0
:1057600001E0811101C00FEF8091CC05089F202C32
:1057700011248091D3079091D4070E94880F8091C3
:105780004208882341F0E0919805F091990580E264
:10579000828380E68383F7EE8F2EF7E09F2EF12C35
:1057A000B12CA12C612CA2E07A2E022C000C330823
:1057B000412C55245394D401CD90DD904D01BFEF81
:1057C000CB1ADB0AEFE0DE22F4013297D182C082ED
:1057D000A0FEC2C093012C193D0969014F2D4170F3
:1057E000498B2091D3073091D407220F331F2871A2
:1057F0003327245B304F8091CA059091CB0573E02D
:10580000880F991F7A95E1F7B101681B790B6C0D30
:105810007D1D7F70E42E08E048E050E080919805FF
:10582000909199050E9466158091B2052091B3056B
:10583000922F9370880F991FA816B9063CF52091F6
:10584000D3073091D407220F331F220F331F207349
:105850003327245F304F8091CA059091CB0553E0E8
:10586000880F991F5A95E1F7B201681B790B620DF9
:10587000731D6C0D7D1D7F70E98800E146E250E0EC
:1058800080919805909199050E9466155FEFA51A81
:10589000B50AF3948F2D8170F82E90E1A916B1040A
:1058A00009F089CF8091C4089091C50824E09695AD
:1058B00087952A95E1F7F82EA0E1A81710F400E1EA
:1058C000F02EA7E0CA2EA8E0DA2E912C812CA12C74
:1058D000B2E0BB2E8F1409F444C02091D30730915D
:1058E000D407C90183709927892B39F4F601808187
:1058F000918101969F7091838083D6018D919D91B6
:105900006D0180FE2CC0F501E81BF90BCF01F92DCC
:10591000F170EF2E287133272451314F4091CA0581
:105920005091CB05F3E0440F551FFA95E1F7B10113
:10593000641B750B680F791F7F7008E046E250E02A
:1059400080919805909199050E946615839493948F
:10595000292D2170922EBECF3EEFD31A3FCF9E5FEE
:10596000D6CF510138E2A31AB1084BEF5FEF5A8B43
:10597000498BE090CA05F090CB0589889A88E80C9D
:10598000F91C21E0F2228091CF079091D007E81610
:10599000F90651F08091D1079091D207D12C4CEDAE
:1059A0005EE0E816F90621F4DD24D39444EE5EE0CF
:1059B00008E028E064E270E0C5010E94CD0E63E0DB
:1059C00024EC3EE0D11003C061E02CEB3EE080917E
:1059D000D3079091D407969587959695879570E013
:1059E0000E945635AC0163E0440F551F6A95E1F7FC
:1059F000420F531F08E028E068E270E0C5010E94F2
:105A0000CD0EF701E153FA4F2081822F8F7132E1E1
:105A1000839FC0011124FC01EF5CF54E65907490EA
:105A2000FC01EA5CF54E5490FC01E95CF54EF49003
:105A3000E22EE294E69477E0E722C0909805D090B9
:105A40009905550C550C550CE4E08E2E912C8F18B1
:105A50009108880C880C880C46E0840E912C8DB738
:105A60009EB79AA389A30F2D000F000F000F252DBD
:105A7000A401B501C6010E94CE14811186C1D401D2
:105A800003E0B595A7950A95E1F7B88FAF8B8F2DF9
:105A90008F71882E912C9CA28BA2252D30E03C8BFF
:105AA0002B8B4DB75EB7421B530B0FB6F8945EBFFE
:105AB0000FBE4DBF8DB79EB701962C01ADB7BEB7D7
:105AC00011961C92FC013196C901029797FFB8C04C
:105AD000E39488E090E08E199109F89E802D1124BE
