:100000000C94A90D0C94D10D0C94D10D0C94D10D20
:100010000C94D10D0C94D10D0C94D10D0C94D10DE8
:100020000C94D10D0C94D10D0C94DB0E0C944D0F4F
:100030000C94D10D0C94D10D0C94D10D0C94D10DC8
:100040000C94D10D0C94D10D0C94D10D0C94D10DB8
:100050000C94D10D0C94D10D0C94D10D0C94DC1C8E
:100060000C94D10D0C94D10D0C94D10D0C94D10D98
:100070000C94D10D0C94D10D0C94D10D0C94D10D88
:100080000C949B1E0C94D10D0C94D10D0C94D10D9D
:100090000C94D10D0C94D10D0C94D10D0C94D10D68
:1000A0000C94D10D0C94D10D0C94D10D0A444F2019
:1000B000594F5520455645520A5245475245540A14
:1000C00043555454494E4720414C4C0A544845200E
:1000D000574545443F0A0A54414B4520534F4D452F
:1000E0000A53454544532E0A000A44494420594FB7
:1000F00055205452590A54484520465255495453A4
:100100000A46524F4D204F55520A4C4F43414C2006
:100110004341435455530A504C414E54533F0A0AED
:100120004E4F5720594F552043414E0A504C414E97
:100130005420594F55520A4F574E210A000A49542C
:10014000275320534F0A5741524D2E2E2E0A0A5044
:100150004C414E542041204645570A545245455380
:1001600020544F0A50524F564944450A534F4D456B
:100170002053484144450A464F52205448450A4CB2
:100180004147554E495449414E53210A000A4556AC
:10019000454E205448450A42455354204F46205569
:1001A000530A4D414B4520534F4D450A4D49535439
:1001B000414B45532E0A0A4E4F5720594F550A437B
:1001C000414E2052454D4F56450A54524545532005
:1001D000414E440A4255494C44494E47532E0A0069
:1001E0000A41532054484520544F574E0A47524F16
:1001F00057532C205448450A434F535420464F52DE
:100200000A494D504F5254494E470A464F4F4420D9
:10021000474554530A50524F424C454D415449436F
:100220002E0A0A4255494C442041204D494C4C0A63
:10023000544F2046454544205448450A4C414755B3
:100240004E495449414E532E0A000A5448455245DE
:10025000204953204E4F0A5350414345204C4546B8
:10026000540A544F2053544F524520414C4C0A5489
:100270004845204D4F4E4559210A0A4255494C44A4
:1002800020412042414E4B0A544F20494E43524593
:10029000415345200A474F4C442053544F52414745
:1002A000450A42592035303030242E0A000A4120B8
:1002B0005052494553540A50415353494E472042E6
:1002C000590A50524F504F53455320594F550A54D5
:1002D0004F20454455434154450A54484520504514
:1002E0004F504C450A494620594F55204255494CDC
:1002F000440A4120534D414C4C0A4348555243480F
:1003000020464F520A48494D2E0A000A54484520BB
:1003100042414E444954530A434F554C4420534D97
:10032000454C4C0A594F5552204D4F4E45590A41A4
:100330004E442054484559204152450A434F4D49A7
:100340004E4720544F0A41535341554C5420544872
:10035000450A42414E4B210A4255494C4420412016
:10036000504F53540A464F52205448450A5348456B
:10037000524946462E0A000A54484520474F4C44ED
:100380000A46455645520A524541434845440A4C9F
:100390004147554E495441210A0A4255494C44208F
:1003A000410A4D494E4520544F0A494E4352455348
:1003B000450A54484520494E434F4D452E0A000AF0
:1003C000544845205155414C4954590A4F462059EB
:1003D0004F555220464F4F440A49532052454E4FE5
:1003E000574E4544210A0A4255494C4420410A537C
:1003F0005441424C4520544F0A4558504F525420C6
:100400005448450A455854524120464F4F442E0AFD
:10041000000A54484520434F57424F59530A41520E
:10042000452047455454494E470A524553544C457C
:1004300053532E0A0A4255494C442041204E4557F9
:100440000A53414C4F4F4E20544F0A454E5445528B
:100450005441494E0A5448454D20414E440A5241A8
:100460004953452054484549520A48415050494E45
:100470004553532E0A000A4D4F52452050454F50C8
:100480004C450A57494C4C204D4F56450A494E2C75
:10049000204946205448450A484F5553455320416A
:1004A00052450A53455256494345440A5749544810
:1004B0002057415445522E0A0A5452592042554958
:1004C0004C44494E470A534F4D45205741544552DD
:1004D0000A544F574552532E0A000A4255494C447C
:1004E0002041204641524D0A544F2047495645204D
:1004F000410A4A4F4220544F205448450A43495428
:10050000495A454E532E0A0A4152524F57205550D0
:100510000A544F205357495443480A4255494C44C2
:10052000494E472E0A000A57454C434F4D4520542B
:100530004F0A4C4147554E4954412C0A4120534DD6
:10054000414C4C204C414B450A494E2054484520D3
:1005500057494C440A57494C4420574553542E0A96
:100560000A4255494C4420534F4D450A484F555374
:10057000455320544F0A494E435245415345205458
:1005800048450A504F50554C4154494F4E2E0A0091
:10059000F0F89C8E8783878E9CF8F00000FEFF03A6
:1005A00003030303070EFCF80000FEFF030303032D
:1005B00003070EFCF80000FFFF0000000000000031
:1005C000FFFF0000FEFF8383838383C7EE7C380038
:1005D00000F8FC0E07030303070EFCF800003F7F42
:1005E000E0C08080C0E07F3FFFFF01010101010109
:1005F00001FFFF0000FFFF0C0C0C0C1C3E77E3C159
:1006000000007FFFC0C0C0C0C0E0703F1F00001FDF
:100610003F70E0C0C0C0E0703F1F00007FFFC1C15D
:10062000C1C1C1E3773E1C00001F3F70E0C0C0C0E5
:10063000E0703F1F000000000001FFFF010000000C
:10064000D5F08D14A1C881CFD9F1AF20002605DAED
:100650000476041104BF0377030B03AD024A02E0E2
:10066000018D013D01E900AC00020503040B0709FF
:10067000080A06000E0D0C01020503040B07090809
:100680000A06000E0D000001000A000F00140019F8
:10069000001E002300320064009600C800FA002CFF
:1006A0000100003200BC0284034C041405DC05D0B8
:1006B00007C409B80BAC0DA00F941188130A4C4164
:1006C00047554E495449414E530A4C4F5645204CCC
:1006D0004956494E470A494E20594F555220544FCA
:1006E000574E0A414E4420544845590A4E455645F6
:1006F000522046454C540A415320554E49544544D6
:10070000210A000A2534642050454F504C450A4CBC
:100710004F53542046414954480A494E204C4147C2
:10072000554E4954410A414E4420444543494445AD
:10073000440A544F20464F554E440A5448454952A6
:10074000204F574E0A544F574E2E0A4255494C449B
:10075000204D4F52450A4348555243484553205473
:100760004F0A52495345204641495448210A000A3C
:1007700054484520534845524946460A4D414E414A
:1007800047454420544F0A50524556454E54204147
:100790000A42414E44204F460A42414E4449545376
:1007A0002046524F4D0A535445414C494E470A5931
:1007B0004F5552204D4F4E455921000A594F552053
:1007C000484156450A4245454E20524F4242454413
:1007D000210A0A54484520544849455645530A536E
:1007E000544F4C4520253464240A0A4255494C4450
:1007F000204D4F52450A534845524946460A504FEC
:10080000535453210A002F602F602F60502F202F48
:10081000602E604EA02D602D602D6050408F804E68
:10082000A02F602F602F60502F202F602E604EA0D1
:100830002D602D602D6050408F804EA02D604D4C5E
:100840008B8DAC4AC82D604D4C8B8DAC4AC847800F
:10085000478B89C8C04980498D8BCCA02D2E4F264F
:10086000204F26204F2620502F204F24204E24207A
:100870004E246024204D23204D23204D232050233F
:10088000204F246024204E246024204F26204F2611
:10089000204F2620502F204F24204E24204E24600D
:1008A00024204D23204D23204D23205023204F244E
:1008B0006024204E246024202D2025204D4C4B25E3
:1008C000204D25204C22604A48226022202D2025E0
:1008D000204D4C4B25204D25204C22604A4822605B
:1008E0002220472160474B21204941482260226055
:1008F00022602220492360494D23204B23204C2491
:1009000060246024602D2E2F602F602F60502F20D8
:100910002F602E604EA04D23204D23204D232050CC
:1009200023204F246024204E246024202F602F6039
:100930002F60502F202F602E604EA04D23204D237E
:10094000204D23205023204F246024204E24602457
:10095000202D2025204D4C4B25204D25204C22605C
:100960004A48226022202D2025204D4C4B25204D29
:1009700025204C22604A4822602220472160474BB4
:1009800021204941482260226022602220492360C0
:10099000494D23204B23204C2460246024602D2EBD
:1009A0002F602F602F60502F202F602E604EA02DC3
:1009B000602D602D6050408F804EA02F602F602FE3
:1009C00060502F202F602E604EA02D602D602D6076
:1009D00050408F804EA04B4F4D4B4B4F4D4B484E90
:1009E0004D4C484C4B4A494D4C4B494D4C4B4A4B56
:1009F0004C4E4A4D4E4F4B4F4D4B4B4F4D4B484E2F
:100A00004D4C484C4B4A49545352495453524A5105
:100A100052534A545556464E4F51464E4F51444DEF
:100A20004E51444D4E51434D4E4F43504F4E444E08
:100A30004D4C444A4B4C464E4F51464E4F51444DFF
:100A40004E51444D4E51434F5052434F50524452D9
:100A500053544453514E454B4C4D454B4C4D4248DD
:100A60004B4C42484B4C454B4C4D454B4C4D4248F2
:100A70004B4C42484B4C4147494B4147494B4248FC
:100A80004A4C42484A4C43494B4D43494B4D444ADA
:100A90004C4E444E4F500025396450002539642493
:100AA00000102C4AA0895224180C18A04A49C97A6F
:100AB0000430449261894624180C738946A2965CDE
:100AC0002008748629518A6418205C92A24A275112
:100AD00006182446E9924A24200639494A6290C8F9
:100AE0003010307FFF7F3010002040208000401009
:100AF00080FFFC308448800EFFFFFC300890400EE1
:100B0000FFFFFC300122400EFF000000000000004B
:100B100000F0487C247C48F0000000D23F5792004F
:100B2000000000D27FA7020000000022FFA7020001
:100B3000000000D27FA7020000603010387CBC5C4F
:100B40009C1C5C7F3F26204000301888783CFC1CB1
:100B50001C1C3C5E9F27460000301888783C3C1CDB
:100B60001C1CDC3E1F27468000603010387CBC5CBB
:100B70001C9C5CBF7F0600000000000B0E1C780E62
:100B8000040000101C78101C0800002030302038B1
:100B9000100000101C78101C08505245535320546C
:100BA000484520555020414E4420444F574E0A415D
:100BB00052524F575320544F204348414E474520EF
:100BC0005448450A43555252454E544C59205345BA
:100BD0004C454354454420414354494F4E0A4F52DB
:100BE000204255494C44494E472E0A0A505245531B
:100BF00053204120544F20444F2054484520414326
:100C000054494F4E0A4F52204255494C44205448B3
:100C100045204255494C44494E472E0A0A505245F8
:100C20005353204220544F20434845434B205448BF
:100C3000450A535441544953544943532E0A0A50C8
:100C400052455353204220544F20474F20424143A6
:100C50004B2E0A00594F552043414E204D4F5645CB
:100C60002041524F554E44205448450A4C45564564
:100C70004C205749544820544845204C4546542060
:100C8000414E440A5249474854204152524F57530B
:100C90002E204C4F4E472050524553530A464F5238
:100CA0002046415354205343524F4C4C494E472EFB
:100CB0000A444F55424C4520434C49434B20544F26
:100CC000204D4F564520544F0A4E4558542041560A
:100CD00041494C41424C452053504F5420544F0AF7
:100CE0004255494C44205448452043555252454EA4
:100CF000544C590A53454C454354454420425549A8
:100D00004C44494E472E0A505245535320424F54AB
:100D10004820544F20524543454E5445522E0A0A0E
:100D20005052455353205448452052494748542077
:100D30004152524F570A464F52204D4F524520497B
:100D40004E535452554354494F4E532E0A00425568
:100D5000494C4420412057494C4420574553542086
:100D6000544F574E0A4F4E205448452053484F5237
:100D700045204F46204C414B450A4C4147554E4972
:100D800054412057495448204153204D414E590A5F
:100D9000434954495A454E5320415320504F5353D1
:100DA00049424C452E0A0A494E435245415345207B
:100DB000594F55522050524F46495420544F0A4BD8
:100DC00045455020554E4C4F434B494E47204E45CC
:100DD0005720414E440A4558434954494E47204202
:100DE00055494C44494E47532E0A0A5052455353D5
:100DF00020544845205249474854204152524F57A9
:100E00000A464F52204D4F524520494E5354525599
:100E10004354494F4E530A4F52204220544F2047CB
:100E20004F204241434B2E0A000A4C4147554E4940
:100E30005441205741532043524541544544204298
:100E4000590A2020202052454E41544F2047524FEE
:100E500054544553490A0A50524F4752414D4D4947
:100E60004E470A2020202052454E41544F204752E1
:100E70004F54544553490A202020204755555320AC
:100E8000534C494550454E0A0A4D5553494320425B
:100E9000590A202020204A4F414B494D2053494DAB
:100EA0004F4E53534F4E0A000A2020202020205539
:100EB0004E464F5254554E4154454C590A2020201D
:100EC000202020594F552052554E204F55540A206E
:100ED00020202020204F46204D4F4E45592E0A0AF3
:100EE00020202020202052454D454D42455220547F
:100EF0004F0A202020202020434845434B205448BF
:100F0000450A20202020202053544154495354495D
:100F100043530A2020202020205748494C45205088
:100F20004C4159494E47210A0A20202020202054B4
:100F3000525920414741494E210A00784878787833
:100F40003030004D55544544004D555349430048F9
:100F5000454C500041424F55540053415645004CBA
:100F60004F414400504C415900524553554D4500A6
:100F7000102C4AA0895224180C18A04A49C97A0496
:100F800030449261894624180C738946A2965C20ED
:100F900008748629518A6418205C92A24A27510657
:100FA000182446E9924A24200639494A6290C830FA
:100FB00006060C0C0C0C0C18181838F0E080000019
:100FC0000000001C3C7060E0C0C0E0783F0F0000F3
:100FD000082952FE492510000C1830FFFF0C0603AB
:100FE00001C3FFFEFFC301000000000000C0C0E31A
:100FF000FF7F1EFFFFFFE3C000C0F0FCFEFF070302
:10100000C3C7CF9FDEC003C7FFFEFFC70300C3FFF8
:10101000FEFEC7030001C3FFFFFFFFF8E0C103FFAF
:10102000FFFFC3010003C3FFFEFEFFC303001F0F4A
:1010300006C3FFFEFEFFC303060F1F00C0C0E3FF91
:101040007F1EFFFFFFE3C0000040E0FF7F7F78F0DE
:10105000F070381CCCE07E7FFFC70E0EC7FFFF7F0D
:101060007EE0C00F1F3F7F70E0E0F07F7F3F000019
:10107000001F3F7FF0E0E0F07F3F1F000000C0E076
:10108000FF7FFFE0C10FFFFF7F7FFFE0C000C0E0F8
:101090007F7F7F7FE0C0000000C0E0FF7F7FFFE038
:1010A000C00000C0E07E7FFFC70E0EC7FFFF7F7E3F
:1010B000E0C0080B00020202010009040000010266
:1010C000020000052400100105240101010424028E
:1010D00006052406000107058103100040090401EC
:1010E00000020A0000000705020240000007058315
:1010F000024000000403090412010002EF02014053
:101100004123368000010102030141726475696E5A
:101110006F204C4C430055534220494F20426F6191
:1011200072640054524545532041524F554E440A73
:10113000434855524348455320414E440A484F5571
:10114000534553204D414B450A5448454D204D4F82
:1011500052450A415454524143544956452E0A00BF
:1011600044494420594F55204B4E4F570A5448414B
:1011700054205448450A504C5552414C20464F5239
:101180004D0A4F46204341435455530A4953204387
:10119000414354493F0A00504C414E54494E470A7E
:1011A0005745454420495320410A47524541542060
:1011B0005741590A544F2050415920594F55520A0E
:1011C000434F322051554F54412E0A004541434868
:1011D00020535441424C450A414C4C4F57532059DF
:1011E0004F550A544F204558504F52540A414444D9
:1011F0004954494F4E414C0A455843454544494E90
:10120000470A464F4F442E0A50524553532042201E
:10121000544F0A434845434B20594F55520A4558AD
:10122000504F5254532E0A00454143482042414EEC
:101230004B0A494E435245415345530A54484520B1
:101240004D4158494D554D0A4D4F4E455920594F26
:10125000550A43414E2053544F52452C0A4255548F
:1012600020544845590A41545452414354204D4F4B
:1012700052450A544849455645532E0A0052454D99
:10128000454D42455220544F0A434845434B205454
:1012900048450A535441544953544943530A544FFF
:1012A000204B4E4F57205748454E0A54484520532F
:1012B000454355524954590A4953204C4F572041F0
:1012C0004E440A495427532054494D4520544F0A4F
:1012D0004255494C442041204E45570A53484552F7
:1012E00049464620504F53540A00434855524348FC
:1012F00053204B4545500A4C4147554E49544153A4
:101300000A544F4745544845522C0A4255542054DC
:1013100048450A434C455249435320444F0A4E4FD7
:1013200054204C494B450A544F2042452041524FCE
:10133000554E440A544F4F204E4F4953590A425577
:10134000494C44494E47532E0A004D494E455320BF
:101350004152450A475245415420544F0A494E4391
:101360005245415345205448450A415641494C4154
:10137000424C450A4A4F425320414E44205448456E
:101380000A494E434F4D452C204255540A54484576
:1013900059204D41590A48555254205448450A4550
:1013A0004E5649524F4E4D454E542E0A004D494C13
:1013B0004C5320524546494E450A53454544532017
:1013C00046524F4D0A4E4541524259204641524DD8
:1013D000530A494E544F20464C4F5745522C0A53FE
:1013E0004F2054484559204152450A5155495445CA
:1013F000204D4F52450A4546464543544956450AF5
:101400005748454E20504C414345440A4E454152B1
:10141000204641524D532E0A00574F524B455253CE
:10142000204152450A414C4C4F43415445440A54D3
:101430004F204641524D530A46495253542E0A49B1
:101440004620594F55204255494C440A544F4F208D
:101450004D414E592C0A4F54484552204A4F425351
:101460000A57494C4C204E4F542042450A54414B98
:10147000454E2E0A0053414C4F4F4E530A494E439E
:101480005245415345205448450A48415050494E21
:101490004553204F460A4C4147554E495449414E09
:1014A000532E0A50524553532054484520420A4275
:1014B0005554544F4E20544F0A434845434B2054F3
:1014C00048450A5354415449535449430A524550DC
:1014D0004F5254210A00574154455220544F57450A
:1014E00052530A43414E2048454C500A49525249F2
:1014F000474154494E470A544845204649454C44C3
:10150000530A494E204E45415242590A4641524DD6
:10151000532041530A57454C4C2E0A00484F55530F
:101520004553204152450A4E454345535341525974
:1015300020544F0A494E4352454153452054484593
:101540000A504F50554C4154494F4E2E0A0A484FAD
:1015500055534553204E4541520A5645474554413F
:1015600054494F4E0A41545452414354204D4F5216
:10157000450A50454F504C452E0A00004E4F57200B
:10158000594F552043414E0A434C45415220414E4C
:10159000590A54595045204F460A5645474554412B
:1015A00054494F4E0A414E4420414E5920545950FF
:1015B000450A4F46204255494C44494E472E0A00A1
:1015C000000C1933667CF9FFFE703C3E3319180C91
:1015D000000000000080C3FFFFBC0000000000000E
:1015E0000C1830FFFF0C0603082952FE4925100095
:1015F000000000000000000080C0A05028140AFF76
:101600000A142850A0C08000000000000000000064
:1016100080C0E0A0F090F888FF80FF80809C9C9FB5
:101620009C9C8080FF80FF88F890F0A0E0C0800044
:10163000FF80F8F880E0E080FF99E799FF808080E4
:101640008080FF99E799FFA0A0A0A0A0A0A0FF0024
:1016500030FF160E0546A615A646050E16FF3000ED
:1016600000FF808C8C80FC85FC808C8C80FF0000CF
:10167000FE25160E0506A675A606050E1625FE0005
:10168000FF80FE82FE82FE80BEA2BEA2BE80FF0060
:10169000C0B0ACABACB0C000000000000000000067
:1016A0000000000000000000FF00043E0400FF8076
:1016B000808080808080808080808080808000002A
:1016C000FF80FC82FC80FF829B829B829B829B82AC
:1016D0009B829B829B82FF0000000080601C030CA9
:1016E0009060100C030404083844821CE0000000E1
:1016F000C0300C03C0201C02050890E00000F00878
:10170000F0000F30479820C00001020203020202DD
:1017100002010080C1A1B9AFB9A1C18202010100DB
:1017200024A870FC70A824000100F0AFF0000100B4
:10173000F04F241B244FF000E0A05028140A050AA3
:10174000142850A0E0A0E0A0E0A0E0A0E0A0E0A06D
:10175000E0C0800000000000FF8080FC8282FC80EE
:101760009E929E80FF88F888F888F888F888F88824
:10177000F889FB8FFE8CF800000000C040C040C01C
:1017800078C442C242C478C040C040C000000000DB
:10179000FC141C171C171C177C47545754477C1704
:1017A0001C171C171C14FC00FF809F9191919F80B7
:1017B000FCAAA9FFA9AAFC8080808F898F80FF00E6
:1017C000FFC1FF417FC1FF0000FF885522FF0000DD
:1017D00000FF885522FF0000FE915E3E111E1E1183
:1017E0001E1E113E5E91FE00FF808F8F80FFA9A913
:1017F000A9FF808F8F80FF00000000000000000024
:101800007C157B151C15D61475141914AD134A13C9
:10181000EA127D122812CC119711601123110A4887
:101820004F5553494E470A2537640A4A4F425320C1
:101830002020464F4F440A2534642537640A4D4121
:10184000494E54454E414E43450A25376420242FC6
:10185000730A4541524E494E47530A2534642024A9
:101860002F730A4558504F5254530A25346420248C
:101870002F73000A48415050494E4553530A2534AE
:10188000642025250A5341464554590A25346420CD
:1018900025250A53504952495455414C4954590A37
:1018A0002534642025250A454E5649524F4E4D4554
:1018B0004E540A2534642025250A000A594F552024
:1018C00043414E4E4F540A4255494C44204F5645D1
:1018D0005220410A4255494C44494E472E000A596C
:1018E0004F552043414E4E4F540A4255494C4420D7
:1018F0004F56455220410A545245452E000A594F31
:10190000552043414E4E4F540A4255494C44204FB6
:1019100056455220410A4255494C44494E472E00F3
:101920000A594F552043414E4E4F540A4255494C97
:1019300044204F56455220410A545245452E000A34
:10194000594F5520484156450A4E4F5420454E4F59
:101950005547480A4D4F4E455920544F0A42554964
:101960004C442E00434C454152000000F81700043F
:10197000010100005041555345000000F8170000D8
:1019800001010000484F555345000000D8170005DD
:10199000020201005741544552000000C017000ADE
:1019A0000103000153414C4F4F4E0000781708329D
:1019B000030300014641524D00000000381708148F
:1019C0000402000A4D494C4C00000000201701148D
:1019D000010300014D494E4500000000D8161E6469
:1019E0000303001E434855524348000090160196D9
:1019F000030302005348455249464600701602143C
:101A00000202020042414E4B000000005016043218
:101A100002020500535441424C450000F01502C833
:101A2000040304005745454400000000E815000287
:101A3000010100004341435455530000E0150002EA
:101A4000010100005452454500000000C01500048B
:101A50000202000000B00000A170E150964F2690F5
:101A60000F1D070C009669004AE44A0048444000F4
:101A7000806810000F99FB8F9DBDBBFB77D4D4DF2E
:101A80001F1A1AFE7F5D5DFF805A0000A0A4AA0005
:101A900010BA3400FF5953F3FF9B9B9EFFB9B996D0
:101AA000FF9595D19FF4940FFC295F91FF1838F8AA
:101AB000FF9294FFFF95D5F7BFB5DDD7F18F81F188
:101AC000F788C8F779C6467909FD9B090196F800A1
:101AD0008281828050716200775656007676370098
:101AE000A2B77301077206007827500073347400A0
:101AF000775176007F55F70047711000324772002A
:101B00007364730015A2750061679400009F6060A4
:101B1000F4F2F6F20000880010019901210232036C
:101B20004204000049005200570062006E0083002A
:101B30009300A500AF00C400DC00F70006012601F9
:101B40004A015D018801B801EE010B024B029302CC
:101B5000E92F11241FBECFEFDAE0DEBFCDBF11E0C9
:101B6000A0E0B1E0E4E9F9E602C005900D92AC33E3
:101B7000B107D9F729E0ACE3B1E001C01D92A6306E
:101B8000B207E1F71DE0C9EADDE004C02197FE01DC
:101B90000E94C234C83AD107C9F70E945E1F0C9454
:101BA0000B310C940000FC018485958597FD0BC0DA
:101BB0009FB7F89482E08093E9008091F2009FBF84
:101BC00090E0019608959FB7F89482E08093E90031
:101BD0008091F2009FBF90E0089580914C018111A7
:101BE0000DC082E08093480184E080934901109207
:101BF0004B0110924A0181E080934C0188E491E00E
:101C00000895409145015091460120914301309142
:101C1000440142175307B4F49091E8009570E1F342
:101C20009091E80092FD19C08093F10080914501E8
:101C30009091460101968F739927892B19F48EEFA5
:101C40008093E80080914501909146010196909320
:101C500046018093450181E0089580E00895DF9278
:101C6000EF92FF920F931F93CF93DF93D82E8A01A9
:101C70007B01E40EF51EEB01CE15DF0571F0D7FEFA
:101C800003C0FE01849101C088810E94010E21964B
:101C90008111F2CF8FEF9FEF01C0C801DF91CF918B
:101CA0001F910F91FF90EF90DF9008950F931F9376
:101CB000CF93DF931F92CDB7DEB782E0898342E4F2
:101CC00050E062EB70E180E80E942F0E0E94ED0D63
:101CD000DC0112960D911C9113970115110589F0E5
:101CE000D801ED91FC910280F381E02DBE016F5F80
:101CF0007F4FC801099597FD04C0F8010085118543
:101D0000ECCF89810F90DF91CF911F910F910895B2
:101D1000615030F02091F100FC0120830196F8CF52
:101D2000289884E68093F6080895089580914101EB
:101D300008950F931F93CF93DF931F92CDB7DEB714
:101D40008C01FC018485958597FF0EC0CE0101961C
:101D50000E94BC1A019719F4898190E002C08FEFAC
:101D60009FEFF80195878487F801848595850F900A
:101D7000DF91CF911F910F910895CF93DF931F9221
:101D8000CDB7DEB7FC018485958597FD05C02FEFA3
:101D90003FEF358724870BC0CE0101960E94BC1A05
:101DA000019719F4898190E002C08FEF9FEF0F90A7
:101DB000DF91CF9108951F920F920FB60F921124C9
:101DC0008F939F938091E1009091E100937F909396
:101DD000E10083FF0FC01092E90091E09093EB00C7
:101DE0001092EC0092E39093ED001092F70898E0C7
:101DF0009093F00082FF20C093E09093E9009091CF
:101E0000F200992319F09AE39093E8009091F40876
:101E1000992339F09091F40891509093F408992304
:101E200089F19091F608992339F09091F608915034
:101E30009093F608992341F184FF10C08091E2004D
:101E40008E7E81608093E2008091E1008F7E80939E
:101E5000E1008091F5088E7E806111C080FF16C080
:101E60008091E2008E7E80618093E2008091E100AB
:101E70008E7E8093E1008091F5088E7E8160809354
:101E8000F50804C05D9ACDCF289AD6CF9F918F9147
:101E90000F900FBE0F901F9018951F920F920FB6C4
:101EA0000F921124CF92DF92EF92FF920F931F9324
:101EB0002F933F934F935F936F937F938F939F9352
:101EC000AF93BF93EF93FF93CF93DF93CDB7DEB77D
:101ED0006C97DEBFCDBF1092E9008091E80083FFD0
:101EE000FBC168E0CE0145960E94880E82EF809388
:101EF000E8008D8987FF05C09091E80090FFFCCF36
:101F000003C09EEF9093E800982F907609F0C6C02A
:101F10009E894F89588D2F89F88C91110CC080387B
:101F200029F4809142018093F10002C01092F100E7
:101F30001092F10045C1913051F4811141C14130FD
:101F4000510509F03DC1809142018D7F0BC0933056
:101F500061F4811135C14130510509F031C18091E1
:101F600042018260809342012BC1953049F48091F7
:101F7000E80080FFFCCF822F80688093E30020C1BF
:101F8000963009F05EC00B8D1C8D22E01092E900A6
:101F90001092460110924501F21232C01092440193
:101FA000109243010E94560E99E0BE016F5F7F4F71
:101FB000DB01E92F1D92EA95E9F79983FA8291E016
:101FC0009E8390EA98879AEF9987209145013091F6
:101FD0004601275F3F4F3C832B838D831092E9009E
:101FE0001092460110924501109344010093430161
:101FF00049E050E080E00E942F0E0E94560EE0C0A3
:1020000010934401009343010E94ED0DDC011296F0
:102010000D911C9113970115110509F4BBC0D8014E
:10202000ED91FC910480F581E02DBE016B5E7F4F48
:10203000C8010995009709F0C7C0F801008511850E
:10204000EACF973009F445C1983021F481E08093BC
:10205000F100B6C0993009F0B3C0837009F039C1FE
:10206000E1E1F1E081E031E096E32081211109C056
:102070008EE78093EA001092EA008F898093F70838
:102080009FC08093E9003093EB0021912093EC00F6
:102090009093ED008F5F873041F7EACF8B8D9C8D59
:1020A0001092E9001092460110924501909344016C
:1020B00080934301898D811153C08E899D89913A06
:1020C00049F4813209F005C147E050E064E071E075
:1020D00080E0BBC0913209F0FCC0833269F48F8983
:1020E000988DA0E0B0E08093000190930101A0934F
:1020F0000201B093030164C0803269F48091E8006A
:1021000082FFFCCF67E084E091E00E94880E8BEFB5
:102110008093E80055C0823209F052C08F898093C5
:102120000B01EEEFFFE7859194918B3F9C4D19F0E9
:10213000E0E0F8E002C0EEEFFAE080910401909157
:102140000501A0910601B0910701803B9440A105D3
:10215000B10509F09EC080910B0180FF79C099C044
:102160000E94ED0DFC01028113810115110509F496
:10217000B0C0D801ED91FC910190F081E02DBE013D
:102180006B5E7F4FC801099581111AC0F801008567
:102190001185EBCFF1E0FF1609F44EC0F3E0FF121A
:1021A00098C08F89882309F44AC0823089F440E8B6
:1021B0006CE086E191E10E94B42F882309F489C084
:1021C0008EEF8093E80088C018161906CCF381C002
:1021D000813029F440E86BE08AE091E1ECCF833074
:1021E00009F077C00E94ED0DDC011296ED90FC9095
:1021F00013978E010F5F1F4F6801E114F10479F00E
:10220000D701ED91FC910680F781E02DB801C7015F
:102210000995080F111DF701E084F184EECFD80174
:102220001C92F60101900020E9F73197BF016C196B
:102230007D0940E0C601BFCF68EF70E102C064EFE6
:1022400070E1FB01449150E080E80E942F0EB8CF6E
:10225000EE3F2AE0F20751F0808191818737A7E7AE
:102260009A0721F09093FF0A8093FE0A87E797E789
:102270009183808380916000809347019BE088E197
:102280000FB6F894A895809360000FBE90936000FD
:1022900097CF808191818737974709F091CFA89593
:1022A00080916000886180936000809147018093F5
:1022B0006000EE3FBAE0FB0739F08091FE0A909192
:1022C000FF0A918380837CCF1092FF0A1092FE0A4E
:1022D00077CF81E28093EB006C960FB6F894DEBF67
:1022E0000FBECDBFDF91CF91FF91EF91BF91AF9125
:1022F0009F918F917F916F915F914F913F912F911E
:102300001F910F91FF90EF90DF90CF900F900FBE35
:102310000F901F9018950C94783480389105B8F47C
:1023200060347105A0F490E121E061FD24E060FDDE
:10233000220F62FD2295687F969FD0011124A80F7D
:10234000AA5ABE4F8C91822B40FF82278C9308950E
:102350002D9A0895BC0180E090E00C94961C8FB1FA
:102360008095807F669B88601C9B8460089582E0D6
:1023700090E00E948B1181110C94581F0C94531FF4
:10238000CF92DF92EF92FF920F931F93CF93DF9341
:10239000C091A305D091A405F090FC079E0190E1A7
:1023A000F99ED0011124A059B64EC82E880FDD0821
:1023B000FF2009F447C0A901495F5F4F517000E059
:1023C00010E0BA01601B710B7170FB01E855FA4F08
:1023D000E08080E1E89EF0011124E059F64EE4919E
:1023E0006E0F711D4C3F91E059072CF4FB01F17009
:1023F0004E175F0718F04617570730F464EF6E0D5D
:10240000623010F0E11026C00F5F1F4F043011053D
:10241000C1F660E070E0FD018491E82FF0E06E17F6
:102420007F0780F4FA01E60FF71FF170E855FA4FC5
:10243000E081F4EFFE0FF23010F0E1110BC06F5F9E
:102440007F4FE9CF3093A4052093A30584E08093C8
:10245000A50507C02C0D3D1D3170C217D30709F02B
:10246000A7CFDF91CF911F910F91FF90EF90DF9059
:10247000CF900895E6E5F1E0A0E0B8E000800EBC62
:102480008111012C1197A0FDFDCF0192B9F70DB478
:1024900008950F931F93CF93DF9380E190E00E9404
:1024A0008B11082F81E190E00E948B11182F82E19F
:1024B00090E00E948B11D82F83E190E00E948B1155
:1024C000C82F84E190E00E948B11982F0C3449F4BE
:1024D000113439F4D73429F4C03319F481E090333E
:1024E00009F080E0DF91CF911F910F910895209125
:1024F0005F05282329F490915E05982381E009F473
:1025000080E008956F927F928F929F92AF92BF92D8
:10251000CF92DF92EF92FF920F931F93CF93DF93AF
:1025200090911B08992319F0853009F027C3D82F03
:10253000C091FC070E94D01C009101081091020874
:1025400020910308309104086B017C01C01AD10A64
:10255000E20AF30A6093010870930208809303086B
:1025600090930408D23089F038F4DD2309F4A2C036
:10257000D13009F4B8C002C3D43009F4CCC008F497
:102580004EC0D53009F46BC2F9C220910008223048
:10259000F1F520E9C21621E0D206E104F104B8F514
:1025A0008C2F90E001966FE070E00E94A7348C3091
:1025B00030F4883030F4823030F0C0E009C0C8E038
:1025C00007C0C2E005C0CCE003C0C1110BC0CEE023
:1025D000EC2FF0E0EE0FFF1FE35AFA4F81A582FFC8
:1025E000F4CF02C0C150F4CF10920108109202083B
:1025F00010920308109204080EC0CEE0EC2FF0E019
:10260000EE0FFF1FE35AFA4F81A582FD04C0CC23D1
:10261000A1F3C150F3CFC093FC0782E0ADC220917B
:102620000008233091F540E9C41641E0D406E104E6
:10263000F10458F5CC2371F0C150C23030F0C830ED
:1026400030F0CC3030F4CCE005C0C2E003C0C8E0CC
:1026500001C0C0E02FE030E08C2F90E0FC01EE0FD5
:10266000FF1FE35AFA4F41A542FD06C00196B9018A
:102670000E94A734C82FF0CF1092010810920208D0
:10268000109203081092040811C02FE030E08C2F44
:1026900090E00196B9010E94A734C82F880F991FB6
:1026A000FC01E35AFA4F81A582FFF1CFC093FC07EA
:1026B00083E062C220910008211112C080E9C8168F
:1026C00081E0D806E104F10458F48FEF0E94C011B4
:1026D0001092010810920208109203081092040848
:1026E000109200084BC220910008213091F490E92B
:1026F000C91691E0D906E104F10458F481E00E9482
:10270000C011109201081092020810920308109252
:10271000040881E031C28091FC07E0E18E9F8001D6
:1027200011240159164EF8012491F5E02F9F9001D4
:1027300011244091FD075091FE0742175307B8F44A
:102740008FE399E19F938F931F9280E88F938DE1A0
:1027500098E09F938F930E941D3181E080931B0826
:102760000F900F900F900F900F900F9076C18130C7
:1027700019F48093A00871C1C091A305D091A4055C
:102780002796D170811149C020E030E0BE01621B64
:10279000730B7170AB014A5A5A4FFA01EE5AFF4F50
:1027A000808190E0FC01A4E0EE0FFF1FAA95E1F705
:1027B000E059F64EE4916E0F711D7170C617D70780
:1027C000C0F4FC01EE0FFF1FE45AFA4F81A562A589
:1027D000962F9370009749F081509C4F937081A77A
:1027E000892F83706C7F682B62A7FA01EE5AFF4F26
:1027F00010822F5F3F4F2430310541F6F090FC07E7
:102800008F2D90E0FC01B4E0EE0FFF1FBA95E1F7C9
:10281000E059F64E60E070E0CBC081E0E12CF12C95
:102820007DEFA72E78E1B72EE0E87E2EFDE1CF2EDA
:10283000F8E0DF2E66246394A0E28A2EA9E19A2EA6
:102840009E012E193F093170F901E855FA4F908128
:1028500040E1949FF0011124E059F64EE4912E0FCF
:10286000311DCC3FE1E0DE0728F4A9015170C41707
:10287000D50718F0C217D307E0F49E3019F49F92E1
:102880008F9208C024EF290F223098F0992389F005
:10289000BF92AF921F927F92DF92CF920E941D3122
:1028A00060921B080F900F900F900F900F900F9059
:1028B00080E0FFEFEF1AFF0A24E0E216F10409F0CE
:1028C000BFCFE12CF12C3BEBA32E38E1B32E40E837
:1028D000742E5DE1C52E58E0D52E662463946EED0E
:1028E000862E68E1962EE091FC0740E1E49FF0011E
:1028F0001124E059F64EE491F0E0EE16FF0638F5AB
:10290000FE01EE0DFF1DF170E855FA4F90819E30EB
:1029100019F49F928F9208C024EF290F223098F06B
:10292000992389F0BF92AF921F927F92DF92CF924C
:102930000E941D3160921B080F900F900F900F9016
:102940000F900F9080E09FEFE91AF90ACCCF88230F
:1029500009F483C053CFAE01460F571F51704A5A36
:102960005A4FDA01AE5ABF4FAC91B0E0AA0FBB1F6D
:10297000A45ABA4F99962C9199979A96EC909A9757
:102980003E2D33702115310569F021503C4F3370D5
:1029900099962C93999733702E2D2C7FE22EE32A53
:1029A0009A96EC92DA01AE5ABF4F1C926F5F7F4F3E
:1029B000249130E06217730770F2C855DA4FF8823D
:1029C000FC01EE0FFF1FE45AFA4F21A542A5342F58
:1029D0003370232B81F4FC01EE0FFF1FE050F84E03
:1029E0006591749140E850E08DE198E00E940E31CD
:1029F00081E080931B08E091FC07F0E03396DF0153
:102A0000AA0FBB1FAA5ABA4F99968C9199979A967A
:102A10002C91922F93708F3F23E0920719F001962B
:102A2000937002C080E090E0EE0FFF1FEA5AFA4F69
:102A300081A7937082A58C7F892B82A7F8010491CE
:102A40008091FD079091FE07F5E00F9F8019910995
:102A500011249093FE078093FD0784E08DC0809140
:102A60001B08882309F447C08091A108882371F1CD
:102A70008091B7078F938091B6078F938091BB07A2
:102A80001F928F938091BA071F928F938091B907FD
:102A90001F928F938091B8071F928F9383E798E1DD
:102AA0009F938F931F9280E88F938DE198E09F937F
:102AB0008F930E941D311092A1088DB79EB740964A
:102AC0000FB6F8949EBF0FBE8DBF55C0EDE1F8E084
:102AD00001900020E9F7CF018E51984020911C0809
:102AE00030E02817390718F010921B0844C080E81E
:102AF00080931C0840C081E08093A10880931B084C
:102B000080E880931C089091B7079F939091B60737
:102B10009F939091B3079F939091B2079F93909149
:102B2000B5079F939091B4079F939091B1079F939E
:102B30009091B0079F939091AF079F939091AE07AC
:102B40009F939091AD079F939091AC079F932EE137
:102B500038E13F932F931F928F938DE198E09F93DD
:102B60008F930E941D31EDB7FEB772960FB6F894A1
:102B7000FEBF0FBEEDBF85E080930008DF91CF91CF
:102B80001F910F91FF90EF90DF90CF90BF90AF908B
:102B90009F908F907F906F9008956115710579F0E7
:102BA000FB0101900020E9F73197AF01461B570B5D
:102BB000DC01ED91FC910280F381E02D099480E02D
:102BC00090E008952F923F924F925F926F927F9282
:102BD0008F929F92AF92BF92CF92DF92EF92FF922D
:102BE0000F931F93CF93DF937C016B01C0E0D0E084
:102BF00088248394912C04E010E098EF692E7724C8
:102C00007A942DEFA22EBB24BA94842F8470582E70
:102C1000842F8270482E842F8870382E4170242E85
:102C2000219682E0880E911CA80CB91C552091F0C9
:102C300041E0B8016C0D7D1DC7018C0F9D1F0E94E6
:102C40008D1141E0B6016C0F7D1FC8018E0D9F1DD7
:102C50000E948D11442091F041E0B601601B710B80
:102C6000C7018C0F9D1F0E948D1141E0B6016C1BA6
:102C70007D0BC8018E0D9F1D0E948D11332091F098
:102C800041E0B6016C0F7D1FC701801B910B0E94B4
:102C90008D1141E0B8016C0D7D1DC7018C1B9D0B92
:102CA0000E948D1121100DC0C017D107ECF4B7FCA4
:102CB000B7CF0150110982E0680E711CA60CB71C39
:102CC000AFCF41E0B6016C1B7D0BC701801B910BA0
:102CD0000E948D1141E0B601601B710BC7018C1B76
:102CE0009D0B0E948D11E0CFDF91CF911F910F912D
:102CF000FF90EF90DF90CF90BF90AF909F908F901C
:102D00007F906F905F904F903F902F9008959C011F
:102D1000240F311D1216130674F5803891055CF5E9
:102D200097FF02C080E090E02138310514F020E8E0
:102D300030E0281BAB014770552731E001C0330F4D
:102D40004A95EAF777FF02C0695F7F4F43E07595C8
:102D500067954A95E1F77695762F6627779567957B
:102D6000860F971FFC01EA5AFE4F215020F0808108
:102D7000832B8193FACF08952FB7F89483E0809343
:102D8000E9009091E800892F807295FF04C090912E
:102D9000F20080E4891B2FBF0895CF93DF931F9229
:102DA000CDB7DEB76983DC01ED91FC910280F38140
:102DB000E02D41E050E0BE016F5F7F4F09950F901D
:102DC000DF91CF91089583E08093E9008091F20034
:102DD000882319F08AE38093E80008950E94BC16C6
:102DE00090E008958F929F92AF92BF92CF92DF9220
:102DF000EF92FF920F931F93CF93DF936C017B01B0
:102E00008A0180910B01882309F45CC08091F70846
:102E1000882309F457C08091F50880FF05C0809190
:102E2000E00082608093E000E801B12C8AEFA82ED8
:102E300093E0892E2AE3922E209711F4BB20D9F13A
:102E40000E94BC1681110AC0AA94AA20D9F161E09F
:102E500070E080E090E00E94961CEECF282F30E0DA
:102E6000C217D3070CF48C2F9FB7F8948092E90017
:102E70002091E80025FF1DC0282F30E0C21BD30B96
:102E8000F701815020F041914093F100FACFE20E1A
:102E9000F31EBB2019F09092E8000AC08091E80070
:102EA00085FD07C09092E800BB24B394209709F0F9
:102EB000B12C9FBFC1CF5D9884E68093F4081016B3
:102EC000110644F081E090E0F6019383828380E074
:102ED00090E001C0C801DF91CF911F910F91FF9049
:102EE000EF90DF90CF90BF90AF909F908F9008951C
:102EF0003F924F925F926F927F928F929F92AF928A
:102F0000BF92CF92DF92EF92FF920F931F93CF93D6
:102F1000DF935B01EA01322E18EF120F6B0184E0A0
:102F2000C80ED11C4034510528F4412FBE01C60102
:102F30000E9487162E01400E511CB201615071098A
:102F40006034710520F4412FC6010E948716249633
:102F500008503E01600E711C7E01D7FF02C0E12CBB
:102F6000F12C8701430181E4681671041CF080E4B0
:102F7000882E912C0815190544F441E0B801C501CB
:102F80000E948D110F5F1F4FEDCF8501030D111DA5
:102F9000580181E0A81AB10841E0E814F90444F4AA
:102FA000B701C5010E948D118FEFE81AF80AF4CF1E
:102FB000BE01C6010E94E2150550110942E0BE01A2
:102FC000C8010E94E21585E0481A510844E0B201A8
:102FD000C8010E94E21548E0B201C601DF91CF911D
:102FE0001F910F91FF90EF90DF90CF90BF90AF9027
:102FF0009F908F907F906F905F904F903F900C9438
:10300000E2152F923F924F925F926F927F928F9232
:103010009F92AF92BF92CF92DF92EF92FF920F9367
:103020001F93CF93DF9310E0F801E60FF71FF7FD32
:103030008EC0603871050CF08AC0FA013896E83409
:10304000F10508F084C0EA0157FF04C0CC27DD2752
:10305000C41BD50B2E01E7E04E225524DA0157FDA3
:103060001796D3E0B595A795DA95E1F757FF0CC011
:10307000119748E050E0EA01C419D5092E01AE3F8E
:10308000DFEFBD0709F463C04D019694982C8824A6
:1030900097948794860E971EAD014F5F5F4F5695AC
:1030A000542F442757954795460F571FF901821A09
:1030B000930A1A01221A330AC8E06C2E712C641884
:1030C00075087F01E21AF30AE016F1060CF03FC022
:1030D0006038710509F43BC077FF04C031966F5F1B
:1030E0007F4FEFCFAF3F4FEFB40769F1C490EC01D2
:1030F000A880B9807401EE0EFF1EEA0CFB1C042CA4
:1031000001C0CC0C0A94EAF7E701D880CD28C88228
:103110004114510419F3A730B10501F3C490EC0137
:10312000A880B9807101EE0EFF1EEA0CFB1CD12CA9
:10313000062C02C0D594C7940A94E2F7E701D88020
:10314000CD28C882CBCF4114510441F7C7CFDF91BE
:10315000CF911F910F91FF90EF90DF90CF90BF9094
:10316000AF909F908F907F906F905F904F903F9027
:103170002F9008952F923F924F925F926F927F927D
:103180008F929F92AF92BF92CF92DF92EF92FF9277
:103190000F931F93CF93DF93CDB7DEB72A970FB668
:1031A000F894DEBF0FBECDBF5A01822E912C940140
:1031B000280F391F37FDBAC0803891050CF0B6C012
:1031C0009B01200F311D37FDB1C0603471050CF03B
:1031D000ADC0AB0177FF04C044275527461B570BF2
:1031E000477055279B0177FF02C0295F3F4FE3E0FF
:1031F00035952795EA95E1F777FF08C02150310909
:1032000068E070E0FB01E41BF50BAF01202E269473
:1032100026942694312C077019F0FFEF2F1A3F0ADD
:10322000220E331E39017694762C662477946794A7
:10323000680E791EE12CF12C00E010E0B30160581B
:103240007F4F7A87698768E070E0FB01E41BF50B2C
:10325000FA83E9832216330609F468C02830310561
:1032600009F464C02F3FFFEF3F070CF454C0E98519
:10327000FA85E00FF11FBF016A5A7E4F7C836B8392
:10328000D801A60DB71DAA5ABE4F6C0160E070E0D0
:10329000681579050CF03FC0E0E8CE16D10409F4BA
:1032A0003AC0D7FC2CC02F3FFFEF3F0709F43AC0CC
:1032B000FB01EE0DFF1DEA0DFB1DE491042E01C084
:1032C000EE0F0A94EAF7FC91EF2BEC9341155105B0
:1032D000B1F02730310599F0FB01EE0DFF1DEA0D2D
:1032E000FB1DE4914E2E512C098002C05594479449
:1032F0000A94E2F7EB81FC815080452840826F5FA1
:103300007F4FEB81FC813196FC83EB83FFEFCF1A7B
:10331000DF0A1196BDCF2F5F3F4F00581F4FE80CBB
:10332000F91C98CF41155105B9F6E9CF2A960FB689
:10333000F894DEBF0FBECDBFDF91CF911F910F91EB
:10334000FF90EF90DF90CF90BF90AF909F908F90C5
:103350007F906F905F904F903F902F9008956F9265
:103360007F928F929F92AF92BF92CF92DF92EF9215
:10337000FF920F931F93CF93DF93EE2009F48CC03D
:10338000E02FF0E0DF01A60FB71FB7FD8BC060385C
:1033900071050CF087C0DA011896A834B10508F061
:1033A00081C0EA0157FF04C0CC27DD27C41BD50B21
:1033B000C770DD27DA0157FD179613E0B595A7957D
:1033C0001A95E1F757FF0CC0119748E050E08A01C9
:1033D0000C1B1D0BE801AE3F1FEFB10709F462C0E3
:1033E0006D01D694DC2CCC24D794C7947D014FEF8B
:1033F000E41AF40AF694FE2CEE24F794E79431973D
:103400003F01620E731E2150310948E050E04A012D
:103410008C1A9D0A2615370509F444C060387105D9
:1034200009F440C077FF06C0E1E06E1A71086F5FD3
:103430007F4FF0CFAF3FFFEFBF0789F1F30144911A
:10344000FC01A080B1808B010C0D1D1D0A0D1B1D00
:103450000C2E01C0440F0A94EAF7F8015081452B65
:103460004083209709F3A730B105F1F2F3014491AD
:10347000FC01A080B1808701060F171F0A0D1B1DDC
:1034800050E0082C02C0559547950A94E2F7F801E0
:103490005081452B4083C8CF0E94011803C020975C
:1034A00029F7C2CFDF91CF911F910F91FF90EF903D
:1034B000DF90CF90BF90AF909F908F907F906F9054
:1034C0000895EF92FF920F931F93CF93DF93EC0138
:1034D00041E065E070E00E948D1141E063E070E042
:1034E000CE010E948D117E018FEFE81AF80A41E0AB
:1034F00064E070E0C7010E948D118E010150110936
:1035000041E064E070E0C8010E948D1141E064E098
:1035100070E0C7010E948D1141E064E070E0C801D5
:103520000E948D1141E064E070E0C7010E948D119E
:1035300041E064E070E0C8010E948D1141E065E067
:1035400070E0CE010E948D1141E065E070E0CE0197
:103550000E948D1141E063E070E0CE010E948D1168
:1035600041E063E070E0CE01DF91CF911F910F91B8
:10357000FF90EF900C948D112091F708211103C05A
:103580008FEF9FEF08955FB7F89422E02093E90052
:103590002091F20030E01216130614F421E030E01E
:1035A000422FFC0184E6415038F028988093F608B9
:1035B0009091F1009193F7CF2115310521F0809181
:1035C000F200882319F05FBFC90108958BE680934C
:1035D000E800F9CFCF92DF92EF92FF920F931F9303
:1035E000CF93DF936C017A018B01C0E0D0E0CE1560
:1035F000DF0581F0D8016D918D01D601ED91FC912F
:103600000190F081E02DC6010995892B11F02196DA
:10361000EECF7E01C701DF91CF911F910F91FF90F7
:10362000EF90DF90CF9008954F925F926F927F92CC
:103630008F929F92AF92BF92CF92DF92EF92FF92C2
:103640000F931F93CF93DF936C013B01102F38E052
:10365000832E912C7A01FF24270193E055944794FF
:103660009A95E1F7CA0187709927892B41F5D60110
:103670001796CD91DC911897C3019927BE010E943E
:10368000A7344C9EF0014D9EF00D5C9EF00D112470
:103690009927D60115964D915C9116978E0F9F1F15
:1036A000FA01E80FF91F111106C0C22FC095208141
:1036B0002C23208327C0C081C22BC08323C0C22FEC
:1036C000D0E04770A42EB12C720183E0EE0CFF1CF9
:1036D0008A95E1F79E0101C0220F4A95EAF7012F72
:1036E000A701B301C6010E94141BC4018A199B09DA
:1036F00002C0D595C7958A95E2F72C2FA701485FA0
:103700005F4FA8CFDF91CF911F910F91FF90EF9066
:10371000DF90CF90BF90AF909F908F907F906F90F1
:103720005F904F9008955F926F927F928F929F92D9
:10373000AF92BF92CF92DF92EF92FF920F931F93BF
:10374000CF93DF93EC0189899A8997FD06C02B8975
:103750003C89821793070CF488C0162F6A3061F4F5
:103760008D859E859C878B872F898F859889820F71
:10377000911D988B8F8774C0CB84DC84693031F4C1
:1037800089E0C80ED11CDC86CB866AC09DEFC916C5
:103790009FEFD90654F48E8990E004962B853C85E2
:1037A000820F931F9C878B875BC08F819885C8167B
:1037B000D9068CF7EF84F8888DEFE8168FEFF806BE
:1037C00054F389859A85E816F9062CF7603208F4D7
:1037D0001FE780EE810F9FE9910F9A3118F49FEF58
:1037E000E91AF90A8C3011F08B3119F49FEFE91ABC
:1037F000F90A869594E0899F50011124360184E0EE
:10380000680E711C46011170F401EC19FD09EA0DF6
:10381000FB1DEC5AF54E8491111103C08F70582E88
:1038200004C0582E52948FE058228C81882351F086
:1038300001E08D89811100E02FE0A701B401CE01E4
:103840000E94141B0D89252DA701B401CE010E94F1
:10385000141B9FEF891A990A68147904A9F69BCF63
:103860008B899C8901969C8B8B8B81E090E0DF910A
:10387000CF911F910F91FF90EF90DF90CF90BF906D
:10388000AF909F908F907F906F905F900895089574
:1038900080E090E008950E948E34EF92FF920F93A3
:1038A0001F93CF93DF938C017B01C0E0D0E0F70141
:1038B000EC0FFD1F6491662361F0D801ED91FC913E
:1038C0000190F081E02DC8010995892B11F0219616
:1038D000EECFCE01DF91CF911F910F91FF90EF902E
:1038E00008953FB7F8948091020990910309A0913F
:1038F0000409B091050926B5A89B05C02F3F19F012
:103900000196A11DB11D3FBFBA2FA92F982F88275F
:10391000820F911DA11DB11DBC01CD0142E0660FBA
:10392000771F881F991F4A95D1F708958F929F920C
:10393000AF92BF92CF92DF92EF92FF926B017C0128
:103940000E94711C4B015C01C114D104E104F1041B
:10395000F1F00E94711CDC01CB0188199909AA09B8
:10396000BB09883E9340A105B10570F321E0C21A5E
:10397000D108E108F10888EE880E83E0981EA11CAA
:10398000B11CC114D104E104F10419F7DDCFFF909B
:10399000EF90DF90CF90BF90AF909F908F90089561
:1039A0002FB7F8946091FE087091FF08809100098C
:1039B000909101092FBF08951F920F920FB60F9299
:1039C00011242F933F938F939F93AF93BF93809135
:1039D000FE089091FF08A0910009B0910109309173
:1039E000FD0823E0230F2D3720F40196A11DB11D02
:1039F00005C026E8230F0296A11DB11D2093FD08E6
:103A00008093FE089093FF08A0930009B0930109EA
:103A10008091020990910309A0910409B0910509D0
:103A20000196A11DB11D8093020990930309A093F3
:103A30000409B0930509BF91AF919F918F913F9178
:103A40002F910F900FBE0F901F9018952F923F92BD
:103A50004F925F926F927F928F929F92AF92BF929E
:103A6000CF92DF92EF92FF920F931F93CF93DF934A
:103A700000D01F92CDB7DEB78C01262F30E0F3E0E7
:103A800035952795FA95E1F7E3E0F0E0C901BF012C
:103A90000E94A7343C01C9010196BF010E94A734CE
:103AA0005C01C9010296BF010E94A734A0E0B3E007
:103AB00060E070E020E8422E25E0522E88248394B6
:103AC000912C8C0E9D1E680C791CA80CB91C880DBD
:103AD000991D20E030E07201EA1AFB0AF8014081EA
:103AE00051811701220E331ECC24C394D12C2115F1
:103AF000310511F4C12CD12C41018C189D086401B1
:103B0000C40ED51EF601D080D982F101E40FF51F55
:103B1000D080DA82CC24C394D12C2F37310511F414
:103B2000C12CD12CEC0DFD1DE081EB83F301308025
:103B3000F501D080FC01C080E32DE870EE0FF0E8C5
:103B4000DF9E400111248E2AF32DFF1FFF27FF1F48
:103B50008F2AED2DE074F0E0689414F8F595E79560
:103B60001694E1F78E2AEC2DE072F0E0F595E795DA
:103B7000F595E795F595E7958E2AED2DE071F0E046
:103B8000F595E795E829FD2DF470DF2EDD0CDD0CB1
:103B9000DD0CED29FC2DF270CF2EC294CC0CF0EE92
:103BA000CF22CE2A6115710519F4EC2DE160CE2EDD
:103BB000420F531FFA01EA0FFB1FC0822F5F3F4FD6
:103BC0002038310509F08ACF6F5F7F4FA058BF4F73
:103BD0006230710509F07DCF0F900F900F90DF914B
:103BE000CF911F910F91FF90EF90DF90CF90BF90FA
:103BF000AF909F908F907F906F905F904F903F908D
:103C00002F900895CF92DF92EF92FF920F931F9320
:103C1000CF93DF93E0913C01F0913D01CF010196FC
:103C200090933D0180933C01849181110BC0809160
:103C300071008D7F809371001092910046981092D0
:103C40003E0170C091E090933E01E82FEF71F0E0EB
:103C5000EE0FFF1FEE5DF44EC591D491E82FF0E01A
:103C600055E0F595E7955A95E1F7EE0FFF1FEC5EED
:103C7000F44E05911491209761F49093F8084698BA
:103C80003FE9C32E3FE0D32EE12CF12CCAEFD0E068
:103C900014C06E01E12CF12C60E472E48FE090E03E
:103CA000A70196010E94DE3369017A0181E0C81AFA
:103CB000D108E108F1081092F808E0915401F09160
:103CC00055010995811103C081E08093F808011521
:103CD000110571F09801DE010E946934DC01CB010D
:103CE00029E0B595A795979587952A95D1F704C0B2
:103CF00081E090E0A0E0B0E0109290002AE02093F4
:103D00009100D0929900C09298008093F908909306
:103D1000FA08A093FB08B093FC08809171008260C0
:103D200080937100DF91CF911F910F91FF90EF90E1
:103D3000DF90CF9008951F920F920FB60F9211242B
:103D40002F933F934F935F936F937F938F939F93A3
:103D5000AF93BF93EF93FF938091F9089091FA0886
:103D6000A091FB08B091FC08892B8A2B8B2B49F181
:103D70008091F808811104C098B180E4892788B93E
:103D80008091F9089091FA08A091FB08B091FC0885
:103D9000181619061A061B06B4F48091F9089091BA
:103DA000FA08A091FB08B091FC080197A109B1099C
:103DB0008093F9089093FA08A093FB08B093FC084D
:103DC00002C00E94021EFF91EF91BF91AF919F919F
:103DD0008F917F916F915F914F913F912F910F90B4
:103DE0000FBE0F901F901895CF92DF92EF92FF9227
:103DF000CF93DF93FC01CA01E90170E050812617DF
:103E0000370750F0689F9001699F300D789F300D03
:103E100011242C173D0728F0543628F55F5F508396
:103E200022C0A4E6B0E00E9469346B017C01252F1A
:103E300030E0DE010E946934C616D706E806F906AE
:103E400010F4515050834081A42FB0E011969E0190
:103E50000E94BB34C616D706E806F90620F04436A1
:103E600010F44F5F4083DF91CF91FF90EF90DF9090
:103E7000CF900895FF920F931F93CF93DF93EC01A0
:103E8000F62E08811981C8010E947834F81621F0B5
:103E90006F2DC8010E948034CE01DF91CF911F9118
:103EA0000F91FF900895109241013E983F98089518
:103EB0003E9A3F9A81E0809341010895CF93DF932A
:103EC000CDB7DEB7E7970FB6F894DEBF0FBECDBF14
:103ED000789484B5826084BD84B5816084BD85B5E5
:103EE000826085BD85B5816085BD80916E008160F1
:103EF00080936E0010928100809181008260809397
:103F00008100809181008160809381008091800098
:103F10008160809380008091910082608093910005
:103F200080919100816080939100809190008160E8
:103F3000809390008091C10084608093C100809143
:103F4000C10082608093C1008091C1008160809334
:103F5000C1008091C30081608093C3008091C00044
:103F600082608093C0008091C20081608093C20013
:103F700080917A00846080937A0080917A008260D8
:103F800080937A0080917A00816080937A0080919A
:103F90007A00806880937A001092F70810924201AC
:103FA0001092F5088091D70081608093D70080EA55
:103FB0008093D80089B5806189BD89B5826089BD4B
:103FC00009B400FEFDCF61E070E080E090E00E9467
:103FD000961C8091D8008F7C80618093D80080915E
:103FE000E000807F8093E0008091E1008E7E8093EE
:103FF000E1008DE08093E200559A209A8091640060
:104000008E7F8093640080917A00806480937A0030
:1040100080917A0086FDFCCF0091780010917900A4
:104020000E94711C2091640021602093640020E0B4
:1040300030E0980111270027DC01CB01800F911F90
:10404000A21FB31F0E94003181EC80937C0085B1D8
:10405000806F85B984B1877E84B984B1876E84B955
:104060005E9A5F988AB1806D8AB9769A6E9881B3AC
:10407000806F81BB899880B38D7080BB80E58CBDDB
:1040800081E08DBD85E090E00E94AA115F9A85E0F5
:1040900090E00E94AA115E985C98E0E4F6E08491BA
:1040A0008EBD00000DB407FEFDCF319626E0ED3445
:1040B000F207A9F75C9A81E880936400809165001B
:1040C00081608093650080E00E943A120E94AF11E7
:1040D00087FF15C05C9885EA8EBD00000DB407FE11
:1040E000FDCF5C9A2E982F982D9880916400806265
:1040F0008093640081E083BF889513BEFCCF02E00B
:1041000010E00E94AF1182FF42C02D980E94AF11B3
:104110008478843831F00E94AF118471843191F534
:1041200019C00E94A81188EC90E00E94AA112F9853
:104130001A8309836FEFCE0101960E943A1F84EF24
:1041400091E00E94AA112F9A0E94AF1184788438BE
:10415000D9F3E1CF0E94A81188EC90E00E94AA1147
:104160002E981A83098360E0CE0101960E943A1FBF
:1041700084EF91E00E94AA112E9A0E94AF118471DF
:104180008431D9F388EC90E00E94AA11BACF0E9442
:10419000A8110E94B71181E090E00E948B11182FA6
:1041A000147081FF3BC011112E98B0EFEB2EFF244D
:1041B000FA940E94AF1186FF05C02E9A2F9A0E9492
:1041C000A8112CC0112331F034E0E316F10411F4EE
:1041D0002E9A2F9881E00E943A1200E128E540E9EA
:1041E00055E0B70184E190E00E94BA1880E00E9497
:1041F0003A128FE090E00E94AA114FEFE41AF40AFD
:1042000059E1E516F104A9F6112311F02F9A2D9822
:1042100080E991E00E94AA110E94A81182E390E037
:104220000E94AA110E94AF118111F8CF8FE18093F3
:1042300060050E94B7110E94D01C80916105762F05
:10424000781B872F90916205992331F07093630555
:10425000109262050C94752F90916005791758F4AF
:104260008F5F891710F00C94752F81E083BF8895BC
:1042700013BE0C94752F81E08093620560936105F5
:1042800080915C0590915D05019690935D0580930A
:104290005C0580915E0580935F050E94AF1180935D
:1042A0005E0580913E0181110DC0809171008D7F6E
:1042B0008093710086E098E090933D0180933C01EB
:1042C0000E94021E8091A208823009F49DC630F43B
:1042D000882359F0813009F422C2A0C6833009F442
:1042E00074C6843009F490C699C680E80E9477129B
:1042F000882329F18091A308823079F028F488235B
:1043000051F0813081F01BC08430B1F078F08530FD
:10431000B1F484E012C085E010C00E9449128823E5
:1043200011F081E00AC01092A30809C080919F0893
:10433000882399F382E001C083E08093A30880E1A1
:104340000E947712882331F18091A3088230E1F036
:1043500028F4882359F0813079F01CC08430C1F0F2
:10436000A8F08530B9F41092A30814C00E94491235
:10437000882311F081E005C080919F08882321F0F7
:1043800082E08093A30806C083E0FBCF84E0F9CFEE
:1043900085E0F7CF80E40E947712882329F180918D
:1043A000A308823079F030F4882351F08130E1F4B1
:1043B00084E018C0843041F068F0853071F014C09A
:1043C00083E010C085E00EC00E944912882311F0DE
:1043D00081E008C01092A30807C080919F0888233D
:1043E00099F382E08093A30880E20E9477128823E9
:1043F00029F18091A308823079F030F4882351F0BC
:104400008130E1F484E018C0843041F068F08530F8
:1044100071F014C083E010C085E00EC00E94491204
:10442000882311F081E008C01092A30807C0809192
:104430009F08882399F382E08093A30888E00E9474
:104440007712882309F4EAC58091A308823009F421
:104450001FC158F4882391F0813009F0DFC50FE7C0
:1044600015E098E1E92EF12CFFC0843009F4F0C08A
:1044700008F4ECC0853009F4EDC0D0C580919F08E8
:10448000811100C11092A4051092A3051092A505F8
:104490001092A7051092A6051092AD071092AC07D6
:1044A0001092AF071092AE071092B3071092B207A6
:1044B0001092B5071092B40784E68093B8078093F2
:1044C000B9078093BA078093BB071092B707109281
:1044D000B60782E08093FC0787EE93E09093FE0797
:1044E0008093FD0710921D0810921B0810929E08E1
:1044F00010929D0810929F081092A10885E090E00C
:104500009093A9078093A80780E091E09093AB0770
:104510008093AA07EDE0F8E08BE198E011928E1706
:104520009F07E1F780E090E0FC01EE0FFF1FE35AE8
:10453000FA4F21A52B7F21A7FC01EE0FFF1FE45AA4
:10454000FA4F11A622A52C7F22A701968F30910544
:1045500059F780918A05846080938A058091880547
:10456000846091E0909387058C7F809388050E94FA
:10457000D01C6093050870930608809307089093F9
:1045800008080E94D01C6093090870930A08809361
:104590000B0890930C0808EA15E03BEFE32EFF248C
:1045A000FA94D12C4CE0C42E5EE0B52E6DE0A62E20
:1045B0000E94FB308D2197EFE91691E0F90610F487
:1045C0002FE0D22E823061F02CF4813061F4D801DA
:1045D000AC920BC085303CF4D801BC92D12C05C004
:1045E000F801C08202C0F8011082FFEFEF1AFF0A43
:1045F0000F5F1F4F2BEFE21621E0F206C9F6E091A4
:10460000A807F091A907E855FA4F1082E091AA0790
:10461000F091AB07E855FA4F10820CEB17E00E94BF
:10462000FB309F70D80191969C938E9390970E9437
:10463000FB309F70F801819391938F01F7E00C3D5F
:104640001F0769F781E080939F081CC082E01DC0AE
:1046500083E01BC080914101882319F00E94531F01
:10466000DDC40E94581FDAC4C7010E948B11D80113
:104670008D938D01BFEFEB1AFB0AEBE3EE16E3E03F
:10468000FE0691F71092A00881E08093A208C6C4AC
:1046900080E190E09A8389836CE4CE0101960E94C8
:1046A0003A1F81E190E09A83898361E4CE0101960B
:1046B0000E943A1F82E190E09A83898367E4CE01E9
:1046C00001960E943A1F83E190E09A83898360E318
:1046D000CE0101960E943A1F84E190E09A8389837B
:1046E00060E3CE0101960E943A1F0FE715E088E1D2
:1046F000E82EF12CD801DD908D01C7010E9478349D
:10470000D81621F06D2DC7010E948034BFEFEB1A3F
:10471000FB0AEBE3EE16E3E0FE0661F77FC480914F
:10472000A008882319F01092A2081BC02091B2079C
:104730003091B3078091B4079091B5078217930722
:1047400010F40C947F2F8091FD079091FE07843622
:10475000910510F00C947F2F10929F0884E08093B5
:10476000A2080E94D01C4B015C0180911B088111A2
:1047700056C08091A505811152C00E94AF11182F1B
:1047800010720E94AF118074103259F52091A30568
:104790003091A405803439F4369527953093A405DB
:1047A0002093A3053AC02115310539F48FEF91E02C
:1047B0009093A4058093A30506C02150310930933E
:1047C000A4052093A30588E08093A5058091A70503
:1047D000803210F411E0180F1093A7051092A6056F
:1047E0001EC08034D1F48091A3059091A405019658
:1047F00091709093A4058093A30588E08093A5050C
:104800008091A705803210F48F5F01C080E2809311
:10481000A70581E08093A60502C01092A7058091AC
:10482000050890910608A0910708B0910808A50115
:104830009401281B390B4A0B5B0B253631054105CA
:10484000510508F4EBC38092050890920608A092E7
:104850000708B092080848EA55E05FA34EA37A0122
:1048600028EF31E080E090E0A1E0B0E000E010E06F
:10487000F70161917F01F0E16F9FA0011124FA011E
:10488000EE58F64EE4910E0F111DFA01E259F64E64
:10489000E491AE0FB11DAC01623079F54C5F5F4F12
:1048A000B901685071093901E8E16E0E711C661595
:1048B000770588F46B01F1E0DF22F601E855FA4F45
:1048C000D080F3E0DF1204C0AC01485F5F4F03C04B
:1048D0006F5F7F4FECCFC9018615970570F4BC015F
:1048E000717068557A4FFB0160816C50633018F429
:1048F000CA01029603C00196EFCFCA012F5F3F4F56
:10490000283FF3E03F0709F0B3CF1093B5070093BA
:10491000B407B093AF07A093AE079093AD07809311
:10492000AC07E0909D08F0909E08C701F8EACF2EF2
:10493000F5E0DF2E60E172E04AEF51E021E030E087
:10494000412C512CA3EC2A2EA9E13A2EBEEB6B2E62
:10495000B9E17B2ED601ED916D01E53009F5181610
:1049600019060CF043C0D9015696BBA3AAA3F101C6
:10497000A4914A0E511CF301A4918A1B9109FA01DA
:10498000E617F70788F58F01117008551A4FD801FF
:104990001C91133019F42F5D3F4F28C03196F0CF92
:1049A000E63021F5181619060CF5D9011B96BBA3A4
:1049B000AAA3E3EDF9E1A4914A0E511CEEECF9E152
:1049C000A4918A1B9109FA01E617F70768F48F0191
:1049D000117008551A4FD8011C91153019F42A5E30
:1049E0003F4F04C03196F0CF2AA13BA16F5F7F4FAC
:1049F0004F5F5F4F4A3FB3E05B0709F0ABCF3093A7
:104A0000B1072093B00728EF31E000E010E060E04C
:104A100070E0E4EC2E2EE9E03E2EAEA1BFA17D9029
:104A2000BFA3AEA3BAE07B1205C0E8E72E1AECEEF6
:104A30003E0A4CC04DEF470D423020F0F7E07F12A8
:104A40000EC040C01816190654F440E1749EF001DF
:104A50001124ED58F64EE4914E0E511C37C044EF30
:104A6000470D433018F46F5F7F4F30C058E0751228
:104A70002DC0A9016901A8E1CA0ED11C4C155D0524
:104A800028F5DA01B170A855BA4FEC91F4EFFE0F9A
:104A9000F23018F40C5F1F4F12C0EE3019F4085FAB
:104AA0001F4F0DC0F6EFFE0FF23018F40051110940
:104AB00006C0E43011F0E73011F4005211094F5FE5
:104AC0005F4FDCCF181619060CF4BFCFB0E17B9E08
:104AD000F0011124E259F64EE4918E1B91092F5FEB
:104AE0003F4F283FE3E03E0709F097CF5092B307CE
:104AF0004092B20740908D0580918E058370782E8C
:104B000050909505809196058370C82E609097050A
:104B1000809198058370D82E2091930580919405FB
:104B2000382F33704AE0429FC001439F900D1124FB
:104B30008617970758F486EF482F4203F001439FEA
:104B4000F00D1124AF01460F571F02C040E050E0A6
:104B5000970160E18BEB97E00E94F41E20919D0885
:104B600030919E08442D572D68E188EB97E00E9414
:104B7000F41E20919D0830919E08C901A0E0B0E08C
:104B8000A801012E000C660B770B841B950BA60B5E
:104B9000B70B181619061A061B0614F4201B310B46
:104BA000452D5C2D64E68AEB97E00E94F41E20916F
:104BB000990580919A05382F337055E0220F331FE5
:104BC0005A95E1F780919D0890919E08280F391F12
:104BD000462D5D2D64E689EB97E00E94F41E6091FE
:104BE000BB072091B807862F261708F4822F409123
:104BF000BA075091B907982F481708F4942F9517C2
:104C000050F4841730F4621710F4862F05C0822FF9
:104C100003C0842F01C0852F8695869599E1981B46
:104C20003DEF309380001092880090938A0080932B
:104C30008C008091FF078F5F8A3018F48093FF0704
:104C4000EDC11092FF07E091FD07F091FE07809102
:104C5000B2079091B3078E0F9F1FE091B407F091B8
:104C6000B507E817F90738F48E1B9F0B9093FE07E2
:104C70008093FD0704C01092FE071092FD0730E0FC
:104C8000260F311D240F311D250F311D3695279517
:104C9000369527954091AC075091AD07249FC001F0
:104CA000259F900D349F900D112464E670E00E94C2
:104CB00093348091AE079091AF079B0186179707B9
:104CC00008F49C0180919D0890919E08821793079B
:104CD00010F4019607C08230910540F0281739077B
:104CE00028F4019790939E0880939D088091B007C7
:104CF0009091B10720919D0830919E0882179307EB
:104D000020F490939E0880939D0840919B052091EC
:104D10009C05522F537020919D0830919E08821B54
:104D2000930B6AE0649F9001659F300D11248217F8
:104D3000930708F49C013093B7072093B60780913E
:104D4000FD079091FE07820F931F2816390628F061
:104D50009093FE078093FD0704C03092FE072092D7
:104D6000FD0780911B08811159C18091090890911C
:104D70000A08A0910B08B0910C0875016401C81ACB
:104D8000D90AEA0AFB0A0E94FB30092E000CAA0B82
:104D9000BB0B805A9541AF4FBF4F8C159D05AE059B
:104DA000BF0508F0B7C08092090890920A08A09247
:104DB0000B08B0920C080E94FB3062E070E00E9489
:104DC000A7348C01009709F051C08091980582FFAB
:104DD00025C18091B907843620F50E94FB3060918F
:104DE000FD077091FE07769567950E9493348C01BC
:104DF0001F938F938BEB97E09F938F931F9280E885
:104E00008F938DE198E09F938F930E941D316DB732
:104E10007EB7685F7F4F0FB6F8947EBF0FBE6DBF41
:104E200017C01F921F928FE697E09F938F931F9258
:104E300080E88F938DE198E09F938F930E941D31BE
:104E40008DB79EB708960FB6F8949EBF0FBE8DBF64
:104E500081E080931B088091FD079091FE07801BE5
:104E6000910B9093FE078093FD07D8C0019709F03E
:104E7000D5C08091960582FFD1C08091BA07843653
:104E800018F50E94FB3060919D0870919E08769500
:104E900067950E9493348C011F938F9383E097E072
:104EA0009F938F931F9280E88F938DE198E09F935B
:104EB0008F930E941D31ADB7BEB718960FB6F89408
:104EC000BEBF0FBEADBF18C01F9281E08F938DEBA8
:104ED00096E09F938F931F9280E88F938DE198E0E7
:104EE0009F938F930E941D31EDB7FEB738960FB692
:104EF000F894FEBF0FBEEDBF81E080931B08809148
:104F00009D0890919E08801B910B90939E08809322
:104F10009D0884C06091FD077091FE07E0909D0898
:104F2000F0909E08ADE0B8E045E856E021EA36E0B2
:104F300080E090E01C9111111EC0F901C590D49041
:104F40006C157D05C8F0FA01C590D490EC14FD04F1
:104F500098F0FC01E958F94FE491F0E0EE0FFF1FE3
:104F6000EB57FA4FC080E181E370DE2E11E0CD28CF
:104F700019F410E001C012E01D931130E1F4FC01BE
:104F8000E759F94FE491F0E0EE0FFF1FE35AFA4FB3
:104F900021A5246021A7FC01EE0FFF1FE35BF94F61
:104FA0006591749140E850E08DE198E00E940E31E7
:104FB00010931B0833C001964E5F5F4F2E5F3F4F2B
:104FC0008E30910509F0B6CF29C088E00E94771293
:104FD0008111C7C784E00E9477128111C2C780E4A3
:104FE0000E947712882329F0809156058F5F809365
:104FF000560580E20E947712882381F08091560541
:105000008150809356050AC088E00E947712811172
:10501000A5C784E00E9477128111A0C780E0E6E571
:10502000F1E081118FEF002481938193819381932B
:105030000394D1F78091A208823009F408C730F4B4
:10504000882329F1813009F4C9C14CC7833009F4A0
:1050500019C7843009F046C782E090E09093740548
:105060008093730590937205809371051092760575
:10507000109275058FEF9FEF9093780580937705D9
:1050800010927A051092790568EA7EE022C7809135
:1050900040018F5F8093400100E129E640EE5FE030
:1050A00060E270E08BE090E00E94BA1808E028E02F
:1050B00048ED5FE068E270E080E090E00E94BA189E
:1050C00028E040ED5FE068E270E088E790E00E9451
:1050D000BA1806E12EE246E050E062E070E089E5B1
:1050E00095E00E9478172EE246E050E064E370E01D
:1050F00089E595E00E94781748E661E070E080E07D
:1051000090E00E94871648E662E070E080E090E060
:105110000E94871689E090E00E94611A88E290E080
:105120000E94611A8BE390E00E94611A8AE590E088
:105130000E94611A00E120E140EB5FE060E070E076
:1051400088E690E00E94BA18809157059091580522
:105150008F3F910509F014F4019609C00E94FB30BD
:1051600091958195910960E071E00E94A734909338
:1051700058058093570510914001212F30E0A90177
:1051800055954795559547954F7055272873332763
:105190002059304F4850510957FF03C05195419550
:1051A0005109405E5F4F08E0BC0184E695E00E9433
:1051B0000118612F669584E695E00E94261D8EE019
:1051C00090E090937405809373059093720580939B
:1051D000710589E090E090937605809375058FEFD7
:1051E0009FEF909378058093770510927A0510923F
:1051F000790580919F08882319F069E67FE002C055
:1052000064E67FE086E695E00E944D1C8EE090E02B
:105210009093740580937305909372058093710544
:105220008FE090E090937605809375058FEF9FEF68
:10523000909378058093770510927A0510927905FE
:105240000E944912882331F06FE57FE086E695E001
:105250000E944D1C8EE090E090937405809373053E
:10526000909372058093710585E190E090937605A7
:10527000809375058FEF9FEF909378058093770566
:1052800010927A051092790580919F08882331F059
:105290006AE57FE086E695E00E944D1CA0E4EA2ED8
:1052A000F12CF0927405E0927305F0927205E09291
:1052B000710589E090E090937605809375050FEF76
:1052C0001FEF109378050093770510927A051092DE
:1052D000790564E57FE086E695E00E944D1CF0923A
:1052E0007405E0927305F0927205E09271058FE00B
:1052F00090E0909376058093750510937805009360
:10530000770510927A05109279056FE47FE086E6C2
:1053100095E00E944D1CF0927405E0927305F092A6
:105320007205E092710585E190E090937605809397
:105330007505109378050093770510927A05109201
:10534000790580914101882319F069E47FE002C06A
:1053500063E47FE086E695E00E944D1C8091A308FF
:10536000823089F160F48823B9F0813009F0BAC540
:1053700008E028E04BE35FE06CE070E02AC0843096
:10538000C9F088F0853009F0ADC508E028E04BE3AE
:105390005FE062E170E014C008E028E04BE35FE00A
:1053A00066E070E016C008E028E04BE35FE066E0EE
:1053B00070E006C008E028E04BE35FE06CE070E0DE
:1053C00087E390E008C008E028E04BE35FE062E19B
:1053D00070E085E090E00E94BA1884C510913F010A
:1053E0001F5F10933F018091A605811102C08FEFCE
:1053F00001C081E02091A505829F202D1124A12EBE
:10540000B12CC501959587959595879583709927BA
:10541000AC0173E0440F551F7A95E1F7BA01675864
:10542000744F1B01E4E0880F991FEA95E1F7DC0156
:10543000A75CB44FBDA3ACA3ECEBF7E0FDA7ECA7D2
:10544000F12C3F01812C912C422F220F550B5FA391
:105450004EA3412C55245394D301CD90DC90BFEF43
:10546000CB1ADB0AEFE0DE22D301CD92DD923D01C3
:1054700080FE06C0E0E0F2E0EC19FD096F0102C019
:10548000FEEFDF1A2F2D21702AA38091A3059091A2
:10549000A40543E0880F991F4A95E1F76EA17FA10B
:1054A000681B790B6C0D7D1D7F70E22E08E0910169
:1054B00048E050E080918305909184050E94AF19E7
:1054C00080919B0520919C05922F9370880F991FC6
:1054D00088169906FCF48091A3059091A40533E009
:1054E000880F991F3A95E1F7B201681B790B4EA11D
:1054F0005FA1640F751F6C0D7D1D7F70EAA000E138
:105500002CA13DA146E250E0809183059091840555
:105510000E94AF195FEF851A950AF3946F2D6170A1
:10552000F62E70E18716910409F096CF80919D08C0
:1055300090919E0824E0969587952A95E1F7F82E9C
:1055400080E18F1510F490E1F92EC501887199273B
:10555000DC01A75EB44F5D018CEDC82E87E0D82E2C
:10556000912C812C13708F14E9F1111107C0F601F1
:105570008081918101969F709183808380FE08C015
:10558000D6018D919C9160E072E0681B790B04C09C
:10559000F601608171817E5FF92DF170EF2E8091AF
:1055A000A3059091A40503E0880F991F0A95E1F7E0
:1055B0002EA13FA1281B390B620F731F7F7008E0DB
:1055C000950146E250E080918305909184050E9408
:1055D000AF1983949394392D3170932E42E0C40E09
:1055E000D11CC1CF8091A3059091A405B3E0880F91
:1055F000991FBA95E1F78EA09FA0881999099C017F
:1056000097FF02C0215F3F4F4901A4E09594879422
:10561000AA95E1F79BA28AA291958195910960E1F3
:1056200070E00E94A7344C0120E1821A9108AC017D
:10563000405F5B4F59A748A78AA19BA160E470E037
:105640000E94A734FC01FC5F0491E02EF12CE4E001
:10565000F594E794EA95E1F7E80CF91C0F7010E077
:10566000045F1F4F6AA17BA16F5F7F4F7BA36AA37B
:1056700070E1870E911C8AA19BA160E470E00E94FA
:10568000A734FC01FC5FE4914E2E512CF4E05594BC
:105690004794FA95E1F7480C591CEF70F0E03C96FE
:1056A0005F01A01AB10AB7FE03C0B194A194B1087A
:1056B00012012E183F0837FE03C03194219431089F
:1056C0002A143B0454F4942D852D2F01E92FF82F33
:1056D0009E2D8F2D7801092F182F4E145F0454F43E
:1056E000902F812F8F01E92FF82F9E2D8F2D720182
:1056F000492E582E32016E187F08CF01801B910B66
:105700009DA38CA397FF05C09195819591099DA3B9
:105710008CA3630177FE03C09FEFC91AD90AD59401
:10572000C7940E171F0714F08FEF01C081E0A82F58
:10573000880FBB0BBBA7AAA74E145F04DCF041E0A7
:105740002A143B041CF4B701C80102C0B801C70108
:105750000E948D11ECA1FDA1CE1ADF0AD7FE06C072
:105760002AA53BA5020F131FC60CD71C3FEFE31A57
:10577000F30AE2CF48A559A58416950609F05CCF37
:10578000EEA0FFA058E2E51AF1086BEF262E3324B5
:105790003A94C090A305D090A405C20CD31C61E03C
:1057A000D6228091A8079091A907C816D90639F08A
:1057B0008091AA079091AB07C816D90621F411E091
:1057C00041E15BE003C010E049E05BE008E028E075
:1057D00064E270E0C7010E94BA18112321F063E06F
:1057E00021EF3AE003C061E029EE3AE080913F0109
:1057F00090E0959587959595879570E00E94A734E0
:1058000053E0880F991F5A95E1F7A901480F591FD6
:1058100008E028E068E270E0C7010E94BA18F601CB
:10582000E855FA4F208170E1279F90011124F9017A
:10583000E459F64E85919491F901E059F64E449061
:10584000F901EF58F64E2491E42DEE0FEE0FEE0F16
:10585000A0918305B09184058DB69EB69FA68EA6B5
:105860004E2E512CA701440D551D57FD4BC130E85C
:10587000E316F1040CF046C144E050E0421B51092C
:10588000440F440F440F4A5F403408F03BC150E0DE
:10589000BA0133E0759567953A95E1F77BA36AA362
:1058A0002F71822E912C9BAA8AAA2DB73EB724195C
:1058B00035090FB6F8943EBF0FBE2DBF4DB75EB78A
:1058C0004F5F5F4F5BA74AA7EDB7FEB711823296D5
:1058D0009A01240D351DE217F30711F01192FBCF49
:1058E0002AA13BA13695322F2227379527954901CA
:1058F0008E0C9F1C99A688A69DA38CA3AAA0BBA0D2
:10590000C5012AA13BA1821B930B4AA95BA984175D
:1059100095070CF0EFC058E0A516B10409F4EAC0F1
:1059200068A579A560587F4F79AB68AB8AA59BA520
:10593000370140E050E0441555050CF0CDC070E84B
:105940006716710409F4C8C077FCBFC08CA09DA085
:10595000840E951E9FAA8EAAF4012491F0E42F9F35
:10596000900111242CABFC01608108A519A5040F3E
:10597000151F662399F06D917C911197600F711F2F
:10598000FB0130813F7330836D917C911197060F3D
:10599000171FF8013081232B208335C066E070E0AB
:1059A00021E030E0062E01C0220F0A94EAF79CA8FD
:1059B0009222CD90DC901197C00ED11EF601F0819D
:1059C000FDABFC018080882011F0209501C02FEFF5
:1059D000FDA92F23F6012083811005C0882483941C
:1059E000911001C0812CFC0180822D913C91119776
:1059F000200F311FF901D0809D2890826F5F7F4F6B
:105A00006C30710569F6F7E0AF16B10409F45DC0BA
:105A1000EEA9FFA92491E22FF0E04F01959487941D
:105A200095948794C82CFC01208108A919A9040F1A
:105A3000151F222399F02D913C911197200F311FB2
:105A4000F9016081607C60832D913C911197020F78
:105A5000131FF80120812829208337C060E070E0FF
:105A60006630710591F121E030E0062E01C0220F71
:105A70000A94EAF7DC2CD222ED91FC9111974F01A8
:105A8000800E911E9FAA8EAAF4018080FC01908056
:105A9000992011F0209501C02FEF2821EEA9FFA930
:105AA0002083911005C099249394D11001C0912CAA
:105AB000FC019082ED91FC911197E00FF11F208184
:105AC000D22AD0826F5F7F4FCBCF4F5F5F4F01965F
:105AD000FFEF6F1A7F0A2FCF2FEFA21AB20A4CA145
