:100000000C94F60E0C941E0F0C941E0F0C941E0FE5
:100010000C941E0F0C941E0F0C941E0F0C941E0FAC
:100020000C941E0F0C941E0F0C94D3100C944511BD
:100030000C941E0F0C941E0F0C941E0F0C941E0F8C
:100040000C941E0F0C941E0F0C941E0F0C941E0F7C
:100050000C941E0F0C941E0F0C941E0F0C94431F37
:100060000C941E0F0C941E0F0C941E0F0C941E0F5C
:100070000C941E0F0C941E0F0C941E0F0C941E0F4C
:100080000C9402210C941E0F0C941E0F0C941E0F46
:100090000C941E0F0C941E0F0C941E0F0C941E0F2C
:1000A0000C941E0F0C941E0F0C941E0F0A4153202B
:1000B00054484520544F574E200A47524F57532C0F
:1000C0002053504143450A4245434F4D4553205626
:1000D0004552590A56414C5541424C452E0A4E4F05
:1000E0005720594F552043414E0A555047524144DD
:1000F0004520534F4D450A4F46205448450A425526
:10010000494C44494E47532E0A000A444F20594F48
:100110005520455645520A5245475245540A4355C3
:100120005454494E4720414C4C0A544845205745A9
:1001300045443F0A0A54414B4520534F4D450A530D
:10014000454544532E0A000A44494420594F55203E
:100150005452590A544845204652554954530A4668
:10016000524F4D204F55520A4C4F43414C20434172
:10017000435455530A504C414E54533F0A0A4E4F74
:100180005720594F552043414E0A504C414E542060
:10019000594F55520A4F574E210A000A49542753C6
:1001A00020534F0A5741524D2E2E2E0A0A504C41D1
:1001B0004E542041204645570A5452454553205439
:1001C0004F0A50524F564944450A534F4D4520530C
:1001D000484144450A464F52205448450A4C41473D
:1001E000554E495449414E53210A000A4556454E41
:1001F000205448450A42455354204F462055530A3F
:100200004D414B4520534F4D450A4D495354414BA9
:1002100045532E0A0A4E4F5720594F550A43414E17
:100220002052454D4F56450A545245455320414EA4
:10023000440A4255494C44494E47532E0A000A414C
:10024000532054484520544F574E0A47524F575356
:100250002C205448450A434F535420464F520A49D4
:100260004D504F5254494E470A464F4F4420474540
:1002700054530A50524F424C454D415449432E0A63
:100280000A4255494C442041204D494C4C0A544F98
:100290002046454544205448450A4C4147554E495F
:1002A0005449414E532E0A000A54484552452049AC
:1002B00053204E4F0A5350414345204C4546540A63
:1002C000544F2053544F524520414C4C0A544845FA
:1002D000204D4F4E4559210A0A4255494C44204170
:1002E0002042414E4B0A544F20494E435245415300
:1002F00045200A474F4C442053544F524147450A2A
:1003000042592035303030242E0A000A4120505204
:10031000494553540A50415353494E472042590AC4
:1003200050524F504F53455320594F550A544F2068
:10033000454455434154450A5448452050454F5083
:100340004C450A494620594F55204255494C440ACC
:100350004120534D414C4C0A434855524348204696
:100360004F520A48494D2E0A000A5448452042413E
:100370004E444954530A434F554C4420534D454C29
:100380004C0A594F5552204D4F4E45590A414E4443
:100390002054484559204152450A434F4D494E4744
:1003A00020544F0A41535341554C54205448450A58
:1003B00042414E4B210A4255494C44204120504F66
:1003C00053540A464F52205448450A53484552490F
:1003D00046462E0A000A54484520474F4C440A46D8
:1003E000455645520A524541434845440A4C414707
:1003F000554E495441210A0A4255494C4420410A6C
:100400004D494E4520544F0A494E43524553450AE3
:1004100054484520494E434F4D452E0A000A544842
:1004200045205155414C4954590A4F4620594F5582
:100430005220464F4F440A49532052454E4F574E83
:100440004544210A0A4255494C4420410A5354412B
:10045000424C4520544F0A4558504F52542054485E
:10046000450A455854524120464F4F442E0A000A2F
:1004700054484520434F57424F59530A4152452053
:1004800047455454494E470A524553544C455353DB
:100490002E0A0A4255494C442041204E45570A53E2
:1004A000414C4F4F4E20544F0A454E5445525441F3
:1004B000494E0A5448454D20414E440A5241495341
:1004C000452054484549520A48415050494E4553E9
:1004D000532E0A000A4D4F52452050454F504C456F
:1004E0000A57494C4C204D4F56450A494E2C20493D
:1004F00046205448450A484F5553455320415245DC
:100500000A53455256494345440A574954482057CF
:10051000415445522E0A0A545259204255494C44DE
:10052000494E470A534F4D452057415445520A54AE
:100530004F574552532E0A000A4255494C44204118
:10054000204641524D0A544F204749564520410A02
:100550004A4F4220544F205448450A434954495A6F
:10056000454E532E0A0A4152524F572055500A54B5
:100570004F205357495443480A4255494C44494E29
:10058000472E0A000A57454C434F4D4520544F0A09
:100590004C4147554E4954412C0A4120534D414C42
:1005A0004C204C414B450A494E2054484520574960
:1005B0004C440A57494C4420574553542E0A0A428A
:1005C00055494C4420534F4D450A484F55534553C8
:1005D00020544F0A494E4352454153452054484503
:1005E0000A504F50554C4154494F4E2E0A00F0F8D6
:1005F0009C8E8783878E9CF8F00000FEFF03030328
:100600000303070EFCF80000FEFF030303030307C8
:100610000EFCF80000FFFF00000000000000FFFFDC
:100620000000FEFF8383838383C7EE7C380000F8DD
:10063000FC0E07030303070EFCF800003F7FE0C039
:100640008080C0E07F3FFFFF01010101010101FF48
:10065000FF0000FFFF0C0C0C0C1C3E77E3C10000F8
:100660007FFFC0C0C0C0C0E0703F1F00001F3F70D0
:10067000E0C0C0C0E0703F1F00007FFFC1C1C1C12A
:10068000C1E3773E1C00001F3F70E0C0C0C0E070B7
:100690003F1F000000000001FFFF01000000D5F037
:1006A0008D14A1C881CFD9F1AF200084053805D4BD
:1006B000046F041D04D50369030B03A8023E02EB7B
:1006C000019B0147010A01AC00030604050C080A5E
:1006D000090B07000F0E0D0201030604050C080AA2
:1006E000090B07000F0E09000001000A000F00149B
:1006F0000019001E002300320064009600C800FAB2
:10070000002C01AF0000003200BC0284034C041432
:1007100005DC05D007C409B80BAC0DA00F941188F7
:1007200013E8030A4C4147554E495449414E530A78
:100730004C4F5645204C4956494E470A494E205980
:100740004F555220544F574E0A414E44205448456D
:10075000590A4E455645522046454C540A415320AD
:10076000554E49544544210A000A25346420504519
:100770004F504C450A4C4F53542046414954480A67
:10078000494E204C4147554E4954410A414E442060
:10079000444543494445440A544F20464F554E442E
:1007A0000A5448454952204F574E0A544F574E2E2F
:1007B0000A4255494C44204D4F52450A4348555230
:1007C0004348455320544F0A524953452046414916
:1007D0005448210A000A5448452053484552494686
:1007E000460A4D414E4147454420544F0A50524518
:1007F00056454E5420410A42414E44204F460A423B
:10080000414E444954532046524F4D0A535445419A
:100810004C494E470A594F5552204D4F4E4559218C
:10082000000A594F5520484156450A4245454E2039
:10083000524F42424544210A0A54484520544849EF
:10084000455645530A53544F4C4520253464240AD9
:100850000A4255494C44204D4F52450A534845528F
:100860004946460A504F535453210A002F602F60C7
:100870002F60502F202F602E604EA02D602D602DF8
:100880006050408F804EA02F602F602F60502F202F
:100890002F602E604EA02D602D602D6050408F8007
:1008A0004EA02D604D4C8B8DAC4AC82D604D4C8BAD
:1008B0008DAC4AC84780478B89C8C04980498D8B19
:1008C000CCA02D2E4F26204F26204F2620502F2003
:1008D0004F24204E24204E246024204D23204D23DD
:1008E000204D23205023204F246024204E246024B8
:1008F000204F26204F26204F2620502F204F2420E7
:100900004E24204E246024204D23204D23204D23AF
:10091000205023204F246024204E246024202D20AA
:1009200025204D4C4B25204D25204C22604A482245
:100930006022202D2025204D4C4B25204D25204C7C
:1009400022604A4822602220472160474B212049EB
:1009500041482260226022602220492360494D23C1
:10096000204B23204C2460246024602D2E2F602FE8
:10097000602F60502F202F602E604EA04D23204D01
:1009800023204D23205023204F246024204E246018
:1009900024202F602F602F60502F202F602E604E5C
:1009A000A04D23204D23204D23205023204F246091
:1009B00024204E246024202D2025204D4C4B252022
:1009C0004D25204C22604A48226022202D202520DF
:1009D0004D4C4B25204D25204C22604A4822602258
:1009E00020472160474B2120494148226022602254
:1009F000602220492360494D23204B23204C246052
:100A0000246024602D2E2F602F602F60502F202F08
:100A1000602E604EA02D602D602D6050408F804E66
:100A2000A02F602F602F60502F202F602E604EA0CF
:100A30002D602D602D6050408F804EA04B4F4D4B50
:100A40004B4F4D4B484E4D4C484C4B4A494D4C4BEF
:100A5000494D4C4B4A4B4C4E4A4D4E4F4B4F4D4BD4
:100A60004B4F4D4B484E4D4C484C4B4A49545352BA
:100A7000495453524A5152534A545556464E4F5177
:100A8000464E4F51444D4E51444D4E51434D4E4FA5
:100A900043504F4E444E4D4C444A4B4C464E4F51A2
:100AA000464E4F51444D4E51444D4E51434F50527E
:100AB000434F5052445253544453514E454B4C4D66
:100AC000454B4C4D42484B4C42484B4C454B4C4D92
:100AD000454B4C4D42484B4C42484B4C4147494B8F
:100AE0004147494B42484A4C42484A4C43494B4D86
:100AF00043494B4D444A4C4E444E4F5000253964B7
:100B000050002539642400102C4AA0895224180C66
:100B100018A04A49C97A0430449261894624180CC5
:100B2000738946A2965C2008748629518A6418202D
:100B30005C92A24A275106182446E9924A242006CC
:100B400039494A6290C83010307FFF7F3010002052
:100B500040208000401080FFFC308448800EFFFF62
:100B6000FC300890400EFFFFFC300122400EFF00D9
:100B700000000000000000F0487C247C48F00000E9
:100B800000D23F579200000000D27FA70200000071
:100B90000022FFA70200000000D27FA70200006031
:100BA0003010387CBC5C9C1C5C7F3F2620400030B1
:100BB0001888783CFC1C1C1C3C5E9F2746000030BB
:100BC0001888783C3C1C1C1CDC3E1F2746800060BB
:100BD0003010387CBC5C1C9C5CBF7F0600000000B1
:100BE000000B0E1C780E040000101C78101C08006E
:100BF000002030302038100000101C78101C0850E5
:100C0000524553532054484520555020414E4420CE
:100C1000444F574E0A4152524F575320544F20438E
:100C200048414E4745205448450A43555252454E87
:100C3000544C592053454C4543544544204143545A
:100C4000494F4E0A4F52204255494C44494E472E77
:100C50000A0A5052455353204120544F20444F20FC
:100C600054484520414354494F4E0A4F5220425563
:100C7000494C4420544845204255494C44494E472C
:100C80002E0A0A5052455353204220544F204348C5
:100C900045434B205448450A535441544953544901
:100CA00043532E0A0A5052455353204220544F209A
:100CB000474F204241434B2E0A00594F5520434194
:100CC0004E204D4F56452041524F554E44205448DA
:100CD000450A4C4556454C205749544820544845F0
:100CE000204C45465420414E440A5249474854201E
:100CF0004152524F57532E204C4F4E472050524591
:100D000053530A464F522046415354205343524FA7
:100D10004C4C494E472E0A444F55424C4520434CBB
:100D200049434B20544F204D4F564520544F0A4EB7
:100D300045585420415641494C41424C452053505E
:100D40004F5420544F0A4255494C442054484520A2
:100D500043555252454E544C590A53454C45435401
:100D60004544204255494C44494E472E0A5052456D
:100D7000535320424F544820544F20524543454E30
:100D80005445522E0A0A5052455353205448452088
:100D90005249474854204152524F570A464F522019
:100DA0004D4F524520494E535452554354494F4E8E
:100DB000532E0A004255494C4420412057494C4487
:100DC000205745535420544F574E0A4F4E205448F5
:100DD000452053484F5245204F46204C414B450A31
:100DE0004C4147554E49544120574954482041539E
:100DF000204D414E590A434954495A454E532041CA
:100E00005320504F535349424C452E0A0A494E43F2
:100E1000524541534520594F55522050524F464953
:100E20005420544F0A4B45455020554E4C4F434B90
:100E3000494E47204E455720414E440A45584349A4
:100E400054494E47204255494C44494E47532E0A77
:100E50000A5052455353205448452052494748545C
:100E6000204152524F570A464F52204D4F52452073
:100E7000494E535452554354494F4E530A4F5220F2
:100E80004220544F20474F204241434B2E0A000A34
:100E90004C4147554E4954412057415320435245F8
:100EA000415445442042590A2020202052454E41B9
:100EB000544F2047524F54544553490A0A50524FF9
:100EC0004752414D4D494E470A2020202052454E61
:100ED00041544F2047524F54544553490A20202033
:100EE000204755555320534C494550454E0A0A4D0D
:100EF000555349432042590A202020204A4F414B54
:100F0000494D2053494D4F4E53534F4E0A000A202E
:100F10002020202020554E464F5254554E415445D6
:100F20004C590A202020202020594F552052554E40
:100F3000204F55540A2020202020204F46204D4F7E
:100F40004E45592E0A0A20202020202052454D458A
:100F50004D42455220544F0A202020202020434853
:100F600045434B205448450A20202020202053543C
:100F700041544953544943530A20202020202057EC
:100F800048494C4520504C4159494E47210A0A20B6
:100F9000202020202054525920414741494E210A07
:100FA0000078487878783030004D55544544004DED
:100FB000555349430048454C500041424F55540059
:100FC00053415645004C4F414400504C415900524A
:100FD0004553554D4500102C4AA0895224180C1831
:100FE000A04A49C97A0430449261894624180C7396
:100FF0008946A2965C2008748629518A6418205C70
:1010000092A24A275106182446E9924A242006391A
:10101000494A6290C83006060C0C0C0C0C181818C3
:1010200038F0E08000000000001C3C7060E0C0C0B0
:10103000E0783F0F0000082952FE492510000C18E7
:1010400030FFFF0C060301C3FFFEFFC301000000D9
:10105000000000C0C0E3FF7F1EFFFFFFE3C000C031
:10106000F0FCFEFF0703C3C7CF9FDEC003C7FFFE30
:10107000FFC70300C3FFFEFEC7030001C3FFFFFF5E
:10108000FFF8E0C103FFFFFFC3010003C3FFFEFE43
:10109000FFC303001F0F06C3FFFEFEFFC303060FBF
:1010A0001F00C0C0E3FF7F1EFFFFFFE3C000004042
:1010B000E0FF7F7F78F0F070381CCCE07E7FFFC7C8
:1010C0000E0EC7FFFF7F7EE0C00F1F3F7F70E0E086
:1010D000F07F7F3F0000001F3F7FF0E0E0F07F3FA8
:1010E0001F000000C0E0FF7FFFE0C10FFFFF7F7F18
:1010F000FFE0C000C0E07F7F7F7FE0C0000000C055
:10110000E0FF7F7FFFE0C00000C0E07E7FFFC70EF2
:101110000EC7FFFF7F7EE0C0080B00020202010045
:10112000090400000102020000052400100105244A
:1011300001010104240206052406000107058103BC
:1011400010004009040100020A0000000705020225
:101150004000000705830240000004030904120157
:101160000002EF0201404123368000010102030129
:1011700041726475696E6F204C4C43005553422098
:10118000494F20426F6172640000000000000000BF
:1011900054524545532041524F554E440A434855F9
:1011A000524348455320414E440A484F55534553F6
:1011B000204D414B450A5448454D204D4F52450A5C
:1011C000415454524143544956452E0A004449441F
:1011D00020594F55204B4E4F570A544841542054E4
:1011E00048450A504C5552414C20464F524D0A4FEB
:1011F00046204341435455530A49532043414354E5
:10120000493F0A00504C414E54494E470A57454504
:101210004420495320410A475245415420574159DF
:101220000A544F2050415920594F55520A434F32CA
:101230002051554F54412E0A0045414348205354F4
:1012400041424C450A414C4C4F575320594F550A87
:10125000544F204558504F52540A41444449544930
:101260004F4E414C0A455843454544494E470A466E
:101270004F4F442E0A5052455353204220544F0A98
:10128000434845434B20594F55520A4558504F52F9
:1012900054532E0A00454143482042414E4B0A49CF
:1012A0004E435245415345530A544845204D4158F9
:1012B000494D554D0A4D4F4E455920594F550A43FA
:1012C000414E2053544F52452C0A42555420544805
:1012D00045590A41545452414354204D4F52450AF6
:1012E000544849455645532E0A0052454D454D42F6
:1012F000455220544F0A434845434B205448450A21
:10130000535441544953544943530A544F204B4E6C
:101310004F57205748454E0A54484520534543559A
:10132000524954590A4953204C4F5720414E440AC0
:10133000495427532054494D4520544F0A4255499A
:101340004C442041204E45570A5348455249464691
:1013500020504F53540A0043485552434853204BA2
:101360004545500A4C4147554E495441530A544F44
:101370004745544845522C0A425554205448450A82
:10138000434C455249435320444F0A4E4F54204C3E
:10139000494B450A544F2042452041524F554E4437
:1013A0000A544F4F204E4F4953590A4255494C4415
:1013B000494E47532E0A004D494E45532041524550
:1013C0000A475245415420544F0A494E4352454121
:1013D0005345205448450A415641494C41424C45E9
:1013E0000A4A4F425320414E44205448450A494E30
:1013F000434F4D452C204255540A54484559204DE1
:1014000041590A48555254205448450A454E5649B8
:10141000524F4E4D454E542E0A004D494C4C5320D0
:10142000524546494E450A53454544532046524F7E
:101430004D0A4E4541524259204641524D530A49A8
:101440004E544F20464C4F5745522C0A534F205470
:10145000484559204152450A5155495445204D4F60
:1014600052450A4546464543544956450A5748455C
:101470004E20504C414345440A4E4541522046417E
:10148000524D532E0A00574F524B45525320415252
:10149000450A414C4C4F43415445440A544F204661
:1014A00041524D530A46495253542E0A4946205937
:1014B0004F55204255494C440A544F4F204D414E00
:1014C000592C0A4F54484552204A4F42530A574913
:1014D0004C4C204E4F542042450A54414B454E2E11
:1014E0000A0053414C4F4F4E530A494E4352454117
:1014F0005345205448450A48415050494E455320D1
:101500004F460A4C4147554E495449414E532E0AC5
:1015100050524553532054484520420A4255545492
:101520004F4E20544F0A434845434B205448450AE8
:101530005354415449535449430A5245504F52540D
:10154000210A00574154455220544F574552530ADF
:1015500043414E2048454C500A4952524947415454
:10156000494E470A544845204649454C44530A4988
:101570004E204E45415242590A4641524D53204158
:10158000530A57454C4C2E0A00484F55534553209B
:101590004152450A4E454345535341525920544FF9
:1015A0000A494E435245415345205448450A504F3D
:1015B00050554C4154494F4E2E0A0A484F555345F9
:1015C00053204E4541520A56454745544154494FD0
:1015D0004E0A41545452414354204D4F52450A50F3
:1015E000454F504C452E0A0052454D454D424552FF
:1015F00020544F0A434845434B2053544154530A07
:10160000544F2053454520484F570A5550475241A3
:1016100044494E470A4255494C44494E47530A41B2
:101620004C54455253205448454D2E0A00004E4F0D
:101630005720594F552043414E0A434C45415220B3
:10164000414E590A54595045204F460A5645474580
:10165000544154494F4E0A414E4420414E59205462
:101660005950450A4F46204255494C44494E472E51
:101670000A00C0A05028148AFD8A142850A0C00077
:101680001038E070001224C8D4E0984460000000D4
:101690000000FF0078487803030378487800FF0AC9
:1016A0000E0A3F0ACE8A0E1EFFFFE4C28000000031
:1016B0000000FF8080FC8282FC80FE92FE80FF881A
:1016C000F888F889FF88F888FB8BF889FB8FFE8CF7
:1016D000F800000000000000000080C0A0502814A6
:1016E0000AFF0A142850A0C080000000000000007B
:1016F000000080C0E0A0F090F888FF80FF80809C10
:101700009C9F9C9C8080FF80FF88F890F0A0E0C0A8
:101710008000FF80F8F880E0E080FF99E799FF8083
:1017200080808080FF99E799FFA0A0A0A0A0A0A042
:10173000FF00000000C040C040C078C442C242C4A4
:1017400078C040C040C000000000FC141C171C17EB
:101750001C177C47545754477C171C171C171C1424
:10176000FC00FF809F9191919F80FCAAA9FFA9AAEC
:10177000FC8080808F898F80FF00C0B0ACABACB0A4
:10178000C000000000000000000000000000000099
:101790000000FF00043E0400FF8080808080808085
:1017A00080808080808080800000FF80FC82FC80C0
:1017B000FF829B829B829B829B829B829B829B82DD
:1017C000FF00FE25160EA576A605A676A50E162503
:1017D000FE00FF80FE82FE82FE80BEA2BEA2BE8010
:1017E000FF00FE915E3E111E1E111E1E113E5E91F7
:1017F000FE00FF808F8F80FFA9A9A9FF808F8F80B7
:10180000FF00000C1933667CF9FFFE703C3E331973
:10181000180C000000000080C3FFFFBC00000000A7
:1018200000000C1830FFFF0C0603082952FE492562
:10183000100080C0E0A0F090F888FC84FE82FFC712
:10184000AB93ABC7FF82FE84FC88F890F0A0E0C0A9
:101850008000FF80F8F880E0E080FF99E799FF8042
:1018600080808080FF99E799FFA0A0A0A0A0A0A001
:10187000FF00000020508850200020508850200099
:10188000000030FF160E0546A615A646050E16FFEB
:10189000300000FF808C8C80FC85FC808C8C80FF6D
:1018A0000000FE25160E0506A675A606050E1625D1
:1018B000FE00FF80FE82FE82FE80BEA2BEA2BE802F
:1018C000FF00C0B0ACABACB0C080808080808080B6
:1018D00080808080808080800000FF80FC82FC808F
:1018E000FF829B829B829B829B829B829B829B82AC
:1018F000FF0000000080601C030C9060100C0304CB
:1019000004083844821CE0000000C0300C03C020F2
:101910001C02050890E00000F008F0000F30479826
:1019200020C0000102020302020202010080C1A1E4
:10193000B9AFB9A1C1820201010024A870FC70A84E
:1019400024000100F0AFF0000100F04F241B244FF1
:10195000F000E0A05028140A050A142850A0E0A0C6
:10196000E0A0E0A0E0A0E0A0E0A0E0C080000000D7
:101970000000FF8080FC8282FC809E929E80FF8817
:10198000F888F888F888F888F888F889FB8FFE8C42
:10199000F800FC141C171D171D177D475557554798
:1019A0007D171D171D171C14FC00FF809F9191913E
:1019B0009F80FCAAA9FFA9AAFC8080808F898F80C4
:1019C000FF00FFC1FF417FC1FF0000FF885522FFDC
:1019D000000000FF885522FF0000008040A0502832
:1019E000140A0A142F5FA040800000FF818C8C80B5
:1019F000FEA9A9FE808C8C81FF0000000000000081
:101A000000002E162D16E81589154315E2148614CC
:101A10001A14B7135713EA12951239120412CD1182
:101A200090118F118E118D118C118B118A118911CA
:101A30000A484F5553494E4720444159530A2537C8
:101A4000642535640A4A4F4253092020464F4F44CB
:101A50000A2534642538640A204D41494E54454EC8
:101A6000414E43450A25386420242F730A09454115
:101A7000524E494E47530A25386420242F730A09D1
:101A80004558504F5254530A25386420242F730070
:101A90000A48415050494E4553530A253464202585
:101AA000250A5341464554590A2534642025250A00
:101AB00053504952495455414C4954590A253464AC
:101AC0002025250A454E5649524F4E4D454E540A43
:101AD0002534642025250A000A594F552043414EDC
:101AE0004E4F540A4255494C44204F5645522041CE
:101AF0000A4255494C44494E472E000A594F552039
:101B000043414E4E4F540A4255494C44204F56458E
:101B10005220410A545245452E000A594F5520483B
:101B20004156450A4E4F5420454E4F5547480A4DA1
:101B30004F4E455920544F0A555047524144452E67
:101B4000000A594F5520484156450A4E4F542045EA
:101B50004E4F5547480A4D4F4E455920544F0A4263
:101B600055494C442E00434C454152000000FA199F
:101B7000000401010000005041555345000000FAE7
:101B80001900000101000000555047524144450032
:101B9000FA1900000101000000484F5553450000AC
:101BA00000DA1900050202010010574154455200A5
:101BB0000000C219000A010300010053414C4F4FBD
:101BC0004E00009219083203020001144641524DA2
:101BD00000000000521908140402000A164D494C76
:101BE0004C000000003A19011401030001004D49A6
:101BF0004E4500000000F2181E640303001E00435F
:101C000048555243480000C21801960302020013CF
:101C10005348455249464600A218021402020200E7
:101C20001242414E4B0000000082180432020205AD
:101C30000011535441424C450000321802C80402BE
:101C400004001557454544000000002A1800020111
:101C50000100000043414354555300002218000284
:101C60000101000000545245450000000002180028
:101C70000402020000004853320000000000E21796
:101C800000370202010000424E4B32000000007299
:101C900018049B0203050000535246463200000020
:101CA000C2170278020202000043524332000000D1
:101CB000007A1701FA0303020000534C4E32000071
:101CC0000000321708FA03030001005354424C325B
:101CD000000000D21602C8040304000046524D3230
:101CE00000000000721608DC0403000A0000B000C7
:101CF00000A170E150964F26900F1D070C009669C9
:101D0000004AE44A0048444000806810000F99FBF4
:101D10008F9DBDBBFB77D4D4DF1F1A1AFE7F5D5D9C
:101D2000FF805A0000A0A4AA0010BA3400FF595343
:101D3000F3FF9B9B9EFFB9B996FF9595D19FF494B5
:101D40000FFC295F91FF1838F8FF9294FFFF95D59B
:101D5000F7BFB5DDD7F18F81F1F788C8F779C646AF
:101D60007909FD9B090196F8008281828050716299
:101D7000007756560076763700A2B77301077206D1
:101D8000007827500073347400775176007F55F740
:101D90000047711000324772007364730015A2751A
:101DA0000061679400009F6060F4F2F6F200008822
:101DB000001001990121023203420400004900523F
:101DC00000570062006E0083009300A500AF00C4BE
:101DD00000DC00F700060126014A015D018801B818
:101DE00001EE010B024B02930200D13211241FBEFF
:101DF000CFEFDAE0DEBFCDBF11E0A0E0B1E0E4E676
:101E0000FFE602C005900D92A634B107D9F729E08C
:101E1000A6E4B1E001C01D92A332B207E1F71EE0D3
:101E2000C6EFDEE004C02197FE010E94AA37C53F3D
:101E3000D107C9F70E94C5210C94F3330C9400001C
:101E4000CF93DF931F92CDB7DEB76983DC01ED91AD
:101E5000FC910280F381E02D41E050E0BE016F5F14
:101E60007F4F09950F90DF91CF91089583E0809384
:101E7000E9008091F200882319F08AE38093E8005A
:101E80000895FC018485958597FD0BC09FB7F89454
:101E900082E08093E9008091F2009FBF90E001967C
:101EA00008959FB7F89482E08093E9008091F20052
:101EB0009FBF90E008958091570181110DC082E08D
:101EC0008093530184E08093540110925601109244
:101ED000550181E08093570183E591E00895409199
:101EE00050015091510120914E0130914F01421704
:101EF0005307B4F49091E8009570E1F39091E800F5
:101F000092FD19C08093F100809150019091510190
:101F100001968F739927892B19F48EEF8093E8002F
:101F200080915001909151010196909351018093BD
:101F3000500181E0089580E00895DF92EF92FF92D2
:101F40000F931F93CF93DF93D82E8A017B01E40E6A
:101F5000F51EEB01CE15DF0571F0D7FE03C0FE01C3
:101F6000849101C088810E946F0F21968111F2CF68
:101F70008FEF9FEF01C0C801DF91CF911F910F91AB
:101F8000FF90EF90DF9008950F931F93CF93DF930F
:101F90001F92CDB7DEB782E0898342E450E068E16A
:101FA00071E180E80E949D0F0E945B0FDC01129698
:101FB0000D911C9113970115110589F0D801ED9130
:101FC000FC910280F381E02DBE016F5F7F4FC8015D
:101FD000099597FD04C0F80100851185ECCF898132
:101FE0000F90DF91CF911F910F910895615030F0C4
:101FF0002091F100FC0120830196F8CF289884E617
:10200000809313090895089580914B0108958F924C
:102010009F92AF92BF92CF92DF92EF92FF920F9377
:102020001F93CF93DF936C017B018A0180910B0199
:10203000882309F45CC080911409882309F457C0EF
:1020400080914D0180FF05C08091E0008260809307
:10205000E000E801B12C8AEFA82E93E0892E2AE354
:10206000922E209711F4BB20D9F10E94401D8111BE
:102070000AC0AA94AA20D9F161E070E080E090E063
:102080000E94FD1EEECF282F30E0C217D3070CF4BC
:102090008C2F9FB7F8948092E9002091E80025FFEB
:1020A0001DC0282F30E0C21BD30BF701815020F058
:1020B00041914093F100FACFE20EF31EBB2019F0DC
:1020C0009092E8000AC08091E80085FD07C09092D8
:1020D000E800BB24B394209709F0B12C9FBFC1CF77
:1020E0005D9884E680935F011016110644F081E04C
:1020F00090E0F6019383828380E090E001C0C80104
:10210000DF91CF911F910F91FF90EF90DF90CF90D3
:10211000BF90AF909F908F9008950E94401D90E0D7
:1021200008950F931F93CF93DF931F92CDB7DEB720
:102130008C01FC018485958597FF0EC0CE01019628
:102140000E94121D019719F4898190E002C08FEF5F
:102150009FEFF80195878487F801848595850F9016
:10216000DF91CF911F910F910895CF93DF931F922D
:10217000CDB7DEB7FC018485958597FD05C02FEFAF
:102180003FEF358724870BC0CE0101960E94121DB8
:10219000019719F4898190E002C08FEF9FEF0F90B3
:1021A000DF91CF9108951F920F920FB60F921124D5
:1021B0008F939F938091E1009091E100937F9093A2
:1021C000E10083FF0FC01092E90091E09093EB00D3
:1021D0001092EC0092E39093ED001092140998E0B5
:1021E0009093F00082FF20C093E09093E9009091DB
:1021F000F200992319F09AE39093E80090915F011F
:10220000992339F090915F01915090935F01992348
:1022100089F190911309992339F090911309915004
:1022200090931309992341F184FF10C08091E2003B
:102230008E7E81608093E2008091E1008F7E8093AA
:10224000E10080914D018E7E806111C080FF16C03B
:102250008091E2008E7E80618093E2008091E100B7
:102260008E7E8093E10080914D018E7E816080930F
:102270004D0104C05D9ACDCF289AD6CF9F918F9102
:102280000F900FBE0F901F9018951F920F920FB6D0
:102290000F921124CF92DF92EF92FF920F931F9330
:1022A0002F933F934F935F936F937F938F939F935E
:1022B000AF93BF93EF93FF93CF93DF93CDB7DEB789
:1022C0006C97DEBFCDBF1092E9008091E80083FFDC
:1022D000FBC168E0CE0145960E94F60F82EF809325
:1022E000E8008D8987FF05C09091E80090FFFCCF42
:1022F00003C09EEF9093E800982F907609F0C6C037
:102300009E894F89588D2F89F88C91110CC0803887
:1023100029F480914C018093F10002C01092F100E9
:102320001092F10045C1913051F4811141C1413009
:10233000510509F03DC180914C018D7F0BC0933058
:1023400061F4811135C14130510509F031C18091ED
:102350004C01826080934C012BC1953049F48091EF
:10236000E80080FFFCCF822F80688093E30020C1CB
:10237000963009F05EC00B8D1C8D22E01092E900B2
:102380001092510110925001F21232C010924F017E
:1023900010924E010E94C40F99E0BE016F5F7F4F03
:1023A000DB01E92F1D92EA95E9F79983FA8291E022
:1023B0009E8390EA98879AEF9987209150013091F7
:1023C0005101275F3F4F3C832B838D831092E9009F
:1023D000109251011092500110934F0100934E0141
:1023E00049E050E080E00E949D0F0E94C40FE0C0D1
:1023F00010934F0100934E010E945B0FDC01129677
:102400000D911C9113970115110509F4BBC0D8015A
:10241000ED91FC910480F581E02DBE016B5E7F4F54
:10242000C8010995009709F0C7C0F801008511851A
:10243000EACF973009F445C1983021F481E08093C8
:10244000F100B6C0993009F0B3C0837009F039C10A
:10245000E1E1F1E081E031E096E32081211109C062
:102460008EE78093EA001092EA008F898093140926
:102470009FC08093E9003093EB0021912093EC0002
:102480009093ED008F5F873041F7EACF8B8D9C8D65
:102490001092E900109251011092500190934F0157
:1024A00080934E01898D811153C08E899D89913A07
:1024B00049F4813209F005C147E050E064E071E081
:1024C00080E0BBC0913209F0FCC0833269F48F898F
:1024D000988DA0E0B0E08093000190930101A0935B
:1024E0000201B093030164C0803269F48091E80076
:1024F00082FFFCCF67E084E091E00E94F60F8BEF53
:102500008093E80055C0823209F052C08F898093D1
:102510000B01EEEFFFE7859194918B3F9C4D19F0F5
:10252000E0E0F8E002C0EEEFFAE080910401909163
:102530000501A0910601B0910701803B9440A105DF
:10254000B10509F09EC080910B0180FF79C099C050
:102550000E945B0FFC01028113810115110509F432
:10256000B0C0D801ED91FC910190F081E02DBE0149
:102570006B5E7F4FC801099581111AC0F801008573
:102580001185EBCFF1E0FF1609F44EC0F3E0FF1226
:1025900098C08F89882309F44AC0823089F440E8C2
:1025A0006CE08CE791E10E949C32882309F489C099
:1025B0008EEF8093E80088C018161906CCF381C00E
:1025C000813029F440E86BE080E791E1ECCF833083
:1025D00009F077C00E945B0FDC011296ED90FC9031
:1025E00013978E010F5F1F4F6801E114F10479F01A
:1025F000D701ED91FC910680F781E02DB801C7016C
:102600000995080F111DF701E084F184EECFD80180
:102610001C92F60101900020E9F73197BF016C1977
:102620007D0940E0C601BFCF6EE571E102C06AE5F9
:1026300071E1FB01449150E080E80E949D0FB8CF0A
:10264000EE3F2AE0F20751F0808191818737A7E7BA
:102650009A0721F09093FF0A8093FE0A87E797E795
:102660009183808380916000809352019BE088E198
:102670000FB6F894A895809360000FBE9093600009
:1026800097CF808191818737974709F091CFA8959F
:1026900080916000886180936000809152018093F6
:1026A0006000EE3FBAE0FB0739F08091FE0A90919E
:1026B000FF0A918380837CCF1092FF0A1092FE0A5A
:1026C00077CF81E28093EB006C960FB6F894DEBF73
:1026D0000FBECDBFDF91CF91FF91EF91BF91AF9131
:1026E0009F918F917F916F915F914F913F912F912A
:1026F0001F910F91FF90EF90DF90CF900F900FBE42
:102700000F901F9018950C94603780389105B8F49D
:1027100060347105A0F490E121E061FD24E060FDEA
:10272000220F62FD2295687F969FD0011124A80F89
:10273000AE59BE4F8C91822B40FF82278C93089517
:10274000CF92DF92EF92FF920F93CF93DF936B01C3
:102750007A01E20EF11CEA0157FF02C0C0E0D0E0AE
:10276000C70121E4E216F10414F080E490E0C817F8
:10277000D9073CF4402FBE01C6010E948513219663
:10278000EFCFDF91CF910F91FF90EF90DF90CF903F
:1027900008952D9A0895BC0180E090E00C94FD1EF0
:1027A0008FB18095807F669B88601C9B84600895B4
:1027B00082E090E00E94831381110C94BF210C945D
:1027C000BA21E2E6F1E0A0E0B8E000800EBC8111A1
:1027D000012C1197A0FDFDCF0192B9F70DB408951A
:1027E0000F931F93CF93DF9380E190E00E948313B8
:1027F000082F81E190E00E948313182F82E190E07E
:102800000E948313D82F83E190E00E948313C82F86
:1028100084E190E00E948313982F0C3449F4113422
:1028200039F4D73429F4C03319F481E0903309F036
:1028300080E0DF91CF911F910F91089520916B055A
:10284000282329F490916A05982381E009F480E017
:102850000895EF92FF920F931F93CF93DF93009110
:10286000BF051091C005095F1F4F780191E0F92263
:10287000C0E0D0E071E1A7014C1B5D0B5170DA01A3
:10288000AE59BA4FFD01EE59FF4F9081292F30E02C
:10289000729FF001739FF00D1124EE58F44EE491F5
:1028A0004E0F511DECEFEE16E1E0FE0628F4FA01A2
:1028B000F170EE16FF0618F00417150740F499237F
:1028C00031F043EF490F811108C04230F0F42196F6
:1028D000C430D10581F680E019C0F901EE0FFF1F69
:1028E000E859FA4F21A582A5382F337021153105FB
:1028F00049F021503C4F337021A7232F23708C7F48
:10290000822B82A7AE59BF4F6C93892FDF91CF9155
:102910001F910F91FF90EF9008952091BF05309186
:10292000C005295F3F4F3170E0911A0881E1E89FAF
:10293000F0011124EE58F44E40E050E0849190E014
:102940004817590780F4D901A40FB51FB170AC53D3
:10295000BA4F8C9193EF980F923010F0811107C00D
:102960004F5F5F4FEBCF60E080E00C942914089537
:102970000F931F93CF93DF930091BF051091C00574
:10298000C82F880FDD0B80911A08811104C084E0E4
:102990008093C10512C00E948D148823C1F3209139
:1029A000BF053091C0052C0F3D1F31703093C0051D
:1029B0002093BF050217130731F7DF91CF911F91C5
:1029C0000F910895CF92DF92EF92FF920F931F9392
:1029D000CF93DF9390913A08992319F0853009F04D
:1029E000E1C2D82FC0911A080E94371F00911F081A
:1029F0001091200820912108309122086B017C0160
:102A0000C01AD10AE20AF30A60931F0870932008E3
:102A10008093210890932208D23089F038F4DD2386
:102A200009F4A2C0D13009F4B8C0BCC2D43009F452
:102A3000CCC008F44EC0D53009F4DEC1B3C2209139
:102A40001E082230F1F520E9C21621E0D206E10489
:102A5000F104B8F58C2F90E0019667E170E00E94D8
:102A60008F378D3030F4893030F4833030F0C0E06F
:102A700009C0C9E007C0C3E005C0CDE003C0C11173
:102A80000BC0C6E1EC2FF0E0EE0FFF1FE759FA4F45
:102A900081A582FFF4CF02C0C150F4CF10921F086D
:102AA0001092200810922108109222080EC0C6E150
:102AB000EC2FF0E0EE0FFF1FE759FA4F81A582FDE2
:102AC00004C0CC23A1F3C150F3CFC0931A0882E015
:102AD00026C220911E08233091F580E9C81681E0B6
:102AE000D806E104F10458F5CC2371F0C150C3308D
:102AF00030F0C93030F0CD3030F4CDE005C0C3E067
:102B000003C0C9E001C0C0E027E130E08C2F90E0B5
:102B1000FC01EE0FFF1FE759FA4F41A542FD06C029
:102B20000196B9010E948F37C82FF0CF10921F086D
:102B300010922008109221081092220811C027E15B
:102B400030E08C2F90E00196B9010E948F37C82F9A
:102B5000880F991FFC01E759FA4F81A582FFF1CF39
:102B6000C0931A0883E0DBC120911E08211112C016
:102B700090E9C91691E0D906E104F10458F48FEF09
:102B80000E94B81410921F08109220081092210879
:102B90001092220810921E0805C220911E082130B2
:102BA00091F4E0E9CE16E1E0DE06E104F10458F428
:102BB00081E00E94B81410921F0810922008109211
:102BC00021081092220881E0AAC180911A0811E11F
:102BD000189FE0011124CF58D44EFE012491F5E056
:102BE0002F9F9001112440911B0850911C084217FF
:102BF000530718F481E49BE12AC0823009F06AC0CF
:102C000060E080E00E942914189FC0011124FC019B
:102C1000EA58F44E6491662309F4ECC0C62FD0E064
:102C20001C9FF0011D9FF00D1124EF58F44E2491CC
:102C3000022F10E085E0289F9001112480911B084D
:102C400090911C0882179307B8F48AE19BE19F9347
:102C50008F931F9280E88F938CE398E09F938F93DC
:102C60000E94053481E080933A080F900F900F90F6
:102C70000F900F900F90BEC081E00E942914239600
:102C8000FE01EE0FFF1FEE59FA4F81A522A5922FEC
:102C900093708F3FE3E09E0719F00196937002C096
:102CA00080E090E0CC0FDD1FFE01EE59FA4F81A7C6
:102CB000937082A58C7F892B82A72BEF2003C00104
:102CC000219F900D112420911B0830911C08820F28
:102CD000931F8CC0813019F48093BF088BC0811181
:102CE00005C060E081E00E9429141CC10E948D147F
:102CF0008F3019F48BEF9AE1AACF93EF980F9230AF
:102D000008F410C1882309F40DC188ED9AE19FCF22
:102D1000BA01600F711F71706E597A4FDB01AE59A5
:102D2000BF4FAC91B0E0AA0FBB1FA859BA4F9996FC
:102D30002C9199979A96EC909A973E2D3370211585
:102D4000310569F021503C4F337099962C93999737
:102D500033702E2D2C7FE22EE32A9A96EC92DB0123
:102D6000AE59BF4F1C920F5F1F4F249130E00217E6
:102D7000130770F2FA01EC53FA4FF082FC01EE0FE8
:102D8000FF1FE859FA4F21A542A5342F3370232B9A
:102D900009F4DCC0E0911A08F0E03396DF01AA0FD5
:102DA000BB1FAE59BA4F99968C9199979A962C91D0
:102DB000922F93708F3F23E0920709F4F0C00196A1
:102DC0009370EE0FFF1FEE59FA4F81A7937082A503
:102DD0008C7F892B82A7FE01C49180911B08909162
:102DE0001C08F5E0CF9F80199109112490931C08CD
:102DF00080931B0884E093C080913A08882309F4EB
:102E000047C08091C008882371F18091D5078F93C6
:102E10008091D4078F938091D9071F928F938091CF
:102E2000D8071F928F938091D7071F928F9380911D
:102E3000D6071F928F9380E99AE19F938F931F92F9
:102E400080E88F938CE398E09F938F930E940534E2
:102E50001092C0088DB79EB740960FB6F8949EBFEB
:102E60000FBE8DBF5BC0ECE3F8E001900020E9F7F6
:102E7000CF018D53984020913B0830E02817390747
:102E800018F010923A084AC080E880933B0846C088
:102E900081E08093C00880933A0880E880933B08E3
:102EA0009091D5079F939091D4079F939091D107CC
:102EB0009F939091D0079F939091D3079F93909168
:102EC000D2079F939091CF079F939091CE079F93A6
:102ED0009091CD079F939091CC079F939091C907B4
:102EE0009F939091C8079F939091CB079F93909148
:102EF000CA079F9320E33AE13F932F931F928F934A
:102F00008CE398E09F938F930E940534EDB7FEB752
:102F100074960FB6F894FEBF0FBEEDBF85E08093A8
:102F20001E0840C04091BF055091C005495F5F4FEA
:102F30005170F0901A088F2D90E021E1F29EF0017F
:102F40001124EE58F44E00E010E00FCF21E1289F4D
:102F5000F001299FF00D1124EA58F44EA491B0E03D
:102F6000AA0FBB1FA859BA4F99962C9199979A9678
:102F70004C91342F3370232B09F00CCFFC01EE0F52
:102F8000FF1FEE5FF54E6591749140E850E08CE3D1
:102F900098E00E94F63381E080933A08FBCE80E00F
:102FA00090E00FCFDF91CF911F910F91FF90EF90A5
:102FB000DF90CF9008956115710579F0FB010190C4
:102FC0000020E9F73197AF01461B570BDC01ED916B
:102FD000FC910280F381E02D099480E090E0089557
:102FE0002F923F924F925F926F927F928F929F9219
:102FF000AF92BF92CF92DF92EF92FF920F931F9307
:10300000CF93DF937C016B01C0E0D0E088248394F0
:10301000912C04E010E098EF692E77247A942DEF3C
:10302000A22EBB24BA94842F8470582E842F8270D1
:10303000482E842F8870382E4170242E219682E0ED
:10304000880E911CA80CB91C552091F041E0B801E4
:103050006C0D7D1DC7018C0F9D1F0E94851341E0E3
:10306000B6016C0F7D1FC8018E0D9F1D0E94851338
:10307000442091F041E0B601601B710BC7018C0F39
:103080009D1F0E94851341E0B6016C1B7D0BC8019A
:103090008E0D9F1D0E948513332091F041E0B601F3
:1030A0006C0F7D1FC701801B910B0E94851341E0AF
:1030B000B8016C0D7D1DC7018C1B9D0B0E948513F3
:1030C00021100DC0C017D107ECF4B7FCB7CF0150E9
:1030D000110982E0680E711CA60CB71CAFCF41E04D
:1030E000B6016C1B7D0BC701801B910B0E948513E1
:1030F00041E0B601601B710BC7018C1B9D0B0E9448
:103100008513E0CFDF91CF911F910F91FF90EF904A
:10311000DF90CF90BF90AF909F908F907F906F90F7
:103120005F904F903F902F9008959C01240F311D88
:103130001216130674F5803891055CF597FF02C0EE
:1031400080E090E02138310514F020E830E0281BC1
:10315000AB014770552731E001C0330F4A95EAF7BC
:1031600077FF02C0695F7F4F43E0759567954A9589
:10317000E1F77695762F662777956795860F971FE7
:10318000FC01EE59FE4F215020F08081832B81936A
:10319000FACF08957F928F929F92AF92BF92CF9273
:1031A000DF92EF92FF920F931F93CF93DF934C0127
:1031B000EB017A01722E18EF120F5B0184E0A80E6A
:1031C000B11C4034510528F4412FB701C5010E94BC
:1031D00095186701C00ED11CB601615071096034A9
:1031E000710520F4412FC5010E94951818EF100FAA
:1031F00084E0E80EF11C01E0212FA701BE01C4010B
:103200000E94A013C70DD11DBE0161507109212F6D
:10321000A701C4010E94A01341E0B701C5010E94AB
:10322000F017259742E0B701CE010E94F01785E024
:10323000C81AD10844E0B601CE010E94F01748E058
:10324000B601C501DF91CF911F910F91FF90EF90D3
:10325000DF90CF90BF90AF909F908F907F900C9415
:10326000F0172F923F924F925F926F927F928F92C0
:103270009F92AF92BF92CF92DF92EF92FF920F9305
:103280001F93CF93DF9300D000D01F92CDB7DEB74E
:103290006C015B014A0113E0100F44244394512C4C
:1032A000E12CF12C84E090E09D838C8398EF292E13
:1032B00033243A943DEF632E77247A94922F9170C1
:1032C0009A830F5F098322702B838FEFE81AF80A25
:1032D00092E0490E511C640C751C8A818823D9F038
:1032E0002C81220F9981290F00E0A4018C819D81FE
:1032F000481B590BB5016E0D7F1DC6010E94A0131E
:10330000212FA4014E195F096C817D816A0D7B1DFF
:10331000C6010E94A0139B81911111C08C819D81D7
:10332000E816F9064CF577FC08C001979D838C835D
:1033300092E0290E311C620C731C1E5FC6CF2C81DB
:10334000220F8981280F00E0A4018C819D81481BF8
:10335000590BB5016E197F09C6010E94A013212FD8
:10336000A4014E195F09B5018C819D81681B790B01
:10337000C6010E94A013D2CF0F900F900F900F9014
:103380000F90DF91CF911F910F91FF90EF90DF9001
:10339000CF90BF90AF909F908F907F906F905F90F5
:1033A0004F903F902F9008954F925F926F927F922F
:1033B0008F929F92AF92BF92CF92DF92EF92FF9245
:1033C0000F931F93CF93DF93CDB7DEB7A1970FB6BF
:1033D000F894DEBF0FBECDBF8C016B01770FEE08F6
:1033E000FF08F7FE2FC0DC01ED91FC910190F08108
:1033F000E02D6DE209955C0122273327A9012C19E4
:103400003D094E095F0919A2FE01B1967F019AE0BC
:10341000492E512C612C712CCA01B901A3019201D2
:103420000E942F37605DD7016E937D012115310514
:103430004105510589F7BD01C8010E94DB178A0DBE
:103440009B1D1EC0A701960119A2FE01B1967F0126
:103450008AE0882E912CA12CB12CCA01B901A501BA
:1034600094010E942F37605DD7016E937D01211575
:1034700031054105510589F7BD01C8010E94DB17DF
:10348000A1960FB6F894DEBF0FBECDBFDF91CF91EE
:103490001F910F91FF90EF90DF90CF90BF90AF9072
:1034A0009F908F907F906F905F904F9008952F9294
:1034B0003F924F925F926F927F928F929F92AF92C4
:1034C000BF92CF92DF92EF92FF920F931F93CF9311
:1034D000DF9310E0F801E60FF71FF7FD8EC06038AC
:1034E00071050CF08AC0FA013896E834F10508F04D
:1034F00084C0EA0157FF04C0CC27DD27C41BD50BCD
:103500002E01E7E04E225524DA0157FD1796D3E04D
:10351000B595A795DA95E1F757FF0CC0119748E0EC
:1035200050E0EA01C419D5092E01AE3FDFEFBD0717
:1035300009F463C04D019694982C8824979487943D
:10354000860E971EAD014F5F5F4F5695542F44274F
:1035500057954795460F571FF901821A930A1A018A
:10356000221A330AC8E06C2E712C641875087F018A
:10357000E21AF30AE016F1060CF03FC0603871055C
:1035800009F43BC077FF04C031966F5F7F4FEFCFE8
:10359000AF3F4FEFB40769F1C490EC01A880B98048
:1035A0007401EE0EFF1EEA0CFB1C042C01C0CC0CB7
:1035B0000A94EAF7E701D880CD28C8824114510463
:1035C00019F3A730B10501F3C490EC01A880B980CC
:1035D0007101EE0EFF1EEA0CFB1CD12C062C02C062
:1035E000D594C7940A94E2F7E701D880CD28C88221
:1035F000CBCF4114510441F7C7CFDF91CF911F9139
:103600000F91FF90EF90DF90CF90BF90AF909F9081
:103610008F907F906F905F904F903F902F90089584
:103620002F923F924F925F926F927F928F929F92D2
:10363000AF92BF92CF92DF92EF92FF920F931F93C0
:10364000CF93DF93CDB7DEB72A970FB6F894DEBFDE
:103650000FBECDBF5A01822E912C9401280F391F25
:1036600037FDBAC0803891050CF0B6C09B01200F21
:10367000311D37FDB1C0603471050CF0ADC0AB0138
:1036800077FF04C044275527461B570B4770552723
:103690009B0177FF02C0295F3F4FE3E035952795F7
:1036A000EA95E1F777FF08C02150310968E070E042
:1036B000FB01E41BF50BAF01202E269426942694E3
:1036C000312C077019F0FFEF2F1A3F0A220E331E1C
:1036D00039017694762C662477946794680E791E67
:1036E000E12CF12C00E010E0B30160587F4F7A87A5
:1036F000698768E070E0FB01E41BF50BFA83E9835E
:103700002216330609F468C02830310509F464C074
:103710002F3FFFEF3F070CF454C0E985FA85E00F17
:10372000F11FBF016E597E4F7C836B83D801A60DBC
:10373000B71DAE59BE4F6C0160E070E068157905A9
:103740000CF03FC0E0E8CE16D10409F43AC0D7FC33
:103750002CC02F3FFFEF3F0709F43AC0FB01EE0DED
:10376000FF1DEA0DFB1DE491042E01C0EE0F0A942B
:10377000EAF7FC91EF2BEC9341155105B1F027309E
:10378000310599F0FB01EE0DFF1DEA0DFB1DE491E3
:103790004E2E512C098002C0559447940A94E2F7AA
:1037A000EB81FC815080452840826F5F7F4FEB8129
:1037B000FC813196FC83EB83FFEFCF1ADF0A119671
:1037C000BDCF2F5F3F4F00581F4FE80CF91C98CF1B
:1037D00041155105B9F6E9CF2A960FB6F894DEBF28
:1037E0000FBECDBFDF91CF911F910F91FF90EF9052
:1037F000DF90CF90BF90AF909F908F907F906F9011
:103800005F904F903F902F9008956F927F928F928C
:103810009F92AF92BF92CF92DF92EF92FF920F935F
:103820001F93CF93DF93EE2009F48CC0E02FF0E0DC
:10383000DF01A60FB71FB7FD8BC0603871050CF014
:1038400087C0DA011896A834B10508F081C0EA01F2
:1038500057FF04C0CC27DD27C41BD50BC770DD275D
:10386000DA0157FD179613E0B595A7951A95E1F77C
:1038700057FF0CC0119748E050E08A010C1B1D0B4C
:10388000E801AE3F1FEFB10709F462C06D01D694A5
:10389000DC2CCC24D794C7947D014FEFE41AF40AB2
:1038A000F694FE2CEE24F794E79431973F01620ED4
:1038B000731E2150310948E050E04A018C1A9D0ADC
:1038C0002615370509F444C06038710509F440C075
:1038D00077FF06C0E1E06E1A71086F5F7F4FF0CF8F
:1038E000AF3FFFEFBF0789F1F3014491FC01A080D6
:1038F000B1808B010C0D1D1D0A0D1B1D0C2E01C06E
:10390000440F0A94EAF7F8015081452B4083209731
:1039100009F3A730B105F1F2F3014491FC01A08055
:10392000B1808701060F171F0A0D1B1D50E0082CE0
:1039300002C0559547950A94E2F7F8015081452B4E
:103940004083C8CF0E94571A03C0209729F7C2CFDF
:10395000DF91CF911F910F91FF90EF90DF90CF906B
:10396000BF90AF909F908F907F906F900895EF924F
:10397000FF920F931F93CF93DF93EC0141E065E03B
:1039800070E00E94851341E063E070E0CE010E9488
:1039900085137E018FEFE81AF80A41E064E070E0D9
:1039A000C7010E9485138E010150110941E064E0B6
:1039B00070E0C8010E94851341E064E070E0C70137
:1039C0000E94851341E064E070E0C8010E94851305
:1039D00041E064E070E0C7010E94851341E064E0CB
:1039E00070E0C8010E94851341E065E070E0CE01FF
:1039F0000E94851341E065E070E0CE010E948513CE
:103A000041E063E070E0CE010E94851341E063E095
:103A100070E0CE01DF91CF911F910F91FF90EF9059
:103A20000C94851320911409211103C08FEF9FEF8F
:103A300008955FB7F89422E02093E9002091F20006
:103A400030E01216130614F421E030E0422FFC019E
:103A500084E6415038F02898809313099091F10042
:103A60009193F7CF2115310521F08091F200882341
:103A700019F05FBFC90108958BE68093E800F9CF84
:103A80002FB7F89483E08093E9009091E800892FA4
:103A9000807295FF04C09091F20080E4891B2FBFD3
:103AA0000895CF92DF92EF92FF920F931F93CF93DF
:103AB000DF936C017A018B01C0E0D0E0CE15DF0509
:103AC00081F0D8016D918D01D601ED91FC910190AD
:103AD000F081E02DC6010995892B11F02196EECFDA
:103AE0007E01C701DF91CF911F910F91FF90EF9061
:103AF000DF90CF9008954F925F926F927F928F9256
:103B00009F92AF92BF92CF92DF92EF92FF920F936C
:103B10001F93CF93DF936C013B01102F38E0832E6E
:103B2000912C7A01FF24270193E0559447949A95AC
:103B3000E1F7CA0187709927892B41F5D6011796BD
:103B4000CD91DC911897C3019927BE010E948F3750
:103B50004C9EF0014D9EF00D5C9EF00D11249927B6
:103B6000D60115964D915C9116978E0F9F1FFA0105
:103B7000E80FF91F111106C0C22FC09520812C2318
:103B8000208327C0C081C22BC08323C0C22FD0E0B6
:103B90004770A42EB12C720183E0EE0CFF1C8A95B5
:103BA000E1F79E0101C0220F4A95EAF7012FA70114
:103BB000B301C6010E947B1DC4018A199B0902C082
:103BC000D595C7958A95E2F72C2FA701485F5F4FDF
:103BD000A8CFDF91CF911F910F91FF90EF90DF90D1
:103BE000CF90BF90AF909F908F907F906F905F909D
:103BF0004F9008955F926F927F928F929F92AF92B3
:103C0000BF92CF92DF92EF92FF920F931F93CF93C9
:103C1000DF93EC0189899A8997FD06C02B893C893D
:103C2000821793070CF488C0162F6A3061F48D85D3
:103C30009E859C878B872F898F859889820F911D00
:103C4000988B8F8774C0CB84DC84693031F489E031
:103C5000C80ED11CDC86CB866AC09DEFC9169FEFCB
:103C6000D90654F48E8990E004962B853C85820F0A
:103C7000931F9C878B875BC08F819885C816D90658
:103C80008CF7EF84F8888DEFE8168FEFF80654F381
:103C900089859A85E816F9062CF7603208F41FE743
:103CA00080EE810F9FE9910F9A3118F49FEFE91A86
:103CB000F90A8C3011F08B3119F49FEFE91AF90AE7
:103CC000869594E0899F50011124360184E0680EA6
:103CD000711C46011170F401EC19FD09EA0DFB1D80
:103CE000E351F34E8491111103C08F70582E04C01C
:103CF000582E52948FE058228C81882351F001E095
:103D00008D89811100E02FE0A701B401CE010E944E
:103D10007B1D0D89252DA701B401CE010E947B1DBD
:103D20009FEF891A990A68147904A9F69BCF8B89A9
:103D30009C8901969C8B8B8B81E090E0DF91CF91E9
:103D40001F910F91FF90EF90DF90CF90BF90AF90B9
:103D50009F908F907F906F905F900895089580E07E
:103D600090E008950E947637EF92FF920F931F9391
:103D7000CF93DF938C017B01C0E0D0E0F701EC0F23
:103D8000FD1F6491662361F0D801ED91FC910190D3
:103D9000F081E02DC8010995892B11F02196EECF15
:103DA000CE01DF91CF911F910F91FF90EF90089579
:103DB0003FB7F89480911F0990912009A0912109A3
:103DC000B091220926B5A89B05C02F3F19F0019696
:103DD000A11DB11D3FBFBA2FA92F982F8827820F91
:103DE000911DA11DB11DBC01CD0142E0660F771FE1
:103DF000881F991F4A95D1F708958F929F92AF928D
:103E0000BF92CF92DF92EF92FF926B017C010E94F2
:103E1000D81E4B015C01C114D104E104F104F1F09E
:103E20000E94D81EDC01CB0188199909AA09BB0997
:103E3000883E9340A105B10570F321E0C21AD10874
:103E4000E108F10888EE880E83E0981EA11CB11CE1
:103E5000C114D104E104F10419F7DDCFFF90EF9014
:103E6000DF90CF90BF90AF909F908F9008952FB725
:103E7000F89460911B0970911C0980911D09909123
:103E80001E092FBF08951F920F920FB60F92112493
:103E90002F933F938F939F93AF93BF9380911B0971
:103EA00090911C09A0911D09B0911E0930911A0929
:103EB00023E0230F2D3720F40196A11DB11D05C06D
:103EC00026E8230F0296A11DB11D20931A098093A5
:103ED0001B0990931C09A0931D09B0931E098091A2
:103EE0001F0990912009A0912109B0912209019602
:103EF000A11DB11D80931F0990932009A093210952
:103F0000B0932209BF91AF919F918F913F912F91D3
:103F10000F900FBE0F901F9018952F923F924F92C7
:103F20005F926F927F928F929F92AF92BF92CF9249
:103F3000DF92EF92FF920F931F93CF93DF9300D006
:103F40001F92CDB7DEB78C01262F30E0F3E0359518
:103F50002795FA95E1F7E3E0F0E0C901BF010E947F
:103F60008F373C01C9010196BF010E948F375C0168
:103F7000C9010296BF010E948F37A0E0B3E060E064
:103F800070E020E8422E25E0522E88248394912C64
:103F90008C0E9D1E680C791CA80CB91C880D991DEF
:103FA00020E030E07201EA1AFB0AF80140815181F9
:103FB0001701220E331ECC24C394D12C21153105B8
:103FC00011F4C12CD12C41018C189D086401C40E40
:103FD000D51EF601D080D982F101E40FF51FD08003
:103FE000DA82CC24C394D12C2F37310511F4C12CA3
:103FF000D12CEC0DFD1DE081EB83F3013080F50148
:10400000D080FC01C080E32DE870EE0FF0E8DF9E69
:10401000400111248E2AF32DFF1FFF27FF1F8F2A37
:10402000ED2DE074F0E0689414F8F595E79516949A
:10403000E1F78E2AEC2DE072F0E0F595E795F59525
:10404000E795F595E7958E2AED2DE071F0E0F59571
:10405000E795E829FD2DF470DF2EDD0CDD0CDD0C7D
:10406000ED29FC2DF270CF2EC294CC0CF0EECF22B5
:10407000CE2A6115710519F4EC2DE160CE2E420FA8
:10408000531FFA01EA0FFB1FC0822F5F3F4F2038FA
:10409000310509F08ACF6F5F7F4FA058BF4F623064
:1040A000710509F07DCF0F900F900F90DF91CF91A8
:1040B0001F910F91FF90EF90DF90CF90BF90AF9046
:1040C0009F908F907F906F905F904F903F902F9038
:1040D0000895CF92DF92EF92FF920F931F93CF93A9
:1040E000DF93E0914601F0914701CF010196909353
:1040F000470180934601849181110BC0809171002A
:104100008D7F809371001092910046981092480123
:1041100070C091E090934801E82FEF71F0E0EE0F4E
:10412000FF1FE554F24EC591D491E82FF0E055E021
:10413000F595E7955A95E1F7EE0FFF1FE355F24E1F
:1041400005911491209761F49093150946983FE9E1
:10415000C32E3FE0D32EE12CF12CCAEFD0E014C0E7
:104160006E01E12CF12C60E472E48FE090E0A70195
:1041700096010E94C63669017A0181E0C81AD10809
:10418000E108F10810921509E0916001F0916101D8
:104190000995811103C081E080931509011511056E
:1041A00071F09801DE010E945137DC01CB0129E05A
:1041B000B595A795979587952A95D1F704C081E085
:1041C00090E0A0E0B0E0109290002AE020939100EF
:1041D000D0929900C0929800809316099093170985
:1041E000A0931809B093190980917100826080939F
:1041F0007100DF91CF911F910F91FF90EF90DF90B1
:10420000CF9008951F920F920FB60F9211242F9303
:104210003F934F935F936F937F938F939F93AF934E
:10422000BF93EF93FF938091160990911709A09186
:104230001809B0911909892B8A2B8B2B49F1809190
:104240001509811104C098B180E4892788B980914B
:10425000160990911709A0911809B091190918161B
:1042600019061A061B06B4F48091160990911709D5
:10427000A0911809B09119090197A109B10980937A
:10428000160990931709A0931809B093190902C051
:104290000E946920FF91EF91BF91AF919F918F9103
:1042A0007F916F915F914F913F912F910F900FBE32
:1042B0000F901F901895CF92DF92EF92FF92CF93BD
:1042C000DF93FC01CA01E90170E05081261737072E
:1042D00050F0689F9001699F300D789F300D112438
:1042E0002C173D0728F0543628F55F5F508322C015
:1042F000A4E6B0E00E9451376B017C01252F30E02D
:10430000DE010E945137C616D706E806F90610F4FA
:10431000515050834081A42FB0E011969E010E941D
:10432000A337C616D706E806F90620F0443610F47F
:104330004F5F4083DF91CF91FF90EF90DF90CF9060
:104340000895FF920F931F93CF93DF93EC01F62E06
:1043500008811981C8010E946037F81621F06F2D7D
:10436000C8010E946837CE01DF91CF911F910F9154
:10437000FF90089510924B013E983F9808953E9A01
:104380003F9A81E080934B010895CF93DF93CDB79F
:10439000DEB7A6970FB6F894DEBF0FBECDBF7894F8
:1043A00084B5826084BD84B5816084BD85B582603A
:1043B00085BD85B5816085BD80916E0081608093EB
:1043C0006E00109281008091810082608093810054
:1043D0008091810081608093810080918000816064
:1043E0008093800080919100826080939100809101
:1043F0009100816080939100809190008160809312
:1044000090008091C10084608093C1008091C100C0
:1044100082608093C1008091C10081608093C1005F
:104420008091C30081608093C3008091C00082604E
:104430008093C0008091C20081608093C20080910F
:104440007A00846080937A0080917A008260809301
:104450007A0080917A00816080937A0080917A005E
:10446000806880937A001092140910924C01109287
:104470004D018091D70081608093D70080EA8093BE
:10448000D80089B5806189BD89B5826089BD09B4CC
:1044900000FEFDCF61E070E080E090E00E94FD1E34
:1044A0008091D8008F7C80618093D8008091E0005B
:1044B000807F8093E0008091E1008E7E8093E10018
:1044C0008DE08093E200559A209A809164008E7F5F
:1044D0008093640080917A00806480937A00809158
:1044E0007A0086FDFCCF00917800109179000E943F
:1044F000D81E2091640021602093640020E030E009
:10450000980111270027DC01CB01800F911FA21F0A
:10451000B31F0E94E83381EC80937C0085B1806FEB
:1045200085B984B1877E84B984B1876E84B95E9A77
:104530005F988AB1806D8AB9769A6E9881B3806FE0
:1045400081BB899880B38D7080BB80E58CBD81E094
:104550008DBD85E090E00E94CB135F9A85E090E0EE
:104560000E94CB135E985C98EEE9F6E08BEA96E049
:1045700024912EBD00000DB407FEFDCF31968E179D
:104580009F07B1F75C9A81E8809364008091650091
:1045900081608093650080E00E94E1130E94D01347
:1045A00087FF15C05C9885EA8EBD00000DB407FE3C
:1045B000FDCF5C9A2E982F982D9880916400806290
:1045C0008093640081E083BF889513BEFCCF02E036
:1045D00010E00E94D01382FF42C02D980E94D01399
:1045E0008478843831F00E94D0138471843191F53D
:1045F00019C00E94C91388EC90E00E94CB132F9839
:104600001A8309836FEFCE0101960E94A12184EFE6
:1046100091E00E94CB132F9A0E94D01384788438A3
:10462000D9F3E1CF0E94C91388EC90E00E94CB132C
:104630002E981A83098360E0CE0101960E94A12181
:1046400084EF91E00E94CB132E9A0E94D0138471C4
:104650008431D9F388EC90E00E94CB13BACF0E944A
:10466000C9130E94D81381E090E00E948313182F91
:10467000147081FF3BC011112E9840EFE42EFF24EF
:10468000FA940E94D01386FF05C02E9A2F9A0E949A
:10469000C9132CC0112331F024E0E216F10411F407
:1046A0002E9A2F9881E00E94E11300E128E54EEE5A
:1046B00055E0B70184E190E00E94101B80E00E9469
:1046C000E1138FE090E00E94CB133FEFE31AF30A6F
:1046D00049E1E416F104A9F6112311F02F9A2D985F
:1046E00080E991E00E94CB130E94C91382E390E01D
:1046F0000E94CB130E94D0138111F8CF8FE18093D9
:104700006C050E94D8130E94371F80916D05562FAB
:10471000581B852F90916E05992331F050936F05AA
:1047200010926E050C945C3290916C05591758F4F8
:104730008F5F891710F00C945C3281E083BF8895FD
:1047400013BE0C945C3281E080936E0560936D051E
:104750008091680590916905019690936905809311
:10476000680580916A0580936B050E94D013809341
:104770006A058091480181110DC0809171008D7F83
:10478000809371008CE698E09093470180934601F6
:104790000E9469208091C108823009F4F0C630F48B
:1047A000882359F0813009F41FC2F4C6833009F41C
:1047B000C5C6843009F4E3C6EDC680E80E941E1425
:1047C000882329F18091C208823079F028F4882367
:1047D00051F0813081F01BC08430B1F078F0853029
:1047E000B1F484E012C085E010C00E94F013882369
:1047F00011F081E00AC01092C20809C08091BE0881
:10480000882399F382E001C083E08093C20880E1AD
:104810000E941E14882331F18091C2088230E1F099
:1048200028F4882359F0813079F01CC08430C1F01D
:10483000A8F08530B9F41092C20814C00E94F01399
:10484000882311F081E005C08091BE08882321F003
:1048500082E08093C20806C083E0FBCF84E0F9CFFA
:1048600085E0F7CF80E40E941E14882329F180910F
:10487000C208823079F030F4882351F08130E1F4BD
:1048800084E018C0843041F068F0853071F014C0C5
:1048900083E010C085E00EC00E94F013882311F061
:1048A00081E008C01092C20807C08091BE0888232A
:1048B00099F382E08093C20880E20E941E1488234C
:1048C00029F18091C208823079F030F4882351F0C8
:1048D0008130E1F484E018C0843041F068F0853024
:1048E00071F014C083E010C085E00EC00E94F01388
:1048F000882311F081E008C01092C20807C080919F
:10490000BE08882399F382E08093C20888E00E9461
:104910001E14882309F43EC68091C208823009F42F
:104920001DC160F4882399F0813009F033C6ABE8EB
:10493000EA2EA5E0FA2E08E110E0FEC0843009F46A
:10494000EFC008F4EBC0853009F4ECC023C68091B9
:10495000BE088111FDC01092C0051092BF051092D3
:10496000C1051092C3051092C2051092CB07109298
:10497000CA071092CD071092CC071092D10710925F
:10498000D0071092D3071092D20784E68093D607FF
:104990008093D7078093D8078093D9071092D507C3
:1049A0001092D40783E080931A0887EE93E09093E7
:1049B0001C0880931B0810923C0810923A08109231
:1049C000BD081092BC081092BE081092C00885E085
:1049D00090E09093C5078093C40780E091E09093A6
:1049E000C7078093C607EBE2F8E08AE398E01192EC
:1049F0008E179F07E1F780E090E0FC01EE0FFF1FAC
:104A0000E759FA4F21A52B7F21A7FC01EE0FFF1FCD
:104A1000E859FA4F11A622A52C7F22A701968731CB
:104A2000910559F78091980584608093980580914D
:104A30009405846091E0909393058C7F8093940516
:104A40000E94371F609323087093240880932508E1
:104A5000909326080E94371F6093270870932808B8
:104A60008093290890932A08B4ECEB2EB5E0FB2E36
:104A70001CEFC12EDD24DA941FE00FE08DE0B82E8C
:104A80009EE0A92E0E94E333812369EFC61661E000
:104A9000D60688F4823061F02CF4813061F4F7019D
:104AA000A0820BC085303CF4F701008310E006C003
:104AB000F701B08202C0F70110821FE0FFEFCF1AAA
:104AC000DF0A2FEFE21AF20A3CEFC31631E0D306F9
:104AD000C9F6E091C407F091C507EC53FA4F108274
:104AE000E091C607F091C707EC53FA4F10820AED28
:104AF00017E00E94E3339F70F80191A380A30E9406
:104B0000E3339F70F801819391938F01F7E00A3F9F
:104B10001F0779F781E08093BE081AC082E01BC0AE
:104B200083E019C080914B01882319F00E94BA21BB
:104B300031C50E94BF212EC5C8010E948313F70111
:104B400081937F010F5F1F4F0E34F3E01F07A1F722
:104B50001092BF0881E08093C1081CC580E190E0FD
:104B60009A8389836CE4CE0101960E94A12181E1A0
:104B700090E09A83898361E4CE0101960E94A1218D
:104B800082E190E09A83898367E4CE0101960E94D6
:104B9000A12183E190E09A83898360E3CE010196AD
:104BA0000E94A12184E190E09A83898360E3CE0191
:104BB00001960E94A121FBE8EF2EF5E0FF2E08E10F
:104BC00010E0F701D1907F01C8010E946037D8162C
:104BD00021F06D2DC8010E9468370F5F1F4F0E3402
:104BE000F3E01F0771F7D6C48091BF08882319F03E
:104BF0001092C1081BC02091D0073091D10780913D
:104C0000D2079091D3078217930710F40C94663261
:104C100080911B0890911C088436910510F00C942B
:104C200066321092BE0884E08093C1080E94371F4C
:104C30002B013C0180913A08811156C08091C10539
:104C4000811152C00E94D013182F10720E94D013ED
:104C50008074103259F52091BF053091C005803421
:104C600039F4369527953093C0052093BF053AC097
:104C70002115310539F48FEF91E09093C0058093B1
:104C8000BF0506C0215031093093C0052093BF05F0
:104C900088E08093C1058091C305803210F411E053
:104CA000180F1093C3051092C2051EC08034D1F4B2
:104CB0008091BF059091C005019691709093C005B9
:104CC0008093BF0588E08093C1058091C305803241
:104CD00010F48F5F01C080E28093C30581E0809370
:104CE000C20502C01092C305809123089091240848
:104CF000A0912508B0912608A3019201281B390B29
:104D00004A0B5B0B253631054105510508F442C4B9
:104D10004092230850922408609225087092260839
:104D200074EC872E75E0972E640128EF31E0A0E047
:104D3000B0E001E010E0E12CF12C51E1F6014191ED
:104D40006F01549FC0011124FC01EC58F44EE49112
:104D5000EE0EF11CFC01E059F44EE4910E0F111D12
:104D6000433011F0403191F5C90108971901F8E17C
:104D70002F0E311C8215930550F4BC0171706C53D9
:104D80007A4FFB016081643029F00196F3CF84E013
:104D900090E002C088E090E0B9016215730588F4E4
:104DA0005B01F1E0BF22F501EC53FA4FB080F3EF65
:104DB000BF0EE2E0EB1510F0029603C06F5F7F4F6D
:104DC000ECCF403129F4880F991F02C080E090E0B9
:104DD000A80FB91F2F5F3F4F283FF3E03F0709F0AF
:104DE000ADCFF092D307E092D2071093CD07009396
:104DF000CC07B093CB07A093CA072090BC08309093
:104E0000BD08C101B4ECEB2EB5E0FB2E00E112E0D1
:104E1000AAEFB1E021E030E0C12CD12C46EDA42E68
:104E20004BE1B42EF70141917F01463011F5181680
:104E300019060CF066C0B9016A5E7F4FEBEDFBE12D
:104E40004491C40ED11CF5014491841B9109AD011C
:104E50004017510708F054C0FA01F170EC53FA4FB3
:104E6000E081E43019F42F5D3F4F4BC04F5F5F4F3F
:104E7000EFCF463111F5181619060CF042C0B901F2
:104E8000645D7F4FEBEEFCE14491C40ED11CE6EE75
:104E9000FCE14491841B9109AD014017510780F555
:104EA000FA01F170EC53FA4FE081E43019F42E5B13
:104EB0003F4F27C04F5F5F4FF0CF473011F51816B7
:104EC0001906FCF4B901655F7F4FECEEFBE14491FC
:104ED000C40ED11CE7EEFBE14491841B9109AD01A6
:104EE0004017510768F4FA01F170EC53FA4FE08172
:104EF000E63019F42A5E3F4F04C04F5F5F4FF0CF9A
:104F00009B010F5F1F4F1196AA3FF3E0BF0709F007
:104F100089CF3093CF072093CE0728EF31E000E010
:104F200010E040E050E0F4ECEF2EF9E0FF2EA1E1BC
:104F3000AA2EF401B1904F01FBE0BF1205C06CE353
:104F4000E61A66EFF60A51C071E1B71205C0E8E74C
:104F5000EE1AECEEFE0A49C06CEF6B0D623020F0E9
:104F6000F8E0BF120DC03DC0181619064CF4AB9CFA
:104F7000F0011124EB58F44EE491CE0ED11C35C053
:104F800063EF6B0D633018F44F5F5F4F2EC069E025
:104F9000B6122BC0B901F90178966E177F0728F574
:104FA000DB01B170AC53BA4FAC91B3EFBA0FB23072
:104FB00018F40C5F1F4F12C0AF3019F4085F1F4F79
:104FC0000DC0B5EFBA0FB23018F40051110906C088
:104FD000A53011F0A83011F4005211096F5F7F4F16
:104FE000DCCF181619060CF4C2CFAB9CF0011124CB
:104FF000E059F44EE4918E1B91092F5F3F4F283FFB
:1050000073E0370709F095CFD092D107C092D0074F
:1050100020919B0580919C05382F33708091B905B4
:105020006091BA05962F93704C01880C991C820EE2
:10503000931E2091A3058091A405382F3370809191
:10504000B7056091B805962F93705C01AA0CBB1C44
:10505000A20EB31E2091A5058091A605382F3370AE
:105060008091B5056091B605962F93706C01CC0CBC
:10507000DD1CC20ED31E2091A1058091A205382F00
:1050800033706AE0629FC001639F900D1124841702
:10509000950748F466EF6203C001639F900D1124E9
:1050A000480F591F02C040E050E0910160E189EDD6
:1050B00097E00E945B212091BC083091BD08A401BB
:1050C00068E186ED97E00E945B212091BC08309159
:1050D000BD08C901A0E0B0E0A801012E000C660BDC
:1050E000770B841B950BA60BB70B181619061A061F
:1050F0001B0614F4201B310BA50164E688ED97E034
:105100000E945B212091A7058091A805382F33705C
:1051100055E0220F331F5A95E1F78091BC0890911A
:10512000BD08280F391FA60164E687ED97E00E94AD
:105130005B21E091D9072091D6073E2F2E1708F466
:10514000322F8091D8079091D707482F381708F44D
:10515000432F491750F4381730F4E21710F43E2F5C
:1051600005C0322F03C0382F01C0392F3695369530
:1051700049E1431B5DEF50938000109288004093FB
:105180008A0030938C0030911D083F5F3A3018F44C
:1051900030931D08FFC110921D0860911B0870918B
:1051A0001C084091D0075091D107460F571F6091BE
:1051B000D2077091D3076417750738F4461B570B55
:1051C00050931C0840931B0804C010921C081092B6
:1051D0001B0830E02E0F311D280F311D290F311D06
:1051E00036952795369527954091CA075091CB075C
:1051F000249FC001259F900D349F900D112464E6DB
:1052000070E00E947B378091CC079091CD079B0185
:105210008617970708F49C018091BC089091BD08FF
:105220008217930710F4019607C08230910540F071
:105230002817390728F401979093BD088093BC087C
:105240002091CE073091CF078091BC089091BD0886
:105250002817390720F43093BD082093BC088091AB
:10526000A9054091AA05942F93706AE0689FA00158
:10527000699F500D11246091BB058091BC05782F6A
:105280007370E4E1E69FC001E79F900D11246091E7
:10529000BC087091BD08261B370B840F951F28177B
:1052A000390708F4C9019093D5078093D40720915A
:1052B0001B0830911C08820F931FE816F90628F08E
:1052C00090931C0880931B0804C0F0921C08E09285
:1052D0001B0880913A0881115DC180912708909147
:1052E0002808A0912908B0912A0873016201C81A00
:1052F000D90AEA0AFB0A0E94E333092E000CAA0B22
:10530000BB0B805A9541AF4FBF4F8C159D05AE0525
:10531000BF0508F0B8C04092270850922808609254
:10532000290870922A080E94E33362E070E00E942C
:105330008F378C01009709F050C08091A60582FF3D
:1053400029C18091D707843618F50E94E333609114
:105350001B0870911C08769567950E947B378C011D
:105360001F938F9381E298E09F938F931F9280E821
:105370008F938CE398E09F938F930E9405348DB7B1
:105380009EB708960FB6F8949EBF0FBE8DBF17C08C
:105390001F921F9285ED97E09F938F931F9280E855
:1053A0008F938CE398E09F938F930E940534EDB721
:1053B000FEB738960FB6F894FEBF0FBEEDBF81E082
:1053C00080933A0880911B0890911C08801B910BD8
:1053D00090931C0880931B08DDC0019709F0DAC088
:1053E0008091A40582FFD6C08091D807843620F52D
:1053F0000E94E3336091BC087091BD087695679573
:105400000E947B378C011F938F9389E697E09F93CF
:105410008F931F9280E88F938CE398E09F938F93F4
:105420000E9405342DB73EB7285F3F4F0FB6F89462
:105430003EBF0FBE2DBF19C01F9281E08F9383E244
:1054400097E09F938F931F9280E88F938CE398E06F
:105450009F938F930E9405344DB75EB7485F5F4FAF
:105460000FB6F8945EBF0FBE4DBF81E080933A083F
:105470008091BC089091BD08801B910B9093BD0852
:105480008093BC0887C060911B0870911C08E09055
:10549000BC08F090BD08ABE2B8E047EE56E025E06E
:1054A00037E080E090E01C9111111EC0F901C59019
:1054B000D4906C157D05C8F0FA01C590D490EC1419
:1054C000FD0498F0FC01E852F94FE491F0E0EE0F92
:1054D000FF1FEF56FA4FC080E181E370DE2E11E02E
:1054E000CD2819F410E001C012E01D931130E1F451
:1054F000FC01E753F94FE491F0E0EE0FFF1FE7598D
:10550000FA4F21A5246021A7FC01EE0FFF1FE555EE
:10551000F94F6591749140E850E08CE398E00E9467
:10552000F63310933A0836C001964E5F5F4F2E5FF8
:105530003F4F8F30910509F0B6CF2CC088E00E9414
:105540001E1481110C94983284E00E941E14811163
:105550000C94983280E40E941E14882329F08091D4
:1055600062058F5F8093620580E20E941E1488238B
:1055700089F0809162058150809362050BC088E0BC
:105580000E941E1481110C94953284E00E941E1416
:105590008111CBC780E0E2E6F1E081118FEF0024BA
:1055A00081938193819381930394D1F78091C10872
:1055B000823009F433C730F4882329F1813009F4AB
:1055C000C9C177C7833009F444C7843009F071C773
:1055D00082E090E09093800580937F0590937E0514
:1055E00080937D0510928205109281058FEF9FEFC9
:1055F000909384058093830510928605109285050B
:105600006EE07FE04DC780914A018F5F80934A0131
:1056100000E129E646E450E160E270E08BE090E0D2
:105620000E94101B08E028E04EE350E168E270E0C1
:1056300080E090E00E94101B28E046E350E168E221
:1056400070E088E790E00E94101B06E12EE246E041
:1056500050E062E070E085E695E00E94CA182EE214
:1056600046E050E064E370E085E695E00E94CA18E9
:1056700048E661E070E080E090E00E94951848E61E
:1056800062E070E080E090E00E94951889E090E090
:105690000E94B71C88E290E00E94B71C8BE390E068
:1056A0000E94B71C8AE590E00E94B71C00E120E14F
:1056B00046E150E160E070E088E690E00E94101B57
:1056C00080916305909164058F3F910509F014F472
:1056D000019609C00E94E33391958195910960E09C
:1056E00071E00E948F379093640580936305109159
:1056F0004A01212F30E0A9015595479555954795C9
:105700004F705527287333272A52304F485051097C
:1057100057FF03C0519541955109405E5F4F08E026
:10572000BC0180E795E00E94571A612F669580E7DB
:1057300095E00E948D1F8EE090E09093800580930D
:105740007F0590937E0580937D0589E090E090939E
:105750008205809381058FEF9FEF9093840580935E
:10576000830510928605109285058091BE088823D6
:1057700019F06FEC7FE002C06AEC7FE082E795E011
:105780000E94B41E8EE090E09093800580937F0588
:1057900090937E0580937D058FE090E09093820545
:1057A000809381058FEF9FEF90938405809383050D
:1057B00010928605109285050E94F013882331F01F
:1057C00065EC7FE082E795E00E94B41E8EE090E0F9
:1057D0009093800580937F0590937E0580937D054F
:1057E00085E190E090938205809381058FEF9FEF94
:1057F0009093840580938305109286051092850509
:105800008091BE08882331F060EC7FE082E795E06C
:105810000E94B41E00E410E01093800500937F0501
:1058200010937E0500937D0589E090E090938205BA
:1058300080938105EE24EA94FE2CF0928405E09298
:10584000830510928605109285056AEB7FE082E75A
:1058500095E00E94B41E1093800500937F0510937D
:105860007E0500937D058FE090E090938205809304
:105870008105F0928405E0928305109286051092CE
:10588000850565EB7FE082E795E00E94B41E1093EA
:10589000800500937F0510937E0500937D0585E1CB
:1058A00090E09093820580938105F0928405E092C8
:1058B0008305109286051092850580914B018823FF
:1058C00019F06FEA7FE002C069EA7FE082E795E0C5
:1058D0000E94B41E8091C208823089F160F488234E
:1058E000B9F0813009F0E5C508E028E041EA5FE061
:1058F0006CE070E02AC08430C9F088F0853009F08F
:10590000D8C508E028E041EA5FE062E170E014C039
:1059100008E028E041EA5FE066E070E016C008E0D9
:1059200028E041EA5FE066E070E006C008E028E0B9
:1059300041EA5FE06CE070E087E390E008C008E0D7
:1059400028E041EA5FE062E170E085E090E00E94DB
:10595000101BAFC5109149011F5F10934901809141
:10596000C205811102C08FEF01C081E02091C10505
:10597000829F202D1124A12EB12CC50195958795CC
:105980009595879583709927AC0163E0440F551F67
:105990006A95E1F7BA016152744F1B0174E0880FF8
:1059A000991F7A95E1F7FC01E156F44FFC8BEB8BE4
:1059B0004AED57E05C8F4B8FF12C3A01812C912CF2
:1059C000622F220F770B7E8B6D8B412C55245394C5
:1059D000F301C080D180FFEFCF1ADF0A2FE0D2227F
:1059E000F301C192D1923F0180FE06C020E032E077
:1059F0002C193D09690102C03EEFD31A4F2D4170A9
:105A0000498B8091BF059091C005B3E0880F991F25
:105A1000BA95E1F76D897E89681B790B6C0D7D1D48
:105A20007F70E42E08E0910148E050E080918F05FE
:105A3000909190050E94051C8091A9052091AA05CE
:105A4000922F9370880F991F88169906FCF4809105
:105A5000BF059091C005A3E0880F991FAA95E1F7B3
:105A6000B201681B790B8D899E89680F791F6C0DB7
:105A70007D1D7F70E98800E12B893C8946E250E07A
:105A800080918F05909190050E94051C9FEF891AC7
:105A9000990AF394EF2DE170FE2EF0E18F16910438
:105AA00009F096CF8091BC089091BD08E4E09695EE
:105AB0008795EA95E1F7F82EF0E18F2E881610F41D
:105AC00070E1F72EC501887199279C012158344F48
:105AD00059016AEFC62E67E0D62E912C812C1370E7
