:100000000C945A0A0C94820A0C94820A0C94820A68
:100010000C94820A0C94820A0C94820A0C94820A30
:100020000C94820A0C94820A0C94370C0C94A90C40
:100030000C94820A0C94820A0C94820A0C94820A10
:100040000C94820A0C94820A0C94820A0C94820A00
:100050000C94820A0C94820A0C94820A0C94F21476
:100060000C94820A0C94820A0C94820A0C94820AE0
:100070000C94820A0C94820A0C94820A0C94820AD0
:100080000C94D5150C94820A0C94820A0C94820A62
:100090000C94820A0C94820A0C94820A0C94820AB0
:1000A0000C94820A0C94820A0C94820A0A444F200F
:1000B000594F5520455645520A5245475245540A14
:1000C00043555454494E4720414C4C0A544845200E
:1000D000574545443F0A0A54414B4520534F4D452F
:1000E0000A53454544532E0A000A44494420594FB7
:1000F00055205452590A54484520465255495453A4
:100100000A46524F4D204F55520A4C4F43414C2006
:100110004341435455530A504C414E54533F0A0AED
:100120004E4F5720594F552043414E0A504C414E97
:100130005420594F55520A4F574E210A000A49542C
:10014000275320534F0A5741524D2E2E2E0A0A5044
:100150004C414E542041204645570A545245455380
:1001600020544F0A50524F564944450A534F4D456B
:100170002053484144450A464F52205448450A4CB2
:100180004147554E495449414E53210A000A4556AC
:10019000454E205448450A42455354204F46205569
:1001A000530A4D414B4520534F4D450A4D49535439
:1001B000414B45532E0A0A4E4F5720594F550A437B
:1001C000414E2052454D4F56450A54524545532005
:1001D000414E440A4255494C44494E47532E0A0069
:1001E0000A41532054484520544F574E0A47524F16
:1001F00057532C205448450A434F535420464F52DE
:100200000A494D504F5254494E470A464F4F4420D9
:10021000474554530A50524F424C454D415449436F
:100220002E0A0A4255494C442041204D494C4C0A63
:10023000544F2046454544205448450A4C414755B3
:100240004E495449414E532E0A000A5448455245DE
:10025000204953204E4F0A5350414345204C4546B8
:10026000540A544F2053544F524520414C4C0A5489
:100270004845204D4F4E4559210A0A4255494C44A4
:1002800020412042414E4B0A544F20494E43524593
:10029000415345200A474F4C442053544F52414745
:1002A000450A42592035303030242E0A000A4120B8
:1002B0005052494553540A50415353494E472042E6
:1002C000590A50524F504F53455320594F550A54D5
:1002D0004F20454455434154450A54484520504514
:1002E0004F504C450A494620594F55204255494CDC
:1002F000440A4120534D414C4C0A4348555243480F
:1003000020464F520A48494D2E0A000A54484520BB
:1003100042414E444954530A434F554C4420534D97
:10032000454C4C0A594F5552204D4F4E45590A41A4
:100330004E442054484559204152450A434F4D49A7
:100340004E4720544F0A41535341554C5420544872
:10035000450A42414E4B210A4255494C4420412016
:10036000504F53540A464F52205448450A5348456B
:10037000524946462E0A000A54484520474F4C44ED
:100380000A46455645520A524541434845440A4C9F
:100390004147554E495441210A0A4255494C44208F
:1003A000410A4D494E4520544F0A494E4352455348
:1003B000450A54484520494E434F4D452E0A000AF0
:1003C000544845205155414C4954590A4F462059EB
:1003D0004F555220464F4F440A49532052454E4FE5
:1003E000574E4544210A0A4255494C4420410A537C
:1003F0005441424C4520544F0A4558504F525420C6
:100400005448450A455854524120464F4F442E0AFD
:10041000000A54484520434F57424F59530A41520E
:10042000452047455454494E470A524553544C457C
:1004300053532E0A0A4255494C442041204E4557F9
:100440000A53414C4F4F4E20544F0A454E5445528B
:100450005441494E0A5448454D20414E440A5241A8
:100460004953452054484549520A48415050494E45
:100470004553532E0A000A4D4F52452050454F50C8
:100480004C450A57494C4C204D4F56450A494E2C75
:10049000204946205448450A484F5553455320416A
:1004A00052450A53455256494345440A5749544810
:1004B0002057415445522E0A0A5452592042554958
:1004C0004C44494E470A534F4D45205741544552DD
:1004D0000A544F574552532E0A000A4255494C447C
:1004E0002041204641524D0A544F2047495645204D
:1004F000410A4A4F4220544F205448450A43495428
:10050000495A454E532E0A0A4152524F57205550D0
:100510000A544F205357495443480A4255494C44C2
:10052000494E472E0A000A57454C434F4D4520542B
:100530004F0A4C4147554E4954412C0A4120534DD6
:10054000414C4C204C414B450A494E2054484520D3
:1005500057494C440A57494C4420574553542E0A96
:100560000A4255494C4420534F4D450A484F555374
:10057000455320544F0A494E435245415345205458
:1005800048450A504F50554C4154494F4E2E0A0091
:10059000F0F89C8E8783878E9CF8F00000FEFF03A6
:1005A00003030303070EFCF80000FEFF030303032D
:1005B00003070EFCF80000FFFF0000000000000031
:1005C000FFFF0000FEFF8383838383C7EE7C380038
:1005D00000F8FC0E07030303070EFCF800003F7F42
:1005E000E0C08080C0E07F3FFFFF01010101010109
:1005F00001FFFF0000FFFF0C0C0C0C1C3E77E3C159
:1006000000007FFFC0C0C0C0C0E0703F1F00001FDF
:100610003F70E0C0C0C0E0703F1F00007FFFC1C15D
:10062000C1C1C1E3773E1C00001F3F70E0C0C0C0E5
:10063000E0703F1F000000000001FFFF010000000C
:10064000D5F08D14A1C881CFD9F1AF20000A484F51
:100650005553494E470A2537640A4A4F42532020D2
:1006600020464F4F440A2534642537640A4D4149DA
:100670004E54454E414E43450A25376420242F737E
:100680000A4541524E494E47530A25346420242FCF
:10069000730A4558504F5254530A25346420242F6E
:1006A00073000A48415050494E4553530A2534645B
:1006B0002025250A5341464554590A2534642025EE
:1006C000250A53504952495455414C4954590A2519
:1006D00034642025250A454E5649524F4E4D454E0D
:1006E000540A2534642025250A002605DA047604F8
:1006F0001104BF0377030B03AD024A02E0018D0131
:100700003D01E900AC00010402030A0608070905DF
:10071000000D0C0B01010402030A0608070905007D
:100720000D0C000001000A000F00140019001E004B
:100730002300320064009600C800FA002C0100007B
:100740003200BC0284034C041405DC05D007C40944
:10075000B80BAC0DA00F941188130A4C4147554EAD
:10076000495449414E530A4C4F5645204C4956492D
:100770004E470A494E20594F555220544F574E0A62
:10078000414E4420544845590A4E4556455220464C
:10079000454C540A415320554E49544544210A00C2
:1007A0000A2534642050454F504C450A4C4F535451
:1007B0002046414954480A494E204C4147554E492C
:1007C00054410A414E4420444543494445440A5457
:1007D0004F20464F554E440A5448454952204F57E2
:1007E0004E0A544F574E2E0A4255494C44204D4F05
:1007F00052450A434855524348455320544F0A52E4
:10080000495345204641495448210A000A54484565
:1008100020534845524946460A4D414E41474544BA
:1008200020544F0A50524556454E5420410A4241E9
:100830004E44204F460A42414E44495453204652AA
:100840004F4D0A535445414C494E470A594F555252
:10085000204D4F4E455921000A594F5520484156C9
:10086000450A4245454E20524F42424544210A0A1C
:1008700054484520544849455645530A53544F4C13
:100880004520253464240A0A4255494C44204D4FE2
:1008900052450A534845524946460A504F5354530D
:1008A000210A002F602F602F60502F202F602E60B4
:1008B0004EA02D602D602D6050408F804EA02F6087
:1008C0002F602F60502F202F602E604EA02D602DA6
:1008D000602D6050408F804EA02D604D4C8B8DACB4
:1008E0004AC82D604D4C8B8DAC4AC84780478B89D8
:1008F000C8C04980498D8BCCA02D2E4F26204F2675
:10090000204F2620502F204F24204E24204E24609C
:1009100024204D23204D23204D23205023204F24DD
:100920006024204E246024204F26204F26204F266E
:1009300020502F204F24204E24204E246024204D70
:1009400023204D23204D23205023204F246024209A
:100950004E246024202D2025204D4C4B25204D2554
:10096000204C22604A48226022202D2025204D4C18
:100970004B25204D25204C22604A482260222047EA
:100980002160474B21204941482260226022602299
:1009900020492360494D23204B23204C24602460B0
:1009A00024602D2E2F602F602F60502F202F602E5F
:1009B000604EA04D23204D23204D23205023204F57
:1009C000246024204E246024202F602F602F60504C
:1009D0002F202F602E604EA04D23204D23204D232D
:1009E000205023204F246024204E246024202D20DA
:1009F00025204D4C4B25204D25204C22604A482275
:100A00006022202D2025204D4C4B25204D25204CAB
:100A100022604A4822602220472160474B2120491A
:100A200041482260226022602220492360494D23F0
:100A3000204B23204C2460246024602D2E2F602F17
:100A4000602F60502F202F602E604EA02D602D60F3
:100A50002D6050408F804EA02F602F602F60502F50
:100A6000202F602E604EA02D602D602D6050408F95
:100A7000804EA04B4F4D4B4B4F4D4B484E4D4C482D
:100A80004C4B4A494D4C4B494D4C4B4A4B4C4E4AB2
:100A90004D4E4F4B4F4D4B4B4F4D4B484E4D4C4891
:100AA0004C4B4A49545352495453524A5152534A57
:100AB000545556464E4F51464E4F51444D4E51445B
:100AC0004D4E51434D4E4F43504F4E444E4D4C446E
:100AD0004A4B4C464E4F51464E4F51444D4E514459
:100AE0004D4E51434F5052434F5052445253544431
:100AF00053514E454B4C4D454B4C4D42484B4C424F
:100B0000484B4C454B4C4D454B4C4D42484B4C4251
:100B1000484B4C4147494B4147494B42484A4C425C
:100B2000484A4C43494B4D43494B4D444A4C4E4433
:100B30004E4F500025396450002539642400103090
:100B40007FFF7F3010002040208000401080FFFC9D
:100B5000308448800EFFFFFC300890400EFFFFFC01
:100B6000300122400EFF0000000000000000F048AD
:100B70007C247C48F0000000D23F57920000000027
:100B8000D27FA7020000000022FFA70200000000A1
:100B9000D27FA7020000603010387CBC5C9C1C5CDB
:100BA0007F3F26204000301888783CFC1C1C1C3CF1
:100BB0005E9F27460000301888783C3C1C1C1CDCDB
:100BC0003E1F27468000603010387CBC5C1C9C5C5B
:100BD000BF7F0600000000000B0E1C780E04000012
:100BE000101C78101C080000203030203810000045
:100BF000101C78101C08202020202020434F4E532A
:100C00005452554354204120202020202020200AE7
:100C1000202020202020544F574E2041524F554E27
:100C20004420202020202020200A202020202020B6
:100C3000544845204C4147554E49544120202020DE
:100C40002020200A2020202020204C414B452057E6
:100C5000495448204153202020202020200A2020D1
:100C6000202020204D414E5920434954495A454E99
:100C7000532020202020200A202020202020415303
:100C800020504F5353494C452E2020202020202017
:100C9000200A2020202020204D4158494D495A4506
:100CA00020594F55522020202020200A202020208B
:100CB000202050524F46495420544F2020202020BD
:100CC00020202020200A202020202020554E4C4F7C
:100CD000434B204E45572020202020202020200A52
:100CE0002020202020204255494C44494E47532083
:100CF000414E442020202020200A20202020202097
:100D0000484156452046554E2020202020202020B6
:100D10002020200A202020202020504C4159494EDC
:100D2000472120202020202020202020200A2020B1
:100D300020202020202020202020202020202020B3
:100D4000202020202020200A0020202020202020D9
:100D50002020202020202020202020202020202093
:100D600020200A4C4147554E4954412057415320B9
:100D70004352454154454420425920200A20202016
:100D80002052454E41544F2047524F5454455349E9
:100D90002020202020200A20202020202020202069
:100DA0002020202020202020202020202020202043
:100DB0000A50524F4752414D4D494E472020202066
:100DC000202020202020202020200A202020205207
:100DD000454E41544F2047524F54544553492020CB
:100DE000202020200A202020204755555320534CF6
:100DF000494550454E2020202020202020200A2038
:100E000020202020202020202020202020202020E2
:100E100020202020202020200A4D555349432042E5
:100E20005920202020202020202020202020202089
:100E300020200A202020204A4F414B494D20534971
:100E40004D4F4E53534F4E20202020200A2020206B
:100E50002020202020202020202020202020202092
:100E60002020202020200A20202020202020202098
:100E70002020202020202020202020202020202072
:100E80000A20202020202020202020202020202078
:100E9000202020202020202020200A002020202088
:100EA0002020202020202020202020202020202042
:100EB00020202020200A202020202020554E464F90
:100EC0005254554E4154454C592020202020200A90
:100ED000202020202020594F552052554E204F557C
:100EE0005420202020202020200A202020202020E4
:100EF0004F46204D4F4E45592E20202020202020A7
:100F00002020200A202020202020202020202020F7
:100F1000202020202020202020202020200A2020E7
:100F20002020202052454D454D42455220544F200F
:100F3000202020202020200A20202020202043487C
:100F400045434B20544845202020202020202020AD
:100F5000200A202020202020535441544953544932
:100F600043532020202020202020200A2020202041
:100F700020205748494C4520504C4159494E472064
:100F800020202020200A2020202020202020202077
:100F90002020202020202020202020202020200A67
:100FA00020202020202054525920414741494E21E1
:100FB0002020202020202020200A20202020202047
:100FC0002020202020202020202020202020202021
:100FD0002020200A20202020202020202020202027
:100FE000202020202020202020202020200A007CDB
:100FF000447C7C7C381000415544494F3A204F4690
:101000004600415544494F3A204F4E0048454C5008
:10101000004352454449545300504C4159005245F5
:1010200053554D4500080B0002020201000904005F
:101030000001020200000524001001052401010145
:101040000424020605240600010705810310004060
:1010500009040100020A0000000705020240000026
:10106000070583024000000403090412010002EF97
:1010700002014041233680000101020301417264F4
:1010800075696E6F204C4C430055534220494F20E8
:10109000426F61726400000C1933667CF9FFFE70C8
:1010A0003C3E3319180C000000000080C3FFFFBC59
:1010B0000000000000000C1830FFFF0C0603082998
:1010C00052FE49251000000000000000000080C012
:1010D000A05028140AFF0A142850A0C08000000065
:1010E00000000000000080C0E0A0F090F888FF80C1
:1010F000FF80809C9C9F9C9C8080FF80FF88F89054
:10110000F0A0E0C08000FF80F8F880E0E080FF9968
:10111000E799FF8080808080FF99E799FFA0A0A0D9
:10112000A0A0A0A0FF0030FF160E0546A615A646FB
:10113000050E16FF300000FF808C8C80FC85FC8043
:101140008C8C80FF0000FE25160E0506A675A606EF
:10115000050E1625FE00FF80FE82FE82FE80BEA2E6
:10116000BEA2BE80FF00C0B0ACABACB0C0000000FF
:101170000000000000000000000000000000FF0070
:10118000043E0400FF80808080808080808080809A
:10119000808080800000FF80FC82FC80FF829B8238
:1011A0009B829B829B829B829B829B82FF00000092
:1011B0000080E0FEFCF8F0E0F0F8FFFEFCF8F8FC40
:1011C000FEFCE0000000C0F0FCFFFFFFFFFFFFFFA0
:1011D000FFFFFFFF1F0F1FFFFFFFFFF8E080000171
:1011E0000303030303030301000000F0AEAAAEF003
:1011F00001030301010024A870FC70A82400010071
:10120000F0AFF0000100F04F241B244FF000E0A0ED
:101210005028140A050A142850A0E0A0E0A0E0A07D
:10122000E0A0E0A0E0A0E0C0800000000000FF809F
:1012300080FC8282FC809E929E80FF88F888F888DD
:10124000F888F888F888F889FB8FFE8CF800000091
:1012500000C040C040C078C442C242C478C040C050
:1012600040C000000000FC141C171C171C177C4712
:10127000545754477C171C171C171C14FC00FF8084
:101280009F9191919F80FCAAA9FFA9AAFC808080D0
:101290008F898F80FF00FFC1FF417FC1FF0000FFEA
:1012A000885522FF000000FF885522FF0000FE91B4
:1012B0005E3E111E1E111E1E113E5E91FE00FF803D
:1012C0008F8F80FFA9A9A9FF808F8F80FF0000006A
:1012D000000000000000434C454152000000CE12C7
:1012E000000401010000484F555345000000AE12B4
:1012F00000050202010057415445520000009612B9
:10130000000A0103000153414C4F4F4E00004E12A2
:101310000832030300014641524D000000000E1246
:1013200008140402000A4D494C4C00000000F6115C
:101330000114010300014D494E4500000000AE11AB
:101340001E640303001E43485552434800006611C3
:101350000196030302005348455249464600461190
:1013600002140202020042414E4B0000000026110E
:10137000043202020500535441424C450000C6109D
:1013800002C8040304005745454400000000BE1095
:101390000002010100004341435455530000B610C0
:1013A0000002010100005452454500000000961063
:1013B00000040202000000B00000A170E150964F4E
:1013C00026900F1D070C009669004AE44A00484425
:1013D0004000806810000F99FB8F9DBDBBFB77D448
:1013E000D4DF1F1A1AFE7F5D5DFF805A0000A0A4A3
:1013F000AA0010BA3400FF5953F3FF9B9B9EFFB91C
:10140000B996FF9595D19FF4940FFC295F91FF1831
:1014100038F8FF9294FFFF95D5F7BFB5DDD7F18F70
:1014200081F1F788C8F779C6467909FD9B090196CD
:10143000F80082818280507162007756560076767D
:101440003700A2B773010772060078275000733483
:101450007400775176007F55F700477110003247CE
:1014600072007364730015A2750061679400009F99
:101470006060F4F2F6F20000880010019901210288
:1014800032034204000049005200570062006E001F
:1014900083009300A500AF00C400DC00F700060144
:1014A00026014A015D018801B801EE010B024B02E1
:1014B0009302412611241FBECFEFDAE0DEBFCDBF7D
:1014C00011E0A0E0B1E0E6E1F6E502C005900D9282
:1014D000AC33B107D9F728E0ACE3B1E001C01D920D
:1014E000AB3EB207E1F71AE0CAE5DAE004C02197A3
:1014F000FE010E94032BC935D107C9F70E947F1650
:101500000C944C270C940000CF93DF931F92CDB71F
:10151000DEB76983DC01ED91FC910280F381E02D5F
:1015200041E050E0BE016F5F7F4F09950F90DF9162
:10153000CF91089583E08093E9008091F2008823A1
:1015400019F08AE38093E8000895FC01848595856D
:1015500097FD0BC09FB7F89482E08093E9008091DB
:10156000F2009FBF90E0019608959FB7F89482E043
:101570008093E9008091F2009FBF90E008958091F0
:10158000500181110DC082E080934C0184E0809372
:101590004D0110924F0110924E0181E08093500155
:1015A0008CE491E008954091490150914A012091C5
:1015B00047013091480142175307B4F49091E80075
:1015C0009570E1F39091E80092FD19C08093F100CD
:1015D0008091490190914A0101968F739927892B37
:1015E00019F48EEF8093E8008091490190914A01AF
:1015F000019690934A018093490181E0089580E02B
:101600000895DF92EF92FF920F931F93CF93DF9392
:10161000D82E8A017B01E40EF51EEB01CE15DF0505
:1016200071F0D7FE03C0FE01849101C088810E9441
:10163000D30A21968111F2CF8FEF9FEF01C0C8012D
:10164000DF91CF911F910F91FF90EF90DF90089560
:101650000F931F93CF93DF931F92CDB7DEB782E036
:10166000898342E450E065E270E180E80E94010B6A
:101670000E94BF0ADC0112960D911C91139701156F
:10168000110589F0D801ED91FC910280F381E02DE4
:10169000BE016F5F7F4FC801099597FD04C0F80137
:1016A00000851185ECCF89810F90DF91CF911F913B
:1016B0000F910895615030F02091F100FC012083DA
:1016C0000196F8CF289884E68093590108950895EB
:1016D0008091440108958F929F92AF92BF92CF92D2
:1016E000DF92EF92FF920F931F93CF93DF936C01E2
:1016F0007B018A0180910B01882309F45CC08091F1
:101700005A01882309F457C08091460180FF05C023
:101710008091E00082608093E000E801B12C8AEFC4
:10172000A82E93E0892E2AE3922E209711F4BB2055
:10173000D9F10E94FB1281110AC0AA94AA20D9F102
:1017400061E070E080E090E00E94B814EECF282FB6
:1017500030E0C217D3070CF48C2F9FB7F894809217
:10176000E9002091E80025FF1DC0282F30E0C21BB2
:10177000D30BF701815020F041914093F100FACF53
:10178000E20EF31EBB2019F09092E8000AC080918F
:10179000E80085FD07C09092E800BB24B394209731
:1017A00009F0B12C9FBFC1CF5D9884E680935801AA
:1017B0001016110644F081E090E0F60193838283D5
:1017C00080E090E001C0C801DF91CF911F910F919F
:1017D000FF90EF90DF90CF90BF90AF909F908F9051
:1017E00008950E94FB1290E008950F931F93CF93EA
:1017F000DF931F92CDB7DEB78C01FC018485958500
:1018000097FF0EC0CE0101960E94CD12019719F4E8
:10181000898190E002C08FEF9FEFF8019587848760
:10182000F801848595850F90DF91CF911F910F91DD
:101830000895CF93DF931F92CDB7DEB7FC01848567
:10184000958597FD05C02FEF3FEF358724870BC0A7
:10185000CE0101960E94CD12019719F4898190E082
:1018600002C08FEF9FEF0F90DF91CF9108951F92ED
:101870000F920FB60F9211248F939F938091E100E6
:101880009091E100937F9093E10083FF0FC010924D
:10189000E90091E09093EB001092EC0092E39093BA
:1018A000ED0010925A0198E09093F00082FF20C062
:1018B00093E09093E9009091F200992319F09AE354
:1018C0009093E80090915801992339F09091580134
:1018D000915090935801992389F19091590199233E
:1018E00039F090915901915090935901992341F108
:1018F00084FF10C08091E2008E7E81608093E200C0
:101900008091E1008F7E8093E100809146018E7E80
:10191000806111C080FF16C08091E2008E7E8061E0
:101920008093E2008091E1008E7E8093E1008091BF
:1019300046018E7E81608093460104C05D9ACDCFC2
:10194000289AD6CF9F918F910F900FBE0F901F9026
:1019500018951F920F920FB60F921124CF92DF921B
:10196000EF92FF920F931F932F933F934F935F93A9
:101970006F937F938F939F93AF93BF93EF93FF9357
:10198000CF93DF93CDB7DEB76C97DEBFCDBF10929C
:10199000E9008091E80083FFFBC168E0CE01459635
:1019A0000E945A0B82EF8093E8008D8987FF05C063
:1019B0009091E80090FFFCCF03C09EEF9093E80069
:1019C000982F907609F0C6C09E894F89588D2F892F
:1019D000F88C91110CC0803829F4809145018093D6
:1019E000F10002C01092F1001092F10045C1913057
:1019F00051F4811141C14130510509F03DC180913F
:101A000045018D7F0BC0933061F4811135C14130A8
:101A1000510509F031C180914501826080934501F3
:101A20002BC1953049F48091E80080FFFCCF822FD4
:101A300080688093E30020C1963009F05EC00B8D72
:101A40001C8D22E01092E90010924A011092490187
:101A5000F21232C010924801109247010E94280BE6
:101A600099E0BE016F5F7F4FDB01E92F1D92EA9580
:101A7000E9F79983FA8291E09E8390EA98879AEF3A
:101A800099872091490130914A01275F3F4F3C835C
:101A90002B838D831092E90010924A011092490124
:101AA000109348010093470149E050E080E00E9414
:101AB000010B0E94280BE0C01093480100934701DE
:101AC0000E94BF0ADC0112960D911C91139701151B
:101AD000110509F4BBC0D801ED91FC910480F5819A
:101AE000E02DBE016B5E7F4FC8010995009709F09C
:101AF000C7C0F80100851185EACF973009F445C1C8
:101B0000983021F481E08093F100B6C0993009F05B
:101B1000B3C0837009F039C1E1E1F1E081E031E067
:101B200096E32081211109C08EE78093EA0010928C
:101B3000EA008F8980935A019FC08093E900309317
:101B4000EB0021912093EC009093ED008F5F8730A4
:101B500041F7EACF8B8D9C8D1092E90010924A01DB
:101B6000109249019093480180934701898D81111A
:101B700053C08E899D89913A49F4813209F005C19B
:101B800047E050E064E071E080E0BBC0913209F0D2
:101B9000FCC0833269F48F89988DA0E0B0E0809317
:101BA000000190930101A0930201B093030164C06E
:101BB000803269F48091E80082FFFCCF67E084E026
:101BC00091E00E945A0B8BEF8093E80055C082325F
:101BD00009F052C08F8980930B01EEEFFFE78591EA
:101BE00094918B3F9C4D19F0E0E0F8E002C0EEEFDD
:101BF000FAE08091040190910501A0910601B09155
:101C00000701803B9440A105B10509F09EC0809179
:101C10000B0180FF79C099C00E94BF0AFC010281BC
:101C200013810115110509F4B0C0D801ED91FC91A3
:101C30000190F081E02DBE016B5E7F4FC8010995D8
:101C400081111AC0F80100851185EBCFF1E0FF1674
:101C500009F44EC0F3E0FF1298C08F89882309F47D
:101C60004AC0823089F440E86CE089E890E10E9443
:101C70000C26882309F489C08EEF8093E80088C081
:101C800018161906CCF381C0813029F440E86BE0C6
:101C90008DE790E1ECCF833009F077C00E94BF0A56
:101CA000DC011296ED90FC9013978E010F5F1F4F91
:101CB0006801E114F10479F0D701ED91FC910680FF
:101CC000F781E02DB801C7010995080F111DF70133
:101CD000E084F184EECFD8011C92F601019000203F
:101CE000E9F73197BF016C197D0940E0C601BFCF0C
:101CF0006BE670E102C067E670E1FB01449150E0E1
:101D000080E80E94010BB8CFEE3F2AE0F20751F0C5
:101D1000808191818737A7E79A0721F09093FF0A86
:101D20008093FE0A87E797E7918380838091600024
:101D300080934B019BE088E10FB6F894A8958093BF
:101D400060000FBE9093600097CF808191818737AC
:101D5000974709F091CFA8958091600088618093A2
:101D6000600080914B0180936000EE3FBAE0FB077A
:101D700039F08091FE0A9091FF0A918380837CCF95
:101D80001092FF0A1092FE0A77CF81E28093EB0057
:101D90006C960FB6F894DEBF0FBECDBFDF91CF912A
:101DA000FF91EF91BF91AF919F918F917F916F9133
:101DB0005F914F913F912F911F910F91FF90EF9065
:101DC000DF90CF900F900FBE0F901F901895FC01E1
:101DD0009681962321F48581682381E009F480E0CF
:101DE000089580389105B8F460347105A0F490E14D
:101DF00021E061FD24E060FD220F62FD2295687FF5
:101E0000969FD0011124A80FA35ABE4F8C91822B0C
:101E100040FF82278C9308952D9A0895BC0180E09D
:101E200090E00C94B8148FB18095807F669B886099
:101E30001C9B8460089582E090E00E94B92A811181
:101E40000C9479160C947416EDE5F1E0A0E0B8E07E
:101E500000800EBC8111012C1197A0FDFDCF0192D5
:101E6000B9F70DB40895CF92DF92EF92FF920F93DE
:101E70001F93CF93DF93C0919505D0919605F09075
:101E8000EE079E0190E1F99ED0011124AE51BD4EA6
:101E9000C82E880FDD08FF2009F43FC0B901695F33
:101EA0007F4F717000E010E0AB01401B510B51708F
:101EB000FA01E35AFA4FE5AC80E1E89EF001112403
:101EC000EE51FD4EE4914E0F511D51706417750790
:101ED00030F445EF4E0D423010F0E11026C00F5F98
:101EE0001F4F0430110501F740E050E0FD018491DF
:101EF000E82FF0E04E175F0780F4FB01E40FF51FB9
:101F0000F170E35AFA4FE5ADF5EFFE0FF23010F045
:101F1000E1110BC04F5F5F4FE9CF309396052093DF
:101F2000950584E08093970507C02C0D3D1D317009
:101F3000C217D30709F0AFCFDF91CF911F910F9157
:101F4000FF90EF90DF90CF9008956115710579F0C3
:101F5000FB0101900020E9F73197AF01461B570BB9
:101F6000DC01ED91FC910280F381E02D099480E089
:101F700090E008952F923F924F925F926F927F92DE
:101F80008F929F92AF92BF92CF92DF92EF92FF9289
:101F90000F931F93CF93DF937C016B01C0E0D0E0E0
:101FA00088248394912C04E010E098EF692E772424
:101FB0007A942DEFA22EBB24BA94842F8470582ECD
:101FC000842F8270482E842F8870382E4170242EE2
:101FD000219682E0880E911CA80CB91C552091F026
:101FE00041E0B8016C0D7D1DC7018C0F9D1F0E9443
:101FF000F10E41E0B6016C0F7D1FC8018E0D9F1DD3
:102000000E94F10E442091F041E0B601601B710B7B
:10201000C7018C0F9D1F0E94F10E41E0B6016C1BA1
:102020007D0BC8018E0D9F1D0E94F10E332091F093
:1020300041E0B6016C0F7D1FC701801B910B0E9410
:10204000F10E41E0B8016C0D7D1DC7018C1B9D0B8D
:102050000E94F10E21100DC0C017D107ECF4B7FC9F
:10206000B7CF0150110982E0680E711CA60CB71C95
:10207000AFCF41E0B6016C1B7D0BC701801B910BFC
:102080000E94F10E41E0B601601B710BC7018C1B71
:102090009D0B0E94F10EE0CFDF91CF911F910F9128
:1020A000FF90EF90DF90CF90BF90AF909F908F9078
:1020B0007F906F905F904F903F902F9008959C017C
:1020C000240F311D1216130674F5803891055CF546
:1020D00097FF02C080E090E02138310514F020E83D
:1020E00030E0281BAB014770552731E001C0330FAA
:1020F0004A95EAF777FF02C0695F7F4F43E0759525
:1021000067954A95E1F77695762F662777956795D7
:10211000860F971FFC01E35AFE4F215020F080816B
:10212000832B8193FACF08952F923F924F925F9223
:102130006F927F928F929F92AF92BF92CF92DF92D7
:10214000EF92FF920F931F93CF93DF93CDB7DEB73C
:102150002A970FB6F894DEBF0FBECDBF5A01822E6C
:10216000912C9401280F391F37FDBAC08038910592
:102170000CF0B6C09B01200F311D37FDB1C060349B
:1021800071050CF0ADC0AB0177FF04C044275527A3
:10219000461B570B477055279B0177FF02C0295FED
:1021A0003F4FE3E035952795EA95E1F777FF08C0C3
:1021B0002150310968E070E0FB01E41BF50BAF0131
:1021C000202E269426942694312C077019F0FFEFC8
:1021D0002F1A3F0A220E331E39017694762C66247C
:1021E00077946794680E791EE12CF12C00E010E0E2
:1021F000B30160587F4F7A87698768E070E0FB0120
:10220000E41BF50BFA83E9832216330609F468C050
:102210002830310509F464C02F3FFFEF3F070CF46D
:1022200054C0E985FA85E00FF11FBF01635A7E4F64
:102230007C836B83D801A60DB71DA35ABE4F6C01DA
:1022400060E070E0681579050CF03FC0E0E8CE165C
:10225000D10409F43AC0D7FC2CC02F3FFFEF3F0751
:1022600009F43AC0FB01EE0DFF1DEA0DFB1DE491E0
:10227000042E01C0EE0F0A94EAF7FC91EF2BEC93C9
:1022800041155105B1F02730310599F0FB01EE0DF4
:10229000FF1DEA0DFB1DE4914E2E512C098002C05A
:1022A000559447940A94E2F7EB81FC8150804528CD
:1022B00040826F5F7F4FEB81FC813196FC83EB8323
:1022C000FFEFCF1ADF0A1196BDCF2F5F3F4F0058A7
:1022D0001F4FE80CF91C98CF41155105B9F6E9CF0D
:1022E0002A960FB6F894DEBF0FBECDBFDF91CF9117
:1022F0001F910F91FF90EF90DF90CF90BF90AF9024
:102300009F908F907F906F905F904F903F902F9015
:1023100008956F927F928F929F92AF92BF92CF92C9
:10232000DF92EF92FF920F931F93CF93DF9330E0F2
:10233000002309F48CC0F901E80FF91FF7FD1EC155
:10234000803891050CF01AC1FB013896E834F1058C
:1023500008F014C1EB0177FF04C0CC27DD27C61BB2
:10236000D70BC770DD27DB0177FD1796E3E0B59546
:10237000A795EA95E1F777FF0CC0119768E070E048
:10238000FB01EC1BFD0BEF01AE3FFFEFBF0709F4B4
:10239000F5C08D011695102F0027179507957D0123
:1023A0006FEFE61AF60AF694FE2CEE24F794E79403
:1023B000215031094A01820E931E4150510928E0F3
:1023C00030E02C1B3D0B8416950609F4D7C08038ED
:1023D000910509F4D3C097FF05C0E1E08E1A91087A
:1023E0000196F1CFAF3FFFEFBF0709F4BFC0F40183
:1023F0006491A0908505B09086056801C80ED91E2D
:10240000CA0CDB1C0C2E01C0660F0A94EAF7F60119
:102410007081672B6083209701F3A730B105E9F243
:10242000F4016491A0908505B09086056701C80EFF
:10243000D91ECA0CDB1C70E0022E02C07595679590
:102440000A94E2F7F6017081672B6083C6CFFC0126
:10245000E20FF31FF7FD92C0803891050CF08EC09B
:10246000FB013896E834F10508F088C0EB0177FFEE
:1024700004C0CC27DD27C61BD70B3E01F7E06F2237
:102480007724DB0177FD1796E3E0B595A795EA95EC
:10249000E1F777FF0CC0119768E070E0EB01C61917
:1024A000D7093E01AE3FDFEFBD0709F467C07D01EC
:1024B000F694FE2CEE24F794E794E80EF91E8D01B5
:1024C0000F5F1F4F1695102F002717950795080FC0
:1024D000191FFA01E41AF50A041B150B68E070E0F5
:1024E0004B0186189708BF01641B750B62177307B1
:1024F0000CF044C08038910509F440C097FF03C038
:1025000031960196F0CFAF3F6FEFB60799F1649126
:10251000A0908505B09086056701CE0EDF1ECA0C1F
:10252000DB1C062C01C0660F0A94EAF7E6017881ED
:10253000672B68836114710419F3A730B10501F3A7
:102540006491A0908505B09086056801CE0EDF1ECF
:10255000CA0CDB1C70E0082C02C0759567950A94C4
:10256000E2F7E6017881672B6883CACF209709F0EC
:1025700057CF33CF6114710419F7C2CFDF91CF91D8
:102580001F910F91FF90EF90DF90CF90BF90AF9091
:102590009F908F907F906F90089520915A01211104
:1025A00003C08FEF9FEF08955FB7F89422E0209368
:1025B000E9002091F20030E01216130614F421E035
:1025C00030E0422FFC0184E6415038F02898809397
:1025D00059019091F1009193F7CF2115310521F028
:1025E0008091F200882319F05FBFC90108958BE63E
:1025F0008093E800F9CF2FB7F89483E08093E90047
:102600009091E800892F807295FF04C09091F200AC
:1026100080E4891B2FBF0895CF92DF92EF92FF9243
:102620000F931F93CF93DF936C017A018B01C0E06E
:10263000D0E0CE15DF0581F0D8016D918D01D60176
:10264000ED91FC910190F081E02DC6010995892B57
:1026500011F02196EECF7E01C701DF91CF911F913E
:102660000F91FF90EF90DF90CF9008954F925F927F
:102670006F927F928F929F92AF92BF92CF92DF9292
:10268000EF92FF920F931F93CF93DF936C013B0167
:10269000102F38E0832E912C7A01FF24270193E03C
:1026A000559447949A95E1F7CA0187709927892B29
:1026B00041F5D6011796CD91DC911897C301992762
:1026C000BE010E94E82A4C9EF0014D9EF00D5C9EDA
:1026D000F00D11249927D60115964D915C9116970E
:1026E0008E0F9F1FFA01E80FF91F111106C0C22FAC
:1026F000C09520812C23208327C0C081C22BC0839A
:1027000023C0C22FD0E04770A42EB12C720183E009
:10271000EE0CFF1C8A95E1F79E0101C0220F4A953D
:10272000EAF7012FA701B301C6010E943613C401C5
:102730008A199B0902C0D595C7958A95E2F72C2F77
:10274000A701485F5F4FA8CFDF91CF911F910F91F5
:10275000FF90EF90DF90CF90BF90AF909F908F90C1
:102760007F906F905F904F9008955F926F927F92ED
:102770008F929F92AF92BF92CF92DF92EF92FF9291
:102780000F931F93CF93DF93EC0189899A8997FD6B
:1027900006C02B893C89821793070CF488C0162F3A
:1027A0006A3061F48D859E859C878B872F898F8504
:1027B0009889820F911D988B8F8774C0CB84DC849D
:1027C000693031F489E0C80ED11CDC86CB866AC042
:1027D0009DEFC9169FEFD90654F48E8990E00496B8
:1027E0002B853C85820F931F9C878B875BC08F81D5
:1027F0009885C816D9068CF7EF84F8888DEFE8160F
:102800008FEFF80654F389859A85E816F9062CF7B8
:10281000603208F41FE780EE810F9FE9910F9A3133
:1028200018F49FEFE91AF90A8C3011F08B3119F482
:102830009FEFE91AF90A869594E0899F50011124C7
:10284000360184E0680E711C46011170F401EC1928
:10285000FD09EA0DFB1DEA54FC4E8491111103C0E1
:102860008F70582E04C0582E52948FE058228C81BD
:10287000882351F001E08D89811100E02FE0A7014C
:10288000B401CE010E9436130D89252DA701B40194
:10289000CE010E9436139FEF891A990A68147904B1
:1028A000A9F69BCF8B899C8901969C8B8B8B81E0B1
:1028B00090E0DF91CF911F910F91FF90EF90DF900B
:1028C000CF90BF90AF909F908F907F906F905F90D0
:1028D0000895089580E090E008950E94CF2AEF9235
:1028E000FF920F931F93CF93DF938C017B01C0E086
:1028F000D0E0F701EC0FFD1F6491662361F0D80171
:10290000ED91FC910190F081E02DC8010995892B92
:1029100011F02196EECFCE01DF91CF911F910F9153
:10292000FF90EF9008953FB7F8948091E708909159
:10293000E808A091E908B091EA0826B5A89B05C06F
:102940002F3F19F00196A11DB11D3FBFBA2FA92F2E
:10295000982F8827820F911DA11DB11DBC01CD01AB
:1029600042E0660F771F881F991F4A95D1F7089597
:102970008F929F92AF92BF92CF92DF92EF92FF928F
:102980006B017C010E9493144B015C01C114D104C2
:10299000E104F104F1F00E949314DC01CB018819E9
:1029A0009909AA09BB09883E9340A105B10570F3B6
:1029B00021E0C21AD108E108F10888EE880E83E010
:1029C000981EA11CB11CC114D104E104F10419F733
:1029D000DDCFFF90EF90DF90CF90BF90AF909F90B2
:1029E0008F9008951F920F920FB60F9211242F937C
:1029F0003F938F939F93AF93BF9380913F019091AB
:102A00004001A0914101B09142013091E60823E0DC
:102A1000230F2D3720F40196A11DB11D05C026E816
:102A2000230F0296A11DB11D2093E60880933F015C
:102A300090934001A0934101B09342018091E70837
:102A40009091E808A091E908B091EA080196A11DCB
:102A5000B11D8093E7089093E808A093E908B0932C
:102A6000EA08BF91AF919F918F913F912F910F9065
:102A70000FBE0F901F901895CF92DF92EF92FF92AA
:102A80000F931F93CF93DF93E0913C01F0913D01B1
:102A9000CF01019690933D0180933C018491811177
:102AA0000BC0809171008D7F809371001092910016
:102AB000469810923E0170C091E090933E01E82F3D
:102AC000EF71F0E0EE0FFF1FEC57FB4EC591D49174
:102AD000E82FF0E055E0F595E7955A95E1F7EE0F10
:102AE000FF1FEA58FB4E05911491209761F49093D3
:102AF000E10846983FE9C32E3FE0D32EE12CF12CAC
:102B0000CAEFD0E014C06E01E12CF12C60E472E455
:102B10008FE090E0A70196010E941F2A69017A01C7
:102B200081E0C81AD108E108F1081092E108E091AB
:102B30005B01F0915C010995811103C081E08093F4
:102B4000E1080115110571F09801DE010E94AA2A21
:102B5000DC01CB0129E0B595A795979587952A9536
:102B6000D1F704C081E090E0A0E0B0E010929000C6
:102B70002AE020939100D0929900C092980080930F
:102B8000E2089093E308A093E408B093E5088091ED
:102B90007100826080937100DF91CF911F910F913E
:102BA000FF90EF90DF90CF9008951F920F920FB695
:102BB0000F9211242F933F934F935F936F937F93C3
:102BC0008F939F93AF93BF93EF93FF938091E2080E
:102BD0009091E308A091E408B091E508892B8A2B35
:102BE0008B2B49F18091E108811104C098B180E4F8
:102BF000892788B98091E2089091E308A091E408C0
:102C0000B091E508181619061A061B06B4F480914F
:102C1000E2089091E308A091E408B091E5080197DB
:102C2000A109B1098093E2089093E308A093E40816
:102C3000B093E50802C00E943C15FF91EF91BF914F
:102C4000AF919F918F917F916F915F914F913F9144
:102C50002F910F900FBE0F901F901895CF92DF927B
:102C6000EF92FF92CF93DF93FC01CA01E90170E07C
:102C700050812617370750F0689F9001699F300DEB
:102C8000789F300D11242C173D0728F0543628F575
:102C90005F5F508322C0A4E6B0E00E94AA2A6B01C5
:102CA0007C01252F30E0DE010E94AA2AC616D70635
:102CB000E806F90610F4515050834081A42FB0E08B
:102CC00011969E010E94FC2AC616D706E806F90650
:102CD00020F0443610F44F5F4083DF91CF91FF9096
:102CE000EF90DF90CF900895109244013E983F9866
:102CF00008953E9A3F9A81E0809344010895CF93CE
:102D0000DF93CDB7DEB7E4970FB6F894DEBF0FBE02
:102D1000CDBF789484B5826084BD84B5816084BD64
:102D200085B5826085BD85B5816085BD80916E0069
:102D3000816080936E00109281008091810082609A
:102D400080938100809181008160809381008091D7
:102D500080008160809380008091910082608093E8
:102D6000910080919100816080939100809190000A
:102D70008160809390008091C10084608093C10045
:102D80008091C10082608093C1008091C100816008
:102D90008093C1008091C30081608093C3008091C3
:102DA000C00082608093C0008091C20081608093E7
:102DB000C20080917A00846080937A0080917A00CA
:102DC000826080937A0080917A00816080937A009B
:102DD00080917A00806880937A0010925A01109254
:102DE0004501109246018091D70081608093D70001
:102DF00080EA8093D80089B5806189BD89B58260F9
:102E000089BD09B400FEFDCF61E070E080E090E094
:102E10000E94B8148091D8008F7C80618093D80084
:102E20008091E000807F8093E0008091E1008E7EC1
:102E30008093E1008DE08093E200559A209A81EC26
:102E400080937C0085B1806F85B984B1877E84B919
:102E500084B1876E84B95E9A5F988AB1806D8AB9B1
:102E6000769A6E9881B3806F81BB899880B38D709C
:102E700080BB80E58CBD81E08DBD85E090E00E9447
:102E80000E0F5F9A85E090E00E940E0F5E985C98AE
:102E9000E0E4F6E084918EBD00000DB407FEFDCFA6
:102EA000319626E0ED34F207A9F75C9A81E8809329
:102EB00064008091650081608093650080E00E94DD
:102EC000240F0E94130F87FF24C05C9885EA8EBDF3
:102ED00000000DB407FEFDCF5C9A2E982F982D9818
:102EE0008091640080628093640081E083BF889554
:102EF00013BEFCCF2D980E94130F8478843871F094
:102F00000E94130F8471843131F188EC90E00E94AB
:102F10000E0F0E94130F82FDEDCF3AC00E940C0FDE
:102F200088EC90E00E940E0F2F9882E090E00E94C3
:102F3000B92A8F3F29F06FEF82E090E00E94C12A0A
:102F400084EF91E00E940E0F2F9A0E94130F847855
:102F50008438D9F3D5CF0E940C0F88EC90E00E9402
:102F60000E0F2E9882E090E00E94B92A882329F063
:102F700060E082E090E00E94C12A84EF91E00E942C
:102F80000E0F2E9A0E94130F84718431D9F3BDCF96
:102F90000E940C0F0E941B0F81E090E00E94B92A52
:102FA000182F147081E090E00E94B92A81FF3BC085
:102FB00011112E9830EFE32EFF24FA940E94130F84
:102FC00086FF05C02E9A2F9A0E940C0F2CC0112349
:102FD00031F034E0E316F10411F42E9A2F9881E0D9
:102FE0000E94240F00E128E540E955E0B70184E1A3
:102FF00090E00E94941080E00E94240F8FE090E007
:103000000E940E0F4FEFE41AF40A59E1E516F1049D
:10301000A9F6112311F02F9A2D9880E991E00E94D2
:103020000E0F0E940C0F82E390E00E940E0F0E9490
:10303000130F8111F8CF8FE1809364050E941B0F5D
:103040008FB7F89440913F01509140016091410148
:10305000709142018FBF80916505942F981B892F35
:1030600090916605992331F080936705109266056B
:103070000C94582490916405891758F48F5F891730
:1030800010F00C94582481E083BF889513BE0C94F3
:10309000582481E080936605409365058091600522
:1030A00090916105019690936105809360058091F0
:1030B0006205809363050E94130F809362058091DF
:1030C0003E0181110DC0809171008D7F8093710050
:1030D00083EA98E090933D0180933C010E943C1567
:1030E00080918F08823009F420C530F4882359F08C
:1030F000813009F465C129C5833009F416C58430CF
:1031000009F413C522C560E88DE595E00E94E70E3D
:10311000882399F080919008813049F030F0823016
:1031200049F0833051F482E006C083E004C010927D
:10313000900803C081E08093900860E18DE595E000
:103140000E94E70E8823A1F080919008813051F011
:1031500038F0823059F0833059F41092900808C04A
:1031600081E001C082E08093900802C083E0FBCF41
:1031700068E08DE595E00E94E70E882309F4E5C438
:1031800080919008813009F40BC138F0823009F445
:1031900009C1833009F40AC1D8C480918D08811116
:1031A000FDC0109296051092950510929705109209
:1031B00099051092980510929F0710929E07109201
:1031C000A1071092A0071092A5071092A4071092D1
:1031D000A7071092A60784E68093AA078093AB07FF
:1031E0008093AC078093AD071092A9071092A807AF
:1031F00081E08093EE0787EE93E09093F007809351
:10320000EF0710920B081092090810928C08109288
:103210008B0810928D0810928E0885E090E09093B4
:103220009B0780939A0780E091E090939D0780939D
:103230009C07EBEFF7E01192A8E0E930FA07D9F725
:1032400080E090E0FC01ED59FA4F24A12E7F2D7F04
:1032500024A301968E309105A9F78091880581609D
:103260008260809388052FB7F89480913F019091F8
:103270004001A0914101B09142012FBF8093F3071B
:103280009093F407A093F507B093F6072FB7F8943F
:1032900080913F0190914001A0914101B091420184
:1032A0002FBF8093F7079093F807A093F907B09387
:1032B000FA07809164008E7F8093640080917A0089
:1032C000806480937A0080917A0086FDFCCF009123
:1032D0007800109179000E9493142091640021607D
:1032E0002093640020E030E0980111270027DC01E2
:1032F000CB01800F911FA21FB31F0E9441270DE534
:1033000015E0BFE0FB2E8BE0E82E9DE0D92E2CE0EF
:10331000C22EF80115AE0E943C278F21823071F039
:1033200034F4813069F4D801DD96CC9209C085303F
:103330003CF4D801DD96DC92F12C04C0F801E5AE36
:10334000FFE0FF2E0F5F1F4FB7E00D351B0709F79A
:1033500010929A05E0919A07F0919B07E35AFA4F71
:1033600015AEE0919C07F0919D07E35AFA4F15AE18
:103370000EEA17E00E943C279F70F80191A380A3FA
:103380000E943C279F70D8018D939D938D01B7E0DB
:103390000E3C1B0779F781E080938D0881E003C024
:1033A00082E001C083E080938F08CFC38091440105
:1033B000882319F00E947416C8C30E947916C5C3E9
:1033C0008FB7F89480903F0190904001A090410108
:1033D000B09042018FBF60E280918105909182059B
:1033E0000E94E70E882371F08091F207803239F451
:1033F00080919705882319F08FEF0E94330F80E2A8
:103400008093F20760E480918105909182050E948B
:10341000E70E882371F08091F207803439F48091AF
:103420009705882319F081E00E94330F80E4809390
:10343000F20780910908811156C08091970581118A
:1034400052C00E94130F182F10720E94130F807425
:10345000103259F52091950530919605803439F454
:103460003695279530939605209395053AC02115FA
:10347000310539F48FEF91E090939605809395058F
:1034800006C021503109309396052093950588E0B8
:103490008093970580919905803210F411E0180F00
:1034A00010939905109298051EC08034D1F4809134
:1034B000950590919605019691709093960580934D
:1034C000950588E08093970580919905803210F4E6
:1034D0008F5F01C080E28093990581E08093980519
:1034E00002C0109299058091F3079091F407A09182
:1034F000F507B091F607A5019401281B390B4A0B7B
:103500005B0B253631054105510508F4F4C2809264
:10351000F3079092F407A092F507B092F607109285
:10352000A5071092A4071092A9071092A80741E0DE
:1035300050E05093A3074093A2077AE9472E75E025
:10354000572E820120EF31E061E070E0A0E0B0E0B2
:1035500080E090E0F801F1908F01F0E1FF9EA00182
:103560001124FA01EC51FD4EE491AE0FB11DFA01A8
:10357000E052FD4EE4916E0F711D41E0F41214C053
:103580000496A9017901E0E2EE0EF11C4E155F05EB
:1035900058F4FA01F170E35AFA4FE5ADE23009F45C
:1035A00004964F5F5F4FF2CF2F5F3F4F203FF3E016
:1035B0003F0781F690939F0780939E07B093A707DC
:1035C000A093A6077093A1076093A0075AE9E52E80
:1035D00057E0F52EAAE9B5E041E050E020E030E008
:1035E00065E3662E63E1762E05E213E1DD9064E08B
:1035F000D61207C01816190684F44A5E5F4FF80108
:1036000009C0F5E0DF1209C01816190634F4455F49
:103610005F4FF3016491260F311D60E1D69EF001EA
:103620001124E052FD4EE4918E1B9109EA16FB062F
:10363000E9F65093A3074093A20740E050E0612CC5
:10364000712CC12CD12CE12CF12C04EC19E0D2010D
:103650006D912D01693019F408571C4E0BC067306D
:1036600021F4BFEFEB1AFB0A05C0683019F4EFEF45
:10367000CE1ADE0A7EEF760F723020F0663099F4B3
:103680000C940526181619064CF470E1679FF0019A
:103690001124EB51FD4EE4912E0F311D633019F4CE
:1036A000AFEF6A1A7A0A75EF760F733010F44F5F36
:1036B0005F4FB0E16B9FF0011124E052FD4EE491A9
:1036C0008E1B9109EAE94E16E7E05E0609F0BFCFCE
:1036D0003093A5072093A40720918B0830918C0884
:1036E00060E18DEA97E00E942E1620918B083091C0
:1036F0008C08A30168E18AEA97E00E942E162091C7
:103700008B0830918C08A70164E68CEA97E00E9450
:103710002E1620918B0830918C08A60164E68BEA66
:1037200097E00E942E166091AD072091AA07862F80
:10373000261708F4822F4091AC075091AB07942FC5
:10374000841708F4982F951750F4841730F46217F3
:1037500010F4862F05C0822F03C0842F01C0852F4F
:103760008695869599E1981B3DEF309380001092E5
:10377000880090938A0080938C008091F1078F5F7E
:103780008A3018F48093F107B6C11092F107E091E6
:10379000EF07F091F0078091A4079091A5078E0F95
:1037A0009F1FE091A607F091A707E817F90738F4E3
:1037B0008E1B9F0B9093F0078093EF0704C010922D
:1037C000F0071092EF0730E0260F311D240F311D56
:1037D000250F311D369527953695279540919E07E3
:1037E00050919F07249FC001259F900D349F900DFD
:1037F000112464E670E00E94D42A8091A007909181
:10380000A1079B018617970708F49C0180918B08FC
:1038100090918C088217930710F4019607C08230AC
:10382000910540F02817390728F4019790938C08E8
:1038300080938B088091A2079091A30720918B0819
:1038400030918C088217930720F490938C08809312
:103850008B082091910521FF17C020918B08309192
:103860008C082817390780F4821B930B9093A907C3
:103870008093A8072091EF073091F007820F931FE4
:103880009093F0078093EF078091EF079091F007F6
:103890000817190720F41093F0070093EF078091A1
:1038A0000908811128C18091F7079091F807A0912C
:1038B000F907B091FA0775016401C81AD90AEA0A32
:1038C000FB0A0E943C27092E000CAA0BBB0B805A56
:1038D0009541AF4FBF4F8C159D05AE05BF0508F054
:1038E000B9C08092F7079092F807A092F907B092BA
:1038F000FA070E943C2762E070E00E94E82A8C01EF
:10390000009709F052C080918F0580FFF4C080912C
:10391000AB07843620F50E943C276091EF07709139
:10392000F007769567950E94D42A8C011F938F9398
:1039300088E598E09F938F931F9280E88F938BE0A8
:1039400098E09F938F930E945E272DB73EB7285F24
:103950003F4F0FB6F8943EBF0FBE2DBF18C01F9249
:103960001F928CE098E09F938F931F9280E88F9333
:103970008BE098E09F938F930E945E274DB75EB7D0
:10398000485F5F4F0FB6F8945EBF0FBE4DBF81E03A
:10399000809309088091EF079091F007801B910BAD
:1039A0009093F0078093EF07A6C0019709F0A3C09A
:1039B00080918E0580FF9FC08091AC07843620F5F2
:1039C0000E943C2760918B0870918C0876956795D2
:1039D0000E94D42A8C011F938F9380EA97E09F93D3
:1039E0008F931F9280E88F938BE098E09F938F9343
:1039F0000E945E276DB77EB7685F7F4F0FB6F89461
:103A00007EBF0FBE6DBF18C01F9281E08F938AE505
:103A100097E09F938F931F9280E88F938BE098E0BD
:103A20009F938F930E945E278DB79EB708960FB61F
:103A3000F8949EBF0FBE8DBF81E0809309088091EE
:103A40008B0890918C08801B910B90938C0880932D
:103A50008B0851C06091EF077091F007E0908B08E0
:103A6000F0908C08ABEFB7E042E257E02EE337E08E
:103A700080E090E01C91111117C0F901C590D4901D
:103A80006C157D0590F0FA01C590D490EC14FD04FE
:103A900060F0FC01EC5EF84FE491F0E0E957FA4F7A
:103AA00010811695117001C012E01D931130D1F4F0
:103AB000FC01EA5FF84FE491F0E0ED59FA4F24A1E0
:103AC000216024A3FC01EE0FFF1FE651F94F659121
:103AD000749140E850E08BE098E00E944F271093EB
:103AE000090809C001964E5F5F4F2E5F3F4F8E3031
:103AF000910509F0BFCF6090A4077090A507C09012
:103B0000A607D090A707C614D70408F4DBC6809197
:103B1000EF079091F0078436910508F0D3C684E052
:103B200080938F0810928D0810C068E08DE595E0B5
:103B30000E94E70E81110C94012664E08DE595E06A
:103B40000E94E70E81110C94012680E0EDE5F1E082
:103B500081118FEF0024819381938193819303944A
:103B6000D1F780918F08823009F466C630F488233B
:103B700029F1813009F4D3C098C6833009F477C69F
:103B8000843009F092C682E090E0909376058093AD
:103B900075059093740580937305109278051092C3
:103BA00077058FEF9FEF90937A05809379051092B8
:103BB0007C0510927B056CE97EE073C68AE290E09A
:103BC00090937605809375059093740580937305A3
:103BD00084E190E090937805809377058FEF9FEFD5
:103BE00090937A058093790510927C0510927B055D
:103BF00080918D08882319F06EE170E102C069E1BF
:103C000070E188E695E00E946F14BAE2EB2EF12C89
:103C1000F0927605E0927505F0927405E0927305D6
:103C20008EE190E090937805809377050FEF1FEF7A
:103C300010937A050093790510927C0510927B050C
:103C400061E170E188E695E00E946F14F0927605DC
:103C5000E0927505F0927405E092730588E290E0B9
:103C6000909378058093770510937A0500937905F2
:103C700010927C0510927B056CE070E188E695E07F
:103C80000E946F14F0927605E0927505F09274052B
:103C9000E092730582E390E0909378058093770536
:103CA00010937A050093790510927C0510927B059C
:103CB00080914401882319F062E070E102C067EF4F
:103CC0007FE088E695E00E946F1480919008813033
:103CD000A1F060F08230C1F0833009F0E6C508E061
:103CE00028E04FEE5FE060E370E014C008E028E0F9
:103CF0004FEE5FE062E170E00DC008E028E04FEEBB
:103D00005FE06CE170E006C008E028E04FEE5FE0A5
:103D100066E270E080E290E00E949410C6C51091C7
:103D200043011F5F1093430180919805882311F090
:103D300081E001C08FEF20919705829F202D1124F3
:103D4000C12ED12CC6019595879595958795837041
:103D50009927AC0163E0440F551F6A95E1F7BA015A
:103D60006A52744F1B0174E0880F991F7A95E1F72E
:103D7000DC01AA56B44FB8A7AFA3EEEAAE2EE7E037
:103D8000BE2E512C412C812CF2E09F2EE22F220FCF
:103D9000FF0BFAA7E9A7612C77247394D501ED9066
:103DA000FC90BFEFEB1AFB0AEFE0FE22D501ED928B
:103DB000FD925D0140FE05C0F401EE19FF097F018F
:103DC00002C0FEEFFF1A252D21702DA380919505CD
:103DD0009091960543E0880F991F4A95E1F749A510
:103DE0005AA5481B590BCA018E0D9F1D022F28E0B2
:103DF000A10168E070E09F700E9489118091910597
:103E000081FF1CC0809195059091960533E0880F45
:103E1000991F3A95E1F7B301681B790BCB01A9A56E
:103E2000BAA58A0F9B1F8E0D9F1D0DA120E14FA1EA
:103E300058A566E270E09F700E94891143945394E4
:103E4000B52DB1705B2EE0E14E12A8CF80918B08AA
:103E500090918C0824E0969587952A95E1F7982E05
:103E6000E81710F490E1992EC601887199279C01FA
:103E70002A58344F69010EECE02E07E0F02E812C19
:103E8000712C1370A12C82E0B82E9714C9F1111176
:103E900008C0D7018D919C91119701969F708D93C9
:103EA0009C9370FE08C0F701808191819501281BC9
:103EB000390BC90104C0D7018D919C919E5F082DDB
:103EC00001702091950530919605B3E0220F331FC4
:103ED000BA95E1F7E9A5FAA5E21BF30B8E0F9F1F38
:103EE00028E0A60166E270E09F700E948911739439
:103EF0008394F82DF1708F2E22E0E20EF11CC5CFD5
:103F00008091950590919605A3E0880F991FAA9539
:103F1000E1F749A55AA5841B950B9C0197FF02C0A8
:103F2000215F3F4FB901F4E075956795FA95E1F788
:103F30007EA36DA391958195910960E170E00E9447
:103F4000E82A4C0170E1871A9108DC01A05FBB4FA1
:103F5000BCA7ABA78DA19EA160E470E00E94E82AF7
:103F6000FC01FC5FE4912E2F30E074E0359527953D
:103F70007A95E1F7280D391DEF706E2E712CBCE09B
:103F80006B0E711CEDA1FEA13196FEA3EDA3F0E135
:103F90008F0E911C8DA19EA160E470E00E94E82A22
:103FA000FC01FC5F0491E02EF12CE4E0F594E79431
:103FB000EA95E1F7E80CF91C0F7010E0045F1F4F61
:103FC0005801A618B708B7FE03C0B194A194B10870
:103FD0001701221A330A37FE03C0319421943108A5
:103FE0002A143B0454F0902F812F8701E92EF82EDC
:103FF000962D872D3901292F382F0615170554F0D6
:104000009E2D8F2D7901292F382F902F812F8301FD
:10401000692E782E2301401A510AA9014E195F0911
:1040200058A74FA357FF05C051954195510958A76F
:104030004FA3620157FE03C05FEFC51AD50AD5949E
:10404000C794E216F30614F481E001C08FEF682FE5
:10405000880F770B7EA76DA760167106D4F041E03C
:104060002A143B041CF4B801C70102C0B701C801FF
:104070000E94F10E8FA198A5C81AD90AD7FE06C0D2
:10408000ADA5BEA5EA0EFB1EC40CD51C0F5F1F4FCD
:10409000E3CFEBA5FCA58E169F0609F05BCFE9A444
:1040A000FAA4F8E2EF1AF1085BEF452E55245A9472
:1040B000C0909505D0909605C40CD51C21E0D22265
:1040C00080919A0790919B07C816D90639F0809184
:1040D0009C0790919D07C816D90621F411E04EE681
:1040E0005BE003C010E046E65BE008E028E064E245
:1040F00070E0C7010E949410112321F063E02EE4C8
:104100003BE003C061E026E43BE08091430190E0A6
:10411000959587959595879570E00E94E82A43E0EC
:10412000880F991F4A95E1F7A901480F591F08E028
:1041300028E068E270E0C7010E949410F601E35A9B
:10414000FA4F25AD40E1249F90011124F901E2527C
:10415000FD4E85919491F901EE51FD4E6490F90167
:10416000ED51FD4E2491E62DEE0FEE0FEE0F6DB7E3
:104170007EB77EA76DA76E2E712CA701460D571D29
:1041800057FD3FC170E8E716F1040CF03AC144E076
:1041900050E0421B5109440F440F440F4A5F403422
:1041A00008F02FC150E0DA0113E0B595A7951A95F4
:1041B000E1F7BAA7A9A72F71422F50E058AB4FA73C
:1041C0006DB77EB7661977090FB6F8947EBF0FBE3C
:1041D0006DBFADB7BEB71196B8A7AFA3EDB7FEB729
:1041E000118232969D01260D371DE217F30779F4EF
:1041F00029A53AA53695322F2227379527951901FB
:104200002E0C3F1C9EA38DA349A55AA51DC011923B
:10421000ECCF4830510509F4ECC0C10180589F4FE4
:104220009CA78BA7AFA1B8A5570120E030E02615C9
:104230003705ACF04F5F5F4F2DA13EA1260D371D16
:104240003EA32DA32BA43CA4CA0129A53AA5821BF9
:10425000930B6FA578A986179707DCF2CAC090E880
:10426000A916B10439F3B7FCBDC06DA17EA1620FE0
:10427000731F7CAB6BABFB018491F0E48F9FC0019B
:10428000112489AB6C918101020F131F611103C0CE
:1042900066E070E02CC06091850570918605600F26
:1042A000711FFB0190819F739083609185057091D0
:1042B0008605060F171FF8019081892B808334C073
:1042C0008FEF9AA98923F6018083882039F18C9297
:1042D0008091850590918605800F911FFC01D0800B
:1042E0009D2890826F5F7F4F6C307105E9F081E00F
:1042F00090E0062E01C0880F0A94EAF799A8982248
:10430000C0908505D0908605C00ED11EF601F081C3
:10431000FAAB8C908820A1F28095D3CF8824839427
:104320009110D5CF812CD3CF4730510509F45AC015
:10433000EBA9FCA98491E82FF0E04F0195948794B4
:1043400095948794C82C8C910BA51CA5020F131F64
:10435000811103C060E070E039C0809185059091C3
:104360008605800F911FFC016081607C60838091D5
:10437000850590918605080F191FF801808188290D
:10438000808330C081E090E0062E01C0880F0A943F
:10439000EAF7DC2CD822E0918505F0918605E00F44
:1043A000F11F80809C909920A9F0809588218083BE
:1043B000992091F09C92E0918505F0918605E00F9F
:1043C000F11F8081D82AD0826F5F7F4F66307105E0
:1043D000C9F608C08FEFEACF99249394D110EACFA1
:1043E000912CE8CF2F5F3F4F1196FFEFAF1ABF0A16
:1043F0001ECF4DA55EA50FB6F8945EBF0FBE4DBF94
:1044000007C06DA57EA50FB6F8947EBF0FBE6DBF29
:104410007FEF471A570A88E0E80EF11C91E1491630
:10442000510409F045CEE090EE0717E0A0E1EA9EC6
:1044300070011124F701EE51FD4E6F01F601249138
:1044400030E02A5F3F4F812F90E0281739077CF03A
:1044500008E028E04EE35BE060E070E0E3E0880F16
:10446000991FEA95E1F70E9494101F5FE7CFE09152
:104470008305F09184051686158614861386108AA6
:104480001786CC24CA94DC2CD28AC18A148A138A57
:10449000B7016A527D4ECF010E946F1400918305CF
:1044A00010918405D8011E961C921E921D971C9691
:1044B0001C921E921B9785E090E050969C938E93E1
:1044C0001F975296DC92CE92519754961C921E9250
:1044D0005397F701EF51FD4EE491B5E0EB9FF001EA
:1044E00011249F01FF0F440B550B19A26E01E1E24D
:1044F000CE0ED11CCA01B9012AE030E040E050E004
:104500000E94882A605DD6016E936D0121153105E8
:104510004105510579F7BD01C8010E94A50F8091A1
:10452000F0078F938091EF078F9389E39BE09F9330
:104530008F931F9210E1B12EBF928E010F5F1F4F1C
:104540001F930F930E945E27E0918305F0918405ED
:104550008EE4E82EF12CF686E586F486E386108A52
:104560001786CC24CA94DC2CD28AC18A148A138A76
:10457000B801CF010E94A50F80918C088F93809184
:104580008B088F9384E39BE09F938F931F92BF923E
:104590001F930F930E945E27E0918305F09184059D
:1045A000F686E586F486E38685E090E0908B878743
:1045B000D28AC18A148A138AB801CF010E94A50F3A
:1045C000EDB7FEB770960FB6F894FEBF0FBEEDBF05
:1045D00020E030E0C12C43E0D42EA90143525C4FCF
:1045E0007A018601021B130B035A1E4FE0E0F0E034
:1045F000A7014D55514081E090E0309711F480E0E3
:1046000090E0DA01A81BB90BA35ABE4F8C918AA384
:10461000D7018D917D018BA381E090E0EF37F1050B
:1046200011F480E090E0435A5E4FDA01A80FB91F01
:104630008C918CA3A0904301B12C83E0B594A794F6
:104640008A95E1F7C50163E070E00E94E82AA2E2E2
:10465000B0E0AC0FBD1FA80FB91F9C90C50101961B
:1046600063E070E00E94E82AA2E2B0E0AC0FBD1F58
:10467000A80FB91F4C91C501029663E070E00E943B
:10468000E82AA2E2B0E0AC0FBD1FA80FB91F5C91F1
:10469000892D8870A82FAA0FB0E84B9FC001112464
:1046A0008A2B991C9924991C8929A42FA074B0E005
:1046B00095E0B595A7959A95E1F78A2B652F6072DD
:1046C00070E0A3E075956795AA95E1F7682B842FB4
:1046D000807190E095958795862B4470440F440F28
:1046E000440F482B52705295550F507E452BD801E0
:1046F0004D938D013196E038F10509F079CF2058BE
:1047000031092115BFEF3B0709F067CF80910908F8
:10471000882309F47BC000E210E0E12CF12C40E09A
:10472000B701C8010E94F10EEFEFEE1AFE0AF0E4A5
:10473000EF16F104A1F70F5F1F4F0036110569F75F
:1047400048E360E070E084E290E00E945F1048E39C
:104750006FE370E084E290E00E945F1004E010E0FC
:1047600041E0B80180E290E00E94F10E0F5F1F4F20
:104770000C331105A9F704E010E041E0B8018FE522
:1047800090E00E94F10E0F5F1F4F0C331105A9F747
:1047900041E064E070E084E290E00E94BA0F42E001
:1047A00064E070E08BE590E00E94BA0F44E06BE3B8
:1047B00070E08BE590E00E94BA0F48E06BE370E098
:1047C00084E290E00E94BA0F80910A0890E0E091A4
:1047D0008305F091840523E230E03687258734870E
:1047E000238723E030E0308B2787928B818B148ADC
:1047F000138A6BE078E0CF010E94A50F80910A0830
:1048000087FD06C08F5F80930A0802C010920A08D5
:1048100080919705882309F448C0909199059830B4
:1048200020F0903220F492E003C091E001C094E0C7
:10483000891B8093970539C082E090E090937605BC
:104840008093750590937405809373051092780595
:10485000109277058FEF9FEF90937A0580937905FB
:1048600010927C0510927B0569E47DE01AC082E01D
:1048700090E09093760580937505909374058093EE
:10488000730510927805109277058FEF9FEF909344
:104890007A058093790510927C0510927B0566EF6E
:1048A0007BE088E695E00E946F1480E00E94240F70
:1048B00080E090E0892B11F40C9420180E940000F5
:1048C0000C94201860E88DE595E00E94E70E88239F
:1048D00021F080919705882341F060E18DE595E016
:1048E0000E94E70E8823D1F015C08091090881113C
:1048F000F4CF8091EE07882311F0815001C08DE044
:10490000E82FF0E0ED59FA4F94A190FFF4CF809397
:10491000EE07E3CF80919705882349F068E08DE5A5
:1049200095E00E94E70E882309F4D2C019C0809157
:1049300009088111F3CF9091EE072EE030E0892F26
:1049400090E00196B9010E94E82AAC01982FFA0183
:10495000ED59FA4F84A180FFF2CF4093EE07DECFEE
:10496000809197058111B4C0809109088111B0C070
:10497000B090EE070091EF071091F0074B2D50E03B
:10498000BA0184E0660F771F8A95E1F7DB01AF512A
:10499000BD4E7D01FD018491F5E08F9FC001112482
:1049A0000817190708F494C0809195059091960511
:1049B00007969170B11025C0A0E0B0E09C012A1BC1
:1049C0003B0B3170F901E35AFA4F4F01A5ACF0E10E
:1049D000AF9E20011124F201EE51FD4EE4912E0F05
:1049E000311D31708217930710F4F40115AE119642
:1049F000A430B10519F720E030E0FB01EE51FD4E87
:104A000042C0AA24A394A0E0B0E09C012A1B3B0B67
:104A10003170F901E35AFA4F95ACF0E19F9E200105
:104A20001124F201EE51FD4EE4912E0F311D317033
:104A30008217930730F425EF290D223010F09110E2
:104A4000A12C1196A430B10501F720E030E0FB0164
:104A5000EE51FD4EA491B0E02A173B0788F4DC012B
:104A6000A20FB31FB170A35ABA4FDD96AC91B5EF48
:104A7000BA0FB23010F0A111A12C2F5F3F4FEACF37
:104A8000A110B9CF25C0649170E02617370758F4FC
:104A9000DC01A20FB31FB170A35ABA4FDD961C926E
:104AA0002F5F3F4FF0CFFC01E35AFA4FB5AEFA014A
:104AB000ED59FA4F84A1826084A3F701E490F5E0F8
:104AC000EF9E0019110911241093F0070093EF07CE
:104AD00064E08DE595E00E94E70E882311F40C94C4
:104AE000A51D8091970581110C94A51D8091090841
:104AF000882309F44BC080918E08882381F180912E
:104B0000A9078F938091A8078F938091AD071F927B
:104B10008F938091AC071F928F938091AB071F9268
:104B20008F938091AA071F928F9382EA96E09F93BA
:104B30008F931F9280E88F938BE098E09F938F93E1
:104B40000E945E2710928E082DB73EB7205F3F4F20
:104B50000FB6F8943EBF0FBE2DBF0C94A51DEBE021
:104B6000F8E001900020E9F7CF018C5098402091A7
:104B70000A0830E02817390720F0109209080C9431
:104B8000A51D80E880930A080C94A51D81E0809300
:104B90008E088093090880E880930A089091A907FD
:104BA0009F939091A8079F937F926F92DF92CF92ED
:104BB0009091A3079F939091A2079F939091A10733
:104BC0009F939091A0079F9390919F079F9390919F
:104BD0009E079F932DE436E03F932F931F928F9370
:104BE0008BE098E09F938F930E945E274DB75EB74E
:104BF0004E5E5F4F0FB6F8945EBF0FBE4DBF0C9474
:104C0000A51D10928F080C94A51D1816190614F4F2
:104C10000C94451B0C94531BDF92EF92FF920F9361
:104C20001F93CF93DF93D82EF92EE42E062F10E09A
:104C3000C8010196880F0E94D30A83E00E94D30A1C
:104C4000CD2DDF2D0C0F1D1FC017D10789F0E7FEFA
:104C500003C0FE01849101C088810E94D30AF82E0E
:104C600080E00E94D30A8F2121968111EDCF01C0EF
:104C700081E0DF91CF911F910F91FF90EF90DF9036
:104C80000895CF93DF93E1E9F8E01382128288EE72
:104C900093E0A0E0B0E084839583A683B7838BE1A3
:104CA00091E0918380834FEF5FEF55874487EDE577
:104CB000F5E089E391E0918380831582168280E19B
:104CC0008783148213821186168615868DE291E001
:104CD000948783872DE531E0318B208B80E890E04D
:104CE000938B828B80E490E0958B848B85E082A30C
:104CF00081E081A3118E108E138E128E178A168A70
:104D0000558F448F178E168E80A3178648E65BE07A
:104D100050935C0140935B0146983E9AF5A3E4A34F
:104D200048E655E057A346A331A720A79EE0A7E891
:104D3000B5E0ED01292F19922A95E9F711AE10AED1
:104D400012AE13AE14AE20E032E0EAE9F5E0DF0186
:104D5000E9011D922197E9F710929B0710929A079B
:104D600010929D0710929C078093EE0727EE33E088
:104D70003093F0072093EF071092F1071092F2079B
:104D80001092F3071092F4071092F5071092F607AD
:104D90001092F7071092F8071092F9071092FA078D
:104DA000EBEFF7E0DF011D929A95E9F71092090801
:104DB00010920A0880E8EBE0F8E0EF0119928A957A
:104DC000E9F710928C0810928B0810928D081092BF
:104DD0008E0810928F0810929008DF91CF9108955D
:104DE0008F929F92AF92BF92CF92DF92EF92FF92FB
:104DF000CF93DF93EC01688179818A819B81611572
:104E000071058105910521F464E279ED8BE597E068
:104E10002DE133EF41E050E00E941F2A49015A0181
:104E20009B01AC01A7EAB1E40E943E2A6B017C0120
:104E3000ACEEB4EFA50194010E944C2ADC01CB0139
:104E40008C0D9D1DAE1DBF1DB7FF03C00197A109AD
:104E5000B04888839983AA83BB839F77DF91CF91E2
:104E6000FF90EF90DF90CF90BF90AF909F908F908A
:104E700008950E94F02608958CE091E00E94F026AB
:104E80000895A0E0B0E080930C0190930D01A093F1
:104E90000E01B0930F010895F8940C94092BFB01B7
:104EA000DC014150504048F005900D920020C9F7B8
:104EB00001C01D9241505040E0F70895AEE0B0E0CF
:104EC000E4E6F7E20C945F2A0D891E898F89988D9C
:104ED0002EE02C831A83098397FF02C080E090E8BC
:104EE00001979E838D83AE01455E5F4F698D7A8DFC
:104EF000CE0101960E948E274D815E8157FD0AC02A
:104F00002F813885421753070CF49A01F801E20FFC
:104F1000F31F10822E96E4E00C947B2AABE0B0E005
:104F2000E4E9F7E20C94512A6C017B018A01FC014F
:104F300017821682838181FFCCC1CE0101963C018C
:104F4000F6019381F70193FD859193FF81917F0194
:104F5000882309F4BAC1853239F493FD859193FF12
:104F600081917F01853229F4B60190E00E94852964
:104F7000E7CF912C212C312CFFE1F315D8F08B32A7
:104F800079F038F4803279F08332A1F4232D206156
:104F90001DC08D3261F0803369F4232D216016C06D
:104FA000832D8260382EE32DE4603E2E2AC0F32D3F
:104FB000F8601DC037FC2DC020ED280F2A3040F0CE
:104FC0008E32B9F436FC81C1232D2064322E19C0F3
:104FD00036FE06C08AE0989E200D1124922E11C044
:104FE000EAE02E9E200D1124222EF32DF0623F2E9A
:104FF00008C08C3621F4832D8068382E02C0883694
:1050000041F4F70193FD859193FF81917F01811117
:10501000B3CF982F9F7D9554933028F40C5F1F4F8A
:105020009FE399830DC0833631F0833771F0833568
:1050300009F059C021C0F801808189830E5F1F4F9C
:1050400088248394912C530113C02801F2E04F0E61
:10505000511CF801A080B18036FE03C0692D70E0BC
:1050600002C06FEF7FEFC5010E947A294C018201D7
:10507000F32DFF773F2E16C0280122E0420E511C6F
:10508000F801A080B18036FE03C0692D70E002C037
:105090006FEF7FEFC5010E946F294C01F32DF0687F
:1050A0003F2E820133FC1BC0822D90E088169906AA
:1050B000B0F4B60180E290E00E9485292A94F4CFF2
:1050C000F50137FC859137FE81915F01B60190E0D3
:1050D0000E94852921102A9421E0821A91088114C6
:1050E000910471F7E8C0843611F0893641F5F80172
:1050F00037FE07C060817181828193810C5F1F4FF1
:1051000008C060817181072E000C880B990B0E5F1F
:105110001F4FF32DFF763F2E97FF09C09095809586
:10512000709561957F4F8F4F9F4FF0683F2E2AE01B
:1051300030E0A3010E94C129882E861845C085371A
:1051400031F4232D2F7EB22E2AE030E025C0932D9E
:10515000997FB92E8F36C1F018F4883579F0B5C033
:10516000803719F0883721F0B0C0E92FE061BE2EFA
:10517000B4FE0DC0FB2DF460BF2E09C034FE0AC082
:10518000292F2660B22E06C028E030E005C020E1BD
:1051900030E002C020E132E0F801B7FE07C06081D4
:1051A0007181828193810C5F1F4F06C06081718184
:1051B00080E090E00E5F1F4FA3010E94C129882E5E
:1051C0008618FB2DFF773F2E36FE0DC0232D2E7F38
:1051D000A22E891458F434FE0BC032FC09C0832D72
:1051E0008E7EA82E05C0B82CA32C03C0B82C01C0FD
:1051F000B92CA4FE0FC0FE01E80DF11D80818033A3
:1052000021F49A2D997EA92E09C0A2FE06C0B3945E
:10521000B39404C08A2D867809F0B394A3FC11C01E
:10522000A0FE06C0B21488F4280C922C9B180EC065
:10523000B21460F4B60180E290E00E948529B39434
:10524000F7CFB21418F42B1802C0982C212CA4FE0E
:1052500010C0B60180E390E00E948529A2FE17C02D
:10526000A1FC03C088E790E002C088E590E0B601A9
:105270000CC08A2D867859F0A1FE02C08BE201C0D5
:1052800080E2A7FC8DE2B60190E00E948529891496
:1052900038F4B60180E390E00E9485299A94F7CF14
:1052A0008A94F301E80DF11D8081B60190E00E941F
:1052B00085298110F5CF222009F442CEB60180E283
:1052C00090E00E9485292A94F6CFF6018681978185
:1052D00002C08FEF9FEF2B96E2E10C946D2AFC0148
:1052E0000590615070400110D8F7809590958E0F11
:1052F0009F1F0895FC016150704001900110D8F784
:10530000809590958E0F9F1F08950F931F93CF93B5
:10531000DF93FB01238121FD03C08FEF9FEF2CC0A2
:1053200022FF16C0468157812481358142175307D9
:1053300044F4A081B1819D012F5F3F4F31832083D1
:105340008C93268137812F5F3F4F3783268314C08C
:105350008B01EC01FB010084F185E02D0995892B7F
:10536000E1F6D80116968D919C91179701961796A4
:105370009C938E931697CE01DF91CF911F910F9141
:105380000895FA01AA27283051F1203181F1E894DB
:105390006F936E7F6E5F7F4F8F4F9F4FAF4FB1E028
:1053A0003ED0B4E03CD0670F781F891F9A1FA11D23
:1053B000680F791F8A1F911DA11D6A0F711D811D24
:1053C000911DA11D20D009F468943F912AE0269FE9
:1053D00011243019305D3193DEF6CF010895462F48
:1053E0004770405D4193B3E00FD0C9F7F6CF462F29
:1053F0004F70405D4A3318F0495D31FD4052419392
:1054000002D0A9F7EACFB4E0A6959795879577954E
:105410006795BA95C9F700976105710508959B01D5
:10542000AC010A2E06945795479537952795BA955E
:10543000C9F7620F731F841F951FA01D0895052EC5
:1054400097FB1EF400940E94362A57FD07D00E9455
:10545000882A07FC03D04EF40C94362A50954095C8
:10546000309521953F4F4F4F5F4F08959095809510
:10547000709561957F4F8F4F9F4F08950E94AA2A84
:10548000A59F900DB49F900DA49F800D911D112498
:105490000895B7FF0C943E2A0E943E2A821B930B6C
:1054A00008952F923F924F925F926F927F928F92C8
:1054B0009F92AF92BF92CF92DF92EF92FF920F93A3
:1054C0001F93CF93DF93CDB7DEB7CA1BDB0B0FB6AD
:1054D000F894DEBF0FBECDBF09942A88398848886A
:1054E0005F846E847D848C849B84AA84B984C88400
:1054F000DF80EE80FD800C811B81AA81B981CE0FF7
:10550000D11D0FB6F894DEBF0FBECDBFED010895DB
:10551000A1E21A2EAA1BBB1BFD010DC0AA1FBB1FB7
:10552000EE1FFF1FA217B307E407F50720F0A21B29
:10553000B30BE40BF50B661F771F881F991F1A9496
:1055400069F760957095809590959B01AC01BD01C0
:10555000CF010895A29FB001B39FC001A39F700D1A
:10556000811D1124911DB29F700D811D1124911D6B
:105570000895F999FECF92BD81BDF89A992780B51B
:105580000895262FF999FECF1FBA92BD81BD20BD87
:105590000FB6F894FA9AF99A0FBE0196089581E031
:1055A00090E0F8940C94092BAA1BBB1B51E107C097
:1055B000AA1FBB1FA617B70710F0A61BB70B881FA3
:1055C000991F5A95A9F780959095BC01CD01089532
:1055D00097FB072E16F4009407D077FD09D00E94A0
:1055E000D42A07FC05D03EF4909581959F4F0895ED
:1055F000709561957F4F08950E94AA2AB7FF08957C
:10560000821B930B0895EE0FFF1F0590F491E02D80
:065610000994F894FFCF9D
:10561600FFFFFFFF00E100000000000001000000A6
:1056260000C1808100000000000000840A6B0BF1BD
:105636000B9A0AA50A190CF50B00000000B5130C0D
:0C564600136A14691400000000670B00D8
:00000001FF
