:100000000C94A80F0C94D00F0C94D00F0C94D00F1C
:100010000C94D00F0C94D00F0C94D00F0C94D00FE4
:100020000C94D00F0C94D00F0C9485110C94F711F4
:100030000C94D00F0C94D00F0C94D00F0C94D00FC4
:100040000C94D00F0C94B11A0C94D00F0C94D00FC8
:100050000C94D00F0C94D00F0C94D00F0C945A1A0F
:100060000C94D00F0C94D00F0C94D00F0C94D00F94
:100070000C94D00F0C94D00F0C94D00F0C94D00F84
:100080000C94B11B0C94D00F0C94D00F0C94D00F87
:100090000C94D00F0C94D00F0C94D00F0C94D00F64
:1000A0000C94D00F0C94D00F0C94D00FF0F89C8EC1
:1000B0008783878E9CF8F00000FEFF030303030391
:1000C000070EFCF80000FEFF0303030303070EFC0A
:1000D000F80000FFFF00000000000000FFFF00002C
:1000E000FEFF8383838383C7EE7C380000F8FC0E19
:1000F00007030303070EFCF800003F7FE0C0808089
:10010000C0E07F3FFFFF01010101010101FFFF008E
:1001100000FFFF0C0C0C0C1C3E77E3C100007FFFBE
:10012000C0C0C0C0C0E0703F1F00001F3F70E0C0F3
:10013000C0C0E0703F1F00007FFFC1C1C1C1C1E36B
:10014000773E1C00001F3F70E0C0C0C0E0703F1F42
:10015000000000000001FFFF01000000D5F08D1439
:10016000A1C881CFD9F1AF200090340088800199D7
:1001700090340088800199903400888001999035EE
:1001800001109034008880008890340088800199A4
:1001900090320088800199903201108003329030B3
:1001A0000088800199903000888001999030008803
:1001B0008001999035011080011090340221800255
:1001C0002190320110800332903400888001999090
:1001D000340088800199903400888001999035011D
:1001E00010903400888000889034008880019990B5
:1001F00032008880019990320110800332903000E3
:100200008880019990300088800199903000888022
:100210000199903501108001109034022180022153
:100220009032011080033290300088800199903024
:100230000110902F0110902D022190300221902F5B
:100240000332902B011090280442903000888001E6
:100250009990300110902F0110902D0221903002C2
:1002600021902F0332902B01109028044291268078
:10027000011081022190260110902D022190290267
:10028000219028044280044290290110800221908C
:1002900029011090300221902D0221902F044280DC
:1002A00003329030008890320088913480011090A1
:1002B0002481008880008890340110902400888078
:1002C00000889034011090240088800088903501C7
:1002D000109034008880008890340110901F0088AE
:1002E00080008890320110901F0088800088903232
:1002F0000110901F0088800199901F00888000885D
:1003000090300110901D008880008890300110907E
:100310001D008880008890300110901D00888000AA
:100320008890350110901D0088800088903401105D
:10033000901F0088800199901F008880008890326B
:100340000110901F0088800199901F00888000880C
:10035000903401109024008880008890340110901F
:100360002400888000889034011090240088800048
:1003700088903501109034008880008890340110F6
:10038000901F008880008890320110901F008880A4
:10039000008890320110901F0088800199901F0002
:1003A0008880008890300110901D0088800088901F
:1003B000300110901D008880008890300110901D41
:1003C000008880008890350110901D00888000888A
:1003D00090340110901F0088800199901F00888040
:1003E000008890320110901F0088800199901F00B2
:1003F0008880008890300088800088902100888064
:10040000008890300110902F0110902D0110902144
:10041000008880008890300110902100888000883A
:10042000902F0110901C0088800199902B01109052
:10043000280110901C0088800199901C0088800081
:100440008890300088800088902100888000889003
:10045000300110902F0110902D0110902100888004
:1004600000889030011090210088800088902F0132
:1004700010901C0088800199902B01109028011089
:10048000901C0088800199901C008880008890262C
:100490000110901A008880019990260110902D017A
:1004A00010901A008880008890290110901A01107D
:1004B00090280110901C0088800199901C00888071
:1004C0000199901C0088800199901C008880008808
:1004D00090290110901D00888001999029011090A9
:1004E000300110901D0088800088902D0110901D13
:1004F0000088800088902F0110901F00888001994B
:10050000901F0088800199901F0088800199903089
:10051000008890320088913480008881019990345D
:1005200000888001999034008880019990350110ED
:10053000903400888000889034008880019990323F
:1005400000888001999032011080033290300110B0
:10055000901D008880008890300110901D008880D8
:10056000008890300110901D00888000889035012F
:1005700010901D008880008890340110901F008822
:10058000800199901F008880008890320110901F90
:100590000088800199901F0088800088903400882E
:1005A00080019990340088800199903400888001FE
:1005B000999035011090340088800088903400882C
:1005C0008001999032008880019990320110800357
:1005D0003290300110901D0088800088903001100A
:1005E000901D008880008890300110901D00888048
:1005F000008890350110901D00888000889034019B
:1006000010901F0088800199901F008880008890BA
:10061000320110901F0088800199901F008880008F
:100620008890300088800088902100888000889021
:10063000300110902F0110902D0110902100888022
:1006400000889030011090210088800088902F0150
:1006500010901C0088800199902B011090280110A7
:10066000901C0088800199901C0088800088903040
:1006700000888000889021008880008890300110D8
:10068000902F0110902D01109021008880008890FB
:1006900030011090210088800088902F0110901C5C
:1006A0000088800199902B011090280110901C0067
:1006B00088800199901C0088800088902601109005
:1006C0001A008880019990260110902D0110901A2F
:1006D000008880008890290110901A01109028014C
:1006E00010901C0088800199901C008880019990CE
:1006F0001C0088800199901C008880008890290146
:1007000010901D00888001999029011090300110EF
:10071000901D0088800088902D0110901D00888019
:100720000088902F0110901F0088800199901F0071
:1007300088800199901F00888001999030008890EE
:10074000320088913480008881019990340088803B
:1007500001999034008880019990350110903400FF
:1007600088800088903400888001999032008880C9
:1007700001999032011080033290300088800199F5
:1007800090300088800199903000888001999035E0
:10079000011080011090340221800221903201105A
:1007A0008003329034008880019990340088800161
:1007B0009990340088800199903501109034008818
:1007C00080008890340088800199903200888001F0
:1007D0009990320110800332903000888001999006
:1007E000300088800199903000888001999035010F
:1007F000108001109034022180022190320110807B
:100800000332902D01109034011090300110902D82
:100810000110902D01109034011090300110902D96
:100820000110902801109032011090300110902F8B
:10083000011090280110902F0110902D0110902B85
:1008400001109029011090300110902F0110902D6F
:1008500001109029011090300110902F0110902D5F
:100860000110902B0110902D0110902F011090324B
:100870000110902B01109030011090320110903433
:100880000110912D800110903481011090300110E1
:10089000902D0110902D0110903401109030011016
:1008A000902D01109028011090320110903001100D
:1008B000902F011090280110902F0110902D011001
:1008C000902B011090290110903C0110903B0110D9
:1008D0009039011090290110903C0110903B0110BB
:1008E00090390110902B01109037011090390110B0
:1008F000903B0110902B0110903C0110903E011094
:1009000090400110912480011090328101109034A8
:100910000110903701109024011090320110903492
:10092000011090370110901F01109030011090328B
:10093000011090370110901F01109030011090327B
:10094000011090370110901D01109030011090326D
:10095000011090340110901D011090350110903459
:10096000011090320110901F011090320110903050
:100970000110902F0110901F0110902B0110902D4D
:100980000110902F011091248001109032810110EC
:100990009034011090370110902401109032011012
:1009A0009034011090370110901F01109030011009
:1009B0009032011090370110901F011090300110FB
:1009C0009032011090370110901D011090340110E9
:1009D0009035011090390110901D011090340110D4
:1009E0009035011090390110901F011090390110BD
:1009F000903B0110903C0110901F0110903B0110A2
:100A000090370110903201109121800110902D81BA
:100A10000110902F01109030011090210110902DA5
:100A20000110902F011090300110901C011090289F
:100A30000110902D0110902F0110901C0110902892
:100A40000110902D0110902F011090210110902D78
:100A50000110902F01109030011090210110902D65
:100A60000110902F011090300110901C011090285F
:100A70000110902D0110902F0110901C0110902852
:100A80000110902D0110902F0110911A80011090EB
:100A90002681011090290110902D0110901A01104B
:100AA0009026011090290110902D0110901C01102A
:100AB00090280110902B0110902F0110901C011014
:100AC00090280110902B0110902F0110901D011003
:100AD00090290110902D011090300110901D0110EF
:100AE00090290110902D011090300110901F0110DD
:100AF000902B0110902F011090320110901F0110C7
:100B000090320110903401109035011080F0434C68
:100B10004541520000005745454400000000434154
:100B20004354555300005452454500000000484FBF
:100B30005553450000004D494E4500000000434814
:100B400055524348000053484552494646004241E9
:100B50004E4B0000000057415445520000005341E5
:100B60004C4F4F4E00004D494C4C00000000464198
:100B7000524D0000000010307FFF7F301000242213
:100B80001122110912241212211122121424000020
:100B9000D23F579200000000D27FA7020000000061
:100BA00022FFA70200000000D27FA7020000000081
:100BB0000B0E1C780E040000101C78101C0800009E
:100BC0002030302038100000101C78101C08202025
:100BD00020202020434F4E5354525543542041204F
:100BE000202020202020200A202020202020544FB8
:100BF000574E2041524F554E442020202020202087
:100C0000200A202020202020544845204C414755D0
:100C10004E495441202020202020200A202020203E
:100C200020204C414B452057495448204153202017
:100C300020202020200A2020202020204D414E5915
:100C400020434954495A454E532020202020200A51
:100C5000202020202020415320504F5353494C4501
:100C60002E20202020202020200A2020202020208C
:100C70004D4158494D495A4520594F555220202041
:100C80002020200A20202020202050524F46495466
:100C900020544F202020202020202020200A202007
:100CA00020202020554E4C4F434B204E45572020AE
:100CB000202020202020200A2020202020204255F3
:100CC000494C44494E475320414E44202020202087
:100CD000200A202020202020484156452046554EFD
:100CE00020202020202020202020200A202020201A
:100CF0002020504C4159494E4721202020202020BF
:100D000020202020200A20202020202020202020F9
:100D10002020202020202020202020202020200AE9
:100D200000202020202020202020202020202020E3
:100D3000202020202020202020200A2020202020C9
:100D4000204C4147554E49544120574153202020C3
:100D5000202020200A202020202020444556454CD9
:100D60004F504544204259202020202020200A2096
:100D70002020202020202020202020202020202073
:100D800020202020202020200A2020202020205247
:100D9000454E41544F20202020202020202020207C
:100DA00020200A2020202020202020202020475200
:100DB0004F54544553492020202020200A20202031
:100DC0002020202020202020202020202020202023
:100DD0002020202020200A20202020202020202029
:100DE0002020202020202020202020202020202003
:100DF0000A2020202020204D5553494320425920CD
:100E0000202020202020202020200A2020202020F8
:100E100020202020202020202020202020202020D2
:100E2000202020200A2020202020204A4F414B490A
:100E30004D202020202020202020202020200A209B
:100E400020202020202020202053494D4F4E535356
:100E50004F4E2020202020200A202020202020204B
:100E60002020202020202020202020202020202082
:100E700020200A007C447C7C7C38100048656C7023
:100E8000004372656469747300506C617900526547
:100E900073756D650000000000003E5B4F5B3E3ED9
:100EA0006B4F6B3E1C3E7C3E1C183C7E3C181C5716
:100EB0007D571C1C5E7F5E1C00183C1800FFE7C3BA
:100EC000E7FF0018241800FFE7DBE7FF30483A0689
:100ED0000E2629792926407F050507407F05253FF5
:100EE0005A3CE73C5A7F3E1C1C08081C1C3E7F14E1
:100EF000227F22145F5F005F5F06097F017F00662B
:100F000089956A606060606094A2FFA29408047E84
:100F1000040810207E201008082A1C08081C2A0833
:100F2000081E101010100C1E0C1E0C30383E3830ED
:100F3000060E3E0E06000000000000005F000000EC
:100F400007000700147F147F14242A7F2A1223131A
:100F500008646236495620500008070300001C222E
:100F600041000041221C002A1C7F1C2A08083E0860
:100F70000800807030000808080808000060600061
:100F800020100804023E5149453E00427F40007255
:100F9000494949462141494D331814127F102745CC
:100FA0004545393C4A4949314121110907364949EA
:100FB0004936464949291E0000140000004034000B
:100FC00000000814224114141414140041221408BF
:100FD00002015909063E415D594E7C1211127C7F77
:100FE000494949363E414141227F4141413E7F4985
:100FF0004949417F090909013E414151737F080870
:10100000087F00417F41002040413F017F081422BA
:10101000417F404040407F021C027F7F0408107FD8
:101020003E4141413E7F090909063E4151215E7F13
:1010300009192946264949493203017F01033F40E6
:1010400040403F1F2040201F3F4038403F6314086E
:10105000146303047804036159494D43007F4141FF
:10106000410204081020004141417F0402010204B2
:101070004040404040000307080020545478407F1F
:10108000284444383844444428384444287F385459
:1010900054541800087E090218A4A49C787F080400
:1010A000047800447D40002040403D007F102844EB
:1010B0000000417F40007C047804787C08040478B8
:1010C0003844444438FC1824241818242418FC7C80
:1010D00008040408485454542404043F44243C4065
:1010E00040207C1C2040201C3C4030403C442810C8
:1010F00028444C9090907C4464544C440008364101
:1011000000000077000000413608000201020402DE
:101110003C2623263C1EA1A161123A4040207A3889
:1011200054545559215555794121545478412155EC
:1011300054784020545579400C1E5272123955553E
:101140005559395454545939555454580000457C14
:10115000410002457D420001457C40F0292429F0F0
:10116000F0282528F07C545545002054547C547CAC
:101170000A097F4932494949323248484832324A9D
:101180004848303A4141217A3A42402078009DA0B7
:10119000A07D39444444393D4040403D3C24FF2437
:1011A00024487E4943662B2FFC2F2BFF0929F6206C
:1011B000C0887E090320545479410000447D4130A9
:1011C00048484A32384040227A007A0A0A727D0D35
:1011D00019317D2629292F28262929292630484DED
:1011E0004020380808080808080808382F10C8AC3C
:1011F000BA2F102834FA00007B000008142A1422A9
:1012000022142A14089500220095AA005500AAAAC3
:1012100055AA55AA000000FF00101010FF0014147A
:1012200014FF001010FF00FF1010F010F014141441
:10123000FC001414F700FF0000FF00FF1414F40476
:10124000FC141417101F10101F101F1414141F006B
:10125000101010F0000000001F101010101F1010D0
:101260001010F010000000FF1010101010101010DF
:1012700010FF10000000FF140000FF00FF00001F1F
:1012800010170000FC04F414141710171414F404BD
:10129000F40000FF00F714141414141414F700F7EA
:1012A000141414171410101F101F141414F4141015
:1012B00010F010F000001F101F0000001F140000AD
:1012C00000FC140000F010F01010FF10FF141414B4
:1012D000FF141010101F00000000F010FFFFFFFFB0
:1012E000FFF0F0F0F0F0FFFFFF0000000000FFFF54
:1012F0000F0F0F0F0F38444438447C2A2A3E147EC7
:1013000002020606027E027E0263554941633844AA
:10131000443C04407E201E2006027E020299A5E77E
:10132000A5991C2A492A1C4C7201724C304A4D4D19
:10133000303048784830BC625A463D3E4949490001
:101340007E0101017E2A2A2A2A2A44445F4444401D
:10135000514A444040444A51400000FF0103E080AC
:10136000FF000008086B6B083612362436060F099A
:101370000F06000018180000001010003040FF0198
:1013800001001F01011E00191D1712003C3C3C3CCE
:101390000000000000080B00020202010009040026
:1013A00000010202000005240010010524010101D2
:1013B00004240206052406000107058103100040ED
:1013C00009040100020A00000007050202400000B3
:1013D000070583024000000403090412010002EF24
:1013E0000201404123368000010102030141726481
:1013F00075696E6F204C4C430055534220494F2075
:10140000426F6172640000000B0E1C780E04000035
:10141000101C78101C08000020303020381000000C
:10142000101C78101C080000D23F579200000000EA
:10143000D27FA7020000000022FFA70200000000E8
:10144000D27FA7020000F0487C247C48F000FFFC1B
:10145000308448800EFFFFFC300890400EFFFFFCF8
:10146000300122400EFFC850C8A0409044A00000A8
:10147000000000000000202020202020202020202C
:1014800020200A444F20594F552045564552200AE6
:101490005245475245542020202020200A435554CD
:1014A00054494E4720414C4C200A5448452057454A
:1014B00045443F2020200A202020202020202020DA
:1014C0002020200A54414B4520534F4D45202020D9
:1014D0000A53454544532E2020202020200A202056
:1014E000202020202020202020200A202020202012
:1014F000202020202020200A002020202020202022
:1015000020202020200A44494420594F552054527D
:1015100059200A5448452046525549545320200A20
:1015200046524F4D204F5552202020200A4C4F4309
:10153000414C202020202020200A43414354555371
:1015400020545245453F0A202020202020202020E2
:101550002020200A4E4F5720594F552043414E20FE
:101560000A504C414E5420594F555220200A4F5793
:101570004E2120202020202020200A002020202072
:1015800020202020202020200A4954275320534F78
:1015900020202020200A5741524D2E2E2E20202080
:1015A00020200A2020202020202020202020200A67
:1015B000504C414E54204120464557200A54524534
:1015C000455320544F202020200A50524F56494462
:1015D0004520202020200A534F4D452053484144A8
:1015E0004520200A464F52205448452020202020E4
:1015F0000A4C4147554E495449414E53210A202037
:10160000202020202020202020200A002020202010
:1016100020202020202020200A4556454E205448D6
:1016200045202020200A42455354204F4620555340
:1016300020200A4D414B4520534F4D452020200A84
:101640004D495354414B45532E2020200A20202041
:101650002020202020202020200A4E4F5720594FA4
:10166000552043414E200A52454D4F5645202020DB
:101670002020200A4255494C44494E472E20202024
:101680000A2020202020202020202020200A202086
:10169000202020202020202020200A002020202080
:1016A00020202020202020200A412050524945534C
:1016B00054202020200A50415353494E472042597C
:1016C00020200A50524F504F53455320594F550A2E
:1016D000544F204544554341544520200A54484521
:1016E0002050454F504C4520200A494620594F551F
:1016F000204255494C440A4120534D414C4C202036
:101700002020200A43485552434820464F5220206B
:101710000A48494D2E20202020202020200A202069
:10172000202020202020202020200A0020202020EF
:1017300020202020202020200A41532054484520EA
:10174000544F574E200A47524F57532C2054484568
:1017500020200A434F535420464F52202020200A75
:10176000494D504F5254494E472020200A464F4F72
:101770004420474554532020200A50524F424C45A4
:101780004D415449432E0A20202020202020202093
:101790002020200A4255494C442041204D494C4CC0
:1017A0000A544F204645454420544845200A4C41A0
:1017B00047554E495449414E532E0A0020202020BF
:1017C00020202020202020200A5448452042414E3D
:1017D00044495453200A434F554C4420534D454CE3
:1017E0004C200A594F5552204D4F4E455920200A42
:1017F000414E442054484559204152450A434F4DDB
:10180000494E4720544F2020200A41535341554C04
:101810005420544845200A42414E4B21202020208C
:101820002020200A4255494C44204120504F535417
:101830000A464F522054484520202020200A534871
:1018400045524946462E202020200A0020202020F4
:1018500020202020202020200A544845524520499D
:1018600053204E4F200A5350414345204C45465487
:1018700020200A544F2053544F524520414C4C0ACB
:10188000544845204D4F4E45592120200A20202004
:101890002020202020202020200A4255494C44208E
:1018A000412042414E4B0A544F20494E435245413C
:1018B0005345200A474F4C442053544F524147450B
:1018C0000A42592035303030242E2020200A202092
:1018D000202020202020202020200A00202020203E
:1018E00020202020202020200A54484520474F4C0B
:1018F00044202020200A4645564552202020202002
:1019000020200A5245414348454420202020200AF7
:101910004C4147554E495441212020200A0A425546
:10192000494C4420412020200A4D494E4520544F27
:1019300020202020200A494E435245534520202094
:1019400020200A54484520494E434F4D452E200A39
:101950002020202020202020202020200A002020BD
:10196000202020202020202020200A5448452043E9
:101970004F57424F5953200A41524520474554542E
:10198000494E47200A524553544C4553532E20206C
:10199000200A2020202020202020202020200A4251
:1019A00055494C442041204E4557200A53414C4F45
:1019B0004F4E20544F2020200A454E54455254414A
:1019C000494E2020200A5448454D20414E442020B5
:1019D00020200A434F4C4C45435420534F4D450A59
:1019E00054415845532E2020202020200A0020203A
:1019F000202020202020202020200A4D4F5245204A
:101A000050454F504C45200A574F554C44204D4FA0
:101A1000564520200A494E2C20494620544845204E
:101A2000200A484F555345532041524520200A5320
:101A300045525649434544202020200A57495448DE
:101A40002057415445522E200A20202020202020BB
:101A500020202020200A545259204255494C444904
:101A60004E470A534F4D4520574154455220200AB6
:101A7000544F574552532E20202020200A0020206A
:101A8000202020202020202020200A4255494C449C
:101A90002041204641524D0A544F20474956452087
:101AA000412020200A4A4F4220544F2054484520CC
:101AB000200A434954495A454E532E2020200A20DB
:101AC00020202020202020202020200A4152524F78
:101AD00057205550202020200A544F205357495456
:101AE00043482020200A4255494C44494E472E2065
:101AF00020200A002020202020202020202020201C
:101B00000A57454C434F4D4520544F20200A4C4125
:101B100047554E4954412C2020200A4120534D4125
:101B20004C4C204C414B450A494E205448452057C7
:101B3000494C44200A57494C4420574553542E20C1
:101B4000200A2020202020202020202020200A429F
:101B500055494C4420534F4D4520200A484F55537A
:101B6000455320544F2020200A494E4352454153AB
:101B700045205448450A504F50554C4154494F4E0A
:101B80002E200A00E0A05028140A050A142850A0AC
:101B9000E0A0E0A0E0A0E0A0E0A0E0A0E0C0800025
:101BA00000000000FF8080FC8282FC809E929E806C
:101BB000FF88F888F888F888F888F888F889FB8F13
:101BC000FE8CF80024A870FC70A824000100F0AF7F
:101BD000F0000100F04F241B244FF000000000C073
:101BE00040C040C078C442C242C478C040C040C077
:101BF00000000000FC141C171C171C177C475457CE
:101C000054477C171C171C171C14FC00FF809F9165
:101C100091919F80FCAAA9FFA9AAFC8080808F894E
:101C20008F80FF00FFC1FF417FC1FF0000FF88558B
:101C300022FF000000FF885522FF000030FF160E33
:101C40000546A615A646050E16FF300000FF808C3F
:101C50008C80FC85FC808C8C80FF0000FE25160E9D
:101C60000506A675A606050E1625FE00FF80FE8257
:101C7000FE82FE80BEA2BEA2BE80FF00C0B0ACABA2
:101C8000ACB0C00000000000000000000000000038
:101C900000000000FF00043E0400FF808080808080
:101CA000808080808080808080800000FF80FC8237
:101CB000FC80FF829B829B829B829B829B829B8279
:101CC0009B82FF0000000080E0FEFCF8F0E0F0F8EE
:101CD000FFFEFCF8F8FCFEFCE0000000C0F0FCFF9A
:101CE000FFFFFFFFFFFFFFFFFFFF1F0F1FFFFFFFB4
:101CF000FFF8E08000010303030303030301000076
:101D000000F0AEAAAEF0010303010100FE915E3EB9
:101D1000111E1E111E1E113E5E91FE00FF808F8F50
:101D200080FFA9A9A9FF808F8F80FF00000C1933C5
:101D3000667CF9FFFE703C3E3319180C0000000071
:101D40000080C3FFFFBC0000000000000C1830FF43
:101D5000FF0C0603082952FE492510000000000070
:101D60000000000000B00000A170E150964F2690E6
:101D70000F1D070C009669004AE44A0048444000E1
:101D8000806810000F99FB8F9DBDBBFB77D4D4DF1B
:101D90001F1A1AFE7F5D5DFF805A0000A0A4AA00F2
:101DA00010BA3400FF5953F3FF9B9B9EFFB9B996BD
:101DB000FF9595D19FF4940FFC295F91FF1838F897
:101DC000FF9294FFFF95D5F7BFB5DDD7F18F81F175
:101DD000F788C8F779C6467909FD9B090196F8008E
:101DE0008281828050716200775656007676370085
:101DF000A2B773010772060078275000733474008D
:101E0000775176007F55F700477110003247720016
:101E10007364730015A2750061679400009F606091
:101E2000F4F2F6F200000000240027002A002D0042
:101E3000300000000000250028002B002E0031009B
:101E400004080201104080401020408040800802B9
:101E50000401804020100201108010204040200426
:101E60000404040403040502020202040302020241
:101E7000020606060606060404020202040406011F
:101E80001501260137014A015D01720188019F0198
:101E9000B801D201EE010B022A024B026E0293023C
:101EA000BA02E40210033F037003A403DC03170427
:101EB00055049704DD0427057505C80520067D0631
:101EC000E0064907B8072D08A9082D09B9094D0AE8
:101ED000EA0A900B400CFA0CC00D910E6F0F5A10CD
:101EE00053115B1272139A14D41520178018F51928
:101EF000801B231DDE1EB420A622B524E42634292F
:101F0000A72B402E0031EA330037453ABC3D6841EB
:101F10004C456B49C84D68524F57805C00621011A8
:101F20001213151617181A1C1D1F21232527292CDB
:101F30002E3134373A3E4145494E52575C62686E05
:101F4000757B838B939CA5AFB9C4D0DCE9F7D5250D
:101F500011241FBECFEFDAE0DEBFCDBF11E0A0E05D
:101F6000B1E0E8EDF9E502C005900D92AA39B1079C
:101F7000D9F729E0AAE9B1E001C01D92AC30B2075F
:101F8000E1F71FE0C8EADFE004C02197FE010E94EC
:101F9000E42CC73AD107C9F70E948A1C0C94FF2889
:101FA0000C940000CF93DF931F92CDB7DEB7698307
:101FB000DC01ED91FC910280F381E02D41E050E0E5
:101FC000BE016F5F7F4F09950F90DF91CF9108950C
:101FD00083E08093E9008091F200882319F08AE37E
:101FE0008093E8000895FC018485958597FD0BC0DA
:101FF0009FB7F89482E08093E9008091F2009FBF40
:1020000090E0019608959FB7F89482E08093E900EC
:102010008091F2009FBF90E008958091B0018111FE
:102020000DC082E08093AC0184E08093AD011092FA
:10203000AF011092AE0181E08093B0018CEA91E093
:1020400008954091A9015091AA012091A7013091D2
:10205000A80142175307B4F49091E8009570E1F39A
:102060009091E80092FD19C08093F1008091A90140
:102070009091AA0101968F739927892B19F48EEFFD
:102080008093E8008091A9019091AA010196909314
:10209000AA018093A90181E0089580E00895DF926C
:1020A000EF92FF920F931F93CF93DF93D82E8A0165
:1020B0007B01E40EF51EEB01CE15DF0571F0D7FEB6
:1020C00003C0FE01849101C088810E9421102196E5
:1020D0008111F2CF8FEF9FEF01C0C801DF91CF9147
:1020E0001F910F91FF90EF90DF9008950F931F9332
:1020F000CF93DF931F92CDB7DEB782E0898342E4AE
:1021000050E065E973E180E80E944F100E940D10D5
:10211000DC0112960D911C9113970115110589F0A0
:10212000D801ED91FC910280F381E02DBE016F5F3B
:102130007F4FC801099597FD04C0F80100851185FE
:10214000ECCF89810F90DF91CF911F910F9108956E
:10215000615030F02091F100FC0120830196F8CF0E
:10216000289884E68093B901089508958091A60186
:1021700008958F929F92AF92BF92CF92DF92EF928B
:10218000FF920F931F93CF93DF936C017B018A0122
:1021900080910B01882309F45CC08091BA018823E7
:1021A00009F457C08091A50180FF05C08091E0002F
:1021B00082608093E000E801B12C8AEFA82E93E0C2
:1021C000892E2AE3922E209711F4BB20D9F10E9488
:1021D000C51781110AC0AA94AA20D9F161E070E064
:1021E00080E090E00E94201AEECF282F30E0C21746
:1021F000D3070CF48C2F9FB7F8948092E9002091BC
:10220000E80025FF1DC0282F30E0C21BD30BF701CB
:10221000815020F041914093F100FACFE20EF31E7D
:10222000BB2019F09092E8000AC08091E80085FD7B
:1022300007C09092E800BB24B394209709F0B12C1A
:102240009FBFC1CF5D9884E68093B8011016110638
:1022500044F081E090E0F6019383828380E090E097
:1022600001C0C801DF91CF911F910F91FF90EF90B6
:10227000DF90CF90BF90AF909F908F9008950E9475
:10228000C51790E008950F931F93CF93DF931F928C
:10229000CDB7DEB78C01FC018485958597FF0EC014
:1022A000CE0101960E949717019719F4898190E059
:1022B00002C08FEF9FEFF80195878487F80184852E
:1022C00095850F90DF91CF911F910F910895CF9336
:1022D000DF931F92CDB7DEB7FC018485958597FD0E
:1022E00005C02FEF3FEF358724870BC0CE01019645
:1022F0000E949717019719F4898190E002C08FEF2F
:102300009FEF0F90DF91CF9108951F920F920FB61C
:102310000F9211248F939F938091E1009091E1009F
:10232000937F9093E10083FF0FC01092E90091E04A
:102330009093EB001092EC0092E39093ED001092DA
:10234000BA0198E09093F00082FF20C093E0909350
:10235000E9009091F200992319F09AE39093E80034
:102360009091B801992339F09091B80191509093D0
:10237000B801992389F19091B901992339F090918D
:10238000B90191509093B901992341F184FF10C094
:102390008091E2008E7E81608093E2008091E10076
:1023A0008F7E8093E1008091A5018E7E806111C0B7
:1023B00080FF16C08091E2008E7E80618093E200F3
:1023C0008091E1008E7E8093E1008091A5018E7E58
:1023D00081608093A50104C05D9ACDCF289AD6CFA5
:1023E0009F918F910F900FBE0F901F9018951F9285
:1023F0000F920FB60F921124CF92DF92EF92FF92BD
:102400000F931F932F933F934F935F936F937F93FC
:102410008F939F93AF93BF93EF93FF93CF93DF93EC
:10242000CDB7DEB76C97DEBFCDBF1092E9008091CB
:10243000E80083FFFBC168E0CE0145960E94A8102A
:1024400082EF8093E8008D8987FF05C09091E800B6
:1024500090FFFCCF03C09EEF9093E800982F9076FA
:1024600009F0C6C09E894F89588D2F89F88C91112B
:102470000CC0803829F48091A4018093F10002C03F
:102480001092F1001092F10045C1913051F4811188
:1024900041C14130510509F03DC18091A4018D7FBA
:1024A0000BC0933061F4811135C14130510509F001
:1024B00031C18091A40182608093A4012BC1953029
:1024C00049F48091E80080FFFCCF822F80688093E0
:1024D000E30020C1963009F05EC00B8D1C8D22E018
:1024E0001092E9001092AA011092A901F21232C0D2
:1024F0001092A8011092A7010E94761099E0BE01E7
:102500006F5F7F4FDB01E92F1D92EA95E9F7998311
:10251000FA8291E09E8390EA98879AEF99872091BA
:10252000A9013091AA01275F3F4F3C832B838D8304
:102530001092E9001092AA011092A9011093A8012B
:102540000093A70149E050E080E00E944F100E94F4
:102550007610E0C01093A8010093A7010E940D100F
:10256000DC0112960D911C9113970115110509F4C8
:10257000BBC0D801ED91FC910480F581E02DBE0136
:102580006B5E7F4FC8010995009709F0C7C0F8013D
:1025900000851185EACF973009F445C1983021F4C0
:1025A00081E08093F100B6C0993009F0B3C0837028
:1025B00009F039C1E1E1F1E081E031E096E3208109
:1025C000211109C08EE78093EA001092EA008F89FA
:1025D0008093BA019FC08093E9003093EB00219172
:1025E0002093EC009093ED008F5F873041F7EACFA6
:1025F0008B8D9C8D1092E9001092AA011092A90176
:102600009093A8018093A701898D811153C08E8971
:102610009D89913A49F4813209F005C147E050E0C3
:1026200064E071E080E0BBC0913209F0FCC083320D
:1026300069F48F89988DA0E0B0E0809300019093B9
:102640000101A0930201B093030164C0803269F4D8
:102650008091E80082FFFCCF67E084E091E00E9477
:10266000A8108BEF8093E80055C0823209F052C069
:102670008F8980930B01EEEFFFE7859194918B3F5B
:102680009C4D19F0E0E0F8E002C0EEEFFAE0809136
:10269000040190910501A0910601B0910701803BD2
:1026A0009440A105B10509F09EC080910B0180FF07
:1026B00079C099C00E940D10FC010281138101159F
:1026C000110509F4B0C0D801ED91FC910190F081A1
:1026D000E02DBE016B5E7F4FC801099581111AC0C4
:1026E000F80100851185EBCFF1E0FF1609F44EC02B
:1026F000F3E0FF1298C08F89882309F44AC0823022
:1027000089F440E86CE089EF93E10E945B2588231F
:1027100009F489C08EEF8093E80088C01816190666
:10272000CCF381C0813029F440E86BE08DEE93E179
:10273000ECCF833009F077C00E940D10DC011296B7
:10274000ED90FC9013978E010F5F1F4F6801E1140D
:10275000F10479F0D701ED91FC910680F781E02D2D
:10276000B801C7010995080F111DF701E084F18434
:10277000EECFD8011C92F60101900020E9F73197C5
:10278000BF016C197D0940E0C601BFCF6BED73E15D
:1027900002C067ED73E1FB01449150E080E80E94C4
:1027A0004F10B8CFEE3F2AE0F20751F080819181BF
:1027B0008737A7E79A0721F09093FF0A8093FE0AD4
:1027C00087E797E791838083809160008093AB01D6
:1027D0009BE088E10FB6F894A895809360000FBE47
:1027E0009093600097CF808191818737974709F058
:1027F00091CFA8958091600088618093600080915E
:10280000AB0180936000EE3FBAE0FB0739F08091A6
:10281000FE0A9091FF0A918380837CCF1092FF0A79
:102820001092FE0A77CF81E28093EB006C960FB690
:10283000F894DEBF0FBECDBFDF91CF91FF91EF9136
:10284000BF91AF919F918F917F916F915F914F91C8
:102850003F912F911F910F91FF90EF90DF90CF90BC
:102860000F900FBE0F901F9018950C94A9298038D7
:102870009105B8F460347105A0F490E121E061FDA8
:1028800024E060FD220F62FD2295687F969FD001B3
:102890001124A80FA354BE4F8C91822B40FF822796
:1028A0008C9308952F923F924F925F926F927F92F6
:1028B0008F929F92AF92BF92CF92DF92EF92FF9250
:1028C0000F931F93CF93DF93CDB7DEB727970FB644
:1028D000F894DEBF0FBECDBF9F838E836A30A1F414
:1028E000DC0155962C91559751968D919C9152975C
:1028F000B8E02B9F800D911D1124EE81FF81928BFA
:10290000818B108A1786ADC06D3009F4AAC0AE81E4
:10291000BF811F960D911C91509700381105BCF096
:10292000EE81FF812589422F50E087859089F6E06E
:102930002F9F800D911D1124AE81BF8150969C93D5
:102940008E931F9756962C91211175C08AC0EE81E7
:10295000FF8181889288F0E48F1691040CF7AE8194
:10296000BF8155963C90C801B5E03B9E800D911DFE
:10297000112418161906A4F6432C512CC401E8E0C2
:102980003E9E800D911D1124181619064CF6AE813D
:10299000BF815496BC91BC83EE81FF81F389FD8396
:1029A00025E0629FB0011124CB018B56914F3C0171
:1029B0001982F3012490F981F53009F4212C640186
:1029C00028E02B8320FE03C03D813A8302C08C8126
:1029D0008A839A81911104C0AC81BD81AB17B9F093
:1029E00078018E2D801B831590F456018A2D8C1949
:1029F000831548F44A81B501C7010E943714EFEFEF
:102A0000AE1ABE0AF3CFFFEFEF1AFF0AEACF269401
:102A10002B8121502B83C40CD51C2111D3CF39819C
:102A20003F5F3983040D151DC30101963C0136300B
:102A300009F0BFCF75CF6AEF64039001659F300D39
:102A4000112420583F4F281739075CF4AE81BF810D
:102A5000ED91FC9111970190F081E02D6AE0CD019C
:102A6000099581E090E027960FB6F894DEBF0FBE7F
:102A7000CDBFDF91CF911F910F91FF90EF90DF902D
:102A8000CF90BF90AF909F908F907F906F905F900E
:102A90004F903F902F9008950F931F93CF93DF9304
:102AA000809164008E7F8093640080917A008064BE
:102AB00080937A0080917A0086FDFCCFC0917800E7
:102AC000D09179000E94FB1920916400216020932D
:102AD00064008E0120E030E0980111270027600F8C
:102AE000711F821F931FDF91CF911F910F91089546
:102AF0002D9A0895BC0180E090E00C94201A8FB1CB
:102B00008095807F669B88601C9B846008953E9AB8
:102B10003F9A81E08093A601089582E090E00E94B0
:102B2000351481110C9487151092A6013E983F9898
:102B30000895EDEBF1E0A0E0B8E000800EBC81115B
:102B4000012C1197A0FDFDCF0192B9F70DB40895A6
:102B50002091C705282329F49091C605982381E088
:102B600009F480E008956115710579F0FB01019089
:102B70000020E9F73197AF01461B570BDC01ED91BF
:102B8000FC910280F381E02D099480E090E00895AB
:102B90002F923F924F925F926F927F928F929F926D
:102BA000AF92BF92CF92DF92EF92FF920F931F935B
:102BB000CF93DF937C016B01C0E0D0E08824839445
:102BC000912C04E010E098EF692E77247A942DEF91
:102BD000A22EBB24BA94842F8470582E842F827026
:102BE000482E842F8870382E4170242E219682E042
:102BF000880E911CA80CB91C552091F041E0B80139
:102C00006C0D7D1DC7018C0F9D1F0E94371441E084
:102C1000B6016C0F7D1FC8018E0D9F1D0E943714D9
:102C2000442091F041E0B601601B710BC7018C0F8D
:102C30009D1F0E94371441E0B6016C1B7D0BC8013B
:102C40008E0D9F1D0E943714332091F041E0B60194
:102C50006C0F7D1FC701801B910B0E94371441E050
:102C6000B8016C0D7D1DC7018C1B9D0B0E94371494
:102C700021100DC0C017D107ECF4B7FCB7CF01503D
:102C8000110982E0680E711CA60CB71CAFCF41E0A1
:102C9000B6016C1B7D0BC701801B910B0E94371482
:102CA00041E0B601601B710BC7018C1B9D0B0E949C
:102CB0003714E0CFDF91CF911F910F91FF90EF90EC
:102CC000DF90CF90BF90AF909F908F907F906F904C
:102CD0005F904F903F902F9008959C01240F311DDD
:102CE0001216130674F5803891055CF597FF02C043
:102CF00080E090E02138310514F020E830E0281B16
:102D0000AB014770552731E001C0330F4A95EAF710
:102D100077FF02C0695F7F4F43E0759567954A95DD
:102D2000E1F77695762F662777956795860F971F3B
:102D3000FC01E354FE4F215020F08081832B8193CE
:102D4000FACF08952F923F924F925F926F927F92A7
:102D50008F929F92AF92BF92CF92DF92EF92FF92AB
:102D60000F931F93CF93DF93CDB7DEB72A970FB69C
:102D7000F894DEBF0FBECDBF5A01822E912C940174
:102D8000280F391F37FDBAC0803891050CF0B6C046
:102D90009B01200F311D37FDB1C0603471050CF06F
:102DA000ADC0AB0177FF04C044275527461B570B26
:102DB000477055279B0177FF02C0295F3F4FE3E033
:102DC00035952795EA95E1F777FF08C0215031093D
:102DD00068E070E0FB01E41BF50BAF01202E2694A8
:102DE00026942694312C077019F0FFEF2F1A3F0A12
:102DF000220E331E39017694762C662477946794DC
:102E0000680E791EE12CF12C00E010E0B30160584F
:102E10007F4F7A87698768E070E0FB01E41BF50B60
:102E2000FA83E9832216330609F468C02830310595
:102E300009F464C02F3FFFEF3F070CF454C0E9854D
:102E4000FA85E00FF11FBF0163547E4F7C836B83D3
:102E5000D801A60DB71DA354BE4F6C0160E070E011
:102E6000681579050CF03FC0E0E8CE16D10409F4EE
:102E70003AC0D7FC2CC02F3FFFEF3F0709F43AC000
:102E8000FB01EE0DFF1DEA0DFB1DE491042E01C0B8
:102E9000EE0F0A94EAF7FC91EF2BEC9341155105E4
:102EA000B1F02730310599F0FB01EE0DFF1DEA0D61
:102EB000FB1DE4914E2E512C098002C0559447947D
:102EC0000A94E2F7EB81FC815080452840826F5FD5
:102ED0007F4FEB81FC813196FC83EB83FFEFCF1AB0
:102EE000DF0A1196BDCF2F5F3F4F00581F4FE80CF0
:102EF000F91C98CF41155105B9F6E9CF2A960FB6BE
:102F0000F894DEBF0FBECDBFDF91CF911F910F911F
:102F1000FF90EF90DF90CF90BF90AF909F908F90F9
:102F20007F906F905F904F903F902F9008952091E9
:102F3000BA01211103C08FEF9FEF08955FB7F89496
:102F400022E02093E9002091F20030E012161306EF
:102F500014F421E030E0422FFC0184E6415038F0C7
:102F600028988093B9019091F1009193F7CF2115A2
:102F7000310521F08091F200882319F05FBFC9016B
:102F800008958BE68093E800F9CF2FB7F89483E09B
:102F90008093E9009091E800892F807295FF04C02A
:102FA0009091F20080E4891B2FBF0895CF92DF92A9
:102FB000EF92FF920F931F93CF93DF936C017A01EF
:102FC0008B01C0E0D0E0CE15DF0581F0D8016D9116
:102FD0008D01D601ED91FC910190F081E02DC601AB
:102FE0000995892B11F02196EECF7E01C701DF9163
:102FF000CF911F910F91FF90EF90DF90CF900895A8
:10300000CF92DF92EF92FF921F93CF93DF93E82F3F
:10301000F0E0E35BFE4F1081E62FF0E0603330F428
:10302000E25EF04EE491CE2FD0E006C0EE0FFF1F1F
:10303000E25EF14EC591D4916E01E12CF12C60E07D
:1030400074E284EF90E0A70196010E944629BA013C
:10305000A90141505109610971094115510581E0EA
:103060006807710580F060E970ED83E090E0A701EA
:1030700096010E944629BA01A901415051096109EE
:10308000710983E001C081E01130E9F0133091F55E
:1030900090919100987F892B809391005093990093
:1030A000409398001092950010929400D0930509D7
:1030B000C093040981E080930309809171008260CC
:1030C0008093710017C090910609911113C09091DF
:1030D0008100987F892B80938100509389004093D1
:1030E0008800109285001092840080916F008260A9
:1030F00080936F00DF91CF911F91FF90EF90DF9051
:10310000CF900895E82FF0E0E35BFE4F808181309F
:1031100019F0833089F008958091060981111CC04F
:1031200080916F008D7F80936F008091F508E09112
:10313000F308F091F4080CC0109203098091020981
:1031400081110AC080910009E091FE08F091FF080A
:10315000908180958923808308954F925F926F922A
:103160007F928F929F92AF92BF92CF92DF92EF9217
:10317000FF920F931F93CF93DF936C013B01102FAE
:1031800038E0832E912C7A01FF24270193E0559497
:1031900047949A95E1F7CA0187709927892B41F5E1
:1031A000D6011796CD91DC911897C3019927BE01DE
:1031B0000E94992C4C9EF0014D9EF00D5C9EF00DEE
:1031C00011249927D60115964D915C9116978E0F73
:1031D0009F1FFA01E80FF91F111106C0C22FC095F9
:1031E00020812C23208327C0C081C22BC08323C011
:1031F000C22FD0E04770A42EB12C720183E0EE0CF8
:10320000FF1C8A95E1F79E0101C0220F4A95EAF75B
:10321000012FA701B301C6010E94AD18C4018A198C
:103220009B0902C0D595C7958A95E2F72C2FA70177
:10323000485F5F4FA8CFDF91CF911F910F91FF9013
:10324000EF90DF90CF90BF90AF909F908F907F9046
:103250006F905F904F9008955F926F927F928F92E0
:103260009F92AF92BF92CF92DF92EF92FF920F9315
:103270001F93CF93DF93EC016A3061F48D859E85B7
:103280009C878B872B898F859889820F911D988BBE
:103290008F8775C0CB84DC84693031F489E0C80E37
:1032A000D11CDC86CB866BC0162F9DEFC9169FEF15
:1032B000D90654F48A8990E004962B853C85820FC8
:1032C000931F9C878B875BC08F819885C816D90612
:1032D0008CF7EF84F8888DEFE8168FEFF80654F33B
:1032E00089859A85E816F9062CF7603208F41FE7FD
:1032F00080EE810F9FE9910F9A3118F49FEFE91A40
:10330000F90A8C3011F08B3119F49FEFE91AF90AA0
:10331000869594E0899F50011124360184E0680E5F
:10332000711C46011170F401EC19FD09EA0DFB1D39
:10333000EC59F24E8491111103C08F70582E04C0C5
:10334000582E52948FE058228C81882351F001E04E
:103350008989811100E02FE0A701B401CE010E940C
:10336000AD180989252DA701B401CE010E94AD1821
:103370009FEF891A990A68147904A9F69BCF81E016
:1033800090E0DF91CF911F910F91FF90EF90DF9030
:10339000CF90BF90AF909F908F907F906F905F90F5
:1033A0000895089580E090E008950E94BF29EF926B
:1033B000FF920F931F93CF93DF938C017B01C0E0AB
:1033C000D0E0F701EC0FFD1F6491662361F0D80196
:1033D000ED91FC910190F081E02DC8010995892BB8
:1033E00011F02196EECFCE01DF91CF911F910F9179
:1033F000FF90EF9008953FB7F8948091080990915D
:103400000909A0910A09B0910B0926B5A89B05C02E
:103410002F3F19F00196A11DB11D3FBFBA2FA92F53
:10342000982F8827820F911DA11DB11DBC01CD01D0
:1034300042E0660F771F881F991F4A95D1F70895BC
:103440008F929F92AF92BF92CF92DF92EF92FF92B4
:103450006B017C010E94FB194B015C01C114D1047A
:10346000E104F104F1F00E94FB19DC01CB018819A1
:103470009909AA09BB09883E9340A105B10570F3DB
:1034800021E0C21AD108E108F10888EE880E83E035
:10349000981EA11CB11CC114D104E104F10419F758
:1034A000DDCFFF90EF90DF90CF90BF90AF909F90D7
:1034B0008F9008951F920F920FB60F9211242F93A1
:1034C0003F938F939F93AF93BF9380919F01909170
:1034D000A001A091A101B091A2013091070923E0C0
:1034E000230F2D3720F40196A11DB11D05C026E83C
:1034F000230F0296A11DB11D2093070980939F0100
:103500009093A001A093A101B093A201809108091A
:1035100090910909A0910A09B0910B090196A11D8A
:10352000B11D8093080990930909A0930A09B093EB
:103530000B09BF91AF919F918F913F912F910F9068
:103540000FBE0F901F90189529E0629FF001112483
:10355000E75DF74F29E0DC0101900D922A95E1F734
:1035600008951F920F920FB60F9211248F939F937D
:10357000AF93BF93EF93FF9380910609882309F4DB
:1035800049C08091F6089091F708A091F808B09191
:10359000F908892B8A2B8B2B51F19091F508E0913A
:1035A000F308F091F4088081892780838091F608E0
:1035B0009091F708A091F808B091F908181619062B
:1035C0001A061B06A4F58091F6089091F708A091C1
:1035D000F808B091F9080197A109B1098093F6089C
:1035E0009093F708A093F808B093F90820C01092C0
:1035F00002091092060980916F008D7F80936F0001
:103600008091F508E091F308F091F408908180959D
:1036100089230CC080910109811109C09091F5089E
:10362000E091F308F091F408808189278083FF916D
:10363000EF91BF91AF919F918F910F900FBE0F901F
:103640001F901895CF93DF93D1E0E0919A01F0910C
:103650009B01DF011196B0939B01A0939A01949175
:10366000892F807FC92FCF70803821F48C2F0E9442
:103670008218EBCF8039F9F4E091BB01F091BC01E5
:1036800009958D2780930109E0919A01F0919B01A2
:10369000CF01019690939B0180939A016491809150
:1036A000F208C81790F6C13009F052C08091F108B5
:1036B0008111CBCF4DC087FD3AC03296F0939B016C
:1036C000E0939A01FD01A491B0E0B92B2091040987
:1036D000309105090E949A296C507E4F8F4F9F4F61
:1036E00028EE33E040E050E00E9478292093FA0869
:1036F0003093FB084093FC085093FD088091FA0832
:103700009091FB08A091FC08B091FD08892B8A2BB1
:103710008B2B21F581E090E0A0E0B0E08093FA08E7
:103720009093FB08A093FC08B093FD0817C0803E5F
:1037300049F480919C0190919D0190939B0180930D
:103740009A0183CF803F09F080CF10929E0106C07E
:1037500067FD7BCF8C2F0E94001877CFDF91CF9130
:1037600008951F920F920FB60F9211242F933F933B
:103770004F935F936F937F938F939F93AF93BF9379
:10378000EF93FF9380910309882341F08091020910
:10379000811104C080910109882351F180919E011B
:1037A000882381F18091FA089091FB08A091FC0890
:1037B000B091FD08892B8A2B8B2B21F18091FA087F
:1037C0009091FB08A091FC08B091FD080197A10918
:1037D000B1098093FA089093FB08A093FC08B0937A
:1037E000FD08892B8A2B8B2B69F40E94221B0AC0AF
:1037F00090910009E091FE08F091FF0880818927EF
:103800008083CCCFFF91EF91BF91AF919F918F912A
:103810007F916F915F914F913F912F910F900FBECC
:103820000F901F9018959091F208923009F471C092
:10383000292F30E0F901E35BFE4F4081F901E151AE
:10384000F74F8083913031F42091EF08821302C04A
:103850009093F1089F5F9093F20890E0FC01E15A89
:10386000F14E2491FC01E05CF14E849130E0220F96
:10387000331FF901EE5CF14E65917491F901EC5D35
:10388000F14EA591B4919C91982B9C93413019F0E5
:103890004330D9F0089590916400977F909364002D
:1038A0001092800010928100909181009860909316
:1038B0008100909181009160909381007093F40851
:1038C0006093F3088093F508089590916500977FC1
:1038D0009093650010929000109291009091910049
:1038E00098609093910090919100916090939100D5
:1038F0007093FF086093FE08809300098091F2089E
:10390000882321F06CE380E00E94001880E00C9492
:1039100082180895CF93DF93CDB7DEB76B970FB6BC
:10392000F894DEBF0FBECDBF789484B5826084BDAD
:1039300084B5816084BD85B5826085BD85B58160B3
:1039400085BD80916E00816080936E001092810031
:1039500080918100826080938100809181008160EC
:1039600080938100809180008160809380008091AD
:10397000910082608093910080919100816080939A
:103980009100809190008160809390008091C100AF
:1039900084608093C1008091C10082608093C100E7
:1039A0008091C10081608093C1008091C3008160DB
:1039B0008093C3008091C00082608093C00080919A
:1039C000C20081608093C20080917A0084608093FD
:1039D0007A0080917A00826080937A0080917A00E8
:1039E000816080937A0080917A00806880937A0069
:1039F0001092BA011092A4011092A5018091D700F3
:103A000081608093D70080EA8093D80089B5806177
:103A100089BD89B5826089BD09B400FEFDCF61E032
:103A200070E080E090E00E94201A8091D8008F7CA6
:103A300080618093D8008091E000807F8093E000D7
:103A40008091E1008E7E8093E1008DE08093E20022
:103A5000559A209A81EC80937C0085B1806F85B95E
:103A600084B1877E84B984B1876E84B95E9A5F9889
:103A70008AB1806D8AB9769A6E9881B3806F81BB66
:103A8000899880B38D7080BB80E58CBD81E08DBD51
:103A900085E090E00E947A155F9A85E090E00E94B0
:103AA0007A155E985C98ECE5F1E089E691E0249166
:103AB0002EBD00000DB407FEFDCF31968E179F0777
:103AC000B1F75C9A81E88093640080916500816021
:103AD0008093650080E00E9499150E947F1587FF02
:103AE00024C05C9885EA8EBD00000DB407FEFDCFB2
:103AF0005C9A2E982F982D98809164008062809314
:103B0000640081E083BF889513BEFCCF2D980E948E
:103B10007F158478843871F00E947F158471843118
:103B200031F188EC90E00E947A150E947F1582FDA9
:103B3000EDCF3AC00E94781588EC90E00E947A158B
:103B40002F9882E090E00E94A9298F3F29F06FEF23
:103B500082E090E00E94B12984EF91E00E947A1502
:103B60002F9A0E947F1584788438D9F3D5CF0E948C
:103B7000781588EC90E00E947A152E9882E090E00B
:103B80000E94A929882329F060E082E090E00E9449
:103B9000B12984EF91E00E947A152E9A0E947F1538
:103BA00084718431D9F3BDCF0E9478150E948D15A0
:103BB00081E090E00E943514182F147081FF3FC0FF
:103BC00011112E9830EFE32EFF24FA940E947F15F6
:103BD00086FF05C02E9A2F9A0E94781530C01123B7
:103BE00031F004E0E016F10411F42E9A2F9881E0F0
:103BF0000E94991500E128E54CEA50E0B70184E104
:103C000090E00E94A21680E00E9499158FE090E05B
:103C10000E947A152FEFE21AF20A39E1E316F10455
:103C2000A9F6112311F02F9A2D9880E991E00E94B6
:103C30007A150E9478158DEB95E00E94902582E31D
:103C400090E00E947A150E947F158111F8CF8FE1D4
:103C50008093C8050E948D150E94871585E00E94FB
:103C6000131C8DE00E94131C20EC422E512C8FB7A8
:103C7000F89440919F015091A0016091A101709131
:103C8000A2018FBF8091C905942F981B892F909115
:103C9000CA05992329F08093CB051092CA05F7C66F
:103CA0009091C805891748F48F5F891708F0EFC60F
:103CB00081E083BF889513BEEAC611E01093CA0560
:103CC0004093C9058091C4059091C50501969093D4
:103CD000C5058093C4058091C6058093C7050E94E1
:103CE0007F158093C60580919E0181110EC089E6E3
:103CF00091E090939D0180939C0190939B01809310
:103D00009A010E94221B10939E018091CC07813062
:103D100009F4EAC038F0823009F452C3833009F460
:103D20004FC358C380E80E94A815882381F0809172
:103D3000CD07813039F020F0823049F481E005C0B0
:103D400082E003C01092CD0702C08093CD0780E1CE
:103D50000E94A815882379F08091CD07813041F029
:103D600028F0823041F41092CD0705C081E001C0F7
:103D700082E08093CD0788E00E94A815882309F48B
:103D800029C38091CD07813009F4AAC028F0823080
:103D900009F020C383E0A5C08091CB0781119EC0AC
:103DA0002FB7F89480919F019091A001A091A1015B
:103DB000B091A2012FBF80931C0790931D07A09381
:103DC0001E07B0931F078091E9059091EA050496BC
:103DD0000E944C15611571058105910511F00E9435
:103DE000F62810E08091E9059091EA0504960E947A
:103DF0004C156B017C0127E030E040E050E00E9470
:103E0000782921E0210F611571058105910541F4A3
:103E1000E12FF0E0EB51FA4F84A5807F82600CC067
:103E2000613071058105910549F4E12FF0E0EB5116
:103E3000FA4F84A5807F816084A7122FC701B60145
:103E400029E030E040E050E00E94782962307105BE
:103E50008105910549F4E12FF0E0EB51FA4F84A57B
:103E6000807F836084A71F5F1F5F103C08F4BACF78
:103E700020E030E0F901EB51FA4F84A58F738064A4
:103E800084A72F5F3F4F203C3105A1F78091160694
:103E90008F70806B8093160609ED16E00E94A828AB
:103EA00020E036E040E050E00E944629D80191969B
:103EB0007C936E9390970E94A82820E036E040E023
:103EC00050E00E944629F801619371938F01F6E05A
:103ED000093F1F0719F781E08093CB0781E001C0FC
:103EE00082E08093CC0776C22FB7F89480919F012F
:103EF0009091A001A091A101B091A2012FBF40918A
:103F00001C0750911D0760911E0770911F078C01BF
:103F10009D01041B150B260B370BB901A801493E67
:103F200053406105710508F4B7C080931C07909356
:103F30001D07A0931E07B0931F071092D206109280
:103F4000D1061092D8061092D7061092D60610927B
:103F5000D50681E090E09093D4068093D30600E0EC
:103F600010E094ECC92E99E0D92E49E0F801EB510C
:103F7000FA4F84A58F70489FD0011124A75DB74FD9
:103F800016969C911697A090D506B090D606A90ECD
:103F9000B11CB092D606A092D50615969C911597A5
:103FA000E091D706F091D806E90FF11DF093D806FD
:103FB000E093D70611969C912091D3063091D406B8
:103FC000290F311D3093D4062093D306843049F550
:103FD000E090D106F090D20654E0E50EF11C81E2AB
:103FE000882E912C380161ED660E711CC301881971
:103FF0009909A1E08A1A910829F4F092D206E09278
:10400000D10615C0B2010E94992CDC01AB51BA4F08
:104010009C968C918F70893049F7B4E0EB0EF11CBF
:10402000E5CF883021F458E7C51A5CEED50A0F5F5A
:104030001F4F003C110509F099CF80911A0790910C
:104040001B07A80EB91EEA15FB0538F4AE1ABF0A05
:10405000B0921B07A0921A0704C010921B0710927F
:104060001A0780911A0790911B07C816D90620F4E9
:10407000D0921B07C0921A078091D1069091D20668
:104080002817390728F09093CA078093C90704C0FE
:104090003093CA072093C90780912D07811149C029
:1040A00020911A0730911B074091C9075091CA0708
:1040B000E0E2F7E0BEECCB2EB7E0DB2E80E090E054
:1040C000FF24F394BF01108111110FC0D6010D918F
:1040D0001C9111972017310740F012960D911C91F9
:1040E00013974017510708F0F0823196DB016C916D
:1040F000613009F0D4C427E0289FD001299FB00D7A
:104100001124A253B84FFC01E05EF84F22E0208357
:104110001496EC911497F0E0E354FA4F60AB1596C7
:104120006D917C9116974CE950E08DE297E00E94EA
:10413000022980E80E94A815811106C080E10E9432
:10414000A8158823F1F019C080910F068111F6CFD0
:1041500080912D078111F2CF80911907882311F0EA
:10416000815001C08CE0E82FF0E0E354FA4F90A9B1
:104170009923A1F380931907E1CF80910F0688233B
:1041800031F080E40E94A8158823A1F119C0809124
:104190002D078111F6CF909119072DE030E0892F7E
:1041A00090E00196B9010E94992CAC01982FFA0178
:1041B000E354FA4F80A9882391F340931907E1CF84
:1041C00080910F06811116C080912D07811112C0B8
:1041D00080910D0690910E060196B2010E94852CE9
:1041E00090930E0680930D0688E080930F0681E081
:1041F0008093100680E20E94A8158823D9F0809150
:104200000F06811117C080912D07811113C0809175
:104210000D0690910E06009719F48FEB90E001C007
:10422000019790930E0680930D0688E080930F0609
:104230001092100688E00E94A815882309F484C013
:1042400080910F06811180C080912D0781117CC063
:10425000B090190700911A0710911B076B2DCE0122
:1042600001960E94A41A8B81B5E08B9FC001112496
:104270000817190708F468C080910D0690910E0682
:104280000796B2010E94852C9C01FC01E054FF4F6F
:104290006C014CEBC40ED11CA9E0AA2ECF01B201D7
:1042A0000E94852CDC01AB51BA4F7D019C964C914C
:1042B000A42FAF70AA9ED0011124A75DB74F13960B
:1042C0005C91850F911DB2010E94992C2817390726
:1042D00024F4407FD7019C964C933197CE16DF068D
:1042E000E9F640E0B9E0BB9EF0011124E75DF74F2D
:1042F0008381481788F4C901840F911DB2010E947F
:10430000992CDC01AB51BA4F9C968C919C97807F85
:104310009C968C934F5FECCFF901EB51FA4F9B2D9C
:104320009F7084A5807F892B84A76B2DCE01019679
:104330000E94A41A8B81E5E08E9F001911091124B7
:1043400010931B0700931A0784E00E94A815882386
:1043500009F440C080910F0681113CC08DE297E0C6
:1043600020912D07222319F010922D0733C02091A0
:10437000D6062F932091D5062F932091D8062F9300
:104380002091D7062F932091D4062F932091D30606
:104390002F932091D2062F932091D1062F932FE4B3
:1043A00031E03F932F931F922CE92F939F938F938C
:1043B0000E94C4290FB6F894DEBF0FBECDBF0AC05D
:1043C00088E00E94A815811173C384E00E94A8159B
:1043D00081116EC380E0EDEBF1E081118FEF0024DD
:1043E00081938193819381930394D1F71092CF05A8
:1043F0001092CE051092CD051092CC058091CC077D
:10440000813009F474C0B8F0823009F429C38330D4
:1044100009F03AC382E090E09093E2058093E105D1
:104420009093E0058093DF051092E4051092E30578
:104430006EEC7BE025C38AE290E09093CD058093FB
:10444000CC058FE090E09093CF058093CE058091CE
:10445000CB07882319F06EE87EE002C069E87EE0B1
:104460008DEB95E00E94D7190AE210E01093CD057C
:104470000093CC058EE190E09093CF058093CE051C
:1044800061E87EE08DEB95E00E94D7191093CD0591
:104490000093CC058DE290E09093CF058093CE05FC
:1044A0006CE77EE08DEB95E00E94D7198091CD07F7
:1044B000813091F050F0823009F0E6C208E028E047
:1044C00044E75EE06DE270E00DC008E028E044E7FC
:1044D0005EE06FE070E006C008E028E044E75EE0E0
:1044E0006EE170E080E290E00E94A216CDC2709072
:1044F000A30173947092A30180911006811102C0F0
:104500008FEF01C081E0E0900F068E9DE02C11241A
:10451000872C912C940135952795359527953B8FC0
:104520002A8F190133E023223324C10163E0880F6D
:10453000991F6A95E1F7AC014255544F1A0179ED84
:10454000C72E76E0D72EE9EFAE2EE6E0BE2E0E2C7B
:10455000000CFF08D6018D919C91019660E076E0F9
:104560000E94852CF601819391936F0120910D0695
:1045700030910E0643E0220F331F4A95E1F7820186
:10458000021B130B98012E0D3F1D820F931F60E03D
:1045900076E00E94852C08E028E0A10160E070E050
:1045A0000E94A216AC14BD04A9F68091C90790918F
:1045B000CA0724E0969587952A95E1F7182F81314F
:1045C00008F010E1640103E0D594C7940A95E1F77F
:1045D000C401887199279C012257344F1901912CED
:1045E000372D3370732E191579F171100BC0D50169
:1045F0008D919C91019660E076E00E94852CF501FA
:1046000091838083D5012D913D915D0180910D06AF
:1046100090910E06B3E0880F991FBA95E1F7F20169
:10462000E81BF90BCF018E0D9F1D820F931F60E0D9
:1046300076E00E94852C08E028E0A10161E270E0AC
:104640000E94A2169394CFCFC601817099278C0146
:104650000258144F6801570118E0A11AB10812E17D
:1046600008E028E0A6016EE270E0C5010E94A216F3
:10467000115028E0A20EB11C1111F2CF38E2E31A5A
:10468000F108FBEFAF2EBB24BA94A4E08A2E912C44
:1046900080910D0690910E0680549F4F8A0D9B1DB0
:1046A000B2010E94852CAC014B515A4F6A01DA01CC
:1046B0009C96EC91E295E370F0E0EE0FFF1FE3545F
:1046C000FA4F45AD56AD08E028E06EE170E0C70155
:1046D0000E94A216F60184A5829586958695837020
:1046E00090E0FC01EE0FFF1FE354FA4FDC01AC5FDA
:1046F000B94F6C9170E08A8D9B8D0E94992C63E07C
:10470000880F991F6A95E1F745AD56AD480F591FBF
:1047100028E066E270E0C7010E94A216D6019C96CE
:104720001C911F70612FCE0101960E94A41AC884AB
:10473000D984612FCE0101960E94A41A7C80612F3A
:10474000CE0101960E94A41A8D81082F000F000F40
:10475000000F272D220F220F220FB401681B7109B1
:10476000E3E0660F771FEA95E1F7A601C7010E9413
:10477000A216BFEFAB1ABB0AE8E0EE0EF11CF1E1A6
:10478000AF16B10409F084CFD090190717E06D2D52
:10479000CE0101960E94A41A2C8130E02A5F3F4F7F
:1047A000812F90E0281739077CF008E028E046E7E1
:1047B0005BE060E070E033E0880F991F3A95E1F725
:1047C0000E94A2161F5FE3CFE091EB05F091EC058C
:1047D00000E210E0168705871487038786E3E82E3A
:1047E000F12CF08AE7866D2DCE0141960E94A41A25
:1047F000698928E0629FB0011124625F744F48E02C
:1048000050E0CE0101960E940229BE016F5F7F4FEA
:104810008091EB059091EC050E94B315E091EB05BA
:10482000F091EC0586E490E09687858794878387EE
:10483000F08AE7866D2DCE0141960E94A41A8B89DD
:104840004AE0BE016F5F7F4F35E0839FC0011124B6
:104850000E941129BC018091EB059091EC050E940A
:10486000B315E091EB05F091EC05168705871487E9
:1048700003870CE310E0108B078763E971E0CF0139
:104880000E94B315E091EB05F091EC0586E290E013
:104890009687858794878387108B07874AE0BE01B8
:1048A0006F5F7F4F80911A0790911B070E9411291B
:1048B000BC018091EB059091EC050E94B315E0914D
:1048C000EB05F091EC0580E490E09687858794876E
:1048D0008387108B078765E971E0CF010E94B315CC
:1048E000E091EB05F091EC0582E590E096878587F5
:1048F00094878387108B07874AE0BE016F5F7F4FE5
:104900008091C9079091CA070E941129BC0180912A
:10491000EB059091EC050E94B31500E010E0E12C4E
:10492000F12C40E0B701C8010E9437144FEFE41AA0
:10493000F40A50E4E516F104A1F70F5F1F4F0032AF
:10494000110569F700E610E0E12CF12C40E0B70119
:10495000C8010E9437146FEFE61AF60A80E4E816E1
:10496000F104A1F70F5F1F4F0038110569F780911F
:104970002D07882309F46CC000E210E0E12CF12C33
:1049800040E0B701C8010E9437149FEFE91AF90A05
:10499000A0E4EA16F104A1F70F5F1F4F00361105DE
:1049A00069F748E360E070E084E290E00E946D16F1
:1049B00048E36FE370E084E290E00E946D1604E04B
:1049C00010E041E0B80180E290E00E9437140F5FF0
:1049D0001F4F0C331105A9F704E010E041E0B801C6
:1049E0008FE590E00E9437140F5F1F4F0C331105C5
:1049F000A9F741E064E070E084E290E00E94C8150D
:104A000042E064E070E08BE590E00E94C81544E06D
:104A10006BE370E08BE590E00E94C81548E06BE323
:104A200070E084E290E00E94C815E091EB05F091FF
:104A3000EC0583E290E0968785879487838783E0FF
:104A400090E0908B87876DE277E0CF010E94B315ED
:104A500080910F068823C1F0815080930F0614C007
:104A600082E090E09093E2058093E1059093E00569
:104A70008093DF051092E4051092E30561E27DE08A
:104A800084ED95E00E94D71980E00E94991580E09E
:104A900090E0892B09F4EBC80E940000E8C8019659
:104AA000B7E0CB0ED11C8D30910509F00BCB41CB7B
:104AB0001092CC078FCCDF92EF92FF920F931F934F
:104AC000CF93DF93D82EF92EE42E062F10E0C801E5
:104AD0000196880F0E94211083E00E942110CD2DA5
:104AE000DF2D0C0F1D1FC017D10789F0E7FE03C093
:104AF000FE01849101C088810E942110F82E80E07F
:104B00000E9421108F2121968111EDCF01C081E0FB
:104B1000DF91CF911F910F91FF90EF90DF9008955B
:104B20000F931F93CF93DF938C0181E090E00E945D
:104B3000351480FF32C08AE090E00E9435149FEF68
:104B4000980F9E3F50F522E330E0D80150963C93F9
:104B50002E931F9728E330E052963C932E93519763
:104B6000CBE0D0E0D801ED91FC910190F081E02DF7
:104B7000682FC8010995CE010E9435142196C131D4
:104B8000D10581F780E00E94991588EE93E0DF91CE
:104B9000CF911F910F910C947A15DF91CF911F91B6
:104BA0000F91089504970C949025CF92DF92EF9285
:104BB000FF920F931F93CF93DF93EEE9F8E01382F8
:104BC000128288EE93E0A0E0B0E084839583A68310
:104BD000B7838FE191E0918380838FEF9FEF95877B
:104BE0008487EDEBF5E0138212821186128680E154
:104BF00083871086178215868DE391E091838083E9
:104C00008BE491E095838483108A1786128A118A37
:104C100081E0838B148A858B168A128E118E21E394
:104C200031E0308F278B2DEB31E0358F248F20E85A
:104C300030E0378F268F20E430E031A320A335E029
:104C400032A781A715A214A217A216A213A212A21C
:104C500080A7138E46EB50E15093BC014093BB01FB
:104C6000F5A7E4A744ED55E057A746A79DE0ADEEB4
:104C7000B5E0ED0119929A95E9F77AE0AAEFB5E06F
:104C8000ED01972F19929A95E9F74EE654E156AF48
:104C900045AF46E654E15093FD054093FC054EE4D4
:104CA00054E15093FF054093FE0546E454E15093D0
:104CB000010640930006E4E0F6E0DF01C32F1D92F9
:104CC000CA95E9F780838093050623E020930606C2
:104CD00080930706C0901701D0901801E090190149
:104CE000F0901A01C0920906D0920A06E0920B06D3
:104CF000F0920C0610920E0610920D0610920F06FE
:104D000010921006E1E1F6E090ECDF011D929A9519
:104D1000E9F790819F739064908344E04093190772
:104D2000E7EEF3E0F0931B07E0931A0710921C07DD
:104D300010921D0710921E0710921F071092200755
:104D40001092210710922207109223071092240735
:104D50001092250710922607109227071092280715
:104D60001092290710922A0710922B0710922C07F5
:104D70009CE9EDE2F7E0EF0119929A95E9F71092BC
:104D8000CA071092C9071092CB071092CC07109255
:104D9000CD07EEECF7E01182108213821282448379
:104DA000A4EFBAE1B683A58310861782A1E0B0E034
:104DB000B287A187BCE0B387CEE7DAE1D587C487A5
:104DC000C8EED3E0D787C687CAE0D0E0D18BC08BCE
:104DD000A9E0A28BCEEED9E1D48BC38BCCE4D4E096
:104DE000D68BC58BC4E1D0E0D08FC78B718F0EE519
:104DF00019E1138F028F0CED15E0158F048FD78FFB
:104E0000C68F30A30CED18E112A301A304EC19E046
:104E100014A303A3D6A3C5A358E057A3CCE4D8E1B9
:104E2000D1A7C0A7CCEADDE0D3A7C2A7C9E1D0E0F3
:104E3000D5A7C4A7D7E0D6A70CEB17E110AB07A7FF
:104E400000EA1FE012AB01AB92E3E92EF12CF4AAC9
:104E5000E3AACBE0C5AB6CE2E62E67E1F62EF7AA3B
:104E6000E6AA11AF00AF04E610E013AF02AF66E0B0
:104E700064AF0CE916E116AF05AFE8E8F3E1F09393
:104E80000E08E0930D0808EC10E010931008009352
:104E90000F08109211080CE016E11093130800930C
:104EA0001208F0931508E0931408EAEFF0E0F0938D
:104EB0001708E093160820931808ECE7F5E1F09343
:104EC0001A08E0931908ECE4FDE1F0931C08E09364
:104ED0001B080CE211E010931E0800931D0892E0DD
:104EE00090931F0809EF14E1109321080093200804
:104EF000F0932308E0932208EEE5F1E0F093250813
:104F0000E093240880932608E6E7F4E1F09328086C
:104F1000E0932708E9E2F8E010821182128283838D
:104F20008483158216820CE51DE110870783818733
:104F300012861386848785871686178604E51DE109
:104F4000118B008B928B138A148A858B868B178A20
:104F5000108E0CE41DE1128F018F238F148E158E9D
:104F6000968F978F10A211A20CE21DE113A302A34A
:104F700044A385A396A397A390A781A712A60CE0AC
:104F80001DE114A703A735A71FE116A714E1F12E11
:104F9000F7A620AB21AB12AAA3AB04EC1CE115AB26
:104FA00004AB66AB87ABF0AE21AF22AF93AF14AECC
:104FB0000CE71CE116AF05AFD7AF9093690850938B
:104FC0006A0890936B0890936C0890936D08109208
:104FD0006E08ECE5FCE1F0937008E0936F085093E5
:104FE000710840937208EFE0E0937308909374089F
:104FF000909375083093760810927708ECE3FCE103
:10500000F0937908E0937808A0937A0810927B08CF
:1050100080937C0880937D0820937E0810927F08FF
:1050200080938008E4E2FCE1F0938208E093810839
:1050300070938308509384083093850820938608E2
:10504000209387081092880880938908ECEDFBE193
:10505000F0938B08E0938A08C0938C0880938D08A6
:1050600080938E0880938F08209390081092910867
:1050700080939208E4ECFBE1F0939408E0939308AA
:10508000B0939508509396086093970840939808BA
:105090009093990810929A0830939B0884E89BE1BA
:1050A00090939D0880939C08DF91CF911F910F9161
:1050B000FF90EF90DF90CF9008958F929F92AF92E4
:1050C000BF92CF92DF92EF92FF92CF93DF93EC01EA
:1050D000688179818A819B816115710581059105BE
:1050E00021F464E279ED8BE597E02DE133EF41E0C7
:1050F00050E00E94462949015A019B01AC01A7EAF0
:10510000B1E40E9465296B017C01ACEEB4EFA5010E
:1051100094010E947329DC01CB018C0D9D1DAE1DF5
:10512000BF1DB7FF03C00197A109B04888839983C9
:10513000AA83BB83BC01CD019F77DF91CF91FF9004
:10514000EF90DF90CF90BF90AF909F908F90089599
:105150008F929F92AF92BF92CF92DF92EF92FF9287
:1051600060910C0170910D0180910E0190910F01E1
:10517000611571058105910521F464E279ED8BE5F6
:1051800097E02DE133EF41E050E00E9446294901CC
:105190005A019B01AC01A7EAB1E40E9465296B01A9
:1051A0007C01ACEEB4EFA50194010E947329DC01EF
:1051B000CB018C0D9D1DAE1DBF1DB7FF03C0019718
:1051C000A109B04880930C0190930D01A0930E01AA
:1051D000B0930F01BC01CD019F77FF90EF90DF905E
:1051E000CF90BF90AF909F908F90089560930C01E7
:1051F00070930D0180930E0190930F010895F89420
:105200000C94EA2CFB01DC014150504048F0059021
:105210000D920020C9F701C01D9241505040E0F7A7
:105220000895BB274A3031F4992322F4BDE29095CA
:1052300081959F4F0C941D29BB27FB015527AA2759
:10524000880F991FAA1FA41710F0A41B8395505113
:10525000B9F7A05DAA3308F0A95DA193009779F78B
:10526000B111B1931192CB010C943629DC01FC01F0
:10527000672F71917723E1F7329704C07C916D938A
:1052800070836291AE17BF07C8F30895052E97FB90
:105290001EF400940E945D2957FD07D00E947829D2
:1052A00007FC03D04EF40C945D2950954095309541
:1052B00021953F4F4F4F5F4F089590958095709582
:1052C00061957F4F8F4F9F4F08950E949A29A59F08
:1052D000900DB49F900DA49F800D911D11240895F1
:1052E000B7FF0C9465290E946529821B930B0895D2
:1052F000A1E21A2EAA1BBB1BFD010DC0AA1FBB1FDA
:10530000EE1FFF1FA217B307E407F50720F0A21B4B
:10531000B30BE40BF50B661F771F881F991F1A94B8
:1053200069F760957095809590959B01AC01BD01E2
:10533000CF010895A29FB001B39FC001A39F700D3C
:10534000811D1124911DB29F700D811D1124911D8D
:105350000895F999FECF92BD81BDF89A992780B53D
:105360000895262FF999FECF1FBA92BD81BD20BDA9
:105370000FB6F894FA9AF99A0FBE0196089581E053
:1053800090E0F8940C94EA2CAEE0B0E0EAECF9E29C
:105390000C94BB2C0D891E898F89988D26E02C8357
:1053A0001A83098397FF02C080E090E801979E83EB
:1053B0008D83AE01455E5F4F698D7A8DCE0101967A
:1053C0000E94F4294D815E8157FD0AC02F813885E6
:1053D000421753070CF49A01F801E20FF31F1082F1
:1053E0002E96E4E00C94D72CABE0B0E0EAEFF9E2C3
:1053F0000C94AD2C6C017B018A01FC011782168292
:10540000838181FFCCC1CE0101963C01F6019381DD
:10541000F70193FD859193FF81917F01882309F422
:10542000BAC1853239F493FD859193FF81917F0153
:10543000853229F4B60190E00E94EB2BE7CF912C46
:10544000212C312CFFE1F315D8F08B3279F038F4B0
:10545000803279F08332A1F4232D20611DC08D327A
:1054600061F0803369F4232D216016C0832D8260A2
:10547000382EE32DE4603E2E2AC0F32DF8601DC0C7
:1054800037FC2DC020ED280F2A3040F08E32B9F4C1
:1054900036FC81C1232D2064322E19C036FE06C091
:1054A0008AE0989E200D1124922E11C0EAE02E9ED3
:1054B000200D1124222EF32DF0623F2E08C08C36D1
:1054C00021F4832D8068382E02C0883641F4F7011C
:1054D00093FD859193FF81917F018111B3CF982F27
:1054E0009F7D9554933028F40C5F1F4F9FE3998361
:1054F0000DC0833631F0833771F0833509F059C020
:1055000021C0F801808189830E5F1F4F8824839416
:10551000912C530113C02801F2E04F0E511CF801E9
:10552000A080B18036FE03C0692D70E002C06FEF2D
:105530007FEFC5010E94E02B4C018201F32DFF7724
:105540003F2E16C0280122E0420E511CF801A08017
:10555000B18036FE03C0692D70E002C06FEF7FEFAF
:10556000C5010E94D52B4C01F32DF0683F2E82011E
:1055700033FC1BC0822D90E088169906B0F4B6016A
:1055800080E290E00E94EB2B2A94F4CFF50137FCE7
:10559000859137FE81915F01B60190E00E94EB2B6F
:1055A00021102A9421E0821A91088114910471F744
:1055B000E8C0843611F0893641F5F80137FE07C09E
:1055C00060817181828193810C5F1F4F08C060816F
:1055D0007181072E000C880B990B0E5F1F4FF32D66
:1055E000FF763F2E97FF09C0909580957095619545
:1055F0007F4F8F4F9F4FF0683F2E2AE030E0A3018E
:105600000E94272C882E861845C0853731F4232D1B
:105610002F7EB22E2AE030E025C0932D997FB92E3F
:105620008F36C1F018F4883579F0B5C0803719F09D
:10563000883721F0B0C0E92FE061BE2EB4FE0DC066
:10564000FB2DF460BF2E09C034FE0AC0292F26604E
:10565000B22E06C028E030E005C020E130E002C0F4
:1056600020E132E0F801B7FE07C0608171818281DC
:1056700093810C5F1F4F06C06081718180E090E0D4
:105680000E5F1F4FA3010E94272C882E8618FB2D2A
:10569000FF773F2E36FE0DC0232D2E7FA22E8914BC
:1056A00058F434FE0BC032FC09C0832D8E7EA82E28
:1056B00005C0B82CA32C03C0B82C01C0B92CA4FE83
:1056C0000FC0FE01E80DF11D8081803321F49A2D79
:1056D000997EA92E09C0A2FE06C0B394B39404C05B
:1056E0008A2D867809F0B394A3FC11C0A0FE06C0F1
:1056F000B21488F4280C922C9B180EC0B21460F4DB
:10570000B60180E290E00E94EB2BB394F7CFB21485
:1057100018F42B1802C0982C212CA4FE10C0B6013E
:1057200080E390E00E94EB2BA2FE17C0A1FC03C017
:1057300088E790E002C088E590E0B6010CC08A2DB1
:10574000867859F0A1FE02C08BE201C080E2A7FC7E
:105750008DE2B60190E00E94EB2B891438F4B6017B
:1057600080E390E00E94EB2B9A94F7CF8A94F301A8
:10577000E80DF11D8081B60190E00E94EB2B8110B5
:10578000F5CF222009F442CEB60180E290E00E94DB
:10579000EB2B2A94F6CFF6018681978102C08FEF1A
:1057A0009FEF2B96E2E10C94C92CFC01059061500F
:1057B00070400110D8F7809590958E0F9F1F089527
:1057C000FC016150704001900110D8F780959095D0
:1057D0008E0F9F1F08950F931F93CF93DF93FB01AD
:1057E000238121FD03C08FEF9FEF2CC022FF16C045
:1057F00046815781248135814217530744F4A081A3
:10580000B1819D012F5F3F4F318320838C9326818F
:1058100037812F5F3F4F3783268314C08B01EC0104
:10582000FB010084F185E02D0995892BE1F6D80173
:1058300016968D919C911797019617969C938E932F
:105840001697CE01DF91CF911F910F910895FA0124
:10585000AA27283051F1203181F1E8946F936E7FAF
:105860006E5F7F4F8F4F9F4FAF4FB1E03ED0B4E0A0
:105870003CD0670F781F891F9A1FA11D680F791FE1
:105880008A1F911DA11D6A0F711D811D911DA11DF2
:1058900020D009F468943F912AE0269F1124301902
:1058A000305D3193DEF6CF010895462F4770405D9D
:1058B0004193B3E00FD0C9F7F6CF462F4F70405D4C
:1058C0004A3318F0495D31FD4052419302D0A9F7A7
:1058D000EACFB4E0A6959795879577956795BA95A1
:1058E000C9F700976105710508959B01AC010A2E67
:1058F00006945795479537952795BA95C9F7620F3E
:10590000731F841F951FA01D0895AA1BBB1B51E187
:1059100007C0AA1FBB1FA617B70710F0A61BB70B1F
:10592000881F991F5A95A9F780959095BC01CD01C4
:10593000089597FB072E16F4009407D077FD09D041
:105940000E94852C07FC05D03EF4909581959F4FD1
:105950000895709561957F4F08952F923F924F92D1
:105960005F926F927F928F929F92AF92BF92CF92EF
:10597000DF92EF92FF920F931F93CF93DF93CDB7F8
:10598000DEB7CA1BDB0B0FB6F894DEBF0FBECDBF70
:1059900009942A88398848885F846E847D848C8441
:1059A0009B84AA84B984C884DF80EE80FD800C814A
:1059B0001B81AA81B981CE0FD11D0FB6F894DEBF2D
:1059C0000FBECDBFED010895EE0FFF1F0590F491BE
:0859D000E02D0994F894FFCFCB
:1059D800FFFFFFFF00E100000000000001000000E1
:1059E80000C180810000002614061400000000D2C7
:1059F8000FB9103F11E80FF30F67114311000000B2
:105A0800002C19D617D219D119000000005214D64B
:105A180017D219D1199025FCFF0000D22503010ADD
:105A2800484F5553494E470A20202025640A4A4FBB
:105A380042530A20202025640A4D41494E54454EC0
:105A4800414E43450A202020256420242F730A450F
:105A580041524E494E47530A202020256420242FC6
:0A5A6800730A00240050504C0000A7
:00000001FF
