:100000000C9452100C947A100C947A100C947A1070
:100010000C947A100C947A100C947A100C947A1038
:100020000C947A100C947A100C942F120C94A11248
:100030000C947A100C947A100C947A100C947A1018
:100040000C947A100C945B1B0C947A100C947A101C
:100050000C947A100C947A100C947A100C94041B63
:100060000C947A100C947A100C947A100C947A10E8
:100070000C947A100C947A100C947A100C947A10D8
:100080000C945B1C0C947A100C947A100C947A10DB
:100090000C947A100C947A100C947A100C947A10B8
:1000A0000C947A100C947A100C947A10F0F89C8EC0
:1000B0008783878E9CF8F00000FEFF030303030391
:1000C000070EFCF80000FEFF0303030303070EFC0A
:1000D000F80000FFFF00000000000000FFFF00002C
:1000E000FEFF8383838383C7EE7C380000F8FC0E19
:1000F00007030303070EFCF800003F7FE0C0808089
:10010000C0E07F3FFFFF01010101010101FFFF008E
:1001100000FFFF0C0C0C0C1C3E77E3C100007FFFBE
:10012000C0C0C0C0C0E0703F1F00001F3F70E0C0F3
:10013000C0C0E0703F1F00007FFFC1C1C1C1C1E36B
:10014000773E1C00001F3F70E0C0C0C0E0703F1F42
:10015000000000000001FFFF01000000D5F08D1439
:10016000A1C881CFD9F1AF200090340088800199D7
:1001700090340088800199903400888001999035EE
:1001800001109034008880008890340088800199A4
:1001900090320088800199903201108003329030B3
:1001A0000088800199903000888001999030008803
:1001B0008001999035011080011090340221800255
:1001C0002190320110800332903400888001999090
:1001D000340088800199903400888001999035011D
:1001E00010903400888000889034008880019990B5
:1001F00032008880019990320110800332903000E3
:100200008880019990300088800199903000888022
:100210000199903501108001109034022180022153
:100220009032011080033290300088800199903024
:100230000110902F0110902D022190300221902F5B
:100240000332902B011090280442903000888001E6
:100250009990300110902F0110902D0221903002C2
:1002600021902F0332902B01109028044291268078
:10027000011081022190260110902D022190290267
:10028000219028044280044290290110800221908C
:1002900029011090300221902D0221902F044280DC
:1002A00003329030008890320088913480011090A1
:1002B0002481008880008890340110902400888078
:1002C00000889034011090240088800088903501C7
:1002D000109034008880008890340110901F0088AE
:1002E00080008890320110901F0088800088903232
:1002F0000110901F0088800199901F00888000885D
:1003000090300110901D008880008890300110907E
:100310001D008880008890300110901D00888000AA
:100320008890350110901D0088800088903401105D
:10033000901F0088800199901F008880008890326B
:100340000110901F0088800199901F00888000880C
:10035000903401109024008880008890340110901F
:100360002400888000889034011090240088800048
:1003700088903501109034008880008890340110F6
:10038000901F008880008890320110901F008880A4
:10039000008890320110901F0088800199901F0002
:1003A0008880008890300110901D0088800088901F
:1003B000300110901D008880008890300110901D41
:1003C000008880008890350110901D00888000888A
:1003D00090340110901F0088800199901F00888040
:1003E000008890320110901F0088800199901F00B2
:1003F0008880008890300088800088902100888064
:10040000008890300110902F0110902D0110902144
:10041000008880008890300110902100888000883A
:10042000902F0110901C0088800199902B01109052
:10043000280110901C0088800199901C0088800081
:100440008890300088800088902100888000889003
:10045000300110902F0110902D0110902100888004
:1004600000889030011090210088800088902F0132
:1004700010901C0088800199902B01109028011089
:10048000901C0088800199901C008880008890262C
:100490000110901A008880019990260110902D017A
:1004A00010901A008880008890290110901A01107D
:1004B00090280110901C0088800199901C00888071
:1004C0000199901C0088800199901C008880008808
:1004D00090290110901D00888001999029011090A9
:1004E000300110901D0088800088902D0110901D13
:1004F0000088800088902F0110901F00888001994B
:10050000901F0088800199901F0088800199903089
:10051000008890320088913480008881019990345D
:1005200000888001999034008880019990350110ED
:10053000903400888000889034008880019990323F
:1005400000888001999032011080033290300110B0
:10055000901D008880008890300110901D008880D8
:10056000008890300110901D00888000889035012F
:1005700010901D008880008890340110901F008822
:10058000800199901F008880008890320110901F90
:100590000088800199901F0088800088903400882E
:1005A00080019990340088800199903400888001FE
:1005B000999035011090340088800088903400882C
:1005C0008001999032008880019990320110800357
:1005D0003290300110901D0088800088903001100A
:1005E000901D008880008890300110901D00888048
:1005F000008890350110901D00888000889034019B
:1006000010901F0088800199901F008880008890BA
:10061000320110901F0088800199901F008880008F
:100620008890300088800088902100888000889021
:10063000300110902F0110902D0110902100888022
:1006400000889030011090210088800088902F0150
:1006500010901C0088800199902B011090280110A7
:10066000901C0088800199901C0088800088903040
:1006700000888000889021008880008890300110D8
:10068000902F0110902D01109021008880008890FB
:1006900030011090210088800088902F0110901C5C
:1006A0000088800199902B011090280110901C0067
:1006B00088800199901C0088800088902601109005
:1006C0001A008880019990260110902D0110901A2F
:1006D000008880008890290110901A01109028014C
:1006E00010901C0088800199901C008880019990CE
:1006F0001C0088800199901C008880008890290146
:1007000010901D00888001999029011090300110EF
:10071000901D0088800088902D0110901D00888019
:100720000088902F0110901F0088800199901F0071
:1007300088800199901F00888001999030008890EE
:10074000320088913480008881019990340088803B
:1007500001999034008880019990350110903400FF
:1007600088800088903400888001999032008880C9
:1007700001999032011080033290300088800199F5
:1007800090300088800199903000888001999035E0
:10079000011080011090340221800221903201105A
:1007A0008003329034008880019990340088800161
:1007B0009990340088800199903501109034008818
:1007C00080008890340088800199903200888001F0
:1007D0009990320110800332903000888001999006
:1007E000300088800199903000888001999035010F
:1007F000108001109034022180022190320110807B
:100800000332902D01109034011090300110902D82
:100810000110902D01109034011090300110902D96
:100820000110902801109032011090300110902F8B
:10083000011090280110902F0110902D0110902B85
:1008400001109029011090300110902F0110902D6F
:1008500001109029011090300110902F0110902D5F
:100860000110902B0110902D0110902F011090324B
:100870000110902B01109030011090320110903433
:100880000110912D800110903481011090300110E1
:10089000902D0110902D0110903401109030011016
:1008A000902D01109028011090320110903001100D
:1008B000902F011090280110902F0110902D011001
:1008C000902B011090290110903C0110903B0110D9
:1008D0009039011090290110903C0110903B0110BB
:1008E00090390110902B01109037011090390110B0
:1008F000903B0110902B0110903C0110903E011094
:1009000090400110912480011090328101109034A8
:100910000110903701109024011090320110903492
:10092000011090370110901F01109030011090328B
:10093000011090370110901F01109030011090327B
:10094000011090370110901D01109030011090326D
:10095000011090340110901D011090350110903459
:10096000011090320110901F011090320110903050
:100970000110902F0110901F0110902B0110902D4D
:100980000110902F011091248001109032810110EC
:100990009034011090370110902401109032011012
:1009A0009034011090370110901F01109030011009
:1009B0009032011090370110901F011090300110FB
:1009C0009032011090370110901D011090340110E9
:1009D0009035011090390110901D011090340110D4
:1009E0009035011090390110901F011090390110BD
:1009F000903B0110903C0110901F0110903B0110A2
:100A000090370110903201109121800110902D81BA
:100A10000110902F01109030011090210110902DA5
:100A20000110902F011090300110901C011090289F
:100A30000110902D0110902F0110901C0110902892
:100A40000110902D0110902F011090210110902D78
:100A50000110902F01109030011090210110902D65
:100A60000110902F011090300110901C011090285F
:100A70000110902D0110902F0110901C0110902852
:100A80000110902D0110902F0110911A80011090EB
:100A90002681011090290110902D0110901A01104B
:100AA0009026011090290110902D0110901C01102A
:100AB00090280110902B0110902F0110901C011014
:100AC00090280110902B0110902F0110901D011003
:100AD00090290110902D011090300110901D0110EF
:100AE00090290110902D011090300110901F0110DD
:100AF000902B0110902F011090320110901F0110C7
:100B000090320110903401109035011080F0434C68
:100B10004541520000005745454400000000434154
:100B20004354555300005452454500000000484FBF
:100B30005553450000004D494E4500000000434814
:100B400055524348000053484552494646004241E9
:100B50004E4B0000000057415445520000005341E5
:100B60004C4F4F4E00004D494C4C00000000464198
:100B7000524D0000000010307FFF7F301000242213
:100B80001122110912241212211122121424000020
:100B9000D23F579200000000D27FA7020000000061
:100BA00022FFA70200000000D27FA7020000000081
:100BB0000B0E1C780E040000101C78101C0800009E
:100BC0002030302038100000101C78101C08202025
:100BD00020202020434F4E5354525543542041204F
:100BE000202020202020200A202020202020544FB8
:100BF000574E2041524F554E442020202020202087
:100C0000200A202020202020544845204C414755D0
:100C10004E495441202020202020200A202020203E
:100C200020204C414B452057495448204153202017
:100C300020202020200A2020202020204D414E5915
:100C400020434954495A454E532020202020200A51
:100C5000202020202020415320504F5353494C4501
:100C60002E20202020202020200A2020202020208C
:100C70004D4158494D495A4520594F555220202041
:100C80002020200A20202020202050524F46495466
:100C900020544F202020202020202020200A202007
:100CA00020202020554E4C4F434B204E45572020AE
:100CB000202020202020200A2020202020204255F3
:100CC000494C44494E475320414E44202020202087
:100CD000200A202020202020484156452046554EFD
:100CE00020202020202020202020200A202020201A
:100CF0002020504C4159494E4721202020202020BF
:100D000020202020200A20202020202020202020F9
:100D10002020202020202020202020202020200AE9
:100D200000202020202020202020202020202020E3
:100D3000202020202020202020200A2020202020C9
:100D4000204C4147554E49544120574153202020C3
:100D5000202020200A202020202020444556454CD9
:100D60004F504544204259202020202020200A2096
:100D70002020202020202020202020202020202073
:100D800020202020202020200A2020202020205247
:100D9000454E41544F20202020202020202020207C
:100DA00020200A2020202020202020202020475200
:100DB0004F54544553492020202020200A20202031
:100DC0002020202020202020202020202020202023
:100DD0002020202020200A20202020202020202029
:100DE0002020202020202020202020202020202003
:100DF0000A2020202020204D5553494320425920CD
:100E0000202020202020202020200A2020202020F8
:100E100020202020202020202020202020202020D2
:100E2000202020200A2020202020204A4F414B490A
:100E30004D202020202020202020202020200A209B
:100E400020202020202020202053494D4F4E535356
:100E50004F4E2020202020200A202020202020204B
:100E60002020202020202020202020202020202082
:100E700020200A00202020202020202020202020A8
:100E8000202020202020202020202020200A202078
:100E900020202020554E464F5254554E4154454C2B
:100EA000592020202020200A202020202020594FB7
:100EB000552052554E204F555420202020202020D0
:100EC000200A2020202020204F46204D4F4E4559FB
:100ED0002E202020202020202020200A202020201A
:100EE0002020202020202020202020202020202002
:100EF00020202020200A20202020202052454D455F
:100F00004D42455220544F20202020202020200AEE
:100F1000202020202020434845434B205448452092
:100F20002020202020202020200A202020202020D7
:100F300053544154495354494353202020202020E6
:100F40002020200A2020202020205748494C4520DE
:100F5000504C4159494E472020202020200A202073
:100F60002020202020202020202020202020202081
:100F7000202020202020200A202020202020545221
:100F80005920414741494E21202020202020202067
:100F9000200A202020202020202020202020202067
:100FA00020202020202020202020200A2020202057
:100FB0002020202020202020202020202020202031
:100FC00020202020200A007C447C7C7C38100048B3
:100FD000656C70004372656469747300506C61796C
:100FE00000526573756D650000000000003E5B4FA8
:100FF0005B3E3E6B4F6B3E1C3E7C3E1C183C7E3C79
:10100000181C577D571C1C5E7F5E1C00183C180086
:10101000FFE7C3E7FF0018241800FFE7DBE7FF3016
:10102000483A060E2629792926407F050507407F84
:1010300005253F5A3CE73C5A7F3E1C1C08081C1CF7
:101040003E7F14227F22145F5F005F5F06097F01ED
:101050007F006689956A606060606094A2FFA294D8
:1010600008047E040810207E201008082A1C0808A6
:101070001C2A08081E101010100C1E0C1E0C3038F4
:101080003E3830060E3E0E06000000000000005FF5
:1010900000000007000700147F147F14242A7F2A11
:1010A00012231308646236495620500008070300D3
:1010B000001C2241000041221C002A1C7F1C2A081F
:1010C000083E080800807030000808080808000082
:1010D00060600020100804023E5149453E00427FF6
:1010E000400072494949462141494D331814127F45
:1010F0001027454545393C4A4949314121110907E5
:101100003649494936464949291E00001400000065
:101110004034000000081422411414141414004137
:1011200022140802015909063E415D594E7C1211F4
:10113000127C7F494949363E414141227F4141412C
:101140003E7F494949417F090909013E41415173A7
:101150007F0808087F00417F41002040413F017F18
:10116000081422417F404040407F021C027F7F04E0
:1011700008107F3E4141413E7F090909063E415129
:10118000215E7F09192946264949493203017F0119
:10119000033F4040403F1F2040201F3F4038403F1A
:1011A000631408146303047804036159494D430030
:1011B0007F4141410204081020004141417F040267
:1011C00001020440404040400003070800205454FE
:1011D00078407F28444438384444442838444428DC
:1011E0007F385454541800087E090218A4A49C782F
:1011F0007F0804047800447D40002040403D007F8B
:101200001028440000417F40007C047804787C086A
:101210000404783844444438FC182424181824243E
:1012200018FC7C08040408485454542404043F4423
:10123000243C4040207C1C2040201C3C4030403C52
:1012400044281028444C9090907C4464544C4400B2
:101250000836410000007700000041360800020116
:101260000204023C2623263C1EA1A161123A404002
:10127000207A385454555921555579412154547880
:1012800041215554784020545579400C1E52721219
:1012900039555555593954545459395554545800A1
:1012A00000457C410002457D420001457C40F0291B
:1012B0002429F0F0282528F07C545545002054546A
:1012C0007C547C0A097F49324949493232484848AE
:1012D00032324A4848303A4141217A3A42402078F5
:1012E000009DA0A07D39444444393D4040403D3CF0
:1012F00024FF2424487E4943662B2FFC2F2BFF0913
:1013000029F620C0887E0903205454794100004406
:101310007D413048484A32384040227A007A0A0AF1
:10132000727D0D19317D2629292F28262929292664
:1013300030484D4020380808080808080808382FA9
:1013400010C8ACBA2F102834FA00007B0000081433
:101350002A142222142A14089500220095AA005566
:1013600000AAAA55AA55AA000000FF00101010FFFD
:1013700000141414FF001010FF00FF1010F010F004
:10138000141414FC001414F700FF0000FF00FF14F5
:1013900014F404FC141417101F10101F101F141441
:1013A000141F00101010F0000000001F101010108B
:1013B0001F10101010F010000000FF10101010107F
:1013C00010101010FF10000000FF140000FF00FFBD
:1013D00000001F10170000FC04F414141710171459
:1013E00014F404F40000FF00F7141414141414147B
:1013F000F700F7141414171410101F101F141414EE
:10140000F4141010F010F000001F101F0000001F57
:1014100014000000FC140000F010F01010FF10FF8A
:10142000141414FF141010101F00000000F010FF1F
:10143000FFFFFFFFF0F0F0F0F0FFFFFF0000000003
:1014400000FFFF0F0F0F0F0F38444438447C2A2A47
:101450003E147E02020606027E027E026355494168
:10146000633844443C04407E201E2006027E020273
:1014700099A5E7A5991C2A492A1C4C7201724C3087
:101480004A4D4D303048784830BC625A463D3E495E
:101490004949007E0101017E2A2A2A2A2A44445F02
:1014A000444440514A444040444A51400000FF01F6
:1014B00003E080FF000008086B6B08361236243604
:1014C000060F090F06000018180000001010003069
:1014D00040FF0101001F01011E00191D1712003CF1
:1014E0003C3C3C0000000000080B0002020201002E
:1014F0000904000001020200000524001001052477
:1015000001010104240206052406000107058103E8
:1015100010004009040100020A0000000705020251
:101520004000000705830240000004030904120183
:101530000002EF0201404123368000010102030155
:1015400041726475696E6F204C4C430055534220C4
:10155000494F20426F6172640000000B0E1C780E30
:10156000040000101C78101C0800002030302038C7
:10157000100000101C78101C080000D23F57920089
:10158000000000D27FA7020000000022FFA7020097
:10159000000000D27FA7020000F0487C247C48F0C5
:1015A00000FFFC308448800EFFFFFC300890400EA6
:1015B000FFFFFC300122400EFFC850C8A0409044FD
:1015C000A00000000000000000202020202020209B
:1015D00020202020200A444F20594F5520455645B1
:1015E00052200A5245475245542020202020200AEC
:1015F00043555454494E4720414C4C200A544845C9
:1016000020574545443F2020200A2020202020202C
:101610002020202020200A54414B4520534F4D4587
:101620002020200A53454544532E202020202020EE
:101630000A2020202020202020202020200A2020D6
:10164000202020202020202020200A0020202020D0
:1016500020202020202020200A44494420594F5592
:1016600020545259200A5448452046525549545353
:1016700020200A46524F4D204F5552202020200A4C
:101680004C4F43414C202020202020200A4341433E
:1016900054555320545245453F0A202020202020F5
:1016A0002020202020200A4E4F5720594F552043FC
:1016B000414E200A504C414E5420594F5552202043
:1016C0000A4F574E2120202020202020200A0020D1
:1016D00020202020202020202020200A4954275389
:1016E00020534F20202020200A5741524D2E2E2ECD
:1016F00020202020200A2020202020202020202000
:1017000020200A504C414E54204120464557200A83
:10171000545245455320544F202020200A50524F08
:101720005649444520202020200A534F4D45205340
:101730004841444520200A464F5220544845202025
:101740002020200A4C4147554E495449414E5321CF
:101750000A2020202020202020202020200A0020D5
:1017600020202020202020202020200A4556454EE1
:1017700020544845202020200A42455354204F46FB
:1017800020555320200A4D414B4520534F4D4520B5
:1017900020200A4D495354414B45532E2020200A06
:1017A0002020202020202020202020200A4E4F57BB
:1017B00020594F552043414E200A52454D4F564522
:1017C0002020202020200A4255494C44494E472ED3
:1017D0002020200A2020202020202020202020201F
:1017E0000A2020202020202020202020200A002045
:1017F00020202020202020202020200A412050527C
:1018000049455354202020200A50415353494E4704
:1018100020425920200A50524F504F5345532059CF
:101820004F550A544F204544554341544520200A02
:101830005448452050454F504C4520200A494620E9
:10184000594F55204255494C440A4120534D414C73
:101850004C20202020200A43485552434820464F20
:101860005220200A48494D2E2020202020202020D0
:101870000A2020202020202020202020200A0020B4
:1018800020202020202020202020200A41532054E6
:10189000484520544F574E200A47524F57532C204B
:1018A00054484520200A434F535420464F5220208D
:1018B00020200A494D504F5254494E472020200ABB
:1018C000464F4F4420474554532020200A50524F42
:1018D000424C454D415449432E0A202020202020CF
:1018E0002020202020200A4255494C442041204DF0
:1018F000494C4C0A544F2046454544205448452005
:101900000A4C4147554E495449414E532E0A002036
:1019100020202020202020202020200A544845522A
:1019200045204953204E4F200A5350414345204CF7
:1019300045465420200A544F2053544F52452041CD
:101940004C4C0A544845204D4F4E45592120200A01
:101950002020202020202020202020200A4255491D
:101960004C4420412042414E4B0A544F20494E43A3
:101970005245415345200A474F4C442053544F523F
:101980004147450A42592035303030242E2020204E
:101990000A2020202020202020202020200A002093
:1019A00020202020202020202020200A54484520CC
:1019B00042414E44495453200A434F554C4420530E
:1019C0004D454C4C200A594F5552204D4F4E4559CC
:1019D00020200A414E442054484559204152450A8E
:1019E000434F4D494E4720544F2020200A41535326
:1019F00041554C5420544845200A42414E4B212029
:101A00002020202020200A4255494C4420412050CB
:101A10004F53540A464F522054484520202020203E
:101A20000A534845524946462E202020200A0020CD
:101A300020202020202020202020200A544845203B
:101A4000474F4C44202020200A464556455220202E
:101A500020202020200A5245414348454420202090
:101A600020200A4C4147554E495441212020200A4C
:101A70000A4255494C4420412020200A4D494E45F8
:101A800020544F20202020200A494E4352455345E0
:101A900020202020200A54484520494E434F4D45E0
:101AA0002E200A2020202020202020202020200A54
:101AB000002020202020202020202020200A544800
:101AC0004520434F57424F5953200A415245204722
:101AD000455454494E47200A524553544C4553539C
:101AE0002E2020200A2020202020202020202020FE
:101AF000200A4255494C442041204E4557200A5364
:101B0000414C4F4F4E20544F2020200A454E544503
:101B1000525441494E2020200A5448454D20414E00
:101B200044202020200A434F4C4C45435420534F1F
:101B30004D450A54415845532E2020202020200A8C
:101B4000002020202020202020202020200A4D4F6F
:101B500052452050454F504C45200A574F554C4454
:101B6000204D4F564520200A494E2C2049462054EE
:101B7000484520200A484F5553455320415245209F
:101B8000200A5345525649434544202020200A57F5
:101B90004954482057415445522E200A20202020E5
:101BA00020202020202020200A545259204255492C
:101BB0004C44494E470A534F4D45205741544552D6
:101BC00020200A544F574552532E20202020200A0F
:101BD000002020202020202020202020200A4255E4
:101BE000494C442041204641524D0A544F20474918
:101BF000564520412020200A4A4F4220544F20546D
:101C0000484520200A434954495A454E532E202026
:101C1000200A2020202020202020202020200A41CF
:101C200052524F57205550202020200A544F205305
:101C300057495443482020200A4255494C44494EB4
:101C4000472E2020200A0020202020202020202095
:101C50002020200A57454C434F4D4520544F20200B
:101C60000A4C4147554E4954412C2020200A41201E
:101C7000534D414C4C204C414B450A494E20544851
:101C8000452057494C44200A57494C442057455356
:101C9000542E20200A202020202020202020202018
:101CA000200A4255494C4420534F4D4520200A48B4
:101CB0004F5553455320544F2020200A494E43523C
:101CC00045415345205448450A504F50554C4154C6
:101CD000494F4E2E200A00E0A05028140A050A148D
:101CE0002850A0E0A0E0A0E0A0E0A0E0A0E0A0E0FC
:101CF000C0800000000000FF8080FC8282FC809E8B
:101D0000929E80FF88F888F888F888F888F888F824
:101D100089FB8FFE8CF80024A870FC70A8240001B9
:101D200000F0AFF0000100F04F241B244FF0000042
:101D30000000C040C040C078C442C242C478C04025
:101D4000C040C000000000FC141C171C171C177CAE
:101D500047545754477C171C171C171C14FC00FFD2
:101D6000809F9191919F80FCAAA9FFA9AAFC8080E5
:101D7000808F898F80FF00FFC1FF417FC1FF00007E
:101D8000FF885522FF000000FF885522FF00003029
:101D9000FF160E0546A615A646050E16FF300000D6
:101DA000FF808C8C80FC85FC808C8C80FF0000FE8A
:101DB00025160E0506A675A606050E1625FE00FFBD
:101DC00080FE82FE82FE80BEA2BEA2BE80FF00C058
:101DD000B0ACABACB0C000000000000000000000E0
:101DE00000000000000000FF00043E0400FF8080AF
:101DF000808080808080808080808080800000FF64
:101E000080FC82FC80FF829B829B829B829B829BC8
:101E1000829B829B82FF0000000080E0FEFCF8F0C5
:101E2000E0F0F8FFFEFCF8F8FCFEFCE0000000C06B
:101E3000F0FCFFFFFFFFFFFFFFFFFFFFFF1F0F1F74
:101E4000FFFFFFFFF8E08000010303030303030328
:101E500001000000F0AEAAAEF0010303010100FE94
:101E6000915E3E111E1E111E1E113E5E91FE00FF70
:101E7000808F8F80FFA9A9A9FF808F8F80FF00002E
:101E80000C1933667CF9FFFE703C3E3319180C00C8
:101E90000000000080C3FFFFBC0000000000000C39
:101EA0001830FFFF0C0603082952FE4925100000D8
:101EB0000000000000000000B00000A170E150969A
:101EC0004F26900F1D070C009669004AE44A00480F
:101ED000444000806810000F99FB8F9DBDBBFB77CD
:101EE000D4D4DF1F1A1AFE7F5D5DFF805A0000A068
:101EF000A4AA0010BA3400FF5953F3FF9B9B9EFF26
:101F0000B9B996FF9595D19FF4940FFC295F91FF85
:101F10001838F8FF9294FFFF95D5F7BFB5DDD7F1DC
:101F20008F81F1F788C8F779C6467909FD9B0901C9
:101F300096F8008281828050716200775656007652
:101F4000763700A2B7730107720600782750007336
:101F5000347400775176007F55F7004771100032D6
:101F60004772007364730015A275006167940000E6
:101F70009F6060F4F2F6F200000000240027002ABF
:101F8000002D00300000000000250028002B002E4E
:101F900000310004080201104080401020408040C1
:101FA00080080204018040201002011080102040AF
:101FB0004020040404040403040502020202040392
:101FC00002020202060606060606040402020204D3
:101FD0000406011501260137014A015D01720188DD
:101FE000019F01B801D201EE010B022A024B026EE1
:101FF000029302BA02E40210033F037003A403DC5D
:1020000003170455049704DD0427057505C805204A
:10201000067D06E0064907B8072D08A9082D09B96D
:10202000094D0AEA0A900B400CFA0CC00D910E6F94
:102030000F5A1053115B1272139A14D41520178083
:1020400018F519801B231DDE1EB420A622B524E43A
:10205000263429A72B402E0031EA330037453ABCFD
:102060003D68414C456B49C84D68524F57805C00F4
:102070006210111213151617181A1C1D1F21232583
:1020800027292C2E3134373A3E4145494E52575C70
:1020900062686E757B838B939CA5AFB9C4D0DCE975
:1020A000F700402811241FBECFEFDAE0DEBFCDBF1E
:1020B00011E0A0E0B1E0E2ECFEE502C005900D9277
:1020C000AA3EB107D9F729E0AAEEB1E001C01D92FE
:1020D000A536B207E1F710E1C2E5D0E104C02197CF
:1020E000FE010E94592FC135D107C9F70E94341D46
:1020F0000C94742B0C940000CF93DF931F92CDB7F8
:10210000DEB76983DC01ED91FC910280F381E02D63
:1021100041E050E0BE016F5F7F4F09950F90DF9166
:10212000CF91089583E08093E9008091F2008823A5
:1021300019F08AE38093E8000895FC018485958571
:1021400097FD0BC09FB7F89482E08093E9008091DF
:10215000F2009FBF90E0019608959FB7F89482E047
:102160008093E9008091F2009FBF90E008958091F4
:10217000000281110DC082E08093FC0184E0809315
:10218000FD011092FF011092FE0181E08093000298
:102190008CEF91E008954091F9015091FA0120915E
:1021A000F7013091F80142175307B4F49091E80019
:1021B0009570E1F39091E80092FD19C08093F100D1
:1021C0008091F9019091FA0101968F739927892BDB
:1021D00019F48EEF8093E8008091F9019091FA0153
:1021E00001969093FA018093F90181E0089580E0CF
:1021F0000895DF92EF92FF920F931F93CF93DF9397
:10220000D82E8A017B01E40EF51EEB01CE15DF0509
:1022100071F0D7FE03C0FE01849101C088810E9445
:10222000CB1021968111F2CF8FEF9FEF01C0C80133
:10223000DF91CF911F910F91FF90EF90DF90089564
:102240000F931F93CF93DF931F92CDB7DEB782E03A
:10225000898342E450E068EE74E180E80E94F9105E
:102260000E94B710DC0112960D911C911397011575
:10227000110589F0D801ED91FC910280F381E02DE8
:10228000BE016F5F7F4FC801099597FD04C0F8013B
:1022900000851185ECCF89810F90DF91CF911F913F
:1022A0000F910895615030F02091F100FC012083DE
:1022B0000196F8CF289884E680930902089508953E
:1022C0008091F60108958F929F92AF92BF92CF9224
:1022D000DF92EF92FF920F931F93CF93DF936C01E6
:1022E0007B018A0180910B01882309F45CC08091F5
:1022F0000A02882309F457C08091F50180FF05C0C8
:102300008091E00082608093E000E801B12C8AEFC8
:10231000A82E93E0892E2AE3922E209711F4BB2059
:10232000D9F10E946F1881110AC0AA94AA20D9F18C
:1023300061E070E080E090E00E94CA1AEECF282FA2
:1023400030E0C217D3070CF48C2F9FB7F89480921B
:10235000E9002091E80025FF1DC0282F30E0C21BB6
:10236000D30BF701815020F041914093F100FACF57
:10237000E20EF31EBB2019F09092E8000AC0809193
:10238000E80085FD07C09092E800BB24B394209735
:1023900009F0B12C9FBFC1CF5D9884E680930802FD
:1023A0001016110644F081E090E0F60193838283D9
:1023B00080E090E001C0C801DF91CF911F910F91A3
:1023C000FF90EF90DF90CF90BF90AF909F908F9055
:1023D00008950E946F1890E008950F931F93CF9374
:1023E000DF931F92CDB7DEB78C01FC018485958504
:1023F00097FF0EC0CE0101960E944118019719F473
:10240000898190E002C08FEF9FEFF8019587848764
:10241000F801848595850F90DF91CF911F910F91E1
:102420000895CF93DF931F92CDB7DEB7FC0184856B
:10243000958597FD05C02FEF3FEF358724870BC0AB
:10244000CE0101960E944118019719F4898190E00C
:1024500002C08FEF9FEF0F90DF91CF9108951F92F1
:102460000F920FB60F9211248F939F938091E100EA
:102470009091E100937F9093E10083FF0FC0109251
:10248000E90091E09093EB001092EC0092E39093BE
:10249000ED0010920A0298E09093F00082FF20C0B5
:1024A00093E09093E9009091F200992319F09AE358
:1024B0009093E80090910802992339F090910802D6
:1024C000915090930802992389F1909109029923E0
:1024D00039F090910902915090930902992341F1AA
:1024E00084FF10C08091E2008E7E81608093E200C4
:1024F0008091E1008F7E8093E1008091F5018E7ED6
:10250000806111C080FF16C08091E2008E7E8061E4
:102510008093E2008091E1008E7E8093E1008091C3
:10252000F5018E7E81608093F50104C05D9ACDCF68
:10253000289AD6CF9F918F910F900FBE0F901F902A
:1025400018951F920F920FB60F921124CF92DF921F
:10255000EF92FF920F931F932F933F934F935F93AD
:102560006F937F938F939F93AF93BF93EF93FF935B
:10257000CF93DF93CDB7DEB76C97DEBFCDBF1092A0
:10258000E9008091E80083FFFBC168E0CE01459639
:102590000E94521182EF8093E8008D8987FF05C069
:1025A0009091E80090FFFCCF03C09EEF9093E8006D
:1025B000982F907609F0C6C09E894F89588D2F8933
:1025C000F88C91110CC0803829F48091F40180932B
:1025D000F10002C01092F1001092F10045C191305B
:1025E00051F4811141C14130510509F03DC1809143
:1025F000F4018D7F0BC0933061F4811135C14130FE
:10260000510509F031C18091F40182608093F40199
:102610002BC1953049F48091E80080FFFCCF822FD8
:1026200080688093E30020C1963009F05EC00B8D76
:102630001C8D22E01092E9001092FA011092F9012B
:10264000F21232C01092F8011092F7010E9420118C
:1026500099E0BE016F5F7F4FDB01E92F1D92EA9584
:10266000E9F79983FA8291E09E8390EA98879AEF3E
:1026700099872091F9013091FA01275F3F4F3C8300
:102680002B838D831092E9001092FA011092F901C8
:102690001093F8010093F70149E050E080E00E94B8
:1026A000F9100E942011E0C01093F8010093F70187
:1026B0000E94B710DC0112960D911C911397011521
:1026C000110509F4BBC0D801ED91FC910480F5819E
:1026D000E02DBE016B5E7F4FC8010995009709F0A0
:1026E000C7C0F80100851185EACF973009F445C1CC
:1026F000983021F481E08093F100B6C0993009F060
:10270000B3C0837009F039C1E1E1F1E081E031E06B
:1027100096E32081211109C08EE78093EA00109290
:10272000EA008F8980930A029FC08093E90030936A
:10273000EB0021912093EC009093ED008F5F8730A8
:1027400041F7EACF8B8D9C8D1092E9001092FA012F
:102750001092F9019093F8018093F701898D81110E
:1027600053C08E899D89913A49F4813209F005C19F
:1027700047E050E064E071E080E0BBC0913209F0D6
:10278000FCC0833269F48F89988DA0E0B0E080931B
:10279000000190930101A0930201B093030164C072
:1027A000803269F48091E80082FFFCCF67E084E02A
:1027B00091E00E9452118BEF8093E80055C0823265
:1027C00009F052C08F8980930B01EEEFFFE78591EE
:1027D00094918B3F9C4D19F0E0E0F8E002C0EEEFE1
:1027E000FAE08091040190910501A0910601B09159
:1027F0000701803B9440A105B10509F09EC080917E
:102800000B0180FF79C099C00E94B710FC010281C2
:1028100013810115110509F4B0C0D801ED91FC91A7
:102820000190F081E02DBE016B5E7F4FC8010995DC
:1028300081111AC0F80100851185EBCFF1E0FF1678
:1028400009F44EC0F3E0FF1298C08F89882309F481
:102850004AC0823089F440E86CE08CE495E10E9443
:10286000C627882309F489C08EEF8093E80088C0CA
:1028700018161906CCF381C0813029F440E86BE0CA
:1028800080E495E1ECCF833009F077C00E94B71067
:10289000DC011296ED90FC9013978E010F5F1F4F95
:1028A0006801E114F10479F0D701ED91FC91068003
:1028B000F781E02DB801C7010995080F111DF70137
:1028C000E084F184EECFD8011C92F6010190002043
:1028D000E9F73197BF016C197D0940E0C601BFCF10
:1028E0006EE275E102C06AE275E1FB01449150E0DD
:1028F00080E80E94F910B8CFEE3F2AE0F20751F0CD
:10290000808191818737A7E79A0721F09093FF0A8A
:102910008093FE0A87E797E7918380838091600028
:102920008093FB019BE088E10FB6F894A895809313
:1029300060000FBE9093600097CF808191818737B0
:10294000974709F091CFA8958091600088618093A6
:1029500060008091FB0180936000EE3FBAE0FB07CE
:1029600039F08091FE0A9091FF0A918380837CCF99
:102970001092FF0A1092FE0A77CF81E28093EB005B
:102980006C960FB6F894DEBF0FBECDBFDF91CF912E
:10299000FF91EF91BF91AF919F918F917F916F9137
:1029A0005F914F913F912F911F910F91FF90EF9069
:1029B000DF90CF900F900FBE0F901F9018950C9442
:1029C0001E2C80389105B8F460347105A0F490E1B4
:1029D00021E061FD24E060FD220F62FD2295687F09
:1029E000969FD0011124A80FA35FBD4F8C91822B1D
:1029F00040FF82278C9308952F923F924F925F92CF
:102A00006F927F928F929F92AF92BF92CF92DF92FE
:102A1000EF92FF920F931F93CF93DF93CDB7DEB763
:102A200027970FB6F894DEBF0FBECDBF9F838E836E
:102A30006A30A1F4DC0155962C91559751968D91F1
:102A40009C915297B8E02B9F800D911D1124EE812F
:102A5000FF81928B818B108A1786ADC06D3009F48F
:102A6000AAC0AE81BF811F960D911C91509700386E
:102A70001105BCF0EE81FF812589422F50E087854A
:102A80009089F6E02F9F800D911D1124AE81BF81AA
:102A900050969C938E931F9756962C91211175C03A
:102AA0008AC0EE81FF8181889288F0E48F169104BC
:102AB0000CF7AE81BF8155963C90C801B5E03B9EB6
:102AC000800D911D112418161906A4F6432C512CC3
:102AD000C401E8E03E9E800D911D112418161906D0
:102AE0004CF6AE81BF815496BC91BC83EE81FF81D0
:102AF000F389FD8325E0629FB0011124CB01885149
:102B0000904F3C011982F3012490F981F53009F4CA
:102B1000212C640128E02B8320FE03C03D813A83F1
:102B200002C08C818A839A81911104C0AC81BD81DD
:102B3000AB17B9F078018E2D801B831590F45601E8
:102B40008A2D8C19831548F44A81B501C7010E946A
:102B5000E114EFEFAE1ABE0AF3CFFFEFEF1AFF0A50
:102B6000EACF26942B8121502B83C40CD51C211134
:102B7000D3CF39813F5F3983040D151DC301019601
:102B80003C01363009F0BFCF75CF6AEF6403900186
:102B9000659F300D112420583F4F281739075CF4EA
:102BA000AE81BF81ED91FC9111970190F081E02DF4
:102BB0006AE0CD01099581E090E027960FB6F89480
:102BC000DEBF0FBECDBFDF91CF911F910F91FF9060
:102BD000EF90DF90CF90BF90AF909F908F907F90BD
:102BE0006F905F904F903F902F9008950F931F9399
:102BF000CF93DF93809164008E7F809364008091F7
:102C00007A00806480937A0080917A0086FDFCCF00
:102C1000C0917800D09179000E94A51A209164009B
:102C20002160209364008E0120E030E0980111279C
:102C30000027600F711F821F931FDF91CF911F919B
:102C40000F9108952D9A0895BC0180E090E00C94B6
:102C5000CA1A8FB18095807F669B88601C9B8460B8
:102C600008953E9A3F9A81E08093F601089582E0AC
:102C700090E00E94DF1481110C9431161092F6013D
:102C80003E983F980895EDE0F2E0A0E0B8E00080C3
:102C90000EBC8111012C1197A0FDFDCF0192B9F757
:102CA0000DB4089520911706282329F49091160653
:102CB000982381E009F480E008956115710579F0A9
:102CC000FB0101900020E9F73197AF01461B570B3C
:102CD000DC01ED91FC910280F381E02D099480E00C
:102CE00090E008952F923F924F925F926F927F9261
:102CF0008F929F92AF92BF92CF92DF92EF92FF920C
:102D00000F931F93CF93DF937C016B01C0E0D0E062
:102D100088248394912C04E010E098EF692E7724A6
:102D20007A942DEFA22EBB24BA94842F8470582E4F
:102D3000842F8270482E842F8870382E4170242E64
:102D4000219682E0880E911CA80CB91C552091F0A8
:102D500041E0B8016C0D7D1DC7018C0F9D1F0E94C5
:102D6000E11441E0B6016C0F7D1FC8018E0D9F1D5F
:102D70000E94E114442091F041E0B601601B710B08
:102D8000C7018C0F9D1F0E94E11441E0B6016C1B2E
:102D90007D0BC8018E0D9F1D0E94E114332091F020
:102DA00041E0B6016C0F7D1FC701801B910B0E9493
:102DB000E11441E0B8016C0D7D1DC7018C1B9D0B1A
:102DC0000E94E11421100DC0C017D107ECF4B7FC2C
:102DD000B7CF0150110982E0680E711CA60CB71C18
:102DE000AFCF41E0B6016C1B7D0BC701801B910B7F
:102DF0000E94E11441E0B601601B710BC7018C1BFE
:102E00009D0B0E94E114E0CFDF91CF911F910F91B4
:102E1000FF90EF90DF90CF90BF90AF909F908F90FA
:102E20007F906F905F904F903F902F9008959C01FE
:102E3000240F311D1216130674F5803891055CF5C8
:102E400097FF02C080E090E02138310514F020E8BF
:102E500030E0281BAB014770552731E001C0330F2C
:102E60004A95EAF777FF02C0695F7F4F43E07595A7
:102E700067954A95E1F77695762F6627779567955A
:102E8000860F971FFC01E35FFD4F215020F08081EA
:102E9000832B8193FACF08952F923F924F925F92A6
:102EA0006F927F928F929F92AF92BF92CF92DF925A
:102EB000EF92FF920F931F93CF93DF93CDB7DEB7BF
:102EC0002A970FB6F894DEBF0FBECDBF5A01822EEF
:102ED000912C9401280F391F37FDBAC08038910515
:102EE0000CF0B6C09B01200F311D37FDB1C060341E
:102EF00071050CF0ADC0AB0177FF04C04427552726
:102F0000461B570B477055279B0177FF02C0295F6F
:102F10003F4FE3E035952795EA95E1F777FF08C045
:102F20002150310968E070E0FB01E41BF50BAF01B3
:102F3000202E269426942694312C077019F0FFEF4A
:102F40002F1A3F0A220E331E39017694762C6624FE
:102F500077946794680E791EE12CF12C00E010E064
:102F6000B30160587F4F7A87698768E070E0FB01A2
:102F7000E41BF50BFA83E9832216330609F468C0D3
:102F80002830310509F464C02F3FFFEF3F070CF4F0
:102F900054C0E985FA85E00FF11FBF01635F7D4FE3
:102FA0007C836B83D801A60DB71DA35FBD4F6C0159
:102FB00060E070E0681579050CF03FC0E0E8CE16DF
:102FC000D10409F43AC0D7FC2CC02F3FFFEF3F07D4
:102FD00009F43AC0FB01EE0DFF1DEA0DFB1DE49163
:102FE000042E01C0EE0F0A94EAF7FC91EF2BEC934C
:102FF00041155105B1F02730310599F0FB01EE0D77
:10300000FF1DEA0DFB1DE4914E2E512C098002C0DC
:10301000559447940A94E2F7EB81FC81508045284F
:1030200040826F5F7F4FEB81FC813196FC83EB83A5
:10303000FFEFCF1ADF0A1196BDCF2F5F3F4F005829
:103040001F4FE80CF91C98CF41155105B9F6E9CF8F
:103050002A960FB6F894DEBF0FBECDBFDF91CF9199
:103060001F910F91FF90EF90DF90CF90BF90AF90A6
:103070009F908F907F906F905F904F903F902F9098
:10308000089520910A02211103C08FEF9FEF089548
:103090005FB7F89422E02093E9002091F20030E03D
:1030A0001216130614F421E030E0422FFC0184E6EE
:1030B000415038F02898809309029091F100919343
:1030C000F7CF2115310521F08091F200882319F006
:1030D0005FBFC90108958BE68093E800F9CF2FB751
:1030E000F89483E08093E9009091E800892F807242
:1030F00095FF04C09091F20080E4891B2FBF0895D2
:10310000CF92DF92EF92FF920F931F93CF93DF93B3
:103110006C017A018B01C0E0D0E0CE15DF0581F0B3
:10312000D8016D918D01D601ED91FC910190F08156
:10313000E02DC6010995892B11F02196EECF7E0175
:10314000C701DF91CF911F910F91FF90EF90DF901A
:10315000CF900895CF92DF92EF92FF921F93CF937B
:10316000DF93E82FF0E0E35BFE4F1081E62FF0E005
:10317000603330F4EF58FF4DE491CE2FD0E006C01D
:10318000EE0FFF1FEF58F04EC591D4916E01E12C68
:10319000F12C60E074E284EF90E0A70196010E94B8
:1031A000BB2BBA01A90141505109610971094115AF
:1031B000510581E06807710580F060E970ED83E0FA
:1031C00090E0A70196010E94BB2BBA01A9014150D2
:1031D00051096109710983E001C081E01130E9F012
:1031E000133091F590919100987F892B80939100F5
:1031F000509399004093980010929500109294007B
:10320000D0935E09C0935D0981E080935C09809151
:10321000710082608093710017C090915F099111D5
:1032200013C090918100987F892B809381005093E7
:10323000890040938800109285001092840080914C
:103240006F00826080936F00DF91CF911F91FF909C
:10325000EF90DF90CF900895E82FF0E0E35BFE4F12
:103260008081813019F0833089F0089580915F0961
:1032700081111CC080916F008D7F80936F008091C1
:103280004E09E0914C09F0914D090CC010925C0977
:1032900080915B0981110AC080915909E091570919
:1032A000F0915809908180958923808308954F92E9
:1032B0005F926F927F928F929F92AF92BF92CF92C6
:1032C000DF92EF92FF920F931F93CF93DF936C01E6
:1032D0003B01102F38E0832E912C7A01FF24270127
:1032E00093E0559447949A95E1F7CA01877099271E
:1032F000892B41F5D6011796CD91DC911897C30122
:103300009927BE010E940E2F4C9EF0014D9EF00D9C
:103310005C9EF00D11249927D60115964D915C9174
:1033200016978E0F9F1FFA01E80FF91F111106C0A3
:10333000C22FC09520812C23208327C0C081C22B9F
:10334000C08323C0C22FD0E04770A42EB12C7201DD
:1033500083E0EE0CFF1C8A95E1F79E0101C0220F6D
:103360004A95EAF7012FA701B301C6010E94571938
:10337000C4018A199B0902C0D595C7958A95E2F7C1
:103380002C2FA701485F5F4FA8CFDF91CF911F91EE
:103390000F91FF90EF90DF90CF90BF90AF909F90F4
:1033A0008F907F906F905F904F9008955F926F9293
:1033B0007F928F929F92AF92BF92CF92DF92EF92C5
:1033C000FF920F931F93CF93DF93EC016A3061F468
:1033D0008D859E859C878B872B898F859889820F09
:1033E000911D988B8F8775C0CB84DC84693031F454
:1033F00089E0C80ED11CDC86CB866BC0162F9DEFF2
:10340000C9169FEFD90654F48A8990E004962B855B
:103410003C85820F931F9C878B875BC08F8198852B
:10342000C816D9068CF7EF84F8888DEFE8168FEF71
:10343000F80654F389859A85E816F9062CF7603268
:1034400008F41FE780EE810F9FE9910F9A3118F47D
:103450009FEFE91AF90A8C3011F08B3119F49FEFC4
:10346000E91AF90A869594E0899F500111243601E2
:1034700084E0680E711C46011170F401EC19FD091D
:10348000EA0DFB1DE954F14E8491111103C08F70B8
:10349000582E04C0582E52948FE058228C818823D5
:1034A00051F001E08989811100E02FE0A701B4010A
:1034B000CE010E9457190989252DA701B401CE011B
:1034C0000E9457199FEF891A990A68147904A9F67E
:1034D0009BCF81E090E0DF91CF911F910F91FF9002
:1034E000EF90DF90CF90BF90AF909F908F907F90A4
:1034F0006F905F900895089580E090E008950E9495
:10350000342CEF92FF920F931F93CF93DF938C0194
:103510007B01C0E0D0E0F701EC0FFD1F6491662352
:1035200061F0D801ED91FC910190F081E02DC8018E
:103530000995892B11F02196EECFCE01DF91CF9125
:103540001F910F91FF90EF9008953FB7F8948091ED
:10355000610990916209A0916309B091640926B54F
:10356000A89B05C02F3F19F00196A11DB11D3FBFBB
:10357000BA2FA92F982F8827820F911DA11DB11D49
:10358000BC01CD0142E0660F771F881F991F4A9545
:10359000D1F708958F929F92AF92BF92CF92DF9210
:1035A000EF92FF926B017C010E94A51A4B015C0116
:1035B000C114D104E104F104F1F00E94A51ADC0168
:1035C000CB0188199909AA09BB09883E9340A10536
:1035D000B10570F321E0C21AD108E108F10888EEC4
:1035E000880E83E0981EA11CB11CC114D104E10413
:1035F000F10419F7DDCFFF90EF90DF90CF90BF90EF
:10360000AF909F908F9008951F920F920FB60F92D8
:1036100011242F933F938F939F93AF93BF938091E8
:10362000EF019091F001A091F101B091F201309180
:10363000600923E0230F2D3720F40196A11DB11D51
:1036400005C026E8230F0296A11DB11D2093600935
:103650008093EF019093F001A093F101B093F201F8
:103660008091610990916209A0916309B091640908
:103670000196A11DB11D8093610990936209A093E9
:103680006309B0936409BF91AF919F918F913F916E
:103690002F910F900FBE0F901F90189529E0629FF9
:1036A000F0011124EE57F74F29E0DC0101900D9253
:1036B0002A95E1F708951F920F920FB60F921124E9
:1036C0008F939F93AF93BF93EF93FF9380915F0985
:1036D000882309F449C080914F0990915009A09125
:1036E0005109B0915209892B8A2B8B2B51F1909162
:1036F0004E09E0914C09F0914D0980818927808322
:1037000080914F0990915009A0915109B0915209AF
:10371000181619061A061B06A4F580914F099091F8
:103720005009A0915109B09152090197A109B1091D
:1037300080934F0990935009A0935109B093520977
:1037400020C010925B0910925F0980916F008D7FFD
:1037500080936F0080914E09E0914C09F0914D09E2
:103760009081809589230CC080915A09811109C0EC
:1037700090914E09E0914C09F0914D098081892783
:103780008083FF91EF91BF91AF919F918F910F90A7
:103790000FBE0F901F901895CF93DF93D1E0E0916B
:1037A000EA01F091EB01DF011196B093EB01A093D8
:1037B000EA019491892F807FC92FCF70803821F43E
:1037C0008C2F0E942C19EBCF8039F9F4E0910B0279
:1037D000F0910C0209958D2780935A09E091EA0136
:1037E000F091EB01CF0101969093EB018093EA01F8
:1037F000649180914B09C81790F6C13009F052C00E
:1038000080914A098111CBCF4DC087FD3AC03296D5
:10381000F093EB01E093EA01FD01A491B0E0B92B34
:1038200020915D0930915E090E940F2C6C507E4FF3
:103830008F4F9F4F28EE33E040E050E00E94ED2B89
:1038400020935309309354094093550950935609D6
:103850008091530990915409A0915509B09156094E
:10386000892B8A2B8B2B21F581E090E0A0E0B0E042
:103870008093530990935409A0935509B093560926
:1038800017C0803E49F48091EC019091ED01909336
:10389000EB018093EA0183CF803F09F080CF109243
:1038A000EE0106C067FD7BCF8C2F0E94AA1877CF50
:1038B000DF91CF9108951F920F920FB60F921124AE
:1038C0002F933F934F935F936F937F938F939F9328
:1038D000AF93BF93EF93FF9380915C09882341F0EE
:1038E00080915B09811104C080915A09882351F1AC
:1038F0008091EE01882381F18091530990915409C0
:10390000A0915509B0915609892B8A2B8B2B21F157
:103910008091530990915409A0915509B09156098D
:103920000197A109B1098093530990935409A09379
:103930005509B0935609892B8A2B8B2B69F40E9469
:10394000CC1B0AC090915909E0915709F091580990
:10395000808189278083CCCFFF91EF91BF91AF9178
:103960009F918F917F916F915F914F913F912F9197
:103970000F900FBE0F901F90189590914B099230A9
:1039800009F471C0292F30E0F901E35BFE4F40815B
:10399000F901E85BF64F8083913031F420914809BA
:1039A000821302C090934A099F5F90934B0990E065
:1039B000FC01EE54F04E2491FC01ED56F04E849142
:1039C00030E0220F331FF901EB57F04E65917491EF
:1039D000F901E958F04EA591B4919C91982B9C93D4
:1039E000413019F04330D9F0089590916400977FE9
:1039F0009093640010928000109281009091810059
:103A000098609093810090918100916090938100E3
:103A100070934D0960934C0980934E0908959091DD
:103A20006500977F9093650010929000109291002E
:103A30009091910098609093910090919100916085
:103A40009093910070935809609357098093590996
:103A500080914B09882321F06CE380E00E94AA1832
:103A600080E00C942C190895CF93DF93CDB7DEB787
:103A70006D970FB6F894DEBF0FBECDBF789484B5B6
:103A8000826084BD84B5816084BD85B5826085BD5A
:103A900085B5816085BD80916E00816080936E00E8
:103AA00010928100809181008260809381008091DA
:103AB000810081608093810080918000816080938B
:103AC00080008091910082608093910080919100AC
:103AD000816080939100809190008160809390003C
:103AE0008091C10084608093C1008091C100826098
:103AF0008093C1008091C10081608093C10080915A
:103B0000C30081608093C3008091C0008260809375
:103B1000C0008091C20081608093C20080917A00D1
:103B2000846080937A0080917A00826080937A002A
:103B300080917A00816080937A0080917A00806819
:103B400080937A0010920A021092F4011092F5010B
:103B50008091D70081608093D70080EA8093D8005D
:103B600089B5806189BD89B5826089BD09B400FECF
:103B7000FDCF61E070E080E090E00E94CA1A809181
:103B8000D8008F7C80618093D8008091E000807F96
:103B90008093E0008091E1008E7E8093E1008DE0D3
:103BA0008093E200559A209A81EC80937C0085B145
:103BB000806F85B984B1877E84B984B1876E84B9FA
:103BC0005E9A5F988AB1806D8AB9769A6E9881B351
:103BD000806F81BB899880B38D7080BB80E58CBD80
:103BE00081E08DBD85E090E00E9424165F9A85E01B
:103BF00090E00E9424165E985C98ECE5F1E089E67E
:103C000091E024912EBD00000DB407FEFDCF31964A
:103C10008E179F07B1F75C9A81E8809364008091CA
:103C2000650081608093650080E00E9443160E94D9
:103C3000291687FF24C05C9885EA8EBD00000DB46C
:103C400007FEFDCF5C9A2E982F982D9880916400E6
:103C500080628093640081E083BF889513BEFCCFAF
:103C60002D980E9429168478843871F00E942916B4
:103C70008471843131F188EC90E00E9424160E9416
:103C8000291682FDEDCF3AC00E94221688EC90E002
:103C90000E9424162F9882E090E00E941E2C8F3FF5
:103CA00029F06FEF82E090E00E94262C84EF91E0F3
:103CB0000E9424162F9A0E94291684788438D9F3FA
:103CC000D5CF0E94221688EC90E00E9424162E98F0
:103CD00082E090E00E941E2C882329F060E082E0C0
:103CE00090E00E94262C84EF91E00E9424162E9AE8
:103CF0000E94291684718431D9F3BDCF0E94221607
:103D00000E94371681E090E00E94DF14182F147093
:103D100081FF3FC011112E98E0EFEE2EFF24FA94A0
:103D20000E94291686FF05C02E9A2F9A0E942216FD
:103D300030C0112331F024E0E216F10411F42E9A80
:103D40002F9881E00E94431600E128E54CEA50E0FC
:103D5000B70184E190E00E944C1780E00E94431676
:103D60008FE090E00E9424163FEFE31AF30A49E146
:103D7000E416F104A9F6112311F02F9A2D9880E989
:103D800091E00E9424160E9422168DE096E00E9487
:103D9000FB2782E390E00E9424160E9429168111DD
:103DA000F8CF8FE1809318060E9437160E943116D3
:103DB00085E00E94BD1C8DE00E94BD1C70EC472E6A
:103DC000512C8FB7F8944091EF015091F001609120
:103DD000F1017091F2018FBF80911906942F981B09
:103DE000892F90911A06992329F080931B0610922F
:103DF0001A064CC790911806891748F48F5F8917E7
:103E000008F044C781E083BF889513BE3FC711E027
:103E100010931A0640931906809114069091150686
:103E20000196909315068093140680911606809350
:103E300017060E942916809316068091EE018111C3
:103E40000EC089E691E09093ED018093EC01909390
:103E5000EB018093EA010E94CC1B1093EE0180914C
:103E60002508823009F498C330F4882359F0813052
:103E700009F43AC19BC3833009F48EC3843009F43A
:103E80008BC394C380E80E945216882381F08091EE
:103E90002608813039F020F0823049F481E005C0F5
:103EA00082E003C01092260802C08093260880E1B9
:103EB0000E945216882379F080912608813041F0C3
:103EC00028F0823041F41092260805C081E001C03C
:103ED00082E08093260888E00E945216882309F425
:103EE00065C380912608813009F4FAC028F0823039
:103EF00009F05CC383E0F5C0809123088111EEC016
:103F000010925E0610925D0610925F061092600697
:103F10001092220710922107109224071092230773
:103F20001092260710922507109228071092270753
:103F300010922A071092290710922C0710922B0733
:103F400010922E0710922D071092300710922F0713
:103F500084E08093710787EE93E0909373078093DA
:103F60007207109285071092220810922108109271
:103F7000230810922408E8E7F7E085E897E011921B
:103F80008E179F07E1F7EDE3F6E08AE496E01192E1
:103F90008E179F07E1F72FB7F8948091EF0190916A
:103FA000F001A091F101B091F2012FBF809374074D
:103FB00090937507A0937607B093770780913906A1
:103FC00090913A0604960E94F615611571058105D7
:103FD000910511F00E946B2BF12C80913906909184
:103FE0003A0604960E94F6154B015C0127E030E08A
:103FF00040E050E00E94ED2B0F2D10E0EE24E39402
:10400000EF0C611571058105910539F4F801EB5C40
:10401000F94F84A5807F82601FC0613071058105E2
:10402000910539F4F801EB5CF94F84A5807F81603C
:1040300013C0C501B40129E030E040E050E00E9427
:10404000ED2BF801EB5CF94F6230710581059105AC
:1040500049F484A5807F836084A7FE2CEE2DF0E0D8
:10406000EB5CF94F84A5807F84A7F394AFEBAF1589
:1040700008F0B3CF20E030E0F901EB5CF94F84A504
:104080008F70806484A72F5F3F4F203C3105A1F7DC
:10409000809166068F70806B8093660601E317E05F
:1040A0000E941D2B20E036E040E050E00E94BB2B38
:1040B000F80171A360A30E941D2B20E036E040E0D0
:1040C00050E00E94BB2BD8016D937D938D01B7E02A
:1040D00001351B0729F781E08093230881E001C0A7
:1040E00082E08093250862C28FB7F894C090EF01F8
:1040F000D090F001E090F101F090F2018FBF80913B
:10410000740790917507A0917607B0917707A70182
:104110009601281B390B4A0B5B0BDA01C901893E5A
:104120009340A105B10508F4D0C120912108309138
:10413000220839014FEF641A740A44E6469DC00113
:10414000479D900D112460912307709124076F5FA4
:104150007F4F0E94FA2E7B8F6A8FC0927407D09295
:104160007507E0927607F092770710922207109277
:104170002107109228071092270710922607109205
:1041800025071092300710922F0710922A071092DD
:10419000290710922E0710922D0710922C071092CB
:1041A0002B0781E090E0909324078093230700E0A1
:1041B00010E064ECC62E69E0D62EF801EB5CF94FF6
:1041C00044A54F7059E0549FD0011124AE57B74F0A
:1041D00016965C91169780912507909126071C01F1
:1041E000250E311C309226072092250715968C91BA
:1041F0001597E0912707F0912807E80FF11DF0933C
:104200002807E093270711965C91809123079091EE
:1042100024074C01850E911C90922407809223075D
:10422000443031F5E0902107F090220764E0E60E7B
:10423000F11C51E2A52EB12CC8018F529F4F9D8FCA
:104240008C8F8C8D9D8D8A199B09A1E0AA1AB108CB
:1042500011F1B2010E940E2FDC01AB5CB94F9C96AC
:104260008C918F70893069F7B4E0EB0EF11CE9CFC7
:10427000483029F458E7C51A5CEED50A28C0463004
:1042800079F480912D0790912E07019690932E0737
:1042900080932D071CC0F0922207E092210717C0DF
:1042A000473051F480912B0790912C070196909301
:1042B0002C0780932B070BC04A3049F480912907C3
:1042C00090912A07019690932A0780932907415FCE
:1042D0004F70433048F480912F079091300701963A
:1042E0009093300780932F070F5F1F4F003C1105FD
:1042F00009F063CF4A8D5B8D429DC001439D900DB7
:10430000529D900D112464E670E00E94FA2E809177
:10431000720790917307680F791FE617F70738F453
:104320006E1B7F0B709373076093720704C010922B
:104330007307109272078091720790917307C816E5
:10434000D90620F4D0927307C0927207203131054C
:1043500098F040912F075091300764E6649FC001A8
:10436000659F900D1124B90144E0769567954A95B3
:10437000E1F70E94FA2E02C064E670E07B01653628
:10438000710518F004E6E02EF12CF0923007E0926F
:104390002F072831310598F08091290790912A073D
:1043A00044E6489FF001499FF00D1124C90168E1DE
:1043B00070E00E94FA2ECF010E94FA2E02C064E63D
:1043C00070E08B016536710510F004E610E0109383
:1043D0002A07009329072436310598F080912D078C
:1043E00090912E0744E6489FF001499FF00D11245B
:1043F000C90164E670E00E94FA2ECF010E94FA2EF5
:1044000002C064E670E0FB016536710510F0E4E679
:10441000F0E0F0932E07E0932D072436310598F055
:1044200080912B0790912C0744E6489F6001499F9B
:10443000D00C1124C90164E670E00E94FA2EC60176
:104440000E94FA2E02C064E670E0CB016536710569
:1044500010F084E690E090932C0780932B070E0DCC
:104460001F1D0E0F1F1FF801E80FF91FF695E795A6
:10447000F695E7954091210750912207E49FC001EE
:10448000E59F900DF49F900D112464E670E00E946A
:10449000FA2EC4016815790508F4CB0128173907ED
:1044A00020F4709222086092210820912108309116
:1044B00022082230310548F08217930730F421504A
:1044C00031093093220820932108809185078111BA
:1044D00049C0209172073091730740912108509193
:1044E0002208E8E7F7E0B7E2CB2EB8E0DB2E80E069
:1044F00090E0FF24F394BF01108111110FC0D60189
:104500000D911C9111972017310740F012960D91D3
:104510001C9113974017510708F0F0823196DB0188
:104520006C91613009F0BAC327E0289FD001299F20
:10453000B00D1124A95DB74FFC01E858F84F22E0F7
:1045400020831496EC911497F0E0E35FF94F60AB91
:1045500015966D917C9116974CE950E085E897E0AF
:104560000E94772BE0902507F0902607C090270740
:10457000D0902807CE14DF0408F499C38091720705
:10458000909173078436910508F091C384E080937D
:104590002508109223080AC088E00E945216811153
:1045A000F2C484E00E9452168111EDC480E0EDE077
:1045B000F2E081118FEF00248193819381938193A5
:1045C0000394D1F710921F0610921E0610921D063A
:1045D00010921C0680912508823009F42FC330F414
:1045E0008823D9F0813009F474C04DC3833009F4B5
:1045F00036C3843009F047C382E090E090933206DE
:10460000809331069093300680932F0610923406E3
:104610001092330664E77EE032C38AE290E0909322
:104620001D0680931C068FE090E090931F068093F8
:104630001E0680912308882319F061EE7FE002C0F6
:104640006CED7FE08DE096E00E94811A0AE210E0B6
:1046500010931D0600931C068EE190E090931F06B8
:1046600080931E0664ED7FE08DE096E00E94811A43
:1046700010931D0600931C068DE290E090931F0698
:1046800080931E066FEC7FE08DE096E00E94811A19
:1046900080912608813091F050F0823009F0F3C209
:1046A00008E028E047EC5FE06DE270E00DC008E054
:1046B00028E047EC5FE06FE070E006C008E028E02B
:1046C00047EC5FE06EE170E080E290E00E944C1702
:1046D000DAC21091F3011F5F1093F301809160061D
:1046E000882311F081E001C08FEFE0905F068E9D7E
:1046F000E02C1124C12ED12C160135942794359429
:104700002794510153E0A522BB24C50163E0880F23
:10471000991F6A95E1F7DC01A255B44F5D0171E381
:10472000672E77E0772EE1E58E2EE7E09E2E0E2CA9
:10473000000CFF08F30180819181019660E076E032
:104740000E94FA2ED3018D939D933D0120915D0629
:1047500030915E0643E0220F331F4A95E1F7F201E4
:10476000E21BF30B9F012E0D3F1D820F931F60E094
:1047700076E00E94FA2E08E028E0A50160E070E0F3
:104780000E944C1786149704A9F6809121089091F5
:10479000220824E0969587952A95E1F7782EF0E196
:1047A000F81710F480E1782E560103E0B594A79431
:1047B0000A95E1F7C601887199279C012257344F69
:1047C0006901612C1370761479F111110BC0D401B9
:1047D0008D919C91019660E076E00E94FA2EF401A2
:1047E00091838083D4012D913D914D0180915D068F
:1047F00090915E06B3E0880F991FBA95E1F7F20138
:10480000E81BF90BCF018E0D9F1D820F931F60E0F7
:1048100076E00E94FA2E08E028E0A60161E270E04E
:104820000E944C176394CFCFC501817099279C01DA
:104830002258344F5901670138E0C31AD10812E1F8
:1048400008E028E0A5016EE270E0C6010E944C1766
:10485000115048E0C40ED11C1111F2CF58E2E51AF4
:10486000F108FBEFAF2EBB24BA94A4E08A2E912C62
:1048700080915D0690915E0680549F4F8A0D9B1D2E
:10488000B2010E94FA2EDC01AB5CB94F6D019C961F
:10489000EC91E295E370F0E0EE0FFF1FE35FF94F5C
:1048A00045AD56AD08E028E06EE170E0C7010E941A
:1048B0004C17F60184A5829586958695837090E0C5
:1048C000FC01EE0FFF1FE35FF94FDC01AC5AB94F5B
:1048D0006C9170E0C1010E940E2F63E0880F991F58
:1048E0006A95E1F745AD56AD480F591F28E066E2DD
:1048F00070E0C7010E944C17D6019C961C911F7056
:10490000612FCE0101960E944E1BC884D984612F6D
:10491000CE0101960E944E1B7C80612FCE01019634
:104920000E944E1B8D81082F000F000F000F272DB6
:10493000220F220F220FB401681B7109E3E0660FFA
:10494000771FEA95E1F7A601C7010E944C17BFEF58
:10495000AB1ABB0AE8E0EE0EF11CF1E1AF16B104B0
:1049600009F086CFD090710717E06D2DCE0101962A
:104970000E944E1B2C8130E02A5F3F4F812F90E038
:10498000281739077CF008E028E046E75BE060E0A4
:1049900070E033E0880F991F3A95E1F70E944C17B9
:1049A0001F5FE3CFE0913B06F0913C0600E210E090
:1049B000168705871487038786E3E82EF12CF08A93
:1049C000E7866D2DCE0141960E944E1B698928E035
:1049D000629FB0011124625F744F48E050E0CE0145
:1049E00001960E94772BBE016F5F7F4F80913B063F
:1049F00090913C060E945D16E0913B06F0913C06CA
:104A000086E490E09687858794878387F08AE78697
:104A10006D2DCE0141960E944E1B8B894AE0BE014E
:104A20006F5F7F4F35E0839FC00111240E94862B6A
:104A3000BC0180913B0690913C060E945D16E0917E
:104A40003B06F0913C0616870587148703870CE325
:104A500010E0108B078763EE71E0CF010E945D16B6
:104A6000E0913B06F0913C0686E290E096878587D0
:104A700094878387108B07874AE0BE016F5F7F4F63
:104A800080917207909173070E94862BBC018091E0
:104A90003B0690913C060E945D16E0913B06F0912A
:104AA0003C0680E490E09687858794878387108B07
:104AB000078765EE71E0CF010E945D16E0913B062D
:104AC000F0913C0682E590E09687858794878387FE
:104AD000108B07874AE0BE016F5F7F4F80912108EE
:104AE000909122080E94862BBC0180913B069091F8
:104AF0003C060E945D1600E010E0E12CF12C40E045
:104B0000B701C8010E94E1144FEFE41AF40A50E41F
:104B1000E516F104A1F70F5F1F4F0032110569F789
:104B200000E610E0E12CF12C40E0B701C8010E9442
:104B3000E1146FEFE61AF60A80E4E816F104A1F733
:104B40000F5F1F4F0038110569F780918507882393
:104B500009F46CC000E210E0E12CF12C40E0B70158
:104B6000C8010E94E1149FEFE91AF90AA0E4EA16CD
:104B7000F104A1F70F5F1F4F0036110569F748E3F5
:104B800060E070E084E290E00E94171748E36FE372
:104B900070E084E290E00E94171704E010E041E02A
:104BA000B80180E290E00E94E1140F5F1F4F0C33C8
:104BB0001105A9F704E010E041E0B8018FE590E0AD
:104BC0000E94E1140F5F1F4F0C331105A9F741E05C
:104BD00064E070E084E290E00E94721642E064E0DB
:104BE00070E08BE590E00E94721644E06BE370E0A9
:104BF0008BE590E00E94721648E06BE370E084E27F
:104C000090E00E947216E0913B06F0913C0683E230
:104C100090E0968785879487838783E090E0908BE8
:104C2000878765E877E0CF010E945D1680915F0677
:104C3000882349F1815080935F0625C082E090E08F
:104C400090933206809331069093300680932F061E
:104C5000109234061092330661E27DE010C082E0CB
:104C600090E09093320680933106909330068093C3
:104C70002F0610923406109233066EEC7BE084E22D
:104C800096E00E94811A80E00E94431680E090E046
:104C9000892B09F496C80E94000093C80196B7E0DA
:104CA000CB0ED11C8D30910509F025CC5BCC80E872
:104CB0000E945216882321F080915F06882331F0EC
:104CC00080E10E9452168823D1F015C0809185079B
:104CD0008111F6CF80917107882311F0815001C0B6
:104CE0008CE0E82FF0E0E35FF94F90A99923A1F35E
:104CF00080937107E5CF80915F06882331F080E4CF
:104D00000E9452168823A1F119C080918507811154
:104D1000F6CF909171072DE030E0892F90E0019659
:104D2000B9010E940E2FAC01982FFA01E35FF94FF1
:104D300080A9882391F340937107E1CF80915F06AA
:104D4000811116C080918507811112C080915D0686
:104D500090915E060196B2010E94FA2E90935E0633
:104D600080935D0688E080935F0681E08093600613
:104D700080E20E9452168823D9F080915F0681114B
:104D800017C080918507811113C080915D069091B5
:104D90005E06009719F48FEB90E001C001979093A5
:104DA0005E0680935D0688E080935F061092600641
:104DB00088E00E945216882309F484C080915F061F
:104DC000811180C08091850781117CC0909071070E
:104DD0000091720710917307692DCE0101960E9410
:104DE0004E1B8B81B5E08B9FC0011124081719075A
:104DF00008F468C080915D0690915E060796B20146
:104E00000E94FA2E9C01FC01E054FF4F3C014CEB48
:104E1000640E711CA9E08A2ECF01B2010E94FA2E05
:104E2000DC01AB5CB94F5D019C964C91A42FAF7037
:104E30008A9ED0011124AE57B74F13965C91850F0F
:104E4000911DB2010E940E2F2817390724F4407FCC
:104E5000D5019C964C9331976E167F06E9F640E09B
:104E6000B9E09B9EF0011124EE57F74F838148175C
:104E700088F4C901840F911DB2010E940E2FDC013C
:104E8000AB5CB94F9C968C919C97807F9C968C9341
:104E90004F5FECCFF901EB5CF94F992D9F7084A522
:104EA000807F892B84A7692DCE0101960E944E1B1D
:104EB0008B81E5E08E9F001911091124109373076F
:104EC0000093720784E00E945216882309F46ECB87
:104ED00080915F0681116ACB85E897E02091850774
:104EE000222369F120912408222331F120913007F7
:104EF0002F9320912F072F9320912E072F932091EE
:104F00002D072F9320912C072F9320912B072F9360
:104F100020912A072F93209129072F932FE431E026
:104F20003F932F931F922CE92F939F938F930E946F
:104F3000392C1092240821C01092850737CB21E02C
:104F400020932408FF92EF92DF92CF9220912407C2
:104F50002F93209123072F93209122072F932091A5
:104F600021072F932FE931E03F932F931F922CE9D4
:104F70002F939F938F930E94392C0FB6F894DEBF26
:104F80000FBECDBF13CB1092250810CBDF92EF924E
:104F9000FF920F931F93CF93DF93D82EF92EE42E19
:104FA000062F10E0C8010196880F0E94CB1083E005
:104FB0000E94CB10CD2DDF2D0C0F1D1FC017D10768
:104FC00089F0E7FE03C0FE01849101C088810E9440
:104FD000CB10F82E80E00E94CB108F2121968111FA
:104FE000EDCF01C081E0DF91CF911F910F91FF9034
:104FF000EF90DF9008950F931F93CF93DF938C0171
:1050000081E090E00E94DF1480FF32C08AE090E0EF
:105010000E94DF149FEF980F9E3F50F522E330E08F
:10502000D80150963C932E931F9728E330E0529678
:105030003C932E935197CBE0D0E0D801ED91FC91B9
:105040000190F081E02D682FC8010995CE010E94E2
:10505000DF142196C131D10581F780E00E9443160B
:1050600088EE93E0DF91CF911F910F910C9424165D
:10507000DF91CF911F910F91089504970C94FB2716
:10508000CF92DF92EF92FF920F931F93CF93DF9314
:10509000E7EFF8E01382128288EE93E0A0E0B0E040
:1050A00084839583A683B7838FE191E09183808386
:1050B0008FEF9FEF95878487EDE0F6E013821282F1
:1050C0001186128680E183871086178215868DE30C
:1050D00091E0918380838BE491E095838483108AAF
:1050E0001786128A118A81E0838B148A858B168A2F
:1050F000128E118E21E331E0308F278B2DE032E0CC
:10510000358F248F20E830E0378F268F20E430E081
:1051100031A320A345E042A781A715A214A217A29C
:1051200016A213A212A280A7138E20E631E13093BB
:105130000C0220930B02F5A7E4A724E236E037A780
:1051400026A79DE0ADE3B6E0ED0119929A95E9F747
:105150005AE0AAE4B6E0ED01952F19929A95E9F785
:1051600021EC35E136AF25AF29EB35E130934D0623
:1051700020934C0621EA35E130934F0620934E06EA
:1051800029E935E13093510620935006E4E5F6E035
:10519000DF01C42F1D92CA95E9F7808380935506DD
:1051A00023E02093560680935706C0901701D090B5
:1051B0001801E0901901F0901A01C0925906D0929E
:1051C0005A06E0925B06F0925C0610925E06109220
:1051D0005D0610925F0610926006E1E6F6E090EC44
:1051E000DF011D929A95E9F790819F7390649083F7
:1051F00034E03093710767EE73E070937307609348
:105200007207109274071092750710927607109229
:105210007707109278071092790710927A07109208
:105220007B0710927C0710927D0710927E071092E8
:105230007F071092800710928107109282071092C8
:105240008307109284079CE9E5E8F7E0EF011992E3
:105250009A95E9F7109222081092210810922308DB
:10526000109224081092250810922608E7E2F8E030
:105270001182108213821282348367E47CE1768388
:1052800065831086178261E070E072876187ACE009
:10529000A38761ED7BE17587648768EE73E07787AC
:1052A00066876AE070E0718B608BC9E0C28B61E455
:1052B0007BE1748B638B6CE474E0768B658B6FE0C1
:1052C00070E0708F678B518F61EB7AE1738F628F23
:1052D0006CED75E0758F648F64E170E0778F668F99
:1052E00040A36FE27AE172A361A360ED77E074A35B
:1052F00063A369E170E076A365A377E077A30FE984
:1053000019E111A700A704EC19E013A702A70EE109
:1053100010E015A704A768E066A70FE019E110AB3D
:1053200007A708EB1BE012AB01AB02E310E014ABE4
:1053300003ABBBE0B5AB0FE718E117AB06AB0CEA6C
:105340001DE011AF00AF04E610E013AF02AFD6E0EE
:10535000D4AF0FEE17E116AF05AFE0EAFFE0F09330
:105360006708E0936608E6E9F0E0F0936908E093E7
:10537000680810926A08EFE5F7E1F0936C08E09393
:105380006B08E4E9F1E1F0936E08E0936D08E8EC56
:10539000F0E0F0937008E0936F0820937108EFEC51
:1053A000F6E1F0937308E0937208E8E8F3E1F09314
:1053B0007508E0937408EAEFF0E0F0937708E09363
:1053C000760892E090937808ECE4F6E1F0937A089E
:1053D000E0937908ECE7F5E1F0937C08E0937B0833
:1053E000ECE2F1E0F0937E08E0937D0880937F0883
:1053F000E9ECF5E1F0938108E0938008E2E8F8E059
:1054000010821182328383838483158216820FEA8D
:105410001EE110870783818712869387848785879B
:105420001686178607EA1EE1118B008B928B138A72
:10543000948B858B868B178A108E0FE91EE1128F55
:10544000018F238F148E358F968F978F10A211A204
:105450000FE71EE113A302A334A385A346A397A3DA
:1054600090A781A712A60FE51EE114A703A745A7E1
:105470001EE116A704E607A720AB21AB12AA13ABC7
:1054800007E11EE115AB04ABD6AB87ABD6E9D0AFD5
:1054900021AF22AF93AF14AE0FEC1DE116AF05AFF5
:1054A00077AF9093C20874E17093C3089093C408D7
:1054B0009093C5089093C6081092C708EFEAFDE1E3
:1054C000F093C908E093C8086093CA083093CB08EA
:1054D000E2E3E093CC089093CD089093CE084093FC
:1054E000CF081092D0080FE81DE11093D208009366
:1054F000D108C093D3081092D4085093D508809354
:10550000D6082093D7081092D8088093D908C7E707
:10551000DDE1D093DB08C093DA085093DC08609398
:10552000DD08E093DE082093DF082093E008109266
:10553000E1088093E208EFE2FDE1F093E408E093F4
:10554000E308B093E5088093E6087093E70880933A
:10555000E8082093E9081092EA088093EB08E7E155
:10556000FDE1F093ED08E093EC08A093EE08609362
:10557000EF087093F0083093F1089093F2081092BE
:10558000F3085093F40887ED9CE19093F60880931C
:10559000F508DF91CF911F910F91FF90EF90DF9071
:1055A000CF9008958F929F92AF92BF92CF92DF9249
:1055B000EF92FF92CF93DF93EC01688179818A812A
:1055C0009B81611571058105910521F464E279EDF6
:1055D0008BE597E02DE133EF41E050E00E94BB2BDB
:1055E00049015A019B01AC01A7EAB1E40E94DA2B00
:1055F0006B017C01ACEEB4EFA50194010E94E82B95
:10560000DC01CB018C0D9D1DAE1DBF1DB7FF03C07E
:105610000197A109B04888839983AA83BB83BC0101
:10562000CD019F77DF91CF91FF90EF90DF90CF90EA
:10563000BF90AF909F908F9008958F929F92AF925E
:10564000BF92CF92DF92EF92FF9260910C01709126
:105650000D0180910E0190910F0161157105810579
:10566000910521F464E279ED8BE597E02DE133EFCC
:1056700041E050E00E94BB2B49015A019B01AC0163
:10568000A7EAB1E40E94DA2B6B017C01ACEEB4EF27
:10569000A50194010E94E82BDC01CB018C0D9D1D1E
:1056A000AE1DBF1DB7FF03C00197A109B04880938D
:1056B0000C0190930D01A0930E01B0930F01BC015A
:1056C000CD019F77FF90EF90DF90CF90BF90AF908C
:1056D0009F908F90089560930C0170930D018093BB
:1056E0000E0190930F010895F8940C945F2FFB0125
:1056F000DC014150504048F005900D920020C9F760
:1057000001C01D9241505040E0F70895BB274A3038
:1057100031F4992322F4BDE2909581959F4F0C942A
:10572000922BBB27FB015527AA27880F991FAA1F79
:10573000A41710F0A41B83955051B9F7A05DAA33AC
:1057400008F0A95DA193009779F7B111B193119277
:10575000CB010C94AB2BDC01FC01672F71917723FB
:10576000E1F7329704C07C916D9370836291AE171C
:10577000BF07C8F30895052E97FB1EF400940E94FE
:10578000D22B57FD07D00E94ED2B07FC03D04EF41F
:105790000C94D22B50954095309521953F4F4F4F0B
:1057A0005F4F089590958095709561957F4F8F4FCD
:1057B0009F4F08950E940F2CA59F900DB49F900DB0
:1057C000A49F800D911D11240895B7FF0C94DA2B2E
:1057D0000E94DA2B821B930B0895A1E21A2EAA1BBA
:1057E000BB1BFD010DC0AA1FBB1FEE1FFF1FA21791
:1057F000B307E407F50720F0A21BB30BE40BF50B8E
:10580000661F771F881F991F1A9469F76095709516
:10581000809590959B01AC01BD01CF010895A29F99
:10582000B001B39FC001A39F700D811D1124911D74
:10583000B29F700D811D1124911D0895F999FECF1D
:1058400092BD81BDF89A992780B50895262FF999C0
:10585000FECF1FBA92BD81BD20BD0FB6F894FA9A53
:10586000F99A0FBE0196089581E090E0F8940C94A7
:105870005F2FAEE0B0E0EFE3FCE20C94302F0D8937
:105880001E898F89988D26E02C831A83098397FFC0
:1058900002C080E090E801979E838D83AE01455E53
:1058A0005F4F698D7A8DCE0101960E94692C4D81E2
:1058B0005E8157FD0AC02F813885421753070CF4CB
:1058C0009A01F801E20FF31F10822E96E4E00C9487
:1058D0004C2FABE0B0E0EFE6FCE20C94222F6C0121
:1058E0007B018A01FC0117821682838181FFCCC172
:1058F000CE0101963C01F6019381F70193FD85915C
:1059000093FF81917F01882309F4BAC1853239F46C
:1059100093FD859193FF81917F01853229F4B60132
:1059200090E00E94602EE7CF912C212C312CFFE1DA
:10593000F315D8F08B3279F038F4803279F0833275
:10594000A1F4232D20611DC08D3261F0803369F4F4
:10595000232D216016C0832D8260382EE32DE46054
:105960003E2E2AC0F32DF8601DC037FC2DC020ED5F
:10597000280F2A3040F08E32B9F436FC81C1232D35
:105980002064322E19C036FE06C08AE0989E200D93
:105990001124922E11C0EAE02E9E200D1124222EF9
:1059A000F32DF0623F2E08C08C3621F4832D8068E1
:1059B000382E02C0883641F4F70193FD859193FF9C
:1059C00081917F018111B3CF982F9F7D95549330A2
:1059D00028F40C5F1F4F9FE399830DC0833631F08D
:1059E000833771F0833509F059C021C0F8018081F7
:1059F00089830E5F1F4F88248394912C530113C019
:105A00002801F2E04F0E511CF801A080B18036FE53
:105A100003C0692D70E002C06FEF7FEFC5010E94E7
:105A2000552E4C018201F32DFF773F2E16C0280121
:105A300022E0420E511CF801A080B18036FE03C066
:105A4000692D70E002C06FEF7FEFC5010E944A2E02
:105A50004C01F32DF0683F2E820133FC1BC0822DD8
:105A600090E088169906B0F4B60180E290E00E94BA
:105A7000602E2A94F4CFF50137FC859137FE819191
:105A80005F01B60190E00E94602E21102A9421E06F
:105A9000821A91088114910471F7E8C0843611F0DC
:105AA000893641F5F80137FE07C060817181828136
:105AB00093810C5F1F4F08C060817181072E000C1D
:105AC000880B990B0E5F1F4FF32DFF763F2E97FF2C
:105AD00009C090958095709561957F4F8F4F9F4F2E
