:100000000C94A20F0C94CA0F0C94CA0F0C94CA0F34
:100010000C94CA0F0C94CA0F0C94CA0F0C94CA0FFC
:100020000C94CA0F0C94CA0F0C947F110C94F1110C
:100030000C94CA0F0C94CA0F0C94CA0F0C94CA0FDC
:100040000C94CA0F0C94B81A0C94CA0F0C94CA0FD3
:100050000C94CA0F0C94CA0F0C94CA0F0C94541A27
:100060000C94CA0F0C94CA0F0C94CA0F0C94CA0FAC
:100070000C94CA0F0C94CA0F0C94CA0F0C94CA0F9C
:100080000C94B81B0C94CA0F0C94CA0F0C94CA0F92
:100090000C94CA0F0C94CA0F0C94CA0F0C94CA0F7C
:1000A0000C94CA0F0C94CA0F0C94CA0FF0F89C8ED3
:1000B0008783878E9CF8F00000FEFF030303030391
:1000C000070EFCF80000FEFF0303030303070EFC0A
:1000D000F80000FFFF00000000000000FFFF00002C
:1000E000FEFF8383838383C7EE7C380000F8FC0E19
:1000F00007030303070EFCF800003F7FE0C0808089
:10010000C0E07F3FFFFF01010101010101FFFF008E
:1001100000FFFF0C0C0C0C1C3E77E3C100007FFFBE
:10012000C0C0C0C0C0E0703F1F00001F3F70E0C0F3
:10013000C0C0E0703F1F00007FFFC1C1C1C1C1E36B
:10014000773E1C00001F3F70E0C0C0C0E0703F1F42
:10015000000000000001FFFF01000000D5F08D1439
:10016000A1C881CFD9F1AF200090340088800199D7
:1001700090340088800199903400888001999035EE
:1001800001109034008880008890340088800199A4
:1001900090320088800199903201108003329030B3
:1001A0000088800199903000888001999030008803
:1001B0008001999035011080011090340221800255
:1001C0002190320110800332903400888001999090
:1001D000340088800199903400888001999035011D
:1001E00010903400888000889034008880019990B5
:1001F00032008880019990320110800332903000E3
:100200008880019990300088800199903000888022
:100210000199903501108001109034022180022153
:100220009032011080033290300088800199903024
:100230000110902F0110902D022190300221902F5B
:100240000332902B011090280442903000888001E6
:100250009990300110902F0110902D0221903002C2
:1002600021902F0332902B01109028044291268078
:10027000011081022190260110902D022190290267
:10028000219028044280044290290110800221908C
:1002900029011090300221902D0221902F044280DC
:1002A00003329030008890320088913480011090A1
:1002B0002481008880008890340110902400888078
:1002C00000889034011090240088800088903501C7
:1002D000109034008880008890340110901F0088AE
:1002E00080008890320110901F0088800088903232
:1002F0000110901F0088800199901F00888000885D
:1003000090300110901D008880008890300110907E
:100310001D008880008890300110901D00888000AA
:100320008890350110901D0088800088903401105D
:10033000901F0088800199901F008880008890326B
:100340000110901F0088800199901F00888000880C
:10035000903401109024008880008890340110901F
:100360002400888000889034011090240088800048
:1003700088903501109034008880008890340110F6
:10038000901F008880008890320110901F008880A4
:10039000008890320110901F0088800199901F0002
:1003A0008880008890300110901D0088800088901F
:1003B000300110901D008880008890300110901D41
:1003C000008880008890350110901D00888000888A
:1003D00090340110901F0088800199901F00888040
:1003E000008890320110901F0088800199901F00B2
:1003F0008880008890300088800088902100888064
:10040000008890300110902F0110902D0110902144
:10041000008880008890300110902100888000883A
:10042000902F0110901C0088800199902B01109052
:10043000280110901C0088800199901C0088800081
:100440008890300088800088902100888000889003
:10045000300110902F0110902D0110902100888004
:1004600000889030011090210088800088902F0132
:1004700010901C0088800199902B01109028011089
:10048000901C0088800199901C008880008890262C
:100490000110901A008880019990260110902D017A
:1004A00010901A008880008890290110901A01107D
:1004B00090280110901C0088800199901C00888071
:1004C0000199901C0088800199901C008880008808
:1004D00090290110901D00888001999029011090A9
:1004E000300110901D0088800088902D0110901D13
:1004F0000088800088902F0110901F00888001994B
:10050000901F0088800199901F0088800199903089
:10051000008890320088913480008881019990345D
:1005200000888001999034008880019990350110ED
:10053000903400888000889034008880019990323F
:1005400000888001999032011080033290300110B0
:10055000901D008880008890300110901D008880D8
:10056000008890300110901D00888000889035012F
:1005700010901D008880008890340110901F008822
:10058000800199901F008880008890320110901F90
:100590000088800199901F0088800088903400882E
:1005A00080019990340088800199903400888001FE
:1005B000999035011090340088800088903400882C
:1005C0008001999032008880019990320110800357
:1005D0003290300110901D0088800088903001100A
:1005E000901D008880008890300110901D00888048
:1005F000008890350110901D00888000889034019B
:1006000010901F0088800199901F008880008890BA
:10061000320110901F0088800199901F008880008F
:100620008890300088800088902100888000889021
:10063000300110902F0110902D0110902100888022
:1006400000889030011090210088800088902F0150
:1006500010901C0088800199902B011090280110A7
:10066000901C0088800199901C0088800088903040
:1006700000888000889021008880008890300110D8
:10068000902F0110902D01109021008880008890FB
:1006900030011090210088800088902F0110901C5C
:1006A0000088800199902B011090280110901C0067
:1006B00088800199901C0088800088902601109005
:1006C0001A008880019990260110902D0110901A2F
:1006D000008880008890290110901A01109028014C
:1006E00010901C0088800199901C008880019990CE
:1006F0001C0088800199901C008880008890290146
:1007000010901D00888001999029011090300110EF
:10071000901D0088800088902D0110901D00888019
:100720000088902F0110901F0088800199901F0071
:1007300088800199901F00888001999030008890EE
:10074000320088913480008881019990340088803B
:1007500001999034008880019990350110903400FF
:1007600088800088903400888001999032008880C9
:1007700001999032011080033290300088800199F5
:1007800090300088800199903000888001999035E0
:10079000011080011090340221800221903201105A
:1007A0008003329034008880019990340088800161
:1007B0009990340088800199903501109034008818
:1007C00080008890340088800199903200888001F0
:1007D0009990320110800332903000888001999006
:1007E000300088800199903000888001999035010F
:1007F000108001109034022180022190320110807B
:100800000332902D01109034011090300110902D82
:100810000110902D01109034011090300110902D96
:100820000110902801109032011090300110902F8B
:10083000011090280110902F0110902D0110902B85
:1008400001109029011090300110902F0110902D6F
:1008500001109029011090300110902F0110902D5F
:100860000110902B0110902D0110902F011090324B
:100870000110902B01109030011090320110903433
:100880000110912D800110903481011090300110E1
:10089000902D0110902D0110903401109030011016
:1008A000902D01109028011090320110903001100D
:1008B000902F011090280110902F0110902D011001
:1008C000902B011090290110903C0110903B0110D9
:1008D0009039011090290110903C0110903B0110BB
:1008E00090390110902B01109037011090390110B0
:1008F000903B0110902B0110903C0110903E011094
:1009000090400110912480011090328101109034A8
:100910000110903701109024011090320110903492
:10092000011090370110901F01109030011090328B
:10093000011090370110901F01109030011090327B
:10094000011090370110901D01109030011090326D
:10095000011090340110901D011090350110903459
:10096000011090320110901F011090320110903050
:100970000110902F0110901F0110902B0110902D4D
:100980000110902F011091248001109032810110EC
:100990009034011090370110902401109032011012
:1009A0009034011090370110901F01109030011009
:1009B0009032011090370110901F011090300110FB
:1009C0009032011090370110901D011090340110E9
:1009D0009035011090390110901D011090340110D4
:1009E0009035011090390110901F011090390110BD
:1009F000903B0110903C0110901F0110903B0110A2
:100A000090370110903201109121800110902D81BA
:100A10000110902F01109030011090210110902DA5
:100A20000110902F011090300110901C011090289F
:100A30000110902D0110902F0110901C0110902892
:100A40000110902D0110902F011090210110902D78
:100A50000110902F01109030011090210110902D65
:100A60000110902F011090300110901C011090285F
:100A70000110902D0110902F0110901C0110902852
:100A80000110902D0110902F0110911A80011090EB
:100A90002681011090290110902D0110901A01104B
:100AA0009026011090290110902D0110901C01102A
:100AB00090280110902B0110902F0110901C011014
:100AC00090280110902B0110902F0110901D011003
:100AD00090290110902D011090300110901D0110EF
:100AE00090290110902D011090300110901F0110DD
:100AF000902B0110902F011090320110901F0110C7
:100B000090320110903401109035011080F0434C68
:100B10004541520000005745454400000000434154
:100B20004354555300005452454500000000484FBF
:100B30005553450000004D494E4500000000434814
:100B400055524348000053484552494646004241E9
:100B50004E4B0000000057415445520000005341E5
:100B60004C4F4F4E00004D494C4C00000000464198
:100B7000524D0000000010307FFF7F301000242213
:100B80001122110912241212211122121424000020
:100B9000D23F579200000000D27FA7020000000061
:100BA00022FFA70200000000D27FA7020000000081
:100BB0000B0E1C780E040000101C78101C0800009E
:100BC0002030302038100000101C78101C08202025
:100BD00020202020434F4E5354525543542041204F
:100BE000202020202020200A202020202020544FB8
:100BF000574E2041524F554E442020202020202087
:100C0000200A202020202020544845204C414755D0
:100C10004E495441202020202020200A202020203E
:100C200020204C414B452057495448204153202017
:100C300020202020200A2020202020204D414E5915
:100C400020434954495A454E532020202020200A51
:100C5000202020202020415320504F5353494C4501
:100C60002E20202020202020200A2020202020208C
:100C70004D4158494D495A4520594F555220202041
:100C80002020200A20202020202050524F46495466
:100C900020544F202020202020202020200A202007
:100CA00020202020554E4C4F434B204E45572020AE
:100CB000202020202020200A2020202020204255F3
:100CC000494C44494E475320414E44202020202087
:100CD000200A202020202020484156452046554EFD
:100CE00020202020202020202020200A202020201A
:100CF0002020504C4159494E4721202020202020BF
:100D000020202020200A20202020202020202020F9
:100D10002020202020202020202020202020200AE9
:100D200000202020202020202020202020202020E3
:100D3000202020202020202020200A2020202020C9
:100D4000204C4147554E49544120574153202020C3
:100D5000202020200A202020202020444556454CD9
:100D60004F504544204259202020202020200A2096
:100D70002020202020202020202020202020202073
:100D800020202020202020200A2020202020205247
:100D9000454E41544F20202020202020202020207C
:100DA00020200A2020202020202020202020475200
:100DB0004F54544553492020202020200A20202031
:100DC0002020202020202020202020202020202023
:100DD0002020202020200A20202020202020202029
:100DE0002020202020202020202020202020202003
:100DF0000A2020202020204D5553494320425920CD
:100E0000202020202020202020200A2020202020F8
:100E100020202020202020202020202020202020D2
:100E2000202020200A2020202020204A4F414B490A
:100E30004D202020202020202020202020200A209B
:100E400020202020202020202053494D4F4E535356
:100E50004F4E2020202020200A202020202020204B
:100E60002020202020202020202020202020202082
:100E700020200A007C447C7C7C38100048656C7023
:100E8000004372656469747300506C617900526547
:100E900073756D650000000000003E5B4F5B3E3ED9
:100EA0006B4F6B3E1C3E7C3E1C183C7E3C181C5716
:100EB0007D571C1C5E7F5E1C00183C1800FFE7C3BA
:100EC000E7FF0018241800FFE7DBE7FF30483A0689
:100ED0000E2629792926407F050507407F05253FF5
:100EE0005A3CE73C5A7F3E1C1C08081C1C3E7F14E1
:100EF000227F22145F5F005F5F06097F017F00662B
:100F000089956A606060606094A2FFA29408047E84
:100F1000040810207E201008082A1C08081C2A0833
:100F2000081E101010100C1E0C1E0C30383E3830ED
:100F3000060E3E0E06000000000000005F000000EC
:100F400007000700147F147F14242A7F2A1223131A
:100F500008646236495620500008070300001C222E
:100F600041000041221C002A1C7F1C2A08083E0860
:100F70000800807030000808080808000060600061
:100F800020100804023E5149453E00427F40007255
:100F9000494949462141494D331814127F102745CC
:100FA0004545393C4A4949314121110907364949EA
:100FB0004936464949291E0000140000004034000B
:100FC00000000814224114141414140041221408BF
:100FD00002015909063E415D594E7C1211127C7F77
:100FE000494949363E414141227F4141413E7F4985
:100FF0004949417F090909013E414151737F080870
:10100000087F00417F41002040413F017F081422BA
:10101000417F404040407F021C027F7F0408107FD8
:101020003E4141413E7F090909063E4151215E7F13
:1010300009192946264949493203017F01033F40E6
:1010400040403F1F2040201F3F4038403F6314086E
:10105000146303047804036159494D43007F4141FF
:10106000410204081020004141417F0402010204B2
:101070004040404040000307080020545478407F1F
:10108000284444383844444428384444287F385459
:1010900054541800087E090218A4A49C787F080400
:1010A000047800447D40002040403D007F102844EB
:1010B0000000417F40007C047804787C08040478B8
:1010C0003844444438FC1824241818242418FC7C80
:1010D00008040408485454542404043F44243C4065
:1010E00040207C1C2040201C3C4030403C442810C8
:1010F00028444C9090907C4464544C440008364101
:1011000000000077000000413608000201020402DE
:101110003C2623263C1EA1A161123A4040207A3889
:1011200054545559215555794121545478412155EC
:1011300054784020545579400C1E5272123955553E
:101140005559395454545939555454580000457C14
:10115000410002457D420001457C40F0292429F0F0
:10116000F0282528F07C545545002054547C547CAC
:101170000A097F4932494949323248484832324A9D
:101180004848303A4141217A3A42402078009DA0B7
:10119000A07D39444444393D4040403D3C24FF2437
:1011A00024487E4943662B2FFC2F2BFF0929F6206C
:1011B000C0887E090320545479410000447D4130A9
:1011C00048484A32384040227A007A0A0A727D0D35
:1011D00019317D2629292F28262929292630484DED
:1011E0004020380808080808080808382F10C8AC3C
:1011F000BA2F102834FA00007B000008142A1422A9
:1012000022142A14089500220095AA005500AAAAC3
:1012100055AA55AA000000FF00101010FF0014147A
:1012200014FF001010FF00FF1010F010F014141441
:10123000FC001414F700FF0000FF00FF1414F40476
:10124000FC141417101F10101F101F1414141F006B
:10125000101010F0000000001F101010101F1010D0
:101260001010F010000000FF1010101010101010DF
:1012700010FF10000000FF140000FF00FF00001F1F
:1012800010170000FC04F414141710171414F404BD
:10129000F40000FF00F714141414141414F700F7EA
:1012A000141414171410101F101F141414F4141015
:1012B00010F010F000001F101F0000001F140000AD
:1012C00000FC140000F010F01010FF10FF141414B4
:1012D000FF141010101F00000000F010FFFFFFFFB0
:1012E000FFF0F0F0F0F0FFFFFF0000000000FFFF54
:1012F0000F0F0F0F0F38444438447C2A2A3E147EC7
:1013000002020606027E027E0263554941633844AA
:10131000443C04407E201E2006027E020299A5E77E
:10132000A5991C2A492A1C4C7201724C304A4D4D19
:10133000303048784830BC625A463D3E4949490001
:101340007E0101017E2A2A2A2A2A44445F4444401D
:10135000514A444040444A51400000FF0103E080AC
:10136000FF000008086B6B083612362436060F099A
:101370000F06000018180000001010003040FF0198
:1013800001001F01011E00191D1712003C3C3C3CCE
:101390000000000000080B00020202010009040026
:1013A00000010202000005240010010524010101D2
:1013B00004240206052406000107058103100040ED
:1013C00009040100020A00000007050202400000B3
:1013D000070583024000000403090412010002EF24
:1013E0000201404123368000010102030141726481
:1013F00075696E6F204C4C430055534220494F2075
:10140000426F6172640000000B0E1C780E04000035
:10141000101C78101C08000020303020381000000C
:10142000101C78101C080000D23F579200000000EA
:10143000D27FA7020000000022FFA70200000000E8
:10144000D27FA7020000F0487C247C48F000FFFC1B
:10145000308448800EFFFFFC300890400EFFFFFCF8
:10146000300122400EFFC850C8A0409044A00000A8
:10147000000000000000202020202020202020202C
:1014800020200A444F20594F552045564552200AE6
:101490005245475245542020202020200A435554CD
:1014A00054494E4720414C4C200A5448452057454A
:1014B00045443F2020200A202020202020202020DA
:1014C0002020200A54414B4520534F4D45202020D9
:1014D0000A53454544532E2020202020200A202056
:1014E000202020202020202020200A202020202012
:1014F000202020202020200A002020202020202022
:1015000020202020200A44494420594F552054527D
:1015100059200A5448452046525549545320200A20
:1015200046524F4D204F5552202020200A4C4F4309
:10153000414C202020202020200A43414354555371
:1015400020545245453F0A202020202020202020E2
:101550002020200A4E4F5720594F552043414E20FE
:101560000A504C414E5420594F555220200A4F5793
:101570004E2120202020202020200A002020202072
:1015800020202020202020200A4954275320534F78
:1015900020202020200A5741524D2E2E2E20202080
:1015A00020200A2020202020202020202020200A67
:1015B000504C414E54204120464557200A54524534
:1015C000455320544F202020200A50524F56494462
:1015D0004520202020200A534F4D452053484144A8
:1015E0004520200A464F52205448452020202020E4
:1015F0000A4C4147554E495449414E53210A202037
:10160000202020202020202020200A002020202010
:1016100020202020202020200A4556454E205448D6
:1016200045202020200A42455354204F4620555340
:1016300020200A4D414B4520534F4D452020200A84
:101640004D495354414B45532E2020200A20202041
:101650002020202020202020200A4E4F5720594FA4
:10166000552043414E200A52454D4F5645202020DB
:101670002020200A4255494C44494E472E20202024
:101680000A2020202020202020202020200A202086
:10169000202020202020202020200A002020202080
:1016A00020202020202020200A412050524945534C
:1016B00054202020200A50415353494E472042597C
:1016C00020200A50524F504F53455320594F550A2E
:1016D000544F204544554341544520200A54484521
:1016E0002050454F504C4520200A494620594F551F
:1016F000204255494C440A4120534D414C4C202036
:101700002020200A43485552434820464F5220206B
:101710000A48494D2E20202020202020200A202069
:10172000202020202020202020200A0020202020EF
:1017300020202020202020200A41532054484520EA
:10174000544F574E200A47524F57532C2054484568
:1017500020200A434F535420464F52202020200A75
:10176000494D504F5254494E472020200A464F4F72
:101770004420474554532020200A50524F424C45A4
:101780004D415449432E0A20202020202020202093
:101790002020200A4255494C442041204D494C4CC0
:1017A0000A544F204645454420544845200A4C41A0
:1017B00047554E495449414E532E0A0020202020BF
:1017C00020202020202020200A5448452042414E3D
:1017D00044495453200A434F554C4420534D454CE3
:1017E0004C200A594F5552204D4F4E455920200A42
:1017F000414E442054484559204152450A434F4DDB
:10180000494E4720544F2020200A41535341554C04
:101810005420544845200A42414E4B21202020208C
:101820002020200A4255494C44204120504F535417
:101830000A464F522054484520202020200A534871
:1018400045524946462E202020200A0020202020F4
:1018500020202020202020200A544845524520499D
:1018600053204E4F200A5350414345204C45465487
:1018700020200A544F2053544F524520414C4C0ACB
:10188000544845204D4F4E45592120200A20202004
:101890002020202020202020200A4255494C44208E
:1018A000412042414E4B0A544F20494E435245413C
:1018B0005345200A474F4C442053544F524147450B
:1018C0000A42592035303030242E2020200A202092
:1018D000202020202020202020200A00202020203E
:1018E00020202020202020200A54484520474F4C0B
:1018F00044202020200A4645564552202020202002
:1019000020200A5245414348454420202020200AF7
:101910004C4147554E495441212020200A0A425546
:10192000494C4420412020200A4D494E4520544F27
:1019300020202020200A494E435245534520202094
:1019400020200A54484520494E434F4D452E200A39
:101950002020202020202020202020200A002020BD
:10196000202020202020202020200A5448452043E9
:101970004F57424F5953200A41524520474554542E
:10198000494E47200A524553544C4553532E20206C
:10199000200A2020202020202020202020200A4251
:1019A00055494C442041204E4557200A53414C4F45
:1019B0004F4E20544F2020200A454E54455254414A
:1019C000494E2020200A5448454D20414E442020B5
:1019D00020200A434F4C4C45435420534F4D450A59
:1019E00054415845532E2020202020200A0020203A
:1019F000202020202020202020200A4D4F5245204A
:101A000050454F504C45200A574F554C44204D4FA0
:101A1000564520200A494E2C20494620544845204E
:101A2000200A484F555345532041524520200A5320
:101A300045525649434544202020200A57495448DE
:101A40002057415445522E200A20202020202020BB
:101A500020202020200A545259204255494C444904
:101A60004E470A534F4D4520574154455220200AB6
:101A7000544F574552532E20202020200A0020206A
:101A8000202020202020202020200A4255494C449C
:101A900020534F4D4520200A484F5553455320545D
:101AA0004F2020200A494E43524541534520544877
:101AB000450A504F50554C4154494F4E2E200A2054
:101AC00020202020202020202020200A4152524F78
:101AD00057205550202020200A544F205357495456
:101AE00043482020200A4255494C44494E472E2065
:101AF00020200A002020202020202020202020201C
:101B00000A57454C434F4D4520544F20200A4C4125
:101B100047554E4954412C2020200A4120534D4125
:101B20004C4C204C414B450A494E205448452057C7
:101B3000494C44200A57494C4420574553542E20C1
:101B4000200A2020202020202020202020200A429F
:101B500055494C442041204641524D0A544F20479C
:101B6000454E4552415445200A534F4D4520494E5C
:101B7000434F4D452E0A00E0A05028140A050A14D0
:101B80002850A0E0A0E0A0E0A0E0A0E0A0E0A0E05D
:101B9000C0800000000000FF8080FC8282FC809EEC
:101BA000929E80FF88F888F888F888F888F888F886
:101BB00089FB8FFE8CF80024A870FC70A82400011B
:101BC00000F0AFF0000100F04F241B244FF00000A4
:101BD0000000C040C040C078C442C242C478C04087
:101BE000C040C000000000FC141C171C171C177C10
:101BF00047545754477C171C171C171C14FC00FF34
:101C0000809F9191919F80FCAAA9FFA9AAFC808046
:101C1000808F898F80FF00FFC1FF417FC1FF0000DF
:101C2000FF885522FF000000FF885522FF0000308A
:101C3000FF160E0546A615A646050E16FF30000037
:101C4000FF808C8C80FC85FC808C8C80FF0000FEEB
:101C500025160E0506A675A606050E1625FE00FF1E
:101C600080FE82FE82FE80BEA2BEA2BE80FF00C0B9
:101C7000B0ACABACB0C00000000000000000000041
:101C800000000000000000FF00043E0400FF808010
:101C9000808080808080808080808080800000FFC5
:101CA00080FC82FC80FF829B829B829B829B829B2A
:101CB000829B829B82FF0000000080E0FEFCF8F027
:101CC000E0F0F8FFFEFCF8F8FCFEFCE0000000C0CD
:101CD000F0FCFFFFFFFFFFFFFFFFFFFFFF1F0F1FD6
:101CE000FFFFFFFFF8E0800001030303030303038A
:101CF00001000000F0AEAAAEF0010303010100FEF6
:101D0000915E3E111E1E111E1E113E5E91FE00FFD1
:101D1000808F8F80FFA9A9A9FF808F8F80FF00008F
:101D20000C1933667CF9FFFE703C3E3319180C0029
:101D30000000000080C3FFFFBC0000000000000C9A
:101D40001830FFFF0C0603082952FE492510000039
:101D50000000000000000000B00000A170E15096FB
:101D60004F26900F1D070C009669004AE44A004870
:101D7000444000806810000F99FB8F9DBDBBFB772E
:101D8000D4D4DF1F1A1AFE7F5D5DFF805A0000A0C9
:101D9000A4AA0010BA3400FF5953F3FF9B9B9EFF87
:101DA000B9B996FF9595D19FF4940FFC295F91FFE7
:101DB0001838F8FF9294FFFF95D5F7BFB5DDD7F13E
:101DC0008F81F1F788C8F779C6467909FD9B09012B
:101DD00096F80082818280507162007756560076B4
:101DE000763700A2B7730107720600782750007398
:101DF000347400775176007F55F700477110003238
:101E00004772007364730015A27500616794000047
:101E10009F6060F4F2F6F200000000240027002A20
:101E2000002D00300000000000250028002B002EAF
:101E30000031000408020110408040102040804022
:101E40008008020401804020100201108010204010
:101E500040200404040404030405020202020403F3
:101E60000202020206060606060604040202020434
:101E70000406011501260137014A015D017201883E
:101E8000019F01B801D201EE010B022A024B026E42
:101E9000029302BA02E40210033F037003A403DCBE
:101EA00003170455049704DD0427057505C80520AC
:101EB000067D06E0064907B8072D08A9082D09B9CF
:101EC000094D0AEA0A900B400CFA0CC00D910E6FF6
:101ED0000F5A1053115B1272139A14D415201780E5
:101EE00018F519801B231DDE1EB420A622B524E49C
:101EF000263429A72B402E0031EA330037453ABC5F
:101F00003D68414C456B49C84D68524F57805C0055
:101F10006210111213151617181A1C1D1F212325E4
:101F200027292C2E3134373A3E4145494E52575CD1
:101F300062686E757B838B939CA5AFB9C4D0DCE9D6
:101F4000F7004B2511241FBECFEFDAE0DEBFCDBF77
:101F500011E0A0E0B1E0E0EDF2E502C005900D92E5
:101F6000A635B107D9F728E0A6E5B1E001C01D927A
:101F7000A03AB207E1F71FE0C2EADFE004C0219710
:101F8000FE010E946029C13AD107C9F70E94911C45
:101F90000C9473280C940000CF93DF931F92CDB75D
:101FA000DEB76983DC01ED91FC910280F381E02DC5
:101FB00041E050E0BE016F5F7F4F09950F90DF91C8
:101FC000CF91089583E08093E9008091F200882307
:101FD00019F08AE38093E8000895FC0184859585D3
:101FE00097FD0BC09FB7F89482E08093E900809141
:101FF000F2009FBF90E0019608959FB7F89482E0A9
:102000008093E9008091F2009FBF90E00895809155
:102010006C0181110DC082E08093680184E080939F
:10202000690110926B0110926A0181E080936C014A
:1020300088E691E0089540916501509166012091F4
:1020400063013091640142175307B4F49091E800A2
:102050009570E1F39091E80092FD19C08093F10032
:10206000809165019091660101968F739927892B64
:1020700019F48EEF8093E8008091650190916601DC
:102080000196909366018093650181E0089580E058
:102090000895DF92EF92FF920F931F93CF93DF93F8
:1020A000D82E8A017B01E40EF51EEB01CE15DF056B
:1020B00071F0D7FE03C0FE01849101C088810E94A7
:1020C0001B1021968111F2CF8FEF9FEF01C0C80145
:1020D000DF91CF911F910F91FF90EF90DF900895C6
:1020E0000F931F93CF93DF931F92CDB7DEB782E09C
:1020F000898342E450E065E973E180E80E94491079
:102100000E940710DC0112960D911C911397011586
:10211000110589F0D801ED91FC910280F381E02D49
:10212000BE016F5F7F4FC801099597FD04C0F8019C
:1021300000851185ECCF89810F90DF91CF911F91A0
:102140000F910895615030F02091F100FC0120833F
:102150000196F8CF289884E6809375010895089534
:102160008091620108958F929F92AF92BF92CF9219
:10217000DF92EF92FF920F931F93CF93DF936C0147
:102180007B018A0180910B01882309F45CC0809156
:102190007601882309F457C08091610180FF05C052
:1021A0008091E00082608093E000E801B12C8AEF2A
:1021B000A82E93E0892E2AE3922E209711F4BB20BB
:1021C000D9F10E94BF1781110AC0AA94AA20D9F19F
:1021D00061E070E080E090E00E941A1AEECF282FB4
:1021E00030E0C217D3070CF48C2F9FB7F89480927D
:1021F000E9002091E80025FF1DC0282F30E0C21B18
:10220000D30BF701815020F041914093F100FACFB8
:10221000E20EF31EBB2019F09092E8000AC08091F4
:10222000E80085FD07C09092E800BB24B394209796
:1022300009F0B12C9FBFC1CF5D9884E680937401F3
:102240001016110644F081E090E0F601938382833A
:1022500080E090E001C0C801DF91CF911F910F9104
:10226000FF90EF90DF90CF90BF90AF909F908F90B6
:1022700008950E94BF1790E008950F931F93CF9386
:10228000DF931F92CDB7DEB78C01FC018485958565
:1022900097FF0EC0CE0101960E949117019719F485
:1022A000898190E002C08FEF9FEFF80195878487C6
:1022B000F801848595850F90DF91CF911F910F9143
:1022C0000895CF93DF931F92CDB7DEB7FC018485CD
:1022D000958597FD05C02FEF3FEF358724870BC00D
:1022E000CE0101960E949117019719F4898190E01F
:1022F00002C08FEF9FEF0F90DF91CF9108951F9253
:102300000F920FB60F9211248F939F938091E1004B
:102310009091E100937F9093E10083FF0FC01092B2
:10232000E90091E09093EB001092EC0092E390931F
:10233000ED001092760198E09093F00082FF20C0AB
:1023400093E09093E9009091F200992319F09AE3B9
:102350009093E80090917401992339F09091740161
:10236000915090937401992389F19091750199236B
:1023700039F090917501915090937501992341F135
:1023800084FF10C08091E2008E7E81608093E20025
:102390008091E1008F7E8093E100809161018E7ECB
:1023A000806111C080FF16C08091E2008E7E806146
:1023B0008093E2008091E1008E7E8093E100809125
:1023C00061018E7E81608093610104C05D9ACDCFF2
:1023D000289AD6CF9F918F910F900FBE0F901F908C
:1023E00018951F920F920FB60F921124CF92DF9281
:1023F000EF92FF920F931F932F933F934F935F930F
:102400006F937F938F939F93AF93BF93EF93FF93BC
:10241000CF93DF93CDB7DEB76C97DEBFCDBF109201
:10242000E9008091E80083FFFBC168E0CE0145969A
:102430000E94A21082EF8093E8008D8987FF05C07B
:102440009091E80090FFFCCF03C09EEF9093E800CE
:10245000982F907609F0C6C09E894F89588D2F8994
:10246000F88C91110CC0803829F480916001809320
:10247000F10002C01092F1001092F10045C19130BC
:1024800051F4811141C14130510509F03DC18091A4
:1024900060018D7F0BC0933061F4811135C14130F3
:1024A000510509F031C18091600182608093600123
:1024B0002BC1953049F48091E80080FFFCCF822F3A
:1024C00080688093E30020C1963009F05EC00B8DD8
:1024D0001C8D22E01092E9001092660110926501B5
:1024E000F21232C010926401109263010E947010C7
:1024F00099E0BE016F5F7F4FDB01E92F1D92EA95E6
:10250000E9F79983FA8291E09E8390EA98879AEF9F
:1025100099872091650130916601275F3F4F3C8389
:102520002B838D831092E900109266011092650151
:10253000109364010093630149E050E080E00E9441
:1025400049100E947010E0C0109364010093630171
:102550000E940710DC0112960D911C911397011532
:10256000110509F4BBC0D801ED91FC910480F581FF
:10257000E02DBE016B5E7F4FC8010995009709F001
:10258000C7C0F80100851185EACF973009F445C12D
:10259000983021F481E08093F100B6C0993009F0C1
:1025A000B3C0837009F039C1E1E1F1E081E031E0CD
:1025B00096E32081211109C08EE78093EA001092F2
:1025C000EA008F89809376019FC08093E900309361
:1025D000EB0021912093EC009093ED008F5F87300A
:1025E00041F7EACF8B8D9C8D1092E9001092660125
:1025F000109265019093640180936301898D81112C
:1026000053C08E899D89913A49F4813209F005C100
:1026100047E050E064E071E080E0BBC0913209F037
:10262000FCC0833269F48F89988DA0E0B0E080937C
:10263000000190930101A0930201B093030164C0D3
:10264000803269F48091E80082FFFCCF67E084E08B
:1026500091E00E94A2108BEF8093E80055C0823277
:1026600009F052C08F8980930B01EEEFFFE785914F
:1026700094918B3F9C4D19F0E0E0F8E002C0EEEF42
:10268000FAE08091040190910501A0910601B091BA
:102690000701803B9440A105B10509F09EC08091DF
:1026A0000B0180FF79C099C00E940710FC010281D4
:1026B00013810115110509F4B0C0D801ED91FC9109
:1026C0000190F081E02DBE016B5E7F4FC80109953E
:1026D00081111AC0F80100851185EBCFF1E0FF16DA
:1026E00009F44EC0F3E0FF1298C08F89882309F4E3
:1026F0004AC0823089F440E86CE089EF93E10E949F
:10270000D124882309F489C08EEF8093E80088C023
:1027100018161906CCF381C0813029F440E86BE02B
:102720008DEE93E1ECCF833009F077C00E94071063
:10273000DC011296ED90FC9013978E010F5F1F4FF6
:102740006801E114F10479F0D701ED91FC91068064
:10275000F781E02DB801C7010995080F111DF70198
:10276000E084F184EECFD8011C92F60101900020A4
:10277000E9F73197BF016C197D0940E0C601BFCF71
:102780006BED73E102C067ED73E1FB01449150E032
:1027900080E80E944910B8CFEE3F2AE0F20751F0DE
:1027A000808191818737A7E79A0721F09093FF0AEC
:1027B0008093FE0A87E797E791838083809160008A
:1027C000809367019BE088E10FB6F894A895809309
:1027D00060000FBE9093600097CF80819181873712
:1027E000974709F091CFA895809160008861809308
:1027F00060008091670180936000EE3FBAE0FB07C4
:1028000039F08091FE0A9091FF0A918380837CCFFA
:102810001092FF0A1092FE0A77CF81E28093EB00BC
:102820006C960FB6F894DEBF0FBECDBFDF91CF918F
:10283000FF91EF91BF91AF919F918F917F916F9198
:102840005F914F913F912F911F910F91FF90EF90CA
:10285000DF90CF900F900FBE0F901F9018950C94A3
:102860001D2980389105B8F460347105A0F490E119
:1028700021E061FD24E060FD220F62FD2295687F6A
:10288000969FD0011124A80FA758BE4F8C91822B80
:1028900040FF82278C9308952F923F924F925F9230
:1028A0006F927F928F929F92AF92BF92CF92DF9260
:1028B000EF92FF920F931F93CF93DF93CDB7DEB7C5
:1028C00027970FB6F894DEBF0FBECDBF9F838E83D0
:1028D0006A30A1F4DC0155962C91559751968D9153
:1028E0009C915297B8E02B9F800D911D1124EE8191
:1028F000FF81928B818B108A1786ADC06D3009F4F1
:10290000AAC0AE81BF811F960D911C9150970038CF
:102910001105BCF0EE81FF812589422F50E08785AB
:102920009089F6E02F9F800D911D1124AE81BF810B
:1029300050969C938E931F9756962C91211175C09B
:102940008AC0EE81FF8181889288F0E48F1691041D
:102950000CF7AE81BF8155963C90C801B5E03B9E17
:10296000800D911D112418161906A4F6432C512C24
:10297000C401E8E03E9E800D911D11241816190631
:102980004CF6AE81BF815496BC91BC83EE81FF8131
:10299000F389FD8325E0629FB0011124CB018B56A2
:1029A000914F3C011982F3012490F981F53009F42B
:1029B000212C640128E02B8320FE03C03D813A8353
:1029C00002C08C818A839A81911104C0AC81BD813F
:1029D000AB17B9F078018E2D801B831590F456014A
:1029E0008A2D8C19831548F44A81B501C7010E94CC
:1029F0003114EFEFAE1ABE0AF3CFFFEFEF1AFF0A62
:102A0000EACF26942B8121502B83C40CD51C211195
:102A1000D3CF39813F5F3983040D151DC301019662
:102A20003C01363009F0BFCF75CF6AEF64039001E7
:102A3000659F300D112420583F4F281739075CF44B
:102A4000AE81BF81ED91FC9111970190F081E02D55
:102A50006AE0CD01099581E090E027960FB6F894E1
:102A6000DEBF0FBECDBFDF91CF911F910F91FF90C1
:102A7000EF90DF90CF90BF90AF909F908F907F901E
:102A80006F905F904F903F902F9008950F931F93FA
:102A9000CF93DF93809164008E7F80936400809158
:102AA0007A00806480937A0080917A0086FDFCCF62
:102AB000C0917800D09179000E94F51920916400AE
:102AC0002160209364008E0120E030E098011127FE
:102AD0000027600F711F821F931FDF91CF911F91FD
:102AE0000F9108952D9A0895BC0180E090E00C9418
:102AF0001A1A8FB18095807F669B88601C9B8460CA
:102B000008953E9A3F9A81E080936201089582E0A1
:102B100090E00E942F1481110C9481151092620193
:102B20003E983F980895E9E7F1E0A0E0B8E0008022
:102B30000EBC8111012C1197A0FDFDCF0192B9F7B8
:102B40000DB4089520918305282329F490918205DE
:102B5000982381E009F480E008956115710579F00A
:102B6000FB0101900020E9F73197AF01461B570B9D
:102B7000DC01ED91FC910280F381E02D099480E06D
:102B800090E008952F923F924F925F926F927F92C2
:102B90008F929F92AF92BF92CF92DF92EF92FF926D
:102BA0000F931F93CF93DF937C016B01C0E0D0E0C4
:102BB00088248394912C04E010E098EF692E772408
:102BC0007A942DEFA22EBB24BA94842F8470582EB1
:102BD000842F8270482E842F8870382E4170242EC6
:102BE000219682E0880E911CA80CB91C552091F00A
:102BF00041E0B8016C0D7D1DC7018C0F9D1F0E9427
:102C0000311441E0B6016C0F7D1FC8018E0D9F1D70
:102C10000E943114442091F041E0B601601B710B19
:102C2000C7018C0F9D1F0E94311441E0B6016C1B3F
:102C30007D0BC8018E0D9F1D0E943114332091F031
:102C400041E0B6016C0F7D1FC701801B910B0E94F4
:102C5000311441E0B8016C0D7D1DC7018C1B9D0B2B
:102C60000E94311421100DC0C017D107ECF4B7FC3D
:102C7000B7CF0150110982E0680E711CA60CB71C79
:102C8000AFCF41E0B6016C1B7D0BC701801B910BE0
:102C90000E94311441E0B601601B710BC7018C1B0F
:102CA0009D0B0E943114E0CFDF91CF911F910F91C6
:102CB000FF90EF90DF90CF90BF90AF909F908F905C
:102CC0007F906F905F904F903F902F9008959C0160
:102CD000240F311D1216130674F5803891055CF52A
:102CE00097FF02C080E090E02138310514F020E821
:102CF00030E0281BAB014770552731E001C0330F8E
:102D00004A95EAF777FF02C0695F7F4F43E0759508
:102D100067954A95E1F77695762F662777956795BB
:102D2000860F971FFC01E758FE4F215020F080814D
:102D3000832B8193FACF08952F923F924F925F9207
:102D40006F927F928F929F92AF92BF92CF92DF92BB
:102D5000EF92FF920F931F93CF93DF93CDB7DEB720
:102D60002A970FB6F894DEBF0FBECDBF5A01822E50
:102D7000912C9401280F391F37FDBAC08038910576
:102D80000CF0B6C09B01200F311D37FDB1C060347F
:102D900071050CF0ADC0AB0177FF04C04427552787
:102DA000461B570B477055279B0177FF02C0295FD1
:102DB0003F4FE3E035952795EA95E1F777FF08C0A7
:102DC0002150310968E070E0FB01E41BF50BAF0115
:102DD000202E269426942694312C077019F0FFEFAC
:102DE0002F1A3F0A220E331E39017694762C662460
:102DF00077946794680E791EE12CF12C00E010E0C6
:102E0000B30160587F4F7A87698768E070E0FB0103
:102E1000E41BF50BFA83E9832216330609F468C034
:102E20002830310509F464C02F3FFFEF3F070CF451
:102E300054C0E985FA85E00FF11FBF0167587E4F46
:102E40007C836B83D801A60DB71DA758BE4F6C01BC
:102E500060E070E0681579050CF03FC0E0E8CE1640
:102E6000D10409F43AC0D7FC2CC02F3FFFEF3F0735
:102E700009F43AC0FB01EE0DFF1DEA0DFB1DE491C4
:102E8000042E01C0EE0F0A94EAF7FC91EF2BEC93AD
:102E900041155105B1F02730310599F0FB01EE0DD8
:102EA000FF1DEA0DFB1DE4914E2E512C098002C03E
:102EB000559447940A94E2F7EB81FC8150804528B1
:102EC00040826F5F7F4FEB81FC813196FC83EB8307
:102ED000FFEFCF1ADF0A1196BDCF2F5F3F4F00588B
:102EE0001F4FE80CF91C98CF41155105B9F6E9CFF1
:102EF0002A960FB6F894DEBF0FBECDBFDF91CF91FB
:102F00001F910F91FF90EF90DF90CF90BF90AF9007
:102F10009F908F907F906F905F904F903F902F90F9
:102F2000089520917601211103C08FEF9FEF08953E
:102F30005FB7F89422E02093E9002091F20030E09E
:102F40001216130614F421E030E0422FFC0184E64F
:102F5000415038F02898809375019091F100919339
:102F6000F7CF2115310521F08091F200882319F067
:102F70005FBFC90108958BE68093E800F9CF2FB7B2
:102F8000F89483E08093E9009091E800892F8072A3
:102F900095FF04C09091F20080E4891B2FBF089533
:102FA000CF92DF92EF92FF920F931F93CF93DF9315
:102FB0006C017A018B01C0E0D0E0CE15DF0581F015
:102FC000D8016D918D01D601ED91FC910190F081B8
:102FD000E02DC6010995892B11F02196EECF7E01D7
:102FE000C701DF91CF911F910F91FF90EF90DF907C
:102FF000CF900895CF92DF92EF92FF921F93CF93DD
:10300000DF93E82FF0E0E35BFE4F1081E62FF0E066
:10301000603330F4EF5EF04EE491CE2FD0E006C086
:10302000EE0FFF1FEF5EF14EC591D4916E01E12CC2
:10303000F12C60E074E284EF90E0A70196010E9419
:10304000BA28BA01A9014150510961097109411514
:10305000510581E06807710580F060E970ED83E05B
:1030600090E0A70196010E94BA28BA01A901415037
:1030700051096109710983E001C081E01130E9F073
:10308000133091F590919100987F892B8093910056
:1030900050939900409398001092950010929400DC
:1030A000D0939908C093980881E080939708809105
:1030B000710082608093710017C090919A089111FD
:1030C00013C090918100987F892B80938100509349
:1030D00089004093880010928500109284008091AE
:1030E0006F00826080936F00DF91CF911F91FF90FE
:1030F000EF90DF90CF900895E82FF0E0E35BFE4F74
:103100008081813019F0833089F0089580919A0888
:1031100081111CC080916F008D7F80936F00809122
:103120008908E0918708F09188080CC010929708F0
:103130008091960881110AC080919408E0919208CC
:10314000F0919308908180958923808308954F9210
:103150005F926F927F928F929F92AF92BF92CF9227
:10316000DF92EF92FF920F931F93CF93DF936C0147
:103170003B01102F38E0832E912C7A01FF24270188
:1031800093E0559447949A95E1F7CA01877099277F
:10319000892B41F5D6011796CD91DC911897C30183
:1031A0009927BE010E944C294C9EF0014D9EF00DC6
:1031B0005C9EF00D11249927D60115964D915C91D6
:1031C00016978E0F9F1FFA01E80FF91F111106C005
:1031D000C22FC09520812C23208327C0C081C22B01
:1031E000C08323C0C22FD0E04770A42EB12C72013F
:1031F00083E0EE0CFF1C8A95E1F79E0101C0220FCF
:103200004A95EAF7012FA701B301C6010E94A7184A
:10321000C4018A199B0902C0D595C7958A95E2F722
:103220002C2FA701485F5F4FA8CFDF91CF911F914F
:103230000F91FF90EF90DF90CF90BF90AF909F9055
:103240008F907F906F905F904F9008955F926F92F4
:103250007F928F929F92AF92BF92CF92DF92EF9226
:10326000FF920F931F93CF93DF93EC016A3061F4C9
:103270008D859E859C878B872B898F859889820F6A
:10328000911D988B8F8775C0CB84DC84693031F4B5
:1032900089E0C80ED11CDC86CB866BC0162F9DEF53
:1032A000C9169FEFD90654F48A8990E004962B85BD
:1032B0003C85820F931F9C878B875BC08F8198858D
:1032C000C816D9068CF7EF84F8888DEFE8168FEFD3
:1032D000F80654F389859A85E816F9062CF76032CA
:1032E00008F41FE780EE810F9FE9910F9A3118F4DF
:1032F0009FEFE91AF90A8C3011F08B3119F49FEF26
:10330000E91AF90A869594E0899F50011124360143
:1033100084E0680E711C46011170F401EC19FD097E
:10332000EA0DFB1DE95AF24E8491111103C08F7012
:10333000582E04C0582E52948FE058228C81882336
:1033400051F001E08989811100E02FE0A701B4016B
:10335000CE010E94A7180989252DA701B401CE012D
:103360000E94A7189FEF891A990A68147904A9F690
:103370009BCF81E090E0DF91CF911F910F91FF9063
:10338000EF90DF90CF90BF90AF909F908F907F9005
:103390006F905F900895089580E090E008950E94F6
:1033A0003329EF92FF920F931F93CF93DF938C01FA
:1033B0007B01C0E0D0E0F701EC0FFD1F64916623B4
:1033C00061F0D801ED91FC910190F081E02DC801F0
:1033D0000995892B11F02196EECFCE01DF91CF9187
:1033E0001F910F91FF90EF9008953FB7F89480914F
:1033F0009C0890919D08A0919E08B0919F0826B5C9
:10340000A89B05C02F3F19F00196A11DB11D3FBF1C
:10341000BA2FA92F982F8827820F911DA11DB11DAA
:10342000BC01CD0142E0660F771F881F991F4A95A6
:10343000D1F708958F929F92AF92BF92CF92DF9271
:10344000EF92FF926B017C010E94F5194B015C0128
:10345000C114D104E104F104F1F00E94F519DC017A
:10346000CB0188199909AA09BB09883E9340A10597
:10347000B10570F321E0C21AD108E108F10888EE25
:10348000880E83E0981EA11CB11CC114D104E10474
:10349000F10419F7DDCFFF90EF90DF90CF90BF9050
:1034A000AF909F908F9008951F920F920FB60F923A
:1034B00011242F933F938F939F93AF93BF9380914A
:1034C0005B0190915C01A0915D01B0915E01309132
:1034D0009B0823E0230F2D3720F40196A11DB11D79
:1034E00005C026E8230F0296A11DB11D20939B085D
:1034F00080935B0190935C01A0935D01B0935E01AA
:1035000080919C0890919D08A0919E08B0919F0881
:103510000196A11DB11D80939C0890939D08A093D6
:103520009E08B0939F08BF91AF919F918F913F915B
:103530002F910F900FBE0F901F90189529E0629F5A
:10354000F0011124E354F84F29E0DC0101900D92C1
:103550002A95E1F7089529E0629FF0011124E354D0
:10356000F84F29E0DC0101900D922A95E1F70895CA
:103570001F920F920FB60F9211248F939F93AF93C8
:10358000BF93EF93FF9380919A08882309F449C071
:1035900080918A0890918B08A0918C08B0918D0839
:1035A000892B8A2B8B2B51F190918908E091870808
:1035B000F091880880818927808380918A08909182
:1035C0008B08A0918C08B0918D08181619061A0660
:1035D0001B06A4F580918A0890918B08A0918C0815
:1035E000B0918D080197A109B10980938A08909341
:1035F0008B08A0938C08B0938D0820C01092960879
:1036000010929A0880916F008D7F80936F00809157
:103610008908E0918708F091880890818095892336
:103620000CC080919508811109C090918908E091A2
:103630008708F0918808808189278083FF91EF9126
:10364000BF91AF919F918F910F900FBE0F901F90E0
:103650001895CF93DF93D1E0E0915601F091570197
:10366000DF011196B0935701A09356019491892FD1
:10367000807FC92FCF70803821F48C2F0E947C1856
:10368000EBCF8039F9F4E0917701F0917801099559
:103690008D2780939508E0915601F0915701CF0155
:1036A000019690935701809356016491809186080A
:1036B000C81790F6C13009F052C080918508811179
:1036C000CBCF4DC087FD3AC03296F0935701E093BF
:1036D0005601FD01A491B0E0B92B209198083091DA
:1036E00099080E940E296C507E4F8F4F9F4F28EEF5
:1036F00033E040E050E00E94EC2820938E083093A5
:103700008F08409390085093910880918E08909173
:103710008F08A0919008B0919108892B8A2B8B2B50
:1037200021F581E090E0A0E0B0E080938E089093D6
:103730008F08A0939008B093910817C0803E49F479
:1037400080915801909159019093570180935601AF
:1037500083CF803F09F080CF10925A0106C067FDE9
:103760007BCF8C2F0E94FA1777CFDF91CF910895EE
:103770001F920F920FB60F9211242F933F934F93E6
:103780005F936F937F938F939F93AF93BF93EF93C9
:10379000FF9380919708882341F0809196088111CA
:1037A00004C080919508882351F180915A018823A3
:1037B00081F180918E0890918F08A0919008B0912E
:1037C0009108892B8A2B8B2B21F180918E08909167
:1037D0008F08A0919008B09191080197A109B109B3
:1037E00080938E0890938F08A0939008B0939108CF
:1037F000892B8A2B8B2B69F40E94291B0AC090917C
:103800009408E0919208F091930880818927808341
:10381000CCCFFF91EF91BF91AF919F918F917F910D
:103820006F915F914F913F912F910F900FBE0F902D
:103830001F90189590918608923009F471C0292F35
:1038400030E0F901E35BFE4F4081F901ED57F74F9E
:103850008083913031F420918308821302C09093C9
:1038600085089F5F9093860890E0FC01EE5AF14E28
:103870002491FC01ED5CF14E849130E0220F331F66
:10388000F901EB5DF14E65917491F901E95EF14E3C
:10389000A591B4919C91982B9C93413019F04330A1
:1038A000D9F0089590916400977F909364001092EE
:1038B0008000109281009091810098609093810027
:1038C000909181009160909381007093880860933B
:1038D000870880938908089590916500977F909359
:1038E0006500109290001092910090919100986064
:1038F00090939100909191009160909391007093BA
:103900009308609392088093940880918608882396
:1039100021F06CE380E00E94FA1780E00C947C18A0
:103920000895CF93DF93CDB7DEB769970FB6F894BC
:10393000DEBF0FBECDBF789484B5826084BD84B5F0
:10394000816084BD85B5826085BD85B5816085BD9A
:1039500080916E00816080936E0010928100809152
:1039600081008260809381008091810081608093DA
:10397000810080918000816080938000809191001F
:10398000826080939100809191008160809391008A
:10399000809190008160809390008091C10084604C
:1039A0008093C1008091C10082608093C1008091AA
:1039B000C10081608093C1008091C30081608093C9
:1039C000C3008091C00082608093C0008091C200DB
:1039D00081608093C20080917A00846080937A0035
:1039E00080917A00826080937A0080917A00816071
:1039F00080937A0080917A00806880937A00109298
:103A0000760110926001109261018091D70081606F
:103A10008093D70080EA8093D80089B5806189BD02
:103A200089B5826089BD09B400FEFDCF61E070E018
:103A300080E090E00E941A1A8091D8008F7C80610B
:103A40008093D8008091E000807F8093E000809197
:103A5000E1008E7E8093E1008DE08093E200559A34
:103A6000209A81EC80937C0085B1806F85B984B108
:103A7000877E84B984B1876E84B95E9A5F988AB173
:103A8000806D8AB9769A6E9881B3806F81BB899870
:103A900080B38D7080BB80E58CBD81E08DBD85E0FD
:103AA00090E00E9474155F9A85E090E00E94741582
:103AB0005E985C98ECE5F1E084918EBD00000DB459
:103AC00007FEFDCF319601E0E936F007A9F75C9AD1
:103AD00081E8809364008091650081608093650037
:103AE00080E00E9493150E94791587FF24C05C989E
:103AF00085EA8EBD00000DB407FEFDCF5C9A2E98BE
:103B00002F982D988091640080628093640081E0FA
:103B100083BF889513BEFCCF2D980E9479158478B9
:103B2000843871F00E9479158471843131F188EC08
:103B300090E00E9474150E94791582FDEDCF3AC085
:103B40000E94721588EC90E00E9474152F9882E014
:103B500090E00E941D298F3F29F06FEF82E090E0F6
:103B60000E94252984EF91E00E9474152F9A0E94EB
:103B7000791584788438D9F3D5CF0E94721588ECF2
:103B800090E00E9474152E9882E090E00E941D291A
:103B9000882329F060E082E090E00E94252984EFEC
:103BA00091E00E9474152E9A0E94791584718431D7
:103BB000D9F3BDCF0E9472150E94871581E090E075
:103BC0000E942F14182F147081FF3FC011112E98DE
:103BD00000EFE02EFF24FA940E94791586FF05C0BD
:103BE0002E9A2F9A0E94721530C0112331F024E0D2
:103BF000E216F10411F42E9A2F9881E00E94931599
:103C000000E128E54CEA50E0B70184E190E00E9431
:103C10009C1680E00E9493158FE090E00E9474153E
:103C20003FEFE31AF30A89E1E816F104A9F611233C
:103C300011F02F9A2D9880E991E00E9474150E944E
:103C4000721589E795E00E94062582E390E00E94C4
:103C500074150E9479158111F8CF8FE18093840546
:103C60000E9487150E94811585E00E941A1C8DE034
:103C70000E941A1CB0EC4B2E512C8FB7F894409137
:103C80005B0150915C0160915D0170915E018FBF9D
:103C900080918505942F981B892F909186059923F3
:103CA00029F0809387051092860573C6909184054C
:103CB000891748F48F5F891708F06BC681E083BFCE
:103CC000889513BE66C611E010938605409385055E
:103CD0008091800590918105019690938105809354
:103CE000800580918205809383050E9479158093D9
:103CF000820580915A0181110EC089E691E090936E
:103D000059018093580190935701809356010E9466
:103D1000291B10935A0180916007813009F4EAC091
:103D200038F0823009F4F4C2833009F4F1C2F6C2EB
:103D300080E80E94A215882381F08091610781307C
:103D400039F020F0823049F481E005C082E003C000
:103D50001092610702C08093610780E10E94A21562
:103D6000882379F080916107813041F028F082301A
:103D700041F41092610705C081E001C082E08093A8
:103D8000610788E00E94A215882309F4C7C28091C8
:103D90006107813009F4AAC028F0823009F0BEC260
:103DA00083E0A5C080915F0781119EC02FB7F89472
:103DB00080915B0190915C01A0915D01B0915E01E9
:103DC0002FBF8093B0069093B106A093B206B09334
:103DD000B3068091A5059091A60504960E9446150C
:103DE000611571058105910511F00E946A2810E0A6
:103DF0008091A5059091A60504960E9446156B0139
:103E00007C0127E030E040E050E00E94EC2821E017
:103E1000210F611571058105910541F4E12FF0E055
:103E2000EF55FA4F84A5807F82600CC06130710528
:103E30008105910549F4E12FF0E0EF55FA4F84A593
:103E4000807F816084A7122FC701B60129E030E08E
:103E500040E050E00E94EC28623071058105910538
:103E600049F4E12FF0E0EF55FA4F84A5807F83609D
:103E700084A71F5F1F5F103C08F4BACF20E030E03A
:103E8000F901EF55FA4F84A58F73806484A72F5FE3
:103E90003F4F203C3105A1F78091D2058F70806B98
:103EA0008093D2050DE816E00E941C2820E036E041
:103EB00040E050E00E94BA28D80151967C936E935E
:103EC00050970E941C2820E036E040E050E00E941D
:103ED000BA28F801619371938F01F6E00D391F073D
:103EE00019F781E080935F0781E001C082E0809351
:103EF000600714C22FB7F89480915B0190915C0128
:103F0000A0915D01B0915E012FBF4091B00650912C
:103F1000B1066091B2067091B3068C019D01041B3D
:103F2000150B260B370BB901A801493E534061051B
:103F3000710508F49DC08093B0069093B106A093DC
:103F4000B206B093B30610925E0710925D07E12CA3
:103F5000F12CF4ECAF2EF9E0BF2ECC24C394D12C7D
:103F600097012F553A4F4901D9019C968C918F703A
:103F7000782E682FCE0101960E94AB1A8F81009196
:103F8000AE061091AF06080F111D1093AF060093F7
:103F9000AE06672DCE0101960E94AB1A8E8190E08D
:103FA0008017910768F4672DCE0101960E94AB1A25
:103FB0008E81081B11091093AF060093AE0604C052
:103FC0001092AF061092AE06F40114A51F70612F77
:103FD000CE0101960E94AB1A8A81C80ED11C143002
:103FE00019F520915D0730915E072C5F3F4FE1E2AC
:103FF000F0E087010F521F4FC8018E1B9F0B3197B6
:1040000029F430935E0720935D0714C0B2010E942B
:104010004C29DC01AF55BA4F9C968C918F7089303A
:1040200059F72C5F3F4FE8CF183021F4F8E7AF1A6B
:10403000FCEEBF0A0FEFE01AF00A10ECE116F104F3
:1040400009F08ECF8091AE069091AF06A816B90602
:1040500020F4B092AF06A092AE0680915D079091D9
:104060005E07C816D90620F4D0925E07C0925D079D
:104070008091C106882339F080E80E94A215882328
:1040800009F456C043C074EBE72E76E0F72E02E643
:1040900017E0DD24D394E2E0CE2ED7018C9181117C
:1040A00014C02091AE063091AF06F8018081918155
:1040B0002817390750F020915D0730915E07828103
:1040C00093812817390708F0DC92D7018C91813051
:1040D00099F4CC92D8011496EC911497F0E0E7583B
:1040E000FA4F80AB15966D917C9116974CE950E094
:1040F00081EC96E00E947628BFEFEB1AFB0A095F7D
:104100001F4FE7E00D3B1E0741F6B6CF8091CB0570
:1041100081110EC08091AD06882381F08150E82F77
:10412000F0E0E758FA4F90A99923B1F38093AD06D8
:1041300080E10E94A2158823D9F002C08CE0EFCF65
:104140008091CB05811114C09091AD062DE030E037
:10415000892F90E00196B9010E944C29AC01982F5B
:10416000FA01E758FA4F80A9882391F34093AD06EE
:1041700080E40E94A2158823B1F08091CB058111C3
:1041800012C08091C9059091CA050196B2010E94A2
:1041900038299093CA058093C90588E08093CB05A0
:1041A00081E08093CC0580E20E94A2158823D9F09B
:1041B0008091CB05811117C08091C9059091CA05E6
:1041C000009739F400EC10E01093CA050093C9057C
:1041D00005C001979093CA058093C90588E0809334
:1041E000CB051092CC0588E00E94A215882309F423
:1041F00087C08091CB05811183C08091C10688233F
:1042000019F01092C1067CC03090AD06E090AE0669
:10421000F090AF06632DCE0101960E949E1A8B810D
:1042200015E0819FC0011124E816F90608F468C062
:104230008091C9059091CA050796B2010E9438295C
:104240008C016C0120ECC20ED11C3C013CEB630ED6
:10425000711CC601B2010E9438295C018F559A4F2A
:104260004C01DC019C966C916F70CE0101960E940E
:10427000AB1A8C81F501E80FF11DCF01B2010E944C
:104280004C29081719073CF4D4019C968C919C97F3
:10429000807F9C968C93B1E0CB1AD1086C147D047E
:1042A000C1F6D12C632DCE0101960E94AB1A8C81F0
:1042B000D81670F4C8018D0D911DB2010E944C29D1
:1042C000FC01EF55FA4F84A5807F84A7D394EACFF1
:1042D000F801EF55FA4F932D9F7084A5807F892BAD
:1042E00084A7632DCE0101960E949E1A8B81E5E082
:1042F0008E9FE018F1081124F092AF06E092AE060E
:1043000084E00E94A215882349F01092600706C03D
:1043100088E00E94A2158111F8CFF2CF80E0E9E792
:10432000F1E081118FEF0024819381938193819338
:104330000394D1F710928B0510928A05109289058B
:104340001092880580916007813009F474C0B8F03C
:10435000823009F407C3833009F018C382E090E08B
:1043600090939E0580939D0590939C0580939B055B
:104370001092A00510929F056EEC7BE003C38AE2C9
:1043800090E090938905809388058FE090E090936A
:104390008B0580938A0580915F07882319F06EE86A
:1043A0007EE002C069E87EE089E795E00E94D119CD
:1043B0000AE210E010938905009388058EE190E0F1
:1043C00090938B0580938A0561E87EE089E795E00C
:1043D0000E94D11910938905009388058DE290E021
:1043E00090938B0580938A056CE77EE089E795E0E2
:1043F0000E94D11980916107813091F050F0823094
:1044000009F0C4C208E028E044E75EE06DE270E035
:104410000DC008E028E044E75EE06FE070E006C011
:1044200008E028E044E75EE06EE170E080E290E0C2
:104430000E949C16ABC210915F011F5F10935F0139
:104440008091CC05811102C08FEF01C081E0E09026
:10445000CB058E9DE02C1124612E712C1301359417
:104460002794359427945101F3E0AF22BB24C50172
:1044700043E0880F991F4A95E1F79C012255344F7C
:104480005901430153E0959487945A95E1F7C3018C
:1044900088719927DC01A257B44F3D016DE8C62E03
:1044A00066E0D62E13700E2C000CFF08F6018081FA
:1044B0009181019660E076E00E943829FC01D601E6
:1044C0008D939D936D0111110EC01E968D919C913F
:1044D0001F97019660E076E00E943829D6011F966A
:1044E0009C938E931E978091C9059091CA05B3E065
:1044F000880F991FBA95E1F79701281B390BC9015D
:1045000008E028E0A50160E070E08E0F9F1F0E9488
:104510009C168091C9059091CA0523E0880F991FC8
:104520002A95E1F7F701E81BF90BD6011E968D914C
:104530009C911F9728E0A30161E270E08E0F9F1FFE
:104540000E949C16EDE9F6E0EC15FD0509F0AECFF2
:104550005701F8E0AF1AB10812E1C4018170992740
:104560009C012258344F690108E028E0A6016EE260
:1045700070E0C5010E949C16115038E0A30EB11CDA
:104580001111F2CF88E2E81AF108FBEFAF2EBB243D
:10459000BA94A4E08A2E912C8091C9059091CA0505
:1045A00080549F4F8A0D9B1DB2010E943829DC0167
:1045B000AF55BA4F6D019C96EC91E295E370F0E037
:1045C000EE0FFF1FE758FA4F45AD56AD08E028E063
:1045D0006EE170E0C7010E949C16F60184A58295E9
:1045E00086958695837090E0FC01EE0FFF1FE758DB
:1045F000FA4FDC01A054BA4F6C9170E0C1010E94E7
:104600004C2963E0880F991F6A95E1F745AD56ADD7
:10461000480F591F28E066E270E0C7010E949C160F
:10462000D6019C961C911F70612FCE0101960E94AD
:104630009E1AC884D984612FCE0101960E949E1AC9
:104640007C80612FCE0101960E949E1A8D81082FD9
:10465000000F000F000F272D220F220F220FB40191
:10466000681B7109E3E0660F771FEA95E1F7A60181
:10467000C7010E949C16BFEFAB1ABB0AE8E0EE0E22
:10468000F11CF1E1AF16B10409F086CFD090AD0670
:1046900017E06D2DCE0101960E949E1A2C8130E00C
:1046A0002A5F3F4F812F90E0281739077CF008E000
:1046B00028E046E75BE060E070E033E0880F991F98
:1046C0003A95E1F70E949C161F5FE3CFE091A705A2
:1046D000F091A80500E210E016870587148703878C
:1046E00086E3E82EF12CF08AE7866D2DCE01419607
:1046F0000E949E1A698928E0629FB0011124625FBE
:10470000744F48E050E0CE0101960E947628BE0129
:104710006F5F7F4F8091A7059091A8050E94AD150E
:10472000E091A705F091A80586E490E0968785873B
:1047300094878387F08AE7866D2DCE0141960E948B
:104740009E1A8B894AE0BE016F5F7F4F35E0839FE1
:10475000C00111240E948528BC018091A705909179
:10476000A8050E94AD15E091A705F091A805168750
:104770000587148703870CE310E0108B07876FE42D
:1047800071E0CF010E94AD15E091A705F091A80559
:1047900086E290E09687858794878387108B0787CA
:1047A0004AE0BE016F5F7F4F8091AE069091AF06E9
:1047B0000E948528BC018091A7059091A8050E94C0
:1047C000AD15E091A705F091A80580E490E09687EB
:1047D000858794878387108B078761E571E0CF0118
:1047E0000E94AD15E091A705F091A80582E590E043
:1047F0009687858794878387108B07874AE0BE0159
:104800006F5F7F4F80915D0790915E070E948528C2
:10481000BC018091A7059091A8050E94AD1500E00C
:1048200010E0E12CF12C40E0B701C8010E943114E6
:104830008FEFE81AF80A90E4E916F104A1F70F5F88
:104840001F4F0032110569F700E610E0E12CF12C52
:1048500040E0B701C8010E943114AFEFEA1AFA0A2A
:10486000B0E4EB16F104A1F70F5F1F4F00381105FC
:1048700069F78091C106882309F46CC000E210E05A
:10488000E12CF12C40E0B701C8010E943114EFEF98
:10489000EE1AFE0AF0E4EF16F104A1F70F5F1F4FC6
:1048A0000036110569F748E360E070E084E290E0CB
:1048B0000E94671648E36FE370E084E290E00E9494
:1048C000671604E010E041E0B80180E290E00E9449
:1048D00031140F5F1F4F0C331105A9F704E010E0EE
:1048E00041E0B8018FE590E00E9431140F5F1F4F47
:1048F0000C331105A9F741E064E070E084E290E038
:104900000E94C21542E064E070E08BE590E00E94F6
:10491000C21544E06BE370E08BE590E00E94C215A5
:1049200048E06BE370E084E290E00E94C215E09101
:10493000A705F091A80583E290E096878587948784
:10494000838783E090E0908B878761EC76E0CF01EE
:104950000E94AD158091CB058823C1F081508093D2
:10496000CB0514C082E090E090939E0580939D0556
:1049700090939C0580939B051092A00510929F0533
:1049800061E27DE080E995E00E94D11980E00E941B
:10499000931580E090E0892B09F46FC90E94000014
:1049A0006CC9DF92EF92FF920F931F93CF93DF9327
:1049B000D82EF92EE42E062F10E0C8010196880F9C
:1049C0000E941B1083E00E941B10CD2DDF2D0C0FC9
:1049D0001D1FC017D10789F0E7FE03C0FE018491B7
:1049E00001C088810E941B10F82E80E00E941B10DD
:1049F0008F2121968111EDCF01C081E0DF91CF9110
:104A00001F910F91FF90EF90DF9008950F931F93E8
:104A1000CF93DF938C0181E090E00E942F1480FF00
:104A200032C08AE090E00E942F149FEF980F9E3FC3
:104A300050F522E330E0D80150963C932E931F9717
:104A400028E330E052963C932E935197CBE0D0E090
:104A5000D801ED91FC910190F081E02D682FC80103
:104A60000995CE010E942F142196C131D10581F7FD
:104A700080E00E94931588EE93E0DF91CF911F9123
:104A80000F910C947415DF91CF911F910F910895A0
:104A900004970C940625EF92FF920F931F93CF93E8
:104AA000DF93E2E3F8E01382128288EE93E0A0E065
:104AB000B0E084839583A683B7838FE191E09183EF
:104AC00080838FEF9FEF95878487E9E7F5E0138276
:104AD00012821186128680E18387108617821586DE
:104AE0008DE391E0918380838BE491E095838483CF
:104AF000108A1786128A118A81E0838B148A858B2B
:104B0000168A128E118E21E331E0308F278B29E730
:104B100031E0358F248F20E830E0378F268F20E476
:104B200030E031A320A335E032A781A715A214A25B
:104B300017A216A213A212A280A7138E40EB50E177
:104B40005093780140937701F5A7E4A740E955E039
:104B500057A746A79DE0A9EAB5E0ED0119929A95FD
:104B6000E9F7AAE046EB55E0EA019A2F19929A95E7
:104B7000E9F74EE654E156AF45AF46E654E15093AF
:104B8000B9054093B8054EE454E15093BB054093FA
:104B9000BA0546E454E15093BD054093BC05E0ECF2
:104BA000F5E0EF01932F19929A95E9F780838093AE
:104BB000C10523E02093C2058093C30540911701EE
:104BC000509118016091190170911A014093C50527
:104BD0005093C6056093C7057093C8051092CA0527
:104BE0001092C9051092CB051092CC05EDECF5E0C2
:104BF00090ECEF0119929A95E9F790819F73906478
:104C000090837CE07093AD0647EE53E05093AF067F
:104C10004093AE061092B0061092B1061092B20602
:104C20001092B3061092B4061092B5061092B60612
:104C30001092B7061092B8061092B9061092BA06F2
:104C40001092BB061092BC061092BD061092BE06D2
:104C50001092BF061092C0069CE9E1ECF6E0EF016D
:104C600019929A95E9F710925E0710925D071092DB
:104C70005F071092600710926107E2E6F7E0118289
:104C8000108213821282748344EF5AE15683458363
:104C900048EE53E0508747831286118654E05387CD
:104CA000CEE7DAE1D587C487CAE1D4E0D787C687E3
:104CB000CAE0D0E0D18BC08BB9E0B28BCEEED9E1A7
:104CC000D48BC38BCEE7D4E0D68BC58BCCE0D0E0C1
:104CD000D08FC78BA18FCEE5D9E1D38FC28FCEE025
:104CE000D6E0D58FC48FC4E1D0E0D78FC68F30A374
:104CF0000CED18E112A301A304EC19E014A303A323
:104D0000D6A3C5A348E047A3CCE4D8E1D1A7C0A768
:104D1000CCEADDE0D3A7C2A7C9E1D0E0D5A7C4A7FC
:104D2000D7E0D6A70CEB17E110AB07A700EA1FE00E
:104D300012AB01AB92E3E92EF12CF4AAE3AACBE08B
:104D4000C5AB6CE2E62E67E1F62EF7AAE6AA11AF34
:104D500000AF04E610E013AF02AF66E064AF0CE909
:104D600016E116AF05AFE8E8F3E1F093A207E09390
:104D7000A10708EC10E01093A4070093A30710927A
:104D8000A5070CE016E11093A7070093A607F09380
:104D9000A907E093A807EAEFF0E0F093AB07E093F0
:104DA000AA072093AC07ECE7F5E1F093AE07E09398
:104DB000AD07ECE4FDE1F093B007E093AF070CE240
:104DC00011E01093B2070093B10792E09093B307FC
:104DD00009EF14E11093B5070093B407F093B707F8
:104DE000E093B607EEE5F1E0F093B907E093B8077A
:104DF0008093BA07E6E7F4E1F093BC07E093BB07C2
:104E0000EDEBF7E010821182128283838483158296
:104E100016820FE41DE110870783818712861386AF
:104E2000848785871686178607E41DE1118B008B22
:104E3000928B138A148A858B868B178A108E0FE3C8
:104E40001DE1128F018F238F148E158E968F978FF1
:104E500010A211A20FE11DE113A302A354A385A385
:104E600096A397A390A781A712A60FEF1CE114A702
:104E700003A735A71FE116A714E1F12EF7A620AB73
:104E800021AB12AAB3AB07EB1CE115AB04AB66ABCD
:104E900087ABF0AE21AF22AF93AF14AE0FE61CE1AB
:104EA00016AF05AFD7AF9093FD074093FE079093E1
:104EB000FF07909300089093010810920208EFE416
:104EC000FCE1F0930408E093030840930508509335
:104ED0000608EFE0E093070890930808909309080C
:104EE00030930A0810920B08EFE2FCE1F0930D08F2
:104EF000E0930C08B0930E0810920F0880931008EE
:104F000080931108209312081092130880931408BC
:104F1000E7E1FCE1F0931608E0931508A093170869
:104F2000409318083093190820931A0820931B08FF
:104F300010921C0880931D08EFECFBE1F0931F0812
:104F4000E0931E08C09320088093210880932208D4
:104F50008093230820932408109225088093260824
:104F6000E7EBFBE1F0932808E0932708709329080A
:104F700040932A0860932B0850932C0890932D0897
:104F800010922E0830932F0887E79BE19093310809
:104F900080933008DF91CF911F910F91FF90EF9098
:104FA00008958F929F92AF92BF92CF92DF92EF922D
:104FB000FF92CF93DF93EC01688179818A819B8195
:104FC000611571058105910521F464E279ED8BE5A8
:104FD00097E02DE133EF41E050E00E94BA2849010B
:104FE0005A019B01AC01A7EAB1E40E94D9286B01E8
:104FF0007C01ACEEB4EFA50194010E94E728DC012E
:10500000CB018C0D9D1DAE1DBF1DB7FF03C00197C9
:10501000A109B04888839983AA83BB83BC01CD01D1
:105020009F77DF91CF91FF90EF90DF90CF90BF906F
:10503000AF909F908F9008958F929F92AF92BF9262
:10504000CF92DF92EF92FF9260910C0170910D016F
:1050500080910E0190910F016115710581059105F7
:1050600021F464E279ED8BE597E02DE133EF41E047
:1050700050E00E94BA2849015A019B01AC01A7EAFD
:10508000B1E40E94D9286B017C01ACEEB4EFA5011C
:1050900094010E94E728DC01CB018C0D9D1DAE1D03
:1050A000BF1DB7FF03C00197A109B04880930C0151
:1050B00090930D01A0930E01B0930F01BC01CD019F
:1050C0009F77FF90EF90DF90CF90BF90AF909F9031
:1050D0008F90089560930C0170930D0180930E01E1
:1050E00090930F010895F8940C946629FB01DC015C
:1050F0004150504048F005900D920020C9F701C082
:105100001D9241505040E0F70895BB274A3031F4DA
:10511000992322F4BDE2909581959F4F0C9491289C
:10512000BB27FB015527AA27880F991FAA1FA41781
:1051300010F0A41B83955051B9F7A05DAA3308F075
:10514000A95DA193009779F7B111B1931192CB01A9
:105150000C94AA28DC01FC01672F71917723E1F7F9
:10516000329704C07C916D9370836291AE17BF0734
:10517000C8F30895052E97FB1EF400940E94D128D1
:1051800057FD07D00E94EC2807FC03D04EF40C9486
:10519000D12850954095309521953F4F4F4F5F4F07
:1051A000089590958095709561957F4F8F4F9F4F93
:1051B00008950E940E29A59F900DB49F900DA49F65
:1051C000800D911D11240895B7FF0C94D9280E94D9
:1051D000D928821B930B0895A1E21A2EAA1BBB1B90
:1051E000FD010DC0AA1FBB1FEE1FFF1FA217B307B3
:1051F000E407F50720F0A21BB30BE40BF50B661FC9
:10520000771F881F991F1A9469F76095709580958C
:1052100090959B01AC01BD01CF010895A29FB00103
:10522000B39FC001A39F700D811D1124911DB29FDA
:10523000700D811D1124911D0895F999FECF92BD25
:1052400081BDF89A992780B50895262FF999FECF48
:105250001FBA92BD81BD20BD0FB6F894FA9AF99A93
:105260000FBE0196089581E090E0F8940C946629B1
:10527000AA1BBB1B51E107C0AA1FBB1FA617B7077C
:1052800010F0A61BB70B881F991F5A95A9F7809598
:105290009095BC01CD01089597FB072E16F400945C
:1052A00007D077FD09D00E94382907FC05D03EF4CD
:1052B000909581959F4F0895709561957F4F0895C2
:1052C000EE0FFF1F0590F491E02D0994F894FFCFA5
:1052D000FFFFFFFF00E100000000000001000000F0
:1052E00000C180810000002614061400000000CCDC
:1052F0000FB3103911E20FED0F61113D11000000E5
:10530000002619D017CC19CB19000000004C14D07E
:1053100017CC19CB190625FCFF00004825030124F2
:065320000050504C00009B
:00000001FF
