:100000000C9462010C948A010C948A010C948A016C
:100010000C948A010C948A010C948A010C948A0134
:100020000C948A010C948A010C948F0A0C94FE0A99
:100030000C948A010C948A010C948A010C948A0114
:100040000C948A010C948A010C948A010C948A0104
:100050000C948A010C948A010C948A010C94300D42
:100060000C948A010C948A010C948A010C948A01E4
:100070000C948A010C948A010C948A010C948A01D4
:100080000C948A010C948A010C948A010C948A01C4
:100090000C948A010C948A010C948A010C948A01B4
:1000A0000C948A010C948A010C948A0100B000001F
:1000B000A170E150964F26900F1D070C0096690025
:1000C0004AE44A0048444000806810000F99FB8FC2
:1000D0009DBDBBFB77D4D4DF1F1A1AFE7F5D5DFF89
:1000E000805A0000A0A4AA0010BA3400FF5953F3AC
:1000F000FF9B9B9EFFB9B996FF9595D19FF4940FF6
:10010000FC295F91FF1838F8FF9294FFFF95D5F70F
:10011000BFB5DDD7F18F81F1F788C8F779C6467989
:1001200009FD9B090196F80082818280507162006E
:100130007756560076763700A2B77301077206002D
:100140007827500073347400775176007F55F7009C
:1001500047711000324772007364730015A2750076
:1001600061679400009F6060F4F2F6F246494E41E8
:100170004C2053434F52453A005245414354494F56
:100180004E204D533A00505245535320412057487A
:10019000454E205448450A53515541524520545527
:1001A000524E532057484954450A0046494E414C47
:1001B0002053434F52453A0055534520544845205B
:1001C000444952454354494F4E414C0A5041442002
:1001D000544F204D4F56452054484520484F4C45DC
:1001E0000A414E4420534F525420544845204E5506
:1001F0004D424552532E0A00D5F08D14A1C881CF2F
:10020000D9F1AF20000A41524455425241494E2093
:10021000574153204D4144452042590A0952454E09
:1002200041544F2047524F54544553490A004352BA
:10023000454449545300434F474E4954495645009D
:10024000504C414E4E494E47005245464C45580091
:10025000080B000202020100090400000102020072
:1002600000052400100105240101010424020605F3
:100270002406000107058103100040090401000263
:100280000A00000007050202400000070583024043
:1002900000000403090412010002EF02014041239F
:1002A000368000010102030141726475696E6F209E
:1002B0004C4C430055534220494F20426F617264B9
:1002C0000000AD0D11241FBECFEFDAE0DEBFCDBFC1
:1002D00011E0A0E0B1E0E2E5F7E202C005900D9286
:1002E000AE36B107D9F726E0AEE6B1E001C01D9207
:1002F000A830B207E1F711E0C2E6D1E004C02197CF
:10030000FE010E94A113C136D107C9F70E94F50D65
:100310000C94D8110C940000EDEDF1E0A0E0B8E0F1
:1003200000800EBC8111012C1197A0FDFDCF019220
:10033000B9F70DB40895480F592F511D141615061D
:1003400084F5803891056CF597FF02C090E080E05D
:100350004138510514F040E850E0481BFB01E770BC
:10036000FF2721E001C0220FEA95EAF777FF02C0DC
:10037000695F7F4FFB0133E0F595E7953A95E1F72B
:10038000F695FE2FEE27F795E795E80FF91FE35254
:10039000FE4F415030F08191DF011197822B8C93F9
:1003A000F8CF0895FC0180918C01882311F13FB7AB
:1003B000F89482E08093E9002091F200822F90E08F
:1003C0001816190614F481E090E0882339F0289873
:1003D00044E640938B014091F1004083222339F0A1
:1003E0002091F200211103C02BE62093E8003FBFCB
:1003F00008958FEF9FEF08952FB7F89483E08093CF
:10040000E9009091E800892F807295FF04C09091D7
:10041000F20080E4891B2FBF0895CF93DF931F92D2
:10042000CDB7DEB76983DC01ED91FC910280F381E9
:10043000E02D41E050E0BE016F5F7F4F09950F90C6
:10044000DF91CF91089583E08093E9008091F200DD
:10045000882319F08AE38093E80008950E94FC0144
:1004600090E00895CF93DF931F92CDB7DEB7FC01E4
:100470008485958597FD08C02FEF3FEF358724874A
:100480000F90DF91CF910895CE0101960E94D20185
:10049000019719F4898190E0F3CF8FEF9FEFF0CFB0
:1004A0000F931F93CF93DF931F92CDB7DEB78C01CD
:1004B000FC018485958597FF0BC0CE0101960E94B3
:1004C000D201019771F4898190E0F80195878487C2
:1004D000F801848595850F90DF91CF911F910F9141
:1004E00008958FEF9FEFF1CFFC018485958597FDEF
:1004F0000BC09FB7F89482E08093E9008091F200EE
:100500009FBF90E0019608959FB7F89482E0809392
:10051000E9008091F2009FBF90E0089580918101F1
:1005200081110DC082E080937D0184E080937E0183
:100530001092800110927F0181E0809381018DE70C
:1005400091E008954091790150917A0120917701CD
:100550003091780142175307B4F49091E8009570F8
:10056000E1F39091E80092FD19C08093F100809131
:10057000790190917A0101968F739927892B19F44B
:100580008EEF8093E8008091790190917A01019635
:1005900090937A018093790181E0089580E0089535
:1005A000DF92EF92FF920F931F93CF93DF93D82E9A
:1005B0008A01EB017B01E40EF51ECE15DF0559F033
:1005C000D7FE12C0FE0184910E94A20221968111E1
:1005D000F4CF0FEF1FEFC801DF91CF911F910F9163
:1005E000FF90EF90DF9008958881EECF0F931F93D7
:1005F000CF93DF931F92CDB7DEB782E0898342E4C9
:1006000050E060E572E080E80E94D0020E948E0215
:10061000DC0112960D911C910115110589F0D8018C
:10062000ED91FC910280F381E02DBE016F5F7F4F61
:10063000C801099597FD04C0F80100851185ECCF2C
:1006400089810F90DF91CF911F910F910895615093
:1006500030F02091F100FC0120830196F8CF28981A
:1006600084E680938B0108953FB7F89480917301DD
:1006700090917401A0917501B091760126B5A89B67
:1006800005C02F3F19F00196A11DB11D3FBFBA2F24
:10069000A92F982F8827BC01CD01620F711D811DE4
:1006A000911D42E0660F771F881F991F4A95D1F769
:1006B00008958F929F92AF92BF92CF92DF92EF9266
:1006C000FF926B017C010E9434034B015C01C11459
:1006D000D104E104F104B9F00E94340368197909E6
:1006E0008A099B09683E73408105910580F321E0EA
:1006F000C21AD108E108F10888EE880E83E0981E3E
:10070000A11CB11CE4CFFF90EF90DF90CF90BF9081
:10071000AF909F908F9008958F929F92AF92BF92CB
:10072000CF92DF92EF92FF920F931F93CF93DF93BD
:100730006C017B018A0180910B01882309F45CC064
:1007400080918C01882309F457C080918A0180FF31
:1007500005C08091E00082608093E000E801B12C48
:100760008AEFA82E93E0892E2AE3922E209711F487
:10077000BB20D9F10E94FC0181110AC0AA94AA20D1
:10078000D9F161E070E080E090E00E945903EECF83
:100790008C171D0611F00CF08C2F9FB7F8948092E7
:1007A000E9002091E80025FD02C09FBFDFCF282F80
:1007B00030E0C21BD30BF701815020F041914093F0
:1007C000F100FACFE20EF31EBB2021F09092E80078
:1007D000B12CEBCF8091E80085FDE7CF9092E80047
:1007E000BB24B394209709F3F3CF5D9884E68093FC
:1007F0008901101611063CF081E090E0F601938328
:10080000828310E000E0C801DF91CF911F910F912A
:10081000FF90EF90DF90CF90BF90AF909F908F9020
:100820000895FC019681962321F48581682381E057
:1008300009F480E0089580389105B8F460347105BA
:10084000A0F420E191E061FD94E060FD990F62FD6C
:100850009295687F269FD0011124A80FA352BE4F06
:100860008C91442319F0892B8C93089590958923BA
:10087000FBCFDF92EF92FF920F931F93CF93DF9303
:100880007C01D22E8B01040F111DEB0177FF02C0FA
:10089000D0E0C0E0C8010134110514F080E490E01C
:1008A000C817D9073CF44D2DBE01C7010E941B0497
:1008B0002196F0CFDF91CF911F910F91FF90EF9094
:1008C000DF900895EF92FF920F931F93CF93C62F5F
:1008D000E82EF12C81E090E09093F8058093F705E5
:1008E0009093F6058093F505C70101969093FA055C
:1008F0008093F9058FEF9FEF9093FC058093FB05A4
:100900001092FE051092FD0510E000E02C2F46E04D
:10091000B701C8010E9439040F5F1F4F0034110551
:10092000A9F781E0C827C093FF05CF911F910F91D0
:10093000FF90EF900895EF92FF920F93CF93DF9384
:10094000EB01BA0141E0400F0D5FCB0101977C0143
:10095000CE010196213019F021E0CE0101970E94CD
:10096000390421E0402FB701CE01DF91CF910F91E3
:10097000FF90EF900C943904FF920F931F93CF9345
:10098000DF93EC018B01F42E42FF0BC041E0019696
:100990000E941B0441E0B8016F5F7F4FCE010E94AF
:1009A0001B04F1FE0DC041E0B801CE0101960E948A
:1009B0001B0441E0B80161507109CE010E941B0483
:1009C000F3FE0DC041E0B8016F5F7F4FCE010E9482
:1009D0001B0441E0B801CE0101970E941B04F0FE08
:1009E00012C0B8016150710941E0CE010E941B04A0
:1009F00041E0B801CE010197DF91CF911F910F9196
:100A0000FF900C941B04DF91CF911F910F91FF90E9
:100A1000089508952D9A0895BC0190E080E00C940B
:100A200059038FB18095807F669B88601C9B846092
:100A30000895EF92FF920F931F93CF93DF938C0152
:100A40007B01D0E0C0E0F701EC0FFD1F649166234D
:100A500061F0D801ED91FC910190F081E02DC80189
:100A60000995892B11F02196EECFCE01DF91CF9120
:100A70001F910F91FF90EF900895AF92BF92CF9288
:100A8000DF92EF92FF920F931F93CF93DF936C014E
:100A90007B018B01040F151FEB015E01AE18BF082F
:100AA000C017D10759F06991D601ED91FC910190E1
:100AB000F081E02DC6010995892B79F7C501DF91F9
:100AC000CF911F910F91FF90EF90DF90CF90BF904B
:100AD000AF9008950895FC0187819085DB018D9387
:100AE0009C9381E09281933009F080E0089508950D
:100AF000FC0187819085DB018D939C9381E092813D
:100B0000953009F080E008956F927F928F929F92C6
:100B1000AF92BF92CF92DF92EF92FF920F931F930B
:100B2000CF93DF934C017B01C22F102F98E0A92EA9
:100B3000B12C642E669466946694712CCA018770F9
:100B40009927892B79F5D40117962D913C91C701EE
:100B50009927B9010E947913269DF001279DF00D78
:100B6000369DF00D11248E0F9F1FD4011596ED9127
:100B7000FC91E80FF91F2081111112C0C095C2230A
:100B8000C083DF91CF911F910F91FF90EF90DF9085
:100B9000CF90BF90AF909F908F907F906F9008956F
:100BA000C22BEECFD0E04770C42ED12C83E0660C70
:100BB000771C8A95E1F79E0101C0220F4A95EAF75A
:100BC000012FA301B701C4010E948405A301485F5E
:100BD0005F4FC5018C199D0902C0D595C7958A95AF
:100BE000E2F7A7CF3F924F925F926F927F928F92E0
:100BF0009F92AF92BF92CF92DF92EF92FF920F93AC
:100C00001F93CF93DF93EC0189899A8997FD05C0E3
:100C10002B893C89821793079CF06A3029F58D85D2
:100C20009E859C878B878F892F853889820F932F8C
:100C3000911D988B8F878B899C8901969C8B8B8BC0
:100C400081E090E0DF91CF911F910F91FF90EF90A5
:100C5000DF90CF90BF90AF909F908F907F906F90DC
:100C60005F904F903F900895EB84FC84603231F4A4
:100C700025E0E20EF11CFC86EB86DDCF693021F425
:100C800039E0E30EF11CF7CF8DEFE8168FEFF80691
:100C90000CF470C08F819885E816F9060CF06AC0D4
:100CA000CF84D8889DEFC9169FEFD9060CF462C097
:100CB00089859A85C816D9060CF05CC0603208F4A4
:100CC0006FE780EE860F9FE9960F9A3118F42FEFA9
:100CD000C21AD20A8C3011F08B3119F43FEFC31ACB
:100CE000D30A869524E0829FC00111249C012455DB
:100CF0003F4F2901B12CA12C162F1170360131E084
:100D0000631A7108F201EA0DFB1D349011113CC009
:100D1000832D8F70382E47018A0C9B1C8C81882371
:100D200051F001E08D89811100E02FE3A301B401AE
:100D3000CE010E9484050D89232DA601B401CE01A8
:100D40000E9484059FEFA91AB90A24E0A216B104F3
:100D5000C9F68C81882371F001E08D89811100E052
:100D6000A60141505109B7016C5F7F4F2FE3CE01BF
:100D70000E9484058E8990E004962B853C85820F25
:100D8000931F9C878B8757CF32948FE03822C3CF35
:100D9000089590E080E008958F929F92AF92BF9265
:100DA000EF92FF920F931F93CF93DF93CDB7DEB7F0
:100DB000A1970FB6F894DEBF0FBECDBF7C01FA013C
:100DC000CB0119A2223008F42AE08E010F5D1F4FDB
:100DD000822E912CB12CA12CBF01A50194010E945F
:100DE0000D12F901CA016A3074F5605DD8016E9385
:100DF0008D01232B242B252B79F790E080E0109791
:100E000089F0FD0101900020E9F73197AF014A1BFD
:100E10005B0BD701ED91FC910280F381E02DB801CD
:100E2000C7010995A1960FB6F894DEBF0FBECDBFDE
:100E3000DF91CF911F910F91FF90EF90BF90AF90F6
:100E40009F908F900895695CD1CF82E090E00E94DE
:100E50003E12882319F03E9A3F9A08953E983F9893
:100E600008958F929F92AF92BF92CF92DF92EF92AE
:100E7000FF920F931F93CF93DF93EC01ED81FE81DF
:100E800081E0858B8A81813099F180F0823009F48C
:100E900081C0DF91CF911F910F91FF90EF90DF9074
:100EA000CF90BF90AF909F908F900895ED81FE817D
:100EB00080E190E09687858794878387908B8787EA
:100EC0008FEF9FEF928B818B148A138A68EB71E00E
:100ED0008D819E81DF91CF911F910F91FF90EF90B7
:100EE000DF90CF90BF90AF909F908F900C9419059A
:100EF00004E010E048E3B80184E290E00E949B0126
:100F000021E048E364E070E0C80180960E94390463
:100F1000025F1F4F0A34110569F76E018DE0C80E9C
:100F2000D11C09E010E088248A94982C560194E2A0
:100F3000E92EF12CF50141915F0183E04A3008F47C
:100F400086E0ED81FE818E0D9F2D911D9687858710
:100F500094878387108B0787928A818A148A138AE1
:100F6000442341F050E070E060E02AE08D819E81F2
:100F70000E94CC06FEE0EF0EF11C8CE5E816F104B1
:100F8000C9F6025F1F4FE4E0CE0ED11C01341105FB
:100F900069F67FCFED81FE8101E010E016870587BD
:100FA00014870387108B0787EE24EA94FE2CF28ABD
:100FB000E18A148A138A6BEA71E08D819E810E9416
:100FC0001905ED81FE81168705871487038780E266
:100FD00090E0908B8787F28AE18A148A138A4F8186
:100FE000588570E060E02AE08D819E81DF91CF918D
:100FF0001F910F91FF90EF90DF90CF90BF90AF9037
:101000009F908F900C94CC06EF92FF920F931F93BA
:10101000CF93DF93EC018A81823009F494C060F4AD
:101020008823B1F1813009F44EC0DF91CF911F9137
:101030000F91FF90EF900895833009F4A6C084309B
:10104000A1F7ED81FE8101E010E016870587148786
:101050000387108B0787EE24EA94FE2CF28AE18A3C
:10106000148A138A6CE671E0CF010E941905ED81A4
:10107000FE81168705871487038780E290E0908BB6
:101080008787F28AE18A148A138A4F815885A9C01A
:10109000ED81FE8180E190E0968785879487838744
:1010A000908B87878FEF9FEF928B818B148A138AA7
:1010B00066E871E0CF01DF91CF911F910F91FF9012
:1010C000EF900C9419054EE160E170E081E390E04F
:1010D0000E949B014EE16FE270E081E390E00E948C
:1010E0009B0121E04EE161E170E080E390E00E942D
:1010F000390421E04EE161E170E08FE490E00E946C
:10110000390441E061E170E081E390E00E94BC04B9
:1011100042E061E170E08EE490E00E94BC0444E0B3
:101120006EE270E08EE490E00E94BC0448E06EE263
:1011300070E081E390E0DF91CF911F910F91FF90DC
:10114000EF900C94BC04EB80FC80C1E3D0E021E084
:1011500040E260E170E0CE010E9439042196CF3474
:10116000D105A9F70DE110E021E041E150E06EE486
:1011700070E0C7010E949B0422E041E150E061E37E
:1011800070E0C7010E949B0450CFED81FE8101E019
:1011900010E01687058714870387108B0787EE24D6
:1011A000EA94FE2CF28AE18A148A138A69E771E0D4
:1011B000CF010E941905ED81FE81168705871487EE
:1011C000038780E290E0908B8787F28AE18A148A15
:1011D000138A8D899E89880F991FC80FD91F498549
:1011E0005A8570E060E02AE0CF01DF91CF911F9136
:1011F0000F91FF90EF900C94CC060C94F0120C948D
:10120000F012EF92FF920F931F93CF93DF93EC01B5
:1012100089859A854F969A8789878A81813009F4D2
:1012200043C050F0823009F4F1C0DF91CF911F919B
:101230000F91FF90EF90089568E08B819C810E9450
:101240001104882391F381E08A837E0101E010E09C
:101250000E94C811D7011D962C91B8010E947913E4
:10126000FE01E80FF11D8585D7011D968C9325871A
:101270000F5F1F4FBFEFEB1AFB0A0131110541F75A
:1012800080E0FE01E80FF11D9585992311F08F5F35
:10129000F8CF982F93709D8F869586958E8F1A869E
:1012A00019861C861B86C1CF0B811C8160E8C80192
:1012B0000E9411048823F1F12E8D2223D9F0E22F10
:1012C000E150FF0BCF01880F991F880F991FED8DFB
:1012D000F0E0DC01AE0FBF1FAC0FBD1F1D963C91AF
:1012E0001D978C0F9D1FE80FF91F318B1D961C92C7
:1012F00021502E8FFE013D9681E090E041919C01AE
:101300002F7033274217130609F08FCF01968131D2
:101310009105A1F72B853C8590E080E025363105CD
:1013200020F484E690E0821B930B98878F8382E001
:101330008A837BCF60E1C8010E9411048823E9F011
:101340002E8D2330B8F6822F90E00196880F991FDA
:10135000880F991FED8DF0E0DC01AE0FBF1FAC0FC1
:10136000BD1F1D963C911D978C0F9D1FE80FF91F07
:1013700031871D961C922F5FBCCF60E2C8010E948E
:1013800011048823C9F02D8D222309F4B3CF8E8D4B
:10139000F4E08F9FC0011124820F911DFC01319751
:1013A000EC0FFD1F35858C0F9D1FDC011D963C93B6
:1013B000158621502D8F9ECF60E4C8010E94110434
:1013C0008823C1F02D8D233008F094CF8E8DB4E0AA
:1013D0008B9FC0011124820F911DFC013196EC0FEF
:1013E000FD1F35858C0F9D1FDC011D963C931586D6
:1013F0002F5FE0CF64E0C8010E941104882309F444
:1014000079CF18861F8283E08A8374CF68E08B814E
:101410009C810E941104882309F407CF83E088CFC0
:101420000F931F93CF93DF93EC0109891A89015E13
:101430001F4F1A8B098B8A818230B1F148F48823BF
:10144000A9F0813049F1DF91CF911F910F9108955B
:10145000833009F43FC08430B1F768E08B819C8110
:101460000E941104882379F385E01CC068E08B8119
:101470009C810E941104882331F381E08A831A8AB7
:10148000198A0E94C81168E873E10E947913805399
:10149000984F9C8B8B8BD7CF8B899C89801791071A
:1014A00090F682E08A83CFCF68E08B819C810E9496
:1014B0001104882341F283E08A83ED89FE89EE0FCF
:1014C000FF1FEC0FFD1F8B899C89081B190B1287CE
:1014D0000187B9CF68E08B819C810E941104882329
:1014E00009F4B1CF8D899E8901969E8B8D8B0497CF
:1014F00020F289859A852B853C85820F931F2D8547
:101500003E85820F931F2F853889820F931F9695F2
:1015100087959695879598878F8384E0C3CF1F9290
:101520000F920FB60F9211248F939F938091E10039
:101530009091E100937F9093E10083FF0FC01092A0
:10154000E90091E09093EB001092EC0092E390930D
:10155000ED0010928C0198E09093F00082FF22C081
:1015600093E09093E9009091F200992319F09AE3A7
:101570009093E80090918901992341F0909189011D
:10158000915090938901911101C05D9A90918B01C6
:10159000992341F090918B01915090938B0191117F
:1015A00001C0289A84FF18C08091E2008E7E81607D
:1015B0008093E2008091E1008F7E8093E100809132
:1015C0008A018E7E806180938A019F918F910F9016
:1015D0000FBE0F901F90189580FFF7CF8091E2000B
:1015E0008E7E80618093E2008091E1008E7E809308
:1015F000E10080918A018E7E8160E5CF1F920F927B
:101600000FB60F921124CF92DF92EF92FF920F93B9
:101610001F932F933F934F935F936F937F938F937A
:101620009F93AF93BF93EF93FF93CF93DF93CDB788
:10163000DEB76C97DEBFCDBF1092E9008091E80065
:1016400083FF25C068E0CE0145960E94270382EF04
:101650008093E8008D8987FF39C09091E80090FF62
:10166000FCCF982F907609F034C19E894F89588D10
:101670002F89F88C911131C0803861F580917C01FF
:101680008093F1001092F1008EEF8093E8006C9649
:101690000FB6F894DEBF0FBECDBFDF91CF91FF91A3
:1016A000EF91BF91AF919F918F917F916F915F91DA
:1016B0004F913F912F911F910F91FF90EF90DF90ED
:1016C000CF900F900FBE0F901F9018959EEF9093A4
:1016D000E800C7CF1092F100D5CF913059F48111B5
:1016E000D3CF4130510581F680917C018D7F80936D
:1016F0007C01CACF933049F48111C6CF41305105E6
:1017000019F680917C018260F2CF953041F480918E
:10171000E80080FFFCCF20682093E300B5CF96302F
:1017200009F0A9C00B8D1C8D22E01092E9001092E7
:101730007A0110927901F2122EC010927801109263
:1017400077010E94F6021F8299E09983FA8291E064
:101750009E8390EA98879AEF99872091790130913A
:101760007A01275F3F4F3C832B838D831092E900E2
:1017700010927A0110927901109378010093770109
:1017800049E050E0BE016F5F7F4F80E00E94D002D1
:101790000E94F60279CF10937801009377010E949E
:1017A0008E02DC0112960D911C910115110509F4B0
:1017B00051C1D801ED91FC910480F581E02DBE016D
:1017C0006B5E7F4FC8010995009709F03EC1F80193
:1017D00000851185EACFF3E0FF120EC08F898823C0
:1017E00009F440C0823061F440E86CE084EB92E0A0
:1017F0000E947A0D811148CF81E28093EB0047CFA0
:10180000813029F440E86BE088EA92E0F1CF833040
:1018100099F70E948E02DC011296ED90FC908E01E9
:101820000F5F1F4F6801E114F10479F0D701ED91CA
:10183000FC910680F781E02DB801C7010995080FDA
:10184000111DF701E084F184EECFD8011C92F6015E
:1018500001900020E9F73197BF016C197D0940E044
:10186000C601C6CF62E972E0FB01449150E080E816
:101870000E94D00209CF973009F4BECF983021F4EE
:1018800081E08093F10000CF993009F0FDCE8370A4
:1018900009F0B2CFE3E4F1E081E031E096E3219199
:1018A000222371F08093E9003093EB00DF01119760
:1018B0002C912093EC009093ED008F5F873079F7A7
:1018C0008EE78093EA001092EA008F8980938C0162
:1018D000DBCE8B8D9C8D1092E90010927A011092D4
:1018E00079019093780180937701898D811192C05D
:1018F0008E899D89913A49F4813209F07DCF47E084
:1019000050E064E071E080E0B3CF913209F074CF31
:10191000833269F48F89988DB0E0A0E08093000154
:1019200090930101A0930201B0930301ADCE8032E8
:1019300069F48091E80082FFFCCF67E084E091E0E9
:101940000E9427038BEF8093E8009ECE823209F03D
:101950009BCE8F8980930B01EEEFFFE785919491E9
:101960008B3F9C4D51F1E0E0F8E0809104019091B3
:101970000501A0910601B0910701803B9440A105AB
:10198000B105F1F480910B0180FD1AC0EE3F8AE0B1
:10199000F80789F587E797E7918380838091600056
:1019A00080937B0188E19BE00FB6F894A895809323
:1019B00060000FBE9093600067CEEEEFFAE0D5CFE7
:1019C000808191818737974709F05ECEA8958091F5
:1019D000600088618093600080917B01809360004B
:1019E000EE3F2AE0F20789F08091FE0A9091FF0A0B
:1019F0009183808349CE808191818737980751F206
:101A00009093FF0A8093FE0AC5CF1092FF0A1092AE
:101A1000FE0A3ACE0E948E02DC0112960D911C91B4
:101A20000115110509F4E8CED801ED91FC91019062
:101A3000F081E02DBE016B5E7F4FC80109958111D9
:101A400023CEF80100851185EBCF181619060CF48A
:101A50001BCED2CEF1E0FF12BECE66E972E004CF1B
:101A60001F920F920FB60F9211242F933F938F93D3
:101A70009F93AF93BF9380916F0190917001A0915C
:101A80007101B091720130916E0123E0230F2D3767
:101A900058F50196A11DB11D20936E0180936F0131
:101AA00090937001A0937101B093720180917301C2
:101AB00090917401A0917501B09176010196A11DDC
:101AC000B11D8093730190937401A0937501B0933D
:101AD0007601BF91AF919F918F913F912F910F9080
:101AE0000FBE0F901F90189526E8230F0296A11D98
:101AF000B11DD2CFEF92FF920F931F93CF93DF933D
:101B0000F82E192FE62E042F81E0860F880F0E94F1
:101B1000A20283E00E94A202CF2DD12FEC0EFD2E57
:101B2000F11CCE15DF05B9F007FF13C0FE0184914B
:101B30000E94A202182F80E00E94A2028123219617
:101B40008111EFCFDF91CF911F910F91FF90EF9017
:101B500008958881EDCF81E0F5CFEDE8F1E01382C3
:101B6000128288EE93E0A0E0B0E084839583A683A0
:101B7000B7838DE491E0918380832FEF3FEF35872A
:101B80002487EDEDF5E0118210828BE691E09383DE
:101B900082831782108680E18187168215821386E0
:101BA000108A17868FE591E0968785878DED91E005
:101BB000938B828B80E890E0958B848B80E490E01F
:101BC000978B868B85E084A381E083A3138E128E8E
:101BD000158E148E118E108E378F268F11A210A2A3
:101BE00082A3118A15A216A20895CF93DF9300D085
:101BF000CDB7DEB7789484B5826084BD84B581604A
:101C000084BD85B5826085BD85B5816085BD8091C7
:101C10006E00816080936E0010928100809181003F
:101C20008260809381008091810081608093810037
:101C3000809180008160809380008091910082601B
:101C400080939100809191008160809391008091B8
:101C500090008160809390008091C10084608093A7
:101C6000C1008091C10082608093C1008091C10059
:101C700081608093C1008091C30081608093C30024
:101C80008091C00082608093C0008091C20081601A
:101C90008093C20080917A00846080937A00809162
:101CA0007A00826080937A0080917A0081608093CC
:101CB0007A0080917A00806880937A0010928C017B
:101CC00010927C0110928A018091D70081608093EC
:101CD000D70080EA8093D80089B5806189BD89B535
:101CE000826089BD09B400FEFDCF61E070E080E054
:101CF00090E00E9459038091D8008F7C806180938E
:101D0000D8008091E000807F8093E0008091E10026
:101D10008E7E8093E1008DE08093E200559A209AB8
:101D2000809164008E7F8093640080917A0080644B
:101D300080937A0080917A0086FDFCCF0091780034
:101D4000109179000E943403AB01BC0190916400B2
:101D5000916090936400C801B0E0A0E0DC01992795
:101D60008827840F951FA61FB71F0E94CD1181ECF5
:101D700080937C0085B1806F85B984B1877E84B9FA
:101D800084B1876E84B95E9A5F988AB1806D8AB992
:101D9000769A6E9881B3806F81BB899880B38D707D
:101DA00080BB80E58CBD81E08DBD85E090E00E9428
:101DB0000C055F9A85E090E00E940C055E985C98A7
:101DC000E8EFF1E084918EBD00000DB407FEFDCF79
:101DD000319682E0E530F807A9F75C9A81E88093B4
:101DE00064008091650081608093650080E00E94BE
:101DF0008C010E94110587FF15C05C9885EA8EBD95
:101E000000000DB407FEFDCF5C9A2E982F982D98F8
:101E10008091640080628093640081E083BF889534
:101E200013BEFCCF0E94110582FF48C02D980E946E
:101E3000110584788438E1F40E940A0588EC90E06A
:101E40000E940C052F9882E090E00E943E128F3F86
:101E500029F06FEF82E090E00E94461284EF91E05B
:101E60000E940C052F9A0E94110584788438D9F3BA
:101E70000E94110584718431E1F40E940A0588EC06
:101E800090E00E940C052E9882E090E00E943E12A5
:101E9000882329F060E082E090E00E94461284EFFF
:101EA00091E00E940C052E9A0E94110584718431E4
:101EB000D9F388EC90E00E940C05B4CF0E940A058B
:101EC0000E94250781E090E00E943E128470F82E67
:101ED00081E090E00E943E1281FF0CC0F1102E982C
:101EE00000EF1FEF0E94110586FF4BC02E9A2F9A1C
:101EF0000E940A0582E390E00E940C050E941105F1
:101F00008111F8CF8FE18093E6050E9425072DED22
:101F1000E22E21E0F22E3AE2C32E31E0D32E48E346
:101F2000A42E41E0B42E50E0652E50E0752E02E064
:101F300010E088248A94982C55245394312C82E004
:101F4000282E96E0492E8FB7F89440916F0150915A
:101F5000700160917101709172018FBF8091E705EE
:101F6000942F981B892F9091E805992361F1809314
:101F7000E9051092E8056114710429F30E9400003C
:101F8000DBCFFF2029F00430110511F42E9A2F9891
:101F900081E00E948C0180E00E948C018FE090E043
:101FA0000E940C050F5F1F4F0931110509F09ACFF0
:101FB000FF2011F02F9A2D9880E991E00E940C05E6
:101FC0000E940A0597CF9091E605891738F48F5F34
:101FD000891788F653BE889513BECDCF5092E80579
:101FE0004093E7058091E2059091E3050196909377
:101FF000E3058093E2058091E4058093E5050E9466
:1020000011058093E40580910206813009F4C9C06E
:10201000D8F0823009F4F9C0832DF70181118FEFD8
:10202000002481938193819381930394D1F78091CC
:102030000206813009F439C108F4F6C0823009F48F
:1020400040C1109202062DC160E88FED95E00E941C
:102050001104882339F080910306813041F120F189
:10206000863041F160E18FED95E00E9411048823F4
:1020700039F080910306813019F1F8F0863019F1BA
:1020800068E08FED95E00E941104882309F4C4CF25
:1020900080910306813009F44DC0C0F0863009F00C
:1020A000BBCF20920206B8CF40920306DBCF10923E
:1020B0000306D8CF50920306D5CF50920306E0CF47
:1020C00040920306DDCF10920306DACF8091DD0542
:1020D0009091DE05009739F0DC01ED91FC910280D2
:1020E000F381E02D099587E190E00E945412FC01F4
:1020F000B182A08212828FED95E0948383838AEE71
:1021000095E096838583108617829F01275F3F4F56
:1021100088E0D9011D928A95E9F7128A118A148AFA
:10212000138A168A158AF093DE05E093DD05509236
:10213000020672CF8091DD059091DE05009739F09F
:10214000DC01ED91FC910280F381E02D09958FE196
:1021500090E00E945412FC01D182C08212822FEDC5
:1021600035E0348323832AEE35E0368325831086D9
:102170001782128611861486138620E1E6E1F1E0CB
:10218000DC011D9601900D922A95E1F7DC015D9628
:102190001C925D975E961C929093DE058093DD0500
:1021A000C6CF8091DD059091DE05009759F1DC01E5
:1021B000ED91FC910480F581E02D09951A82198238
:1021C0008091DD059091DE05DC01ED91FC910084AC
:1021D000F185E02DBE016F5F7F4F0995882309F4DB
:1021E0001BCF8091DD059091DE05009739F0DC0171
:1021F000ED91FC910280F381E02D09951092DE05AE
:102200001092DD051092020607CF68E08FED95E091
:102210000E9411048111F6CF64E08FED95E00E94D9
:1022200011048111EFCFF8CE61E080910306811196
:1022300060E080E00E94620469E472E08AEE95E06A
:102240000E94190561E080910306813009F060E089
:1022500088E00E94620460E472E08AEE95E00E94E9
:10226000190561E080910306823009F060E080E1A9
:102270000E94620466E372E08AEE95E00E9419050E
:1022800061E080910306863009F060E088E10E94F9
:1022900062046EE272E08AEE95E00E9419055092A7
:1022A000FF0580E00E948C0166CE8091DD05909153
:1022B000DE05DC01ED91FC910680F781E02D0995AA
:1022C000F0CF1093F8050093F7051093F6050093EF
:1022D000F5051092FA051092F9059092FC0580928E
:1022E000FB051092FE051092FD0565E072E08AEE96
:1022F00095E00E941905D5CF8F929F92AF92BF9221
:10230000CF92DF92EF92FF92CF93DF93EC0168813F
:1023100079818A819B81611571058105910521F47F
:1023200064E279ED8BE597E02DE133EF41E050E099
:102330000E94DB1149015A019B01AC01A7EAB1E4FB
:102340000E94FA116B017C01ACEEB4EFA50194017F
:102350000E940812DC01CB018C0D9D1DAE1DBF1D1E
:10236000B7FF03C00197A109B04888839983AA8366
:10237000BB839F77DF91CF91FF90EF90DF90CF905D
:10238000BF90AF909F908F9008950E947C11089508
:102390008CE091E00E947C110895B0E0A0E0809371
:1023A0000C0190930D01A0930E01B0930F010895BD
:1023B000F8940C94A713052E97FB1EF400940E942A
:1023C000F21157FD07D00E940D1207FC03D04EF406
:1023D0000C94F21150954095309521953F4F4F4FF9
:1023E0005F4F089590958095709561957F4F8F4FC1
:1023F0009F4F08950E942F12A59F900DB49F900D9E
:10240000A49F800D911D11240895B7FF0C94FA111B
:102410000E94FA11821B930B0895A1E21A2EAA1BA7
:10242000BB1BFD010DC0AA1FBB1FEE1FFF1FA21784
:10243000B307E407F50720F0A21BB30BE40BF50B81
:10244000661F771F881F991F1A9469F7609570950A
:10245000809590959B01AC01BD01CF010895A29F8D
:10246000B001B39FC001A39F700D811D1124911D68
:10247000B29F700D811D1124911D0895F999FECF11
:1024800092BD81BDF89A992780B50895262FF999B4
:10249000FECF1FBA92BD81BD20BD0FB6F894FA9A47
:1024A000F99A0FBE019608950F931F93CF93DF9370
:1024B0008230910510F482E090E0E0910606F09100
:1024C000070630E020E0B0E0A0E0309799F4211555
:1024D000310509F44AC0281B390B24303105D8F5E1
:1024E0008A819B816115710589F1FB019383828348
:1024F000FE0111C0408151810281138148175907A3
:10250000E0F04817590799F4109761F012960C9370
:10251000129713961C933296CF01DF91CF911F91A2
:102520000F9108950093060610930706F4CF211526
:10253000310551F04217530738F0A901DB019A0128
:10254000BD01DF01F801C1CFEF01F9CF909307067C
:1025500080930606CDCFFE01E20FF31F8193919386
:102560002250310939832883D7CF20910406309136
:102570000506232B41F42091120130911301309371
:1025800005062093040620911001309111012115B8
:10259000310541F42DB73EB740911401509115011A
:1025A000241B350BE0910406F0910506E217F307B2
:1025B000A0F42E1B3F0B2817390778F0AC014E5FB3
:1025C0005F4F2417350748F04E0F5F1F50930506E5
:1025D00040930406819391939FCFF0E0E0E09CCF7D
:1025E000CF93DF930097E9F0FC01329713821282B8
:1025F000A0910606B0910706ED0130E020E01097AB
:10260000A1F420813181820F931F20910406309123
:1026100005062817390709F061C0F0930506E09315
:102620000406DF91CF910895EA01CE17DF07E8F5A0
:102630004A815B819E0141155105B1F7E901FB8398
:10264000EA8349915991C40FD51FEC17FD0761F436
:10265000808191810296840F951FE9019983888377
:10266000828193819B838A83F0E0E0E012968D91D2
:102670009C9113970097B9F52D913C911197CD013D
:102680000296820F931F20910406309105062817A9
:10269000390739F6309751F5109207061092060661
:1026A000B0930506A0930406BCCFD383C2834081B8
:1026B0005181840F951FC817D90761F44E5F5F4F92
:1026C00088819981480F591F518340838A819B815A
:1026D000938382832115310509F0B0CFF09307066B
:1026E000E09306069ECFFD01DC01C0CF138212826B
:1026F000D7CF97FB072E16F4009407D077FD09D0AB
:102700000E948D1307FC05D03EF4909581959F4F54
:102710000895709561957F4F0895AA1BBB1B51E1E9
:1027200007C0AA1FBB1FA617B70710F0A61BB70B41
:10273000881F991F5A95A9F780959095BC01CD01E6
:102740000895EE0FFF1F0590F491E02D0994F89481
:02275000FFCFB9
:10275200FFFFFFFF00E10000000000000100000099
:1027620000000806800000010203040506070809AC
:102772000A0B0C0D0E0F000000006A05FF0801098C
:1027820031076B05000000007705FD08100A0408F8
:10279200780500C18081000000000000000D028C5D
:1027A200032E02230274023202500200000000F2E1
:0E27B200053D05C906C8060000000009050027
:00000001FF
