:100000000C943B010C9463010C9463010C94630108
:100010000C9463010C9463010C9463010C946301D0
:100020000C9463010C9463010C946C080C94DB0831
:100030000C9463010C9463010C9463010C946301B0
:100040000C9463010C9463010C9463010C946301A0
:100050000C9463010C9463010C9463010C940D0BDC
:100060000C9463010C9463010C9463010C94630180
:100070000C9463010C9463010C9463010C94630170
:100080000C9463010C9463010C9463010C94630160
:100090000C9463010C9463010C9463010C94630150
:1000A0000C9463010C9463010C94630100B0000094
:1000B000A170E150964F26900F1D070C0096690025
:1000C0004AE44A0048444000806810000F99FB8FC2
:1000D0009DBDBBFB77D4D4DF1F1A1AFE7F5D5DFF89
:1000E000805A0000A0A4AA0010BA3400FF5953F3AC
:1000F000FF9B9B9EFFB9B996FF9595D19FF4940FF6
:10010000FC295F91FF1838F8FF9294FFFF95D5F70F
:10011000BFB5DDD7F18F81F1F788C8F779C6467989
:1001200009FD9B090196F80082818280507162006E
:100130007756560076763700A2B77301077206002D
:100140007827500073347400775176007F55F7009C
:1001500047711000324772007364730015A2750076
:1001600061679400009F6060F4F2F6F246494E41E8
:100170004C2053434F52453A005245414354494F56
:100180004E204D533A00505245535320412057487A
:10019000454E205448450A53515541524520545527
:1001A000524E532057484954450A00D5F08D14A1AA
:1001B000C881CFD9F1AF20000A4152445542524183
:1001C000494E20574153204D4144452042590A0988
:1001D00052454E41544F2047524F54544553490ABB
:1001E000004352454449545300434F474E495449F4
:1001F000564500504C414E4E494E47005245464CE4
:10020000455800080B000202020100090400000129
:10021000020200000524001001052401010104244C
:1002200002060524060001070581031000400904A9
:100230000100020A00000007050202400000070555
:1002400083024000000403090412010002EF0201CE
:100250004041233680000101020301417264756947
:100260006E6F204C4C430055534220494F20426F43
:10027000617264008A0B11241FBECFEFDAE0DEBF8B
:10028000CDBF11E0A0E0B1E0EEE6F2E202C00590E1
:100290000D92AC34B107D9F725E0ACE4B1E001C070
:1002A0001D92A63EB207E1F711E0CBE3D1E004C016
:1002B0002197FE010E942F11CA33D107C9F70E946E
:1002C000D20B0C94660F0C940000EBEBF1E0A0E075
:1002D000B8E000800EBC8111012C1197A0FDFDCF6C
:1002E0000192B9F70DB40895480F592F511D1416F6
:1002F000150684F5803891056CF597FF02C090E0F3
:1003000080E04138510514F040E850E0481BFB0103
:10031000E770FF2721E001C0220FEA95EAF777FF97
:1003200002C0695F7F4FFB0133E0F595E7953A9591
:10033000E1F7F695FE2FEE27F795E795E80FF91F01
:10034000E554FE4F415030F08191DF011197822B2F
:100350008C93F8CF0895FC0180916A01882311F1F4
:100360003FB7F89482E08093E9002091F200822F59
:1003700090E01816190614F481E090E0882339F013
:10038000289844E6409369014091F100408322237C
:1003900039F02091F200211103C02BE62093E800F0
:1003A0003FBF08958FEF9FEF08952FB7F89483E034
:1003B0008093E9009091E800892F807295FF04C036
:1003C0009091F20080E4891B2FBF0895CF93DF93B3
:1003D0001F92CDB7DEB76983DC01ED91FC910280FD
:1003E000F381E02D41E050E0BE016F5F7F4F099542
:1003F0000F90DF91CF91089583E08093E900809181
:10040000F200882319F08AE38093E80008950E949F
:10041000D50190E00895CF93DF931F92CDB7DEB75B
:10042000FC018485958597FD08C02FEF3FEF358748
:1004300024870F90DF91CF910895CE0101960E94FD
:10044000AB01019719F4898190E0F3CF8FEF9FEF13
:10045000F0CF0F931F93CF93DF931F92CDB7DEB7EB
:100460008C01FC018485958597FF0BC0CE01019618
:100470000E94AB01019771F4898190E0F8019587A2
:100480008487F801848595850F90DF91CF911F9126
:100490000F9108958FEF9FEFF1CFFC018485958533
:1004A00097FD0BC09FB7F89482E08093E90080919C
:1004B000F2009FBF90E0019608959FB7F89482E004
:1004C0008093E9008091F2009FBF90E008958091B1
:1004D0005F0181110DC082E080935B0184E0809315
:1004E0005C0110925E0110925D0181E080935F01DA
:1004F0008BE591E00895409157015091580120916A
:1005000055013091560142175307B4F49091E80019
:100510009570E1F39091E80092FD19C08093F1008D
:10052000809157019091580101968F739927892BDB
:1005300019F48EEF8093E800809157019091580153
:100540000196909358018093570181E0089580E0CF
:100550000895DF92EF92FF920F931F93CF93DF9353
:10056000D82E8A01EB017B01E40EF51ECE15DF05C6
:1005700059F0D7FE12C0FE0184910E947B022196A1
:100580008111F4CF0FEF1FEFC801DF91CF911F91C1
:100590000F91FF90EF90DF9008958881EECF0F9339
:1005A0001F93CF93DF931F92CDB7DEB782E089838D
:1005B00042E450E063E072E080E80E94A9020E94F9
:1005C0006702DC0112960D911C910115110589F04D
:1005D000D801ED91FC910280F381E02DBE016F5FA7
:1005E0007F4FC801099597FD04C0F801008511856A
:1005F000ECCF89810F90DF91CF911F910F910895DA
:10060000615030F02091F100FC0120830196F8CF79
:10061000289884E68093690108953FB7F894809103
:10062000510190915201A0915301B091540126B50E
:10063000A89B05C02F3F19F00196A11DB11D3FBF1A
:10064000BA2FA92F982F8827BC01CD01620F711DE9
:10065000811D911D42E0660F771F881F991F4A95E3
:10066000D1F708958F929F92AF92BF92CF92DF926F
:10067000EF92FF926B017C010E940D034B015C0124
:10068000C114D104E104F104B9F00E940D0368190A
:1006900079098A099B09683E73408105910580F3B9
:1006A00021E0C21AD108E108F10888EE880E83E043
:1006B000981EA11CB11CE4CFFF90EF90DF90CF906B
:1006C000BF90AF909F908F9008958F929F92AF921E
:1006D000BF92CF92DF92EF92FF920F931F93CF932F
:1006E000DF936C017B018A0180910B01882309F45F
:1006F0005CC080916A01882309F457C08091680129
:1007000080FF05C08091E00082608093E000E801F6
:10071000B12C8AEFA82E93E0892E2AE3922E2097FF
:1007200011F4BB20D9F10E94D50181110AC0AA940D
:10073000AA20D9F161E070E080E090E00E943203ED
:10074000EECF8C171D0611F00CF08C2F9FB7F8948C
:100750008092E9002091E80025FD02C09FBFDFCF15
:10076000282F30E0C21BD30BF701815020F04191BC
:100770004093F100FACFE20EF31EBB2021F09092DD
:10078000E800B12CEBCF8091E80085FDE7CF909297
:10079000E800BB24B394209709F3F3CF5D9884E677
:1007A00080936701101611063CF081E090E0F6019D
:1007B0009383828310E000E0C801DF91CF911F9105
:1007C0000F91FF90EF90DF90CF90BF90AF909F90F0
:1007D0008F900895FC019681962321F485816823EA
:1007E00081E009F480E0089580389105B8F4603420
:1007F0007105A0F420E191E061FD94E060FD990FA6
:1008000062FD9295687F269FD0011124A80FA55400
:10081000BE4F8C91442319F0892B8C9308959095A9
:100820008923FBCFDF92EF92FF920F931F93CF9319
:10083000DF937C01D22E8B01040F111DEB0177FF9A
:1008400002C0D0E0C0E0C8010134110514F080E41A
:1008500090E0C817D9073CF44D2DBE01C7010E9496
:10086000F4032196F0CFDF91CF911F910F91FF906C
:10087000EF90DF900895EF92FF920F931F93CF9325
:10088000C62FE82EF12C81E090E09093D60580935E
:10089000D5059093D4058093D305C7010196909315
:1008A000D8058093D7058FEF9FEF9093DA0580935B
:1008B000D9051092DC051092DB0510E000E02C2F2A
:1008C00046E0B701C8010E9412040F5F1F4F0034B9
:1008D0001105A9F781E0C827C093DD05CF911F91CD
:1008E0000F91FF90EF900895EF92FF920F93CF93A7
:1008F000DF93EB01BA0141E0400F0D5FCB0101979F
:100900007C01CE010196213019F021E0CE01019742
:100910000E94120421E0402FB701CE01DF91CF9158
:100920000F91FF90EF900C941204FF920F931F937E
:10093000CF93DF93EC018B01F42E42FF0BC041E01B
:1009400001960E94F40341E0B8016F5F7F4FCE0132
:100950000E94F403F1FE0DC041E0B801CE01019602
:100960000E94F40341E0B80161507109CE010E9478
:10097000F403F3FE0DC041E0B8016F5F7F4FCE017D
:100980000E94F40341E0B801CE0101970E94F403F4
:10099000F0FE12C0B8016150710941E0CE010E9421
:1009A000F40341E0B801CE010197DF91CF911F918F
:1009B0000F91FF900C94F403DF91CF911F910F9151
:1009C000FF90089508952D9A0895BC0190E080E06D
:1009D0000C9432038FB18095807F669B88601C9B4E
:1009E00084600895EF92FF920F931F93CF93DF934C
:1009F0008C017B01D0E0C0E0F701EC0FFD1F64919A
:100A0000662361F0D801ED91FC910190F081E02D19
:100A1000C8010995892B11F02196EECFCE01DF9107
:100A2000CF911F910F91FF90EF900895AF92BF92D9
:100A3000CF92DF92EF92FF920F931F93CF93DF93AA
:100A40006C017B018B01040F151FEB015E01AE18D9
:100A5000BF08C017D10759F06991D601ED91FC91FB
:100A60000190F081E02DC6010995892B79F7C50128
:100A7000DF91CF911F910F91FF90EF90DF90CF907A
:100A8000BF90AF900895FC0187819085DB018D9325
:100A90009C9381E09281953009F080E008956F92F7
:100AA0007F928F929F92AF92BF92CF92DF92EF92FE
:100AB000FF920F931F93CF93DF934C017B01C22FC3
:100AC000102F98E0A92EB12C642E6694669466943B
:100AD000712CCA0187709927892B79F5D401179653
:100AE0002D913C91C7019927B9010E940711269DBC
:100AF000F001279DF00D369DF00D11248E0F9F1FE4
:100B0000D4011596ED91FC91E80FF91F2081111188
:100B100012C0C095C223C083DF91CF911F910F9166
:100B2000FF90EF90DF90CF90BF90AF909F908F900D
:100B30007F906F900895C22BEECFD0E04770C42E07
:100B4000D12C83E0660C771C8A95E1F79E0101C0E9
:100B5000220F4A95EAF7012FA301B701C4010E94B1
:100B60004F05A301485F5F4FC5018C199D0902C065
:100B7000D595C7958A95E2F7A7CF3F924F925F929E
:100B80006F927F928F929F92AF92BF92CF92DF929D
:100B9000EF92FF920F931F93CF93DF93EC0189891C
:100BA0009A8997FD05C02B893C89821793079CF091
:100BB0006A3029F58D859E859C878B878F892F8547
:100BC0003889820F932F911D988B8F878B899C89F1
:100BD00001969C8B8B8B81E090E0DF91CF911F91F0
:100BE0000F91FF90EF90DF90CF90BF90AF909F90CC
:100BF0008F907F906F905F904F903F900895EB841F
:100C0000FC84603231F425E0E20EF11CFC86EB86B8
:100C1000DDCF693021F439E0E30EF11CF7CF8DEF21
:100C2000E8168FEFF8060CF470C08F819885E816EF
:100C3000F9060CF06AC0CF84D8889DEFC9169FEFE3
:100C4000D9060CF462C089859A85C816D9060CF0BD
:100C50005CC0603208F46FE780EE860F9FE9960F64
:100C60009A3118F42FEFC21AD20A8C3011F08B315E
:100C700019F43FEFC31AD30A869524E0829FC0017E
:100C800011249C0124553F4F2901B12CA12C162F72
:100C90001170360131E0631A7108F201EA0DFB1D93
:100CA000349011113CC0832D8F70382E47018A0C6F
:100CB0009B1C8C81882351F001E08D89811100E01B
:100CC0002FE3A301B401CE010E944F050D89232D0E
:100CD000A601B401CE010E944F059FEFA91AB90ADF
:100CE00024E0A216B104C9F68C81882371F001E0DA
:100CF0008D89811100E0A60141505109B7016C5F57
:100D00007F4F2FE3CE010E944F058E8990E004961D
:100D10002B853C85820F931F9C878B8757CF3294FE
:100D20008FE03822C3CF089590E080E008958F923D
:100D30009F92AF92BF92EF92FF920F931F93CF9328
:100D4000DF93CDB7DEB7A1970FB6F894DEBF0FBE25
:100D5000CDBF7C019B0150E040E019A28E010F5DE8
:100D60001F4F8AE0882E912CA12CB12CCA01B90109
:100D7000A50194010E949B0F605DD8016E938D01C7
:100D8000211531054105510589F790E080E0109764
:100D900089F0C701FD0101900020E9F73197AF010B
:100DA0004A1B5B0BD701ED91FC910280F381E02D92
:100DB000B8010995A1960FB6F894DEBF0FBECDBF5E
:100DC000DF91CF911F910F91FF90EF90BF90AF9067
:100DD0009F908F900895EF92FF920F931F93CF9360
:100DE000DF93EC018A81823009F494C060F4882397
:100DF000B1F1813009F44EC0DF91CF911F910F9175
:100E0000FF90EF900895833009F4A6C08430A1F7D5
:100E1000ED81FE8101E010E01687058714870387C6
:100E2000108B0787EE24EA94FE2CF28AE18A148A5A
:100E3000138A6CE671E0CF010E94F204ED81FE811D
:100E4000168705871487038780E290E0908B878759
:100E5000F28AE18A148A138A6F817885A9C0ED81AC
:100E6000FE8180E190E09687858794878387908BC9
:100E700087878FEF9FEF928B818B148A138A66E8A6
:100E800071E0CF01DF91CF911F910F91FF90EF9013
:100E90000C94F2044EE160E170E081E390E00E9486
:100EA00074014EE16FE270E081E390E00E94740112
:100EB00021E04EE161E170E080E390E00E941204E5
:100EC00021E04EE161E170E08FE490E00E941204C5
:100ED00041E061E170E081E390E00E94950442E02E
:100EE00061E170E08EE490E00E94950444E06EE2DF
:100EF00070E08EE490E00E94950448E06EE270E0BD
:100F000081E390E0DF91CF911F910F91FF90EF90DF
:100F10000C949504EB80FC80C1E3D0E021E040E23A
:100F200060E170E0CE010E9412042196CF34D10519
:100F3000A9F70DE110E021E041E150E06EE470E03E
:100F4000C7010E94740422E041E150E061E370E0D7
:100F5000C7010E94740450CFED81FE8101E010E0D2
:100F60001687058714870387108B0787EE24EA947A
:100F7000FE2CF28AE18A148A138A69E771E0CF01B4
:100F80000E94F204ED81FE8116870587148703878E
:100F900080E290E0908B8787F28AE18A148A138A34
:100FA0008D899E89880F991FC80FD91F69857A85F9
:100FB000CF01DF91CF911F910F91FF90EF900C9493
:100FC000970682E090E00E94CC0F882319F03E9AA9
:100FD0003F9A08953E983F9808950F931F93CF939B
:100FE000DF93EC0109891A89015E1F4F1A8B098B67
:100FF0008A818230B1F148F48823A9F0813049F127
:10100000DF91CF911F910F910895833009F43FC074
:101010008430B1F768E08B819C810E94EA038823C9
:1010200079F385E01CC068E08B819C810E94EA0313
:10103000882331F381E08A831A8A198A0E94560F25
:1010400068E873E10E9407118053984F9C8B8B8B4B
:10105000D7CF8B899C898017910790F682E08A838D
:10106000CFCF68E08B819C810E94EA03882341F204
:1010700083E08A83ED89FE89EE0FFF1FEC0FFD1FD1
:101080008B899C89081B190B12870187B9CF68E0EF
:101090008B819C810E94EA03882309F4B1CF8D895A
:1010A0009E8901969E8B8D8B049720F289859A8567
:1010B0002B853C85820F931F2D853E85820F931FC4
:1010C0002F853889820F931F9695879596958795DA
:1010D00098878F8384E0C3CF1F920F920FB60F9231
:1010E00011248F939F938091E1009091E100937F71
:1010F0009093E10083FF0FC01092E90091E090937C
:10110000EB001092EC0092E39093ED0010926A01D4
:1011100098E09093F00082FF22C093E09093E90062
:101120009091F200992319F09AE39093E80090913E
:101130006701992341F09091670191509093670165
:10114000911101C05D9A90916901992341F09091AC
:101150006901915090936901911101C0289A84FF0F
:1011600018C08091E2008E7E81608093E2008091C1
:10117000E1008F7E8093E100809168018E7E806126
:10118000809368019F918F910F900FBE0F901F90D9
:10119000189580FFF7CF8091E2008E7E806180936A
:1011A000E2008091E1008E7E8093E10080916801F1
:1011B0008E7E8160E5CF1F920F920FB60F921124A1
:1011C000CF92DF92EF92FF920F931F932F933F9353
:1011D0004F935F936F937F938F939F93AF93BF933F
:1011E000EF93FF93CF93DF93CDB7DEB76C97DEBF5E
:1011F000CDBF1092E9008091E80083FF25C068E030
:10120000CE0145960E94000382EF8093E8008D890D
:1012100087FF39C09091E80090FFFCCF982F90761F
:1012200009F034C19E894F89588D2F89F88C91110E
:1012300031C0803861F580915A018093F10010929D
:10124000F1008EEF8093E8006C960FB6F894DEBF45
:101250000FBECDBFDF91CF91FF91EF91BF91AF91C5
:101260009F918F917F916F915F914F913F912F91BE
:101270001F910F91FF90EF90DF90CF900F900FBED6
:101280000F901F9018959EEF9093E800C7CF109293
:10129000F100D5CF913059F48111D3CF41305105B0
:1012A00081F680915A018D7F80935A01CACF933085
:1012B00049F48111C6CF4130510519F680915A0188
:1012C0008260F2CF953041F48091E80080FFFCCF3E
:1012D00020682093E300B5CF963009F0A9C00B8DAC
:1012E0001C8D22E01092E9001092580110925701D3
:1012F000F2122EC010925601109255010E94CF0298
:101300001F8299E09983FA8291E09E8390EA988700
:101310009AEF99872091570130915801275F3F4FED
:101320003C832B838D831092E90010925801109218
:101330005701109356010093550149E050E0BE015A
:101340006F5F7F4F80E00E94A9020E94CF0279CF99
:1013500010935601009355010E946702DC0112961A
:101360000D911C910115110509F451C1D801ED91A0
:10137000FC910480F581E02DBE016B5E7F4FC801BA
:101380000995009709F03EC1F80100851185EACF63
:10139000F3E0FF120EC08F89882309F440C0823029
:1013A00061F440E86CE087E692E00E94570B8111FF
:1013B00048CF81E28093EB0047CF813029F440E8A9
:1013C0006BE08BE592E0F1CF833099F70E946702E2
:1013D000DC011296ED90FC908E010F5F1F4F6801AB
:1013E000E114F10479F0D701ED91FC910680F781C9
:1013F000E02DB801C7010995080F111DF701E08420
:10140000F184EECFD8011C92F60101900020E9F79B
:101410003197BF016C197D0940E0C601C6CF65E474
:1014200072E0FB01449150E080E80E94A90209CFDC
:10143000973009F4BECF983021F481E08093F10019
:1014400000CF993009F0FDCE837009F0B2CFE1E210
:10145000F1E081E031E096E32191222371F0809365
:10146000E9003093EB00DF0111972C912093EC0001
:101470009093ED008F5F873079F78EE78093EA00D5
:101480001092EA008F8980936A01DBCE8B8D9C8D50
:101490001092E90010925801109257019093560152
:1014A00080935501898D811192C08E899D89913AD1
:1014B00049F4813209F07DCF47E050E064E071E00B
:1014C00080E0B3CF913209F074CF833269F48F8911
:1014D000988DB0E0A0E08093000190930101A0936B
:1014E0000201B0930301ADCE803269F48091E8002F
:1014F00082FFFCCF67E084E091E00E9400038BEF65
:101500008093E8009ECE823209F09BCE8F89809333
:101510000B01EEEFFFE7859194918B3F9C4D51F1CC
:10152000E0E0F8E08091040190910501A0910601AE
:10153000B0910701803B9440A105B105F1F4809181
:101540000B0180FD1AC0EE3F8AE0F80789F587E7B6
:1015500097E791838083809160008093590188E1AF
:101560009BE00FB6F894A895809360000FBE90930F
:10157000600067CEEEEFFAE0D5CF808191818737AA
:10158000974709F05ECEA8958091600088618093AE
:1015900060008091590180936000EE3F2AE0F207DD
:1015A00089F08091FE0A9091FF0A9183808349CE51
:1015B000808191818737980751F29093FF0A809339
:1015C000FE0AC5CF1092FF0A1092FE0A3ACE0E9480
:1015D0006702DC0112960D911C910115110509F4A9
:1015E000E8CED801ED91FC910190F081E02DBE0193
:1015F0006B5E7F4FC8010995811123CEF8010085EC
:101600001185EBCF181619060CF41BCED2CEF1E0E3
:10161000FF12BECE69E472E004CF1F920F920FB6A4
:101620000F9211242F933F938F939F93AF93BF9368
:1016300080914D0190914E01A0914F01B0915001C8
:1016400030914C0123E0230F2D3758F50196A11D51
:10165000B11D20934C0180934D0190934E01A093B6
:101660004F01B09350018091510190915201A0918E
:101670005301B09154010196A11DB11D80935101F8
:1016800090935201A0935301B0935401BF91AF9135
:101690009F918F913F912F910F900FBE0F901F90B0
:1016A000189526E8230F0296A11DB11DD2CFEF9207
:1016B000FF920F931F93CF93DF93F82E192FE62EEF
:1016C000042F81E0860F880F0E947B0283E00E9436
:1016D0007B02CF2DD12FEC0EFD2EF11CCE15DF0598
:1016E000B9F007FF13C0FE0184910E947B02182FFE
:1016F00080E00E947B02812321968111EFCFDF9150
:10170000CF911F910F91FF90EF9008958881EDCFB9
:1017100081E0F5CFEBE6F1E01382128288EE93E0F0
:10172000A0E0B0E084839583A683B7838BE291E049
:10173000918380832FEF3FEF35872487EBEBF5E034
:101740001182108289E491E093838283178210864C
:1017500080E18187168215821386108A17868DE3B1
:1017600091E0968785878BEB91E0938B828B80E865
:1017700090E0958B848B80E490E0978B868B85E05E
:1017800084A381E083A3138E128E158E148E118E86
:10179000108E378F268F11A210A282A3118A15A254
:1017A00016A20895CF93DF9300D0CDB7DEB778941B
:1017B00084B5826084BD84B5816084BD85B5826056
:1017C00085BD85B5816085BD80916E008160809307
:1017D0006E00109281008091810082608093810070
:1017E0008091810081608093810080918000816080
:1017F000809380008091910082608093910080911D
:10180000910081608093910080919000816080932D
:1018100090008091C10084608093C1008091C100DC
:1018200082608093C1008091C10081608093C1007B
:101830008091C30081608093C3008091C00082606A
:101840008093C0008091C20081608093C20080912B
:101850007A00846080937A0080917A00826080931D
:101860007A0080917A00816080937A0080917A007A
:10187000806880937A0010926A0110925A01109247
:1018800068018091D70081608093D70080EA8093BF
:10189000D80089B5806189BD89B5826089BD09B4E8
:1018A00000FEFDCF61E070E080E090E00E94320336
:1018B0008091D8008F7C80618093D8008091E00077
:1018C000807F8093E0008091E1008E7E8093E10034
:1018D0008DE08093E200559A209A809164008E7F7B
:1018E0008093640080917A00806480937A00809174
:1018F0007A0086FDFCCF00917800109179000E945B
:101900000D03AB01BC019091640091609093640061
:10191000C801B0E0A0E0DC0199278827840F951F5B
:10192000A61FB71F0E945B0F81EC80937C0085B1DE
:10193000806F85B984B1877E84B984B1876E84B99C
:101940005E9A5F988AB1806D8AB9769A6E9881B3F3
:10195000806F81BB899880B38D7080BB80E58CBD22
:1019600081E08DBD85E090E00E94E5045F9A85E00E
:1019700090E00E94E5045E985C98EBEAF1E08491C7
:101980008EBD00000DB407FEFDCF319681E0E83B2F
:10199000F807A9F75C9A81E880936400809165005C
:1019A00081608093650080E00E9465010E94EA04E6
:1019B00087FF15C05C9885EA8EBD00000DB407FE58
:1019C000FDCF5C9A2E982F982D98809164008062AC
:1019D0008093640081E083BF889513BEFCCF0E9492
:1019E000EA0482FF48C02D980E94EA048478843873
:1019F000E1F40E94E30488EC90E00E94E5042F9853
:101A000082E090E00E94CC0F8F3F29F06FEF82E0E0
:101A100090E00E94D40F84EF91E00E94E5042F9A99
:101A20000E94EA0484788438D9F30E94EA0484711D
:101A30008431E1F40E94E30488EC90E00E94E50424
:101A40002E9882E090E00E94CC0F882329F060E07D
:101A500082E090E00E94D40F84EF91E00E94E504C0
:101A60002E9A0E94EA0484718431D9F388EC90E0C4
:101A70000E94E504B4CF0E94E3040E94E10781E0E4
:101A800090E00E94CC0F8470F82E81E090E00E94DC
:101A9000CC0F81FF0CC0F1102E9800EF1FEF0E94B9
:101AA000EA0486FF49C02E9A2F9A0E94E30482E33B
:101AB00090E00E94E5040E94EA048111F8CF8FE1D2
:101AC0008093C4050E94E107552453942BEBC22E4A
:101AD00021E0D22E3AE1A32E31E0B32E40E0E42EF5
:101AE00040E0F42E7724739402E010E088248A9476
:101AF000982C412C82E0382E96E0692E8FB7F8940E
:101B000040914D0150914E0160914F0170915001F3
:101B10008FBF8091C505942F981B892F9091C60582
:101B2000992361F18093C7051092C605E114F10471
:101B300029F30E940000DDCFFF2029F004301105B9
:101B400011F42E9A2F9881E00E94650180E00E9496
:101B500065018FE090E00E94E5040F5F1F4F09319F
:101B6000110509F09CCFFF2011F02F9A2D9880E9E4
:101B700091E00E94E5040E94E30499CF9091C4058E
:101B8000891738F48F5F891788F653BE889513BE7E
:101B9000CDCF7092C6054093C5058091C005909148
:101BA000C10501969093C1058093C0058091C2053F
:101BB0008093C3050E94EA048093C2058091E005EA
:101BC000813009F483C0D8F0823009F4ACC0842D90
:101BD000F60181118FEF002481938193819381938A
:101BE0000394D1F78091E005813009F4ECC008F44A
:101BF000A9C0823009F4F3C01092E005E0C060E8AB
:101C00008DEB95E00E94EA03882331F08091E10595
:101C1000882309F1863011F160E18DEB95E00E9497
:101C2000EA03882331F08091E1058823D1F08630E2
:101C3000D9F068E08DEB95E00E94EA03882309F46F
:101C4000C6CF8091E105882391F0863009F0BFCF9F
:101C50003092E005BCCF6092E105DECF1092E10545
:101C6000DBCF6092E105E5CF1092E105E2CF8091F4
:101C7000BB059091BC05009711F00E947E1087E192
:101C800090E00E94E20FFC01B182A08212828DEBF3
:101C900095E09483838388EC95E096838583108612
:101CA00017829F01275F3F4F88E0D9011D928A95D7
:101CB000E9F7128A118A148A138A168A158AF09310
:101CC000BC05E093BB057092E00581CF8091BB0518
:101CD0009091BC05009721F1DC01ED91FC91019000
:101CE000F081E02D09951A8219828091BB059091AF
:101CF000BC05DC01ED91FC910480F581E02DBE0175
:101D00006F5F7F4F0995882309F461CF8091BB05F0
:101D10009091BC050E947E101092BC051092BB05EC
:101D20001092E00554CF68E08DEB95E00E94EA0345
:101D30008111F6CF64E08DEB95E00E94EA038111FA
:101D4000EFCF45CF61E08091E105811160E080E057
:101D50000E943B046CEF71E088EC95E00E94F20475
:101D600061E08091E105813009F060E088E00E9447
:101D70003B0463EF71E088EC95E00E94F20461E0BF
:101D80008091E105823009F060E080E10E943B042F
:101D900069EE71E088EC95E00E94F20461E08091C8
:101DA000E105863009F060E088E10E943B0461EEC5
:101DB00071E088EC95E00E94F2047092DD0580E00D
:101DC0000E946501B3CE8091BB059091BC05DC01FA
:101DD000ED91FC910280F381E02D0995F0CF1093F5
:101DE000D6050093D5051093D4050093D305109222
:101DF000D8051092D7059092DA058092D9051092F5
:101E0000DC051092DB0568EB71E088EC95E00E9440
:101E1000F204D5CF8F929F92AF92BF92CF92DF9272
:101E2000EF92FF92CF93DF93EC01688179818A81F1
:101E30009B81611571058105910521F464E279EDBD
:101E40008BE597E02DE133EF41E050E00E94690F10
:101E500049015A019B01AC01A7EAB1E40E94880F35
:101E60006B017C01ACEEB4EFA50194010E94960FCA
:101E7000DC01CB018C0D9D1DAE1DBF1DB7FF03C046
:101E80000197A109B04888839983AA83BB839F7770
:101E9000DF91CF91FF90EF90DF90CF90BF90AF9008
:101EA0009F908F9008950E940A0F08958CE091E012
:101EB0000E940A0F0895B0E0A0E080930C01909377
:101EC0000D01A0930E01B0930F010895F8940C94A6
:101ED0003511052E97FB1EF400940E94800F57FDCC
:101EE00007D00E949B0F07FC03D04EF40C94800F88
:101EF00050954095309521953F4F4F4F5F4F089536
:101F000090958095709561957F4F8F4F9F4F089565
:101F10000E94BD0FA59F900DB49F900DA49F800DB2
:101F2000911D11240895B7FF0C94880F0E94880F0B
:101F3000821B930B0895A1E21A2EAA1BBB1BFD0165
:101F40000DC0AA1FBB1FEE1FFF1FA217B307E40798
:101F5000F50720F0A21BB30BE40BF50B661F771FF0
:101F6000881F991F1A9469F76095709580959095D0
:101F70009B01AC01BD01CF010895A29FB001B39FA9
:101F8000C001A39F700D811D1124911DB29F700D82
:101F9000811D1124911D0895F999FECF92BD81BD37
:101FA000F89A992780B50895262FF999FECF1FBA80
:101FB00092BD81BD20BD0FB6F894FA9AF99A0FBE72
:101FC000019608950F931F93CF93DF93823091056D
:101FD00010F482E090E0E091E405F091E50530E056
:101FE00020E0B0E0A0E0309799F42115310509F424
:101FF0004AC0281B390B24303105D8F58A819B81D2
:102000006115710589F1FB0193838283FE0111C083
:10201000408151810281138148175907E0F0481728
:10202000590799F4109761F012960C931297139632
:102030001C933296CF01DF91CF911F910F9108959C
:102040000093E4051093E505F4CF2115310551F017
:102050004217530738F0A901DB019A01BD01DF01E6
:10206000F801C1CFEF01F9CF9093E5058093E40526
:10207000CDCFFE01E20FF31F8193919322503109DE
:1020800039832883D7CF2091E2053091E305232BB4
:1020900041F420911201309113013093E305209314
:1020A000E20520911001309111012115310541F413
:1020B0002DB73EB74091140150911501241B350BEB
:1020C000E091E205F091E305E217F307A0F42E1B7F
:1020D0003F0B2817390778F0AC014E5F5F4F24178C
:1020E000350748F04E0F5F1F5093E3054093E2051C
:1020F000819391939FCFF0E0E0E09CCFCF93DF936B
:102100000097E9F0FC01329713821282A091E40556
:10211000B091E505ED0130E020E01097A1F42081B9
:102120003181820F931F2091E2053091E30528173A
:10213000390709F061C0F093E305E093E205DF9110
:10214000CF910895EA01CE17DF07E8F54A815B8158
:102150009E0141155105B1F7E901FB83EA834991DD
:102160005991C40FD51FEC17FD0761F4808191814F
:102170000296840F951FE901998388838281938158
:102180009B838A83F0E0E0E012968D919C911397F7
:102190000097B9F52D913C911197CD010296820FD0
:1021A000931F2091E2053091E3052817390739F68E
:1021B000309751F51092E5051092E405B093E305D0
:1021C000A093E205BCCFD383C28340815181840FA9
:1021D000951FC817D90761F44E5F5F4F88819981B9
:1021E000480F591F518340838A819B819383828347
:1021F0002115310509F0B0CFF093E505E093E40532
:102200009ECFFD01DC01C0CF13821282D7CF97FB96
:10221000072E16F4009407D077FD09D00E941B11F9
:1022200007FC05D03EF4909581959F4F08957095D9
:1022300061957F4F0895AA1BBB1B51E107C0AA1FE0
:10224000BB1FA617B70710F0A61BB70B881F991F57
:102250005A95A9F780959095BC01CD010895EE0F90
:0E226000FF1F0590F491E02D0994F894FFCF34
:10226E00FFFFFFFF00E10000000000000100000082
:10227E000000E605800000000000ED07EB064305B8
:10228E0000C1808100000000000000E60165030728
:10229E0002FC014D020B02290200000000BD0516D2
:0C22AE00059406930600000000E2040006
:00000001FF
